{
  "abi": [
    {
      "inputs": [
        {
          "internalType": "bytes32",
          "name": "keyhash",
          "type": "bytes32"
        },
        {
          "internalType": "address",
          "name": "vrfCoordinator",
          "type": "address"
        },
        {
          "internalType": "address",
          "name": "linkToken",
          "type": "address"
        },
        {
          "internalType": "address",
          "name": "minigameFactoryRegistry",
          "type": "address"
        }
      ],
      "stateMutability": "nonpayable",
      "type": "constructor"
    },
    {
      "anonymous": false,
      "inputs": [
        {
          "indexed": true,
          "internalType": "address",
          "name": "account",
          "type": "address"
        },
        {
          "indexed": true,
          "internalType": "address",
          "name": "operator",
          "type": "address"
        },
        {
          "indexed": false,
          "internalType": "bool",
          "name": "approved",
          "type": "bool"
        }
      ],
      "name": "ApprovalForAll",
      "type": "event"
    },
    {
      "anonymous": false,
      "inputs": [
        {
          "indexed": false,
          "internalType": "uint256",
          "name": "elderId",
          "type": "uint256"
        },
        {
          "indexed": false,
          "internalType": "address",
          "name": "owner",
          "type": "address"
        }
      ],
      "name": "ElderSpiritMinted",
      "type": "event"
    },
    {
      "anonymous": false,
      "inputs": [],
      "name": "ElderSpiritsBurned",
      "type": "event"
    },
    {
      "anonymous": false,
      "inputs": [
        {
          "indexed": false,
          "internalType": "uint256",
          "name": "heroId",
          "type": "uint256"
        },
        {
          "indexed": false,
          "internalType": "address",
          "name": "owner",
          "type": "address"
        }
      ],
      "name": "HeroMinted",
      "type": "event"
    },
    {
      "anonymous": false,
      "inputs": [
        {
          "indexed": true,
          "internalType": "bytes32",
          "name": "role",
          "type": "bytes32"
        },
        {
          "indexed": true,
          "internalType": "bytes32",
          "name": "previousAdminRole",
          "type": "bytes32"
        },
        {
          "indexed": true,
          "internalType": "bytes32",
          "name": "newAdminRole",
          "type": "bytes32"
        }
      ],
      "name": "RoleAdminChanged",
      "type": "event"
    },
    {
      "anonymous": false,
      "inputs": [
        {
          "indexed": true,
          "internalType": "bytes32",
          "name": "role",
          "type": "bytes32"
        },
        {
          "indexed": true,
          "internalType": "address",
          "name": "account",
          "type": "address"
        },
        {
          "indexed": true,
          "internalType": "address",
          "name": "sender",
          "type": "address"
        }
      ],
      "name": "RoleGranted",
      "type": "event"
    },
    {
      "anonymous": false,
      "inputs": [
        {
          "indexed": true,
          "internalType": "bytes32",
          "name": "role",
          "type": "bytes32"
        },
        {
          "indexed": true,
          "internalType": "address",
          "name": "account",
          "type": "address"
        },
        {
          "indexed": true,
          "internalType": "address",
          "name": "sender",
          "type": "address"
        }
      ],
      "name": "RoleRevoked",
      "type": "event"
    },
    {
      "anonymous": false,
      "inputs": [
        {
          "indexed": true,
          "internalType": "address",
          "name": "operator",
          "type": "address"
        },
        {
          "indexed": true,
          "internalType": "address",
          "name": "from",
          "type": "address"
        },
        {
          "indexed": true,
          "internalType": "address",
          "name": "to",
          "type": "address"
        },
        {
          "indexed": false,
          "internalType": "uint256[]",
          "name": "ids",
          "type": "uint256[]"
        },
        {
          "indexed": false,
          "internalType": "uint256[]",
          "name": "values",
          "type": "uint256[]"
        }
      ],
      "name": "TransferBatch",
      "type": "event"
    },
    {
      "anonymous": false,
      "inputs": [
        {
          "indexed": true,
          "internalType": "address",
          "name": "operator",
          "type": "address"
        },
        {
          "indexed": true,
          "internalType": "address",
          "name": "from",
          "type": "address"
        },
        {
          "indexed": true,
          "internalType": "address",
          "name": "to",
          "type": "address"
        },
        {
          "indexed": false,
          "internalType": "uint256",
          "name": "id",
          "type": "uint256"
        },
        {
          "indexed": false,
          "internalType": "uint256",
          "name": "value",
          "type": "uint256"
        }
      ],
      "name": "TransferSingle",
      "type": "event"
    },
    {
      "anonymous": false,
      "inputs": [
        {
          "indexed": false,
          "internalType": "string",
          "name": "value",
          "type": "string"
        },
        {
          "indexed": true,
          "internalType": "uint256",
          "name": "id",
          "type": "uint256"
        }
      ],
      "name": "URI",
      "type": "event"
    },
    {
      "inputs": [],
      "name": "DEFAULT_ADMIN_ROLE",
      "outputs": [
        {
          "internalType": "bytes32",
          "name": "",
          "type": "bytes32"
        }
      ],
      "stateMutability": "view",
      "type": "function"
    },
    {
      "inputs": [],
      "name": "MAX_NUMBER_OF_ELDERS",
      "outputs": [
        {
          "internalType": "uint256",
          "name": "",
          "type": "uint256"
        }
      ],
      "stateMutability": "view",
      "type": "function"
    },
    {
      "inputs": [
        {
          "internalType": "uint256",
          "name": "",
          "type": "uint256"
        }
      ],
      "name": "affinities",
      "outputs": [
        {
          "internalType": "string",
          "name": "",
          "type": "string"
        }
      ],
      "stateMutability": "view",
      "type": "function"
    },
    {
      "inputs": [
        {
          "internalType": "address",
          "name": "account",
          "type": "address"
        },
        {
          "internalType": "uint256",
          "name": "id",
          "type": "uint256"
        }
      ],
      "name": "balanceOf",
      "outputs": [
        {
          "internalType": "uint256",
          "name": "",
          "type": "uint256"
        }
      ],
      "stateMutability": "view",
      "type": "function"
    },
    {
      "inputs": [
        {
          "internalType": "address[]",
          "name": "accounts",
          "type": "address[]"
        },
        {
          "internalType": "uint256[]",
          "name": "ids",
          "type": "uint256[]"
        }
      ],
      "name": "balanceOfBatch",
      "outputs": [
        {
          "internalType": "uint256[]",
          "name": "",
          "type": "uint256[]"
        }
      ],
      "stateMutability": "view",
      "type": "function"
    },
    {
      "inputs": [
        {
          "internalType": "uint256",
          "name": "heroId",
          "type": "uint256"
        }
      ],
      "name": "claimReward",
      "outputs": [],
      "stateMutability": "nonpayable",
      "type": "function"
    },
    {
      "inputs": [
        {
          "internalType": "string",
          "name": "tokenTicker",
          "type": "string"
        },
        {
          "internalType": "address",
          "name": "feedAddress",
          "type": "address"
        }
      ],
      "name": "createAffinity",
      "outputs": [],
      "stateMutability": "nonpayable",
      "type": "function"
    },
    {
      "inputs": [],
      "name": "currentPhase",
      "outputs": [
        {
          "internalType": "enum CryptoChampions.Phase",
          "name": "",
          "type": "uint8"
        }
      ],
      "stateMutability": "view",
      "type": "function"
    },
    {
      "inputs": [],
      "name": "currentPhaseStartTime",
      "outputs": [
        {
          "internalType": "uint256",
          "name": "",
          "type": "uint256"
        }
      ],
      "stateMutability": "view",
      "type": "function"
    },
    {
      "inputs": [],
      "name": "currentRound",
      "outputs": [
        {
          "internalType": "uint256",
          "name": "",
          "type": "uint256"
        }
      ],
      "stateMutability": "view",
      "type": "function"
    },
    {
      "inputs": [
        {
          "internalType": "string",
          "name": "winningAffinity",
          "type": "string"
        }
      ],
      "name": "declareRoundWinner",
      "outputs": [],
      "stateMutability": "nonpayable",
      "type": "function"
    },
    {
      "inputs": [
        {
          "internalType": "address",
          "name": "from",
          "type": "address"
        },
        {
          "internalType": "address",
          "name": "to",
          "type": "address"
        },
        {
          "internalType": "uint256",
          "name": "amount",
          "type": "uint256"
        }
      ],
      "name": "delegatedTransferInGameTokens",
      "outputs": [],
      "stateMutability": "nonpayable",
      "type": "function"
    },
    {
      "inputs": [],
      "name": "devFund",
      "outputs": [
        {
          "internalType": "uint256",
          "name": "",
          "type": "uint256"
        }
      ],
      "stateMutability": "view",
      "type": "function"
    },
    {
      "inputs": [],
      "name": "elderMintPrice",
      "outputs": [
        {
          "internalType": "uint256",
          "name": "",
          "type": "uint256"
        }
      ],
      "stateMutability": "view",
      "type": "function"
    },
    {
      "inputs": [],
      "name": "eldersInGame",
      "outputs": [
        {
          "internalType": "uint256",
          "name": "",
          "type": "uint256"
        }
      ],
      "stateMutability": "view",
      "type": "function"
    },
    {
      "inputs": [
        {
          "internalType": "string",
          "name": "affinity",
          "type": "string"
        }
      ],
      "name": "getAffinityFeedAddress",
      "outputs": [
        {
          "internalType": "address",
          "name": "",
          "type": "address"
        }
      ],
      "stateMutability": "view",
      "type": "function"
    },
    {
      "inputs": [
        {
          "internalType": "uint256",
          "name": "elderId",
          "type": "uint256"
        }
      ],
      "name": "getElderOwner",
      "outputs": [
        {
          "internalType": "address",
          "name": "",
          "type": "address"
        }
      ],
      "stateMutability": "view",
      "type": "function"
    },
    {
      "inputs": [
        {
          "internalType": "uint256",
          "name": "round",
          "type": "uint256"
        },
        {
          "internalType": "uint256",
          "name": "elderId",
          "type": "uint256"
        }
      ],
      "name": "getElderSpawnsAmount",
      "outputs": [
        {
          "internalType": "uint256",
          "name": "",
          "type": "uint256"
        }
      ],
      "stateMutability": "view",
      "type": "function"
    },
    {
      "inputs": [
        {
          "internalType": "uint256",
          "name": "elderId",
          "type": "uint256"
        }
      ],
      "name": "getElderSpirit",
      "outputs": [
        {
          "internalType": "bool",
          "name": "",
          "type": "bool"
        },
        {
          "internalType": "uint256",
          "name": "",
          "type": "uint256"
        },
        {
          "internalType": "uint256",
          "name": "",
          "type": "uint256"
        },
        {
          "internalType": "string",
          "name": "",
          "type": "string"
        },
        {
          "internalType": "int256",
          "name": "",
          "type": "int256"
        }
      ],
      "stateMutability": "view",
      "type": "function"
    },
    {
      "inputs": [
        {
          "internalType": "uint256",
          "name": "heroId",
          "type": "uint256"
        }
      ],
      "name": "getHeroGameData",
      "outputs": [
        {
          "internalType": "bool",
          "name": "",
          "type": "bool"
        },
        {
          "internalType": "string",
          "name": "",
          "type": "string"
        },
        {
          "internalType": "int256",
          "name": "",
          "type": "int256"
        },
        {
          "internalType": "uint256",
          "name": "",
          "type": "uint256"
        },
        {
          "internalType": "uint256",
          "name": "",
          "type": "uint256"
        }
      ],
      "stateMutability": "view",
      "type": "function"
    },
    {
      "inputs": [
        {
          "internalType": "uint256",
          "name": "heroId",
          "type": "uint256"
        }
      ],
      "name": "getHeroLore",
      "outputs": [
        {
          "internalType": "uint8",
          "name": "",
          "type": "uint8"
        },
        {
          "internalType": "uint8",
          "name": "",
          "type": "uint8"
        },
        {
          "internalType": "uint8",
          "name": "",
          "type": "uint8"
        },
        {
          "internalType": "uint8",
          "name": "",
          "type": "uint8"
        }
      ],
      "stateMutability": "view",
      "type": "function"
    },
    {
      "inputs": [
        {
          "internalType": "uint256",
          "name": "round",
          "type": "uint256"
        },
        {
          "internalType": "uint256",
          "name": "elderId",
          "type": "uint256"
        }
      ],
      "name": "getHeroMintPrice",
      "outputs": [
        {
          "internalType": "uint256",
          "name": "",
          "type": "uint256"
        }
      ],
      "stateMutability": "view",
      "type": "function"
    },
    {
      "inputs": [
        {
          "internalType": "uint256",
          "name": "heroId",
          "type": "uint256"
        }
      ],
      "name": "getHeroOwner",
      "outputs": [
        {
          "internalType": "address",
          "name": "",
          "type": "address"
        }
      ],
      "stateMutability": "view",
      "type": "function"
    },
    {
      "inputs": [
        {
          "internalType": "uint256",
          "name": "heroId",
          "type": "uint256"
        }
      ],
      "name": "getHeroStats",
      "outputs": [
        {
          "internalType": "uint8",
          "name": "",
          "type": "uint8"
        },
        {
          "internalType": "uint8",
          "name": "",
          "type": "uint8"
        },
        {
          "internalType": "uint8",
          "name": "",
          "type": "uint8"
        },
        {
          "internalType": "uint8",
          "name": "",
          "type": "uint8"
        },
        {
          "internalType": "uint8",
          "name": "",
          "type": "uint8"
        },
        {
          "internalType": "uint8",
          "name": "",
          "type": "uint8"
        }
      ],
      "stateMutability": "view",
      "type": "function"
    },
    {
      "inputs": [
        {
          "internalType": "uint256",
          "name": "heroId",
          "type": "uint256"
        }
      ],
      "name": "getHeroTraitsSkills",
      "outputs": [
        {
          "internalType": "uint8",
          "name": "",
          "type": "uint8"
        },
        {
          "internalType": "uint8",
          "name": "",
          "type": "uint8"
        },
        {
          "internalType": "uint8",
          "name": "",
          "type": "uint8"
        },
        {
          "internalType": "uint8",
          "name": "",
          "type": "uint8"
        }
      ],
      "stateMutability": "view",
      "type": "function"
    },
    {
      "inputs": [
        {
          "internalType": "uint256",
          "name": "heroId",
          "type": "uint256"
        }
      ],
      "name": "getHeroVisuals",
      "outputs": [
        {
          "internalType": "string",
          "name": "",
          "type": "string"
        },
        {
          "internalType": "uint256",
          "name": "",
          "type": "uint256"
        },
        {
          "internalType": "uint256",
          "name": "",
          "type": "uint256"
        },
        {
          "internalType": "uint8",
          "name": "",
          "type": "uint8"
        }
      ],
      "stateMutability": "view",
      "type": "function"
    },
    {
      "inputs": [
        {
          "internalType": "uint256",
          "name": "heroId",
          "type": "uint256"
        }
      ],
      "name": "getHeroVitals",
      "outputs": [
        {
          "internalType": "uint8",
          "name": "",
          "type": "uint8"
        },
        {
          "internalType": "uint8",
          "name": "",
          "type": "uint8"
        },
        {
          "internalType": "uint8",
          "name": "",
          "type": "uint8"
        },
        {
          "internalType": "uint8",
          "name": "",
          "type": "uint8"
        }
      ],
      "stateMutability": "view",
      "type": "function"
    },
    {
      "inputs": [],
      "name": "getNumEldersInGame",
      "outputs": [
        {
          "internalType": "uint256",
          "name": "",
          "type": "uint256"
        }
      ],
      "stateMutability": "view",
      "type": "function"
    },
    {
      "inputs": [
        {
          "internalType": "bytes32",
          "name": "role",
          "type": "bytes32"
        }
      ],
      "name": "getRoleAdmin",
      "outputs": [
        {
          "internalType": "bytes32",
          "name": "",
          "type": "bytes32"
        }
      ],
      "stateMutability": "view",
      "type": "function"
    },
    {
      "inputs": [
        {
          "internalType": "bytes32",
          "name": "role",
          "type": "bytes32"
        },
        {
          "internalType": "uint256",
          "name": "index",
          "type": "uint256"
        }
      ],
      "name": "getRoleMember",
      "outputs": [
        {
          "internalType": "address",
          "name": "",
          "type": "address"
        }
      ],
      "stateMutability": "view",
      "type": "function"
    },
    {
      "inputs": [
        {
          "internalType": "bytes32",
          "name": "role",
          "type": "bytes32"
        }
      ],
      "name": "getRoleMemberCount",
      "outputs": [
        {
          "internalType": "uint256",
          "name": "",
          "type": "uint256"
        }
      ],
      "stateMutability": "view",
      "type": "function"
    },
    {
      "inputs": [
        {
          "internalType": "bytes32",
          "name": "role",
          "type": "bytes32"
        },
        {
          "internalType": "address",
          "name": "account",
          "type": "address"
        }
      ],
      "name": "grantRole",
      "outputs": [],
      "stateMutability": "nonpayable",
      "type": "function"
    },
    {
      "inputs": [
        {
          "internalType": "bytes32",
          "name": "role",
          "type": "bytes32"
        },
        {
          "internalType": "address",
          "name": "account",
          "type": "address"
        }
      ],
      "name": "hasRole",
      "outputs": [
        {
          "internalType": "bool",
          "name": "",
          "type": "bool"
        }
      ],
      "stateMutability": "view",
      "type": "function"
    },
    {
      "inputs": [],
      "name": "heroesMinted",
      "outputs": [
        {
          "internalType": "uint256",
          "name": "",
          "type": "uint256"
        }
      ],
      "stateMutability": "view",
      "type": "function"
    },
    {
      "inputs": [
        {
          "internalType": "address",
          "name": "account",
          "type": "address"
        },
        {
          "internalType": "address",
          "name": "operator",
          "type": "address"
        }
      ],
      "name": "isApprovedForAll",
      "outputs": [
        {
          "internalType": "bool",
          "name": "",
          "type": "bool"
        }
      ],
      "stateMutability": "view",
      "type": "function"
    },
    {
      "inputs": [
        {
          "internalType": "uint256",
          "name": "raceId",
          "type": "uint256"
        },
        {
          "internalType": "uint256",
          "name": "classId",
          "type": "uint256"
        },
        {
          "internalType": "string",
          "name": "affinity",
          "type": "string"
        }
      ],
      "name": "mintElderSpirit",
      "outputs": [
        {
          "internalType": "uint256",
          "name": "",
          "type": "uint256"
        }
      ],
      "stateMutability": "payable",
      "type": "function"
    },
    {
      "inputs": [
        {
          "internalType": "uint256",
          "name": "elderId",
          "type": "uint256"
        },
        {
          "internalType": "string",
          "name": "heroName",
          "type": "string"
        }
      ],
      "name": "mintHero",
      "outputs": [
        {
          "internalType": "uint256",
          "name": "",
          "type": "uint256"
        }
      ],
      "stateMutability": "payable",
      "type": "function"
    },
    {
      "inputs": [
        {
          "internalType": "bytes32",
          "name": "requestId",
          "type": "bytes32"
        },
        {
          "internalType": "uint256",
          "name": "randomness",
          "type": "uint256"
        }
      ],
      "name": "rawFulfillRandomness",
      "outputs": [],
      "stateMutability": "nonpayable",
      "type": "function"
    },
    {
      "inputs": [],
      "name": "refreshPhase",
      "outputs": [],
      "stateMutability": "nonpayable",
      "type": "function"
    },
    {
      "inputs": [
        {
          "internalType": "bytes32",
          "name": "role",
          "type": "bytes32"
        },
        {
          "internalType": "address",
          "name": "account",
          "type": "address"
        }
      ],
      "name": "renounceRole",
      "outputs": [],
      "stateMutability": "nonpayable",
      "type": "function"
    },
    {
      "inputs": [
        {
          "internalType": "bytes32",
          "name": "role",
          "type": "bytes32"
        },
        {
          "internalType": "address",
          "name": "account",
          "type": "address"
        }
      ],
      "name": "revokeRole",
      "outputs": [],
      "stateMutability": "nonpayable",
      "type": "function"
    },
    {
      "inputs": [],
      "name": "rewardsPoolAmount",
      "outputs": [
        {
          "internalType": "uint256",
          "name": "",
          "type": "uint256"
        }
      ],
      "stateMutability": "view",
      "type": "function"
    },
    {
      "inputs": [
        {
          "internalType": "address",
          "name": "from",
          "type": "address"
        },
        {
          "internalType": "address",
          "name": "to",
          "type": "address"
        },
        {
          "internalType": "uint256[]",
          "name": "ids",
          "type": "uint256[]"
        },
        {
          "internalType": "uint256[]",
          "name": "amounts",
          "type": "uint256[]"
        },
        {
          "internalType": "bytes",
          "name": "data",
          "type": "bytes"
        }
      ],
      "name": "safeBatchTransferFrom",
      "outputs": [],
      "stateMutability": "nonpayable",
      "type": "function"
    },
    {
      "inputs": [
        {
          "internalType": "address",
          "name": "from",
          "type": "address"
        },
        {
          "internalType": "address",
          "name": "to",
          "type": "address"
        },
        {
          "internalType": "uint256",
          "name": "id",
          "type": "uint256"
        },
        {
          "internalType": "uint256",
          "name": "amount",
          "type": "uint256"
        },
        {
          "internalType": "bytes",
          "name": "data",
          "type": "bytes"
        }
      ],
      "name": "safeTransferFrom",
      "outputs": [],
      "stateMutability": "nonpayable",
      "type": "function"
    },
    {
      "inputs": [
        {
          "internalType": "address",
          "name": "operator",
          "type": "address"
        },
        {
          "internalType": "bool",
          "name": "approved",
          "type": "bool"
        }
      ],
      "name": "setApprovalForAll",
      "outputs": [],
      "stateMutability": "nonpayable",
      "type": "function"
    },
    {
      "inputs": [
        {
          "internalType": "uint256",
          "name": "price",
          "type": "uint256"
        }
      ],
      "name": "setElderMintPrice",
      "outputs": [],
      "stateMutability": "nonpayable",
      "type": "function"
    },
    {
      "inputs": [
        {
          "internalType": "enum CryptoChampions.Phase",
          "name": "phase",
          "type": "uint8"
        }
      ],
      "name": "setPhase",
      "outputs": [],
      "stateMutability": "nonpayable",
      "type": "function"
    },
    {
      "inputs": [
        {
          "internalType": "bytes4",
          "name": "interfaceId",
          "type": "bytes4"
        }
      ],
      "name": "supportsInterface",
      "outputs": [
        {
          "internalType": "bool",
          "name": "",
          "type": "bool"
        }
      ],
      "stateMutability": "view",
      "type": "function"
    },
    {
      "inputs": [
        {
          "internalType": "address",
          "name": "to",
          "type": "address"
        },
        {
          "internalType": "uint256",
          "name": "amount",
          "type": "uint256"
        }
      ],
      "name": "transferInGameTokens",
      "outputs": [],
      "stateMutability": "nonpayable",
      "type": "function"
    },
    {
      "inputs": [
        {
          "internalType": "uint256",
          "name": "",
          "type": "uint256"
        }
      ],
      "name": "uri",
      "outputs": [
        {
          "internalType": "string",
          "name": "",
          "type": "string"
        }
      ],
      "stateMutability": "view",
      "type": "function"
    },
    {
      "inputs": [
        {
          "internalType": "uint256",
          "name": "",
          "type": "uint256"
        }
      ],
      "name": "winningAffinitiesByRound",
      "outputs": [
        {
          "internalType": "string",
          "name": "",
          "type": "string"
        }
      ],
      "stateMutability": "view",
      "type": "function"
    }
  ],
  "bytecode": "60c0604052600260075560026008556000600a556000600b556000600c556000600d5560006010553480156200003457600080fd5b5060405162005d0938038062005d09833981810160405260808110156200005a57600080fd5b5080516020808301516040808501516060909501518151808301909252600382526275726960e81b938201939093529293909290919083908390620000a66301ffc9a760e01b620001fd565b620000b18162000285565b620000c3636cdb3d1360e11b620001fd565b620000d56303a24d0760e21b620001fd565b506001600160601b0319606092831b811660a052911b166080526200010a60008051602062005ce9833981519152806200029e565b6200013460008051602062005cc983398151915260008051602062005ce98339815191526200029e565b6200016f7fae0c232b87105e0a8134f8b92146dcd1d99373d32394be9d70f700f90b3a3db360008051602062005ce98339815191526200029e565b6200018a60008051602062005ce983398151915233620002f0565b620001a560008051602062005cc983398151915233620002fc565b6703c2c9106e21800060145560006015556006805460ff1916905542600955601893909355505067016345785d8a0000601955601e80546001600160a01b0319166001600160a01b039092169190911790556200053b565b6001600160e01b031980821614156200025d576040805162461bcd60e51b815260206004820152601c60248201527f4552433136353a20696e76616c696420696e7465726661636520696400000000604482015290519081900360640190fd5b6001600160e01b0319166000908152600160208190526040909120805460ff19169091179055565b80516200029a9060049060208401906200049f565b5050565b600082815260208190526040808220600201549051839285917fbd79b86ffe0ab8e8776151514217cd7cacd52c909f66475c3af44e129f0b00ff9190a460009182526020829052604090912060020155565b6200029a828262000360565b60008281526020819052604090206002015462000323906200031d620003d9565b620003dd565b620002f05760405162461bcd60e51b815260040180806020018281038252602f81526020018062005c9a602f913960400191505060405180910390fd5b600082815260208181526040909120620003859183906200344e6200040a821b17901c565b156200029a5762000395620003d9565b6001600160a01b0316816001600160a01b0316837f2f8788117e7eff1d82e926ec794901d17c78024a50270940304540a733656f0d60405160405180910390a45050565b3390565b6000828152602081815260408220620004019184906200346362000421821b17901c565b90505b92915050565b600062000401836001600160a01b03841662000438565b600062000401836001600160a01b03841662000487565b600062000446838362000487565b6200047e5750815460018181018455600084815260208082209093018490558454848252828601909352604090209190915562000404565b50600062000404565b60009081526001919091016020526040902054151590565b828054600181600116156101000203166002900490600052602060002090601f016020900481019282601f10620004e257805160ff191683800117855562000512565b8280016001018555821562000512579182015b8281111562000512578251825591602001919060010190620004f5565b506200052092915062000524565b5090565b5b8082111562000520576000815560010162000525565b60805160601c60a05160601c61572b6200056f60003980612b0752806142b5525080613c225280614286525061572b6000f3fe6080604052600436106102e35760003560e01c806379935fe011610190578063ae169a50116100dc578063d547741f11610095578063e5b0a9931161006f578063e5b0a99314611197578063e985e9c5146111c1578063f242432a146111fc578063f32c4974146112d2576102e3565b8063d547741f1461111f578063d6303cce14611158578063e3e983821461116d576102e3565b8063ae169a5014611031578063b92800671461105b578063bf61211f1461109e578063c03afb59146110b3578063ca15c873146110e0578063caab7ef81461110a576102e3565b806391d14854116101495780639e315008116101235780639e31500814610f515780639ff1103f14610fcc578063a217fddf14610fe1578063a22cb46514610ff6576102e3565b806391d1485414610e6457806394985ddd14610e9d5780639d5b82c014610ecd576102e3565b806379935fe014610d64578063835a439814610d795780638423b07714610de05780638a19c8bc14610e0a5780639010d07c14610e1f57806390ded47e14610e4f576102e3565b80632f2ff15d1161024f5780634c2ed0181161020857806356b4d760116101e257806356b4d76014610cb657806359ca19d314610ce05780636de5135314610d1057806372eda5bb14610d3a576102e3565b80634c2ed01814610af75780634c52b2a914610b215780634e1273f414610b36576102e3565b80632f2ff15d146108e957806336568abe146109225780634390d2a81461095b57806346e6f13d1461097057806348772d7914610a2a578063498e821914610a82576102e3565b806321c2f72a116102a157806321c2f72a146104df578063248a9ca31461059f57806326d4d15a146105c957806326f7af4f146106605780632eb2c2d61461069b5780632ee1f0a014610869576102e3565b8062fdd58e146102e8578063010a768e1461033357806301ffc9a714610348578063055ad42e146103905780630e89341c146103c65780630fbea84114610465575b600080fd5b3480156102f457600080fd5b506103216004803603604081101561030b57600080fd5b506001600160a01b038135169060200135611302565b60408051918252519081900360200190f35b34801561033f57600080fd5b50610321611374565b34801561035457600080fd5b5061037c6004803603602081101561036b57600080fd5b50356001600160e01b03191661137a565b604080519115158252519081900360200190f35b34801561039c57600080fd5b506103a561139d565b604051808260018111156103b557fe5b815260200191505060405180910390f35b3480156103d257600080fd5b506103f0600480360360208110156103e957600080fd5b50356113a6565b6040805160208082528351818301528351919283929083019185019080838360005b8381101561042a578181015183820152602001610412565b50505050905090810190601f1680156104575780820380516001836020036101000a031916815260200191505b509250505060405180910390f35b6103216004803603606081101561047b57600080fd5b813591602081013591810190606081016040820135600160201b8111156104a157600080fd5b8201836020820111156104b357600080fd5b803590602001918460018302840111600160201b831117156104d457600080fd5b50909250905061143e565b3480156104eb57600080fd5b506105096004803603602081101561050257600080fd5b5035611732565b60405180861515815260200185815260200184815260200180602001838152602001828103825284818151815260200191508051906020019080838360005b83811015610560578181015183820152602001610548565b50505050905090810190601f16801561058d5780820380516001836020036101000a031916815260200191505b50965050505050505060405180910390f35b3480156105ab57600080fd5b50610321600480360360208110156105c257600080fd5b5035611860565b3480156105d557600080fd5b50610644600480360360208110156105ec57600080fd5b810190602081018135600160201b81111561060657600080fd5b82018360208201111561061857600080fd5b803590602001918460018302840111600160201b8311171561063957600080fd5b509092509050611875565b604080516001600160a01b039092168252519081900360200190f35b34801561066c57600080fd5b506106996004803603604081101561068357600080fd5b506001600160a01b0381351690602001356118af565b005b3480156106a757600080fd5b50610699600480360360a08110156106be57600080fd5b6001600160a01b038235811692602081013590911691810190606081016040820135600160201b8111156106f157600080fd5b82018360208201111561070357600080fd5b803590602001918460208302840111600160201b8311171561072457600080fd5b9190808060200260200160405190810160405280939291908181526020018383602002808284376000920191909152509295949360208101935035915050600160201b81111561077357600080fd5b82018360208201111561078557600080fd5b803590602001918460208302840111600160201b831117156107a657600080fd5b9190808060200260200160405190810160405280939291908181526020018383602002808284376000920191909152509295949360208101935035915050600160201b8111156107f557600080fd5b82018360208201111561080757600080fd5b803590602001918460018302840111600160201b8311171561082857600080fd5b91908080601f0160208091040260200160405190810160405280939291908181526020018383808284376000920191909152509295506118c4945050505050565b34801561087557600080fd5b506108936004803603602081101561088c57600080fd5b5035611bc7565b604051808615158152602001806020018581526020018481526020018381526020018281038252868181518152602001915080519060200190808383600083811015610560578181015183820152602001610548565b3480156108f557600080fd5b506106996004803603604081101561090c57600080fd5b50803590602001356001600160a01b0316611cc9565b34801561092e57600080fd5b506106996004803603604081101561094557600080fd5b50803590602001356001600160a01b0316611d35565b34801561096757600080fd5b50610321611d96565b34801561097c57600080fd5b5061099a6004803603602081101561099357600080fd5b5035611d9c565b60405180806020018581526020018481526020018360ff168152602001828103825286818151815260200191508051906020019080838360005b838110156109ec5781810151838201526020016109d4565b50505050905090810190601f168015610a195780820380516001836020036101000a031916815260200191505b509550505050505060405180910390f35b348015610a3657600080fd5b50610a5460048036036020811015610a4d57600080fd5b5035611e99565b6040805160ff9586168152938516602085015291841683830152909216606082015290519081900360800190f35b61032160048036036040811015610a9857600080fd5b81359190810190604081016020820135600160201b811115610ab957600080fd5b820183602082011115610acb57600080fd5b803590602001918460018302840111600160201b83111715610aec57600080fd5b509092509050611f0b565b348015610b0357600080fd5b50610a5460048036036020811015610b1a57600080fd5b50356126a5565b348015610b2d57600080fd5b5061032161271c565b348015610b4257600080fd5b50610c6660048036036040811015610b5957600080fd5b810190602081018135600160201b811115610b7357600080fd5b820183602082011115610b8557600080fd5b803590602001918460208302840111600160201b83111715610ba657600080fd5b9190808060200260200160405190810160405280939291908181526020018383602002808284376000920191909152509295949360208101935035915050600160201b811115610bf557600080fd5b820183602082011115610c0757600080fd5b803590602001918460208302840111600160201b83111715610c2857600080fd5b919080806020026020016040519081016040528093929190818152602001838360200280828437600092019190915250929550612723945050505050565b60408051602080825283518183015283519192839290830191858101910280838360005b83811015610ca2578181015183820152602001610c8a565b505050509050019250505060405180910390f35b348015610cc257600080fd5b5061064460048036036020811015610cd957600080fd5b503561280f565b348015610cec57600080fd5b5061032160048036036040811015610d0357600080fd5b5080359060200135612878565b348015610d1c57600080fd5b506103f060048036036020811015610d3357600080fd5b50356128c3565b348015610d4657600080fd5b5061064460048036036020811015610d5d57600080fd5b503561295e565b348015610d7057600080fd5b506103216129b9565b348015610d8557600080fd5b50610da360048036036020811015610d9c57600080fd5b50356129bf565b6040805160ff978816815295871660208701529386168585015291851660608501528416608084015290921660a082015290519081900360c00190f35b348015610dec57600080fd5b50610a5460048036036020811015610e0357600080fd5b5035612a4b565b348015610e1657600080fd5b50610321612aba565b348015610e2b57600080fd5b5061064460048036036040811015610e4257600080fd5b5080359060200135612ac0565b348015610e5b57600080fd5b50610321612adf565b348015610e7057600080fd5b5061037c60048036036040811015610e8757600080fd5b50803590602001356001600160a01b0316612ae4565b348015610ea957600080fd5b5061069960048036036040811015610ec057600080fd5b5080359060200135612afc565b348015610ed957600080fd5b5061069960048036036040811015610ef057600080fd5b810190602081018135600160201b811115610f0a57600080fd5b820183602082011115610f1c57600080fd5b803590602001918460018302840111600160201b83111715610f3d57600080fd5b9193509150356001600160a01b0316612b83565b348015610f5d57600080fd5b5061069960048036036020811015610f7457600080fd5b810190602081018135600160201b811115610f8e57600080fd5b820183602082011115610fa057600080fd5b803590602001918460018302840111600160201b83111715610fc157600080fd5b509092509050612c37565b348015610fd857600080fd5b50610699612c9a565b348015610fed57600080fd5b50610321612d09565b34801561100257600080fd5b506106996004803603604081101561101957600080fd5b506001600160a01b0381351690602001351515612d0e565b34801561103d57600080fd5b506106996004803603602081101561105457600080fd5b5035612dfd565b34801561106757600080fd5b506106996004803603606081101561107e57600080fd5b506001600160a01b03813581169160208101359091169060400135613074565b3480156110aa57600080fd5b50610321613084565b3480156110bf57600080fd5b50610699600480360360208110156110d657600080fd5b503560ff1661308a565b3480156110ec57600080fd5b506103216004803603602081101561110357600080fd5b50356130d3565b34801561111657600080fd5b506103216130ea565b34801561112b57600080fd5b506106996004803603604081101561114257600080fd5b50803590602001356001600160a01b03166130f0565b34801561116457600080fd5b50610321613149565b34801561117957600080fd5b506106996004803603602081101561119057600080fd5b503561314f565b3480156111a357600080fd5b506103f0600480360360208110156111ba57600080fd5b503561317d565b3480156111cd57600080fd5b5061037c600480360360408110156111e457600080fd5b506001600160a01b03813581169160200135166131f0565b34801561120857600080fd5b50610699600480360360a081101561121f57600080fd5b6001600160a01b03823581169260208101359091169160408201359160608101359181019060a081016080820135600160201b81111561125e57600080fd5b82018360208201111561127057600080fd5b803590602001918460018302840111600160201b8311171561129157600080fd5b91908080601f01602080910402602001604051908101604052809392919081815260200183838082843760009201919091525092955061321e945050505050565b3480156112de57600080fd5b50610321600480360360408110156112f557600080fd5b50803590602001356133e9565b60006001600160a01b0383166113495760405162461bcd60e51b815260040180806020018281038252602b8152602001806154bf602b913960400191505060405180910390fd5b5060008181526002602090815260408083206001600160a01b03861684529091529020545b92915050565b60095481565b6001600160e01b0319811660009081526001602052604090205460ff165b919050565b60065460ff1681565b60048054604080516020601f60026000196101006001881615020190951694909404938401819004810282018101909252828152606093909290918301828280156114325780601f1061140757610100808354040283529160200191611432565b820191906000526020600020905b81548152906001019060200180831161141557829003601f168201915b50505050509050919050565b6000808060065460ff16600181111561145357fe5b1461145d57600080fd5b6007600d541061146c57600080fd5b60145434101561147b57600080fd5b60006001600160a01b0316601685856040518083838082843791909101948552505060405192839003602001909220546001600160a01b0316929092141591506114c6905057600080fd5b600d546000906114d7906001613478565b6000818152600e60205260409020549091506001600160a01b0316156114f957fe5b6000818152600f602052604090205460ff161561151257fe5b600060168686604051808383808284379190910194855250506040805193849003602001842054633fabe5a360e21b855290516001600160a01b039091169363feaf968c93506004808201935060a09291829003018186803b15801561157757600080fd5b505afa15801561158b573d6000803e3d6000fd5b505050506040513d60a08110156115a157600080fd5b506020015190506115b0615157565b6001815260208082018a905260408083018a90528051601f890183900483028101830190915287815290889088908190840183828082843760009201919091525050505060608201526080810182905261162361160b6134d2565b846001604051806020016040528060008152506134d6565b61162b6134d2565b6000848152600e6020908152604080832080546001600160a01b0319166001600160a01b039590951694909417909355600f8152908290208351815460ff19169015151781558382015160018201559183015160028301556060830151805184939261169e926003850192910190615188565b5060809190910151600490910155600d546116ba906001613478565b600d556014546116c9906135de565b601454600b546116d891613478565b600b557f3560f0337e62819199860ba21b425b8bde9a01fa6e514dd58ab6edf7daf1d1f1836117056134d2565b604080519283526001600160a01b0390911660208301528051918290030190a15090979650505050505050565b6000806000606060008560008111801561174d575060078111155b61175657600080fd5b61175e615157565b6000888152600f6020908152604091829020825160a081018452815460ff1615158152600180830154828501526002808401548387015260038401805487516101009482161594909402600019011691909104601f8101869004860283018601909652858252919492936060860193919291908301828280156118225780601f106117f757610100808354040283529160200191611822565b820191906000526020600020905b81548152906001019060200180831161180557829003601f168201915b50505091835250506004919091015460209182015281519082015160408301516060840151608090940151929c919b50995091975095509350505050565b60009081526020819052604090206002015490565b6000601683836040518083838082843791909101948552505060405192839003602001909220546001600160a01b03169250505092915050565b60606118bf33846000858561321e565b505050565b81518351146119045760405162461bcd60e51b815260040180806020018281038252602881526020018061567e6028913960400191505060405180910390fd5b6001600160a01b0384166119495760405162461bcd60e51b81526004018080602001828103825260258152602001806155676025913960400191505060405180910390fd5b6119516134d2565b6001600160a01b0316856001600160a01b0316148061197c575061197c856119776134d2565b6131f0565b6119b75760405162461bcd60e51b815260040180806020018281038252603281526020018061558c6032913960400191505060405180910390fd5b60006119c16134d2565b90506119d181878787878761364c565b60005b8451811015611ad75760008582815181106119eb57fe5b602002602001015190506000858381518110611a0357fe5b60200260200101519050611a70816040518060600160405280602a81526020016155e1602a91396002600086815260200190815260200160002060008d6001600160a01b03166001600160a01b03168152602001908152602001600020546137679092919063ffffffff16565b60008381526002602090815260408083206001600160a01b038e811685529252808320939093558a1681522054611aa79082613478565b60009283526002602090815260408085206001600160a01b038c16865290915290922091909155506001016119d4565b50846001600160a01b0316866001600160a01b0316826001600160a01b03167f4a39dc06d4c0dbc64b70af90fd698a233a518aa5d07e595d983b8c0526c8f7fb8787604051808060200180602001838103835285818151815260200191508051906020019060200280838360005b83811015611b5d578181015183820152602001611b45565b50505050905001838103825284818151815260200191508051906020019060200280838360005b83811015611b9c578181015183820152602001611b84565b5050505090500194505050505060405180910390a4611bbf8187878787876137fe565b505050505050565b6000606060008060008560078111611bde57600080fd5b60008181526012602052604090205460ff16611bf957600080fd5b60008781526012602090815260409182902080546003820154600483015460058401546002948501805488516101006001831615026000190190911696909604601f810188900488028701880190985287865260ff909416969395929491939092869190830182828015611cae5780601f10611c8357610100808354040283529160200191611cae565b820191906000526020600020905b815481529060010190602001808311611c9157829003601f168201915b50505050509350955095509550955095505091939590929450565b600082815260208190526040902060020154611cec90611ce76134d2565b612ae4565b611d275760405162461bcd60e51b815260040180806020018281038252602f815260200180615490602f913960400191505060405180910390fd5b611d318282613a74565b5050565b611d3d6134d2565b6001600160a01b0316816001600160a01b031614611d8c5760405162461bcd60e51b815260040180806020018281038252602f8152602001806156c7602f913960400191505060405180910390fd5b611d318282613add565b600b5481565b606060008060008460078111611db157600080fd5b60008181526012602052604090205460ff16611dcc57600080fd5b600086815260126020908152604091829020600681015460078201546008830154600193840180548751600261010097831615979097026000190190911695909504601f8101879004870286018701909752868552959294919360ff909116929091869190830182828015611e825780601f10611e5757610100808354040283529160200191611e82565b820191906000526020600020905b815481529060010190602001808311611e6557829003601f168201915b505050505093509450945094509450509193509193565b6000806000808460078111611ead57600080fd5b60008181526012602052604090205460ff16611ec857600080fd5b505050600092835250506012602052604090206008015460ff600160481b8204811692600160501b8304821692600160581b8104831692600160601b9091041690565b600083600081118015611f1f575060078111155b611f2857600080fd5b60018060065460ff166001811115611f3c57fe5b14611f4657600080fd5b6000868152600f602052604090205460ff16611f6157600080fd5b611f6a86613b46565b611f7357600080fd5b6000611f81601554886133e9565b905080341015611f9057600080fd5b60006007611faa600160105461347890919063ffffffff16565b016000818152601160205260409020549091506001600160a01b031615611fcd57fe5b60008181526012602052604090205460ff1615611fe657fe5b611fee615206565b60018152604080516020601f8a01819004810282018101909252888152908990899081908401838280828437600081840152601f19601f820116905080830192505050505050508160200181905250601554816080018181525050888160a0018181525050600f60008a8152602001908152602001600020600101548160c0018181525050600f60008a8152602001908152602001600020600201548160e0018181525050600f60008a81526020019081526020016000206003018054600181600116156101000203166002900480601f01602080910402602001604051908101604052809291908181526020018280546001816001161561010002031660029004801561213d5780601f106121125761010080835404028352916020019161213d565b820191906000526020600020905b81548152906001019060200180831161212057829003601f168201915b50505050506040828101919091526000838152601260209081529190208251815460ff19169015151781558183015180518493612181926001850192910190615188565b506040820151805161219d916002840191602090910190615188565b50606082015181600301556080820151816004015560a0820151816005015560c0820151816006015560e082015181600701556101008201518160080160006101000a81548160ff021916908360ff1602179055506101208201518160080160016101000a81548160ff021916908360ff1602179055506101408201518160080160026101000a81548160ff021916908360ff1602179055506101608201518160080160036101000a81548160ff021916908360ff1602179055506101808201518160080160046101000a81548160ff021916908360ff1602179055506101a08201518160080160056101000a81548160ff021916908360ff1602179055506101c08201518160080160066101000a81548160ff021916908360ff1602179055506101e08201518160080160076101000a81548160ff021916908360ff1602179055506102008201518160080160086101000a81548160ff021916908360ff1602179055506102208201518160080160096101000a81548160ff021916908360ff16021790555061024082015181600801600a6101000a81548160ff021916908360ff16021790555061026082015181600801600b6101000a81548160ff021916908360ff16021790555061028082015181600801600c6101000a81548160ff021916908360ff1602179055506102a082015181600801600d6101000a81548160ff021916908360ff1602179055506102c082015181600801600e6101000a81548160ff021916908360ff1602179055506102e082015181600801600f6101000a81548160ff021916908360ff1602179055506103008201518160080160106101000a81548160ff021916908360ff1602179055506103208201518160080160116101000a81548160ff021916908360ff1602179055506103408201518160080160126101000a81548160ff021916908360ff160217905550905050600061246483613c1b565b6000818152601a60205260409020849055905061248261160b6134d2565b6124ae61248d6134d2565b6000681b1ae4d6e2ef500000604051806020016040528060008152506134d6565b6124b66134d2565b600084815260116020526040902080546001600160a01b0319166001600160a01b03929092169190911790556010546124f0906001613478565b60105560155460009081526013602090815260408083208d845290915290205461251b906001613478565b60155460009081526013602090815260408083208e8452909152812091909155612551606461254b876019613cd3565b90613d2c565b60008c8152600e60205260408082205490519293506001600160a01b031691829084908381818185875af1925050503d80600081146125ac576040519150601f19603f3d011682016040523d82523d6000602084013e6125b1565b606091505b50509050806125f8576040805162461bcd60e51b815260206004820152600e60248201526d14185e5b595b9d0819985a5b195960921b604482015290519081900360640190fd5b600061260a606461254b8a6019613cd3565b600b5490915061261a9082613478565b600b5561263d6126348261262e8b88613d93565b90613d93565b600a5490613478565b600a55612649886135de565b7ff34a510082f5a02e39555458564800fc1fe73bfd8d3aa07cbf063fe662e7657e876126736134d2565b604080519283526001600160a01b0390911660208301528051918290030190a150949c9b505050505050505050505050565b60008060008084600781116126b957600080fd5b60008181526012602052604090205460ff166126d457600080fd5b505050600092835250506012602052604090206008015460ff65010000000000820481169266010000000000008304821692600160381b8104831692600160401b9091041690565b600d545b90565b606081518351146127655760405162461bcd60e51b81526004018080602001828103825260298152602001806156556029913960400191505060405180910390fd5b6060835167ffffffffffffffff8111801561277f57600080fd5b506040519080825280602002602001820160405280156127a9578160200160208202803683370190505b50905060005b8451811015612807576127e88582815181106127c757fe5b60200260200101518583815181106127db57fe5b6020026020010151611302565b8282815181106127f457fe5b60209081029190910101526001016127af565b509392505050565b6000816007811161281f57600080fd5b60008181526012602052604090205460ff1661283a57600080fd5b6000838152601160205260409020546001600160a01b031661285b57600080fd5b50506000908152601160205260409020546001600160a01b031690565b60008160008111801561288c575060078111155b61289557600080fd5b6015548411156128a457600080fd5b5050600091825260136020908152604080842092845291905290205490565b601c6020908152600091825260409182902080548351601f6002600019610100600186161502019093169290920491820184900484028101840190945280845290918301828280156129565780601f1061292b57610100808354040283529160200191612956565b820191906000526020600020905b81548152906001019060200180831161293957829003601f168201915b505050505081565b600081600081118015612972575060078111155b61297b57600080fd5b6000838152600e60205260409020546001600160a01b031661299c57600080fd5b50506000908152600e60205260409020546001600160a01b031690565b60145481565b60008060008060008086600781116129d657600080fd5b60008181526012602052604090205460ff166129f157600080fd5b5050506000948552505060126020525050604090206008015460ff600160681b8204811692600160701b8304821692600160781b8104831692600160801b8204811692600160881b8304821692600160901b900490911690565b6000806000808460078111612a5f57600080fd5b60008181526012602052604090205460ff16612a7a57600080fd5b505050600092835250506012602052604090206008015460ff610100820481169262010000830482169263010000008104831692600160201b9091041690565b60155481565b6000828152602081905260408120612ad89083613df0565b9392505050565b600781565b6000828152602081905260408120612ad89083613463565b336001600160a01b037f00000000000000000000000000000000000000000000000000000000000000001614612b79576040805162461bcd60e51b815260206004820152601f60248201527f4f6e6c7920565246436f6f7264696e61746f722063616e2066756c66696c6c00604482015290519081900360640190fd5b611d318282613dfc565b612bac7f2172861495e7b85edac73e3cd5fbb42dd675baadf627720e687bcfdaca025096613e16565b8060168484604051808383808284379190910194855250506040519283900360200190922080546001600160a01b03949094166001600160a01b031990941693909317909255505060178054600181018255600091909152612c31907fc624b66cc0138b8fabc209247f72d758e1cf3343756d543badbf24212bed8c150184846152e3565b50505050565b60018060065460ff166001811115612c4b57fe5b14612c5557600080fd5b612c7e7fae0c232b87105e0a8134f8b92146dcd1d99373d32394be9d70f700f90b3a3db3613e16565b6015546000908152601c60205260409020612c319084846152e3565b60008060065460ff166001811115612cae57fe5b148015612cc15750600754600954014210155b15612cd357612cce613e29565b612d06565b600160065460ff166001811115612ce657fe5b148015612cf95750600854600954014210155b15612d0657612d06613e29565b50565b600081565b816001600160a01b0316612d206134d2565b6001600160a01b03161415612d665760405162461bcd60e51b815260040180806020018281038252602981526020018061562c6029913960400191505060405180910390fd5b8060036000612d736134d2565b6001600160a01b03908116825260208083019390935260409182016000908120918716808252919093529120805460ff191692151592909217909155612db76134d2565b6001600160a01b03167f17307eab39ab6107e8899845ad3d59bd9653f200f220920489ca2b5937696c318360405180821515815260200191505060405180910390a35050565b60008060065460ff166001811115612e1157fe5b14612e1b57600080fd5b8160078111612e2957600080fd5b60008181526012602052604090205460ff16612e4457600080fd5b60155460008481526012602052604090206004015414612e6357600080fd5b601c600060155481526020019081526020016000206040518082805460018160011615610100020316600290048015612ed35780601f10612eb1576101008083540402835291820191612ed3565b820191906000526020600020905b815481529060010190602001808311612ebf575b50509150506040518091039020601260008581526020019081526020016000206002016040518082805460018160011615610100020316600290048015612f515780601f10612f2f576101008083540402835291820191612f51565b820191906000526020600020905b815481529060010190602001808311612f3d575b5050915050604051809103902014612f6857600080fd5b6000838152601d60209081526040808320601554845290915290205460ff1615612f9157600080fd5b60008381526011602052604080822054600c5491516001600160a01b0390911691908381818185875af1925050503d8060008114612feb576040519150601f19603f3d011682016040523d82523d6000602084013e612ff0565b606091505b5050905080613037576040805162461bcd60e51b815260206004820152600e60248201526d14185e5b595b9d0819985a5b195960921b604482015290519081900360640190fd5b600c54600a5461304691613d93565b600a555050506000908152601d6020908152604080832060155484529091529020805460ff19166001179055565b6060612c3184846000858561321e565b600d5481565b6130b37f2172861495e7b85edac73e3cd5fbb42dd675baadf627720e687bcfdaca025096613e16565b6006805482919060ff1916600183818111156130cb57fe5b021790555050565b600081815260208190526040812061136e90613ff3565b60105481565b60008281526020819052604090206002015461310e90611ce76134d2565b611d8c5760405162461bcd60e51b81526004018080602001828103825260308152602001806155376030913960400191505060405180910390fd5b600a5481565b6131787f2172861495e7b85edac73e3cd5fbb42dd675baadf627720e687bcfdaca025096613e16565b601455565b6017818154811061318a57fe5b600091825260209182902001805460408051601f60026000196101006001871615020190941693909304928301859004850281018501909152818152935090918301828280156129565780601f1061292b57610100808354040283529160200191612956565b6001600160a01b03918216600090815260036020908152604080832093909416825291909152205460ff1690565b6001600160a01b0384166132635760405162461bcd60e51b81526004018080602001828103825260258152602001806155676025913960400191505060405180910390fd5b61326b6134d2565b6001600160a01b0316856001600160a01b031614806132915750613291856119776134d2565b6132cc5760405162461bcd60e51b815260040180806020018281038252602981526020018061550e6029913960400191505060405180910390fd5b60006132d66134d2565b90506132f68187876132e788613ffe565b6132f088613ffe565b8761364c565b61333d836040518060600160405280602a81526020016155e1602a913960008781526002602090815260408083206001600160a01b038d1684529091529020549190613767565b60008581526002602090815260408083206001600160a01b038b811685529252808320939093558716815220546133749084613478565b60008581526002602090815260408083206001600160a01b03808b168086529184529382902094909455805188815291820187905280518a8416938616927fc3d58168c5ae7397731d063d5bbf3d657854427343f4c083240f7aacaa2d0f6292908290030190a4611bbf818787878787614042565b6000816000811180156133fd575060078111155b61340657600080fd5b60155484111561341557600080fd5b600084815260136020908152604080832086845290915281205461343a906001613478565b9050613445816141b3565b95945050505050565b6000612ad8836001600160a01b038416614205565b6000612ad8836001600160a01b03841661424f565b600082820183811015612ad8576040805162461bcd60e51b815260206004820152601b60248201527f536166654d6174683a206164646974696f6e206f766572666c6f770000000000604482015290519081900360640190fd5b3390565b6001600160a01b03841661351b5760405162461bcd60e51b81526004018080602001828103825260218152602001806156a66021913960400191505060405180910390fd5b60006135256134d2565b9050613537816000876132e788613ffe565b60008481526002602090815260408083206001600160a01b03891684529091529020546135649084613478565b60008581526002602090815260408083206001600160a01b03808b16808652918452828520959095558151898152928301889052815190948616927fc3d58168c5ae7397731d063d5bbf3d657854427343f4c083240f7aacaa2d0f6292908290030190a46135d781600087878787614042565b5050505050565b60006135ea3483613d93565b1115612d06576000336135fd3484613d93565b604051600081818185875af1925050503d8060008114613639576040519150601f19603f3d011682016040523d82523d6000602084013e61363e565b606091505b5050905080611d3157600080fd5b61365a868686868686611bbf565b60005b835181101561375e57600084828151811061367457fe5b602002602001015111801561369d5750600784828151811061369257fe5b602002602001015111155b156136ee5784600e60008684815181106136b357fe5b6020026020010151815260200190815260200160002060006101000a8154816001600160a01b0302191690836001600160a01b031602179055505b60078482815181106136fc57fe5b6020026020010151111561375657846011600086848151811061371b57fe5b6020026020010151815260200190815260200160002060006101000a8154816001600160a01b0302191690836001600160a01b031602179055505b60010161365d565b50505050505050565b600081848411156137f65760405162461bcd60e51b81526004018080602001828103825283818151815260200191508051906020019080838360005b838110156137bb5781810151838201526020016137a3565b50505050905090810190601f1680156137e85780820380516001836020036101000a031916815260200191505b509250505060405180910390fd5b505050900390565b613810846001600160a01b0316614267565b15611bbf57836001600160a01b031663bc197c8187878686866040518663ffffffff1660e01b815260040180866001600160a01b03168152602001856001600160a01b03168152602001806020018060200180602001848103845287818151815260200191508051906020019060200280838360005b8381101561389e578181015183820152602001613886565b50505050905001848103835286818151815260200191508051906020019060200280838360005b838110156138dd5781810151838201526020016138c5565b50505050905001848103825285818151815260200191508051906020019080838360005b83811015613919578181015183820152602001613901565b50505050905090810190601f1680156139465780820380516001836020036101000a031916815260200191505b5098505050505050505050602060405180830381600087803b15801561396b57600080fd5b505af192505050801561399057506040513d602081101561398b57600080fd5b505160015b613a255761399c61536c565b806139a757506139ee565b60405162461bcd60e51b81526020600482018181528351602484015283518493919283926044019190850190808383600083156137bb5781810151838201526020016137a3565b60405162461bcd60e51b81526004018080602001828103825260348152602001806154126034913960400191505060405180910390fd5b6001600160e01b0319811663bc197c8160e01b1461375e5760405162461bcd60e51b81526004018080602001828103825260288152602001806154686028913960400191505060405180910390fd5b6000828152602081905260409020613a8c908261344e565b15611d3157613a996134d2565b6001600160a01b0316816001600160a01b0316837f2f8788117e7eff1d82e926ec794901d17c78024a50270940304540a733656f0d60405160405180910390a45050565b6000828152602081905260409020613af5908261426d565b15611d3157613b026134d2565b6001600160a01b0316816001600160a01b0316837ff6391f5c32d9c69d2a47ea670b442974b53935d1edc7fd64eb21e047a839171b60405160405180910390a45050565b601554600090815260136020908152604080832084845290915281205460041115613b7357506001611398565b601554600090815260136020908152604080832085845290915290205460015b600d548111613be8576015546000908152601360209081526040808320848452909152902054821115613be057601554600090815260136020908152604080832084845290915290205491505b600101613b93565b50613bf4816002613cd3565b60155460009081526013602090815260408083208784529091529020541115915050919050565b60006019547f00000000000000000000000000000000000000000000000000000000000000006001600160a01b03166370a08231306040518263ffffffff1660e01b815260040180826001600160a01b0316815260200191505060206040518083038186803b158015613c8d57600080fd5b505afa158015613ca1573d6000803e3d6000fd5b505050506040513d6020811015613cb757600080fd5b50511015613cc457600080fd5b61136e60185460195484614282565b600082613ce25750600061136e565b82820282848281613cef57fe5b0414612ad85760405162461bcd60e51b815260040180806020018281038252602181526020018061560b6021913960400191505060405180910390fd5b6000808211613d82576040805162461bcd60e51b815260206004820152601a60248201527f536166654d6174683a206469766973696f6e206279207a65726f000000000000604482015290519081900360640190fd5b818381613d8b57fe5b049392505050565b600082821115613dea576040805162461bcd60e51b815260206004820152601e60248201527f536166654d6174683a207375627472616374696f6e206f766572666c6f770000604482015290519081900360640190fd5b50900390565b6000612ad8838361442c565b6000828152601b60205260409020819055611d3182614490565b613e208133612ae4565b612d0657600080fd5b600060065460ff166001811115613e3c57fe5b1415613e6f576000600a819055600c55601554613e5a906001613478565b6015556006805460ff19166001179055613fed565b600160065460ff166001811115613e8257fe5b1415613fed57613e90614b67565b60015b600d548111613fd957601c600060155481526020019081526020016000206040518082805460018160011615610100020316600290048015613f0c5780601f10613eea576101008083540402835291820191613f0c565b820191906000526020600020905b815481529060010190602001808311613ef8575b50509150506040518091039020600f60008381526020019081526020016000206003016040518082805460018160011615610100020316600290048015613f8a5780601f10613f68576101008083540402835291820191613f8a565b820191906000526020600020905b815481529060010190602001808311613f76575b505091505060405180910390201415613fd1576000613fab60155483612878565b1115613fd157613fc9613fc060155483612878565b600a5490613d2c565b600c55613fd9565b600101613e93565b613fe1614d54565b506006805460ff191690555b42600955565b600061136e82614db3565b60408051600180825281830190925260609182919060208083019080368337019050509050828160008151811061403157fe5b602090810291909101015292915050565b614054846001600160a01b0316614267565b15611bbf57836001600160a01b031663f23a6e6187878686866040518663ffffffff1660e01b815260040180866001600160a01b03168152602001856001600160a01b0316815260200184815260200183815260200180602001828103825283818151815260200191508051906020019080838360005b838110156140e35781810151838201526020016140cb565b50505050905090810190601f1680156141105780820380516001836020036101000a031916815260200191505b509650505050505050602060405180830381600087803b15801561413357600080fd5b505af192505050801561415857506040513d602081101561415357600080fd5b505160015b6141645761399c61536c565b6001600160e01b0319811663f23a6e6160e01b1461375e5760405162461bcd60e51b81526004018080602001828103825260288152602001806154686028913960400191505060405180910390fd5b60008060016141da606461254b60026141d488670de0b6b3a7640000613cd3565b90613cd3565b91506141fd6141f6600a61254b84670de0b6b3a7640000613cd3565b8390613478565b949350505050565b6000614211838361424f565b6142475750815460018181018455600084815260208082209093018490558454848252828601909352604090209190915561136e565b50600061136e565b60009081526001919091016020526040902054151590565b3b151590565b6000612ad8836001600160a01b038416614db7565b60007f00000000000000000000000000000000000000000000000000000000000000006001600160a01b0316634000aea07f000000000000000000000000000000000000000000000000000000000000000085878660405160200180838152602001828152602001925050506040516020818303038152906040526040518463ffffffff1660e01b815260040180846001600160a01b0316815260200183815260200180602001828103825283818151815260200191508051906020019080838360005b8381101561435e578181015183820152602001614346565b50505050905090810190601f16801561438b5780820380516001836020036101000a031916815260200191505b50945050505050602060405180830381600087803b1580156143ac57600080fd5b505af11580156143c0573d6000803e3d6000fd5b505050506040513d60208110156143d657600080fd5b50506000848152600560205260408120546143f690869085903090614e7d565b600086815260056020526040902054909150614413906001613478565b6000868152600560205260409020556134458582614ec4565b8154600090821061446e5760405162461bcd60e51b81526004018080602001828103825260228152602001806154466022913960400191505060405180910390fd5b82600001828154811061447d57fe5b9060005260206000200154905092915050565b6000818152601a6020526040902054600781116144ac57600080fd5b60008181526012602052604090205460ff166144c757600080fd5b6000828152601a6020908152604080832054601b8352818420548185526012909352908320600801805469ff0000000000000000001916600160481b17905591614512600283614ef0565b6000858152601260205260409020600801805460ff191660ff93909316929092179091559050614543600482614ef0565b6000858152601260205260409020600801805460ff9093166101000261ff001990931692909217909155905061457a600482614ef0565b6000858152601260205260409020600801805460ff909316620100000262ff0000199093169290921790915590506145b3600482614ef0565b6000858152601260205260409020600801805460ff90931663010000000263ff000000199093169290921790915590506145ee600482614ef0565b6000858152601260205260409020600801805460ff909316600160201b0264ff000000001990931692909217909155905061462a600982614ef0565b6000858152601260205260409020600801805460ff909316650100000000000265ff000000000019909316929092179091559050614669601e82614ef0565b6000858152601260205260409020600801805460ff90931666010000000000000266ff000000000000199093169290921790915590506146aa601882614ef0565b6000858152601260205260409020600801805460ff909316600160381b0267ff00000000000000199093169290921790915590506146e9600782614ef0565b6000858152601260205260409020600801805460ff909316600160401b0268ff000000000000000019909316929092179091559050614729601582614ef0565b6000858152601260205260409020600801805460ff60501b1916600160501b60ff9485168102919091179182905591935061476992919004166009613478565b6000848152601260205260409020600801805460ff92909216600160501b0260ff60501b199092169190911790556147a2601582614ef0565b6000858152601260205260409020600801805460ff60581b1916600160581b60ff948516810291909117918290559193506147e292919004166009613478565b6000848152601260205260409020600801805460ff92909216600160581b0260ff60581b1990921691909117905561481b601f82614ef0565b6000858152601260205260409020600801805460ff60601b1916600160601b60ff9485168102919091179182905591935061485b92919004166009613478565b6000848152601260205260409020600801805460ff92909216600160601b0260ff60601b19909216919091179055614894601082614ef0565b6000858152601260205260409020600801805460ff60681b1916600160681b60ff948516810291909117918290559193506148d492919004166002613478565b6000848152601260205260409020600801805460ff92909216600160681b0260ff60681b1990921691909117905561490d601082614ef0565b6000858152601260205260409020600801805460ff60701b1916600160701b60ff9485168102919091179182905591935061494d92919004166002613478565b6000848152601260205260409020600801805460ff92909216600160701b0260ff60701b19909216919091179055614986601082614ef0565b6000858152601260205260409020600801805460ff60781b1916600160781b60ff948516810291909117918290559193506149c692919004166002613478565b6000848152601260205260409020600801805460ff92909216600160781b0260ff60781b199092169190911790556149ff601082614ef0565b6000858152601260205260409020600801805460ff60801b1916600160801b60ff94851681029190911791829055919350614a3f92919004166002613478565b6000848152601260205260409020600801805460ff92909216600160801b0260ff60801b19909216919091179055614a78601082614ef0565b6000858152601260205260409020600801805460ff60881b1916600160881b60ff94851681029190911791829055919350614ab892919004166002613478565b6000848152601260205260409020600801805460ff92909216600160881b0260ff60881b19909216919091179055614af1601082614ef0565b6000858152601260205260409020600801805460ff60901b1916600160901b60ff94851681029190911791829055919350614b3192919004166002613478565b600093845260126020526040909320600801805460ff94909416600160901b0260ff60901b199094169390931790925550505050565b601e54604080518082018252600a81526950524943455f5741525360b01b60208083019182529251636cadcd7960e11b8152600481019384528251602482015282516000956001600160a01b03169463d95b9af2949390928392604490910191908083838b5b83811015614be5578181015183820152602001614bcd565b50505050905090810190601f168015614c125780820380516001836020036101000a031916815260200191505b5092505050602060405180830381600087803b158015614c3157600080fd5b505af1158015614c45573d6000803e3d6000fd5b505050506040513d6020811015614c5b57600080fd5b5051604080516372d7f66560e11b8152306004820152905191925082916000916001600160a01b0384169163e5afecca9160248082019260209290919082900301818787803b158015614cad57600080fd5b505af1158015614cc1573d6000803e3d6000fd5b505050506040513d6020811015614cd757600080fd5b50519050614d057fae0c232b87105e0a8134f8b92146dcd1d99373d32394be9d70f700f90b3a3db382611cc9565b806001600160a01b031663d65ab5f26040518163ffffffff1660e01b8152600401600060405180830381600087803b158015614d4057600080fd5b505af115801561375e573d6000803e3d6000fd5b60015b60078111614d87576000818152600f602052604090205460ff1615614d7f57614d7f81614f21565b600101614d57565b506040517f0143b2c36fac98f86168603d28d499bde9ce0367d41e111cef9f2ecbc9eeabfc90600090a1565b5490565b60008181526001830160205260408120548015614e735783546000198083019190810190600090879083908110614dea57fe5b9060005260206000200154905080876000018481548110614e0757fe5b600091825260208083209091019290925582815260018981019092526040902090840190558654879080614e3757fe5b6001900381819060005260206000200160009055905586600101600087815260200190815260200160002060009055600194505050505061136e565b600091505061136e565b60408051602080820196909652808201949094526001600160a01b039290921660608401526080808401919091528151808403909101815260a09092019052805191012090565b604080516020808201949094528082019290925280518083038201815260609092019052805191012090565b600080614f0b6001614f058560ff8816614fbd565b90613478565b614f1684600a613d2c565b915091509250929050565b80600081118015614f33575060078111155b614f3c57600080fd5b6000828152600f602052604090205460ff16614f5757600080fd5b6000828152600e6020526040902054614f7b906001600160a01b0316836001615024565b600d54614f89906001613d93565b600d55506000908152600e6020908152604080832080546001600160a01b0319169055600f9091529020805460ff19169055565b6000808211615013576040805162461bcd60e51b815260206004820152601860248201527f536166654d6174683a206d6f64756c6f206279207a65726f0000000000000000604482015290519081900360640190fd5b81838161501c57fe5b069392505050565b6001600160a01b0383166150695760405162461bcd60e51b81526004018080602001828103825260238152602001806155be6023913960400191505060405180910390fd5b60006150736134d2565b90506150a38185600061508587613ffe565b61508e87613ffe565b6040518060200160405280600081525061364c565b6150ea826040518060600160405280602481526020016154ea6024913960008681526002602090815260408083206001600160a01b038b1684529091529020549190613767565b60008481526002602090815260408083206001600160a01b03808a16808652918452828520959095558151888152928301879052815193949093908616927fc3d58168c5ae7397731d063d5bbf3d657854427343f4c083240f7aacaa2d0f6292908290030190a450505050565b6040518060a00160405280600015158152602001600081526020016000815260200160608152602001600081525090565b828054600181600116156101000203166002900490600052602060002090601f016020900481019282601f106151c957805160ff19168380011785556151f6565b828001600101855582156151f6579182015b828111156151f65782518255916020019190600101906151db565b50615202929150615351565b5090565b604080516103608101825260008082526060602083018190529282018390529181018290526080810182905260a0810182905260c0810182905260e08101829052610100810182905261012081018290526101408101829052610160810182905261018081018290526101a081018290526101c081018290526101e08101829052610200810182905261022081018290526102408101829052610260810182905261028081018290526102a081018290526102c081018290526102e081018290526103008101829052610320810182905261034081019190915290565b828054600181600116156101000203166002900490600052602060002090601f016020900481019282601f106153245782800160ff198235161785556151f6565b828001600101855582156151f6579182015b828111156151f6578235825591602001919060010190615336565b5b808211156152025760008155600101615352565b60e01c90565b600060443d101561537c57612720565b600481823e6308c379a06153908251615366565b1461539a57612720565b6040513d600319016004823e80513d67ffffffffffffffff81602484011181841117156153ca5750505050612720565b828401925082519150808211156153e45750505050612720565b503d830160208284010111156153fc57505050612720565b601f01601f191681016020016040529150509056fe455243313135353a207472616e7366657220746f206e6f6e2045524331313535526563656976657220696d706c656d656e746572456e756d657261626c655365743a20696e646578206f7574206f6620626f756e6473455243313135353a204552433131353552656365697665722072656a656374656420746f6b656e73416363657373436f6e74726f6c3a2073656e646572206d75737420626520616e2061646d696e20746f206772616e74455243313135353a2062616c616e636520717565727920666f7220746865207a65726f2061646472657373455243313135353a206275726e20616d6f756e7420657863656564732062616c616e6365455243313135353a2063616c6c6572206973206e6f74206f776e6572206e6f7220617070726f766564416363657373436f6e74726f6c3a2073656e646572206d75737420626520616e2061646d696e20746f207265766f6b65455243313135353a207472616e7366657220746f20746865207a65726f2061646472657373455243313135353a207472616e736665722063616c6c6572206973206e6f74206f776e6572206e6f7220617070726f766564455243313135353a206275726e2066726f6d20746865207a65726f2061646472657373455243313135353a20696e73756666696369656e742062616c616e636520666f72207472616e73666572536166654d6174683a206d756c7469706c69636174696f6e206f766572666c6f77455243313135353a2073657474696e6720617070726f76616c2073746174757320666f722073656c66455243313135353a206163636f756e747320616e6420696473206c656e677468206d69736d61746368455243313135353a2069647320616e6420616d6f756e7473206c656e677468206d69736d61746368455243313135353a206d696e7420746f20746865207a65726f2061646472657373416363657373436f6e74726f6c3a2063616e206f6e6c792072656e6f756e636520726f6c657320666f722073656c66a26469706673582212203858d10b73e97d0b22d1b146e447d0063e767df6b8be5ec0f269333b1fab844564736f6c634300060c0033416363657373436f6e74726f6c3a2073656e646572206d75737420626520616e2061646d696e20746f206772616e742172861495e7b85edac73e3cd5fbb42dd675baadf627720e687bcfdaca0250969f4e1c871d5fdd0aee1cd182666698a4492b24c6832aac230d07b11046af5a89",
  "bytecodeSha1": "7d418721770dae80723008b7fffacd434095f083",
  "compiler": {
    "evm_version": "istanbul",
    "optimizer": {
      "enabled": true,
      "runs": 200
    },
    "version": "0.6.12+commit.27d51765"
  },
  "contractName": "CryptoChampions",
  "language": "Solidity",
  "natspec": {
    "author": "Oozyx",
    "kind": "dev",
    "methods": {
      "balanceOf(address,uint256)": {
        "details": "See {IERC1155-balanceOf}. Requirements: - `account` cannot be the zero address."
      },
      "balanceOfBatch(address[],uint256[])": {
        "details": "See {IERC1155-balanceOfBatch}. Requirements: - `accounts` and `ids` must have the same length."
      },
      "claimReward(uint256)": {
        "details": "Can only claim once and only for the round the hero was minted",
        "notice": "Claims the rewards for the hero if eligible",
        "params": {
          "heroId": "The hero id"
        }
      },
      "createAffinity(string,address)": {
        "details": "This will be called by a priviledged address. It will allow to create new affinities. May need to add a remove affinity function as well.",
        "notice": "Creates a new token affinity",
        "params": {
          "feedAddress": "The price feed address",
          "tokenTicker": "The token ticker of the affinity"
        }
      },
      "declareRoundWinner(string)": {
        "details": "This can only be called by a game admin contract",
        "notice": "Declares a winning affinity for a round",
        "params": {
          "winningAffinity": "The affinity that won the game"
        }
      },
      "delegatedTransferInGameTokens(address,address,uint256)": {
        "notice": "Transfers in game currency tokens from one address to another.",
        "params": {
          "amount": "The amount to transfer",
          "from": "The sending address.  Note that the sender must be authorized to transfer funds if the sender is different from the from address.",
          "to": "The receiving address"
        }
      },
      "getAffinityFeedAddress(string)": {
        "notice": "Fetches the feed address for a given affinity",
        "params": {
          "affinity": "The affinity being searched for"
        },
        "returns": {
          "_0": "The address of the affinity's feed address"
        }
      },
      "getElderOwner(uint256)": {
        "notice": "Gets the elder owner for the given elder id",
        "params": {
          "elderId": "The elder id"
        },
        "returns": {
          "_0": "The owner of the elder"
        }
      },
      "getElderSpawnsAmount(uint256,uint256)": {
        "notice": "Gets the amount of heroes spawn from the elder with the specified id during the specified round",
        "params": {
          "elderId": "The elder id",
          "round": "The round the elder was created"
        },
        "returns": {
          "_0": "The amount of heroes spawned from the elder"
        }
      },
      "getElderSpirit(uint256)": {
        "notice": "Fetches the data of a single elder spirit",
        "params": {
          "elderId": "The id of the elder being searched for"
        },
        "returns": {
          "_0": "The elder's attributes in the following order (valid, raceId, classId, affinity)"
        }
      },
      "getHeroGameData(uint256)": {
        "notice": "Hero getter function",
        "params": {
          "heroId": "The hero id"
        },
        "returns": {
          "_0": "valid, affinity, affinity price, round minted, elder id"
        }
      },
      "getHeroLore(uint256)": {
        "notice": "Hero getter function",
        "params": {
          "heroId": "The hero id"
        },
        "returns": {
          "_0": "alignment, background, hometown, weather"
        }
      },
      "getHeroMintPrice(uint256,uint256)": {
        "notice": "Gets the minting price of a hero based on specified elder spirit",
        "params": {
          "elderId": "The elder id for which the hero will be based on",
          "round": "The round of the hero to be minted"
        },
        "returns": {
          "_0": "The hero mint price"
        }
      },
      "getHeroOwner(uint256)": {
        "notice": "Get the hero owner for the given hero id",
        "params": {
          "heroId": "The hero id"
        },
        "returns": {
          "_0": "The owner address"
        }
      },
      "getHeroStats(uint256)": {
        "notice": "Hero getter function",
        "params": {
          "heroId": "The hero id"
        },
        "returns": {
          "_0": "stamina, strength, dexterity, constitution, intelligence, wisdom, charisma"
        }
      },
      "getHeroTraitsSkills(uint256)": {
        "notice": "Hero getter function",
        "params": {
          "heroId": "The hero id"
        },
        "returns": {
          "_0": "trait 1, trait 2, skill 1, skill 2"
        }
      },
      "getHeroVisuals(uint256)": {
        "notice": "Hero getter function",
        "params": {
          "heroId": "The hero id"
        },
        "returns": {
          "_0": "name, race id, class id, appearance"
        }
      },
      "getHeroVitals(uint256)": {
        "notice": "Hero getter function",
        "params": {
          "heroId": "The hero id"
        },
        "returns": {
          "_0": "level, hp, mana"
        }
      },
      "getNumEldersInGame()": {
        "notice": "Fetches the number of elders currently in the game",
        "returns": {
          "_0": "The current number of elders in the game"
        }
      },
      "getRoleAdmin(bytes32)": {
        "details": "Returns the admin role that controls `role`. See {grantRole} and {revokeRole}. To change a role's admin, use {_setRoleAdmin}."
      },
      "getRoleMember(bytes32,uint256)": {
        "details": "Returns one of the accounts that have `role`. `index` must be a value between 0 and {getRoleMemberCount}, non-inclusive. Role bearers are not sorted in any particular way, and their ordering may change at any point. WARNING: When using {getRoleMember} and {getRoleMemberCount}, make sure you perform all queries on the same block. See the following https://forum.openzeppelin.com/t/iterating-over-elements-on-enumerableset-in-openzeppelin-contracts/2296[forum post] for more information."
      },
      "getRoleMemberCount(bytes32)": {
        "details": "Returns the number of accounts that have `role`. Can be used together with {getRoleMember} to enumerate all bearers of a role."
      },
      "grantRole(bytes32,address)": {
        "details": "Grants `role` to `account`. If `account` had not been already granted `role`, emits a {RoleGranted} event. Requirements: - the caller must have ``role``'s admin role."
      },
      "hasRole(bytes32,address)": {
        "details": "Returns `true` if `account` has been granted `role`."
      },
      "isApprovedForAll(address,address)": {
        "details": "See {IERC1155-isApprovedForAll}."
      },
      "mintElderSpirit(uint256,uint256,string)": {
        "details": "For now only race, class, and token (affinity) are needed. This will change. The race and class ids will probably be public constants defined in the crypto champions contract, this is subject to change.",
        "notice": "Mints an elder spirit",
        "params": {
          "affinity": "The affinity of the minted hero",
          "classId": "The class id",
          "raceId": "The race id"
        },
        "returns": {
          "_0": "The elder spirit id"
        }
      },
      "mintHero(uint256,string)": {
        "notice": "Mints a hero based on an elder spirit",
        "params": {
          "elderId": "The id of the elder spirit this hero is based on"
        },
        "returns": {
          "_0": "The hero id"
        }
      },
      "refreshPhase()": {
        "notice": "Transitions to next phase if the condition is met and rewards caller for a successful phase transition"
      },
      "renounceRole(bytes32,address)": {
        "details": "Revokes `role` from the calling account. Roles are often managed via {grantRole} and {revokeRole}: this function's purpose is to provide a mechanism for accounts to lose their privileges if they are compromised (such as when a trusted device is misplaced). If the calling account had been granted `role`, emits a {RoleRevoked} event. Requirements: - the caller must be `account`."
      },
      "revokeRole(bytes32,address)": {
        "details": "Revokes `role` from `account`. If `account` had been granted `role`, emits a {RoleRevoked} event. Requirements: - the caller must have ``role``'s admin role."
      },
      "safeBatchTransferFrom(address,address,uint256[],uint256[],bytes)": {
        "details": "See {IERC1155-safeBatchTransferFrom}."
      },
      "safeTransferFrom(address,address,uint256,uint256,bytes)": {
        "details": "See {IERC1155-safeTransferFrom}."
      },
      "setApprovalForAll(address,bool)": {
        "details": "See {IERC1155-setApprovalForAll}."
      },
      "setElderMintPrice(uint256)": {
        "details": "Can only be called by an admin address",
        "notice": "Sets the elder mint price",
        "params": {
          "price": "The new elder mint price"
        }
      },
      "setPhase(uint8)": {
        "details": "May delete function and keep only the refresh phase function",
        "notice": "Sets the contract's phase",
        "params": {
          "phase": "The phase the contract should be set to"
        }
      },
      "supportsInterface(bytes4)": {
        "details": "See {IERC165-supportsInterface}. Time complexity O(1), guaranteed to always use less than 30 000 gas."
      },
      "transferInGameTokens(address,uint256)": {
        "notice": "Transfers in game currency tokens from one address to another",
        "params": {
          "amount": "The amount to transfer",
          "to": "The receiving address"
        }
      },
      "uri(uint256)": {
        "details": "See {IERC1155MetadataURI-uri}. This implementation returns the same URI for *all* token types. It relies on the token type ID substitution mechanism https://eips.ethereum.org/EIPS/eip-1155#metadata[defined in the EIP]. Clients calling this function must replace the `\\{id\\}` substring with the actual token type ID."
      }
    },
    "notice": "This is the crypto champions class",
    "title": "Crypto Champions Interface",
    "version": 1
  },
  "opcodes": "PUSH1 0x80 PUSH1 0x40 MSTORE PUSH1 0x4 CALLDATASIZE LT PUSH2 0x2E3 JUMPI PUSH1 0x0 CALLDATALOAD PUSH1 0xE0 SHR DUP1 PUSH4 0x79935FE0 GT PUSH2 0x190 JUMPI DUP1 PUSH4 0xAE169A50 GT PUSH2 0xDC JUMPI DUP1 PUSH4 0xD547741F GT PUSH2 0x95 JUMPI DUP1 PUSH4 0xE5B0A993 GT PUSH2 0x6F JUMPI DUP1 PUSH4 0xE5B0A993 EQ PUSH2 0x1197 JUMPI DUP1 PUSH4 0xE985E9C5 EQ PUSH2 0x11C1 JUMPI DUP1 PUSH4 0xF242432A EQ PUSH2 0x11FC JUMPI DUP1 PUSH4 0xF32C4974 EQ PUSH2 0x12D2 JUMPI PUSH2 0x2E3 JUMP JUMPDEST DUP1 PUSH4 0xD547741F EQ PUSH2 0x111F JUMPI DUP1 PUSH4 0xD6303CCE EQ PUSH2 0x1158 JUMPI DUP1 PUSH4 0xE3E98382 EQ PUSH2 0x116D JUMPI PUSH2 0x2E3 JUMP JUMPDEST DUP1 PUSH4 0xAE169A50 EQ PUSH2 0x1031 JUMPI DUP1 PUSH4 0xB9280067 EQ PUSH2 0x105B JUMPI DUP1 PUSH4 0xBF61211F EQ PUSH2 0x109E JUMPI DUP1 PUSH4 0xC03AFB59 EQ PUSH2 0x10B3 JUMPI DUP1 PUSH4 0xCA15C873 EQ PUSH2 0x10E0 JUMPI DUP1 PUSH4 0xCAAB7EF8 EQ PUSH2 0x110A JUMPI PUSH2 0x2E3 JUMP JUMPDEST DUP1 PUSH4 0x91D14854 GT PUSH2 0x149 JUMPI DUP1 PUSH4 0x9E315008 GT PUSH2 0x123 JUMPI DUP1 PUSH4 0x9E315008 EQ PUSH2 0xF51 JUMPI DUP1 PUSH4 0x9FF1103F EQ PUSH2 0xFCC JUMPI DUP1 PUSH4 0xA217FDDF EQ PUSH2 0xFE1 JUMPI DUP1 PUSH4 0xA22CB465 EQ PUSH2 0xFF6 JUMPI PUSH2 0x2E3 JUMP JUMPDEST DUP1 PUSH4 0x91D14854 EQ PUSH2 0xE64 JUMPI DUP1 PUSH4 0x94985DDD EQ PUSH2 0xE9D JUMPI DUP1 PUSH4 0x9D5B82C0 EQ PUSH2 0xECD JUMPI PUSH2 0x2E3 JUMP JUMPDEST DUP1 PUSH4 0x79935FE0 EQ PUSH2 0xD64 JUMPI DUP1 PUSH4 0x835A4398 EQ PUSH2 0xD79 JUMPI DUP1 PUSH4 0x8423B077 EQ PUSH2 0xDE0 JUMPI DUP1 PUSH4 0x8A19C8BC EQ PUSH2 0xE0A JUMPI DUP1 PUSH4 0x9010D07C EQ PUSH2 0xE1F JUMPI DUP1 PUSH4 0x90DED47E EQ PUSH2 0xE4F JUMPI PUSH2 0x2E3 JUMP JUMPDEST DUP1 PUSH4 0x2F2FF15D GT PUSH2 0x24F JUMPI DUP1 PUSH4 0x4C2ED018 GT PUSH2 0x208 JUMPI DUP1 PUSH4 0x56B4D760 GT PUSH2 0x1E2 JUMPI DUP1 PUSH4 0x56B4D760 EQ PUSH2 0xCB6 JUMPI DUP1 PUSH4 0x59CA19D3 EQ PUSH2 0xCE0 JUMPI DUP1 PUSH4 0x6DE51353 EQ PUSH2 0xD10 JUMPI DUP1 PUSH4 0x72EDA5BB EQ PUSH2 0xD3A JUMPI PUSH2 0x2E3 JUMP JUMPDEST DUP1 PUSH4 0x4C2ED018 EQ PUSH2 0xAF7 JUMPI DUP1 PUSH4 0x4C52B2A9 EQ PUSH2 0xB21 JUMPI DUP1 PUSH4 0x4E1273F4 EQ PUSH2 0xB36 JUMPI PUSH2 0x2E3 JUMP JUMPDEST DUP1 PUSH4 0x2F2FF15D EQ PUSH2 0x8E9 JUMPI DUP1 PUSH4 0x36568ABE EQ PUSH2 0x922 JUMPI DUP1 PUSH4 0x4390D2A8 EQ PUSH2 0x95B JUMPI DUP1 PUSH4 0x46E6F13D EQ PUSH2 0x970 JUMPI DUP1 PUSH4 0x48772D79 EQ PUSH2 0xA2A JUMPI DUP1 PUSH4 0x498E8219 EQ PUSH2 0xA82 JUMPI PUSH2 0x2E3 JUMP JUMPDEST DUP1 PUSH4 0x21C2F72A GT PUSH2 0x2A1 JUMPI DUP1 PUSH4 0x21C2F72A EQ PUSH2 0x4DF JUMPI DUP1 PUSH4 0x248A9CA3 EQ PUSH2 0x59F JUMPI DUP1 PUSH4 0x26D4D15A EQ PUSH2 0x5C9 JUMPI DUP1 PUSH4 0x26F7AF4F EQ PUSH2 0x660 JUMPI DUP1 PUSH4 0x2EB2C2D6 EQ PUSH2 0x69B JUMPI DUP1 PUSH4 0x2EE1F0A0 EQ PUSH2 0x869 JUMPI PUSH2 0x2E3 JUMP JUMPDEST DUP1 PUSH3 0xFDD58E EQ PUSH2 0x2E8 JUMPI DUP1 PUSH4 0x10A768E EQ PUSH2 0x333 JUMPI DUP1 PUSH4 0x1FFC9A7 EQ PUSH2 0x348 JUMPI DUP1 PUSH4 0x55AD42E EQ PUSH2 0x390 JUMPI DUP1 PUSH4 0xE89341C EQ PUSH2 0x3C6 JUMPI DUP1 PUSH4 0xFBEA841 EQ PUSH2 0x465 JUMPI JUMPDEST PUSH1 0x0 DUP1 REVERT JUMPDEST CALLVALUE DUP1 ISZERO PUSH2 0x2F4 JUMPI PUSH1 0x0 DUP1 REVERT JUMPDEST POP PUSH2 0x321 PUSH1 0x4 DUP1 CALLDATASIZE SUB PUSH1 0x40 DUP2 LT ISZERO PUSH2 0x30B JUMPI PUSH1 0x0 DUP1 REVERT JUMPDEST POP PUSH1 0x1 PUSH1 0x1 PUSH1 0xA0 SHL SUB DUP2 CALLDATALOAD AND SWAP1 PUSH1 0x20 ADD CALLDATALOAD PUSH2 0x1302 JUMP JUMPDEST PUSH1 0x40 DUP1 MLOAD SWAP2 DUP3 MSTORE MLOAD SWAP1 DUP2 SWAP1 SUB PUSH1 0x20 ADD SWAP1 RETURN JUMPDEST CALLVALUE DUP1 ISZERO PUSH2 0x33F JUMPI PUSH1 0x0 DUP1 REVERT JUMPDEST POP PUSH2 0x321 PUSH2 0x1374 JUMP JUMPDEST CALLVALUE DUP1 ISZERO PUSH2 0x354 JUMPI PUSH1 0x0 DUP1 REVERT JUMPDEST POP PUSH2 0x37C PUSH1 0x4 DUP1 CALLDATASIZE SUB PUSH1 0x20 DUP2 LT ISZERO PUSH2 0x36B JUMPI PUSH1 0x0 DUP1 REVERT JUMPDEST POP CALLDATALOAD PUSH1 0x1 PUSH1 0x1 PUSH1 0xE0 SHL SUB NOT AND PUSH2 0x137A JUMP JUMPDEST PUSH1 0x40 DUP1 MLOAD SWAP2 ISZERO ISZERO DUP3 MSTORE MLOAD SWAP1 DUP2 SWAP1 SUB PUSH1 0x20 ADD SWAP1 RETURN JUMPDEST CALLVALUE DUP1 ISZERO PUSH2 0x39C JUMPI PUSH1 0x0 DUP1 REVERT JUMPDEST POP PUSH2 0x3A5 PUSH2 0x139D JUMP JUMPDEST PUSH1 0x40 MLOAD DUP1 DUP3 PUSH1 0x1 DUP2 GT ISZERO PUSH2 0x3B5 JUMPI INVALID JUMPDEST DUP2 MSTORE PUSH1 0x20 ADD SWAP2 POP POP PUSH1 0x40 MLOAD DUP1 SWAP2 SUB SWAP1 RETURN JUMPDEST CALLVALUE DUP1 ISZERO PUSH2 0x3D2 JUMPI PUSH1 0x0 DUP1 REVERT JUMPDEST POP PUSH2 0x3F0 PUSH1 0x4 DUP1 CALLDATASIZE SUB PUSH1 0x20 DUP2 LT ISZERO PUSH2 0x3E9 JUMPI PUSH1 0x0 DUP1 REVERT JUMPDEST POP CALLDATALOAD PUSH2 0x13A6 JUMP JUMPDEST PUSH1 0x40 DUP1 MLOAD PUSH1 0x20 DUP1 DUP3 MSTORE DUP4 MLOAD DUP2 DUP4 ADD MSTORE DUP4 MLOAD SWAP2 SWAP3 DUP4 SWAP3 SWAP1 DUP4 ADD SWAP2 DUP6 ADD SWAP1 DUP1 DUP4 DUP4 PUSH1 0x0 JUMPDEST DUP4 DUP2 LT ISZERO PUSH2 0x42A JUMPI DUP2 DUP2 ADD MLOAD DUP4 DUP3 ADD MSTORE PUSH1 0x20 ADD PUSH2 0x412 JUMP JUMPDEST POP POP POP POP SWAP1 POP SWAP1 DUP2 ADD SWAP1 PUSH1 0x1F AND DUP1 ISZERO PUSH2 0x457 JUMPI DUP1 DUP3 SUB DUP1 MLOAD PUSH1 0x1 DUP4 PUSH1 0x20 SUB PUSH2 0x100 EXP SUB NOT AND DUP2 MSTORE PUSH1 0x20 ADD SWAP2 POP JUMPDEST POP SWAP3 POP POP POP PUSH1 0x40 MLOAD DUP1 SWAP2 SUB SWAP1 RETURN JUMPDEST PUSH2 0x321 PUSH1 0x4 DUP1 CALLDATASIZE SUB PUSH1 0x60 DUP2 LT ISZERO PUSH2 0x47B JUMPI PUSH1 0x0 DUP1 REVERT JUMPDEST DUP2 CALLDATALOAD SWAP2 PUSH1 0x20 DUP2 ADD CALLDATALOAD SWAP2 DUP2 ADD SWAP1 PUSH1 0x60 DUP2 ADD PUSH1 0x40 DUP3 ADD CALLDATALOAD PUSH1 0x1 PUSH1 0x20 SHL DUP2 GT ISZERO PUSH2 0x4A1 JUMPI PUSH1 0x0 DUP1 REVERT JUMPDEST DUP3 ADD DUP4 PUSH1 0x20 DUP3 ADD GT ISZERO PUSH2 0x4B3 JUMPI PUSH1 0x0 DUP1 REVERT JUMPDEST DUP1 CALLDATALOAD SWAP1 PUSH1 0x20 ADD SWAP2 DUP5 PUSH1 0x1 DUP4 MUL DUP5 ADD GT PUSH1 0x1 PUSH1 0x20 SHL DUP4 GT OR ISZERO PUSH2 0x4D4 JUMPI PUSH1 0x0 DUP1 REVERT JUMPDEST POP SWAP1 SWAP3 POP SWAP1 POP PUSH2 0x143E JUMP JUMPDEST CALLVALUE DUP1 ISZERO PUSH2 0x4EB JUMPI PUSH1 0x0 DUP1 REVERT JUMPDEST POP PUSH2 0x509 PUSH1 0x4 DUP1 CALLDATASIZE SUB PUSH1 0x20 DUP2 LT ISZERO PUSH2 0x502 JUMPI PUSH1 0x0 DUP1 REVERT JUMPDEST POP CALLDATALOAD PUSH2 0x1732 JUMP JUMPDEST PUSH1 0x40 MLOAD DUP1 DUP7 ISZERO ISZERO DUP2 MSTORE PUSH1 0x20 ADD DUP6 DUP2 MSTORE PUSH1 0x20 ADD DUP5 DUP2 MSTORE PUSH1 0x20 ADD DUP1 PUSH1 0x20 ADD DUP4 DUP2 MSTORE PUSH1 0x20 ADD DUP3 DUP2 SUB DUP3 MSTORE DUP5 DUP2 DUP2 MLOAD DUP2 MSTORE PUSH1 0x20 ADD SWAP2 POP DUP1 MLOAD SWAP1 PUSH1 0x20 ADD SWAP1 DUP1 DUP4 DUP4 PUSH1 0x0 JUMPDEST DUP4 DUP2 LT ISZERO PUSH2 0x560 JUMPI DUP2 DUP2 ADD MLOAD DUP4 DUP3 ADD MSTORE PUSH1 0x20 ADD PUSH2 0x548 JUMP JUMPDEST POP POP POP POP SWAP1 POP SWAP1 DUP2 ADD SWAP1 PUSH1 0x1F AND DUP1 ISZERO PUSH2 0x58D JUMPI DUP1 DUP3 SUB DUP1 MLOAD PUSH1 0x1 DUP4 PUSH1 0x20 SUB PUSH2 0x100 EXP SUB NOT AND DUP2 MSTORE PUSH1 0x20 ADD SWAP2 POP JUMPDEST POP SWAP7 POP POP POP POP POP POP POP PUSH1 0x40 MLOAD DUP1 SWAP2 SUB SWAP1 RETURN JUMPDEST CALLVALUE DUP1 ISZERO PUSH2 0x5AB JUMPI PUSH1 0x0 DUP1 REVERT JUMPDEST POP PUSH2 0x321 PUSH1 0x4 DUP1 CALLDATASIZE SUB PUSH1 0x20 DUP2 LT ISZERO PUSH2 0x5C2 JUMPI PUSH1 0x0 DUP1 REVERT JUMPDEST POP CALLDATALOAD PUSH2 0x1860 JUMP JUMPDEST CALLVALUE DUP1 ISZERO PUSH2 0x5D5 JUMPI PUSH1 0x0 DUP1 REVERT JUMPDEST POP PUSH2 0x644 PUSH1 0x4 DUP1 CALLDATASIZE SUB PUSH1 0x20 DUP2 LT ISZERO PUSH2 0x5EC JUMPI PUSH1 0x0 DUP1 REVERT JUMPDEST DUP2 ADD SWAP1 PUSH1 0x20 DUP2 ADD DUP2 CALLDATALOAD PUSH1 0x1 PUSH1 0x20 SHL DUP2 GT ISZERO PUSH2 0x606 JUMPI PUSH1 0x0 DUP1 REVERT JUMPDEST DUP3 ADD DUP4 PUSH1 0x20 DUP3 ADD GT ISZERO PUSH2 0x618 JUMPI PUSH1 0x0 DUP1 REVERT JUMPDEST DUP1 CALLDATALOAD SWAP1 PUSH1 0x20 ADD SWAP2 DUP5 PUSH1 0x1 DUP4 MUL DUP5 ADD GT PUSH1 0x1 PUSH1 0x20 SHL DUP4 GT OR ISZERO PUSH2 0x639 JUMPI PUSH1 0x0 DUP1 REVERT JUMPDEST POP SWAP1 SWAP3 POP SWAP1 POP PUSH2 0x1875 JUMP JUMPDEST PUSH1 0x40 DUP1 MLOAD PUSH1 0x1 PUSH1 0x1 PUSH1 0xA0 SHL SUB SWAP1 SWAP3 AND DUP3 MSTORE MLOAD SWAP1 DUP2 SWAP1 SUB PUSH1 0x20 ADD SWAP1 RETURN JUMPDEST CALLVALUE DUP1 ISZERO PUSH2 0x66C JUMPI PUSH1 0x0 DUP1 REVERT JUMPDEST POP PUSH2 0x699 PUSH1 0x4 DUP1 CALLDATASIZE SUB PUSH1 0x40 DUP2 LT ISZERO PUSH2 0x683 JUMPI PUSH1 0x0 DUP1 REVERT JUMPDEST POP PUSH1 0x1 PUSH1 0x1 PUSH1 0xA0 SHL SUB DUP2 CALLDATALOAD AND SWAP1 PUSH1 0x20 ADD CALLDATALOAD PUSH2 0x18AF JUMP JUMPDEST STOP JUMPDEST CALLVALUE DUP1 ISZERO PUSH2 0x6A7 JUMPI PUSH1 0x0 DUP1 REVERT JUMPDEST POP PUSH2 0x699 PUSH1 0x4 DUP1 CALLDATASIZE SUB PUSH1 0xA0 DUP2 LT ISZERO PUSH2 0x6BE JUMPI PUSH1 0x0 DUP1 REVERT JUMPDEST PUSH1 0x1 PUSH1 0x1 PUSH1 0xA0 SHL SUB DUP3 CALLDATALOAD DUP2 AND SWAP3 PUSH1 0x20 DUP2 ADD CALLDATALOAD SWAP1 SWAP2 AND SWAP2 DUP2 ADD SWAP1 PUSH1 0x60 DUP2 ADD PUSH1 0x40 DUP3 ADD CALLDATALOAD PUSH1 0x1 PUSH1 0x20 SHL DUP2 GT ISZERO PUSH2 0x6F1 JUMPI PUSH1 0x0 DUP1 REVERT JUMPDEST DUP3 ADD DUP4 PUSH1 0x20 DUP3 ADD GT ISZERO PUSH2 0x703 JUMPI PUSH1 0x0 DUP1 REVERT JUMPDEST DUP1 CALLDATALOAD SWAP1 PUSH1 0x20 ADD SWAP2 DUP5 PUSH1 0x20 DUP4 MUL DUP5 ADD GT PUSH1 0x1 PUSH1 0x20 SHL DUP4 GT OR ISZERO PUSH2 0x724 JUMPI PUSH1 0x0 DUP1 REVERT JUMPDEST SWAP2 SWAP1 DUP1 DUP1 PUSH1 0x20 MUL PUSH1 0x20 ADD PUSH1 0x40 MLOAD SWAP1 DUP2 ADD PUSH1 0x40 MSTORE DUP1 SWAP4 SWAP3 SWAP2 SWAP1 DUP2 DUP2 MSTORE PUSH1 0x20 ADD DUP4 DUP4 PUSH1 0x20 MUL DUP1 DUP3 DUP5 CALLDATACOPY PUSH1 0x0 SWAP3 ADD SWAP2 SWAP1 SWAP2 MSTORE POP SWAP3 SWAP6 SWAP5 SWAP4 PUSH1 0x20 DUP2 ADD SWAP4 POP CALLDATALOAD SWAP2 POP POP PUSH1 0x1 PUSH1 0x20 SHL DUP2 GT ISZERO PUSH2 0x773 JUMPI PUSH1 0x0 DUP1 REVERT JUMPDEST DUP3 ADD DUP4 PUSH1 0x20 DUP3 ADD GT ISZERO PUSH2 0x785 JUMPI PUSH1 0x0 DUP1 REVERT JUMPDEST DUP1 CALLDATALOAD SWAP1 PUSH1 0x20 ADD SWAP2 DUP5 PUSH1 0x20 DUP4 MUL DUP5 ADD GT PUSH1 0x1 PUSH1 0x20 SHL DUP4 GT OR ISZERO PUSH2 0x7A6 JUMPI PUSH1 0x0 DUP1 REVERT JUMPDEST SWAP2 SWAP1 DUP1 DUP1 PUSH1 0x20 MUL PUSH1 0x20 ADD PUSH1 0x40 MLOAD SWAP1 DUP2 ADD PUSH1 0x40 MSTORE DUP1 SWAP4 SWAP3 SWAP2 SWAP1 DUP2 DUP2 MSTORE PUSH1 0x20 ADD DUP4 DUP4 PUSH1 0x20 MUL DUP1 DUP3 DUP5 CALLDATACOPY PUSH1 0x0 SWAP3 ADD SWAP2 SWAP1 SWAP2 MSTORE POP SWAP3 SWAP6 SWAP5 SWAP4 PUSH1 0x20 DUP2 ADD SWAP4 POP CALLDATALOAD SWAP2 POP POP PUSH1 0x1 PUSH1 0x20 SHL DUP2 GT ISZERO PUSH2 0x7F5 JUMPI PUSH1 0x0 DUP1 REVERT JUMPDEST DUP3 ADD DUP4 PUSH1 0x20 DUP3 ADD GT ISZERO PUSH2 0x807 JUMPI PUSH1 0x0 DUP1 REVERT JUMPDEST DUP1 CALLDATALOAD SWAP1 PUSH1 0x20 ADD SWAP2 DUP5 PUSH1 0x1 DUP4 MUL DUP5 ADD GT PUSH1 0x1 PUSH1 0x20 SHL DUP4 GT OR ISZERO PUSH2 0x828 JUMPI PUSH1 0x0 DUP1 REVERT JUMPDEST SWAP2 SWAP1 DUP1 DUP1 PUSH1 0x1F ADD PUSH1 0x20 DUP1 SWAP2 DIV MUL PUSH1 0x20 ADD PUSH1 0x40 MLOAD SWAP1 DUP2 ADD PUSH1 0x40 MSTORE DUP1 SWAP4 SWAP3 SWAP2 SWAP1 DUP2 DUP2 MSTORE PUSH1 0x20 ADD DUP4 DUP4 DUP1 DUP3 DUP5 CALLDATACOPY PUSH1 0x0 SWAP3 ADD SWAP2 SWAP1 SWAP2 MSTORE POP SWAP3 SWAP6 POP PUSH2 0x18C4 SWAP5 POP POP POP POP POP JUMP JUMPDEST CALLVALUE DUP1 ISZERO PUSH2 0x875 JUMPI PUSH1 0x0 DUP1 REVERT JUMPDEST POP PUSH2 0x893 PUSH1 0x4 DUP1 CALLDATASIZE SUB PUSH1 0x20 DUP2 LT ISZERO PUSH2 0x88C JUMPI PUSH1 0x0 DUP1 REVERT JUMPDEST POP CALLDATALOAD PUSH2 0x1BC7 JUMP JUMPDEST PUSH1 0x40 MLOAD DUP1 DUP7 ISZERO ISZERO DUP2 MSTORE PUSH1 0x20 ADD DUP1 PUSH1 0x20 ADD DUP6 DUP2 MSTORE PUSH1 0x20 ADD DUP5 DUP2 MSTORE PUSH1 0x20 ADD DUP4 DUP2 MSTORE PUSH1 0x20 ADD DUP3 DUP2 SUB DUP3 MSTORE DUP7 DUP2 DUP2 MLOAD DUP2 MSTORE PUSH1 0x20 ADD SWAP2 POP DUP1 MLOAD SWAP1 PUSH1 0x20 ADD SWAP1 DUP1 DUP4 DUP4 PUSH1 0x0 DUP4 DUP2 LT ISZERO PUSH2 0x560 JUMPI DUP2 DUP2 ADD MLOAD DUP4 DUP3 ADD MSTORE PUSH1 0x20 ADD PUSH2 0x548 JUMP JUMPDEST CALLVALUE DUP1 ISZERO PUSH2 0x8F5 JUMPI PUSH1 0x0 DUP1 REVERT JUMPDEST POP PUSH2 0x699 PUSH1 0x4 DUP1 CALLDATASIZE SUB PUSH1 0x40 DUP2 LT ISZERO PUSH2 0x90C JUMPI PUSH1 0x0 DUP1 REVERT JUMPDEST POP DUP1 CALLDATALOAD SWAP1 PUSH1 0x20 ADD CALLDATALOAD PUSH1 0x1 PUSH1 0x1 PUSH1 0xA0 SHL SUB AND PUSH2 0x1CC9 JUMP JUMPDEST CALLVALUE DUP1 ISZERO PUSH2 0x92E JUMPI PUSH1 0x0 DUP1 REVERT JUMPDEST POP PUSH2 0x699 PUSH1 0x4 DUP1 CALLDATASIZE SUB PUSH1 0x40 DUP2 LT ISZERO PUSH2 0x945 JUMPI PUSH1 0x0 DUP1 REVERT JUMPDEST POP DUP1 CALLDATALOAD SWAP1 PUSH1 0x20 ADD CALLDATALOAD PUSH1 0x1 PUSH1 0x1 PUSH1 0xA0 SHL SUB AND PUSH2 0x1D35 JUMP JUMPDEST CALLVALUE DUP1 ISZERO PUSH2 0x967 JUMPI PUSH1 0x0 DUP1 REVERT JUMPDEST POP PUSH2 0x321 PUSH2 0x1D96 JUMP JUMPDEST CALLVALUE DUP1 ISZERO PUSH2 0x97C JUMPI PUSH1 0x0 DUP1 REVERT JUMPDEST POP PUSH2 0x99A PUSH1 0x4 DUP1 CALLDATASIZE SUB PUSH1 0x20 DUP2 LT ISZERO PUSH2 0x993 JUMPI PUSH1 0x0 DUP1 REVERT JUMPDEST POP CALLDATALOAD PUSH2 0x1D9C JUMP JUMPDEST PUSH1 0x40 MLOAD DUP1 DUP1 PUSH1 0x20 ADD DUP6 DUP2 MSTORE PUSH1 0x20 ADD DUP5 DUP2 MSTORE PUSH1 0x20 ADD DUP4 PUSH1 0xFF AND DUP2 MSTORE PUSH1 0x20 ADD DUP3 DUP2 SUB DUP3 MSTORE DUP7 DUP2 DUP2 MLOAD DUP2 MSTORE PUSH1 0x20 ADD SWAP2 POP DUP1 MLOAD SWAP1 PUSH1 0x20 ADD SWAP1 DUP1 DUP4 DUP4 PUSH1 0x0 JUMPDEST DUP4 DUP2 LT ISZERO PUSH2 0x9EC JUMPI DUP2 DUP2 ADD MLOAD DUP4 DUP3 ADD MSTORE PUSH1 0x20 ADD PUSH2 0x9D4 JUMP JUMPDEST POP POP POP POP SWAP1 POP SWAP1 DUP2 ADD SWAP1 PUSH1 0x1F AND DUP1 ISZERO PUSH2 0xA19 JUMPI DUP1 DUP3 SUB DUP1 MLOAD PUSH1 0x1 DUP4 PUSH1 0x20 SUB PUSH2 0x100 EXP SUB NOT AND DUP2 MSTORE PUSH1 0x20 ADD SWAP2 POP JUMPDEST POP SWAP6 POP POP POP POP POP POP PUSH1 0x40 MLOAD DUP1 SWAP2 SUB SWAP1 RETURN JUMPDEST CALLVALUE DUP1 ISZERO PUSH2 0xA36 JUMPI PUSH1 0x0 DUP1 REVERT JUMPDEST POP PUSH2 0xA54 PUSH1 0x4 DUP1 CALLDATASIZE SUB PUSH1 0x20 DUP2 LT ISZERO PUSH2 0xA4D JUMPI PUSH1 0x0 DUP1 REVERT JUMPDEST POP CALLDATALOAD PUSH2 0x1E99 JUMP JUMPDEST PUSH1 0x40 DUP1 MLOAD PUSH1 0xFF SWAP6 DUP7 AND DUP2 MSTORE SWAP4 DUP6 AND PUSH1 0x20 DUP6 ADD MSTORE SWAP2 DUP5 AND DUP4 DUP4 ADD MSTORE SWAP1 SWAP3 AND PUSH1 0x60 DUP3 ADD MSTORE SWAP1 MLOAD SWAP1 DUP2 SWAP1 SUB PUSH1 0x80 ADD SWAP1 RETURN JUMPDEST PUSH2 0x321 PUSH1 0x4 DUP1 CALLDATASIZE SUB PUSH1 0x40 DUP2 LT ISZERO PUSH2 0xA98 JUMPI PUSH1 0x0 DUP1 REVERT JUMPDEST DUP2 CALLDATALOAD SWAP2 SWAP1 DUP2 ADD SWAP1 PUSH1 0x40 DUP2 ADD PUSH1 0x20 DUP3 ADD CALLDATALOAD PUSH1 0x1 PUSH1 0x20 SHL DUP2 GT ISZERO PUSH2 0xAB9 JUMPI PUSH1 0x0 DUP1 REVERT JUMPDEST DUP3 ADD DUP4 PUSH1 0x20 DUP3 ADD GT ISZERO PUSH2 0xACB JUMPI PUSH1 0x0 DUP1 REVERT JUMPDEST DUP1 CALLDATALOAD SWAP1 PUSH1 0x20 ADD SWAP2 DUP5 PUSH1 0x1 DUP4 MUL DUP5 ADD GT PUSH1 0x1 PUSH1 0x20 SHL DUP4 GT OR ISZERO PUSH2 0xAEC JUMPI PUSH1 0x0 DUP1 REVERT JUMPDEST POP SWAP1 SWAP3 POP SWAP1 POP PUSH2 0x1F0B JUMP JUMPDEST CALLVALUE DUP1 ISZERO PUSH2 0xB03 JUMPI PUSH1 0x0 DUP1 REVERT JUMPDEST POP PUSH2 0xA54 PUSH1 0x4 DUP1 CALLDATASIZE SUB PUSH1 0x20 DUP2 LT ISZERO PUSH2 0xB1A JUMPI PUSH1 0x0 DUP1 REVERT JUMPDEST POP CALLDATALOAD PUSH2 0x26A5 JUMP JUMPDEST CALLVALUE DUP1 ISZERO PUSH2 0xB2D JUMPI PUSH1 0x0 DUP1 REVERT JUMPDEST POP PUSH2 0x321 PUSH2 0x271C JUMP JUMPDEST CALLVALUE DUP1 ISZERO PUSH2 0xB42 JUMPI PUSH1 0x0 DUP1 REVERT JUMPDEST POP PUSH2 0xC66 PUSH1 0x4 DUP1 CALLDATASIZE SUB PUSH1 0x40 DUP2 LT ISZERO PUSH2 0xB59 JUMPI PUSH1 0x0 DUP1 REVERT JUMPDEST DUP2 ADD SWAP1 PUSH1 0x20 DUP2 ADD DUP2 CALLDATALOAD PUSH1 0x1 PUSH1 0x20 SHL DUP2 GT ISZERO PUSH2 0xB73 JUMPI PUSH1 0x0 DUP1 REVERT JUMPDEST DUP3 ADD DUP4 PUSH1 0x20 DUP3 ADD GT ISZERO PUSH2 0xB85 JUMPI PUSH1 0x0 DUP1 REVERT JUMPDEST DUP1 CALLDATALOAD SWAP1 PUSH1 0x20 ADD SWAP2 DUP5 PUSH1 0x20 DUP4 MUL DUP5 ADD GT PUSH1 0x1 PUSH1 0x20 SHL DUP4 GT OR ISZERO PUSH2 0xBA6 JUMPI PUSH1 0x0 DUP1 REVERT JUMPDEST SWAP2 SWAP1 DUP1 DUP1 PUSH1 0x20 MUL PUSH1 0x20 ADD PUSH1 0x40 MLOAD SWAP1 DUP2 ADD PUSH1 0x40 MSTORE DUP1 SWAP4 SWAP3 SWAP2 SWAP1 DUP2 DUP2 MSTORE PUSH1 0x20 ADD DUP4 DUP4 PUSH1 0x20 MUL DUP1 DUP3 DUP5 CALLDATACOPY PUSH1 0x0 SWAP3 ADD SWAP2 SWAP1 SWAP2 MSTORE POP SWAP3 SWAP6 SWAP5 SWAP4 PUSH1 0x20 DUP2 ADD SWAP4 POP CALLDATALOAD SWAP2 POP POP PUSH1 0x1 PUSH1 0x20 SHL DUP2 GT ISZERO PUSH2 0xBF5 JUMPI PUSH1 0x0 DUP1 REVERT JUMPDEST DUP3 ADD DUP4 PUSH1 0x20 DUP3 ADD GT ISZERO PUSH2 0xC07 JUMPI PUSH1 0x0 DUP1 REVERT JUMPDEST DUP1 CALLDATALOAD SWAP1 PUSH1 0x20 ADD SWAP2 DUP5 PUSH1 0x20 DUP4 MUL DUP5 ADD GT PUSH1 0x1 PUSH1 0x20 SHL DUP4 GT OR ISZERO PUSH2 0xC28 JUMPI PUSH1 0x0 DUP1 REVERT JUMPDEST SWAP2 SWAP1 DUP1 DUP1 PUSH1 0x20 MUL PUSH1 0x20 ADD PUSH1 0x40 MLOAD SWAP1 DUP2 ADD PUSH1 0x40 MSTORE DUP1 SWAP4 SWAP3 SWAP2 SWAP1 DUP2 DUP2 MSTORE PUSH1 0x20 ADD DUP4 DUP4 PUSH1 0x20 MUL DUP1 DUP3 DUP5 CALLDATACOPY PUSH1 0x0 SWAP3 ADD SWAP2 SWAP1 SWAP2 MSTORE POP SWAP3 SWAP6 POP PUSH2 0x2723 SWAP5 POP POP POP POP POP JUMP JUMPDEST PUSH1 0x40 DUP1 MLOAD PUSH1 0x20 DUP1 DUP3 MSTORE DUP4 MLOAD DUP2 DUP4 ADD MSTORE DUP4 MLOAD SWAP2 SWAP3 DUP4 SWAP3 SWAP1 DUP4 ADD SWAP2 DUP6 DUP2 ADD SWAP2 MUL DUP1 DUP4 DUP4 PUSH1 0x0 JUMPDEST DUP4 DUP2 LT ISZERO PUSH2 0xCA2 JUMPI DUP2 DUP2 ADD MLOAD DUP4 DUP3 ADD MSTORE PUSH1 0x20 ADD PUSH2 0xC8A JUMP JUMPDEST POP POP POP POP SWAP1 POP ADD SWAP3 POP POP POP PUSH1 0x40 MLOAD DUP1 SWAP2 SUB SWAP1 RETURN JUMPDEST CALLVALUE DUP1 ISZERO PUSH2 0xCC2 JUMPI PUSH1 0x0 DUP1 REVERT JUMPDEST POP PUSH2 0x644 PUSH1 0x4 DUP1 CALLDATASIZE SUB PUSH1 0x20 DUP2 LT ISZERO PUSH2 0xCD9 JUMPI PUSH1 0x0 DUP1 REVERT JUMPDEST POP CALLDATALOAD PUSH2 0x280F JUMP JUMPDEST CALLVALUE DUP1 ISZERO PUSH2 0xCEC JUMPI PUSH1 0x0 DUP1 REVERT JUMPDEST POP PUSH2 0x321 PUSH1 0x4 DUP1 CALLDATASIZE SUB PUSH1 0x40 DUP2 LT ISZERO PUSH2 0xD03 JUMPI PUSH1 0x0 DUP1 REVERT JUMPDEST POP DUP1 CALLDATALOAD SWAP1 PUSH1 0x20 ADD CALLDATALOAD PUSH2 0x2878 JUMP JUMPDEST CALLVALUE DUP1 ISZERO PUSH2 0xD1C JUMPI PUSH1 0x0 DUP1 REVERT JUMPDEST POP PUSH2 0x3F0 PUSH1 0x4 DUP1 CALLDATASIZE SUB PUSH1 0x20 DUP2 LT ISZERO PUSH2 0xD33 JUMPI PUSH1 0x0 DUP1 REVERT JUMPDEST POP CALLDATALOAD PUSH2 0x28C3 JUMP JUMPDEST CALLVALUE DUP1 ISZERO PUSH2 0xD46 JUMPI PUSH1 0x0 DUP1 REVERT JUMPDEST POP PUSH2 0x644 PUSH1 0x4 DUP1 CALLDATASIZE SUB PUSH1 0x20 DUP2 LT ISZERO PUSH2 0xD5D JUMPI PUSH1 0x0 DUP1 REVERT JUMPDEST POP CALLDATALOAD PUSH2 0x295E JUMP JUMPDEST CALLVALUE DUP1 ISZERO PUSH2 0xD70 JUMPI PUSH1 0x0 DUP1 REVERT JUMPDEST POP PUSH2 0x321 PUSH2 0x29B9 JUMP JUMPDEST CALLVALUE DUP1 ISZERO PUSH2 0xD85 JUMPI PUSH1 0x0 DUP1 REVERT JUMPDEST POP PUSH2 0xDA3 PUSH1 0x4 DUP1 CALLDATASIZE SUB PUSH1 0x20 DUP2 LT ISZERO PUSH2 0xD9C JUMPI PUSH1 0x0 DUP1 REVERT JUMPDEST POP CALLDATALOAD PUSH2 0x29BF JUMP JUMPDEST PUSH1 0x40 DUP1 MLOAD PUSH1 0xFF SWAP8 DUP9 AND DUP2 MSTORE SWAP6 DUP8 AND PUSH1 0x20 DUP8 ADD MSTORE SWAP4 DUP7 AND DUP6 DUP6 ADD MSTORE SWAP2 DUP6 AND PUSH1 0x60 DUP6 ADD MSTORE DUP5 AND PUSH1 0x80 DUP5 ADD MSTORE SWAP1 SWAP3 AND PUSH1 0xA0 DUP3 ADD MSTORE SWAP1 MLOAD SWAP1 DUP2 SWAP1 SUB PUSH1 0xC0 ADD SWAP1 RETURN JUMPDEST CALLVALUE DUP1 ISZERO PUSH2 0xDEC JUMPI PUSH1 0x0 DUP1 REVERT JUMPDEST POP PUSH2 0xA54 PUSH1 0x4 DUP1 CALLDATASIZE SUB PUSH1 0x20 DUP2 LT ISZERO PUSH2 0xE03 JUMPI PUSH1 0x0 DUP1 REVERT JUMPDEST POP CALLDATALOAD PUSH2 0x2A4B JUMP JUMPDEST CALLVALUE DUP1 ISZERO PUSH2 0xE16 JUMPI PUSH1 0x0 DUP1 REVERT JUMPDEST POP PUSH2 0x321 PUSH2 0x2ABA JUMP JUMPDEST CALLVALUE DUP1 ISZERO PUSH2 0xE2B JUMPI PUSH1 0x0 DUP1 REVERT JUMPDEST POP PUSH2 0x644 PUSH1 0x4 DUP1 CALLDATASIZE SUB PUSH1 0x40 DUP2 LT ISZERO PUSH2 0xE42 JUMPI PUSH1 0x0 DUP1 REVERT JUMPDEST POP DUP1 CALLDATALOAD SWAP1 PUSH1 0x20 ADD CALLDATALOAD PUSH2 0x2AC0 JUMP JUMPDEST CALLVALUE DUP1 ISZERO PUSH2 0xE5B JUMPI PUSH1 0x0 DUP1 REVERT JUMPDEST POP PUSH2 0x321 PUSH2 0x2ADF JUMP JUMPDEST CALLVALUE DUP1 ISZERO PUSH2 0xE70 JUMPI PUSH1 0x0 DUP1 REVERT JUMPDEST POP PUSH2 0x37C PUSH1 0x4 DUP1 CALLDATASIZE SUB PUSH1 0x40 DUP2 LT ISZERO PUSH2 0xE87 JUMPI PUSH1 0x0 DUP1 REVERT JUMPDEST POP DUP1 CALLDATALOAD SWAP1 PUSH1 0x20 ADD CALLDATALOAD PUSH1 0x1 PUSH1 0x1 PUSH1 0xA0 SHL SUB AND PUSH2 0x2AE4 JUMP JUMPDEST CALLVALUE DUP1 ISZERO PUSH2 0xEA9 JUMPI PUSH1 0x0 DUP1 REVERT JUMPDEST POP PUSH2 0x699 PUSH1 0x4 DUP1 CALLDATASIZE SUB PUSH1 0x40 DUP2 LT ISZERO PUSH2 0xEC0 JUMPI PUSH1 0x0 DUP1 REVERT JUMPDEST POP DUP1 CALLDATALOAD SWAP1 PUSH1 0x20 ADD CALLDATALOAD PUSH2 0x2AFC JUMP JUMPDEST CALLVALUE DUP1 ISZERO PUSH2 0xED9 JUMPI PUSH1 0x0 DUP1 REVERT JUMPDEST POP PUSH2 0x699 PUSH1 0x4 DUP1 CALLDATASIZE SUB PUSH1 0x40 DUP2 LT ISZERO PUSH2 0xEF0 JUMPI PUSH1 0x0 DUP1 REVERT JUMPDEST DUP2 ADD SWAP1 PUSH1 0x20 DUP2 ADD DUP2 CALLDATALOAD PUSH1 0x1 PUSH1 0x20 SHL DUP2 GT ISZERO PUSH2 0xF0A JUMPI PUSH1 0x0 DUP1 REVERT JUMPDEST DUP3 ADD DUP4 PUSH1 0x20 DUP3 ADD GT ISZERO PUSH2 0xF1C JUMPI PUSH1 0x0 DUP1 REVERT JUMPDEST DUP1 CALLDATALOAD SWAP1 PUSH1 0x20 ADD SWAP2 DUP5 PUSH1 0x1 DUP4 MUL DUP5 ADD GT PUSH1 0x1 PUSH1 0x20 SHL DUP4 GT OR ISZERO PUSH2 0xF3D JUMPI PUSH1 0x0 DUP1 REVERT JUMPDEST SWAP2 SWAP4 POP SWAP2 POP CALLDATALOAD PUSH1 0x1 PUSH1 0x1 PUSH1 0xA0 SHL SUB AND PUSH2 0x2B83 JUMP JUMPDEST CALLVALUE DUP1 ISZERO PUSH2 0xF5D JUMPI PUSH1 0x0 DUP1 REVERT JUMPDEST POP PUSH2 0x699 PUSH1 0x4 DUP1 CALLDATASIZE SUB PUSH1 0x20 DUP2 LT ISZERO PUSH2 0xF74 JUMPI PUSH1 0x0 DUP1 REVERT JUMPDEST DUP2 ADD SWAP1 PUSH1 0x20 DUP2 ADD DUP2 CALLDATALOAD PUSH1 0x1 PUSH1 0x20 SHL DUP2 GT ISZERO PUSH2 0xF8E JUMPI PUSH1 0x0 DUP1 REVERT JUMPDEST DUP3 ADD DUP4 PUSH1 0x20 DUP3 ADD GT ISZERO PUSH2 0xFA0 JUMPI PUSH1 0x0 DUP1 REVERT JUMPDEST DUP1 CALLDATALOAD SWAP1 PUSH1 0x20 ADD SWAP2 DUP5 PUSH1 0x1 DUP4 MUL DUP5 ADD GT PUSH1 0x1 PUSH1 0x20 SHL DUP4 GT OR ISZERO PUSH2 0xFC1 JUMPI PUSH1 0x0 DUP1 REVERT JUMPDEST POP SWAP1 SWAP3 POP SWAP1 POP PUSH2 0x2C37 JUMP JUMPDEST CALLVALUE DUP1 ISZERO PUSH2 0xFD8 JUMPI PUSH1 0x0 DUP1 REVERT JUMPDEST POP PUSH2 0x699 PUSH2 0x2C9A JUMP JUMPDEST CALLVALUE DUP1 ISZERO PUSH2 0xFED JUMPI PUSH1 0x0 DUP1 REVERT JUMPDEST POP PUSH2 0x321 PUSH2 0x2D09 JUMP JUMPDEST CALLVALUE DUP1 ISZERO PUSH2 0x1002 JUMPI PUSH1 0x0 DUP1 REVERT JUMPDEST POP PUSH2 0x699 PUSH1 0x4 DUP1 CALLDATASIZE SUB PUSH1 0x40 DUP2 LT ISZERO PUSH2 0x1019 JUMPI PUSH1 0x0 DUP1 REVERT JUMPDEST POP PUSH1 0x1 PUSH1 0x1 PUSH1 0xA0 SHL SUB DUP2 CALLDATALOAD AND SWAP1 PUSH1 0x20 ADD CALLDATALOAD ISZERO ISZERO PUSH2 0x2D0E JUMP JUMPDEST CALLVALUE DUP1 ISZERO PUSH2 0x103D JUMPI PUSH1 0x0 DUP1 REVERT JUMPDEST POP PUSH2 0x699 PUSH1 0x4 DUP1 CALLDATASIZE SUB PUSH1 0x20 DUP2 LT ISZERO PUSH2 0x1054 JUMPI PUSH1 0x0 DUP1 REVERT JUMPDEST POP CALLDATALOAD PUSH2 0x2DFD JUMP JUMPDEST CALLVALUE DUP1 ISZERO PUSH2 0x1067 JUMPI PUSH1 0x0 DUP1 REVERT JUMPDEST POP PUSH2 0x699 PUSH1 0x4 DUP1 CALLDATASIZE SUB PUSH1 0x60 DUP2 LT ISZERO PUSH2 0x107E JUMPI PUSH1 0x0 DUP1 REVERT JUMPDEST POP PUSH1 0x1 PUSH1 0x1 PUSH1 0xA0 SHL SUB DUP2 CALLDATALOAD DUP2 AND SWAP2 PUSH1 0x20 DUP2 ADD CALLDATALOAD SWAP1 SWAP2 AND SWAP1 PUSH1 0x40 ADD CALLDATALOAD PUSH2 0x3074 JUMP JUMPDEST CALLVALUE DUP1 ISZERO PUSH2 0x10AA JUMPI PUSH1 0x0 DUP1 REVERT JUMPDEST POP PUSH2 0x321 PUSH2 0x3084 JUMP JUMPDEST CALLVALUE DUP1 ISZERO PUSH2 0x10BF JUMPI PUSH1 0x0 DUP1 REVERT JUMPDEST POP PUSH2 0x699 PUSH1 0x4 DUP1 CALLDATASIZE SUB PUSH1 0x20 DUP2 LT ISZERO PUSH2 0x10D6 JUMPI PUSH1 0x0 DUP1 REVERT JUMPDEST POP CALLDATALOAD PUSH1 0xFF AND PUSH2 0x308A JUMP JUMPDEST CALLVALUE DUP1 ISZERO PUSH2 0x10EC JUMPI PUSH1 0x0 DUP1 REVERT JUMPDEST POP PUSH2 0x321 PUSH1 0x4 DUP1 CALLDATASIZE SUB PUSH1 0x20 DUP2 LT ISZERO PUSH2 0x1103 JUMPI PUSH1 0x0 DUP1 REVERT JUMPDEST POP CALLDATALOAD PUSH2 0x30D3 JUMP JUMPDEST CALLVALUE DUP1 ISZERO PUSH2 0x1116 JUMPI PUSH1 0x0 DUP1 REVERT JUMPDEST POP PUSH2 0x321 PUSH2 0x30EA JUMP JUMPDEST CALLVALUE DUP1 ISZERO PUSH2 0x112B JUMPI PUSH1 0x0 DUP1 REVERT JUMPDEST POP PUSH2 0x699 PUSH1 0x4 DUP1 CALLDATASIZE SUB PUSH1 0x40 DUP2 LT ISZERO PUSH2 0x1142 JUMPI PUSH1 0x0 DUP1 REVERT JUMPDEST POP DUP1 CALLDATALOAD SWAP1 PUSH1 0x20 ADD CALLDATALOAD PUSH1 0x1 PUSH1 0x1 PUSH1 0xA0 SHL SUB AND PUSH2 0x30F0 JUMP JUMPDEST CALLVALUE DUP1 ISZERO PUSH2 0x1164 JUMPI PUSH1 0x0 DUP1 REVERT JUMPDEST POP PUSH2 0x321 PUSH2 0x3149 JUMP JUMPDEST CALLVALUE DUP1 ISZERO PUSH2 0x1179 JUMPI PUSH1 0x0 DUP1 REVERT JUMPDEST POP PUSH2 0x699 PUSH1 0x4 DUP1 CALLDATASIZE SUB PUSH1 0x20 DUP2 LT ISZERO PUSH2 0x1190 JUMPI PUSH1 0x0 DUP1 REVERT JUMPDEST POP CALLDATALOAD PUSH2 0x314F JUMP JUMPDEST CALLVALUE DUP1 ISZERO PUSH2 0x11A3 JUMPI PUSH1 0x0 DUP1 REVERT JUMPDEST POP PUSH2 0x3F0 PUSH1 0x4 DUP1 CALLDATASIZE SUB PUSH1 0x20 DUP2 LT ISZERO PUSH2 0x11BA JUMPI PUSH1 0x0 DUP1 REVERT JUMPDEST POP CALLDATALOAD PUSH2 0x317D JUMP JUMPDEST CALLVALUE DUP1 ISZERO PUSH2 0x11CD JUMPI PUSH1 0x0 DUP1 REVERT JUMPDEST POP PUSH2 0x37C PUSH1 0x4 DUP1 CALLDATASIZE SUB PUSH1 0x40 DUP2 LT ISZERO PUSH2 0x11E4 JUMPI PUSH1 0x0 DUP1 REVERT JUMPDEST POP PUSH1 0x1 PUSH1 0x1 PUSH1 0xA0 SHL SUB DUP2 CALLDATALOAD DUP2 AND SWAP2 PUSH1 0x20 ADD CALLDATALOAD AND PUSH2 0x31F0 JUMP JUMPDEST CALLVALUE DUP1 ISZERO PUSH2 0x1208 JUMPI PUSH1 0x0 DUP1 REVERT JUMPDEST POP PUSH2 0x699 PUSH1 0x4 DUP1 CALLDATASIZE SUB PUSH1 0xA0 DUP2 LT ISZERO PUSH2 0x121F JUMPI PUSH1 0x0 DUP1 REVERT JUMPDEST PUSH1 0x1 PUSH1 0x1 PUSH1 0xA0 SHL SUB DUP3 CALLDATALOAD DUP2 AND SWAP3 PUSH1 0x20 DUP2 ADD CALLDATALOAD SWAP1 SWAP2 AND SWAP2 PUSH1 0x40 DUP3 ADD CALLDATALOAD SWAP2 PUSH1 0x60 DUP2 ADD CALLDATALOAD SWAP2 DUP2 ADD SWAP1 PUSH1 0xA0 DUP2 ADD PUSH1 0x80 DUP3 ADD CALLDATALOAD PUSH1 0x1 PUSH1 0x20 SHL DUP2 GT ISZERO PUSH2 0x125E JUMPI PUSH1 0x0 DUP1 REVERT JUMPDEST DUP3 ADD DUP4 PUSH1 0x20 DUP3 ADD GT ISZERO PUSH2 0x1270 JUMPI PUSH1 0x0 DUP1 REVERT JUMPDEST DUP1 CALLDATALOAD SWAP1 PUSH1 0x20 ADD SWAP2 DUP5 PUSH1 0x1 DUP4 MUL DUP5 ADD GT PUSH1 0x1 PUSH1 0x20 SHL DUP4 GT OR ISZERO PUSH2 0x1291 JUMPI PUSH1 0x0 DUP1 REVERT JUMPDEST SWAP2 SWAP1 DUP1 DUP1 PUSH1 0x1F ADD PUSH1 0x20 DUP1 SWAP2 DIV MUL PUSH1 0x20 ADD PUSH1 0x40 MLOAD SWAP1 DUP2 ADD PUSH1 0x40 MSTORE DUP1 SWAP4 SWAP3 SWAP2 SWAP1 DUP2 DUP2 MSTORE PUSH1 0x20 ADD DUP4 DUP4 DUP1 DUP3 DUP5 CALLDATACOPY PUSH1 0x0 SWAP3 ADD SWAP2 SWAP1 SWAP2 MSTORE POP SWAP3 SWAP6 POP PUSH2 0x321E SWAP5 POP POP POP POP POP JUMP JUMPDEST CALLVALUE DUP1 ISZERO PUSH2 0x12DE JUMPI PUSH1 0x0 DUP1 REVERT JUMPDEST POP PUSH2 0x321 PUSH1 0x4 DUP1 CALLDATASIZE SUB PUSH1 0x40 DUP2 LT ISZERO PUSH2 0x12F5 JUMPI PUSH1 0x0 DUP1 REVERT JUMPDEST POP DUP1 CALLDATALOAD SWAP1 PUSH1 0x20 ADD CALLDATALOAD PUSH2 0x33E9 JUMP JUMPDEST PUSH1 0x0 PUSH1 0x1 PUSH1 0x1 PUSH1 0xA0 SHL SUB DUP4 AND PUSH2 0x1349 JUMPI PUSH1 0x40 MLOAD PUSH3 0x461BCD PUSH1 0xE5 SHL DUP2 MSTORE PUSH1 0x4 ADD DUP1 DUP1 PUSH1 0x20 ADD DUP3 DUP2 SUB DUP3 MSTORE PUSH1 0x2B DUP2 MSTORE PUSH1 0x20 ADD DUP1 PUSH2 0x54BF PUSH1 0x2B SWAP2 CODECOPY PUSH1 0x40 ADD SWAP2 POP POP PUSH1 0x40 MLOAD DUP1 SWAP2 SUB SWAP1 REVERT JUMPDEST POP PUSH1 0x0 DUP2 DUP2 MSTORE PUSH1 0x2 PUSH1 0x20 SWAP1 DUP2 MSTORE PUSH1 0x40 DUP1 DUP4 KECCAK256 PUSH1 0x1 PUSH1 0x1 PUSH1 0xA0 SHL SUB DUP7 AND DUP5 MSTORE SWAP1 SWAP2 MSTORE SWAP1 KECCAK256 SLOAD JUMPDEST SWAP3 SWAP2 POP POP JUMP JUMPDEST PUSH1 0x9 SLOAD DUP2 JUMP JUMPDEST PUSH1 0x1 PUSH1 0x1 PUSH1 0xE0 SHL SUB NOT DUP2 AND PUSH1 0x0 SWAP1 DUP2 MSTORE PUSH1 0x1 PUSH1 0x20 MSTORE PUSH1 0x40 SWAP1 KECCAK256 SLOAD PUSH1 0xFF AND JUMPDEST SWAP2 SWAP1 POP JUMP JUMPDEST PUSH1 0x6 SLOAD PUSH1 0xFF AND DUP2 JUMP JUMPDEST PUSH1 0x4 DUP1 SLOAD PUSH1 0x40 DUP1 MLOAD PUSH1 0x20 PUSH1 0x1F PUSH1 0x2 PUSH1 0x0 NOT PUSH2 0x100 PUSH1 0x1 DUP9 AND ISZERO MUL ADD SWAP1 SWAP6 AND SWAP5 SWAP1 SWAP5 DIV SWAP4 DUP5 ADD DUP2 SWAP1 DIV DUP2 MUL DUP3 ADD DUP2 ADD SWAP1 SWAP3 MSTORE DUP3 DUP2 MSTORE PUSH1 0x60 SWAP4 SWAP1 SWAP3 SWAP1 SWAP2 DUP4 ADD DUP3 DUP3 DUP1 ISZERO PUSH2 0x1432 JUMPI DUP1 PUSH1 0x1F LT PUSH2 0x1407 JUMPI PUSH2 0x100 DUP1 DUP4 SLOAD DIV MUL DUP4 MSTORE SWAP2 PUSH1 0x20 ADD SWAP2 PUSH2 0x1432 JUMP JUMPDEST DUP3 ADD SWAP2 SWAP1 PUSH1 0x0 MSTORE PUSH1 0x20 PUSH1 0x0 KECCAK256 SWAP1 JUMPDEST DUP2 SLOAD DUP2 MSTORE SWAP1 PUSH1 0x1 ADD SWAP1 PUSH1 0x20 ADD DUP1 DUP4 GT PUSH2 0x1415 JUMPI DUP3 SWAP1 SUB PUSH1 0x1F AND DUP3 ADD SWAP2 JUMPDEST POP POP POP POP POP SWAP1 POP SWAP2 SWAP1 POP JUMP JUMPDEST PUSH1 0x0 DUP1 DUP1 PUSH1 0x6 SLOAD PUSH1 0xFF AND PUSH1 0x1 DUP2 GT ISZERO PUSH2 0x1453 JUMPI INVALID JUMPDEST EQ PUSH2 0x145D JUMPI PUSH1 0x0 DUP1 REVERT JUMPDEST PUSH1 0x7 PUSH1 0xD SLOAD LT PUSH2 0x146C JUMPI PUSH1 0x0 DUP1 REVERT JUMPDEST PUSH1 0x14 SLOAD CALLVALUE LT ISZERO PUSH2 0x147B JUMPI PUSH1 0x0 DUP1 REVERT JUMPDEST PUSH1 0x0 PUSH1 0x1 PUSH1 0x1 PUSH1 0xA0 SHL SUB AND PUSH1 0x16 DUP6 DUP6 PUSH1 0x40 MLOAD DUP1 DUP4 DUP4 DUP1 DUP3 DUP5 CALLDATACOPY SWAP2 SWAP1 SWAP2 ADD SWAP5 DUP6 MSTORE POP POP PUSH1 0x40 MLOAD SWAP3 DUP4 SWAP1 SUB PUSH1 0x20 ADD SWAP1 SWAP3 KECCAK256 SLOAD PUSH1 0x1 PUSH1 0x1 PUSH1 0xA0 SHL SUB AND SWAP3 SWAP1 SWAP3 EQ ISZERO SWAP2 POP PUSH2 0x14C6 SWAP1 POP JUMPI PUSH1 0x0 DUP1 REVERT JUMPDEST PUSH1 0xD SLOAD PUSH1 0x0 SWAP1 PUSH2 0x14D7 SWAP1 PUSH1 0x1 PUSH2 0x3478 JUMP JUMPDEST PUSH1 0x0 DUP2 DUP2 MSTORE PUSH1 0xE PUSH1 0x20 MSTORE PUSH1 0x40 SWAP1 KECCAK256 SLOAD SWAP1 SWAP2 POP PUSH1 0x1 PUSH1 0x1 PUSH1 0xA0 SHL SUB AND ISZERO PUSH2 0x14F9 JUMPI INVALID JUMPDEST PUSH1 0x0 DUP2 DUP2 MSTORE PUSH1 0xF PUSH1 0x20 MSTORE PUSH1 0x40 SWAP1 KECCAK256 SLOAD PUSH1 0xFF AND ISZERO PUSH2 0x1512 JUMPI INVALID JUMPDEST PUSH1 0x0 PUSH1 0x16 DUP7 DUP7 PUSH1 0x40 MLOAD DUP1 DUP4 DUP4 DUP1 DUP3 DUP5 CALLDATACOPY SWAP2 SWAP1 SWAP2 ADD SWAP5 DUP6 MSTORE POP POP PUSH1 0x40 DUP1 MLOAD SWAP4 DUP5 SWAP1 SUB PUSH1 0x20 ADD DUP5 KECCAK256 SLOAD PUSH4 0x3FABE5A3 PUSH1 0xE2 SHL DUP6 MSTORE SWAP1 MLOAD PUSH1 0x1 PUSH1 0x1 PUSH1 0xA0 SHL SUB SWAP1 SWAP2 AND SWAP4 PUSH4 0xFEAF968C SWAP4 POP PUSH1 0x4 DUP1 DUP3 ADD SWAP4 POP PUSH1 0xA0 SWAP3 SWAP2 DUP3 SWAP1 SUB ADD DUP2 DUP7 DUP1 EXTCODESIZE ISZERO DUP1 ISZERO PUSH2 0x1577 JUMPI PUSH1 0x0 DUP1 REVERT JUMPDEST POP GAS STATICCALL ISZERO DUP1 ISZERO PUSH2 0x158B JUMPI RETURNDATASIZE PUSH1 0x0 DUP1 RETURNDATACOPY RETURNDATASIZE PUSH1 0x0 REVERT JUMPDEST POP POP POP POP PUSH1 0x40 MLOAD RETURNDATASIZE PUSH1 0xA0 DUP2 LT ISZERO PUSH2 0x15A1 JUMPI PUSH1 0x0 DUP1 REVERT JUMPDEST POP PUSH1 0x20 ADD MLOAD SWAP1 POP PUSH2 0x15B0 PUSH2 0x5157 JUMP JUMPDEST PUSH1 0x1 DUP2 MSTORE PUSH1 0x20 DUP1 DUP3 ADD DUP11 SWAP1 MSTORE PUSH1 0x40 DUP1 DUP4 ADD DUP11 SWAP1 MSTORE DUP1 MLOAD PUSH1 0x1F DUP10 ADD DUP4 SWAP1 DIV DUP4 MUL DUP2 ADD DUP4 ADD SWAP1 SWAP2 MSTORE DUP8 DUP2 MSTORE SWAP1 DUP9 SWAP1 DUP9 SWAP1 DUP2 SWAP1 DUP5 ADD DUP4 DUP3 DUP1 DUP3 DUP5 CALLDATACOPY PUSH1 0x0 SWAP3 ADD SWAP2 SWAP1 SWAP2 MSTORE POP POP POP POP PUSH1 0x60 DUP3 ADD MSTORE PUSH1 0x80 DUP2 ADD DUP3 SWAP1 MSTORE PUSH2 0x1623 PUSH2 0x160B PUSH2 0x34D2 JUMP JUMPDEST DUP5 PUSH1 0x1 PUSH1 0x40 MLOAD DUP1 PUSH1 0x20 ADD PUSH1 0x40 MSTORE DUP1 PUSH1 0x0 DUP2 MSTORE POP PUSH2 0x34D6 JUMP JUMPDEST PUSH2 0x162B PUSH2 0x34D2 JUMP JUMPDEST PUSH1 0x0 DUP5 DUP2 MSTORE PUSH1 0xE PUSH1 0x20 SWAP1 DUP2 MSTORE PUSH1 0x40 DUP1 DUP4 KECCAK256 DUP1 SLOAD PUSH1 0x1 PUSH1 0x1 PUSH1 0xA0 SHL SUB NOT AND PUSH1 0x1 PUSH1 0x1 PUSH1 0xA0 SHL SUB SWAP6 SWAP1 SWAP6 AND SWAP5 SWAP1 SWAP5 OR SWAP1 SWAP4 SSTORE PUSH1 0xF DUP2 MSTORE SWAP1 DUP3 SWAP1 KECCAK256 DUP4 MLOAD DUP2 SLOAD PUSH1 0xFF NOT AND SWAP1 ISZERO ISZERO OR DUP2 SSTORE DUP4 DUP3 ADD MLOAD PUSH1 0x1 DUP3 ADD SSTORE SWAP2 DUP4 ADD MLOAD PUSH1 0x2 DUP4 ADD SSTORE PUSH1 0x60 DUP4 ADD MLOAD DUP1 MLOAD DUP5 SWAP4 SWAP3 PUSH2 0x169E SWAP3 PUSH1 0x3 DUP6 ADD SWAP3 SWAP2 ADD SWAP1 PUSH2 0x5188 JUMP JUMPDEST POP PUSH1 0x80 SWAP2 SWAP1 SWAP2 ADD MLOAD PUSH1 0x4 SWAP1 SWAP2 ADD SSTORE PUSH1 0xD SLOAD PUSH2 0x16BA SWAP1 PUSH1 0x1 PUSH2 0x3478 JUMP JUMPDEST PUSH1 0xD SSTORE PUSH1 0x14 SLOAD PUSH2 0x16C9 SWAP1 PUSH2 0x35DE JUMP JUMPDEST PUSH1 0x14 SLOAD PUSH1 0xB SLOAD PUSH2 0x16D8 SWAP2 PUSH2 0x3478 JUMP JUMPDEST PUSH1 0xB SSTORE PUSH32 0x3560F0337E62819199860BA21B425B8BDE9A01FA6E514DD58AB6EDF7DAF1D1F1 DUP4 PUSH2 0x1705 PUSH2 0x34D2 JUMP JUMPDEST PUSH1 0x40 DUP1 MLOAD SWAP3 DUP4 MSTORE PUSH1 0x1 PUSH1 0x1 PUSH1 0xA0 SHL SUB SWAP1 SWAP2 AND PUSH1 0x20 DUP4 ADD MSTORE DUP1 MLOAD SWAP2 DUP3 SWAP1 SUB ADD SWAP1 LOG1 POP SWAP1 SWAP8 SWAP7 POP POP POP POP POP POP POP JUMP JUMPDEST PUSH1 0x0 DUP1 PUSH1 0x0 PUSH1 0x60 PUSH1 0x0 DUP6 PUSH1 0x0 DUP2 GT DUP1 ISZERO PUSH2 0x174D JUMPI POP PUSH1 0x7 DUP2 GT ISZERO JUMPDEST PUSH2 0x1756 JUMPI PUSH1 0x0 DUP1 REVERT JUMPDEST PUSH2 0x175E PUSH2 0x5157 JUMP JUMPDEST PUSH1 0x0 DUP9 DUP2 MSTORE PUSH1 0xF PUSH1 0x20 SWAP1 DUP2 MSTORE PUSH1 0x40 SWAP2 DUP3 SWAP1 KECCAK256 DUP3 MLOAD PUSH1 0xA0 DUP2 ADD DUP5 MSTORE DUP2 SLOAD PUSH1 0xFF AND ISZERO ISZERO DUP2 MSTORE PUSH1 0x1 DUP1 DUP4 ADD SLOAD DUP3 DUP6 ADD MSTORE PUSH1 0x2 DUP1 DUP5 ADD SLOAD DUP4 DUP8 ADD MSTORE PUSH1 0x3 DUP5 ADD DUP1 SLOAD DUP8 MLOAD PUSH2 0x100 SWAP5 DUP3 AND ISZERO SWAP5 SWAP1 SWAP5 MUL PUSH1 0x0 NOT ADD AND SWAP2 SWAP1 SWAP2 DIV PUSH1 0x1F DUP2 ADD DUP7 SWAP1 DIV DUP7 MUL DUP4 ADD DUP7 ADD SWAP1 SWAP7 MSTORE DUP6 DUP3 MSTORE SWAP2 SWAP5 SWAP3 SWAP4 PUSH1 0x60 DUP7 ADD SWAP4 SWAP2 SWAP3 SWAP2 SWAP1 DUP4 ADD DUP3 DUP3 DUP1 ISZERO PUSH2 0x1822 JUMPI DUP1 PUSH1 0x1F LT PUSH2 0x17F7 JUMPI PUSH2 0x100 DUP1 DUP4 SLOAD DIV MUL DUP4 MSTORE SWAP2 PUSH1 0x20 ADD SWAP2 PUSH2 0x1822 JUMP JUMPDEST DUP3 ADD SWAP2 SWAP1 PUSH1 0x0 MSTORE PUSH1 0x20 PUSH1 0x0 KECCAK256 SWAP1 JUMPDEST DUP2 SLOAD DUP2 MSTORE SWAP1 PUSH1 0x1 ADD SWAP1 PUSH1 0x20 ADD DUP1 DUP4 GT PUSH2 0x1805 JUMPI DUP3 SWAP1 SUB PUSH1 0x1F AND DUP3 ADD SWAP2 JUMPDEST POP POP POP SWAP2 DUP4 MSTORE POP POP PUSH1 0x4 SWAP2 SWAP1 SWAP2 ADD SLOAD PUSH1 0x20 SWAP2 DUP3 ADD MSTORE DUP2 MLOAD SWAP1 DUP3 ADD MLOAD PUSH1 0x40 DUP4 ADD MLOAD PUSH1 0x60 DUP5 ADD MLOAD PUSH1 0x80 SWAP1 SWAP5 ADD MLOAD SWAP3 SWAP13 SWAP2 SWAP12 POP SWAP10 POP SWAP2 SWAP8 POP SWAP6 POP SWAP4 POP POP POP POP JUMP JUMPDEST PUSH1 0x0 SWAP1 DUP2 MSTORE PUSH1 0x20 DUP2 SWAP1 MSTORE PUSH1 0x40 SWAP1 KECCAK256 PUSH1 0x2 ADD SLOAD SWAP1 JUMP JUMPDEST PUSH1 0x0 PUSH1 0x16 DUP4 DUP4 PUSH1 0x40 MLOAD DUP1 DUP4 DUP4 DUP1 DUP3 DUP5 CALLDATACOPY SWAP2 SWAP1 SWAP2 ADD SWAP5 DUP6 MSTORE POP POP PUSH1 0x40 MLOAD SWAP3 DUP4 SWAP1 SUB PUSH1 0x20 ADD SWAP1 SWAP3 KECCAK256 SLOAD PUSH1 0x1 PUSH1 0x1 PUSH1 0xA0 SHL SUB AND SWAP3 POP POP POP SWAP3 SWAP2 POP POP JUMP JUMPDEST PUSH1 0x60 PUSH2 0x18BF CALLER DUP5 PUSH1 0x0 DUP6 DUP6 PUSH2 0x321E JUMP JUMPDEST POP POP POP JUMP JUMPDEST DUP2 MLOAD DUP4 MLOAD EQ PUSH2 0x1904 JUMPI PUSH1 0x40 MLOAD PUSH3 0x461BCD PUSH1 0xE5 SHL DUP2 MSTORE PUSH1 0x4 ADD DUP1 DUP1 PUSH1 0x20 ADD DUP3 DUP2 SUB DUP3 MSTORE PUSH1 0x28 DUP2 MSTORE PUSH1 0x20 ADD DUP1 PUSH2 0x567E PUSH1 0x28 SWAP2 CODECOPY PUSH1 0x40 ADD SWAP2 POP POP PUSH1 0x40 MLOAD DUP1 SWAP2 SUB SWAP1 REVERT JUMPDEST PUSH1 0x1 PUSH1 0x1 PUSH1 0xA0 SHL SUB DUP5 AND PUSH2 0x1949 JUMPI PUSH1 0x40 MLOAD PUSH3 0x461BCD PUSH1 0xE5 SHL DUP2 MSTORE PUSH1 0x4 ADD DUP1 DUP1 PUSH1 0x20 ADD DUP3 DUP2 SUB DUP3 MSTORE PUSH1 0x25 DUP2 MSTORE PUSH1 0x20 ADD DUP1 PUSH2 0x5567 PUSH1 0x25 SWAP2 CODECOPY PUSH1 0x40 ADD SWAP2 POP POP PUSH1 0x40 MLOAD DUP1 SWAP2 SUB SWAP1 REVERT JUMPDEST PUSH2 0x1951 PUSH2 0x34D2 JUMP JUMPDEST PUSH1 0x1 PUSH1 0x1 PUSH1 0xA0 SHL SUB AND DUP6 PUSH1 0x1 PUSH1 0x1 PUSH1 0xA0 SHL SUB AND EQ DUP1 PUSH2 0x197C JUMPI POP PUSH2 0x197C DUP6 PUSH2 0x1977 PUSH2 0x34D2 JUMP JUMPDEST PUSH2 0x31F0 JUMP JUMPDEST PUSH2 0x19B7 JUMPI PUSH1 0x40 MLOAD PUSH3 0x461BCD PUSH1 0xE5 SHL DUP2 MSTORE PUSH1 0x4 ADD DUP1 DUP1 PUSH1 0x20 ADD DUP3 DUP2 SUB DUP3 MSTORE PUSH1 0x32 DUP2 MSTORE PUSH1 0x20 ADD DUP1 PUSH2 0x558C PUSH1 0x32 SWAP2 CODECOPY PUSH1 0x40 ADD SWAP2 POP POP PUSH1 0x40 MLOAD DUP1 SWAP2 SUB SWAP1 REVERT JUMPDEST PUSH1 0x0 PUSH2 0x19C1 PUSH2 0x34D2 JUMP JUMPDEST SWAP1 POP PUSH2 0x19D1 DUP2 DUP8 DUP8 DUP8 DUP8 DUP8 PUSH2 0x364C JUMP JUMPDEST PUSH1 0x0 JUMPDEST DUP5 MLOAD DUP2 LT ISZERO PUSH2 0x1AD7 JUMPI PUSH1 0x0 DUP6 DUP3 DUP2 MLOAD DUP2 LT PUSH2 0x19EB JUMPI INVALID JUMPDEST PUSH1 0x20 MUL PUSH1 0x20 ADD ADD MLOAD SWAP1 POP PUSH1 0x0 DUP6 DUP4 DUP2 MLOAD DUP2 LT PUSH2 0x1A03 JUMPI INVALID JUMPDEST PUSH1 0x20 MUL PUSH1 0x20 ADD ADD MLOAD SWAP1 POP PUSH2 0x1A70 DUP2 PUSH1 0x40 MLOAD DUP1 PUSH1 0x60 ADD PUSH1 0x40 MSTORE DUP1 PUSH1 0x2A DUP2 MSTORE PUSH1 0x20 ADD PUSH2 0x55E1 PUSH1 0x2A SWAP2 CODECOPY PUSH1 0x2 PUSH1 0x0 DUP7 DUP2 MSTORE PUSH1 0x20 ADD SWAP1 DUP2 MSTORE PUSH1 0x20 ADD PUSH1 0x0 KECCAK256 PUSH1 0x0 DUP14 PUSH1 0x1 PUSH1 0x1 PUSH1 0xA0 SHL SUB AND PUSH1 0x1 PUSH1 0x1 PUSH1 0xA0 SHL SUB AND DUP2 MSTORE PUSH1 0x20 ADD SWAP1 DUP2 MSTORE PUSH1 0x20 ADD PUSH1 0x0 KECCAK256 SLOAD PUSH2 0x3767 SWAP1 SWAP3 SWAP2 SWAP1 PUSH4 0xFFFFFFFF AND JUMP JUMPDEST PUSH1 0x0 DUP4 DUP2 MSTORE PUSH1 0x2 PUSH1 0x20 SWAP1 DUP2 MSTORE PUSH1 0x40 DUP1 DUP4 KECCAK256 PUSH1 0x1 PUSH1 0x1 PUSH1 0xA0 SHL SUB DUP15 DUP2 AND DUP6 MSTORE SWAP3 MSTORE DUP1 DUP4 KECCAK256 SWAP4 SWAP1 SWAP4 SSTORE DUP11 AND DUP2 MSTORE KECCAK256 SLOAD PUSH2 0x1AA7 SWAP1 DUP3 PUSH2 0x3478 JUMP JUMPDEST PUSH1 0x0 SWAP3 DUP4 MSTORE PUSH1 0x2 PUSH1 0x20 SWAP1 DUP2 MSTORE PUSH1 0x40 DUP1 DUP6 KECCAK256 PUSH1 0x1 PUSH1 0x1 PUSH1 0xA0 SHL SUB DUP13 AND DUP7 MSTORE SWAP1 SWAP2 MSTORE SWAP1 SWAP3 KECCAK256 SWAP2 SWAP1 SWAP2 SSTORE POP PUSH1 0x1 ADD PUSH2 0x19D4 JUMP JUMPDEST POP DUP5 PUSH1 0x1 PUSH1 0x1 PUSH1 0xA0 SHL SUB AND DUP7 PUSH1 0x1 PUSH1 0x1 PUSH1 0xA0 SHL SUB AND DUP3 PUSH1 0x1 PUSH1 0x1 PUSH1 0xA0 SHL SUB AND PUSH32 0x4A39DC06D4C0DBC64B70AF90FD698A233A518AA5D07E595D983B8C0526C8F7FB DUP8 DUP8 PUSH1 0x40 MLOAD DUP1 DUP1 PUSH1 0x20 ADD DUP1 PUSH1 0x20 ADD DUP4 DUP2 SUB DUP4 MSTORE DUP6 DUP2 DUP2 MLOAD DUP2 MSTORE PUSH1 0x20 ADD SWAP2 POP DUP1 MLOAD SWAP1 PUSH1 0x20 ADD SWAP1 PUSH1 0x20 MUL DUP1 DUP4 DUP4 PUSH1 0x0 JUMPDEST DUP4 DUP2 LT ISZERO PUSH2 0x1B5D JUMPI DUP2 DUP2 ADD MLOAD DUP4 DUP3 ADD MSTORE PUSH1 0x20 ADD PUSH2 0x1B45 JUMP JUMPDEST POP POP POP POP SWAP1 POP ADD DUP4 DUP2 SUB DUP3 MSTORE DUP5 DUP2 DUP2 MLOAD DUP2 MSTORE PUSH1 0x20 ADD SWAP2 POP DUP1 MLOAD SWAP1 PUSH1 0x20 ADD SWAP1 PUSH1 0x20 MUL DUP1 DUP4 DUP4 PUSH1 0x0 JUMPDEST DUP4 DUP2 LT ISZERO PUSH2 0x1B9C JUMPI DUP2 DUP2 ADD MLOAD DUP4 DUP3 ADD MSTORE PUSH1 0x20 ADD PUSH2 0x1B84 JUMP JUMPDEST POP POP POP POP SWAP1 POP ADD SWAP5 POP POP POP POP POP PUSH1 0x40 MLOAD DUP1 SWAP2 SUB SWAP1 LOG4 PUSH2 0x1BBF DUP2 DUP8 DUP8 DUP8 DUP8 DUP8 PUSH2 0x37FE JUMP JUMPDEST POP POP POP POP POP POP JUMP JUMPDEST PUSH1 0x0 PUSH1 0x60 PUSH1 0x0 DUP1 PUSH1 0x0 DUP6 PUSH1 0x7 DUP2 GT PUSH2 0x1BDE JUMPI PUSH1 0x0 DUP1 REVERT JUMPDEST PUSH1 0x0 DUP2 DUP2 MSTORE PUSH1 0x12 PUSH1 0x20 MSTORE PUSH1 0x40 SWAP1 KECCAK256 SLOAD PUSH1 0xFF AND PUSH2 0x1BF9 JUMPI PUSH1 0x0 DUP1 REVERT JUMPDEST PUSH1 0x0 DUP8 DUP2 MSTORE PUSH1 0x12 PUSH1 0x20 SWAP1 DUP2 MSTORE PUSH1 0x40 SWAP2 DUP3 SWAP1 KECCAK256 DUP1 SLOAD PUSH1 0x3 DUP3 ADD SLOAD PUSH1 0x4 DUP4 ADD SLOAD PUSH1 0x5 DUP5 ADD SLOAD PUSH1 0x2 SWAP5 DUP6 ADD DUP1 SLOAD DUP9 MLOAD PUSH2 0x100 PUSH1 0x1 DUP4 AND ISZERO MUL PUSH1 0x0 NOT ADD SWAP1 SWAP2 AND SWAP7 SWAP1 SWAP7 DIV PUSH1 0x1F DUP2 ADD DUP9 SWAP1 DIV DUP9 MUL DUP8 ADD DUP9 ADD SWAP1 SWAP9 MSTORE DUP8 DUP7 MSTORE PUSH1 0xFF SWAP1 SWAP5 AND SWAP7 SWAP4 SWAP6 SWAP3 SWAP5 SWAP2 SWAP4 SWAP1 SWAP3 DUP7 SWAP2 SWAP1 DUP4 ADD DUP3 DUP3 DUP1 ISZERO PUSH2 0x1CAE JUMPI DUP1 PUSH1 0x1F LT PUSH2 0x1C83 JUMPI PUSH2 0x100 DUP1 DUP4 SLOAD DIV MUL DUP4 MSTORE SWAP2 PUSH1 0x20 ADD SWAP2 PUSH2 0x1CAE JUMP JUMPDEST DUP3 ADD SWAP2 SWAP1 PUSH1 0x0 MSTORE PUSH1 0x20 PUSH1 0x0 KECCAK256 SWAP1 JUMPDEST DUP2 SLOAD DUP2 MSTORE SWAP1 PUSH1 0x1 ADD SWAP1 PUSH1 0x20 ADD DUP1 DUP4 GT PUSH2 0x1C91 JUMPI DUP3 SWAP1 SUB PUSH1 0x1F AND DUP3 ADD SWAP2 JUMPDEST POP POP POP POP POP SWAP4 POP SWAP6 POP SWAP6 POP SWAP6 POP SWAP6 POP SWAP6 POP POP SWAP2 SWAP4 SWAP6 SWAP1 SWAP3 SWAP5 POP JUMP JUMPDEST PUSH1 0x0 DUP3 DUP2 MSTORE PUSH1 0x20 DUP2 SWAP1 MSTORE PUSH1 0x40 SWAP1 KECCAK256 PUSH1 0x2 ADD SLOAD PUSH2 0x1CEC SWAP1 PUSH2 0x1CE7 PUSH2 0x34D2 JUMP JUMPDEST PUSH2 0x2AE4 JUMP JUMPDEST PUSH2 0x1D27 JUMPI PUSH1 0x40 MLOAD PUSH3 0x461BCD PUSH1 0xE5 SHL DUP2 MSTORE PUSH1 0x4 ADD DUP1 DUP1 PUSH1 0x20 ADD DUP3 DUP2 SUB DUP3 MSTORE PUSH1 0x2F DUP2 MSTORE PUSH1 0x20 ADD DUP1 PUSH2 0x5490 PUSH1 0x2F SWAP2 CODECOPY PUSH1 0x40 ADD SWAP2 POP POP PUSH1 0x40 MLOAD DUP1 SWAP2 SUB SWAP1 REVERT JUMPDEST PUSH2 0x1D31 DUP3 DUP3 PUSH2 0x3A74 JUMP JUMPDEST POP POP JUMP JUMPDEST PUSH2 0x1D3D PUSH2 0x34D2 JUMP JUMPDEST PUSH1 0x1 PUSH1 0x1 PUSH1 0xA0 SHL SUB AND DUP2 PUSH1 0x1 PUSH1 0x1 PUSH1 0xA0 SHL SUB AND EQ PUSH2 0x1D8C JUMPI PUSH1 0x40 MLOAD PUSH3 0x461BCD PUSH1 0xE5 SHL DUP2 MSTORE PUSH1 0x4 ADD DUP1 DUP1 PUSH1 0x20 ADD DUP3 DUP2 SUB DUP3 MSTORE PUSH1 0x2F DUP2 MSTORE PUSH1 0x20 ADD DUP1 PUSH2 0x56C7 PUSH1 0x2F SWAP2 CODECOPY PUSH1 0x40 ADD SWAP2 POP POP PUSH1 0x40 MLOAD DUP1 SWAP2 SUB SWAP1 REVERT JUMPDEST PUSH2 0x1D31 DUP3 DUP3 PUSH2 0x3ADD JUMP JUMPDEST PUSH1 0xB SLOAD DUP2 JUMP JUMPDEST PUSH1 0x60 PUSH1 0x0 DUP1 PUSH1 0x0 DUP5 PUSH1 0x7 DUP2 GT PUSH2 0x1DB1 JUMPI PUSH1 0x0 DUP1 REVERT JUMPDEST PUSH1 0x0 DUP2 DUP2 MSTORE PUSH1 0x12 PUSH1 0x20 MSTORE PUSH1 0x40 SWAP1 KECCAK256 SLOAD PUSH1 0xFF AND PUSH2 0x1DCC JUMPI PUSH1 0x0 DUP1 REVERT JUMPDEST PUSH1 0x0 DUP7 DUP2 MSTORE PUSH1 0x12 PUSH1 0x20 SWAP1 DUP2 MSTORE PUSH1 0x40 SWAP2 DUP3 SWAP1 KECCAK256 PUSH1 0x6 DUP2 ADD SLOAD PUSH1 0x7 DUP3 ADD SLOAD PUSH1 0x8 DUP4 ADD SLOAD PUSH1 0x1 SWAP4 DUP5 ADD DUP1 SLOAD DUP8 MLOAD PUSH1 0x2 PUSH2 0x100 SWAP8 DUP4 AND ISZERO SWAP8 SWAP1 SWAP8 MUL PUSH1 0x0 NOT ADD SWAP1 SWAP2 AND SWAP6 SWAP1 SWAP6 DIV PUSH1 0x1F DUP2 ADD DUP8 SWAP1 DIV DUP8 MUL DUP7 ADD DUP8 ADD SWAP1 SWAP8 MSTORE DUP7 DUP6 MSTORE SWAP6 SWAP3 SWAP5 SWAP2 SWAP4 PUSH1 0xFF SWAP1 SWAP2 AND SWAP3 SWAP1 SWAP2 DUP7 SWAP2 SWAP1 DUP4 ADD DUP3 DUP3 DUP1 ISZERO PUSH2 0x1E82 JUMPI DUP1 PUSH1 0x1F LT PUSH2 0x1E57 JUMPI PUSH2 0x100 DUP1 DUP4 SLOAD DIV MUL DUP4 MSTORE SWAP2 PUSH1 0x20 ADD SWAP2 PUSH2 0x1E82 JUMP JUMPDEST DUP3 ADD SWAP2 SWAP1 PUSH1 0x0 MSTORE PUSH1 0x20 PUSH1 0x0 KECCAK256 SWAP1 JUMPDEST DUP2 SLOAD DUP2 MSTORE SWAP1 PUSH1 0x1 ADD SWAP1 PUSH1 0x20 ADD DUP1 DUP4 GT PUSH2 0x1E65 JUMPI DUP3 SWAP1 SUB PUSH1 0x1F AND DUP3 ADD SWAP2 JUMPDEST POP POP POP POP POP SWAP4 POP SWAP5 POP SWAP5 POP SWAP5 POP SWAP5 POP POP SWAP2 SWAP4 POP SWAP2 SWAP4 JUMP JUMPDEST PUSH1 0x0 DUP1 PUSH1 0x0 DUP1 DUP5 PUSH1 0x7 DUP2 GT PUSH2 0x1EAD JUMPI PUSH1 0x0 DUP1 REVERT JUMPDEST PUSH1 0x0 DUP2 DUP2 MSTORE PUSH1 0x12 PUSH1 0x20 MSTORE PUSH1 0x40 SWAP1 KECCAK256 SLOAD PUSH1 0xFF AND PUSH2 0x1EC8 JUMPI PUSH1 0x0 DUP1 REVERT JUMPDEST POP POP POP PUSH1 0x0 SWAP3 DUP4 MSTORE POP POP PUSH1 0x12 PUSH1 0x20 MSTORE PUSH1 0x40 SWAP1 KECCAK256 PUSH1 0x8 ADD SLOAD PUSH1 0xFF PUSH1 0x1 PUSH1 0x48 SHL DUP3 DIV DUP2 AND SWAP3 PUSH1 0x1 PUSH1 0x50 SHL DUP4 DIV DUP3 AND SWAP3 PUSH1 0x1 PUSH1 0x58 SHL DUP2 DIV DUP4 AND SWAP3 PUSH1 0x1 PUSH1 0x60 SHL SWAP1 SWAP2 DIV AND SWAP1 JUMP JUMPDEST PUSH1 0x0 DUP4 PUSH1 0x0 DUP2 GT DUP1 ISZERO PUSH2 0x1F1F JUMPI POP PUSH1 0x7 DUP2 GT ISZERO JUMPDEST PUSH2 0x1F28 JUMPI PUSH1 0x0 DUP1 REVERT JUMPDEST PUSH1 0x1 DUP1 PUSH1 0x6 SLOAD PUSH1 0xFF AND PUSH1 0x1 DUP2 GT ISZERO PUSH2 0x1F3C JUMPI INVALID JUMPDEST EQ PUSH2 0x1F46 JUMPI PUSH1 0x0 DUP1 REVERT JUMPDEST PUSH1 0x0 DUP7 DUP2 MSTORE PUSH1 0xF PUSH1 0x20 MSTORE PUSH1 0x40 SWAP1 KECCAK256 SLOAD PUSH1 0xFF AND PUSH2 0x1F61 JUMPI PUSH1 0x0 DUP1 REVERT JUMPDEST PUSH2 0x1F6A DUP7 PUSH2 0x3B46 JUMP JUMPDEST PUSH2 0x1F73 JUMPI PUSH1 0x0 DUP1 REVERT JUMPDEST PUSH1 0x0 PUSH2 0x1F81 PUSH1 0x15 SLOAD DUP9 PUSH2 0x33E9 JUMP JUMPDEST SWAP1 POP DUP1 CALLVALUE LT ISZERO PUSH2 0x1F90 JUMPI PUSH1 0x0 DUP1 REVERT JUMPDEST PUSH1 0x0 PUSH1 0x7 PUSH2 0x1FAA PUSH1 0x1 PUSH1 0x10 SLOAD PUSH2 0x3478 SWAP1 SWAP2 SWAP1 PUSH4 0xFFFFFFFF AND JUMP JUMPDEST ADD PUSH1 0x0 DUP2 DUP2 MSTORE PUSH1 0x11 PUSH1 0x20 MSTORE PUSH1 0x40 SWAP1 KECCAK256 SLOAD SWAP1 SWAP2 POP PUSH1 0x1 PUSH1 0x1 PUSH1 0xA0 SHL SUB AND ISZERO PUSH2 0x1FCD JUMPI INVALID JUMPDEST PUSH1 0x0 DUP2 DUP2 MSTORE PUSH1 0x12 PUSH1 0x20 MSTORE PUSH1 0x40 SWAP1 KECCAK256 SLOAD PUSH1 0xFF AND ISZERO PUSH2 0x1FE6 JUMPI INVALID JUMPDEST PUSH2 0x1FEE PUSH2 0x5206 JUMP JUMPDEST PUSH1 0x1 DUP2 MSTORE PUSH1 0x40 DUP1 MLOAD PUSH1 0x20 PUSH1 0x1F DUP11 ADD DUP2 SWAP1 DIV DUP2 MUL DUP3 ADD DUP2 ADD SWAP1 SWAP3 MSTORE DUP9 DUP2 MSTORE SWAP1 DUP10 SWAP1 DUP10 SWAP1 DUP2 SWAP1 DUP5 ADD DUP4 DUP3 DUP1 DUP3 DUP5 CALLDATACOPY PUSH1 0x0 DUP2 DUP5 ADD MSTORE PUSH1 0x1F NOT PUSH1 0x1F DUP3 ADD AND SWAP1 POP DUP1 DUP4 ADD SWAP3 POP POP POP POP POP POP POP DUP2 PUSH1 0x20 ADD DUP2 SWAP1 MSTORE POP PUSH1 0x15 SLOAD DUP2 PUSH1 0x80 ADD DUP2 DUP2 MSTORE POP POP DUP9 DUP2 PUSH1 0xA0 ADD DUP2 DUP2 MSTORE POP POP PUSH1 0xF PUSH1 0x0 DUP11 DUP2 MSTORE PUSH1 0x20 ADD SWAP1 DUP2 MSTORE PUSH1 0x20 ADD PUSH1 0x0 KECCAK256 PUSH1 0x1 ADD SLOAD DUP2 PUSH1 0xC0 ADD DUP2 DUP2 MSTORE POP POP PUSH1 0xF PUSH1 0x0 DUP11 DUP2 MSTORE PUSH1 0x20 ADD SWAP1 DUP2 MSTORE PUSH1 0x20 ADD PUSH1 0x0 KECCAK256 PUSH1 0x2 ADD SLOAD DUP2 PUSH1 0xE0 ADD DUP2 DUP2 MSTORE POP POP PUSH1 0xF PUSH1 0x0 DUP11 DUP2 MSTORE PUSH1 0x20 ADD SWAP1 DUP2 MSTORE PUSH1 0x20 ADD PUSH1 0x0 KECCAK256 PUSH1 0x3 ADD DUP1 SLOAD PUSH1 0x1 DUP2 PUSH1 0x1 AND ISZERO PUSH2 0x100 MUL SUB AND PUSH1 0x2 SWAP1 DIV DUP1 PUSH1 0x1F ADD PUSH1 0x20 DUP1 SWAP2 DIV MUL PUSH1 0x20 ADD PUSH1 0x40 MLOAD SWAP1 DUP2 ADD PUSH1 0x40 MSTORE DUP1 SWAP3 SWAP2 SWAP1 DUP2 DUP2 MSTORE PUSH1 0x20 ADD DUP3 DUP1 SLOAD PUSH1 0x1 DUP2 PUSH1 0x1 AND ISZERO PUSH2 0x100 MUL SUB AND PUSH1 0x2 SWAP1 DIV DUP1 ISZERO PUSH2 0x213D JUMPI DUP1 PUSH1 0x1F LT PUSH2 0x2112 JUMPI PUSH2 0x100 DUP1 DUP4 SLOAD DIV MUL DUP4 MSTORE SWAP2 PUSH1 0x20 ADD SWAP2 PUSH2 0x213D JUMP JUMPDEST DUP3 ADD SWAP2 SWAP1 PUSH1 0x0 MSTORE PUSH1 0x20 PUSH1 0x0 KECCAK256 SWAP1 JUMPDEST DUP2 SLOAD DUP2 MSTORE SWAP1 PUSH1 0x1 ADD SWAP1 PUSH1 0x20 ADD DUP1 DUP4 GT PUSH2 0x2120 JUMPI DUP3 SWAP1 SUB PUSH1 0x1F AND DUP3 ADD SWAP2 JUMPDEST POP POP POP POP POP PUSH1 0x40 DUP3 DUP2 ADD SWAP2 SWAP1 SWAP2 MSTORE PUSH1 0x0 DUP4 DUP2 MSTORE PUSH1 0x12 PUSH1 0x20 SWAP1 DUP2 MSTORE SWAP2 SWAP1 KECCAK256 DUP3 MLOAD DUP2 SLOAD PUSH1 0xFF NOT AND SWAP1 ISZERO ISZERO OR DUP2 SSTORE DUP2 DUP4 ADD MLOAD DUP1 MLOAD DUP5 SWAP4 PUSH2 0x2181 SWAP3 PUSH1 0x1 DUP6 ADD SWAP3 SWAP2 ADD SWAP1 PUSH2 0x5188 JUMP JUMPDEST POP PUSH1 0x40 DUP3 ADD MLOAD DUP1 MLOAD PUSH2 0x219D SWAP2 PUSH1 0x2 DUP5 ADD SWAP2 PUSH1 0x20 SWAP1 SWAP2 ADD SWAP1 PUSH2 0x5188 JUMP JUMPDEST POP PUSH1 0x60 DUP3 ADD MLOAD DUP2 PUSH1 0x3 ADD SSTORE PUSH1 0x80 DUP3 ADD MLOAD DUP2 PUSH1 0x4 ADD SSTORE PUSH1 0xA0 DUP3 ADD MLOAD DUP2 PUSH1 0x5 ADD SSTORE PUSH1 0xC0 DUP3 ADD MLOAD DUP2 PUSH1 0x6 ADD SSTORE PUSH1 0xE0 DUP3 ADD MLOAD DUP2 PUSH1 0x7 ADD SSTORE PUSH2 0x100 DUP3 ADD MLOAD DUP2 PUSH1 0x8 ADD PUSH1 0x0 PUSH2 0x100 EXP DUP2 SLOAD DUP2 PUSH1 0xFF MUL NOT AND SWAP1 DUP4 PUSH1 0xFF AND MUL OR SWAP1 SSTORE POP PUSH2 0x120 DUP3 ADD MLOAD DUP2 PUSH1 0x8 ADD PUSH1 0x1 PUSH2 0x100 EXP DUP2 SLOAD DUP2 PUSH1 0xFF MUL NOT AND SWAP1 DUP4 PUSH1 0xFF AND MUL OR SWAP1 SSTORE POP PUSH2 0x140 DUP3 ADD MLOAD DUP2 PUSH1 0x8 ADD PUSH1 0x2 PUSH2 0x100 EXP DUP2 SLOAD DUP2 PUSH1 0xFF MUL NOT AND SWAP1 DUP4 PUSH1 0xFF AND MUL OR SWAP1 SSTORE POP PUSH2 0x160 DUP3 ADD MLOAD DUP2 PUSH1 0x8 ADD PUSH1 0x3 PUSH2 0x100 EXP DUP2 SLOAD DUP2 PUSH1 0xFF MUL NOT AND SWAP1 DUP4 PUSH1 0xFF AND MUL OR SWAP1 SSTORE POP PUSH2 0x180 DUP3 ADD MLOAD DUP2 PUSH1 0x8 ADD PUSH1 0x4 PUSH2 0x100 EXP DUP2 SLOAD DUP2 PUSH1 0xFF MUL NOT AND SWAP1 DUP4 PUSH1 0xFF AND MUL OR SWAP1 SSTORE POP PUSH2 0x1A0 DUP3 ADD MLOAD DUP2 PUSH1 0x8 ADD PUSH1 0x5 PUSH2 0x100 EXP DUP2 SLOAD DUP2 PUSH1 0xFF MUL NOT AND SWAP1 DUP4 PUSH1 0xFF AND MUL OR SWAP1 SSTORE POP PUSH2 0x1C0 DUP3 ADD MLOAD DUP2 PUSH1 0x8 ADD PUSH1 0x6 PUSH2 0x100 EXP DUP2 SLOAD DUP2 PUSH1 0xFF MUL NOT AND SWAP1 DUP4 PUSH1 0xFF AND MUL OR SWAP1 SSTORE POP PUSH2 0x1E0 DUP3 ADD MLOAD DUP2 PUSH1 0x8 ADD PUSH1 0x7 PUSH2 0x100 EXP DUP2 SLOAD DUP2 PUSH1 0xFF MUL NOT AND SWAP1 DUP4 PUSH1 0xFF AND MUL OR SWAP1 SSTORE POP PUSH2 0x200 DUP3 ADD MLOAD DUP2 PUSH1 0x8 ADD PUSH1 0x8 PUSH2 0x100 EXP DUP2 SLOAD DUP2 PUSH1 0xFF MUL NOT AND SWAP1 DUP4 PUSH1 0xFF AND MUL OR SWAP1 SSTORE POP PUSH2 0x220 DUP3 ADD MLOAD DUP2 PUSH1 0x8 ADD PUSH1 0x9 PUSH2 0x100 EXP DUP2 SLOAD DUP2 PUSH1 0xFF MUL NOT AND SWAP1 DUP4 PUSH1 0xFF AND MUL OR SWAP1 SSTORE POP PUSH2 0x240 DUP3 ADD MLOAD DUP2 PUSH1 0x8 ADD PUSH1 0xA PUSH2 0x100 EXP DUP2 SLOAD DUP2 PUSH1 0xFF MUL NOT AND SWAP1 DUP4 PUSH1 0xFF AND MUL OR SWAP1 SSTORE POP PUSH2 0x260 DUP3 ADD MLOAD DUP2 PUSH1 0x8 ADD PUSH1 0xB PUSH2 0x100 EXP DUP2 SLOAD DUP2 PUSH1 0xFF MUL NOT AND SWAP1 DUP4 PUSH1 0xFF AND MUL OR SWAP1 SSTORE POP PUSH2 0x280 DUP3 ADD MLOAD DUP2 PUSH1 0x8 ADD PUSH1 0xC PUSH2 0x100 EXP DUP2 SLOAD DUP2 PUSH1 0xFF MUL NOT AND SWAP1 DUP4 PUSH1 0xFF AND MUL OR SWAP1 SSTORE POP PUSH2 0x2A0 DUP3 ADD MLOAD DUP2 PUSH1 0x8 ADD PUSH1 0xD PUSH2 0x100 EXP DUP2 SLOAD DUP2 PUSH1 0xFF MUL NOT AND SWAP1 DUP4 PUSH1 0xFF AND MUL OR SWAP1 SSTORE POP PUSH2 0x2C0 DUP3 ADD MLOAD DUP2 PUSH1 0x8 ADD PUSH1 0xE PUSH2 0x100 EXP DUP2 SLOAD DUP2 PUSH1 0xFF MUL NOT AND SWAP1 DUP4 PUSH1 0xFF AND MUL OR SWAP1 SSTORE POP PUSH2 0x2E0 DUP3 ADD MLOAD DUP2 PUSH1 0x8 ADD PUSH1 0xF PUSH2 0x100 EXP DUP2 SLOAD DUP2 PUSH1 0xFF MUL NOT AND SWAP1 DUP4 PUSH1 0xFF AND MUL OR SWAP1 SSTORE POP PUSH2 0x300 DUP3 ADD MLOAD DUP2 PUSH1 0x8 ADD PUSH1 0x10 PUSH2 0x100 EXP DUP2 SLOAD DUP2 PUSH1 0xFF MUL NOT AND SWAP1 DUP4 PUSH1 0xFF AND MUL OR SWAP1 SSTORE POP PUSH2 0x320 DUP3 ADD MLOAD DUP2 PUSH1 0x8 ADD PUSH1 0x11 PUSH2 0x100 EXP DUP2 SLOAD DUP2 PUSH1 0xFF MUL NOT AND SWAP1 DUP4 PUSH1 0xFF AND MUL OR SWAP1 SSTORE POP PUSH2 0x340 DUP3 ADD MLOAD DUP2 PUSH1 0x8 ADD PUSH1 0x12 PUSH2 0x100 EXP DUP2 SLOAD DUP2 PUSH1 0xFF MUL NOT AND SWAP1 DUP4 PUSH1 0xFF AND MUL OR SWAP1 SSTORE POP SWAP1 POP POP PUSH1 0x0 PUSH2 0x2464 DUP4 PUSH2 0x3C1B JUMP JUMPDEST PUSH1 0x0 DUP2 DUP2 MSTORE PUSH1 0x1A PUSH1 0x20 MSTORE PUSH1 0x40 SWAP1 KECCAK256 DUP5 SWAP1 SSTORE SWAP1 POP PUSH2 0x2482 PUSH2 0x160B PUSH2 0x34D2 JUMP JUMPDEST PUSH2 0x24AE PUSH2 0x248D PUSH2 0x34D2 JUMP JUMPDEST PUSH1 0x0 PUSH9 0x1B1AE4D6E2EF500000 PUSH1 0x40 MLOAD DUP1 PUSH1 0x20 ADD PUSH1 0x40 MSTORE DUP1 PUSH1 0x0 DUP2 MSTORE POP PUSH2 0x34D6 JUMP JUMPDEST PUSH2 0x24B6 PUSH2 0x34D2 JUMP JUMPDEST PUSH1 0x0 DUP5 DUP2 MSTORE PUSH1 0x11 PUSH1 0x20 MSTORE PUSH1 0x40 SWAP1 KECCAK256 DUP1 SLOAD PUSH1 0x1 PUSH1 0x1 PUSH1 0xA0 SHL SUB NOT AND PUSH1 0x1 PUSH1 0x1 PUSH1 0xA0 SHL SUB SWAP3 SWAP1 SWAP3 AND SWAP2 SWAP1 SWAP2 OR SWAP1 SSTORE PUSH1 0x10 SLOAD PUSH2 0x24F0 SWAP1 PUSH1 0x1 PUSH2 0x3478 JUMP JUMPDEST PUSH1 0x10 SSTORE PUSH1 0x15 SLOAD PUSH1 0x0 SWAP1 DUP2 MSTORE PUSH1 0x13 PUSH1 0x20 SWAP1 DUP2 MSTORE PUSH1 0x40 DUP1 DUP4 KECCAK256 DUP14 DUP5 MSTORE SWAP1 SWAP2 MSTORE SWAP1 KECCAK256 SLOAD PUSH2 0x251B SWAP1 PUSH1 0x1 PUSH2 0x3478 JUMP JUMPDEST PUSH1 0x15 SLOAD PUSH1 0x0 SWAP1 DUP2 MSTORE PUSH1 0x13 PUSH1 0x20 SWAP1 DUP2 MSTORE PUSH1 0x40 DUP1 DUP4 KECCAK256 DUP15 DUP5 MSTORE SWAP1 SWAP2 MSTORE DUP2 KECCAK256 SWAP2 SWAP1 SWAP2 SSTORE PUSH2 0x2551 PUSH1 0x64 PUSH2 0x254B DUP8 PUSH1 0x19 PUSH2 0x3CD3 JUMP JUMPDEST SWAP1 PUSH2 0x3D2C JUMP JUMPDEST PUSH1 0x0 DUP13 DUP2 MSTORE PUSH1 0xE PUSH1 0x20 MSTORE PUSH1 0x40 DUP1 DUP3 KECCAK256 SLOAD SWAP1 MLOAD SWAP3 SWAP4 POP PUSH1 0x1 PUSH1 0x1 PUSH1 0xA0 SHL SUB AND SWAP2 DUP3 SWAP1 DUP5 SWAP1 DUP4 DUP2 DUP2 DUP2 DUP6 DUP8 GAS CALL SWAP3 POP POP POP RETURNDATASIZE DUP1 PUSH1 0x0 DUP2 EQ PUSH2 0x25AC JUMPI PUSH1 0x40 MLOAD SWAP2 POP PUSH1 0x1F NOT PUSH1 0x3F RETURNDATASIZE ADD AND DUP3 ADD PUSH1 0x40 MSTORE RETURNDATASIZE DUP3 MSTORE RETURNDATASIZE PUSH1 0x0 PUSH1 0x20 DUP5 ADD RETURNDATACOPY PUSH2 0x25B1 JUMP JUMPDEST PUSH1 0x60 SWAP2 POP JUMPDEST POP POP SWAP1 POP DUP1 PUSH2 0x25F8 JUMPI PUSH1 0x40 DUP1 MLOAD PUSH3 0x461BCD PUSH1 0xE5 SHL DUP2 MSTORE PUSH1 0x20 PUSH1 0x4 DUP3 ADD MSTORE PUSH1 0xE PUSH1 0x24 DUP3 ADD MSTORE PUSH14 0x14185E5B595B9D0819985A5B1959 PUSH1 0x92 SHL PUSH1 0x44 DUP3 ADD MSTORE SWAP1 MLOAD SWAP1 DUP2 SWAP1 SUB PUSH1 0x64 ADD SWAP1 REVERT JUMPDEST PUSH1 0x0 PUSH2 0x260A PUSH1 0x64 PUSH2 0x254B DUP11 PUSH1 0x19 PUSH2 0x3CD3 JUMP JUMPDEST PUSH1 0xB SLOAD SWAP1 SWAP2 POP PUSH2 0x261A SWAP1 DUP3 PUSH2 0x3478 JUMP JUMPDEST PUSH1 0xB SSTORE PUSH2 0x263D PUSH2 0x2634 DUP3 PUSH2 0x262E DUP12 DUP9 PUSH2 0x3D93 JUMP JUMPDEST SWAP1 PUSH2 0x3D93 JUMP JUMPDEST PUSH1 0xA SLOAD SWAP1 PUSH2 0x3478 JUMP JUMPDEST PUSH1 0xA SSTORE PUSH2 0x2649 DUP9 PUSH2 0x35DE JUMP JUMPDEST PUSH32 0xF34A510082F5A02E39555458564800FC1FE73BFD8D3AA07CBF063FE662E7657E DUP8 PUSH2 0x2673 PUSH2 0x34D2 JUMP JUMPDEST PUSH1 0x40 DUP1 MLOAD SWAP3 DUP4 MSTORE PUSH1 0x1 PUSH1 0x1 PUSH1 0xA0 SHL SUB SWAP1 SWAP2 AND PUSH1 0x20 DUP4 ADD MSTORE DUP1 MLOAD SWAP2 DUP3 SWAP1 SUB ADD SWAP1 LOG1 POP SWAP5 SWAP13 SWAP12 POP POP POP POP POP POP POP POP POP POP POP POP JUMP JUMPDEST PUSH1 0x0 DUP1 PUSH1 0x0 DUP1 DUP5 PUSH1 0x7 DUP2 GT PUSH2 0x26B9 JUMPI PUSH1 0x0 DUP1 REVERT JUMPDEST PUSH1 0x0 DUP2 DUP2 MSTORE PUSH1 0x12 PUSH1 0x20 MSTORE PUSH1 0x40 SWAP1 KECCAK256 SLOAD PUSH1 0xFF AND PUSH2 0x26D4 JUMPI PUSH1 0x0 DUP1 REVERT JUMPDEST POP POP POP PUSH1 0x0 SWAP3 DUP4 MSTORE POP POP PUSH1 0x12 PUSH1 0x20 MSTORE PUSH1 0x40 SWAP1 KECCAK256 PUSH1 0x8 ADD SLOAD PUSH1 0xFF PUSH6 0x10000000000 DUP3 DIV DUP2 AND SWAP3 PUSH7 0x1000000000000 DUP4 DIV DUP3 AND SWAP3 PUSH1 0x1 PUSH1 0x38 SHL DUP2 DIV DUP4 AND SWAP3 PUSH1 0x1 PUSH1 0x40 SHL SWAP1 SWAP2 DIV AND SWAP1 JUMP JUMPDEST PUSH1 0xD SLOAD JUMPDEST SWAP1 JUMP JUMPDEST PUSH1 0x60 DUP2 MLOAD DUP4 MLOAD EQ PUSH2 0x2765 JUMPI PUSH1 0x40 MLOAD PUSH3 0x461BCD PUSH1 0xE5 SHL DUP2 MSTORE PUSH1 0x4 ADD DUP1 DUP1 PUSH1 0x20 ADD DUP3 DUP2 SUB DUP3 MSTORE PUSH1 0x29 DUP2 MSTORE PUSH1 0x20 ADD DUP1 PUSH2 0x5655 PUSH1 0x29 SWAP2 CODECOPY PUSH1 0x40 ADD SWAP2 POP POP PUSH1 0x40 MLOAD DUP1 SWAP2 SUB SWAP1 REVERT JUMPDEST PUSH1 0x60 DUP4 MLOAD PUSH8 0xFFFFFFFFFFFFFFFF DUP2 GT DUP1 ISZERO PUSH2 0x277F JUMPI PUSH1 0x0 DUP1 REVERT JUMPDEST POP PUSH1 0x40 MLOAD SWAP1 DUP1 DUP3 MSTORE DUP1 PUSH1 0x20 MUL PUSH1 0x20 ADD DUP3 ADD PUSH1 0x40 MSTORE DUP1 ISZERO PUSH2 0x27A9 JUMPI DUP2 PUSH1 0x20 ADD PUSH1 0x20 DUP3 MUL DUP1 CALLDATASIZE DUP4 CALLDATACOPY ADD SWAP1 POP JUMPDEST POP SWAP1 POP PUSH1 0x0 JUMPDEST DUP5 MLOAD DUP2 LT ISZERO PUSH2 0x2807 JUMPI PUSH2 0x27E8 DUP6 DUP3 DUP2 MLOAD DUP2 LT PUSH2 0x27C7 JUMPI INVALID JUMPDEST PUSH1 0x20 MUL PUSH1 0x20 ADD ADD MLOAD DUP6 DUP4 DUP2 MLOAD DUP2 LT PUSH2 0x27DB JUMPI INVALID JUMPDEST PUSH1 0x20 MUL PUSH1 0x20 ADD ADD MLOAD PUSH2 0x1302 JUMP JUMPDEST DUP3 DUP3 DUP2 MLOAD DUP2 LT PUSH2 0x27F4 JUMPI INVALID JUMPDEST PUSH1 0x20 SWAP1 DUP2 MUL SWAP2 SWAP1 SWAP2 ADD ADD MSTORE PUSH1 0x1 ADD PUSH2 0x27AF JUMP JUMPDEST POP SWAP4 SWAP3 POP POP POP JUMP JUMPDEST PUSH1 0x0 DUP2 PUSH1 0x7 DUP2 GT PUSH2 0x281F JUMPI PUSH1 0x0 DUP1 REVERT JUMPDEST PUSH1 0x0 DUP2 DUP2 MSTORE PUSH1 0x12 PUSH1 0x20 MSTORE PUSH1 0x40 SWAP1 KECCAK256 SLOAD PUSH1 0xFF AND PUSH2 0x283A JUMPI PUSH1 0x0 DUP1 REVERT JUMPDEST PUSH1 0x0 DUP4 DUP2 MSTORE PUSH1 0x11 PUSH1 0x20 MSTORE PUSH1 0x40 SWAP1 KECCAK256 SLOAD PUSH1 0x1 PUSH1 0x1 PUSH1 0xA0 SHL SUB AND PUSH2 0x285B JUMPI PUSH1 0x0 DUP1 REVERT JUMPDEST POP POP PUSH1 0x0 SWAP1 DUP2 MSTORE PUSH1 0x11 PUSH1 0x20 MSTORE PUSH1 0x40 SWAP1 KECCAK256 SLOAD PUSH1 0x1 PUSH1 0x1 PUSH1 0xA0 SHL SUB AND SWAP1 JUMP JUMPDEST PUSH1 0x0 DUP2 PUSH1 0x0 DUP2 GT DUP1 ISZERO PUSH2 0x288C JUMPI POP PUSH1 0x7 DUP2 GT ISZERO JUMPDEST PUSH2 0x2895 JUMPI PUSH1 0x0 DUP1 REVERT JUMPDEST PUSH1 0x15 SLOAD DUP5 GT ISZERO PUSH2 0x28A4 JUMPI PUSH1 0x0 DUP1 REVERT JUMPDEST POP POP PUSH1 0x0 SWAP2 DUP3 MSTORE PUSH1 0x13 PUSH1 0x20 SWAP1 DUP2 MSTORE PUSH1 0x40 DUP1 DUP5 KECCAK256 SWAP3 DUP5 MSTORE SWAP2 SWAP1 MSTORE SWAP1 KECCAK256 SLOAD SWAP1 JUMP JUMPDEST PUSH1 0x1C PUSH1 0x20 SWAP1 DUP2 MSTORE PUSH1 0x0 SWAP2 DUP3 MSTORE PUSH1 0x40 SWAP2 DUP3 SWAP1 KECCAK256 DUP1 SLOAD DUP4 MLOAD PUSH1 0x1F PUSH1 0x2 PUSH1 0x0 NOT PUSH2 0x100 PUSH1 0x1 DUP7 AND ISZERO MUL ADD SWAP1 SWAP4 AND SWAP3 SWAP1 SWAP3 DIV SWAP2 DUP3 ADD DUP5 SWAP1 DIV DUP5 MUL DUP2 ADD DUP5 ADD SWAP1 SWAP5 MSTORE DUP1 DUP5 MSTORE SWAP1 SWAP2 DUP4 ADD DUP3 DUP3 DUP1 ISZERO PUSH2 0x2956 JUMPI DUP1 PUSH1 0x1F LT PUSH2 0x292B JUMPI PUSH2 0x100 DUP1 DUP4 SLOAD DIV MUL DUP4 MSTORE SWAP2 PUSH1 0x20 ADD SWAP2 PUSH2 0x2956 JUMP JUMPDEST DUP3 ADD SWAP2 SWAP1 PUSH1 0x0 MSTORE PUSH1 0x20 PUSH1 0x0 KECCAK256 SWAP1 JUMPDEST DUP2 SLOAD DUP2 MSTORE SWAP1 PUSH1 0x1 ADD SWAP1 PUSH1 0x20 ADD DUP1 DUP4 GT PUSH2 0x2939 JUMPI DUP3 SWAP1 SUB PUSH1 0x1F AND DUP3 ADD SWAP2 JUMPDEST POP POP POP POP POP DUP2 JUMP JUMPDEST PUSH1 0x0 DUP2 PUSH1 0x0 DUP2 GT DUP1 ISZERO PUSH2 0x2972 JUMPI POP PUSH1 0x7 DUP2 GT ISZERO JUMPDEST PUSH2 0x297B JUMPI PUSH1 0x0 DUP1 REVERT JUMPDEST PUSH1 0x0 DUP4 DUP2 MSTORE PUSH1 0xE PUSH1 0x20 MSTORE PUSH1 0x40 SWAP1 KECCAK256 SLOAD PUSH1 0x1 PUSH1 0x1 PUSH1 0xA0 SHL SUB AND PUSH2 0x299C JUMPI PUSH1 0x0 DUP1 REVERT JUMPDEST POP POP PUSH1 0x0 SWAP1 DUP2 MSTORE PUSH1 0xE PUSH1 0x20 MSTORE PUSH1 0x40 SWAP1 KECCAK256 SLOAD PUSH1 0x1 PUSH1 0x1 PUSH1 0xA0 SHL SUB AND SWAP1 JUMP JUMPDEST PUSH1 0x14 SLOAD DUP2 JUMP JUMPDEST PUSH1 0x0 DUP1 PUSH1 0x0 DUP1 PUSH1 0x0 DUP1 DUP7 PUSH1 0x7 DUP2 GT PUSH2 0x29D6 JUMPI PUSH1 0x0 DUP1 REVERT JUMPDEST PUSH1 0x0 DUP2 DUP2 MSTORE PUSH1 0x12 PUSH1 0x20 MSTORE PUSH1 0x40 SWAP1 KECCAK256 SLOAD PUSH1 0xFF AND PUSH2 0x29F1 JUMPI PUSH1 0x0 DUP1 REVERT JUMPDEST POP POP POP PUSH1 0x0 SWAP5 DUP6 MSTORE POP POP PUSH1 0x12 PUSH1 0x20 MSTORE POP POP PUSH1 0x40 SWAP1 KECCAK256 PUSH1 0x8 ADD SLOAD PUSH1 0xFF PUSH1 0x1 PUSH1 0x68 SHL DUP3 DIV DUP2 AND SWAP3 PUSH1 0x1 PUSH1 0x70 SHL DUP4 DIV DUP3 AND SWAP3 PUSH1 0x1 PUSH1 0x78 SHL DUP2 DIV DUP4 AND SWAP3 PUSH1 0x1 PUSH1 0x80 SHL DUP3 DIV DUP2 AND SWAP3 PUSH1 0x1 PUSH1 0x88 SHL DUP4 DIV DUP3 AND SWAP3 PUSH1 0x1 PUSH1 0x90 SHL SWAP1 DIV SWAP1 SWAP2 AND SWAP1 JUMP JUMPDEST PUSH1 0x0 DUP1 PUSH1 0x0 DUP1 DUP5 PUSH1 0x7 DUP2 GT PUSH2 0x2A5F JUMPI PUSH1 0x0 DUP1 REVERT JUMPDEST PUSH1 0x0 DUP2 DUP2 MSTORE PUSH1 0x12 PUSH1 0x20 MSTORE PUSH1 0x40 SWAP1 KECCAK256 SLOAD PUSH1 0xFF AND PUSH2 0x2A7A JUMPI PUSH1 0x0 DUP1 REVERT JUMPDEST POP POP POP PUSH1 0x0 SWAP3 DUP4 MSTORE POP POP PUSH1 0x12 PUSH1 0x20 MSTORE PUSH1 0x40 SWAP1 KECCAK256 PUSH1 0x8 ADD SLOAD PUSH1 0xFF PUSH2 0x100 DUP3 DIV DUP2 AND SWAP3 PUSH3 0x10000 DUP4 DIV DUP3 AND SWAP3 PUSH4 0x1000000 DUP2 DIV DUP4 AND SWAP3 PUSH1 0x1 PUSH1 0x20 SHL SWAP1 SWAP2 DIV AND SWAP1 JUMP JUMPDEST PUSH1 0x15 SLOAD DUP2 JUMP JUMPDEST PUSH1 0x0 DUP3 DUP2 MSTORE PUSH1 0x20 DUP2 SWAP1 MSTORE PUSH1 0x40 DUP2 KECCAK256 PUSH2 0x2AD8 SWAP1 DUP4 PUSH2 0x3DF0 JUMP JUMPDEST SWAP4 SWAP3 POP POP POP JUMP JUMPDEST PUSH1 0x7 DUP2 JUMP JUMPDEST PUSH1 0x0 DUP3 DUP2 MSTORE PUSH1 0x20 DUP2 SWAP1 MSTORE PUSH1 0x40 DUP2 KECCAK256 PUSH2 0x2AD8 SWAP1 DUP4 PUSH2 0x3463 JUMP JUMPDEST CALLER PUSH1 0x1 PUSH1 0x1 PUSH1 0xA0 SHL SUB PUSH32 0x0 AND EQ PUSH2 0x2B79 JUMPI PUSH1 0x40 DUP1 MLOAD PUSH3 0x461BCD PUSH1 0xE5 SHL DUP2 MSTORE PUSH1 0x20 PUSH1 0x4 DUP3 ADD MSTORE PUSH1 0x1F PUSH1 0x24 DUP3 ADD MSTORE PUSH32 0x4F6E6C7920565246436F6F7264696E61746F722063616E2066756C66696C6C00 PUSH1 0x44 DUP3 ADD MSTORE SWAP1 MLOAD SWAP1 DUP2 SWAP1 SUB PUSH1 0x64 ADD SWAP1 REVERT JUMPDEST PUSH2 0x1D31 DUP3 DUP3 PUSH2 0x3DFC JUMP JUMPDEST PUSH2 0x2BAC PUSH32 0x2172861495E7B85EDAC73E3CD5FBB42DD675BAADF627720E687BCFDACA025096 PUSH2 0x3E16 JUMP JUMPDEST DUP1 PUSH1 0x16 DUP5 DUP5 PUSH1 0x40 MLOAD DUP1 DUP4 DUP4 DUP1 DUP3 DUP5 CALLDATACOPY SWAP2 SWAP1 SWAP2 ADD SWAP5 DUP6 MSTORE POP POP PUSH1 0x40 MLOAD SWAP3 DUP4 SWAP1 SUB PUSH1 0x20 ADD SWAP1 SWAP3 KECCAK256 DUP1 SLOAD PUSH1 0x1 PUSH1 0x1 PUSH1 0xA0 SHL SUB SWAP5 SWAP1 SWAP5 AND PUSH1 0x1 PUSH1 0x1 PUSH1 0xA0 SHL SUB NOT SWAP1 SWAP5 AND SWAP4 SWAP1 SWAP4 OR SWAP1 SWAP3 SSTORE POP POP PUSH1 0x17 DUP1 SLOAD PUSH1 0x1 DUP2 ADD DUP3 SSTORE PUSH1 0x0 SWAP2 SWAP1 SWAP2 MSTORE PUSH2 0x2C31 SWAP1 PUSH32 0xC624B66CC0138B8FABC209247F72D758E1CF3343756D543BADBF24212BED8C15 ADD DUP5 DUP5 PUSH2 0x52E3 JUMP JUMPDEST POP POP POP POP JUMP JUMPDEST PUSH1 0x1 DUP1 PUSH1 0x6 SLOAD PUSH1 0xFF AND PUSH1 0x1 DUP2 GT ISZERO PUSH2 0x2C4B JUMPI INVALID JUMPDEST EQ PUSH2 0x2C55 JUMPI PUSH1 0x0 DUP1 REVERT JUMPDEST PUSH2 0x2C7E PUSH32 0xAE0C232B87105E0A8134F8B92146DCD1D99373D32394BE9D70F700F90B3A3DB3 PUSH2 0x3E16 JUMP JUMPDEST PUSH1 0x15 SLOAD PUSH1 0x0 SWAP1 DUP2 MSTORE PUSH1 0x1C PUSH1 0x20 MSTORE PUSH1 0x40 SWAP1 KECCAK256 PUSH2 0x2C31 SWAP1 DUP5 DUP5 PUSH2 0x52E3 JUMP JUMPDEST PUSH1 0x0 DUP1 PUSH1 0x6 SLOAD PUSH1 0xFF AND PUSH1 0x1 DUP2 GT ISZERO PUSH2 0x2CAE JUMPI INVALID JUMPDEST EQ DUP1 ISZERO PUSH2 0x2CC1 JUMPI POP PUSH1 0x7 SLOAD PUSH1 0x9 SLOAD ADD TIMESTAMP LT ISZERO JUMPDEST ISZERO PUSH2 0x2CD3 JUMPI PUSH2 0x2CCE PUSH2 0x3E29 JUMP JUMPDEST PUSH2 0x2D06 JUMP JUMPDEST PUSH1 0x1 PUSH1 0x6 SLOAD PUSH1 0xFF AND PUSH1 0x1 DUP2 GT ISZERO PUSH2 0x2CE6 JUMPI INVALID JUMPDEST EQ DUP1 ISZERO PUSH2 0x2CF9 JUMPI POP PUSH1 0x8 SLOAD PUSH1 0x9 SLOAD ADD TIMESTAMP LT ISZERO JUMPDEST ISZERO PUSH2 0x2D06 JUMPI PUSH2 0x2D06 PUSH2 0x3E29 JUMP JUMPDEST POP JUMP JUMPDEST PUSH1 0x0 DUP2 JUMP JUMPDEST DUP2 PUSH1 0x1 PUSH1 0x1 PUSH1 0xA0 SHL SUB AND PUSH2 0x2D20 PUSH2 0x34D2 JUMP JUMPDEST PUSH1 0x1 PUSH1 0x1 PUSH1 0xA0 SHL SUB AND EQ ISZERO PUSH2 0x2D66 JUMPI PUSH1 0x40 MLOAD PUSH3 0x461BCD PUSH1 0xE5 SHL DUP2 MSTORE PUSH1 0x4 ADD DUP1 DUP1 PUSH1 0x20 ADD DUP3 DUP2 SUB DUP3 MSTORE PUSH1 0x29 DUP2 MSTORE PUSH1 0x20 ADD DUP1 PUSH2 0x562C PUSH1 0x29 SWAP2 CODECOPY PUSH1 0x40 ADD SWAP2 POP POP PUSH1 0x40 MLOAD DUP1 SWAP2 SUB SWAP1 REVERT JUMPDEST DUP1 PUSH1 0x3 PUSH1 0x0 PUSH2 0x2D73 PUSH2 0x34D2 JUMP JUMPDEST PUSH1 0x1 PUSH1 0x1 PUSH1 0xA0 SHL SUB SWAP1 DUP2 AND DUP3 MSTORE PUSH1 0x20 DUP1 DUP4 ADD SWAP4 SWAP1 SWAP4 MSTORE PUSH1 0x40 SWAP2 DUP3 ADD PUSH1 0x0 SWAP1 DUP2 KECCAK256 SWAP2 DUP8 AND DUP1 DUP3 MSTORE SWAP2 SWAP1 SWAP4 MSTORE SWAP2 KECCAK256 DUP1 SLOAD PUSH1 0xFF NOT AND SWAP3 ISZERO ISZERO SWAP3 SWAP1 SWAP3 OR SWAP1 SWAP2 SSTORE PUSH2 0x2DB7 PUSH2 0x34D2 JUMP JUMPDEST PUSH1 0x1 PUSH1 0x1 PUSH1 0xA0 SHL SUB AND PUSH32 0x17307EAB39AB6107E8899845AD3D59BD9653F200F220920489CA2B5937696C31 DUP4 PUSH1 0x40 MLOAD DUP1 DUP3 ISZERO ISZERO DUP2 MSTORE PUSH1 0x20 ADD SWAP2 POP POP PUSH1 0x40 MLOAD DUP1 SWAP2 SUB SWAP1 LOG3 POP POP JUMP JUMPDEST PUSH1 0x0 DUP1 PUSH1 0x6 SLOAD PUSH1 0xFF AND PUSH1 0x1 DUP2 GT ISZERO PUSH2 0x2E11 JUMPI INVALID JUMPDEST EQ PUSH2 0x2E1B JUMPI PUSH1 0x0 DUP1 REVERT JUMPDEST DUP2 PUSH1 0x7 DUP2 GT PUSH2 0x2E29 JUMPI PUSH1 0x0 DUP1 REVERT JUMPDEST PUSH1 0x0 DUP2 DUP2 MSTORE PUSH1 0x12 PUSH1 0x20 MSTORE PUSH1 0x40 SWAP1 KECCAK256 SLOAD PUSH1 0xFF AND PUSH2 0x2E44 JUMPI PUSH1 0x0 DUP1 REVERT JUMPDEST PUSH1 0x15 SLOAD PUSH1 0x0 DUP5 DUP2 MSTORE PUSH1 0x12 PUSH1 0x20 MSTORE PUSH1 0x40 SWAP1 KECCAK256 PUSH1 0x4 ADD SLOAD EQ PUSH2 0x2E63 JUMPI PUSH1 0x0 DUP1 REVERT JUMPDEST PUSH1 0x1C PUSH1 0x0 PUSH1 0x15 SLOAD DUP2 MSTORE PUSH1 0x20 ADD SWAP1 DUP2 MSTORE PUSH1 0x20 ADD PUSH1 0x0 KECCAK256 PUSH1 0x40 MLOAD DUP1 DUP3 DUP1 SLOAD PUSH1 0x1 DUP2 PUSH1 0x1 AND ISZERO PUSH2 0x100 MUL SUB AND PUSH1 0x2 SWAP1 DIV DUP1 ISZERO PUSH2 0x2ED3 JUMPI DUP1 PUSH1 0x1F LT PUSH2 0x2EB1 JUMPI PUSH2 0x100 DUP1 DUP4 SLOAD DIV MUL DUP4 MSTORE SWAP2 DUP3 ADD SWAP2 PUSH2 0x2ED3 JUMP JUMPDEST DUP3 ADD SWAP2 SWAP1 PUSH1 0x0 MSTORE PUSH1 0x20 PUSH1 0x0 KECCAK256 SWAP1 JUMPDEST DUP2 SLOAD DUP2 MSTORE SWAP1 PUSH1 0x1 ADD SWAP1 PUSH1 0x20 ADD DUP1 DUP4 GT PUSH2 0x2EBF JUMPI JUMPDEST POP POP SWAP2 POP POP PUSH1 0x40 MLOAD DUP1 SWAP2 SUB SWAP1 KECCAK256 PUSH1 0x12 PUSH1 0x0 DUP6 DUP2 MSTORE PUSH1 0x20 ADD SWAP1 DUP2 MSTORE PUSH1 0x20 ADD PUSH1 0x0 KECCAK256 PUSH1 0x2 ADD PUSH1 0x40 MLOAD DUP1 DUP3 DUP1 SLOAD PUSH1 0x1 DUP2 PUSH1 0x1 AND ISZERO PUSH2 0x100 MUL SUB AND PUSH1 0x2 SWAP1 DIV DUP1 ISZERO PUSH2 0x2F51 JUMPI DUP1 PUSH1 0x1F LT PUSH2 0x2F2F JUMPI PUSH2 0x100 DUP1 DUP4 SLOAD DIV MUL DUP4 MSTORE SWAP2 DUP3 ADD SWAP2 PUSH2 0x2F51 JUMP JUMPDEST DUP3 ADD SWAP2 SWAP1 PUSH1 0x0 MSTORE PUSH1 0x20 PUSH1 0x0 KECCAK256 SWAP1 JUMPDEST DUP2 SLOAD DUP2 MSTORE SWAP1 PUSH1 0x1 ADD SWAP1 PUSH1 0x20 ADD DUP1 DUP4 GT PUSH2 0x2F3D JUMPI JUMPDEST POP POP SWAP2 POP POP PUSH1 0x40 MLOAD DUP1 SWAP2 SUB SWAP1 KECCAK256 EQ PUSH2 0x2F68 JUMPI PUSH1 0x0 DUP1 REVERT JUMPDEST PUSH1 0x0 DUP4 DUP2 MSTORE PUSH1 0x1D PUSH1 0x20 SWAP1 DUP2 MSTORE PUSH1 0x40 DUP1 DUP4 KECCAK256 PUSH1 0x15 SLOAD DUP5 MSTORE SWAP1 SWAP2 MSTORE SWAP1 KECCAK256 SLOAD PUSH1 0xFF AND ISZERO PUSH2 0x2F91 JUMPI PUSH1 0x0 DUP1 REVERT JUMPDEST PUSH1 0x0 DUP4 DUP2 MSTORE PUSH1 0x11 PUSH1 0x20 MSTORE PUSH1 0x40 DUP1 DUP3 KECCAK256 SLOAD PUSH1 0xC SLOAD SWAP2 MLOAD PUSH1 0x1 PUSH1 0x1 PUSH1 0xA0 SHL SUB SWAP1 SWAP2 AND SWAP2 SWAP1 DUP4 DUP2 DUP2 DUP2 DUP6 DUP8 GAS CALL SWAP3 POP POP POP RETURNDATASIZE DUP1 PUSH1 0x0 DUP2 EQ PUSH2 0x2FEB JUMPI PUSH1 0x40 MLOAD SWAP2 POP PUSH1 0x1F NOT PUSH1 0x3F RETURNDATASIZE ADD AND DUP3 ADD PUSH1 0x40 MSTORE RETURNDATASIZE DUP3 MSTORE RETURNDATASIZE PUSH1 0x0 PUSH1 0x20 DUP5 ADD RETURNDATACOPY PUSH2 0x2FF0 JUMP JUMPDEST PUSH1 0x60 SWAP2 POP JUMPDEST POP POP SWAP1 POP DUP1 PUSH2 0x3037 JUMPI PUSH1 0x40 DUP1 MLOAD PUSH3 0x461BCD PUSH1 0xE5 SHL DUP2 MSTORE PUSH1 0x20 PUSH1 0x4 DUP3 ADD MSTORE PUSH1 0xE PUSH1 0x24 DUP3 ADD MSTORE PUSH14 0x14185E5B595B9D0819985A5B1959 PUSH1 0x92 SHL PUSH1 0x44 DUP3 ADD MSTORE SWAP1 MLOAD SWAP1 DUP2 SWAP1 SUB PUSH1 0x64 ADD SWAP1 REVERT JUMPDEST PUSH1 0xC SLOAD PUSH1 0xA SLOAD PUSH2 0x3046 SWAP2 PUSH2 0x3D93 JUMP JUMPDEST PUSH1 0xA SSTORE POP POP POP PUSH1 0x0 SWAP1 DUP2 MSTORE PUSH1 0x1D PUSH1 0x20 SWAP1 DUP2 MSTORE PUSH1 0x40 DUP1 DUP4 KECCAK256 PUSH1 0x15 SLOAD DUP5 MSTORE SWAP1 SWAP2 MSTORE SWAP1 KECCAK256 DUP1 SLOAD PUSH1 0xFF NOT AND PUSH1 0x1 OR SWAP1 SSTORE JUMP JUMPDEST PUSH1 0x60 PUSH2 0x2C31 DUP5 DUP5 PUSH1 0x0 DUP6 DUP6 PUSH2 0x321E JUMP JUMPDEST PUSH1 0xD SLOAD DUP2 JUMP JUMPDEST PUSH2 0x30B3 PUSH32 0x2172861495E7B85EDAC73E3CD5FBB42DD675BAADF627720E687BCFDACA025096 PUSH2 0x3E16 JUMP JUMPDEST PUSH1 0x6 DUP1 SLOAD DUP3 SWAP2 SWAP1 PUSH1 0xFF NOT AND PUSH1 0x1 DUP4 DUP2 DUP2 GT ISZERO PUSH2 0x30CB JUMPI INVALID JUMPDEST MUL OR SWAP1 SSTORE POP POP JUMP JUMPDEST PUSH1 0x0 DUP2 DUP2 MSTORE PUSH1 0x20 DUP2 SWAP1 MSTORE PUSH1 0x40 DUP2 KECCAK256 PUSH2 0x136E SWAP1 PUSH2 0x3FF3 JUMP JUMPDEST PUSH1 0x10 SLOAD DUP2 JUMP JUMPDEST PUSH1 0x0 DUP3 DUP2 MSTORE PUSH1 0x20 DUP2 SWAP1 MSTORE PUSH1 0x40 SWAP1 KECCAK256 PUSH1 0x2 ADD SLOAD PUSH2 0x310E SWAP1 PUSH2 0x1CE7 PUSH2 0x34D2 JUMP JUMPDEST PUSH2 0x1D8C JUMPI PUSH1 0x40 MLOAD PUSH3 0x461BCD PUSH1 0xE5 SHL DUP2 MSTORE PUSH1 0x4 ADD DUP1 DUP1 PUSH1 0x20 ADD DUP3 DUP2 SUB DUP3 MSTORE PUSH1 0x30 DUP2 MSTORE PUSH1 0x20 ADD DUP1 PUSH2 0x5537 PUSH1 0x30 SWAP2 CODECOPY PUSH1 0x40 ADD SWAP2 POP POP PUSH1 0x40 MLOAD DUP1 SWAP2 SUB SWAP1 REVERT JUMPDEST PUSH1 0xA SLOAD DUP2 JUMP JUMPDEST PUSH2 0x3178 PUSH32 0x2172861495E7B85EDAC73E3CD5FBB42DD675BAADF627720E687BCFDACA025096 PUSH2 0x3E16 JUMP JUMPDEST PUSH1 0x14 SSTORE JUMP JUMPDEST PUSH1 0x17 DUP2 DUP2 SLOAD DUP2 LT PUSH2 0x318A JUMPI INVALID JUMPDEST PUSH1 0x0 SWAP2 DUP3 MSTORE PUSH1 0x20 SWAP2 DUP3 SWAP1 KECCAK256 ADD DUP1 SLOAD PUSH1 0x40 DUP1 MLOAD PUSH1 0x1F PUSH1 0x2 PUSH1 0x0 NOT PUSH2 0x100 PUSH1 0x1 DUP8 AND ISZERO MUL ADD SWAP1 SWAP5 AND SWAP4 SWAP1 SWAP4 DIV SWAP3 DUP4 ADD DUP6 SWAP1 DIV DUP6 MUL DUP2 ADD DUP6 ADD SWAP1 SWAP2 MSTORE DUP2 DUP2 MSTORE SWAP4 POP SWAP1 SWAP2 DUP4 ADD DUP3 DUP3 DUP1 ISZERO PUSH2 0x2956 JUMPI DUP1 PUSH1 0x1F LT PUSH2 0x292B JUMPI PUSH2 0x100 DUP1 DUP4 SLOAD DIV MUL DUP4 MSTORE SWAP2 PUSH1 0x20 ADD SWAP2 PUSH2 0x2956 JUMP JUMPDEST PUSH1 0x1 PUSH1 0x1 PUSH1 0xA0 SHL SUB SWAP2 DUP3 AND PUSH1 0x0 SWAP1 DUP2 MSTORE PUSH1 0x3 PUSH1 0x20 SWAP1 DUP2 MSTORE PUSH1 0x40 DUP1 DUP4 KECCAK256 SWAP4 SWAP1 SWAP5 AND DUP3 MSTORE SWAP2 SWAP1 SWAP2 MSTORE KECCAK256 SLOAD PUSH1 0xFF AND SWAP1 JUMP JUMPDEST PUSH1 0x1 PUSH1 0x1 PUSH1 0xA0 SHL SUB DUP5 AND PUSH2 0x3263 JUMPI PUSH1 0x40 MLOAD PUSH3 0x461BCD PUSH1 0xE5 SHL DUP2 MSTORE PUSH1 0x4 ADD DUP1 DUP1 PUSH1 0x20 ADD DUP3 DUP2 SUB DUP3 MSTORE PUSH1 0x25 DUP2 MSTORE PUSH1 0x20 ADD DUP1 PUSH2 0x5567 PUSH1 0x25 SWAP2 CODECOPY PUSH1 0x40 ADD SWAP2 POP POP PUSH1 0x40 MLOAD DUP1 SWAP2 SUB SWAP1 REVERT JUMPDEST PUSH2 0x326B PUSH2 0x34D2 JUMP JUMPDEST PUSH1 0x1 PUSH1 0x1 PUSH1 0xA0 SHL SUB AND DUP6 PUSH1 0x1 PUSH1 0x1 PUSH1 0xA0 SHL SUB AND EQ DUP1 PUSH2 0x3291 JUMPI POP PUSH2 0x3291 DUP6 PUSH2 0x1977 PUSH2 0x34D2 JUMP JUMPDEST PUSH2 0x32CC JUMPI PUSH1 0x40 MLOAD PUSH3 0x461BCD PUSH1 0xE5 SHL DUP2 MSTORE PUSH1 0x4 ADD DUP1 DUP1 PUSH1 0x20 ADD DUP3 DUP2 SUB DUP3 MSTORE PUSH1 0x29 DUP2 MSTORE PUSH1 0x20 ADD DUP1 PUSH2 0x550E PUSH1 0x29 SWAP2 CODECOPY PUSH1 0x40 ADD SWAP2 POP POP PUSH1 0x40 MLOAD DUP1 SWAP2 SUB SWAP1 REVERT JUMPDEST PUSH1 0x0 PUSH2 0x32D6 PUSH2 0x34D2 JUMP JUMPDEST SWAP1 POP PUSH2 0x32F6 DUP2 DUP8 DUP8 PUSH2 0x32E7 DUP9 PUSH2 0x3FFE JUMP JUMPDEST PUSH2 0x32F0 DUP9 PUSH2 0x3FFE JUMP JUMPDEST DUP8 PUSH2 0x364C JUMP JUMPDEST PUSH2 0x333D DUP4 PUSH1 0x40 MLOAD DUP1 PUSH1 0x60 ADD PUSH1 0x40 MSTORE DUP1 PUSH1 0x2A DUP2 MSTORE PUSH1 0x20 ADD PUSH2 0x55E1 PUSH1 0x2A SWAP2 CODECOPY PUSH1 0x0 DUP8 DUP2 MSTORE PUSH1 0x2 PUSH1 0x20 SWAP1 DUP2 MSTORE PUSH1 0x40 DUP1 DUP4 KECCAK256 PUSH1 0x1 PUSH1 0x1 PUSH1 0xA0 SHL SUB DUP14 AND DUP5 MSTORE SWAP1 SWAP2 MSTORE SWAP1 KECCAK256 SLOAD SWAP2 SWAP1 PUSH2 0x3767 JUMP JUMPDEST PUSH1 0x0 DUP6 DUP2 MSTORE PUSH1 0x2 PUSH1 0x20 SWAP1 DUP2 MSTORE PUSH1 0x40 DUP1 DUP4 KECCAK256 PUSH1 0x1 PUSH1 0x1 PUSH1 0xA0 SHL SUB DUP12 DUP2 AND DUP6 MSTORE SWAP3 MSTORE DUP1 DUP4 KECCAK256 SWAP4 SWAP1 SWAP4 SSTORE DUP8 AND DUP2 MSTORE KECCAK256 SLOAD PUSH2 0x3374 SWAP1 DUP5 PUSH2 0x3478 JUMP JUMPDEST PUSH1 0x0 DUP6 DUP2 MSTORE PUSH1 0x2 PUSH1 0x20 SWAP1 DUP2 MSTORE PUSH1 0x40 DUP1 DUP4 KECCAK256 PUSH1 0x1 PUSH1 0x1 PUSH1 0xA0 SHL SUB DUP1 DUP12 AND DUP1 DUP7 MSTORE SWAP2 DUP5 MSTORE SWAP4 DUP3 SWAP1 KECCAK256 SWAP5 SWAP1 SWAP5 SSTORE DUP1 MLOAD DUP9 DUP2 MSTORE SWAP2 DUP3 ADD DUP8 SWAP1 MSTORE DUP1 MLOAD DUP11 DUP5 AND SWAP4 DUP7 AND SWAP3 PUSH32 0xC3D58168C5AE7397731D063D5BBF3D657854427343F4C083240F7AACAA2D0F62 SWAP3 SWAP1 DUP3 SWAP1 SUB ADD SWAP1 LOG4 PUSH2 0x1BBF DUP2 DUP8 DUP8 DUP8 DUP8 DUP8 PUSH2 0x4042 JUMP JUMPDEST PUSH1 0x0 DUP2 PUSH1 0x0 DUP2 GT DUP1 ISZERO PUSH2 0x33FD JUMPI POP PUSH1 0x7 DUP2 GT ISZERO JUMPDEST PUSH2 0x3406 JUMPI PUSH1 0x0 DUP1 REVERT JUMPDEST PUSH1 0x15 SLOAD DUP5 GT ISZERO PUSH2 0x3415 JUMPI PUSH1 0x0 DUP1 REVERT JUMPDEST PUSH1 0x0 DUP5 DUP2 MSTORE PUSH1 0x13 PUSH1 0x20 SWAP1 DUP2 MSTORE PUSH1 0x40 DUP1 DUP4 KECCAK256 DUP7 DUP5 MSTORE SWAP1 SWAP2 MSTORE DUP2 KECCAK256 SLOAD PUSH2 0x343A SWAP1 PUSH1 0x1 PUSH2 0x3478 JUMP JUMPDEST SWAP1 POP PUSH2 0x3445 DUP2 PUSH2 0x41B3 JUMP JUMPDEST SWAP6 SWAP5 POP POP POP POP POP JUMP JUMPDEST PUSH1 0x0 PUSH2 0x2AD8 DUP4 PUSH1 0x1 PUSH1 0x1 PUSH1 0xA0 SHL SUB DUP5 AND PUSH2 0x4205 JUMP JUMPDEST PUSH1 0x0 PUSH2 0x2AD8 DUP4 PUSH1 0x1 PUSH1 0x1 PUSH1 0xA0 SHL SUB DUP5 AND PUSH2 0x424F JUMP JUMPDEST PUSH1 0x0 DUP3 DUP3 ADD DUP4 DUP2 LT ISZERO PUSH2 0x2AD8 JUMPI PUSH1 0x40 DUP1 MLOAD PUSH3 0x461BCD PUSH1 0xE5 SHL DUP2 MSTORE PUSH1 0x20 PUSH1 0x4 DUP3 ADD MSTORE PUSH1 0x1B PUSH1 0x24 DUP3 ADD MSTORE PUSH32 0x536166654D6174683A206164646974696F6E206F766572666C6F770000000000 PUSH1 0x44 DUP3 ADD MSTORE SWAP1 MLOAD SWAP1 DUP2 SWAP1 SUB PUSH1 0x64 ADD SWAP1 REVERT JUMPDEST CALLER SWAP1 JUMP JUMPDEST PUSH1 0x1 PUSH1 0x1 PUSH1 0xA0 SHL SUB DUP5 AND PUSH2 0x351B JUMPI PUSH1 0x40 MLOAD PUSH3 0x461BCD PUSH1 0xE5 SHL DUP2 MSTORE PUSH1 0x4 ADD DUP1 DUP1 PUSH1 0x20 ADD DUP3 DUP2 SUB DUP3 MSTORE PUSH1 0x21 DUP2 MSTORE PUSH1 0x20 ADD DUP1 PUSH2 0x56A6 PUSH1 0x21 SWAP2 CODECOPY PUSH1 0x40 ADD SWAP2 POP POP PUSH1 0x40 MLOAD DUP1 SWAP2 SUB SWAP1 REVERT JUMPDEST PUSH1 0x0 PUSH2 0x3525 PUSH2 0x34D2 JUMP JUMPDEST SWAP1 POP PUSH2 0x3537 DUP2 PUSH1 0x0 DUP8 PUSH2 0x32E7 DUP9 PUSH2 0x3FFE JUMP JUMPDEST PUSH1 0x0 DUP5 DUP2 MSTORE PUSH1 0x2 PUSH1 0x20 SWAP1 DUP2 MSTORE PUSH1 0x40 DUP1 DUP4 KECCAK256 PUSH1 0x1 PUSH1 0x1 PUSH1 0xA0 SHL SUB DUP10 AND DUP5 MSTORE SWAP1 SWAP2 MSTORE SWAP1 KECCAK256 SLOAD PUSH2 0x3564 SWAP1 DUP5 PUSH2 0x3478 JUMP JUMPDEST PUSH1 0x0 DUP6 DUP2 MSTORE PUSH1 0x2 PUSH1 0x20 SWAP1 DUP2 MSTORE PUSH1 0x40 DUP1 DUP4 KECCAK256 PUSH1 0x1 PUSH1 0x1 PUSH1 0xA0 SHL SUB DUP1 DUP12 AND DUP1 DUP7 MSTORE SWAP2 DUP5 MSTORE DUP3 DUP6 KECCAK256 SWAP6 SWAP1 SWAP6 SSTORE DUP2 MLOAD DUP10 DUP2 MSTORE SWAP3 DUP4 ADD DUP9 SWAP1 MSTORE DUP2 MLOAD SWAP1 SWAP5 DUP7 AND SWAP3 PUSH32 0xC3D58168C5AE7397731D063D5BBF3D657854427343F4C083240F7AACAA2D0F62 SWAP3 SWAP1 DUP3 SWAP1 SUB ADD SWAP1 LOG4 PUSH2 0x35D7 DUP2 PUSH1 0x0 DUP8 DUP8 DUP8 DUP8 PUSH2 0x4042 JUMP JUMPDEST POP POP POP POP POP JUMP JUMPDEST PUSH1 0x0 PUSH2 0x35EA CALLVALUE DUP4 PUSH2 0x3D93 JUMP JUMPDEST GT ISZERO PUSH2 0x2D06 JUMPI PUSH1 0x0 CALLER PUSH2 0x35FD CALLVALUE DUP5 PUSH2 0x3D93 JUMP JUMPDEST PUSH1 0x40 MLOAD PUSH1 0x0 DUP2 DUP2 DUP2 DUP6 DUP8 GAS CALL SWAP3 POP POP POP RETURNDATASIZE DUP1 PUSH1 0x0 DUP2 EQ PUSH2 0x3639 JUMPI PUSH1 0x40 MLOAD SWAP2 POP PUSH1 0x1F NOT PUSH1 0x3F RETURNDATASIZE ADD AND DUP3 ADD PUSH1 0x40 MSTORE RETURNDATASIZE DUP3 MSTORE RETURNDATASIZE PUSH1 0x0 PUSH1 0x20 DUP5 ADD RETURNDATACOPY PUSH2 0x363E JUMP JUMPDEST PUSH1 0x60 SWAP2 POP JUMPDEST POP POP SWAP1 POP DUP1 PUSH2 0x1D31 JUMPI PUSH1 0x0 DUP1 REVERT JUMPDEST PUSH2 0x365A DUP7 DUP7 DUP7 DUP7 DUP7 DUP7 PUSH2 0x1BBF JUMP JUMPDEST PUSH1 0x0 JUMPDEST DUP4 MLOAD DUP2 LT ISZERO PUSH2 0x375E JUMPI PUSH1 0x0 DUP5 DUP3 DUP2 MLOAD DUP2 LT PUSH2 0x3674 JUMPI INVALID JUMPDEST PUSH1 0x20 MUL PUSH1 0x20 ADD ADD MLOAD GT DUP1 ISZERO PUSH2 0x369D JUMPI POP PUSH1 0x7 DUP5 DUP3 DUP2 MLOAD DUP2 LT PUSH2 0x3692 JUMPI INVALID JUMPDEST PUSH1 0x20 MUL PUSH1 0x20 ADD ADD MLOAD GT ISZERO JUMPDEST ISZERO PUSH2 0x36EE JUMPI DUP5 PUSH1 0xE PUSH1 0x0 DUP7 DUP5 DUP2 MLOAD DUP2 LT PUSH2 0x36B3 JUMPI INVALID JUMPDEST PUSH1 0x20 MUL PUSH1 0x20 ADD ADD MLOAD DUP2 MSTORE PUSH1 0x20 ADD SWAP1 DUP2 MSTORE PUSH1 0x20 ADD PUSH1 0x0 KECCAK256 PUSH1 0x0 PUSH2 0x100 EXP DUP2 SLOAD DUP2 PUSH1 0x1 PUSH1 0x1 PUSH1 0xA0 SHL SUB MUL NOT AND SWAP1 DUP4 PUSH1 0x1 PUSH1 0x1 PUSH1 0xA0 SHL SUB AND MUL OR SWAP1 SSTORE POP JUMPDEST PUSH1 0x7 DUP5 DUP3 DUP2 MLOAD DUP2 LT PUSH2 0x36FC JUMPI INVALID JUMPDEST PUSH1 0x20 MUL PUSH1 0x20 ADD ADD MLOAD GT ISZERO PUSH2 0x3756 JUMPI DUP5 PUSH1 0x11 PUSH1 0x0 DUP7 DUP5 DUP2 MLOAD DUP2 LT PUSH2 0x371B JUMPI INVALID JUMPDEST PUSH1 0x20 MUL PUSH1 0x20 ADD ADD MLOAD DUP2 MSTORE PUSH1 0x20 ADD SWAP1 DUP2 MSTORE PUSH1 0x20 ADD PUSH1 0x0 KECCAK256 PUSH1 0x0 PUSH2 0x100 EXP DUP2 SLOAD DUP2 PUSH1 0x1 PUSH1 0x1 PUSH1 0xA0 SHL SUB MUL NOT AND SWAP1 DUP4 PUSH1 0x1 PUSH1 0x1 PUSH1 0xA0 SHL SUB AND MUL OR SWAP1 SSTORE POP JUMPDEST PUSH1 0x1 ADD PUSH2 0x365D JUMP JUMPDEST POP POP POP POP POP POP POP JUMP JUMPDEST PUSH1 0x0 DUP2 DUP5 DUP5 GT ISZERO PUSH2 0x37F6 JUMPI PUSH1 0x40 MLOAD PUSH3 0x461BCD PUSH1 0xE5 SHL DUP2 MSTORE PUSH1 0x4 ADD DUP1 DUP1 PUSH1 0x20 ADD DUP3 DUP2 SUB DUP3 MSTORE DUP4 DUP2 DUP2 MLOAD DUP2 MSTORE PUSH1 0x20 ADD SWAP2 POP DUP1 MLOAD SWAP1 PUSH1 0x20 ADD SWAP1 DUP1 DUP4 DUP4 PUSH1 0x0 JUMPDEST DUP4 DUP2 LT ISZERO PUSH2 0x37BB JUMPI DUP2 DUP2 ADD MLOAD DUP4 DUP3 ADD MSTORE PUSH1 0x20 ADD PUSH2 0x37A3 JUMP JUMPDEST POP POP POP POP SWAP1 POP SWAP1 DUP2 ADD SWAP1 PUSH1 0x1F AND DUP1 ISZERO PUSH2 0x37E8 JUMPI DUP1 DUP3 SUB DUP1 MLOAD PUSH1 0x1 DUP4 PUSH1 0x20 SUB PUSH2 0x100 EXP SUB NOT AND DUP2 MSTORE PUSH1 0x20 ADD SWAP2 POP JUMPDEST POP SWAP3 POP POP POP PUSH1 0x40 MLOAD DUP1 SWAP2 SUB SWAP1 REVERT JUMPDEST POP POP POP SWAP1 SUB SWAP1 JUMP JUMPDEST PUSH2 0x3810 DUP5 PUSH1 0x1 PUSH1 0x1 PUSH1 0xA0 SHL SUB AND PUSH2 0x4267 JUMP JUMPDEST ISZERO PUSH2 0x1BBF JUMPI DUP4 PUSH1 0x1 PUSH1 0x1 PUSH1 0xA0 SHL SUB AND PUSH4 0xBC197C81 DUP8 DUP8 DUP7 DUP7 DUP7 PUSH1 0x40 MLOAD DUP7 PUSH4 0xFFFFFFFF AND PUSH1 0xE0 SHL DUP2 MSTORE PUSH1 0x4 ADD DUP1 DUP7 PUSH1 0x1 PUSH1 0x1 PUSH1 0xA0 SHL SUB AND DUP2 MSTORE PUSH1 0x20 ADD DUP6 PUSH1 0x1 PUSH1 0x1 PUSH1 0xA0 SHL SUB AND DUP2 MSTORE PUSH1 0x20 ADD DUP1 PUSH1 0x20 ADD DUP1 PUSH1 0x20 ADD DUP1 PUSH1 0x20 ADD DUP5 DUP2 SUB DUP5 MSTORE DUP8 DUP2 DUP2 MLOAD DUP2 MSTORE PUSH1 0x20 ADD SWAP2 POP DUP1 MLOAD SWAP1 PUSH1 0x20 ADD SWAP1 PUSH1 0x20 MUL DUP1 DUP4 DUP4 PUSH1 0x0 JUMPDEST DUP4 DUP2 LT ISZERO PUSH2 0x389E JUMPI DUP2 DUP2 ADD MLOAD DUP4 DUP3 ADD MSTORE PUSH1 0x20 ADD PUSH2 0x3886 JUMP JUMPDEST POP POP POP POP SWAP1 POP ADD DUP5 DUP2 SUB DUP4 MSTORE DUP7 DUP2 DUP2 MLOAD DUP2 MSTORE PUSH1 0x20 ADD SWAP2 POP DUP1 MLOAD SWAP1 PUSH1 0x20 ADD SWAP1 PUSH1 0x20 MUL DUP1 DUP4 DUP4 PUSH1 0x0 JUMPDEST DUP4 DUP2 LT ISZERO PUSH2 0x38DD JUMPI DUP2 DUP2 ADD MLOAD DUP4 DUP3 ADD MSTORE PUSH1 0x20 ADD PUSH2 0x38C5 JUMP JUMPDEST POP POP POP POP SWAP1 POP ADD DUP5 DUP2 SUB DUP3 MSTORE DUP6 DUP2 DUP2 MLOAD DUP2 MSTORE PUSH1 0x20 ADD SWAP2 POP DUP1 MLOAD SWAP1 PUSH1 0x20 ADD SWAP1 DUP1 DUP4 DUP4 PUSH1 0x0 JUMPDEST DUP4 DUP2 LT ISZERO PUSH2 0x3919 JUMPI DUP2 DUP2 ADD MLOAD DUP4 DUP3 ADD MSTORE PUSH1 0x20 ADD PUSH2 0x3901 JUMP JUMPDEST POP POP POP POP SWAP1 POP SWAP1 DUP2 ADD SWAP1 PUSH1 0x1F AND DUP1 ISZERO PUSH2 0x3946 JUMPI DUP1 DUP3 SUB DUP1 MLOAD PUSH1 0x1 DUP4 PUSH1 0x20 SUB PUSH2 0x100 EXP SUB NOT AND DUP2 MSTORE PUSH1 0x20 ADD SWAP2 POP JUMPDEST POP SWAP9 POP POP POP POP POP POP POP POP POP PUSH1 0x20 PUSH1 0x40 MLOAD DUP1 DUP4 SUB DUP2 PUSH1 0x0 DUP8 DUP1 EXTCODESIZE ISZERO DUP1 ISZERO PUSH2 0x396B JUMPI PUSH1 0x0 DUP1 REVERT JUMPDEST POP GAS CALL SWAP3 POP POP POP DUP1 ISZERO PUSH2 0x3990 JUMPI POP PUSH1 0x40 MLOAD RETURNDATASIZE PUSH1 0x20 DUP2 LT ISZERO PUSH2 0x398B JUMPI PUSH1 0x0 DUP1 REVERT JUMPDEST POP MLOAD PUSH1 0x1 JUMPDEST PUSH2 0x3A25 JUMPI PUSH2 0x399C PUSH2 0x536C JUMP JUMPDEST DUP1 PUSH2 0x39A7 JUMPI POP PUSH2 0x39EE JUMP JUMPDEST PUSH1 0x40 MLOAD PUSH3 0x461BCD PUSH1 0xE5 SHL DUP2 MSTORE PUSH1 0x20 PUSH1 0x4 DUP3 ADD DUP2 DUP2 MSTORE DUP4 MLOAD PUSH1 0x24 DUP5 ADD MSTORE DUP4 MLOAD DUP5 SWAP4 SWAP2 SWAP3 DUP4 SWAP3 PUSH1 0x44 ADD SWAP2 SWAP1 DUP6 ADD SWAP1 DUP1 DUP4 DUP4 PUSH1 0x0 DUP4 ISZERO PUSH2 0x37BB JUMPI DUP2 DUP2 ADD MLOAD DUP4 DUP3 ADD MSTORE PUSH1 0x20 ADD PUSH2 0x37A3 JUMP JUMPDEST PUSH1 0x40 MLOAD PUSH3 0x461BCD PUSH1 0xE5 SHL DUP2 MSTORE PUSH1 0x4 ADD DUP1 DUP1 PUSH1 0x20 ADD DUP3 DUP2 SUB DUP3 MSTORE PUSH1 0x34 DUP2 MSTORE PUSH1 0x20 ADD DUP1 PUSH2 0x5412 PUSH1 0x34 SWAP2 CODECOPY PUSH1 0x40 ADD SWAP2 POP POP PUSH1 0x40 MLOAD DUP1 SWAP2 SUB SWAP1 REVERT JUMPDEST PUSH1 0x1 PUSH1 0x1 PUSH1 0xE0 SHL SUB NOT DUP2 AND PUSH4 0xBC197C81 PUSH1 0xE0 SHL EQ PUSH2 0x375E JUMPI PUSH1 0x40 MLOAD PUSH3 0x461BCD PUSH1 0xE5 SHL DUP2 MSTORE PUSH1 0x4 ADD DUP1 DUP1 PUSH1 0x20 ADD DUP3 DUP2 SUB DUP3 MSTORE PUSH1 0x28 DUP2 MSTORE PUSH1 0x20 ADD DUP1 PUSH2 0x5468 PUSH1 0x28 SWAP2 CODECOPY PUSH1 0x40 ADD SWAP2 POP POP PUSH1 0x40 MLOAD DUP1 SWAP2 SUB SWAP1 REVERT JUMPDEST PUSH1 0x0 DUP3 DUP2 MSTORE PUSH1 0x20 DUP2 SWAP1 MSTORE PUSH1 0x40 SWAP1 KECCAK256 PUSH2 0x3A8C SWAP1 DUP3 PUSH2 0x344E JUMP JUMPDEST ISZERO PUSH2 0x1D31 JUMPI PUSH2 0x3A99 PUSH2 0x34D2 JUMP JUMPDEST PUSH1 0x1 PUSH1 0x1 PUSH1 0xA0 SHL SUB AND DUP2 PUSH1 0x1 PUSH1 0x1 PUSH1 0xA0 SHL SUB AND DUP4 PUSH32 0x2F8788117E7EFF1D82E926EC794901D17C78024A50270940304540A733656F0D PUSH1 0x40 MLOAD PUSH1 0x40 MLOAD DUP1 SWAP2 SUB SWAP1 LOG4 POP POP JUMP JUMPDEST PUSH1 0x0 DUP3 DUP2 MSTORE PUSH1 0x20 DUP2 SWAP1 MSTORE PUSH1 0x40 SWAP1 KECCAK256 PUSH2 0x3AF5 SWAP1 DUP3 PUSH2 0x426D JUMP JUMPDEST ISZERO PUSH2 0x1D31 JUMPI PUSH2 0x3B02 PUSH2 0x34D2 JUMP JUMPDEST PUSH1 0x1 PUSH1 0x1 PUSH1 0xA0 SHL SUB AND DUP2 PUSH1 0x1 PUSH1 0x1 PUSH1 0xA0 SHL SUB AND DUP4 PUSH32 0xF6391F5C32D9C69D2A47EA670B442974B53935D1EDC7FD64EB21E047A839171B PUSH1 0x40 MLOAD PUSH1 0x40 MLOAD DUP1 SWAP2 SUB SWAP1 LOG4 POP POP JUMP JUMPDEST PUSH1 0x15 SLOAD PUSH1 0x0 SWAP1 DUP2 MSTORE PUSH1 0x13 PUSH1 0x20 SWAP1 DUP2 MSTORE PUSH1 0x40 DUP1 DUP4 KECCAK256 DUP5 DUP5 MSTORE SWAP1 SWAP2 MSTORE DUP2 KECCAK256 SLOAD PUSH1 0x4 GT ISZERO PUSH2 0x3B73 JUMPI POP PUSH1 0x1 PUSH2 0x1398 JUMP JUMPDEST PUSH1 0x15 SLOAD PUSH1 0x0 SWAP1 DUP2 MSTORE PUSH1 0x13 PUSH1 0x20 SWAP1 DUP2 MSTORE PUSH1 0x40 DUP1 DUP4 KECCAK256 DUP6 DUP5 MSTORE SWAP1 SWAP2 MSTORE SWAP1 KECCAK256 SLOAD PUSH1 0x1 JUMPDEST PUSH1 0xD SLOAD DUP2 GT PUSH2 0x3BE8 JUMPI PUSH1 0x15 SLOAD PUSH1 0x0 SWAP1 DUP2 MSTORE PUSH1 0x13 PUSH1 0x20 SWAP1 DUP2 MSTORE PUSH1 0x40 DUP1 DUP4 KECCAK256 DUP5 DUP5 MSTORE SWAP1 SWAP2 MSTORE SWAP1 KECCAK256 SLOAD DUP3 GT ISZERO PUSH2 0x3BE0 JUMPI PUSH1 0x15 SLOAD PUSH1 0x0 SWAP1 DUP2 MSTORE PUSH1 0x13 PUSH1 0x20 SWAP1 DUP2 MSTORE PUSH1 0x40 DUP1 DUP4 KECCAK256 DUP5 DUP5 MSTORE SWAP1 SWAP2 MSTORE SWAP1 KECCAK256 SLOAD SWAP2 POP JUMPDEST PUSH1 0x1 ADD PUSH2 0x3B93 JUMP JUMPDEST POP PUSH2 0x3BF4 DUP2 PUSH1 0x2 PUSH2 0x3CD3 JUMP JUMPDEST PUSH1 0x15 SLOAD PUSH1 0x0 SWAP1 DUP2 MSTORE PUSH1 0x13 PUSH1 0x20 SWAP1 DUP2 MSTORE PUSH1 0x40 DUP1 DUP4 KECCAK256 DUP8 DUP5 MSTORE SWAP1 SWAP2 MSTORE SWAP1 KECCAK256 SLOAD GT ISZERO SWAP2 POP POP SWAP2 SWAP1 POP JUMP JUMPDEST PUSH1 0x0 PUSH1 0x19 SLOAD PUSH32 0x0 PUSH1 0x1 PUSH1 0x1 PUSH1 0xA0 SHL SUB AND PUSH4 0x70A08231 ADDRESS PUSH1 0x40 MLOAD DUP3 PUSH4 0xFFFFFFFF AND PUSH1 0xE0 SHL DUP2 MSTORE PUSH1 0x4 ADD DUP1 DUP3 PUSH1 0x1 PUSH1 0x1 PUSH1 0xA0 SHL SUB AND DUP2 MSTORE PUSH1 0x20 ADD SWAP2 POP POP PUSH1 0x20 PUSH1 0x40 MLOAD DUP1 DUP4 SUB DUP2 DUP7 DUP1 EXTCODESIZE ISZERO DUP1 ISZERO PUSH2 0x3C8D JUMPI PUSH1 0x0 DUP1 REVERT JUMPDEST POP GAS STATICCALL ISZERO DUP1 ISZERO PUSH2 0x3CA1 JUMPI RETURNDATASIZE PUSH1 0x0 DUP1 RETURNDATACOPY RETURNDATASIZE PUSH1 0x0 REVERT JUMPDEST POP POP POP POP PUSH1 0x40 MLOAD RETURNDATASIZE PUSH1 0x20 DUP2 LT ISZERO PUSH2 0x3CB7 JUMPI PUSH1 0x0 DUP1 REVERT JUMPDEST POP MLOAD LT ISZERO PUSH2 0x3CC4 JUMPI PUSH1 0x0 DUP1 REVERT JUMPDEST PUSH2 0x136E PUSH1 0x18 SLOAD PUSH1 0x19 SLOAD DUP5 PUSH2 0x4282 JUMP JUMPDEST PUSH1 0x0 DUP3 PUSH2 0x3CE2 JUMPI POP PUSH1 0x0 PUSH2 0x136E JUMP JUMPDEST DUP3 DUP3 MUL DUP3 DUP5 DUP3 DUP2 PUSH2 0x3CEF JUMPI INVALID JUMPDEST DIV EQ PUSH2 0x2AD8 JUMPI PUSH1 0x40 MLOAD PUSH3 0x461BCD PUSH1 0xE5 SHL DUP2 MSTORE PUSH1 0x4 ADD DUP1 DUP1 PUSH1 0x20 ADD DUP3 DUP2 SUB DUP3 MSTORE PUSH1 0x21 DUP2 MSTORE PUSH1 0x20 ADD DUP1 PUSH2 0x560B PUSH1 0x21 SWAP2 CODECOPY PUSH1 0x40 ADD SWAP2 POP POP PUSH1 0x40 MLOAD DUP1 SWAP2 SUB SWAP1 REVERT JUMPDEST PUSH1 0x0 DUP1 DUP3 GT PUSH2 0x3D82 JUMPI PUSH1 0x40 DUP1 MLOAD PUSH3 0x461BCD PUSH1 0xE5 SHL DUP2 MSTORE PUSH1 0x20 PUSH1 0x4 DUP3 ADD MSTORE PUSH1 0x1A PUSH1 0x24 DUP3 ADD MSTORE PUSH32 0x536166654D6174683A206469766973696F6E206279207A65726F000000000000 PUSH1 0x44 DUP3 ADD MSTORE SWAP1 MLOAD SWAP1 DUP2 SWAP1 SUB PUSH1 0x64 ADD SWAP1 REVERT JUMPDEST DUP2 DUP4 DUP2 PUSH2 0x3D8B JUMPI INVALID JUMPDEST DIV SWAP4 SWAP3 POP POP POP JUMP JUMPDEST PUSH1 0x0 DUP3 DUP3 GT ISZERO PUSH2 0x3DEA JUMPI PUSH1 0x40 DUP1 MLOAD PUSH3 0x461BCD PUSH1 0xE5 SHL DUP2 MSTORE PUSH1 0x20 PUSH1 0x4 DUP3 ADD MSTORE PUSH1 0x1E PUSH1 0x24 DUP3 ADD MSTORE PUSH32 0x536166654D6174683A207375627472616374696F6E206F766572666C6F770000 PUSH1 0x44 DUP3 ADD MSTORE SWAP1 MLOAD SWAP1 DUP2 SWAP1 SUB PUSH1 0x64 ADD SWAP1 REVERT JUMPDEST POP SWAP1 SUB SWAP1 JUMP JUMPDEST PUSH1 0x0 PUSH2 0x2AD8 DUP4 DUP4 PUSH2 0x442C JUMP JUMPDEST PUSH1 0x0 DUP3 DUP2 MSTORE PUSH1 0x1B PUSH1 0x20 MSTORE PUSH1 0x40 SWAP1 KECCAK256 DUP2 SWAP1 SSTORE PUSH2 0x1D31 DUP3 PUSH2 0x4490 JUMP JUMPDEST PUSH2 0x3E20 DUP2 CALLER PUSH2 0x2AE4 JUMP JUMPDEST PUSH2 0x2D06 JUMPI PUSH1 0x0 DUP1 REVERT JUMPDEST PUSH1 0x0 PUSH1 0x6 SLOAD PUSH1 0xFF AND PUSH1 0x1 DUP2 GT ISZERO PUSH2 0x3E3C JUMPI INVALID JUMPDEST EQ ISZERO PUSH2 0x3E6F JUMPI PUSH1 0x0 PUSH1 0xA DUP2 SWAP1 SSTORE PUSH1 0xC SSTORE PUSH1 0x15 SLOAD PUSH2 0x3E5A SWAP1 PUSH1 0x1 PUSH2 0x3478 JUMP JUMPDEST PUSH1 0x15 SSTORE PUSH1 0x6 DUP1 SLOAD PUSH1 0xFF NOT AND PUSH1 0x1 OR SWAP1 SSTORE PUSH2 0x3FED JUMP JUMPDEST PUSH1 0x1 PUSH1 0x6 SLOAD PUSH1 0xFF AND PUSH1 0x1 DUP2 GT ISZERO PUSH2 0x3E82 JUMPI INVALID JUMPDEST EQ ISZERO PUSH2 0x3FED JUMPI PUSH2 0x3E90 PUSH2 0x4B67 JUMP JUMPDEST PUSH1 0x1 JUMPDEST PUSH1 0xD SLOAD DUP2 GT PUSH2 0x3FD9 JUMPI PUSH1 0x1C PUSH1 0x0 PUSH1 0x15 SLOAD DUP2 MSTORE PUSH1 0x20 ADD SWAP1 DUP2 MSTORE PUSH1 0x20 ADD PUSH1 0x0 KECCAK256 PUSH1 0x40 MLOAD DUP1 DUP3 DUP1 SLOAD PUSH1 0x1 DUP2 PUSH1 0x1 AND ISZERO PUSH2 0x100 MUL SUB AND PUSH1 0x2 SWAP1 DIV DUP1 ISZERO PUSH2 0x3F0C JUMPI DUP1 PUSH1 0x1F LT PUSH2 0x3EEA JUMPI PUSH2 0x100 DUP1 DUP4 SLOAD DIV MUL DUP4 MSTORE SWAP2 DUP3 ADD SWAP2 PUSH2 0x3F0C JUMP JUMPDEST DUP3 ADD SWAP2 SWAP1 PUSH1 0x0 MSTORE PUSH1 0x20 PUSH1 0x0 KECCAK256 SWAP1 JUMPDEST DUP2 SLOAD DUP2 MSTORE SWAP1 PUSH1 0x1 ADD SWAP1 PUSH1 0x20 ADD DUP1 DUP4 GT PUSH2 0x3EF8 JUMPI JUMPDEST POP POP SWAP2 POP POP PUSH1 0x40 MLOAD DUP1 SWAP2 SUB SWAP1 KECCAK256 PUSH1 0xF PUSH1 0x0 DUP4 DUP2 MSTORE PUSH1 0x20 ADD SWAP1 DUP2 MSTORE PUSH1 0x20 ADD PUSH1 0x0 KECCAK256 PUSH1 0x3 ADD PUSH1 0x40 MLOAD DUP1 DUP3 DUP1 SLOAD PUSH1 0x1 DUP2 PUSH1 0x1 AND ISZERO PUSH2 0x100 MUL SUB AND PUSH1 0x2 SWAP1 DIV DUP1 ISZERO PUSH2 0x3F8A JUMPI DUP1 PUSH1 0x1F LT PUSH2 0x3F68 JUMPI PUSH2 0x100 DUP1 DUP4 SLOAD DIV MUL DUP4 MSTORE SWAP2 DUP3 ADD SWAP2 PUSH2 0x3F8A JUMP JUMPDEST DUP3 ADD SWAP2 SWAP1 PUSH1 0x0 MSTORE PUSH1 0x20 PUSH1 0x0 KECCAK256 SWAP1 JUMPDEST DUP2 SLOAD DUP2 MSTORE SWAP1 PUSH1 0x1 ADD SWAP1 PUSH1 0x20 ADD DUP1 DUP4 GT PUSH2 0x3F76 JUMPI JUMPDEST POP POP SWAP2 POP POP PUSH1 0x40 MLOAD DUP1 SWAP2 SUB SWAP1 KECCAK256 EQ ISZERO PUSH2 0x3FD1 JUMPI PUSH1 0x0 PUSH2 0x3FAB PUSH1 0x15 SLOAD DUP4 PUSH2 0x2878 JUMP JUMPDEST GT ISZERO PUSH2 0x3FD1 JUMPI PUSH2 0x3FC9 PUSH2 0x3FC0 PUSH1 0x15 SLOAD DUP4 PUSH2 0x2878 JUMP JUMPDEST PUSH1 0xA SLOAD SWAP1 PUSH2 0x3D2C JUMP JUMPDEST PUSH1 0xC SSTORE PUSH2 0x3FD9 JUMP JUMPDEST PUSH1 0x1 ADD PUSH2 0x3E93 JUMP JUMPDEST PUSH2 0x3FE1 PUSH2 0x4D54 JUMP JUMPDEST POP PUSH1 0x6 DUP1 SLOAD PUSH1 0xFF NOT AND SWAP1 SSTORE JUMPDEST TIMESTAMP PUSH1 0x9 SSTORE JUMP JUMPDEST PUSH1 0x0 PUSH2 0x136E DUP3 PUSH2 0x4DB3 JUMP JUMPDEST PUSH1 0x40 DUP1 MLOAD PUSH1 0x1 DUP1 DUP3 MSTORE DUP2 DUP4 ADD SWAP1 SWAP3 MSTORE PUSH1 0x60 SWAP2 DUP3 SWAP2 SWAP1 PUSH1 0x20 DUP1 DUP4 ADD SWAP1 DUP1 CALLDATASIZE DUP4 CALLDATACOPY ADD SWAP1 POP POP SWAP1 POP DUP3 DUP2 PUSH1 0x0 DUP2 MLOAD DUP2 LT PUSH2 0x4031 JUMPI INVALID JUMPDEST PUSH1 0x20 SWAP1 DUP2 MUL SWAP2 SWAP1 SWAP2 ADD ADD MSTORE SWAP3 SWAP2 POP POP JUMP JUMPDEST PUSH2 0x4054 DUP5 PUSH1 0x1 PUSH1 0x1 PUSH1 0xA0 SHL SUB AND PUSH2 0x4267 JUMP JUMPDEST ISZERO PUSH2 0x1BBF JUMPI DUP4 PUSH1 0x1 PUSH1 0x1 PUSH1 0xA0 SHL SUB AND PUSH4 0xF23A6E61 DUP8 DUP8 DUP7 DUP7 DUP7 PUSH1 0x40 MLOAD DUP7 PUSH4 0xFFFFFFFF AND PUSH1 0xE0 SHL DUP2 MSTORE PUSH1 0x4 ADD DUP1 DUP7 PUSH1 0x1 PUSH1 0x1 PUSH1 0xA0 SHL SUB AND DUP2 MSTORE PUSH1 0x20 ADD DUP6 PUSH1 0x1 PUSH1 0x1 PUSH1 0xA0 SHL SUB AND DUP2 MSTORE PUSH1 0x20 ADD DUP5 DUP2 MSTORE PUSH1 0x20 ADD DUP4 DUP2 MSTORE PUSH1 0x20 ADD DUP1 PUSH1 0x20 ADD DUP3 DUP2 SUB DUP3 MSTORE DUP4 DUP2 DUP2 MLOAD DUP2 MSTORE PUSH1 0x20 ADD SWAP2 POP DUP1 MLOAD SWAP1 PUSH1 0x20 ADD SWAP1 DUP1 DUP4 DUP4 PUSH1 0x0 JUMPDEST DUP4 DUP2 LT ISZERO PUSH2 0x40E3 JUMPI DUP2 DUP2 ADD MLOAD DUP4 DUP3 ADD MSTORE PUSH1 0x20 ADD PUSH2 0x40CB JUMP JUMPDEST POP POP POP POP SWAP1 POP SWAP1 DUP2 ADD SWAP1 PUSH1 0x1F AND DUP1 ISZERO PUSH2 0x4110 JUMPI DUP1 DUP3 SUB DUP1 MLOAD PUSH1 0x1 DUP4 PUSH1 0x20 SUB PUSH2 0x100 EXP SUB NOT AND DUP2 MSTORE PUSH1 0x20 ADD SWAP2 POP JUMPDEST POP SWAP7 POP POP POP POP POP POP POP PUSH1 0x20 PUSH1 0x40 MLOAD DUP1 DUP4 SUB DUP2 PUSH1 0x0 DUP8 DUP1 EXTCODESIZE ISZERO DUP1 ISZERO PUSH2 0x4133 JUMPI PUSH1 0x0 DUP1 REVERT JUMPDEST POP GAS CALL SWAP3 POP POP POP DUP1 ISZERO PUSH2 0x4158 JUMPI POP PUSH1 0x40 MLOAD RETURNDATASIZE PUSH1 0x20 DUP2 LT ISZERO PUSH2 0x4153 JUMPI PUSH1 0x0 DUP1 REVERT JUMPDEST POP MLOAD PUSH1 0x1 JUMPDEST PUSH2 0x4164 JUMPI PUSH2 0x399C PUSH2 0x536C JUMP JUMPDEST PUSH1 0x1 PUSH1 0x1 PUSH1 0xE0 SHL SUB NOT DUP2 AND PUSH4 0xF23A6E61 PUSH1 0xE0 SHL EQ PUSH2 0x375E JUMPI PUSH1 0x40 MLOAD PUSH3 0x461BCD PUSH1 0xE5 SHL DUP2 MSTORE PUSH1 0x4 ADD DUP1 DUP1 PUSH1 0x20 ADD DUP3 DUP2 SUB DUP3 MSTORE PUSH1 0x28 DUP2 MSTORE PUSH1 0x20 ADD DUP1 PUSH2 0x5468 PUSH1 0x28 SWAP2 CODECOPY PUSH1 0x40 ADD SWAP2 POP POP PUSH1 0x40 MLOAD DUP1 SWAP2 SUB SWAP1 REVERT JUMPDEST PUSH1 0x0 DUP1 PUSH1 0x1 PUSH2 0x41DA PUSH1 0x64 PUSH2 0x254B PUSH1 0x2 PUSH2 0x41D4 DUP9 PUSH8 0xDE0B6B3A7640000 PUSH2 0x3CD3 JUMP JUMPDEST SWAP1 PUSH2 0x3CD3 JUMP JUMPDEST SWAP2 POP PUSH2 0x41FD PUSH2 0x41F6 PUSH1 0xA PUSH2 0x254B DUP5 PUSH8 0xDE0B6B3A7640000 PUSH2 0x3CD3 JUMP JUMPDEST DUP4 SWAP1 PUSH2 0x3478 JUMP JUMPDEST SWAP5 SWAP4 POP POP POP POP JUMP JUMPDEST PUSH1 0x0 PUSH2 0x4211 DUP4 DUP4 PUSH2 0x424F JUMP JUMPDEST PUSH2 0x4247 JUMPI POP DUP2 SLOAD PUSH1 0x1 DUP2 DUP2 ADD DUP5 SSTORE PUSH1 0x0 DUP5 DUP2 MSTORE PUSH1 0x20 DUP1 DUP3 KECCAK256 SWAP1 SWAP4 ADD DUP5 SWAP1 SSTORE DUP5 SLOAD DUP5 DUP3 MSTORE DUP3 DUP7 ADD SWAP1 SWAP4 MSTORE PUSH1 0x40 SWAP1 KECCAK256 SWAP2 SWAP1 SWAP2 SSTORE PUSH2 0x136E JUMP JUMPDEST POP PUSH1 0x0 PUSH2 0x136E JUMP JUMPDEST PUSH1 0x0 SWAP1 DUP2 MSTORE PUSH1 0x1 SWAP2 SWAP1 SWAP2 ADD PUSH1 0x20 MSTORE PUSH1 0x40 SWAP1 KECCAK256 SLOAD ISZERO ISZERO SWAP1 JUMP JUMPDEST EXTCODESIZE ISZERO ISZERO SWAP1 JUMP JUMPDEST PUSH1 0x0 PUSH2 0x2AD8 DUP4 PUSH1 0x1 PUSH1 0x1 PUSH1 0xA0 SHL SUB DUP5 AND PUSH2 0x4DB7 JUMP JUMPDEST PUSH1 0x0 PUSH32 0x0 PUSH1 0x1 PUSH1 0x1 PUSH1 0xA0 SHL SUB AND PUSH4 0x4000AEA0 PUSH32 0x0 DUP6 DUP8 DUP7 PUSH1 0x40 MLOAD PUSH1 0x20 ADD DUP1 DUP4 DUP2 MSTORE PUSH1 0x20 ADD DUP3 DUP2 MSTORE PUSH1 0x20 ADD SWAP3 POP POP POP PUSH1 0x40 MLOAD PUSH1 0x20 DUP2 DUP4 SUB SUB DUP2 MSTORE SWAP1 PUSH1 0x40 MSTORE PUSH1 0x40 MLOAD DUP5 PUSH4 0xFFFFFFFF AND PUSH1 0xE0 SHL DUP2 MSTORE PUSH1 0x4 ADD DUP1 DUP5 PUSH1 0x1 PUSH1 0x1 PUSH1 0xA0 SHL SUB AND DUP2 MSTORE PUSH1 0x20 ADD DUP4 DUP2 MSTORE PUSH1 0x20 ADD DUP1 PUSH1 0x20 ADD DUP3 DUP2 SUB DUP3 MSTORE DUP4 DUP2 DUP2 MLOAD DUP2 MSTORE PUSH1 0x20 ADD SWAP2 POP DUP1 MLOAD SWAP1 PUSH1 0x20 ADD SWAP1 DUP1 DUP4 DUP4 PUSH1 0x0 JUMPDEST DUP4 DUP2 LT ISZERO PUSH2 0x435E JUMPI DUP2 DUP2 ADD MLOAD DUP4 DUP3 ADD MSTORE PUSH1 0x20 ADD PUSH2 0x4346 JUMP JUMPDEST POP POP POP POP SWAP1 POP SWAP1 DUP2 ADD SWAP1 PUSH1 0x1F AND DUP1 ISZERO PUSH2 0x438B JUMPI DUP1 DUP3 SUB DUP1 MLOAD PUSH1 0x1 DUP4 PUSH1 0x20 SUB PUSH2 0x100 EXP SUB NOT AND DUP2 MSTORE PUSH1 0x20 ADD SWAP2 POP JUMPDEST POP SWAP5 POP POP POP POP POP PUSH1 0x20 PUSH1 0x40 MLOAD DUP1 DUP4 SUB DUP2 PUSH1 0x0 DUP8 DUP1 EXTCODESIZE ISZERO DUP1 ISZERO PUSH2 0x43AC JUMPI PUSH1 0x0 DUP1 REVERT JUMPDEST POP GAS CALL ISZERO DUP1 ISZERO PUSH2 0x43C0 JUMPI RETURNDATASIZE PUSH1 0x0 DUP1 RETURNDATACOPY RETURNDATASIZE PUSH1 0x0 REVERT JUMPDEST POP POP POP POP PUSH1 0x40 MLOAD RETURNDATASIZE PUSH1 0x20 DUP2 LT ISZERO PUSH2 0x43D6 JUMPI PUSH1 0x0 DUP1 REVERT JUMPDEST POP POP PUSH1 0x0 DUP5 DUP2 MSTORE PUSH1 0x5 PUSH1 0x20 MSTORE PUSH1 0x40 DUP2 KECCAK256 SLOAD PUSH2 0x43F6 SWAP1 DUP7 SWAP1 DUP6 SWAP1 ADDRESS SWAP1 PUSH2 0x4E7D JUMP JUMPDEST PUSH1 0x0 DUP7 DUP2 MSTORE PUSH1 0x5 PUSH1 0x20 MSTORE PUSH1 0x40 SWAP1 KECCAK256 SLOAD SWAP1 SWAP2 POP PUSH2 0x4413 SWAP1 PUSH1 0x1 PUSH2 0x3478 JUMP JUMPDEST PUSH1 0x0 DUP7 DUP2 MSTORE PUSH1 0x5 PUSH1 0x20 MSTORE PUSH1 0x40 SWAP1 KECCAK256 SSTORE PUSH2 0x3445 DUP6 DUP3 PUSH2 0x4EC4 JUMP JUMPDEST DUP2 SLOAD PUSH1 0x0 SWAP1 DUP3 LT PUSH2 0x446E JUMPI PUSH1 0x40 MLOAD PUSH3 0x461BCD PUSH1 0xE5 SHL DUP2 MSTORE PUSH1 0x4 ADD DUP1 DUP1 PUSH1 0x20 ADD DUP3 DUP2 SUB DUP3 MSTORE PUSH1 0x22 DUP2 MSTORE PUSH1 0x20 ADD DUP1 PUSH2 0x5446 PUSH1 0x22 SWAP2 CODECOPY PUSH1 0x40 ADD SWAP2 POP POP PUSH1 0x40 MLOAD DUP1 SWAP2 SUB SWAP1 REVERT JUMPDEST DUP3 PUSH1 0x0 ADD DUP3 DUP2 SLOAD DUP2 LT PUSH2 0x447D JUMPI INVALID JUMPDEST SWAP1 PUSH1 0x0 MSTORE PUSH1 0x20 PUSH1 0x0 KECCAK256 ADD SLOAD SWAP1 POP SWAP3 SWAP2 POP POP JUMP JUMPDEST PUSH1 0x0 DUP2 DUP2 MSTORE PUSH1 0x1A PUSH1 0x20 MSTORE PUSH1 0x40 SWAP1 KECCAK256 SLOAD PUSH1 0x7 DUP2 GT PUSH2 0x44AC JUMPI PUSH1 0x0 DUP1 REVERT JUMPDEST PUSH1 0x0 DUP2 DUP2 MSTORE PUSH1 0x12 PUSH1 0x20 MSTORE PUSH1 0x40 SWAP1 KECCAK256 SLOAD PUSH1 0xFF AND PUSH2 0x44C7 JUMPI PUSH1 0x0 DUP1 REVERT JUMPDEST PUSH1 0x0 DUP3 DUP2 MSTORE PUSH1 0x1A PUSH1 0x20 SWAP1 DUP2 MSTORE PUSH1 0x40 DUP1 DUP4 KECCAK256 SLOAD PUSH1 0x1B DUP4 MSTORE DUP2 DUP5 KECCAK256 SLOAD DUP2 DUP6 MSTORE PUSH1 0x12 SWAP1 SWAP4 MSTORE SWAP1 DUP4 KECCAK256 PUSH1 0x8 ADD DUP1 SLOAD PUSH10 0xFF000000000000000000 NOT AND PUSH1 0x1 PUSH1 0x48 SHL OR SWAP1 SSTORE SWAP2 PUSH2 0x4512 PUSH1 0x2 DUP4 PUSH2 0x4EF0 JUMP JUMPDEST PUSH1 0x0 DUP6 DUP2 MSTORE PUSH1 0x12 PUSH1 0x20 MSTORE PUSH1 0x40 SWAP1 KECCAK256 PUSH1 0x8 ADD DUP1 SLOAD PUSH1 0xFF NOT AND PUSH1 0xFF SWAP4 SWAP1 SWAP4 AND SWAP3 SWAP1 SWAP3 OR SWAP1 SWAP2 SSTORE SWAP1 POP PUSH2 0x4543 PUSH1 0x4 DUP3 PUSH2 0x4EF0 JUMP JUMPDEST PUSH1 0x0 DUP6 DUP2 MSTORE PUSH1 0x12 PUSH1 0x20 MSTORE PUSH1 0x40 SWAP1 KECCAK256 PUSH1 0x8 ADD DUP1 SLOAD PUSH1 0xFF SWAP1 SWAP4 AND PUSH2 0x100 MUL PUSH2 0xFF00 NOT SWAP1 SWAP4 AND SWAP3 SWAP1 SWAP3 OR SWAP1 SWAP2 SSTORE SWAP1 POP PUSH2 0x457A PUSH1 0x4 DUP3 PUSH2 0x4EF0 JUMP JUMPDEST PUSH1 0x0 DUP6 DUP2 MSTORE PUSH1 0x12 PUSH1 0x20 MSTORE PUSH1 0x40 SWAP1 KECCAK256 PUSH1 0x8 ADD DUP1 SLOAD PUSH1 0xFF SWAP1 SWAP4 AND PUSH3 0x10000 MUL PUSH3 0xFF0000 NOT SWAP1 SWAP4 AND SWAP3 SWAP1 SWAP3 OR SWAP1 SWAP2 SSTORE SWAP1 POP PUSH2 0x45B3 PUSH1 0x4 DUP3 PUSH2 0x4EF0 JUMP JUMPDEST PUSH1 0x0 DUP6 DUP2 MSTORE PUSH1 0x12 PUSH1 0x20 MSTORE PUSH1 0x40 SWAP1 KECCAK256 PUSH1 0x8 ADD DUP1 SLOAD PUSH1 0xFF SWAP1 SWAP4 AND PUSH4 0x1000000 MUL PUSH4 0xFF000000 NOT SWAP1 SWAP4 AND SWAP3 SWAP1 SWAP3 OR SWAP1 SWAP2 SSTORE SWAP1 POP PUSH2 0x45EE PUSH1 0x4 DUP3 PUSH2 0x4EF0 JUMP JUMPDEST PUSH1 0x0 DUP6 DUP2 MSTORE PUSH1 0x12 PUSH1 0x20 MSTORE PUSH1 0x40 SWAP1 KECCAK256 PUSH1 0x8 ADD DUP1 SLOAD PUSH1 0xFF SWAP1 SWAP4 AND PUSH1 0x1 PUSH1 0x20 SHL MUL PUSH5 0xFF00000000 NOT SWAP1 SWAP4 AND SWAP3 SWAP1 SWAP3 OR SWAP1 SWAP2 SSTORE SWAP1 POP PUSH2 0x462A PUSH1 0x9 DUP3 PUSH2 0x4EF0 JUMP JUMPDEST PUSH1 0x0 DUP6 DUP2 MSTORE PUSH1 0x12 PUSH1 0x20 MSTORE PUSH1 0x40 SWAP1 KECCAK256 PUSH1 0x8 ADD DUP1 SLOAD PUSH1 0xFF SWAP1 SWAP4 AND PUSH6 0x10000000000 MUL PUSH6 0xFF0000000000 NOT SWAP1 SWAP4 AND SWAP3 SWAP1 SWAP3 OR SWAP1 SWAP2 SSTORE SWAP1 POP PUSH2 0x4669 PUSH1 0x1E DUP3 PUSH2 0x4EF0 JUMP JUMPDEST PUSH1 0x0 DUP6 DUP2 MSTORE PUSH1 0x12 PUSH1 0x20 MSTORE PUSH1 0x40 SWAP1 KECCAK256 PUSH1 0x8 ADD DUP1 SLOAD PUSH1 0xFF SWAP1 SWAP4 AND PUSH7 0x1000000000000 MUL PUSH7 0xFF000000000000 NOT SWAP1 SWAP4 AND SWAP3 SWAP1 SWAP3 OR SWAP1 SWAP2 SSTORE SWAP1 POP PUSH2 0x46AA PUSH1 0x18 DUP3 PUSH2 0x4EF0 JUMP JUMPDEST PUSH1 0x0 DUP6 DUP2 MSTORE PUSH1 0x12 PUSH1 0x20 MSTORE PUSH1 0x40 SWAP1 KECCAK256 PUSH1 0x8 ADD DUP1 SLOAD PUSH1 0xFF SWAP1 SWAP4 AND PUSH1 0x1 PUSH1 0x38 SHL MUL PUSH8 0xFF00000000000000 NOT SWAP1 SWAP4 AND SWAP3 SWAP1 SWAP3 OR SWAP1 SWAP2 SSTORE SWAP1 POP PUSH2 0x46E9 PUSH1 0x7 DUP3 PUSH2 0x4EF0 JUMP JUMPDEST PUSH1 0x0 DUP6 DUP2 MSTORE PUSH1 0x12 PUSH1 0x20 MSTORE PUSH1 0x40 SWAP1 KECCAK256 PUSH1 0x8 ADD DUP1 SLOAD PUSH1 0xFF SWAP1 SWAP4 AND PUSH1 0x1 PUSH1 0x40 SHL MUL PUSH9 0xFF0000000000000000 NOT SWAP1 SWAP4 AND SWAP3 SWAP1 SWAP3 OR SWAP1 SWAP2 SSTORE SWAP1 POP PUSH2 0x4729 PUSH1 0x15 DUP3 PUSH2 0x4EF0 JUMP JUMPDEST PUSH1 0x0 DUP6 DUP2 MSTORE PUSH1 0x12 PUSH1 0x20 MSTORE PUSH1 0x40 SWAP1 KECCAK256 PUSH1 0x8 ADD DUP1 SLOAD PUSH1 0xFF PUSH1 0x50 SHL NOT AND PUSH1 0x1 PUSH1 0x50 SHL PUSH1 0xFF SWAP5 DUP6 AND DUP2 MUL SWAP2 SWAP1 SWAP2 OR SWAP2 DUP3 SWAP1 SSTORE SWAP2 SWAP4 POP PUSH2 0x4769 SWAP3 SWAP2 SWAP1 DIV AND PUSH1 0x9 PUSH2 0x3478 JUMP JUMPDEST PUSH1 0x0 DUP5 DUP2 MSTORE PUSH1 0x12 PUSH1 0x20 MSTORE PUSH1 0x40 SWAP1 KECCAK256 PUSH1 0x8 ADD DUP1 SLOAD PUSH1 0xFF SWAP3 SWAP1 SWAP3 AND PUSH1 0x1 PUSH1 0x50 SHL MUL PUSH1 0xFF PUSH1 0x50 SHL NOT SWAP1 SWAP3 AND SWAP2 SWAP1 SWAP2 OR SWAP1 SSTORE PUSH2 0x47A2 PUSH1 0x15 DUP3 PUSH2 0x4EF0 JUMP JUMPDEST PUSH1 0x0 DUP6 DUP2 MSTORE PUSH1 0x12 PUSH1 0x20 MSTORE PUSH1 0x40 SWAP1 KECCAK256 PUSH1 0x8 ADD DUP1 SLOAD PUSH1 0xFF PUSH1 0x58 SHL NOT AND PUSH1 0x1 PUSH1 0x58 SHL PUSH1 0xFF SWAP5 DUP6 AND DUP2 MUL SWAP2 SWAP1 SWAP2 OR SWAP2 DUP3 SWAP1 SSTORE SWAP2 SWAP4 POP PUSH2 0x47E2 SWAP3 SWAP2 SWAP1 DIV AND PUSH1 0x9 PUSH2 0x3478 JUMP JUMPDEST PUSH1 0x0 DUP5 DUP2 MSTORE PUSH1 0x12 PUSH1 0x20 MSTORE PUSH1 0x40 SWAP1 KECCAK256 PUSH1 0x8 ADD DUP1 SLOAD PUSH1 0xFF SWAP3 SWAP1 SWAP3 AND PUSH1 0x1 PUSH1 0x58 SHL MUL PUSH1 0xFF PUSH1 0x58 SHL NOT SWAP1 SWAP3 AND SWAP2 SWAP1 SWAP2 OR SWAP1 SSTORE PUSH2 0x481B PUSH1 0x1F DUP3 PUSH2 0x4EF0 JUMP JUMPDEST PUSH1 0x0 DUP6 DUP2 MSTORE PUSH1 0x12 PUSH1 0x20 MSTORE PUSH1 0x40 SWAP1 KECCAK256 PUSH1 0x8 ADD DUP1 SLOAD PUSH1 0xFF PUSH1 0x60 SHL NOT AND PUSH1 0x1 PUSH1 0x60 SHL PUSH1 0xFF SWAP5 DUP6 AND DUP2 MUL SWAP2 SWAP1 SWAP2 OR SWAP2 DUP3 SWAP1 SSTORE SWAP2 SWAP4 POP PUSH2 0x485B SWAP3 SWAP2 SWAP1 DIV AND PUSH1 0x9 PUSH2 0x3478 JUMP JUMPDEST PUSH1 0x0 DUP5 DUP2 MSTORE PUSH1 0x12 PUSH1 0x20 MSTORE PUSH1 0x40 SWAP1 KECCAK256 PUSH1 0x8 ADD DUP1 SLOAD PUSH1 0xFF SWAP3 SWAP1 SWAP3 AND PUSH1 0x1 PUSH1 0x60 SHL MUL PUSH1 0xFF PUSH1 0x60 SHL NOT SWAP1 SWAP3 AND SWAP2 SWAP1 SWAP2 OR SWAP1 SSTORE PUSH2 0x4894 PUSH1 0x10 DUP3 PUSH2 0x4EF0 JUMP JUMPDEST PUSH1 0x0 DUP6 DUP2 MSTORE PUSH1 0x12 PUSH1 0x20 MSTORE PUSH1 0x40 SWAP1 KECCAK256 PUSH1 0x8 ADD DUP1 SLOAD PUSH1 0xFF PUSH1 0x68 SHL NOT AND PUSH1 0x1 PUSH1 0x68 SHL PUSH1 0xFF SWAP5 DUP6 AND DUP2 MUL SWAP2 SWAP1 SWAP2 OR SWAP2 DUP3 SWAP1 SSTORE SWAP2 SWAP4 POP PUSH2 0x48D4 SWAP3 SWAP2 SWAP1 DIV AND PUSH1 0x2 PUSH2 0x3478 JUMP JUMPDEST PUSH1 0x0 DUP5 DUP2 MSTORE PUSH1 0x12 PUSH1 0x20 MSTORE PUSH1 0x40 SWAP1 KECCAK256 PUSH1 0x8 ADD DUP1 SLOAD PUSH1 0xFF SWAP3 SWAP1 SWAP3 AND PUSH1 0x1 PUSH1 0x68 SHL MUL PUSH1 0xFF PUSH1 0x68 SHL NOT SWAP1 SWAP3 AND SWAP2 SWAP1 SWAP2 OR SWAP1 SSTORE PUSH2 0x490D PUSH1 0x10 DUP3 PUSH2 0x4EF0 JUMP JUMPDEST PUSH1 0x0 DUP6 DUP2 MSTORE PUSH1 0x12 PUSH1 0x20 MSTORE PUSH1 0x40 SWAP1 KECCAK256 PUSH1 0x8 ADD DUP1 SLOAD PUSH1 0xFF PUSH1 0x70 SHL NOT AND PUSH1 0x1 PUSH1 0x70 SHL PUSH1 0xFF SWAP5 DUP6 AND DUP2 MUL SWAP2 SWAP1 SWAP2 OR SWAP2 DUP3 SWAP1 SSTORE SWAP2 SWAP4 POP PUSH2 0x494D SWAP3 SWAP2 SWAP1 DIV AND PUSH1 0x2 PUSH2 0x3478 JUMP JUMPDEST PUSH1 0x0 DUP5 DUP2 MSTORE PUSH1 0x12 PUSH1 0x20 MSTORE PUSH1 0x40 SWAP1 KECCAK256 PUSH1 0x8 ADD DUP1 SLOAD PUSH1 0xFF SWAP3 SWAP1 SWAP3 AND PUSH1 0x1 PUSH1 0x70 SHL MUL PUSH1 0xFF PUSH1 0x70 SHL NOT SWAP1 SWAP3 AND SWAP2 SWAP1 SWAP2 OR SWAP1 SSTORE PUSH2 0x4986 PUSH1 0x10 DUP3 PUSH2 0x4EF0 JUMP JUMPDEST PUSH1 0x0 DUP6 DUP2 MSTORE PUSH1 0x12 PUSH1 0x20 MSTORE PUSH1 0x40 SWAP1 KECCAK256 PUSH1 0x8 ADD DUP1 SLOAD PUSH1 0xFF PUSH1 0x78 SHL NOT AND PUSH1 0x1 PUSH1 0x78 SHL PUSH1 0xFF SWAP5 DUP6 AND DUP2 MUL SWAP2 SWAP1 SWAP2 OR SWAP2 DUP3 SWAP1 SSTORE SWAP2 SWAP4 POP PUSH2 0x49C6 SWAP3 SWAP2 SWAP1 DIV AND PUSH1 0x2 PUSH2 0x3478 JUMP JUMPDEST PUSH1 0x0 DUP5 DUP2 MSTORE PUSH1 0x12 PUSH1 0x20 MSTORE PUSH1 0x40 SWAP1 KECCAK256 PUSH1 0x8 ADD DUP1 SLOAD PUSH1 0xFF SWAP3 SWAP1 SWAP3 AND PUSH1 0x1 PUSH1 0x78 SHL MUL PUSH1 0xFF PUSH1 0x78 SHL NOT SWAP1 SWAP3 AND SWAP2 SWAP1 SWAP2 OR SWAP1 SSTORE PUSH2 0x49FF PUSH1 0x10 DUP3 PUSH2 0x4EF0 JUMP JUMPDEST PUSH1 0x0 DUP6 DUP2 MSTORE PUSH1 0x12 PUSH1 0x20 MSTORE PUSH1 0x40 SWAP1 KECCAK256 PUSH1 0x8 ADD DUP1 SLOAD PUSH1 0xFF PUSH1 0x80 SHL NOT AND PUSH1 0x1 PUSH1 0x80 SHL PUSH1 0xFF SWAP5 DUP6 AND DUP2 MUL SWAP2 SWAP1 SWAP2 OR SWAP2 DUP3 SWAP1 SSTORE SWAP2 SWAP4 POP PUSH2 0x4A3F SWAP3 SWAP2 SWAP1 DIV AND PUSH1 0x2 PUSH2 0x3478 JUMP JUMPDEST PUSH1 0x0 DUP5 DUP2 MSTORE PUSH1 0x12 PUSH1 0x20 MSTORE PUSH1 0x40 SWAP1 KECCAK256 PUSH1 0x8 ADD DUP1 SLOAD PUSH1 0xFF SWAP3 SWAP1 SWAP3 AND PUSH1 0x1 PUSH1 0x80 SHL MUL PUSH1 0xFF PUSH1 0x80 SHL NOT SWAP1 SWAP3 AND SWAP2 SWAP1 SWAP2 OR SWAP1 SSTORE PUSH2 0x4A78 PUSH1 0x10 DUP3 PUSH2 0x4EF0 JUMP JUMPDEST PUSH1 0x0 DUP6 DUP2 MSTORE PUSH1 0x12 PUSH1 0x20 MSTORE PUSH1 0x40 SWAP1 KECCAK256 PUSH1 0x8 ADD DUP1 SLOAD PUSH1 0xFF PUSH1 0x88 SHL NOT AND PUSH1 0x1 PUSH1 0x88 SHL PUSH1 0xFF SWAP5 DUP6 AND DUP2 MUL SWAP2 SWAP1 SWAP2 OR SWAP2 DUP3 SWAP1 SSTORE SWAP2 SWAP4 POP PUSH2 0x4AB8 SWAP3 SWAP2 SWAP1 DIV AND PUSH1 0x2 PUSH2 0x3478 JUMP JUMPDEST PUSH1 0x0 DUP5 DUP2 MSTORE PUSH1 0x12 PUSH1 0x20 MSTORE PUSH1 0x40 SWAP1 KECCAK256 PUSH1 0x8 ADD DUP1 SLOAD PUSH1 0xFF SWAP3 SWAP1 SWAP3 AND PUSH1 0x1 PUSH1 0x88 SHL MUL PUSH1 0xFF PUSH1 0x88 SHL NOT SWAP1 SWAP3 AND SWAP2 SWAP1 SWAP2 OR SWAP1 SSTORE PUSH2 0x4AF1 PUSH1 0x10 DUP3 PUSH2 0x4EF0 JUMP JUMPDEST PUSH1 0x0 DUP6 DUP2 MSTORE PUSH1 0x12 PUSH1 0x20 MSTORE PUSH1 0x40 SWAP1 KECCAK256 PUSH1 0x8 ADD DUP1 SLOAD PUSH1 0xFF PUSH1 0x90 SHL NOT AND PUSH1 0x1 PUSH1 0x90 SHL PUSH1 0xFF SWAP5 DUP6 AND DUP2 MUL SWAP2 SWAP1 SWAP2 OR SWAP2 DUP3 SWAP1 SSTORE SWAP2 SWAP4 POP PUSH2 0x4B31 SWAP3 SWAP2 SWAP1 DIV AND PUSH1 0x2 PUSH2 0x3478 JUMP JUMPDEST PUSH1 0x0 SWAP4 DUP5 MSTORE PUSH1 0x12 PUSH1 0x20 MSTORE PUSH1 0x40 SWAP1 SWAP4 KECCAK256 PUSH1 0x8 ADD DUP1 SLOAD PUSH1 0xFF SWAP5 SWAP1 SWAP5 AND PUSH1 0x1 PUSH1 0x90 SHL MUL PUSH1 0xFF PUSH1 0x90 SHL NOT SWAP1 SWAP5 AND SWAP4 SWAP1 SWAP4 OR SWAP1 SWAP3 SSTORE POP POP POP POP JUMP JUMPDEST PUSH1 0x1E SLOAD PUSH1 0x40 DUP1 MLOAD DUP1 DUP3 ADD DUP3 MSTORE PUSH1 0xA DUP2 MSTORE PUSH10 0x50524943455F57415253 PUSH1 0xB0 SHL PUSH1 0x20 DUP1 DUP4 ADD SWAP2 DUP3 MSTORE SWAP3 MLOAD PUSH4 0x6CADCD79 PUSH1 0xE1 SHL DUP2 MSTORE PUSH1 0x4 DUP2 ADD SWAP4 DUP5 MSTORE DUP3 MLOAD PUSH1 0x24 DUP3 ADD MSTORE DUP3 MLOAD PUSH1 0x0 SWAP6 PUSH1 0x1 PUSH1 0x1 PUSH1 0xA0 SHL SUB AND SWAP5 PUSH4 0xD95B9AF2 SWAP5 SWAP4 SWAP1 SWAP3 DUP4 SWAP3 PUSH1 0x44 SWAP1 SWAP2 ADD SWAP2 SWAP1 DUP1 DUP4 DUP4 DUP12 JUMPDEST DUP4 DUP2 LT ISZERO PUSH2 0x4BE5 JUMPI DUP2 DUP2 ADD MLOAD DUP4 DUP3 ADD MSTORE PUSH1 0x20 ADD PUSH2 0x4BCD JUMP JUMPDEST POP POP POP POP SWAP1 POP SWAP1 DUP2 ADD SWAP1 PUSH1 0x1F AND DUP1 ISZERO PUSH2 0x4C12 JUMPI DUP1 DUP3 SUB DUP1 MLOAD PUSH1 0x1 DUP4 PUSH1 0x20 SUB PUSH2 0x100 EXP SUB NOT AND DUP2 MSTORE PUSH1 0x20 ADD SWAP2 POP JUMPDEST POP SWAP3 POP POP POP PUSH1 0x20 PUSH1 0x40 MLOAD DUP1 DUP4 SUB DUP2 PUSH1 0x0 DUP8 DUP1 EXTCODESIZE ISZERO DUP1 ISZERO PUSH2 0x4C31 JUMPI PUSH1 0x0 DUP1 REVERT JUMPDEST POP GAS CALL ISZERO DUP1 ISZERO PUSH2 0x4C45 JUMPI RETURNDATASIZE PUSH1 0x0 DUP1 RETURNDATACOPY RETURNDATASIZE PUSH1 0x0 REVERT JUMPDEST POP POP POP POP PUSH1 0x40 MLOAD RETURNDATASIZE PUSH1 0x20 DUP2 LT ISZERO PUSH2 0x4C5B JUMPI PUSH1 0x0 DUP1 REVERT JUMPDEST POP MLOAD PUSH1 0x40 DUP1 MLOAD PUSH4 0x72D7F665 PUSH1 0xE1 SHL DUP2 MSTORE ADDRESS PUSH1 0x4 DUP3 ADD MSTORE SWAP1 MLOAD SWAP2 SWAP3 POP DUP3 SWAP2 PUSH1 0x0 SWAP2 PUSH1 0x1 PUSH1 0x1 PUSH1 0xA0 SHL SUB DUP5 AND SWAP2 PUSH4 0xE5AFECCA SWAP2 PUSH1 0x24 DUP1 DUP3 ADD SWAP3 PUSH1 0x20 SWAP3 SWAP1 SWAP2 SWAP1 DUP3 SWAP1 SUB ADD DUP2 DUP8 DUP8 DUP1 EXTCODESIZE ISZERO DUP1 ISZERO PUSH2 0x4CAD JUMPI PUSH1 0x0 DUP1 REVERT JUMPDEST POP GAS CALL ISZERO DUP1 ISZERO PUSH2 0x4CC1 JUMPI RETURNDATASIZE PUSH1 0x0 DUP1 RETURNDATACOPY RETURNDATASIZE PUSH1 0x0 REVERT JUMPDEST POP POP POP POP PUSH1 0x40 MLOAD RETURNDATASIZE PUSH1 0x20 DUP2 LT ISZERO PUSH2 0x4CD7 JUMPI PUSH1 0x0 DUP1 REVERT JUMPDEST POP MLOAD SWAP1 POP PUSH2 0x4D05 PUSH32 0xAE0C232B87105E0A8134F8B92146DCD1D99373D32394BE9D70F700F90B3A3DB3 DUP3 PUSH2 0x1CC9 JUMP JUMPDEST DUP1 PUSH1 0x1 PUSH1 0x1 PUSH1 0xA0 SHL SUB AND PUSH4 0xD65AB5F2 PUSH1 0x40 MLOAD DUP2 PUSH4 0xFFFFFFFF AND PUSH1 0xE0 SHL DUP2 MSTORE PUSH1 0x4 ADD PUSH1 0x0 PUSH1 0x40 MLOAD DUP1 DUP4 SUB DUP2 PUSH1 0x0 DUP8 DUP1 EXTCODESIZE ISZERO DUP1 ISZERO PUSH2 0x4D40 JUMPI PUSH1 0x0 DUP1 REVERT JUMPDEST POP GAS CALL ISZERO DUP1 ISZERO PUSH2 0x375E JUMPI RETURNDATASIZE PUSH1 0x0 DUP1 RETURNDATACOPY RETURNDATASIZE PUSH1 0x0 REVERT JUMPDEST PUSH1 0x1 JUMPDEST PUSH1 0x7 DUP2 GT PUSH2 0x4D87 JUMPI PUSH1 0x0 DUP2 DUP2 MSTORE PUSH1 0xF PUSH1 0x20 MSTORE PUSH1 0x40 SWAP1 KECCAK256 SLOAD PUSH1 0xFF AND ISZERO PUSH2 0x4D7F JUMPI PUSH2 0x4D7F DUP2 PUSH2 0x4F21 JUMP JUMPDEST PUSH1 0x1 ADD PUSH2 0x4D57 JUMP JUMPDEST POP PUSH1 0x40 MLOAD PUSH32 0x143B2C36FAC98F86168603D28D499BDE9CE0367D41E111CEF9F2ECBC9EEABFC SWAP1 PUSH1 0x0 SWAP1 LOG1 JUMP JUMPDEST SLOAD SWAP1 JUMP JUMPDEST PUSH1 0x0 DUP2 DUP2 MSTORE PUSH1 0x1 DUP4 ADD PUSH1 0x20 MSTORE PUSH1 0x40 DUP2 KECCAK256 SLOAD DUP1 ISZERO PUSH2 0x4E73 JUMPI DUP4 SLOAD PUSH1 0x0 NOT DUP1 DUP4 ADD SWAP2 SWAP1 DUP2 ADD SWAP1 PUSH1 0x0 SWAP1 DUP8 SWAP1 DUP4 SWAP1 DUP2 LT PUSH2 0x4DEA JUMPI INVALID JUMPDEST SWAP1 PUSH1 0x0 MSTORE PUSH1 0x20 PUSH1 0x0 KECCAK256 ADD SLOAD SWAP1 POP DUP1 DUP8 PUSH1 0x0 ADD DUP5 DUP2 SLOAD DUP2 LT PUSH2 0x4E07 JUMPI INVALID JUMPDEST PUSH1 0x0 SWAP2 DUP3 MSTORE PUSH1 0x20 DUP1 DUP4 KECCAK256 SWAP1 SWAP2 ADD SWAP3 SWAP1 SWAP3 SSTORE DUP3 DUP2 MSTORE PUSH1 0x1 DUP10 DUP2 ADD SWAP1 SWAP3 MSTORE PUSH1 0x40 SWAP1 KECCAK256 SWAP1 DUP5 ADD SWAP1 SSTORE DUP7 SLOAD DUP8 SWAP1 DUP1 PUSH2 0x4E37 JUMPI INVALID JUMPDEST PUSH1 0x1 SWAP1 SUB DUP2 DUP2 SWAP1 PUSH1 0x0 MSTORE PUSH1 0x20 PUSH1 0x0 KECCAK256 ADD PUSH1 0x0 SWAP1 SSTORE SWAP1 SSTORE DUP7 PUSH1 0x1 ADD PUSH1 0x0 DUP8 DUP2 MSTORE PUSH1 0x20 ADD SWAP1 DUP2 MSTORE PUSH1 0x20 ADD PUSH1 0x0 KECCAK256 PUSH1 0x0 SWAP1 SSTORE PUSH1 0x1 SWAP5 POP POP POP POP POP PUSH2 0x136E JUMP JUMPDEST PUSH1 0x0 SWAP2 POP POP PUSH2 0x136E JUMP JUMPDEST PUSH1 0x40 DUP1 MLOAD PUSH1 0x20 DUP1 DUP3 ADD SWAP7 SWAP1 SWAP7 MSTORE DUP1 DUP3 ADD SWAP5 SWAP1 SWAP5 MSTORE PUSH1 0x1 PUSH1 0x1 PUSH1 0xA0 SHL SUB SWAP3 SWAP1 SWAP3 AND PUSH1 0x60 DUP5 ADD MSTORE PUSH1 0x80 DUP1 DUP5 ADD SWAP2 SWAP1 SWAP2 MSTORE DUP2 MLOAD DUP1 DUP5 SUB SWAP1 SWAP2 ADD DUP2 MSTORE PUSH1 0xA0 SWAP1 SWAP3 ADD SWAP1 MSTORE DUP1 MLOAD SWAP2 ADD KECCAK256 SWAP1 JUMP JUMPDEST PUSH1 0x40 DUP1 MLOAD PUSH1 0x20 DUP1 DUP3 ADD SWAP5 SWAP1 SWAP5 MSTORE DUP1 DUP3 ADD SWAP3 SWAP1 SWAP3 MSTORE DUP1 MLOAD DUP1 DUP4 SUB DUP3 ADD DUP2 MSTORE PUSH1 0x60 SWAP1 SWAP3 ADD SWAP1 MSTORE DUP1 MLOAD SWAP2 ADD KECCAK256 SWAP1 JUMP JUMPDEST PUSH1 0x0 DUP1 PUSH2 0x4F0B PUSH1 0x1 PUSH2 0x4F05 DUP6 PUSH1 0xFF DUP9 AND PUSH2 0x4FBD JUMP JUMPDEST SWAP1 PUSH2 0x3478 JUMP JUMPDEST PUSH2 0x4F16 DUP5 PUSH1 0xA PUSH2 0x3D2C JUMP JUMPDEST SWAP2 POP SWAP2 POP SWAP3 POP SWAP3 SWAP1 POP JUMP JUMPDEST DUP1 PUSH1 0x0 DUP2 GT DUP1 ISZERO PUSH2 0x4F33 JUMPI POP PUSH1 0x7 DUP2 GT ISZERO JUMPDEST PUSH2 0x4F3C JUMPI PUSH1 0x0 DUP1 REVERT JUMPDEST PUSH1 0x0 DUP3 DUP2 MSTORE PUSH1 0xF PUSH1 0x20 MSTORE PUSH1 0x40 SWAP1 KECCAK256 SLOAD PUSH1 0xFF AND PUSH2 0x4F57 JUMPI PUSH1 0x0 DUP1 REVERT JUMPDEST PUSH1 0x0 DUP3 DUP2 MSTORE PUSH1 0xE PUSH1 0x20 MSTORE PUSH1 0x40 SWAP1 KECCAK256 SLOAD PUSH2 0x4F7B SWAP1 PUSH1 0x1 PUSH1 0x1 PUSH1 0xA0 SHL SUB AND DUP4 PUSH1 0x1 PUSH2 0x5024 JUMP JUMPDEST PUSH1 0xD SLOAD PUSH2 0x4F89 SWAP1 PUSH1 0x1 PUSH2 0x3D93 JUMP JUMPDEST PUSH1 0xD SSTORE POP PUSH1 0x0 SWAP1 DUP2 MSTORE PUSH1 0xE PUSH1 0x20 SWAP1 DUP2 MSTORE PUSH1 0x40 DUP1 DUP4 KECCAK256 DUP1 SLOAD PUSH1 0x1 PUSH1 0x1 PUSH1 0xA0 SHL SUB NOT AND SWAP1 SSTORE PUSH1 0xF SWAP1 SWAP2 MSTORE SWAP1 KECCAK256 DUP1 SLOAD PUSH1 0xFF NOT AND SWAP1 SSTORE JUMP JUMPDEST PUSH1 0x0 DUP1 DUP3 GT PUSH2 0x5013 JUMPI PUSH1 0x40 DUP1 MLOAD PUSH3 0x461BCD PUSH1 0xE5 SHL DUP2 MSTORE PUSH1 0x20 PUSH1 0x4 DUP3 ADD MSTORE PUSH1 0x18 PUSH1 0x24 DUP3 ADD MSTORE PUSH32 0x536166654D6174683A206D6F64756C6F206279207A65726F0000000000000000 PUSH1 0x44 DUP3 ADD MSTORE SWAP1 MLOAD SWAP1 DUP2 SWAP1 SUB PUSH1 0x64 ADD SWAP1 REVERT JUMPDEST DUP2 DUP4 DUP2 PUSH2 0x501C JUMPI INVALID JUMPDEST MOD SWAP4 SWAP3 POP POP POP JUMP JUMPDEST PUSH1 0x1 PUSH1 0x1 PUSH1 0xA0 SHL SUB DUP4 AND PUSH2 0x5069 JUMPI PUSH1 0x40 MLOAD PUSH3 0x461BCD PUSH1 0xE5 SHL DUP2 MSTORE PUSH1 0x4 ADD DUP1 DUP1 PUSH1 0x20 ADD DUP3 DUP2 SUB DUP3 MSTORE PUSH1 0x23 DUP2 MSTORE PUSH1 0x20 ADD DUP1 PUSH2 0x55BE PUSH1 0x23 SWAP2 CODECOPY PUSH1 0x40 ADD SWAP2 POP POP PUSH1 0x40 MLOAD DUP1 SWAP2 SUB SWAP1 REVERT JUMPDEST PUSH1 0x0 PUSH2 0x5073 PUSH2 0x34D2 JUMP JUMPDEST SWAP1 POP PUSH2 0x50A3 DUP2 DUP6 PUSH1 0x0 PUSH2 0x5085 DUP8 PUSH2 0x3FFE JUMP JUMPDEST PUSH2 0x508E DUP8 PUSH2 0x3FFE JUMP JUMPDEST PUSH1 0x40 MLOAD DUP1 PUSH1 0x20 ADD PUSH1 0x40 MSTORE DUP1 PUSH1 0x0 DUP2 MSTORE POP PUSH2 0x364C JUMP JUMPDEST PUSH2 0x50EA DUP3 PUSH1 0x40 MLOAD DUP1 PUSH1 0x60 ADD PUSH1 0x40 MSTORE DUP1 PUSH1 0x24 DUP2 MSTORE PUSH1 0x20 ADD PUSH2 0x54EA PUSH1 0x24 SWAP2 CODECOPY PUSH1 0x0 DUP7 DUP2 MSTORE PUSH1 0x2 PUSH1 0x20 SWAP1 DUP2 MSTORE PUSH1 0x40 DUP1 DUP4 KECCAK256 PUSH1 0x1 PUSH1 0x1 PUSH1 0xA0 SHL SUB DUP12 AND DUP5 MSTORE SWAP1 SWAP2 MSTORE SWAP1 KECCAK256 SLOAD SWAP2 SWAP1 PUSH2 0x3767 JUMP JUMPDEST PUSH1 0x0 DUP5 DUP2 MSTORE PUSH1 0x2 PUSH1 0x20 SWAP1 DUP2 MSTORE PUSH1 0x40 DUP1 DUP4 KECCAK256 PUSH1 0x1 PUSH1 0x1 PUSH1 0xA0 SHL SUB DUP1 DUP11 AND DUP1 DUP7 MSTORE SWAP2 DUP5 MSTORE DUP3 DUP6 KECCAK256 SWAP6 SWAP1 SWAP6 SSTORE DUP2 MLOAD DUP9 DUP2 MSTORE SWAP3 DUP4 ADD DUP8 SWAP1 MSTORE DUP2 MLOAD SWAP4 SWAP5 SWAP1 SWAP4 SWAP1 DUP7 AND SWAP3 PUSH32 0xC3D58168C5AE7397731D063D5BBF3D657854427343F4C083240F7AACAA2D0F62 SWAP3 SWAP1 DUP3 SWAP1 SUB ADD SWAP1 LOG4 POP POP POP POP JUMP JUMPDEST PUSH1 0x40 MLOAD DUP1 PUSH1 0xA0 ADD PUSH1 0x40 MSTORE DUP1 PUSH1 0x0 ISZERO ISZERO DUP2 MSTORE PUSH1 0x20 ADD PUSH1 0x0 DUP2 MSTORE PUSH1 0x20 ADD PUSH1 0x0 DUP2 MSTORE PUSH1 0x20 ADD PUSH1 0x60 DUP2 MSTORE PUSH1 0x20 ADD PUSH1 0x0 DUP2 MSTORE POP SWAP1 JUMP JUMPDEST DUP3 DUP1 SLOAD PUSH1 0x1 DUP2 PUSH1 0x1 AND ISZERO PUSH2 0x100 MUL SUB AND PUSH1 0x2 SWAP1 DIV SWAP1 PUSH1 0x0 MSTORE PUSH1 0x20 PUSH1 0x0 KECCAK256 SWAP1 PUSH1 0x1F ADD PUSH1 0x20 SWAP1 DIV DUP2 ADD SWAP3 DUP3 PUSH1 0x1F LT PUSH2 0x51C9 JUMPI DUP1 MLOAD PUSH1 0xFF NOT AND DUP4 DUP1 ADD OR DUP6 SSTORE PUSH2 0x51F6 JUMP JUMPDEST DUP3 DUP1 ADD PUSH1 0x1 ADD DUP6 SSTORE DUP3 ISZERO PUSH2 0x51F6 JUMPI SWAP2 DUP3 ADD JUMPDEST DUP3 DUP2 GT ISZERO PUSH2 0x51F6 JUMPI DUP3 MLOAD DUP3 SSTORE SWAP2 PUSH1 0x20 ADD SWAP2 SWAP1 PUSH1 0x1 ADD SWAP1 PUSH2 0x51DB JUMP JUMPDEST POP PUSH2 0x5202 SWAP3 SWAP2 POP PUSH2 0x5351 JUMP JUMPDEST POP SWAP1 JUMP JUMPDEST PUSH1 0x40 DUP1 MLOAD PUSH2 0x360 DUP2 ADD DUP3 MSTORE PUSH1 0x0 DUP1 DUP3 MSTORE PUSH1 0x60 PUSH1 0x20 DUP4 ADD DUP2 SWAP1 MSTORE SWAP3 DUP3 ADD DUP4 SWAP1 MSTORE SWAP2 DUP2 ADD DUP3 SWAP1 MSTORE PUSH1 0x80 DUP2 ADD DUP3 SWAP1 MSTORE PUSH1 0xA0 DUP2 ADD DUP3 SWAP1 MSTORE PUSH1 0xC0 DUP2 ADD DUP3 SWAP1 MSTORE PUSH1 0xE0 DUP2 ADD DUP3 SWAP1 MSTORE PUSH2 0x100 DUP2 ADD DUP3 SWAP1 MSTORE PUSH2 0x120 DUP2 ADD DUP3 SWAP1 MSTORE PUSH2 0x140 DUP2 ADD DUP3 SWAP1 MSTORE PUSH2 0x160 DUP2 ADD DUP3 SWAP1 MSTORE PUSH2 0x180 DUP2 ADD DUP3 SWAP1 MSTORE PUSH2 0x1A0 DUP2 ADD DUP3 SWAP1 MSTORE PUSH2 0x1C0 DUP2 ADD DUP3 SWAP1 MSTORE PUSH2 0x1E0 DUP2 ADD DUP3 SWAP1 MSTORE PUSH2 0x200 DUP2 ADD DUP3 SWAP1 MSTORE PUSH2 0x220 DUP2 ADD DUP3 SWAP1 MSTORE PUSH2 0x240 DUP2 ADD DUP3 SWAP1 MSTORE PUSH2 0x260 DUP2 ADD DUP3 SWAP1 MSTORE PUSH2 0x280 DUP2 ADD DUP3 SWAP1 MSTORE PUSH2 0x2A0 DUP2 ADD DUP3 SWAP1 MSTORE PUSH2 0x2C0 DUP2 ADD DUP3 SWAP1 MSTORE PUSH2 0x2E0 DUP2 ADD DUP3 SWAP1 MSTORE PUSH2 0x300 DUP2 ADD DUP3 SWAP1 MSTORE PUSH2 0x320 DUP2 ADD DUP3 SWAP1 MSTORE PUSH2 0x340 DUP2 ADD SWAP2 SWAP1 SWAP2 MSTORE SWAP1 JUMP JUMPDEST DUP3 DUP1 SLOAD PUSH1 0x1 DUP2 PUSH1 0x1 AND ISZERO PUSH2 0x100 MUL SUB AND PUSH1 0x2 SWAP1 DIV SWAP1 PUSH1 0x0 MSTORE PUSH1 0x20 PUSH1 0x0 KECCAK256 SWAP1 PUSH1 0x1F ADD PUSH1 0x20 SWAP1 DIV DUP2 ADD SWAP3 DUP3 PUSH1 0x1F LT PUSH2 0x5324 JUMPI DUP3 DUP1 ADD PUSH1 0xFF NOT DUP3 CALLDATALOAD AND OR DUP6 SSTORE PUSH2 0x51F6 JUMP JUMPDEST DUP3 DUP1 ADD PUSH1 0x1 ADD DUP6 SSTORE DUP3 ISZERO PUSH2 0x51F6 JUMPI SWAP2 DUP3 ADD JUMPDEST DUP3 DUP2 GT ISZERO PUSH2 0x51F6 JUMPI DUP3 CALLDATALOAD DUP3 SSTORE SWAP2 PUSH1 0x20 ADD SWAP2 SWAP1 PUSH1 0x1 ADD SWAP1 PUSH2 0x5336 JUMP JUMPDEST JUMPDEST DUP1 DUP3 GT ISZERO PUSH2 0x5202 JUMPI PUSH1 0x0 DUP2 SSTORE PUSH1 0x1 ADD PUSH2 0x5352 JUMP JUMPDEST PUSH1 0xE0 SHR SWAP1 JUMP JUMPDEST PUSH1 0x0 PUSH1 0x44 RETURNDATASIZE LT ISZERO PUSH2 0x537C JUMPI PUSH2 0x2720 JUMP JUMPDEST PUSH1 0x4 DUP2 DUP3 RETURNDATACOPY PUSH4 0x8C379A0 PUSH2 0x5390 DUP3 MLOAD PUSH2 0x5366 JUMP JUMPDEST EQ PUSH2 0x539A JUMPI PUSH2 0x2720 JUMP JUMPDEST PUSH1 0x40 MLOAD RETURNDATASIZE PUSH1 0x3 NOT ADD PUSH1 0x4 DUP3 RETURNDATACOPY DUP1 MLOAD RETURNDATASIZE PUSH8 0xFFFFFFFFFFFFFFFF DUP2 PUSH1 0x24 DUP5 ADD GT DUP2 DUP5 GT OR ISZERO PUSH2 0x53CA JUMPI POP POP POP POP PUSH2 0x2720 JUMP JUMPDEST DUP3 DUP5 ADD SWAP3 POP DUP3 MLOAD SWAP2 POP DUP1 DUP3 GT ISZERO PUSH2 0x53E4 JUMPI POP POP POP POP PUSH2 0x2720 JUMP JUMPDEST POP RETURNDATASIZE DUP4 ADD PUSH1 0x20 DUP3 DUP5 ADD ADD GT ISZERO PUSH2 0x53FC JUMPI POP POP POP PUSH2 0x2720 JUMP JUMPDEST PUSH1 0x1F ADD PUSH1 0x1F NOT AND DUP2 ADD PUSH1 0x20 ADD PUSH1 0x40 MSTORE SWAP2 POP POP SWAP1 JUMP INVALID GASLIMIT MSTORE NUMBER BALANCE BALANCE CALLDATALOAD CALLDATALOAD GASPRICE KECCAK256 PUSH21 0x72616E7366657220746F206E6F6E20455243313135 CALLDATALOAD MSTORE PUSH6 0x636569766572 KECCAK256 PUSH10 0x6D706C656D656E746572 GASLIMIT PUSH15 0x756D657261626C655365743A20696E PUSH5 0x6578206F75 PUSH21 0x206F6620626F756E6473455243313135353A204552 NUMBER BALANCE BALANCE CALLDATALOAD CALLDATALOAD MSTORE PUSH6 0x636569766572 KECCAK256 PUSH19 0x656A656374656420746F6B656E734163636573 PUSH20 0x436F6E74726F6C3A2073656E646572206D757374 KECCAK256 PUSH3 0x652061 PUSH15 0x2061646D696E20746F206772616E74 GASLIMIT MSTORE NUMBER BALANCE BALANCE CALLDATALOAD CALLDATALOAD GASPRICE KECCAK256 PUSH3 0x616C61 PUSH15 0x636520717565727920666F72207468 PUSH6 0x207A65726F20 PUSH2 0x6464 PUSH19 0x657373455243313135353A206275726E20616D PUSH16 0x756E7420657863656564732062616C61 PUSH15 0x6365455243313135353A2063616C6C PUSH6 0x72206973206E PUSH16 0x74206F776E6572206E6F722061707072 PUSH16 0x766564416363657373436F6E74726F6C GASPRICE KECCAK256 PUSH20 0x656E646572206D75737420626520616E2061646D PUSH10 0x6E20746F207265766F6B PUSH6 0x455243313135 CALLDATALOAD GASPRICE KECCAK256 PUSH21 0x72616E7366657220746F20746865207A65726F2061 PUSH5 0x6472657373 GASLIMIT MSTORE NUMBER BALANCE BALANCE CALLDATALOAD CALLDATALOAD GASPRICE KECCAK256 PUSH21 0x72616E736665722063616C6C6572206973206E6F74 KECCAK256 PUSH16 0x776E6572206E6F7220617070726F7665 PUSH5 0x4552433131 CALLDATALOAD CALLDATALOAD GASPRICE KECCAK256 PUSH3 0x75726E KECCAK256 PUSH7 0x726F6D20746865 KECCAK256 PUSH27 0x65726F2061646472657373455243313135353A20696E7375666669 PUSH4 0x69656E74 KECCAK256 PUSH3 0x616C61 PUSH15 0x636520666F72207472616E73666572 MSTORE8 PUSH2 0x6665 0x4D PUSH2 0x7468 GASPRICE KECCAK256 PUSH14 0x756C7469706C69636174696F6E20 PUSH16 0x766572666C6F77455243313135353A20 PUSH20 0x657474696E6720617070726F76616C2073746174 PUSH22 0x7320666F722073656C66455243313135353A20616363 PUSH16 0x756E747320616E6420696473206C656E PUSH8 0x7468206D69736D61 PUSH21 0x6368455243313135353A2069647320616E6420616D PUSH16 0x756E7473206C656E677468206D69736D PUSH2 0x7463 PUSH9 0x455243313135353A20 PUSH14 0x696E7420746F20746865207A6572 PUSH16 0x2061646472657373416363657373436F PUSH15 0x74726F6C3A2063616E206F6E6C7920 PUSH19 0x656E6F756E636520726F6C657320666F722073 PUSH6 0x6C66A2646970 PUSH7 0x73582212203858 0xD1 SIGNEXTEND PUSH20 0xE97D0B22D1B146E447D0063E767DF6B8BE5EC0F2 PUSH10 0x333B1FAB844564736F6C PUSH4 0x4300060C STOP CALLER ",
  "sha1": "2a4531ca8078d787a14db4c264188df45ca74be1",
  "source": "// SPDX-License-Identifier: UNLICENSED\npragma solidity ^0.6.0;\n\nimport \"../interfaces/ICryptoChampions.sol\";\nimport \"../interfaces/IMinigameFactoryRegistry.sol\";\nimport \"./chainlink_contracts/AggregatorV3Interface.sol\";\nimport \"./chainlink_contracts/VRFConsumerBase.sol\";\nimport \"./minigames/games/priceWars/PriceWarsFactory.sol\";\nimport \"./minigames/games/priceWars/PriceWars.sol\";\n\nimport \"OpenZeppelin/openzeppelin-contracts@3.4.0/contracts/access/AccessControl.sol\";\nimport \"OpenZeppelin/openzeppelin-contracts@3.4.0/contracts/math/SafeMath.sol\";\nimport \"OpenZeppelin/openzeppelin-contracts@3.4.0/contracts/token/ERC1155/ERC1155.sol\";\n\n/// @title Crypto Champions Interface\n/// @author Oozyx\n/// @notice This is the crypto champions class\ncontract CryptoChampions is ICryptoChampions, AccessControl, ERC1155, VRFConsumerBase {\n    using SafeMath for uint256;\n    using SafeMath for uint8;\n\n    // Possible phases the contract can be in.  Phase one is when users can mint elder spirits and two is when they can mint heros.\n    enum Phase { SETUP, ACTION }\n\n    // The current phase the contract is in.\n    Phase public currentPhase;\n\n    // Number of tokens minted whenever a user mints a hero\n    uint256 internal constant NUM_TOKENS_MINTED = 500 * 10**18;\n\n    // The duration of each phase in days\n    uint256 internal SETUP_PHASE_DURATION = 2 seconds;\n    uint256 internal ACTION_PHASE_DURATION = 2 seconds;\n\n    // The current phase start time\n    uint256 public currentPhaseStartTime;\n\n    // The owner role is used to globally govern the contract\n    bytes32 internal constant ROLE_OWNER = keccak256(\"ROLE_OWNER\");\n\n    // The admin role is used for administrator duties and reports to the owner\n    bytes32 internal constant ROLE_ADMIN = keccak256(\"ROLE_ADMIN\");\n\n    // The role to declare round winners\n    bytes32 internal constant ROLE_GAME_ADMIN = keccak256(\"ROLE_GAME_ADMIN\");\n\n    // Reserved id for the in game currency\n    uint256 internal constant IN_GAME_CURRENCY_ID = 0;\n\n    // Constants used to determine fee proportions in percentage\n    // Usage: fee.mul(proportion).div(100)\n    uint8 internal constant HERO_MINT_ROYALTY_PERCENT = 25;\n    uint8 internal constant HERO_MINT_DEV_PERCENT = 25;\n\n    // The amount of ETH contained in the rewards pool\n    uint256 public rewardsPoolAmount = 0;\n\n    // The amount of ETH contained in the dev fund\n    uint256 public devFund = 0;\n\n    // The rewards share for every hero with the winning affinity calculated at the end of every round\n    uint256 internal _heroRewardsShare = 0;\n\n    // The identifier for the price wars game\n    string internal constant PRICE_WARS_ID = \"PRICE_WARS\";\n\n    // The max amount of elders that can be minted\n    uint256 public constant MAX_NUMBER_OF_ELDERS = 7;\n\n    // The amount of elders minted\n    // This amount cannot be greater than MAX_NUMBER_OF_ELDERS\n    uint256 public eldersInGame = 0;\n\n    // The mapping of elder id to elder owner, ids can only be in the range of [1, MAX_NUMBER OF ELDERS]\n    mapping(uint256 => address) internal _elderOwners;\n\n    // The mapping of elder id to the elder spirit\n    mapping(uint256 => ElderSpirit) internal _elderSpirits;\n\n    // The amount of heros minted\n    uint256 public heroesMinted = 0;\n\n    // The mapping of hero id to owner, ids can only be in the range of\n    // [1 + MAX_NUMBER_OF_ELDERS, ]\n    mapping(uint256 => address) internal _heroOwners;\n\n    // The mapping of hero id to the hero\n    mapping(uint256 => Hero) internal _heroes;\n\n    // The mapping of the round played to the elder spawns mapping\n    mapping(uint256 => mapping(uint256 => uint256)) internal _roundElderSpawns;\n\n    // The mint price for elders and heroes\n    uint256 public elderMintPrice;\n\n    // The current round index\n    uint256 public currentRound;\n\n    // The mapping of affinities (token ticker) to price feed address\n    mapping(string => address) internal _affinities;\n\n    // List of available affinities\n    string[] public affinities;\n\n    // The key hash used for VRF\n    bytes32 internal _keyHash;\n\n    // The fee in LINK for VRF\n    uint256 internal _fee;\n\n    // Mapping of request id to hero id\n    mapping(bytes32 => uint256) internal _heroRandomRequest;\n\n    // Mapping of request id to random result\n    mapping(bytes32 => uint256) internal _randomResultsVRF;\n\n    // The list of affinities that won in a round\n    mapping(uint256 => string) public winningAffinitiesByRound;\n\n    // Mapping of hero id to a mapping of round to a bool of the rewards claim\n    mapping(uint256 => mapping(uint256 => bool)) internal _heroRewardsClaimed;\n\n    // The registry of minigame factories\n    IMinigameFactoryRegistry internal _minigameFactoryRegistry;\n\n    /// @notice Triggered when an elder spirit gets minted\n    /// @param elderId The elder id belonging to the minted elder\n    /// @param owner The address of the owner\n    event ElderSpiritMinted(uint256 elderId, address owner);\n\n    /// @notice Triggered when a hero gets minted\n    /// @param heroId The hero id belonging to the hero that was minted\n    /// @param owner The address of the owner\n    event HeroMinted(uint256 heroId, address owner);\n\n    /// @notice Triggered when the elder spirits have been burned\n    event ElderSpiritsBurned();\n\n    // Initializes a new CryptoChampions contract\n    // TODO: need to provide the proper uri\n    constructor(\n        bytes32 keyhash,\n        address vrfCoordinator,\n        address linkToken,\n        address minigameFactoryRegistry\n    ) public ERC1155(\"uri\") VRFConsumerBase(vrfCoordinator, linkToken) {\n        // Set up administrative roles\n        _setRoleAdmin(ROLE_OWNER, ROLE_OWNER);\n        _setRoleAdmin(ROLE_ADMIN, ROLE_OWNER);\n        _setRoleAdmin(ROLE_GAME_ADMIN, ROLE_OWNER);\n\n        // Set up the deployer as the owner and give admin rights\n        _setupRole(ROLE_OWNER, msg.sender);\n        grantRole(ROLE_ADMIN, msg.sender);\n\n        // Set initial elder mint price\n        elderMintPrice = 0.271 ether;\n\n        // Set the initial round to 0\n        currentRound = 0;\n\n        // Set initial phase to phase one and phase start time\n        currentPhase = Phase.SETUP;\n        currentPhaseStartTime = now;\n\n        // Set VRF fields\n        _keyHash = keyhash;\n        _fee = 0.1 * 10**18; // 0.1 LINK\n\n        _minigameFactoryRegistry = IMinigameFactoryRegistry(minigameFactoryRegistry);\n    }\n\n    modifier isValidElderSpiritId(uint256 elderId) {\n        require(elderId > IN_GAME_CURRENCY_ID && elderId <= MAX_NUMBER_OF_ELDERS); // dev: Given id is not valid.\n        _;\n    }\n\n    modifier isValidHero(uint256 heroId) {\n        require(heroId > MAX_NUMBER_OF_ELDERS); // dev: Given id is not valid.\n        require(_heroes[heroId].valid); // dev: Hero is not valid.\n        _;\n    }\n\n    // Restrict to only price war addresses\n    modifier onlyGameAdmin {\n        _hasRole(ROLE_GAME_ADMIN);\n        _;\n    }\n\n    // Restrict to only admins\n    modifier onlyAdmin {\n        _hasRole(ROLE_ADMIN);\n        _;\n    }\n\n    // Restrict to the specified phase\n    modifier atPhase(Phase phase) {\n        require(currentPhase == phase); // dev: Current phase prohibits action.\n        _;\n    }\n\n    /// @notice Transitions to the next phase\n    function _transitionNextPhase() internal {\n        if (currentPhase == Phase.SETUP) {\n            // If rewards have gone unclaimed, send to address\n            // todo\n            rewardsPoolAmount = 0;\n\n            // Reset the hero rewards share\n            _heroRewardsShare = 0;\n\n            // todo mint all elders that have yet to be minted\n\n            // Increment the round\n            currentRound = currentRound.add(1);\n\n            // Set the next phase\n            currentPhase = Phase.ACTION;\n        } else if (currentPhase == Phase.ACTION) {\n            // Start the price game that will determine the winning affinity\n            _startNewPriceGame();\n\n            // Calculate hero rewards.\n            // Start by finding which elder had the winning affinity\n            uint256 i = 1;\n            for (; i <= eldersInGame; ++i) {\n                if (\n                    keccak256(bytes(_elderSpirits[i].affinity)) ==\n                    keccak256(bytes(winningAffinitiesByRound[currentRound]))\n                ) {\n                    if (getElderSpawnsAmount(currentRound, i) > 0) {\n                        _heroRewardsShare = rewardsPoolAmount.div(getElderSpawnsAmount(currentRound, i));\n                        break;\n                    }\n                }\n            }\n\n            // Burn the elders\n            _burnElders();\n\n            // Set the next phase\n            currentPhase = Phase.SETUP;\n        }\n\n        currentPhaseStartTime = now;\n    }\n\n    /// @notice Sets the contract's phase\n    /// @dev May delete function and keep only the refresh phase function\n    /// @param phase The phase the contract should be set to\n    function setPhase(Phase phase) external onlyAdmin {\n        currentPhase = phase;\n    }\n\n    /// @notice Transitions to next phase if the condition is met and rewards caller for a successful phase transition\n    function refreshPhase() external override {\n        bool phaseChanged = false;\n\n        if (currentPhase == Phase.SETUP && now >= currentPhaseStartTime + SETUP_PHASE_DURATION) {\n            _transitionNextPhase();\n        } else if (currentPhase == Phase.ACTION && now >= currentPhaseStartTime + ACTION_PHASE_DURATION) {\n            _transitionNextPhase();\n        }\n\n        if (phaseChanged) {\n            // todo reward msg.sender\n        }\n    }\n\n    /// @notice Makes a request for a random number\n    /// @param userProvidedSeed The seed for the random request\n    /// @return requestId The request id\n    function _getRandomNumber(uint256 userProvidedSeed) internal returns (bytes32 requestId) {\n        require(LINK.balanceOf(address(this)) >= _fee); // dev: Not enough LINK - fill contract with faucet\n        return requestRandomness(_keyHash, _fee, userProvidedSeed);\n    }\n\n    /// @notice Callback function used by the VRF coordinator\n    /// @param requestId The request id\n    /// @param randomness The randomness\n    function fulfillRandomness(bytes32 requestId, uint256 randomness) internal override {\n        _randomResultsVRF[requestId] = randomness;\n        _trainHero(requestId);\n    }\n\n    /// @notice Check if msg.sender has the role\n    /// @param role The role to verify\n    function _hasRole(bytes32 role) internal view {\n        require(hasRole(role, msg.sender)); // dev: Access denied.\n    }\n\n    /// @notice Creates a new token affinity\n    /// @dev This will be called by a priviledged address. It will allow to create new affinities. May need to add a\n    /// remove affinity function as well.\n    /// @param tokenTicker The token ticker of the affinity\n    /// @param feedAddress The price feed address\n    function createAffinity(string calldata tokenTicker, address feedAddress) external override onlyAdmin {\n        _affinities[tokenTicker] = feedAddress;\n        affinities.push(tokenTicker);\n    }\n\n    /// @notice Sets the elder mint price\n    /// @dev Can only be called by an admin address\n    /// @param price The new elder mint price\n    function setElderMintPrice(uint256 price) external override onlyAdmin {\n        elderMintPrice = price;\n    }\n\n    /// @notice Mints an elder spirit\n    /// @dev For now only race, class, and token (affinity) are needed. This will change. The race and class ids will\n    /// probably be public constants defined in the crypto champions contract, this is subject to change.\n    /// @param raceId The race id\n    /// @param classId The class id\n    /// @param affinity The affinity of the minted hero\n    /// @return The elder spirit id\n    function mintElderSpirit(\n        uint256 raceId,\n        uint256 classId,\n        string calldata affinity\n    ) external payable override atPhase(Phase.SETUP) returns (uint256) {\n        require(eldersInGame < MAX_NUMBER_OF_ELDERS); // dev: Max number of elders already minted.\n        require(msg.value >= elderMintPrice); // dev: Insufficient payment.\n        require(_affinities[affinity] != address(0)); // dev: Affinity does not exist.\n\n        // Generate the elderId and make sure it doesn't already exists\n        uint256 elderId = eldersInGame.add(1);\n        assert(_elderOwners[elderId] == address(0)); // dev: Elder with id already has owner.\n        assert(_elderSpirits[elderId].valid == false); // dev: Elder spirit with id has already been generated.\n\n        // Get the price data of affinity\n        int256 affinityPrice;\n        (, affinityPrice, , , ) = AggregatorV3Interface(_affinities[affinity]).latestRoundData();\n\n        // Create the elder spirit\n        ElderSpirit memory elder;\n        elder.valid = true;\n        elder.raceId = raceId;\n        elder.classId = classId;\n        elder.affinity = affinity;\n        elder.affinityPrice = affinityPrice;\n\n        // Mint the NFT\n        _mint(_msgSender(), elderId, 1, \"\"); // TODO: give the URI\n\n        // Assign the elder id with the owner and its spirit\n        _elderOwners[elderId] = _msgSender();\n        _elderSpirits[elderId] = elder;\n\n        // Increment elders minted\n        eldersInGame = eldersInGame.add(1);\n\n        // Refund if user sent too much\n        _refundSender(elderMintPrice);\n\n        // The entire elder minting fee goes to the dev fund\n        devFund = devFund.add(elderMintPrice);\n\n        emit ElderSpiritMinted(elderId, _msgSender());\n\n        return elderId;\n    }\n\n    /// @notice Gets the elder owner for the given elder id\n    /// @param elderId The elder id\n    /// @return The owner of the elder\n    function getElderOwner(uint256 elderId) public view override isValidElderSpiritId(elderId) returns (address) {\n        require(_elderOwners[elderId] != address(0)); // dev: Given elder id has not been minted.\n\n        return _elderOwners[elderId];\n    }\n\n    /// @notice Mints a hero based on an elder spirit\n    /// @param elderId The id of the elder spirit this hero is based on\n    /// @return The hero id\n    function mintHero(uint256 elderId, string calldata heroName)\n        external\n        payable\n        override\n        isValidElderSpiritId(elderId)\n        atPhase(Phase.ACTION)\n        returns (uint256)\n    {\n        require(_elderSpirits[elderId].valid); // dev: Elder with id doesn't exists or not valid.\n\n        require(_canMintHero(elderId)); // dev: Can't mint hero. Too mnay heroes minted for elder.\n\n        uint256 mintPrice = getHeroMintPrice(currentRound, elderId);\n        require(msg.value >= mintPrice); // dev: Insufficient payment.\n\n        // Generate the hero id\n        uint256 heroId = heroesMinted.add(1) + MAX_NUMBER_OF_ELDERS;\n        assert(_heroOwners[heroId] == address(0)); // dev: Hero with id already has an owner.\n        assert(_heroes[heroId].valid == false); // dev: Hero with id has already been generated.\n\n        // Create the hero\n        Hero memory hero;\n        hero.valid = true;\n        hero.name = heroName;\n        hero.roundMinted = currentRound;\n        hero.elderId = elderId;\n        hero.raceId = _elderSpirits[elderId].raceId;\n        hero.classId = _elderSpirits[elderId].classId;\n        hero.affinity = _elderSpirits[elderId].affinity;\n        _heroes[heroId] = hero;\n\n        // Request the random number and set hero attributes\n        bytes32 requestId = _getRandomNumber(heroId);\n        _heroRandomRequest[requestId] = heroId;\n\n        // Mint the NFT\n        _mint(_msgSender(), heroId, 1, \"\"); // TODO: give the URI\n\n        // Mint in game currency tokens\n        _mint(_msgSender(), IN_GAME_CURRENCY_ID, NUM_TOKENS_MINTED, \"\");\n\n        // Assign the hero id with the owner and with the hero\n        _heroOwners[heroId] = _msgSender();\n\n        // Increment the heroes minted and the elder spawns\n        heroesMinted = heroesMinted.add(1);\n        _roundElderSpawns[currentRound][elderId] = _roundElderSpawns[currentRound][elderId].add(1);\n\n        // Disburse royalties\n        uint256 royaltyFee = mintPrice.mul(HERO_MINT_ROYALTY_PERCENT).div(100);\n        address seedOwner = _elderOwners[elderId];\n        (bool success, ) = seedOwner.call{ value: royaltyFee }(\"\");\n        require(success, \"Payment failed\");\n\n        // Update the rewards and dev fund pools\n        uint256 devFee = mintPrice.mul(HERO_MINT_DEV_PERCENT).div(100);\n        devFund = devFund.add(devFee);\n        rewardsPoolAmount = rewardsPoolAmount.add(mintPrice.sub(royaltyFee).sub(devFee));\n\n        // Refund if user sent too much\n        _refundSender(mintPrice);\n\n        emit HeroMinted(heroId, _msgSender());\n\n        return heroId;\n    }\n\n    /// @notice Checks to see if a hero can be minted for a given elder\n    /// @dev (n < 4) || (n <= 2 * m)\n    ///     n is number of champions already minted for elder\n    ///     m is number of champions already minted for elder with least amount of champions\n    /// @param elderId The elder id\n    /// @return True if hero can be minted, false otherwise\n    function _canMintHero(uint256 elderId) internal view returns (bool) {\n        // Verify first condition\n        if (_roundElderSpawns[currentRound][elderId] < 4) {\n            return true;\n        }\n\n        // Find the elder with the least amount of heroes minted\n        uint256 smallestElderAmount = _roundElderSpawns[currentRound][elderId];\n        for (uint256 i = 1; i <= eldersInGame; ++i) {\n            if (_roundElderSpawns[currentRound][i] < smallestElderAmount) {\n                smallestElderAmount = _roundElderSpawns[currentRound][i];\n            }\n        }\n\n        return _roundElderSpawns[currentRound][elderId] <= smallestElderAmount.mul(2);\n    }\n\n    /// @notice Sets the hero attributes\n    /// @param requestId The request id that is mapped to a hero\n    function _trainHero(bytes32 requestId) internal isValidHero(_heroRandomRequest[requestId]) {\n        uint256 heroId = _heroRandomRequest[requestId];\n        uint256 randomNumber = _randomResultsVRF[requestId];\n        uint256 newRandomNumber;\n\n        _heroes[heroId].level = 1; // 1 by default\n        (_heroes[heroId].appearance, newRandomNumber) = _rollDice(2, randomNumber); // 1 out of 2\n\n        (_heroes[heroId].trait1, newRandomNumber) = _rollDice(4, newRandomNumber); // 1 out of 4\n        (_heroes[heroId].trait2, newRandomNumber) = _rollDice(4, newRandomNumber); // 1 out of 4\n        (_heroes[heroId].skill1, newRandomNumber) = _rollDice(4, newRandomNumber); // 1 out of 4\n        (_heroes[heroId].skill2, newRandomNumber) = _rollDice(4, newRandomNumber); // 1 out of 4\n\n        (_heroes[heroId].alignment, newRandomNumber) = _rollDice(9, newRandomNumber); // 1 out of 9\n        (_heroes[heroId].background, newRandomNumber) = _rollDice(30, newRandomNumber); // 1 out of 30\n        (_heroes[heroId].hometown, newRandomNumber) = _rollDice(24, newRandomNumber); // 1 out of 24\n        (_heroes[heroId].weather, newRandomNumber) = _rollDice(7, newRandomNumber); // 1 ouf of 7\n\n        (_heroes[heroId].hp, newRandomNumber) = _rollDice(21, newRandomNumber); // Roll 10-30\n        _heroes[heroId].hp = uint8(_heroes[heroId].hp.add(9));\n        (_heroes[heroId].mana, newRandomNumber) = _rollDice(21, newRandomNumber); // Roll 10-30\n        _heroes[heroId].mana = uint8(_heroes[heroId].mana.add(9));\n        (_heroes[heroId].stamina, newRandomNumber) = _rollDice(31, newRandomNumber); // Roll 10-40\n        _heroes[heroId].stamina = uint8(_heroes[heroId].stamina.add(9));\n\n        (_heroes[heroId].strength, newRandomNumber) = _rollDice(16, newRandomNumber); // Roll 3-18\n        _heroes[heroId].strength = uint8(_heroes[heroId].strength.add(2));\n        (_heroes[heroId].dexterity, newRandomNumber) = _rollDice(16, newRandomNumber); // Roll 3-18\n        _heroes[heroId].dexterity = uint8(_heroes[heroId].dexterity.add(2));\n        (_heroes[heroId].constitution, newRandomNumber) = _rollDice(16, newRandomNumber); // Roll 3-18\n        _heroes[heroId].constitution = uint8(_heroes[heroId].constitution.add(2));\n        (_heroes[heroId].intelligence, newRandomNumber) = _rollDice(16, newRandomNumber); // Roll 3-18\n        _heroes[heroId].intelligence = uint8(_heroes[heroId].intelligence.add(2));\n        (_heroes[heroId].wisdom, newRandomNumber) = _rollDice(16, newRandomNumber); // Roll 3-18\n        _heroes[heroId].wisdom = uint8(_heroes[heroId].wisdom.add(2));\n        (_heroes[heroId].charisma, newRandomNumber) = _rollDice(16, newRandomNumber); // Roll 3-18\n        _heroes[heroId].charisma = uint8(_heroes[heroId].charisma.add(2));\n    }\n\n    /// @notice Simulates rolling dice\n    /// @param maxNumber The max number of the dice (e.g. regular die is 6)\n    /// @param randomNumber The random number\n    /// @return The result of the dice roll and a new random number to use for another dice roll\n    function _rollDice(uint8 maxNumber, uint256 randomNumber) internal pure returns (uint8, uint256) {\n        return (uint8(randomNumber.mod(maxNumber).add(1)), randomNumber.div(10));\n    }\n\n    /// @notice Get the hero owner for the given hero id\n    /// @param heroId The hero id\n    /// @return The owner address\n    function getHeroOwner(uint256 heroId) public view override isValidHero(heroId) returns (address) {\n        require(_heroOwners[heroId] != address(0)); // dev: Given hero id has not been minted.\n\n        return _heroOwners[heroId];\n    }\n\n    /// @notice Burns all the elder spirits in game\n    function _burnElders() internal {\n        for (uint256 i = 1; i <= MAX_NUMBER_OF_ELDERS; ++i) {\n            if (_elderSpirits[i].valid) {\n                _burnElder(i);\n            }\n        }\n\n        emit ElderSpiritsBurned();\n    }\n\n    /// @notice Burns the elder spirit\n    /// @dev This will only be able to be called by the contract\n    /// @param elderId The elder id\n    function _burnElder(uint256 elderId) internal isValidElderSpiritId(elderId) {\n        require(_elderSpirits[elderId].valid); // dev: Cannot burn elder that does not exist.\n\n        _burn(_elderOwners[elderId], elderId, 1);\n\n        // Reset elder values for elder id\n        eldersInGame = eldersInGame.sub(1);\n        _elderOwners[elderId] = address(0);\n        _elderSpirits[elderId].valid = false;\n    }\n\n    /// @notice Gets the minting price of a hero based on specified elder spirit\n    /// @param round The round of the hero to be minted\n    /// @param elderId The elder id for which the hero will be based on\n    /// @return The hero mint price\n    function getHeroMintPrice(uint256 round, uint256 elderId)\n        public\n        view\n        override\n        isValidElderSpiritId(elderId)\n        returns (uint256)\n    {\n        require(round <= currentRound); // dev: Cannot get price round has not started.\n        uint256 heroAmount = _roundElderSpawns[round][elderId].add(1);\n\n        return _priceFormula(heroAmount);\n    }\n\n    /// @notice The bounding curve function that calculates price for the new supply\n    /// @dev price = 0.02*(heroes minted) + 0.1\n    /// @param newSupply The new supply after a burn or mint\n    /// @return The calculated price\n    function _priceFormula(uint256 newSupply) internal pure returns (uint256) {\n        uint256 price;\n        uint256 base = 1;\n        price = newSupply.mul(10**18).mul(2).div(100);\n        price = price.add(base.mul(10**18).div(10));\n\n        return price;\n    }\n\n    /// @dev Hook function called before every token transfer\n    function _beforeTokenTransfer(\n        address operator,\n        address from,\n        address to,\n        uint256[] memory ids,\n        uint256[] memory amounts,\n        bytes memory data\n    ) internal virtual override {\n        super._beforeTokenTransfer(operator, from, to, ids, amounts, data);\n\n        for (uint256 i = 0; i < ids.length; i++) {\n            // If token is an elder spirit, update owners so can send them royalties\n            if (ids[i] > IN_GAME_CURRENCY_ID && ids[i] <= MAX_NUMBER_OF_ELDERS) {\n                _elderOwners[ids[i]] = payable(to);\n            }\n            if (ids[i] > MAX_NUMBER_OF_ELDERS) {\n                _heroOwners[ids[i]] = to;\n            }\n        }\n    }\n\n    /// @notice Gets the amount of heroes spawn from the elder with the specified id during the specified round\n    /// @param round The round the elder was created\n    /// @param elderId The elder id\n    /// @return The amount of heroes spawned from the elder\n    function getElderSpawnsAmount(uint256 round, uint256 elderId)\n        public\n        view\n        override\n        isValidElderSpiritId(elderId)\n        returns (uint256)\n    {\n        require(round <= currentRound); // dev: Invalid round.\n        return _roundElderSpawns[round][elderId];\n    }\n\n    /// @notice Refunds the sender if they sent too much\n    /// @param cost The cost\n    function _refundSender(uint256 cost) internal {\n        if (msg.value.sub(cost) > 0) {\n            (bool success, ) = msg.sender.call{ value: msg.value.sub(cost) }(\"\");\n            require(success); // dev: Refund failed.\n        }\n    }\n\n    /// @notice Fetches the data of a single elder spirit\n    /// @param elderId The id of the elder being searched for\n    /// @return The elder's attributes in the following order (valid, raceId, classId, affinity)\n    function getElderSpirit(uint256 elderId)\n        external\n        view\n        override\n        isValidElderSpiritId(elderId)\n        returns (\n            bool,\n            uint256,\n            uint256,\n            string memory,\n            int256\n        )\n    {\n        ElderSpirit memory elderSpirit = _elderSpirits[elderId];\n        return (\n            elderSpirit.valid,\n            elderSpirit.raceId,\n            elderSpirit.classId,\n            elderSpirit.affinity,\n            elderSpirit.affinityPrice\n        );\n    }\n\n    /// @notice Hero getter function\n    /// @param heroId The hero id\n    /// @return valid, affinity, affinity price, round minted, elder id\n    function getHeroGameData(uint256 heroId)\n        external\n        view\n        override\n        isValidHero(heroId)\n        returns (\n            bool, // valid\n            string memory, // affinity\n            int256, // affinity price\n            uint256, // round minted\n            uint256 // elder id\n        )\n    {\n        return (\n            _heroes[heroId].valid,\n            _heroes[heroId].affinity,\n            _heroes[heroId].affinityPrice,\n            _heroes[heroId].roundMinted,\n            _heroes[heroId].elderId\n        );\n    }\n\n    /// @notice Hero getter function\n    /// @param heroId The hero id\n    /// @return name, race id, class id, appearance\n    function getHeroVisuals(uint256 heroId)\n        external\n        view\n        override\n        isValidHero(heroId)\n        returns (\n            string memory, // name\n            uint256, // race id\n            uint256, // class id\n            uint8 // appearance\n        )\n    {\n        return (_heroes[heroId].name, _heroes[heroId].raceId, _heroes[heroId].classId, _heroes[heroId].appearance);\n    }\n\n    /// @notice Hero getter function\n    /// @param heroId The hero id\n    /// @return trait 1, trait 2, skill 1, skill 2\n    function getHeroTraitsSkills(uint256 heroId)\n        external\n        view\n        override\n        isValidHero(heroId)\n        returns (\n            uint8, // trait 1\n            uint8, // trait 2\n            uint8, // skill 1\n            uint8 // skill 2\n        )\n    {\n        return (_heroes[heroId].trait1, _heroes[heroId].trait2, _heroes[heroId].skill1, _heroes[heroId].skill2);\n    }\n\n    /// @notice Hero getter function\n    /// @param heroId The hero id\n    /// @return alignment, background, hometown, weather\n    function getHeroLore(uint256 heroId)\n        external\n        view\n        override\n        isValidHero(heroId)\n        returns (\n            uint8, // alignment\n            uint8, // background\n            uint8, // hometown\n            uint8 // weather\n        )\n    {\n        return (\n            _heroes[heroId].alignment,\n            _heroes[heroId].background,\n            _heroes[heroId].hometown,\n            _heroes[heroId].weather\n        );\n    }\n\n    /// @notice Hero getter function\n    /// @param heroId The hero id\n    /// @return level, hp, mana\n    function getHeroVitals(uint256 heroId)\n        external\n        view\n        override\n        isValidHero(heroId)\n        returns (\n            uint8, // level\n            uint8, // hp\n            uint8, // mana\n            uint8 // stamina\n        )\n    {\n        return (_heroes[heroId].level, _heroes[heroId].hp, _heroes[heroId].mana, _heroes[heroId].stamina);\n    }\n\n    /// @notice Hero getter function\n    /// @param heroId The hero id\n    /// @return stamina, strength, dexterity, constitution, intelligence, wisdom, charisma\n    function getHeroStats(uint256 heroId)\n        external\n        view\n        override\n        isValidHero(heroId)\n        returns (\n            uint8, // strength\n            uint8, // dexterity\n            uint8, // constitution\n            uint8, // intelligence\n            uint8, // wisdom\n            uint8 // charisma\n        )\n    {\n        return (\n            _heroes[heroId].strength,\n            _heroes[heroId].dexterity,\n            _heroes[heroId].constitution,\n            _heroes[heroId].intelligence,\n            _heroes[heroId].wisdom,\n            _heroes[heroId].charisma\n        );\n    }\n\n    /// @notice Fetches the feed address for a given affinity\n    /// @param affinity The affinity being searched for\n    /// @return The address of the affinity's feed address\n    function getAffinityFeedAddress(string calldata affinity) external view override returns (address) {\n        return _affinities[affinity];\n    }\n\n    /// @notice Fetches the number of elders currently in the game\n    /// @return The current number of elders in the game\n    function getNumEldersInGame() external view override returns (uint256) {\n        return eldersInGame;\n    }\n\n    /// @notice Declares a winning affinity for a round\n    /// @dev This can only be called by a game admin contract\n    /// @param winningAffinity The affinity that won the game\n    function declareRoundWinner(string calldata winningAffinity) external override atPhase(Phase.ACTION) onlyGameAdmin {\n        winningAffinitiesByRound[currentRound] = winningAffinity;\n    }\n\n    /// @notice Claims the rewards for the hero if eligible\n    /// @dev Can only claim once and only for the round the hero was minted\n    /// @param heroId The hero id\n    function claimReward(uint256 heroId) external override atPhase(Phase.SETUP) isValidHero(heroId) {\n        // Check if hero is eligible and if hero hasn't already claimed\n        require(_heroes[heroId].roundMinted == currentRound); // dev: Hero was not minted this round.\n        require(keccak256(bytes(_heroes[heroId].affinity)) == keccak256(bytes(winningAffinitiesByRound[currentRound]))); // dev: Hero does not have the winning affinity.\n        require(_heroRewardsClaimed[heroId][currentRound] == false); // dev: Reward has already been claimed.\n\n        (bool success, ) = _heroOwners[heroId].call{ value: _heroRewardsShare }(\"\");\n        require(success, \"Payment failed\");\n        rewardsPoolAmount = rewardsPoolAmount.sub(_heroRewardsShare);\n        _heroRewardsClaimed[heroId][currentRound] = true;\n    }\n\n    /// @notice Starts a new price game\n    /// @dev This can only be called by the admin of the contract\n    function _startNewPriceGame() internal {\n        address priceWarsFactoryAddress = _minigameFactoryRegistry.getFactory(PRICE_WARS_ID);\n        PriceWarsFactory priceWarsFactory = PriceWarsFactory(priceWarsFactoryAddress);\n        PriceWars priceWar = priceWarsFactory.createPriceWar(address(this));\n        grantRole(ROLE_GAME_ADMIN, address(priceWar));\n        priceWar.startGame();\n    }\n\n    /// @notice Transfers in game currency tokens from one address to another\n    /// @param to The receiving address\n    /// @param amount The amount to transfer\n    function transferInGameTokens(address to, uint256 amount) external override {\n        bytes memory data;\n        safeTransferFrom(msg.sender, to, IN_GAME_CURRENCY_ID, amount, data);\n    }\n\n    /// @notice Transfers in game currency tokens from one address to another.\n    /// @param from The sending address.  Note that the sender must be authorized to transfer funds if the sender is different from the from address.\n    /// @param to The receiving address\n    /// @param amount The amount to transfer\n    function delegatedTransferInGameTokens(\n        address from,\n        address to,\n        uint256 amount\n    ) external override {\n        bytes memory data;\n        safeTransferFrom(from, to, IN_GAME_CURRENCY_ID, amount, data);\n    }\n}\n",
  "sourcePath": "contracts/CryptoChampions.sol",
  "type": "contract"
}