{
  "abi": [
    {
      "inputs": [
        {
          "internalType": "bytes32",
          "name": "keyhash",
          "type": "bytes32"
        },
        {
          "internalType": "address",
          "name": "vrfCoordinator",
          "type": "address"
        },
        {
          "internalType": "address",
          "name": "linkToken",
          "type": "address"
        },
        {
          "internalType": "address",
          "name": "minigameFactoryRegistry",
          "type": "address"
        }
      ],
      "stateMutability": "nonpayable",
      "type": "constructor"
    },
    {
      "anonymous": false,
      "inputs": [
        {
          "indexed": true,
          "internalType": "address",
          "name": "account",
          "type": "address"
        },
        {
          "indexed": true,
          "internalType": "address",
          "name": "operator",
          "type": "address"
        },
        {
          "indexed": false,
          "internalType": "bool",
          "name": "approved",
          "type": "bool"
        }
      ],
      "name": "ApprovalForAll",
      "type": "event"
    },
    {
      "anonymous": false,
      "inputs": [
        {
          "indexed": false,
          "internalType": "uint256",
          "name": "elderId",
          "type": "uint256"
        },
        {
          "indexed": false,
          "internalType": "address",
          "name": "owner",
          "type": "address"
        }
      ],
      "name": "ElderSpiritMinted",
      "type": "event"
    },
    {
      "anonymous": false,
      "inputs": [],
      "name": "ElderSpiritsBurned",
      "type": "event"
    },
    {
      "anonymous": false,
      "inputs": [
        {
          "indexed": false,
          "internalType": "uint256",
          "name": "heroId",
          "type": "uint256"
        }
      ],
      "name": "HeroBurned",
      "type": "event"
    },
    {
      "anonymous": false,
      "inputs": [
        {
          "indexed": false,
          "internalType": "uint256",
          "name": "heroId",
          "type": "uint256"
        },
        {
          "indexed": false,
          "internalType": "address",
          "name": "owner",
          "type": "address"
        }
      ],
      "name": "HeroMinted",
      "type": "event"
    },
    {
      "anonymous": false,
      "inputs": [
        {
          "indexed": true,
          "internalType": "bytes32",
          "name": "role",
          "type": "bytes32"
        },
        {
          "indexed": true,
          "internalType": "bytes32",
          "name": "previousAdminRole",
          "type": "bytes32"
        },
        {
          "indexed": true,
          "internalType": "bytes32",
          "name": "newAdminRole",
          "type": "bytes32"
        }
      ],
      "name": "RoleAdminChanged",
      "type": "event"
    },
    {
      "anonymous": false,
      "inputs": [
        {
          "indexed": true,
          "internalType": "bytes32",
          "name": "role",
          "type": "bytes32"
        },
        {
          "indexed": true,
          "internalType": "address",
          "name": "account",
          "type": "address"
        },
        {
          "indexed": true,
          "internalType": "address",
          "name": "sender",
          "type": "address"
        }
      ],
      "name": "RoleGranted",
      "type": "event"
    },
    {
      "anonymous": false,
      "inputs": [
        {
          "indexed": true,
          "internalType": "bytes32",
          "name": "role",
          "type": "bytes32"
        },
        {
          "indexed": true,
          "internalType": "address",
          "name": "account",
          "type": "address"
        },
        {
          "indexed": true,
          "internalType": "address",
          "name": "sender",
          "type": "address"
        }
      ],
      "name": "RoleRevoked",
      "type": "event"
    },
    {
      "anonymous": false,
      "inputs": [
        {
          "indexed": true,
          "internalType": "address",
          "name": "operator",
          "type": "address"
        },
        {
          "indexed": true,
          "internalType": "address",
          "name": "from",
          "type": "address"
        },
        {
          "indexed": true,
          "internalType": "address",
          "name": "to",
          "type": "address"
        },
        {
          "indexed": false,
          "internalType": "uint256[]",
          "name": "ids",
          "type": "uint256[]"
        },
        {
          "indexed": false,
          "internalType": "uint256[]",
          "name": "values",
          "type": "uint256[]"
        }
      ],
      "name": "TransferBatch",
      "type": "event"
    },
    {
      "anonymous": false,
      "inputs": [
        {
          "indexed": true,
          "internalType": "address",
          "name": "operator",
          "type": "address"
        },
        {
          "indexed": true,
          "internalType": "address",
          "name": "from",
          "type": "address"
        },
        {
          "indexed": true,
          "internalType": "address",
          "name": "to",
          "type": "address"
        },
        {
          "indexed": false,
          "internalType": "uint256",
          "name": "id",
          "type": "uint256"
        },
        {
          "indexed": false,
          "internalType": "uint256",
          "name": "value",
          "type": "uint256"
        }
      ],
      "name": "TransferSingle",
      "type": "event"
    },
    {
      "anonymous": false,
      "inputs": [
        {
          "indexed": false,
          "internalType": "string",
          "name": "value",
          "type": "string"
        },
        {
          "indexed": true,
          "internalType": "uint256",
          "name": "id",
          "type": "uint256"
        }
      ],
      "name": "URI",
      "type": "event"
    },
    {
      "inputs": [],
      "name": "DEFAULT_ADMIN_ROLE",
      "outputs": [
        {
          "internalType": "bytes32",
          "name": "",
          "type": "bytes32"
        }
      ],
      "stateMutability": "view",
      "type": "function"
    },
    {
      "inputs": [],
      "name": "MAX_NUMBER_OF_ELDERS",
      "outputs": [
        {
          "internalType": "uint256",
          "name": "",
          "type": "uint256"
        }
      ],
      "stateMutability": "view",
      "type": "function"
    },
    {
      "inputs": [
        {
          "internalType": "uint256",
          "name": "",
          "type": "uint256"
        }
      ],
      "name": "affinities",
      "outputs": [
        {
          "internalType": "string",
          "name": "",
          "type": "string"
        }
      ],
      "stateMutability": "view",
      "type": "function"
    },
    {
      "inputs": [
        {
          "internalType": "address",
          "name": "account",
          "type": "address"
        },
        {
          "internalType": "uint256",
          "name": "id",
          "type": "uint256"
        }
      ],
      "name": "balanceOf",
      "outputs": [
        {
          "internalType": "uint256",
          "name": "",
          "type": "uint256"
        }
      ],
      "stateMutability": "view",
      "type": "function"
    },
    {
      "inputs": [
        {
          "internalType": "address[]",
          "name": "accounts",
          "type": "address[]"
        },
        {
          "internalType": "uint256[]",
          "name": "ids",
          "type": "uint256[]"
        }
      ],
      "name": "balanceOfBatch",
      "outputs": [
        {
          "internalType": "uint256[]",
          "name": "",
          "type": "uint256[]"
        }
      ],
      "stateMutability": "view",
      "type": "function"
    },
    {
      "inputs": [],
      "name": "burnElders",
      "outputs": [],
      "stateMutability": "nonpayable",
      "type": "function"
    },
    {
      "inputs": [
        {
          "internalType": "uint256",
          "name": "heroId",
          "type": "uint256"
        }
      ],
      "name": "burnHero",
      "outputs": [],
      "stateMutability": "nonpayable",
      "type": "function"
    },
    {
      "inputs": [
        {
          "internalType": "string",
          "name": "tokenTicker",
          "type": "string"
        },
        {
          "internalType": "address",
          "name": "feedAddress",
          "type": "address"
        }
      ],
      "name": "createAffinity",
      "outputs": [],
      "stateMutability": "nonpayable",
      "type": "function"
    },
    {
      "inputs": [],
      "name": "currentPhase",
      "outputs": [
        {
          "internalType": "enum CryptoChampions.Phase",
          "name": "",
          "type": "uint8"
        }
      ],
      "stateMutability": "view",
      "type": "function"
    },
    {
      "inputs": [],
      "name": "currentRound",
      "outputs": [
        {
          "internalType": "uint256",
          "name": "",
          "type": "uint256"
        }
      ],
      "stateMutability": "view",
      "type": "function"
    },
    {
      "inputs": [
        {
          "internalType": "string",
          "name": "winningAffinity",
          "type": "string"
        }
      ],
      "name": "declareRoundWinner",
      "outputs": [],
      "stateMutability": "nonpayable",
      "type": "function"
    },
    {
      "inputs": [
        {
          "internalType": "address",
          "name": "from",
          "type": "address"
        },
        {
          "internalType": "address",
          "name": "to",
          "type": "address"
        },
        {
          "internalType": "uint256",
          "name": "amount",
          "type": "uint256"
        }
      ],
      "name": "delegatedTransferInGameTokens",
      "outputs": [],
      "stateMutability": "nonpayable",
      "type": "function"
    },
    {
      "inputs": [
        {
          "internalType": "string",
          "name": "winningAffinity",
          "type": "string"
        }
      ],
      "name": "disburseRewards",
      "outputs": [],
      "stateMutability": "nonpayable",
      "type": "function"
    },
    {
      "inputs": [],
      "name": "elderMintPrice",
      "outputs": [
        {
          "internalType": "uint256",
          "name": "",
          "type": "uint256"
        }
      ],
      "stateMutability": "view",
      "type": "function"
    },
    {
      "inputs": [],
      "name": "eldersInGame",
      "outputs": [
        {
          "internalType": "uint256",
          "name": "",
          "type": "uint256"
        }
      ],
      "stateMutability": "view",
      "type": "function"
    },
    {
      "inputs": [
        {
          "internalType": "string",
          "name": "affinity",
          "type": "string"
        }
      ],
      "name": "getAffinityFeedAddress",
      "outputs": [
        {
          "internalType": "address",
          "name": "",
          "type": "address"
        }
      ],
      "stateMutability": "view",
      "type": "function"
    },
    {
      "inputs": [
        {
          "internalType": "uint256",
          "name": "elderId",
          "type": "uint256"
        }
      ],
      "name": "getElderOwner",
      "outputs": [
        {
          "internalType": "address",
          "name": "",
          "type": "address"
        }
      ],
      "stateMutability": "view",
      "type": "function"
    },
    {
      "inputs": [
        {
          "internalType": "uint256",
          "name": "round",
          "type": "uint256"
        },
        {
          "internalType": "uint256",
          "name": "elderId",
          "type": "uint256"
        }
      ],
      "name": "getElderSpawnsAmount",
      "outputs": [
        {
          "internalType": "uint256",
          "name": "",
          "type": "uint256"
        }
      ],
      "stateMutability": "view",
      "type": "function"
    },
    {
      "inputs": [
        {
          "internalType": "uint256",
          "name": "elderId",
          "type": "uint256"
        }
      ],
      "name": "getElderSpirit",
      "outputs": [
        {
          "internalType": "bool",
          "name": "",
          "type": "bool"
        },
        {
          "internalType": "uint256",
          "name": "",
          "type": "uint256"
        },
        {
          "internalType": "uint256",
          "name": "",
          "type": "uint256"
        },
        {
          "internalType": "string",
          "name": "",
          "type": "string"
        },
        {
          "internalType": "int256",
          "name": "",
          "type": "int256"
        }
      ],
      "stateMutability": "view",
      "type": "function"
    },
    {
      "inputs": [
        {
          "internalType": "uint256",
          "name": "heroId",
          "type": "uint256"
        }
      ],
      "name": "getHeroGameData",
      "outputs": [
        {
          "internalType": "bool",
          "name": "",
          "type": "bool"
        },
        {
          "internalType": "string",
          "name": "",
          "type": "string"
        },
        {
          "internalType": "int256",
          "name": "",
          "type": "int256"
        },
        {
          "internalType": "uint256",
          "name": "",
          "type": "uint256"
        },
        {
          "internalType": "uint256",
          "name": "",
          "type": "uint256"
        }
      ],
      "stateMutability": "view",
      "type": "function"
    },
    {
      "inputs": [
        {
          "internalType": "uint256",
          "name": "heroId",
          "type": "uint256"
        }
      ],
      "name": "getHeroLore",
      "outputs": [
        {
          "internalType": "uint8",
          "name": "",
          "type": "uint8"
        },
        {
          "internalType": "uint8",
          "name": "",
          "type": "uint8"
        },
        {
          "internalType": "uint8",
          "name": "",
          "type": "uint8"
        },
        {
          "internalType": "uint8",
          "name": "",
          "type": "uint8"
        }
      ],
      "stateMutability": "view",
      "type": "function"
    },
    {
      "inputs": [
        {
          "internalType": "uint256",
          "name": "round",
          "type": "uint256"
        },
        {
          "internalType": "uint256",
          "name": "elderId",
          "type": "uint256"
        }
      ],
      "name": "getHeroMintPrice",
      "outputs": [
        {
          "internalType": "uint256",
          "name": "",
          "type": "uint256"
        }
      ],
      "stateMutability": "view",
      "type": "function"
    },
    {
      "inputs": [
        {
          "internalType": "uint256",
          "name": "heroId",
          "type": "uint256"
        }
      ],
      "name": "getHeroOwner",
      "outputs": [
        {
          "internalType": "address",
          "name": "",
          "type": "address"
        }
      ],
      "stateMutability": "view",
      "type": "function"
    },
    {
      "inputs": [
        {
          "internalType": "uint256",
          "name": "heroId",
          "type": "uint256"
        }
      ],
      "name": "getHeroStats",
      "outputs": [
        {
          "internalType": "uint8",
          "name": "",
          "type": "uint8"
        },
        {
          "internalType": "uint8",
          "name": "",
          "type": "uint8"
        },
        {
          "internalType": "uint8",
          "name": "",
          "type": "uint8"
        },
        {
          "internalType": "uint8",
          "name": "",
          "type": "uint8"
        },
        {
          "internalType": "uint8",
          "name": "",
          "type": "uint8"
        },
        {
          "internalType": "uint8",
          "name": "",
          "type": "uint8"
        }
      ],
      "stateMutability": "view",
      "type": "function"
    },
    {
      "inputs": [
        {
          "internalType": "uint256",
          "name": "heroId",
          "type": "uint256"
        }
      ],
      "name": "getHeroTraitsSkills",
      "outputs": [
        {
          "internalType": "uint8",
          "name": "",
          "type": "uint8"
        },
        {
          "internalType": "uint8",
          "name": "",
          "type": "uint8"
        },
        {
          "internalType": "uint8",
          "name": "",
          "type": "uint8"
        },
        {
          "internalType": "uint8",
          "name": "",
          "type": "uint8"
        }
      ],
      "stateMutability": "view",
      "type": "function"
    },
    {
      "inputs": [
        {
          "internalType": "uint256",
          "name": "heroId",
          "type": "uint256"
        }
      ],
      "name": "getHeroVisuals",
      "outputs": [
        {
          "internalType": "string",
          "name": "",
          "type": "string"
        },
        {
          "internalType": "uint256",
          "name": "",
          "type": "uint256"
        },
        {
          "internalType": "uint256",
          "name": "",
          "type": "uint256"
        },
        {
          "internalType": "uint8",
          "name": "",
          "type": "uint8"
        }
      ],
      "stateMutability": "view",
      "type": "function"
    },
    {
      "inputs": [
        {
          "internalType": "uint256",
          "name": "heroId",
          "type": "uint256"
        }
      ],
      "name": "getHeroVitals",
      "outputs": [
        {
          "internalType": "uint8",
          "name": "",
          "type": "uint8"
        },
        {
          "internalType": "uint8",
          "name": "",
          "type": "uint8"
        },
        {
          "internalType": "uint8",
          "name": "",
          "type": "uint8"
        },
        {
          "internalType": "uint8",
          "name": "",
          "type": "uint8"
        }
      ],
      "stateMutability": "view",
      "type": "function"
    },
    {
      "inputs": [],
      "name": "getNumEldersInGame",
      "outputs": [
        {
          "internalType": "uint256",
          "name": "",
          "type": "uint256"
        }
      ],
      "stateMutability": "view",
      "type": "function"
    },
    {
      "inputs": [
        {
          "internalType": "bytes32",
          "name": "role",
          "type": "bytes32"
        }
      ],
      "name": "getRoleAdmin",
      "outputs": [
        {
          "internalType": "bytes32",
          "name": "",
          "type": "bytes32"
        }
      ],
      "stateMutability": "view",
      "type": "function"
    },
    {
      "inputs": [
        {
          "internalType": "bytes32",
          "name": "role",
          "type": "bytes32"
        },
        {
          "internalType": "uint256",
          "name": "index",
          "type": "uint256"
        }
      ],
      "name": "getRoleMember",
      "outputs": [
        {
          "internalType": "address",
          "name": "",
          "type": "address"
        }
      ],
      "stateMutability": "view",
      "type": "function"
    },
    {
      "inputs": [
        {
          "internalType": "bytes32",
          "name": "role",
          "type": "bytes32"
        }
      ],
      "name": "getRoleMemberCount",
      "outputs": [
        {
          "internalType": "uint256",
          "name": "",
          "type": "uint256"
        }
      ],
      "stateMutability": "view",
      "type": "function"
    },
    {
      "inputs": [
        {
          "internalType": "bytes32",
          "name": "role",
          "type": "bytes32"
        },
        {
          "internalType": "address",
          "name": "account",
          "type": "address"
        }
      ],
      "name": "grantRole",
      "outputs": [],
      "stateMutability": "nonpayable",
      "type": "function"
    },
    {
      "inputs": [
        {
          "internalType": "bytes32",
          "name": "role",
          "type": "bytes32"
        },
        {
          "internalType": "address",
          "name": "account",
          "type": "address"
        }
      ],
      "name": "hasRole",
      "outputs": [
        {
          "internalType": "bool",
          "name": "",
          "type": "bool"
        }
      ],
      "stateMutability": "view",
      "type": "function"
    },
    {
      "inputs": [],
      "name": "heroesMinted",
      "outputs": [
        {
          "internalType": "uint256",
          "name": "",
          "type": "uint256"
        }
      ],
      "stateMutability": "view",
      "type": "function"
    },
    {
      "inputs": [
        {
          "internalType": "address",
          "name": "account",
          "type": "address"
        },
        {
          "internalType": "address",
          "name": "operator",
          "type": "address"
        }
      ],
      "name": "isApprovedForAll",
      "outputs": [
        {
          "internalType": "bool",
          "name": "",
          "type": "bool"
        }
      ],
      "stateMutability": "view",
      "type": "function"
    },
    {
      "inputs": [
        {
          "internalType": "uint256",
          "name": "raceId",
          "type": "uint256"
        },
        {
          "internalType": "uint256",
          "name": "classId",
          "type": "uint256"
        },
        {
          "internalType": "string",
          "name": "affinity",
          "type": "string"
        }
      ],
      "name": "mintElderSpirit",
      "outputs": [
        {
          "internalType": "uint256",
          "name": "",
          "type": "uint256"
        }
      ],
      "stateMutability": "payable",
      "type": "function"
    },
    {
      "inputs": [
        {
          "internalType": "uint256",
          "name": "elderId",
          "type": "uint256"
        },
        {
          "internalType": "string",
          "name": "heroName",
          "type": "string"
        }
      ],
      "name": "mintHero",
      "outputs": [
        {
          "internalType": "uint256",
          "name": "",
          "type": "uint256"
        }
      ],
      "stateMutability": "payable",
      "type": "function"
    },
    {
      "inputs": [
        {
          "internalType": "bytes32",
          "name": "requestId",
          "type": "bytes32"
        },
        {
          "internalType": "uint256",
          "name": "randomness",
          "type": "uint256"
        }
      ],
      "name": "rawFulfillRandomness",
      "outputs": [],
      "stateMutability": "nonpayable",
      "type": "function"
    },
    {
      "inputs": [
        {
          "internalType": "bytes32",
          "name": "role",
          "type": "bytes32"
        },
        {
          "internalType": "address",
          "name": "account",
          "type": "address"
        }
      ],
      "name": "renounceRole",
      "outputs": [],
      "stateMutability": "nonpayable",
      "type": "function"
    },
    {
      "inputs": [
        {
          "internalType": "bytes32",
          "name": "role",
          "type": "bytes32"
        },
        {
          "internalType": "address",
          "name": "account",
          "type": "address"
        }
      ],
      "name": "revokeRole",
      "outputs": [],
      "stateMutability": "nonpayable",
      "type": "function"
    },
    {
      "inputs": [
        {
          "internalType": "address",
          "name": "from",
          "type": "address"
        },
        {
          "internalType": "address",
          "name": "to",
          "type": "address"
        },
        {
          "internalType": "uint256[]",
          "name": "ids",
          "type": "uint256[]"
        },
        {
          "internalType": "uint256[]",
          "name": "amounts",
          "type": "uint256[]"
        },
        {
          "internalType": "bytes",
          "name": "data",
          "type": "bytes"
        }
      ],
      "name": "safeBatchTransferFrom",
      "outputs": [],
      "stateMutability": "nonpayable",
      "type": "function"
    },
    {
      "inputs": [
        {
          "internalType": "address",
          "name": "from",
          "type": "address"
        },
        {
          "internalType": "address",
          "name": "to",
          "type": "address"
        },
        {
          "internalType": "uint256",
          "name": "id",
          "type": "uint256"
        },
        {
          "internalType": "uint256",
          "name": "amount",
          "type": "uint256"
        },
        {
          "internalType": "bytes",
          "name": "data",
          "type": "bytes"
        }
      ],
      "name": "safeTransferFrom",
      "outputs": [],
      "stateMutability": "nonpayable",
      "type": "function"
    },
    {
      "inputs": [
        {
          "internalType": "address",
          "name": "operator",
          "type": "address"
        },
        {
          "internalType": "bool",
          "name": "approved",
          "type": "bool"
        }
      ],
      "name": "setApprovalForAll",
      "outputs": [],
      "stateMutability": "nonpayable",
      "type": "function"
    },
    {
      "inputs": [
        {
          "internalType": "uint256",
          "name": "price",
          "type": "uint256"
        }
      ],
      "name": "setElderMintPrice",
      "outputs": [],
      "stateMutability": "nonpayable",
      "type": "function"
    },
    {
      "inputs": [
        {
          "internalType": "enum CryptoChampions.Phase",
          "name": "phase",
          "type": "uint8"
        }
      ],
      "name": "setPhase",
      "outputs": [],
      "stateMutability": "nonpayable",
      "type": "function"
    },
    {
      "inputs": [],
      "name": "startNewPriceGame",
      "outputs": [],
      "stateMutability": "nonpayable",
      "type": "function"
    },
    {
      "inputs": [
        {
          "internalType": "bytes4",
          "name": "interfaceId",
          "type": "bytes4"
        }
      ],
      "name": "supportsInterface",
      "outputs": [
        {
          "internalType": "bool",
          "name": "",
          "type": "bool"
        }
      ],
      "stateMutability": "view",
      "type": "function"
    },
    {
      "inputs": [
        {
          "internalType": "address",
          "name": "to",
          "type": "address"
        },
        {
          "internalType": "uint256",
          "name": "amount",
          "type": "uint256"
        }
      ],
      "name": "transferInGameTokens",
      "outputs": [],
      "stateMutability": "nonpayable",
      "type": "function"
    },
    {
      "inputs": [
        {
          "internalType": "uint256",
          "name": "",
          "type": "uint256"
        }
      ],
      "name": "uri",
      "outputs": [
        {
          "internalType": "string",
          "name": "",
          "type": "string"
        }
      ],
      "stateMutability": "view",
      "type": "function"
    },
    {
      "inputs": [
        {
          "internalType": "uint256",
          "name": "",
          "type": "uint256"
        }
      ],
      "name": "winningAffinitiesByRound",
      "outputs": [
        {
          "internalType": "string",
          "name": "",
          "type": "string"
        }
      ],
      "stateMutability": "view",
      "type": "function"
    }
  ],
  "bytecode": "60c060405260006007556000600a553480156200001b57600080fd5b506040516200594f3803806200594f833981810160405260808110156200004157600080fd5b5080516020808301516040808501516060909501518151808301909252600382526275726960e81b9382019390935292939092909190839083906200008d6301ffc9a760e01b620001e0565b620000988162000268565b620000aa636cdb3d1360e11b620001e0565b620000bc6303a24d0760e21b620001e0565b506001600160601b0319606092831b811660a052911b16608052620000f16000805160206200592f8339815191528062000281565b6200011b6000805160206200590f8339815191526000805160206200592f83398151915262000281565b620001567fae0c232b87105e0a8134f8b92146dcd1d99373d32394be9d70f700f90b3a3db36000805160206200592f83398151915262000281565b620001716000805160206200592f83398151915233620002d3565b6200018c6000805160206200590f83398151915233620002df565b6703c2c9106e218000600e556000600f556006805460ff19169055601293909355505067016345785d8a0000601355601780546001600160a01b0319166001600160a01b039092169190911790556200051e565b6001600160e01b0319808216141562000240576040805162461bcd60e51b815260206004820152601c60248201527f4552433136353a20696e76616c696420696e7465726661636520696400000000604482015290519081900360640190fd5b6001600160e01b0319166000908152600160208190526040909120805460ff19169091179055565b80516200027d90600490602084019062000482565b5050565b600082815260208190526040808220600201549051839285917fbd79b86ffe0ab8e8776151514217cd7cacd52c909f66475c3af44e129f0b00ff9190a460009182526020829052604090912060020155565b6200027d828262000343565b600082815260208190526040902060020154620003069062000300620003bc565b620003c0565b620002d35760405162461bcd60e51b815260040180806020018281038252602f815260200180620058e0602f913960400191505060405180910390fd5b60008281526020818152604090912062000368918390620034ad620003ed821b17901c565b156200027d5762000378620003bc565b6001600160a01b0316816001600160a01b0316837f2f8788117e7eff1d82e926ec794901d17c78024a50270940304540a733656f0d60405160405180910390a45050565b3390565b6000828152602081815260408220620003e4918490620034c262000404821b17901c565b90505b92915050565b6000620003e4836001600160a01b0384166200041b565b6000620003e4836001600160a01b0384166200046a565b60006200042983836200046a565b6200046157508154600181810184556000848152602080822090930184905584548482528286019093526040902091909155620003e7565b506000620003e7565b60009081526001919091016020526040902054151590565b828054600181600116156101000203166002900490600052602060002090601f016020900481019282601f10620004c557805160ff1916838001178555620004f5565b82800160010185558215620004f5579182015b82811115620004f5578251825591602001919060010190620004d8565b506200050392915062000507565b5090565b5b8082111562000503576000815560010162000508565b60805160601c60a05160601c61538e6200055260003980612c4852806149ea525080613e1e52806149bb525061538e6000f3fe6080604052600436106102c85760003560e01c806379935fe011610175578063a4aeec53116100dc578063d547741f11610095578063e985e9c51161006f578063e985e9c5146111e2578063f242432a1461121d578063f32c4974146112f3578063fbc120f914611323576102c8565b8063d547741f14611155578063e3e983821461118e578063e5b0a993146111b8576102c8565b8063a4aeec531461107c578063b928006714611091578063bf61211f146110d4578063c03afb59146110e9578063ca15c87314611116578063caab7ef814611140576102c8565b806391d148541161012e57806391d1485414610ec457806394985ddd14610efd5780639d5b82c014610f2d5780639e31500814610fb1578063a217fddf1461102c578063a22cb46514611041576102c8565b806379935fe014610dc4578063835a439814610dd95780638423b07714610e405780638a19c8bc14610e6a5780639010d07c14610e7f57806390ded47e14610eaf576102c8565b80632efb8874116102345780634c2ed018116101ed57806356b4d760116101c757806356b4d76014610d1657806359ca19d314610d405780636de5135314610d7057806372eda5bb14610d9a576102c8565b80634c2ed01814610b575780634c52b2a914610b815780634e1273f414610b96576102c8565b80632efb8874146108e35780632f2ff15d1461095e57806336568abe1461099757806346e6f13d146109d057806348772d7914610a8a578063498e821914610ae2576102c8565b8063248a9ca311610286578063248a9ca31461056f57806326d4d15a1461059957806326f7af4f1461063057806327e50b181461066b5780632eb2c2d6146106955780632ee1f0a014610863576102c8565b8062fdd58e146102cd57806301ffc9a714610318578063055ad42e146103605780630e89341c146103965780630fbea8411461043557806321c2f72a146104af575b600080fd5b3480156102d957600080fd5b50610306600480360360408110156102f057600080fd5b506001600160a01b038135169060200135611338565b60408051918252519081900360200190f35b34801561032457600080fd5b5061034c6004803603602081101561033b57600080fd5b50356001600160e01b0319166113aa565b604080519115158252519081900360200190f35b34801561036c57600080fd5b506103756113cd565b6040518082600181111561038557fe5b815260200191505060405180910390f35b3480156103a257600080fd5b506103c0600480360360208110156103b957600080fd5b50356113d6565b6040805160208082528351818301528351919283929083019185019080838360005b838110156103fa5781810151838201526020016103e2565b50505050905090810190601f1680156104275780820380516001836020036101000a031916815260200191505b509250505060405180910390f35b6103066004803603606081101561044b57600080fd5b813591602081013591810190606081016040820135600160201b81111561047157600080fd5b82018360208201111561048357600080fd5b803590602001918460018302840111600160201b831117156104a457600080fd5b50909250905061146e565b3480156104bb57600080fd5b506104d9600480360360208110156104d257600080fd5b503561174d565b60405180861515815260200185815260200184815260200180602001838152602001828103825284818151815260200191508051906020019080838360005b83811015610530578181015183820152602001610518565b50505050905090810190601f16801561055d5780820380516001836020036101000a031916815260200191505b50965050505050505060405180910390f35b34801561057b57600080fd5b506103066004803603602081101561059257600080fd5b503561187b565b3480156105a557600080fd5b50610614600480360360208110156105bc57600080fd5b810190602081018135600160201b8111156105d657600080fd5b8201836020820111156105e857600080fd5b803590602001918460018302840111600160201b8311171561060957600080fd5b509092509050611890565b604080516001600160a01b039092168252519081900360200190f35b34801561063c57600080fd5b506106696004803603604081101561065357600080fd5b506001600160a01b0381351690602001356118ca565b005b34801561067757600080fd5b506106696004803603602081101561068e57600080fd5b50356118df565b3480156106a157600080fd5b50610669600480360360a08110156106b857600080fd5b6001600160a01b038235811692602081013590911691810190606081016040820135600160201b8111156106eb57600080fd5b8201836020820111156106fd57600080fd5b803590602001918460208302840111600160201b8311171561071e57600080fd5b9190808060200260200160405190810160405280939291908181526020018383602002808284376000920191909152509295949360208101935035915050600160201b81111561076d57600080fd5b82018360208201111561077f57600080fd5b803590602001918460208302840111600160201b831117156107a057600080fd5b9190808060200260200160405190810160405280939291908181526020018383602002808284376000920191909152509295949360208101935035915050600160201b8111156107ef57600080fd5b82018360208201111561080157600080fd5b803590602001918460018302840111600160201b8311171561082257600080fd5b91908080601f016020809104026020016040519081016040528093929190818152602001838380828437600092019190915250929550611a2b945050505050565b34801561086f57600080fd5b5061088d6004803603602081101561088657600080fd5b5035611d2e565b604051808615158152602001806020018581526020018481526020018381526020018281038252868181518152602001915080519060200190808383600083811015610530578181015183820152602001610518565b3480156108ef57600080fd5b506106696004803603602081101561090657600080fd5b810190602081018135600160201b81111561092057600080fd5b82018360208201111561093257600080fd5b803590602001918460018302840111600160201b8311171561095357600080fd5b509092509050611e30565b34801561096a57600080fd5b506106696004803603604081101561098157600080fd5b50803590602001356001600160a01b0316611e4b565b3480156109a357600080fd5b50610669600480360360408110156109ba57600080fd5b50803590602001356001600160a01b0316611eb3565b3480156109dc57600080fd5b506109fa600480360360208110156109f357600080fd5b5035611f14565b60405180806020018581526020018481526020018360ff168152602001828103825286818151815260200191508051906020019080838360005b83811015610a4c578181015183820152602001610a34565b50505050905090810190601f168015610a795780820380516001836020036101000a031916815260200191505b509550505050505060405180910390f35b348015610a9657600080fd5b50610ab460048036036020811015610aad57600080fd5b5035612011565b6040805160ff9586168152938516602085015291841683830152909216606082015290519081900360800190f35b61030660048036036040811015610af857600080fd5b81359190810190604081016020820135600160201b811115610b1957600080fd5b820183602082011115610b2b57600080fd5b803590602001918460018302840111600160201b83111715610b4c57600080fd5b509092509050612083565b348015610b6357600080fd5b50610ab460048036036020811015610b7a57600080fd5b50356127db565b348015610b8d57600080fd5b50610306612852565b348015610ba257600080fd5b50610cc660048036036040811015610bb957600080fd5b810190602081018135600160201b811115610bd357600080fd5b820183602082011115610be557600080fd5b803590602001918460208302840111600160201b83111715610c0657600080fd5b9190808060200260200160405190810160405280939291908181526020018383602002808284376000920191909152509295949360208101935035915050600160201b811115610c5557600080fd5b820183602082011115610c6757600080fd5b803590602001918460208302840111600160201b83111715610c8857600080fd5b919080806020026020016040519081016040528093929190818152602001838360200280828437600092019190915250929550612859945050505050565b60408051602080825283518183015283519192839290830191858101910280838360005b83811015610d02578181015183820152602001610cea565b505050509050019250505060405180910390f35b348015610d2257600080fd5b5061061460048036036020811015610d3957600080fd5b5035612945565b348015610d4c57600080fd5b5061030660048036036040811015610d6357600080fd5b50803590602001356129ae565b348015610d7c57600080fd5b506103c060048036036020811015610d9357600080fd5b50356129f9565b348015610da657600080fd5b5061061460048036036020811015610dbd57600080fd5b5035612a9f565b348015610dd057600080fd5b50610306612afa565b348015610de557600080fd5b50610e0360048036036020811015610dfc57600080fd5b5035612b00565b6040805160ff978816815295871660208701529386168585015291851660608501528416608084015290921660a082015290519081900360c00190f35b348015610e4c57600080fd5b50610ab460048036036020811015610e6357600080fd5b5035612b8c565b348015610e7657600080fd5b50610306612bfb565b348015610e8b57600080fd5b5061061460048036036040811015610ea257600080fd5b5080359060200135612c01565b348015610ebb57600080fd5b50610306612c20565b348015610ed057600080fd5b5061034c60048036036040811015610ee757600080fd5b50803590602001356001600160a01b0316612c25565b348015610f0957600080fd5b5061066960048036036040811015610f2057600080fd5b5080359060200135612c3d565b348015610f3957600080fd5b5061066960048036036040811015610f5057600080fd5b810190602081018135600160201b811115610f6a57600080fd5b820183602082011115610f7c57600080fd5b803590602001918460018302840111600160201b83111715610f9d57600080fd5b9193509150356001600160a01b0316612cc4565b348015610fbd57600080fd5b5061066960048036036020811015610fd457600080fd5b810190602081018135600160201b811115610fee57600080fd5b82018360208201111561100057600080fd5b803590602001918460018302840111600160201b8311171561102157600080fd5b509092509050612d66565b34801561103857600080fd5b50610306612dcc565b34801561104d57600080fd5b506106696004803603604081101561106457600080fd5b506001600160a01b0381351690602001351515612dd1565b34801561108857600080fd5b50610669612ec0565b34801561109d57600080fd5b50610669600480360360608110156110b457600080fd5b506001600160a01b03813581169160208101359091169060400135612f56565b3480156110e057600080fd5b50610306612f66565b3480156110f557600080fd5b506106696004803603602081101561110c57600080fd5b503560ff16612f6c565b34801561112257600080fd5b506103066004803603602081101561113957600080fd5b5035612fa3565b34801561114c57600080fd5b50610306612fba565b34801561116157600080fd5b506106696004803603604081101561117857600080fd5b50803590602001356001600160a01b0316612fc0565b34801561119a57600080fd5b50610669600480360360208110156111b157600080fd5b5035613019565b3480156111c457600080fd5b506103c0600480360360208110156111db57600080fd5b5035613035565b3480156111ee57600080fd5b5061034c6004803603604081101561120557600080fd5b506001600160a01b0381358116916020013516613042565b34801561122957600080fd5b50610669600480360360a081101561124057600080fd5b6001600160a01b03823581169260208101359091169160408201359160608101359181019060a081016080820135600160201b81111561127f57600080fd5b82018360208201111561129157600080fd5b803590602001918460018302840111600160201b831117156112b257600080fd5b91908080601f016020809104026020016040519081016040528093929190818152602001838380828437600092019190915250929550613070945050505050565b3480156112ff57600080fd5b506103066004803603604081101561131657600080fd5b508035906020013561323b565b34801561132f57600080fd5b506106696132a0565b60006001600160a01b03831661137f5760405162461bcd60e51b815260040180806020018281038252602b815260200180615102602b913960400191505060405180910390fd5b5060008181526002602090815260408083206001600160a01b03861684529091529020545b92915050565b6001600160e01b0319811660009081526001602052604090205460ff165b919050565b60065460ff1681565b60048054604080516020601f60026000196101006001881615020190951694909404938401819004810282018101909252828152606093909290918301828280156114625780601f1061143757610100808354040283529160200191611462565b820191906000526020600020905b81548152906001019060200180831161144557829003601f168201915b50505050509050919050565b60008060065460ff16600181111561148257fe5b1461148c57600080fd5b600780541061149a57600080fd5b600e543410156114a957600080fd5b60006001600160a01b0316601084846040518083838082843791909101948552505060405192839003602001909220546001600160a01b0316929092141591506114f4905057600080fd5b6007546000906115059060016134d7565b6000818152600860205260409020549091506001600160a01b03161561152757fe5b60008181526009602052604090205460ff161561154057fe5b600060108585604051808383808284379190910194855250506040805193849003602001842054633fabe5a360e21b855290516001600160a01b039091169363feaf968c93506004808201935060a09291829003018186803b1580156115a557600080fd5b505afa1580156115b9573d6000803e3d6000fd5b505050506040513d60a08110156115cf57600080fd5b506020015190506115de614d9a565b60018152602080820189905260408083018990528051601f8801839004830281018301909152868152908790879081908401838280828437600092019190915250505050606082015260808101829052611651611639613531565b84600160405180602001604052806000815250613535565b611659613531565b600084815260086020908152604080832080546001600160a01b0319166001600160a01b03959095169490941790935560098152908290208351815460ff1916901515178155838201516001820155918301516002830155606083015180518493926116cc926003850192910190614dcb565b50608091909101516004909101556007546116e89060016134d7565b600755600e546116f79061363d565b7f3560f0337e62819199860ba21b425b8bde9a01fa6e514dd58ab6edf7daf1d1f183611721613531565b604080519283526001600160a01b0390911660208301528051918290030190a150909695505050505050565b60008060006060600085600081118015611768575060078111155b61177157600080fd5b611779614d9a565b600088815260096020908152604091829020825160a081018452815460ff1615158152600180830154828501526002808401548387015260038401805487516101009482161594909402600019011691909104601f81018690048602830186019096528582529194929360608601939192919083018282801561183d5780601f106118125761010080835404028352916020019161183d565b820191906000526020600020905b81548152906001019060200180831161182057829003601f168201915b50505091835250506004919091015460209182015281519082015160408301516060840151608090940151929c919b50995091975095509350505050565b60009081526020819052604090206002015490565b6000601083836040518083838082843791909101948552505060405192839003602001909220546001600160a01b03169250505092915050565b60606118da338460008585613070565b505050565b80600781116118ed57600080fd5b6000818152600c602052604090205460ff1661190857600080fd5b6000828152600c602052604090205460ff1661192357600080fd5b61192b613531565b6000838152600b60205260409020546001600160a01b0390811691161461195157600080fd5b6000828152600b6020526040902054611975906001600160a01b03168360016136ae565b6000828152600c602090815260408083206005810154600490910154808552600d84528285208286529093529220546119af9060016137e1565b6000828152600d60209081526040808320868452825280832093909355868252600b815282822080546001600160a01b0319169055600c815290829020805460ff19169055815186815291517f76126f33d318abe88f8b82c5136b7e5a52091ab897679a40f612d7590adfc9979281900390910190a150505050565b8151835114611a6b5760405162461bcd60e51b81526004018080602001828103825260288152602001806152e16028913960400191505060405180910390fd5b6001600160a01b038416611ab05760405162461bcd60e51b81526004018080602001828103825260258152602001806151aa6025913960400191505060405180910390fd5b611ab8613531565b6001600160a01b0316856001600160a01b03161480611ae35750611ae385611ade613531565b613042565b611b1e5760405162461bcd60e51b81526004018080602001828103825260328152602001806151cf6032913960400191505060405180910390fd5b6000611b28613531565b9050611b3881878787878761383e565b60005b8451811015611c3e576000858281518110611b5257fe5b602002602001015190506000858381518110611b6a57fe5b60200260200101519050611bd7816040518060600160405280602a8152602001615244602a91396002600086815260200190815260200160002060008d6001600160a01b03166001600160a01b03168152602001908152602001600020546139509092919063ffffffff16565b60008381526002602090815260408083206001600160a01b038e811685529252808320939093558a1681522054611c0e90826134d7565b60009283526002602090815260408085206001600160a01b038c1686529091529092209190915550600101611b3b565b50846001600160a01b0316866001600160a01b0316826001600160a01b03167f4a39dc06d4c0dbc64b70af90fd698a233a518aa5d07e595d983b8c0526c8f7fb8787604051808060200180602001838103835285818151815260200191508051906020019060200280838360005b83811015611cc4578181015183820152602001611cac565b50505050905001838103825284818151815260200191508051906020019060200280838360005b83811015611d03578181015183820152602001611ceb565b5050505090500194505050505060405180910390a4611d268187878787876139e7565b505050505050565b6000606060008060008560078111611d4557600080fd5b6000818152600c602052604090205460ff16611d6057600080fd5b6000878152600c602090815260409182902080546003820154600483015460058401546002948501805488516101006001831615026000190190911696909604601f810188900488028701880190985287865260ff909416969395929491939092869190830182828015611e155780601f10611dea57610100808354040283529160200191611e15565b820191906000526020600020905b815481529060010190602001808311611df857829003601f168201915b50505050509350955095509550955095505091939590929450565b611e47600080516020615201833981519152613c5d565b5050565b600082815260208190526040902060020154611e6e90611e69613531565b612c25565b611ea95760405162461bcd60e51b815260040180806020018281038252602f8152602001806150d3602f913960400191505060405180910390fd5b611e478282613c70565b611ebb613531565b6001600160a01b0316816001600160a01b031614611f0a5760405162461bcd60e51b815260040180806020018281038252602f81526020018061532a602f913960400191505060405180910390fd5b611e478282613cd9565b606060008060008460078111611f2957600080fd5b6000818152600c602052604090205460ff16611f4457600080fd5b6000868152600c6020908152604091829020600681015460078201546008830154600193840180548751600261010097831615979097026000190190911695909504601f8101879004870286018701909752868552959294919360ff909116929091869190830182828015611ffa5780601f10611fcf57610100808354040283529160200191611ffa565b820191906000526020600020905b815481529060010190602001808311611fdd57829003601f168201915b505050505093509450945094509450509193509193565b600080600080846007811161202557600080fd5b6000818152600c602052604090205460ff1661204057600080fd5b50505060009283525050600c602052604090206008015460ff600160481b8204811692600160501b8304821692600160581b8104831692600160601b9091041690565b600083600081118015612097575060078111155b6120a057600080fd5b600160065460ff1660018111156120b357fe5b146120bd57600080fd5b60008581526009602052604090205460ff166120d857600080fd5b6120e185613d42565b6120ea57600080fd5b60006120f8600f548761323b565b90508034101561210757600080fd5b600060076121216001600a546134d790919063ffffffff16565b016000818152600b60205260409020549091506001600160a01b03161561214457fe5b6000818152600c602052604090205460ff161561215d57fe5b612165614e49565b60018152604080516020601f8901819004810282018101909252878152908890889081908401838280828437600081840152601f19601f820116905080830192505050505050508160200181905250600f54816080018181525050878160a001818152505060096000898152602001908152602001600020600101548160c001818152505060096000898152602001908152602001600020600201548160e0018181525050600960008981526020019081526020016000206003018054600181600116156101000203166002900480601f0160208091040260200160405190810160405280929190818152602001828054600181600116156101000203166002900480156122b45780601f10612289576101008083540402835291602001916122b4565b820191906000526020600020905b81548152906001019060200180831161229757829003601f168201915b50505050506040828101919091526000838152600c60209081529190208251815460ff191690151517815581830151805184936122f8926001850192910190614dcb565b5060408201518051612314916002840191602090910190614dcb565b50606082015181600301556080820151816004015560a0820151816005015560c0820151816006015560e082015181600701556101008201518160080160006101000a81548160ff021916908360ff1602179055506101208201518160080160016101000a81548160ff021916908360ff1602179055506101408201518160080160026101000a81548160ff021916908360ff1602179055506101608201518160080160036101000a81548160ff021916908360ff1602179055506101808201518160080160046101000a81548160ff021916908360ff1602179055506101a08201518160080160056101000a81548160ff021916908360ff1602179055506101c08201518160080160066101000a81548160ff021916908360ff1602179055506101e08201518160080160076101000a81548160ff021916908360ff1602179055506102008201518160080160086101000a81548160ff021916908360ff1602179055506102208201518160080160096101000a81548160ff021916908360ff16021790555061024082015181600801600a6101000a81548160ff021916908360ff16021790555061026082015181600801600b6101000a81548160ff021916908360ff16021790555061028082015181600801600c6101000a81548160ff021916908360ff1602179055506102a082015181600801600d6101000a81548160ff021916908360ff1602179055506102c082015181600801600e6101000a81548160ff021916908360ff1602179055506102e082015181600801600f6101000a81548160ff021916908360ff1602179055506103008201518160080160106101000a81548160ff021916908360ff1602179055506103208201518160080160116101000a81548160ff021916908360ff1602179055506103408201518160080160126101000a81548160ff021916908360ff16021790555090505060006125db83613e17565b600081815260146020526040902084905590506125f781613ecf565b612602611639613531565b61262e61260d613531565b6000681b1ae4d6e2ef50000060405180602001604052806000815250613535565b612636613531565b6000848152600b6020526040902080546001600160a01b0319166001600160a01b0392909216919091179055600a546126709060016134d7565b600a55600f546000908152600d602090815260408083208c845290915290205461269b9060016134d7565b600f546000908152600d602090815260408083208d84529091528120919091556126d1600a6126cb8760086145a6565b906145ff565b60008b8152600860205260408082205490519293506001600160a01b031691829084908381818185875af1925050503d806000811461272c576040519150601f19603f3d011682016040523d82523d6000602084013e612731565b606091505b5050905080612778576040805162461bcd60e51b815260206004820152600e60248201526d14185e5b595b9d0819985a5b195960921b604482015290519081900360640190fd5b6127818761363d565b7ff34a510082f5a02e39555458564800fc1fe73bfd8d3aa07cbf063fe662e7657e866127ab613531565b604080519283526001600160a01b0390911660208301528051918290030190a150939a9950505050505050505050565b60008060008084600781116127ef57600080fd5b6000818152600c602052604090205460ff1661280a57600080fd5b50505060009283525050600c602052604090206008015460ff65010000000000820481169266010000000000008304821692600160381b8104831692600160401b9091041690565b6007545b90565b6060815183511461289b5760405162461bcd60e51b81526004018080602001828103825260298152602001806152b86029913960400191505060405180910390fd5b6060835167ffffffffffffffff811180156128b557600080fd5b506040519080825280602002602001820160405280156128df578160200160208202803683370190505b50905060005b845181101561293d5761291e8582815181106128fd57fe5b602002602001015185838151811061291157fe5b6020026020010151611338565b82828151811061292a57fe5b60209081029190910101526001016128e5565b509392505050565b6000816007811161295557600080fd5b6000818152600c602052604090205460ff1661297057600080fd5b6000838152600b60205260409020546001600160a01b031661299157600080fd5b50506000908152600b60205260409020546001600160a01b031690565b6000816000811180156129c2575060078111155b6129cb57600080fd5b600f548411156129da57600080fd5b50506000918252600d6020908152604080842092845291905290205490565b60168181548110612a0657fe5b600091825260209182902001805460408051601f6002600019610100600187161502019094169390930492830185900485028101850190915281815293509091830182828015612a975780601f10612a6c57610100808354040283529160200191612a97565b820191906000526020600020905b815481529060010190602001808311612a7a57829003601f168201915b505050505081565b600081600081118015612ab3575060078111155b612abc57600080fd5b6000838152600860205260409020546001600160a01b0316612add57600080fd5b50506000908152600860205260409020546001600160a01b031690565b600e5481565b6000806000806000808660078111612b1757600080fd5b6000818152600c602052604090205460ff16612b3257600080fd5b50505060009485525050600c6020525050604090206008015460ff600160681b8204811692600160701b8304821692600160781b8104831692600160801b8204811692600160881b8304821692600160901b900490911690565b6000806000808460078111612ba057600080fd5b6000818152600c602052604090205460ff16612bbb57600080fd5b50505060009283525050600c602052604090206008015460ff610100820481169262010000830482169263010000008104831692600160201b9091041690565b600f5481565b6000828152602081905260408120612c199083614666565b9392505050565b600781565b6000828152602081905260408120612c1990836134c2565b336001600160a01b037f00000000000000000000000000000000000000000000000000000000000000001614612cba576040805162461bcd60e51b815260206004820152601f60248201527f4f6e6c7920565246436f6f7264696e61746f722063616e2066756c66696c6c00604482015290519081900360640190fd5b611e478282614672565b612cdb600080516020615201833981519152613c5d565b8060108484604051808383808284379190910194855250506040519283900360200190922080546001600160a01b03949094166001600160a01b031990941693909317909255505060118054600181018255600091909152612d60907f31ecc21a745e3968a04e9570e4425bc18fa8019c68028196b546d1669c200c68018484614f26565b50505050565b612d8f7fae0c232b87105e0a8134f8b92146dcd1d99373d32394be9d70f700f90b3a3db3613c5d565b601680546001810182556000919091526118da907fd833147d7dc355ba459fc788f669e58cfaf9dc25ddcd0702e87d69c7b5124289018383614f26565b600081565b816001600160a01b0316612de3613531565b6001600160a01b03161415612e295760405162461bcd60e51b815260040180806020018281038252602981526020018061528f6029913960400191505060405180910390fd5b8060036000612e36613531565b6001600160a01b03908116825260208083019390935260409182016000908120918716808252919093529120805460ff191692151592909217909155612e7a613531565b6001600160a01b03167f17307eab39ab6107e8899845ad3d59bd9653f200f220920489ca2b5937696c318360405180821515815260200191505060405180910390a35050565b612ed7600080516020615201833981519152613c5d565b600060075411612ee657600080fd5b60015b60078111612f195760008181526009602052604090205460ff1615612f1157612f118161468c565b600101612ee9565b50600f54612f289060016134d7565b600f556040517f0143b2c36fac98f86168603d28d499bde9ce0367d41e111cef9f2ecbc9eeabfc90600090a1565b6060612d60848460008585613070565b60075481565b612f83600080516020615201833981519152613c5d565b6006805482919060ff191660018381811115612f9b57fe5b021790555050565b60008181526020819052604081206113a490614728565b600a5481565b600082815260208190526040902060020154612fde90611e69613531565b611f0a5760405162461bcd60e51b815260040180806020018281038252603081526020018061517a6030913960400191505060405180910390fd5b613030600080516020615201833981519152613c5d565b600e55565b60118181548110612a0657fe5b6001600160a01b03918216600090815260036020908152604080832093909416825291909152205460ff1690565b6001600160a01b0384166130b55760405162461bcd60e51b81526004018080602001828103825260258152602001806151aa6025913960400191505060405180910390fd5b6130bd613531565b6001600160a01b0316856001600160a01b031614806130e357506130e385611ade613531565b61311e5760405162461bcd60e51b81526004018080602001828103825260298152602001806151516029913960400191505060405180910390fd5b6000613128613531565b905061314881878761313988614733565b61314288614733565b8761383e565b61318f836040518060600160405280602a8152602001615244602a913960008781526002602090815260408083206001600160a01b038d1684529091529020549190613950565b60008581526002602090815260408083206001600160a01b038b811685529252808320939093558716815220546131c690846134d7565b60008581526002602090815260408083206001600160a01b03808b168086529184529382902094909455805188815291820187905280518a8416938616927fc3d58168c5ae7397731d063d5bbf3d657854427343f4c083240f7aacaa2d0f6292908290030190a4611d26818787878787614777565b60008160008111801561324f575060078111155b61325857600080fd5b600f5484111561326757600080fd5b6000848152600d6020908152604080832086845290915281205461328c9060016134d7565b9050613297816148e8565b95945050505050565b6132b7600080516020615201833981519152613c5d565b601754604080518082018252600a81526950524943455f5741525360b01b60208083019182529251636cadcd7960e11b8152600481019384528251602482015282516000956001600160a01b03169463d95b9af2949390928392604490910191908083838b5b8381101561333557818101518382015260200161331d565b50505050905090810190601f1680156133625780820380516001836020036101000a031916815260200191505b5092505050602060405180830381600087803b15801561338157600080fd5b505af1158015613395573d6000803e3d6000fd5b505050506040513d60208110156133ab57600080fd5b5051604080516372d7f66560e11b8152306004820152905191925082916000916001600160a01b0384169163e5afecca9160248082019260209290919082900301818787803b1580156133fd57600080fd5b505af1158015613411573d6000803e3d6000fd5b505050506040513d602081101561342757600080fd5b505190506134557fae0c232b87105e0a8134f8b92146dcd1d99373d32394be9d70f700f90b3a3db382611e4b565b806001600160a01b031663d65ab5f26040518163ffffffff1660e01b8152600401600060405180830381600087803b15801561349057600080fd5b505af11580156134a4573d6000803e3d6000fd5b50505050505050565b6000612c19836001600160a01b03841661493a565b6000612c19836001600160a01b038416614984565b600082820183811015612c19576040805162461bcd60e51b815260206004820152601b60248201527f536166654d6174683a206164646974696f6e206f766572666c6f770000000000604482015290519081900360640190fd5b3390565b6001600160a01b03841661357a5760405162461bcd60e51b81526004018080602001828103825260218152602001806153096021913960400191505060405180910390fd5b6000613584613531565b90506135968160008761313988614733565b60008481526002602090815260408083206001600160a01b03891684529091529020546135c390846134d7565b60008581526002602090815260408083206001600160a01b03808b16808652918452828520959095558151898152928301889052815190948616927fc3d58168c5ae7397731d063d5bbf3d657854427343f4c083240f7aacaa2d0f6292908290030190a461363681600087878787614777565b5050505050565b600061364934836137e1565b11156136ab5760003361365c34846137e1565b604051600081818185875af1925050503d8060008114613698576040519150601f19603f3d011682016040523d82523d6000602084013e61369d565b606091505b5050905080611e4757600080fd5b50565b6001600160a01b0383166136f35760405162461bcd60e51b81526004018080602001828103825260238152602001806152216023913960400191505060405180910390fd5b60006136fd613531565b905061372d8185600061370f87614733565b61371887614733565b6040518060200160405280600081525061383e565b6137748260405180606001604052806024815260200161512d6024913960008681526002602090815260408083206001600160a01b038b1684529091529020549190613950565b60008481526002602090815260408083206001600160a01b03808a16808652918452828520959095558151888152928301879052815193949093908616927fc3d58168c5ae7397731d063d5bbf3d657854427343f4c083240f7aacaa2d0f6292908290030190a450505050565b600082821115613838576040805162461bcd60e51b815260206004820152601e60248201527f536166654d6174683a207375627472616374696f6e206f766572666c6f770000604482015290519081900360640190fd5b50900390565b61384c868686868686611d26565b60005b83518110156134a457600084828151811061386657fe5b602002602001015111801561388f5750600784828151811061388457fe5b602002602001015111155b156138e05784600860008684815181106138a557fe5b6020026020010151815260200190815260200160002060006101000a8154816001600160a01b0302191690836001600160a01b031602179055505b60078482815181106138ee57fe5b602002602001015111156139485784600b600086848151811061390d57fe5b6020026020010151815260200190815260200160002060006101000a8154816001600160a01b0302191690836001600160a01b031602179055505b60010161384f565b600081848411156139df5760405162461bcd60e51b81526004018080602001828103825283818151815260200191508051906020019080838360005b838110156139a457818101518382015260200161398c565b50505050905090810190601f1680156139d15780820380516001836020036101000a031916815260200191505b509250505060405180910390fd5b505050900390565b6139f9846001600160a01b031661499c565b15611d2657836001600160a01b031663bc197c8187878686866040518663ffffffff1660e01b815260040180866001600160a01b03168152602001856001600160a01b03168152602001806020018060200180602001848103845287818151815260200191508051906020019060200280838360005b83811015613a87578181015183820152602001613a6f565b50505050905001848103835286818151815260200191508051906020019060200280838360005b83811015613ac6578181015183820152602001613aae565b50505050905001848103825285818151815260200191508051906020019080838360005b83811015613b02578181015183820152602001613aea565b50505050905090810190601f168015613b2f5780820380516001836020036101000a031916815260200191505b5098505050505050505050602060405180830381600087803b158015613b5457600080fd5b505af1925050508015613b7957506040513d6020811015613b7457600080fd5b505160015b613c0e57613b85614faf565b80613b905750613bd7565b60405162461bcd60e51b81526020600482018181528351602484015283518493919283926044019190850190808383600083156139a457818101518382015260200161398c565b60405162461bcd60e51b81526004018080602001828103825260348152602001806150556034913960400191505060405180910390fd5b6001600160e01b0319811663bc197c8160e01b146134a45760405162461bcd60e51b81526004018080602001828103825260288152602001806150ab6028913960400191505060405180910390fd5b613c678133612c25565b6136ab57600080fd5b6000828152602081905260409020613c8890826134ad565b15611e4757613c95613531565b6001600160a01b0316816001600160a01b0316837f2f8788117e7eff1d82e926ec794901d17c78024a50270940304540a733656f0d60405160405180910390a45050565b6000828152602081905260409020613cf190826149a2565b15611e4757613cfe613531565b6001600160a01b0316816001600160a01b0316837ff6391f5c32d9c69d2a47ea670b442974b53935d1edc7fd64eb21e047a839171b60405160405180910390a45050565b600f546000908152600d6020908152604080832084845290915281205460041115613d6f575060016113c8565b600f546000908152600d6020908152604080832085845290915290205460015b6007548111613de457600f546000908152600d60209081526040808320848452909152902054821115613ddc57600f546000908152600d6020908152604080832084845290915290205491505b600101613d8f565b50613df08160026145a6565b600f546000908152600d602090815260408083208784529091529020541115915050919050565b60006013547f00000000000000000000000000000000000000000000000000000000000000006001600160a01b03166370a08231306040518263ffffffff1660e01b815260040180826001600160a01b0316815260200191505060206040518083038186803b158015613e8957600080fd5b505afa158015613e9d573d6000803e3d6000fd5b505050506040513d6020811015613eb357600080fd5b50511015613ec057600080fd5b6113a4601254601354846149b7565b60008181526014602052604090205460078111613eeb57600080fd5b6000818152600c602052604090205460ff16613f0657600080fd5b6000828152601460209081526040808320546015835281842054818552600c909352908320600801805469ff0000000000000000001916600160481b17905591613f51600283614b61565b6000858152600c60205260409020600801805460ff191660ff93909316929092179091559050613f82600482614b61565b6000858152600c60205260409020600801805460ff9093166101000261ff0019909316929092179091559050613fb9600482614b61565b6000858152600c60205260409020600801805460ff909316620100000262ff000019909316929092179091559050613ff2600482614b61565b6000858152600c60205260409020600801805460ff90931663010000000263ff0000001990931692909217909155905061402d600482614b61565b6000858152600c60205260409020600801805460ff909316600160201b0264ff0000000019909316929092179091559050614069600982614b61565b6000858152600c60205260409020600801805460ff909316650100000000000265ff0000000000199093169290921790915590506140a8601e82614b61565b6000858152600c60205260409020600801805460ff90931666010000000000000266ff000000000000199093169290921790915590506140e9601882614b61565b6000858152600c60205260409020600801805460ff909316600160381b0267ff0000000000000019909316929092179091559050614128600782614b61565b6000858152600c60205260409020600801805460ff909316600160401b0268ff000000000000000019909316929092179091559050614168601582614b61565b6000858152600c60205260409020600801805460ff60501b1916600160501b60ff948516810291909117918290559193506141a8929190041660096134d7565b6000848152600c60205260409020600801805460ff92909216600160501b0260ff60501b199092169190911790556141e1601582614b61565b6000858152600c60205260409020600801805460ff60581b1916600160581b60ff94851681029190911791829055919350614221929190041660096134d7565b6000848152600c60205260409020600801805460ff92909216600160581b0260ff60581b1990921691909117905561425a601f82614b61565b6000858152600c60205260409020600801805460ff60601b1916600160601b60ff9485168102919091179182905591935061429a929190041660096134d7565b6000848152600c60205260409020600801805460ff92909216600160601b0260ff60601b199092169190911790556142d3601082614b61565b6000858152600c60205260409020600801805460ff60681b1916600160681b60ff94851681029190911791829055919350614313929190041660026134d7565b6000848152600c60205260409020600801805460ff92909216600160681b0260ff60681b1990921691909117905561434c601082614b61565b6000858152600c60205260409020600801805460ff60701b1916600160701b60ff9485168102919091179182905591935061438c929190041660026134d7565b6000848152600c60205260409020600801805460ff92909216600160701b0260ff60701b199092169190911790556143c5601082614b61565b6000858152600c60205260409020600801805460ff60781b1916600160781b60ff94851681029190911791829055919350614405929190041660026134d7565b6000848152600c60205260409020600801805460ff92909216600160781b0260ff60781b1990921691909117905561443e601082614b61565b6000858152600c60205260409020600801805460ff60801b1916600160801b60ff9485168102919091179182905591935061447e929190041660026134d7565b6000848152600c60205260409020600801805460ff92909216600160801b0260ff60801b199092169190911790556144b7601082614b61565b6000858152600c60205260409020600801805460ff60881b1916600160881b60ff948516810291909117918290559193506144f7929190041660026134d7565b6000848152600c60205260409020600801805460ff92909216600160881b0260ff60881b19909216919091179055614530601082614b61565b6000858152600c60205260409020600801805460ff60901b1916600160901b60ff94851681029190911791829055919350614570929190041660026134d7565b6000938452600c6020526040909320600801805460ff94909416600160901b0260ff60901b199094169390931790925550505050565b6000826145b5575060006113a4565b828202828482816145c257fe5b0414612c195760405162461bcd60e51b815260040180806020018281038252602181526020018061526e6021913960400191505060405180910390fd5b6000808211614655576040805162461bcd60e51b815260206004820152601a60248201527f536166654d6174683a206469766973696f6e206279207a65726f000000000000604482015290519081900360640190fd5b81838161465e57fe5b049392505050565b6000612c198383614b92565b6000828152601560205260409020819055611e4782613ecf565b8060008111801561469e575060078111155b6146a757600080fd5b60008281526009602052604090205460ff166146c257600080fd5b6000828152600860205260409020546146e6906001600160a01b03168360016136ae565b6007546146f49060016137e1565b60075550600090815260086020908152604080832080546001600160a01b031916905560099091529020805460ff19169055565b60006113a482614bf6565b60408051600180825281830190925260609182919060208083019080368337019050509050828160008151811061476657fe5b602090810291909101015292915050565b614789846001600160a01b031661499c565b15611d2657836001600160a01b031663f23a6e6187878686866040518663ffffffff1660e01b815260040180866001600160a01b03168152602001856001600160a01b0316815260200184815260200183815260200180602001828103825283818151815260200191508051906020019080838360005b83811015614818578181015183820152602001614800565b50505050905090810190601f1680156148455780820380516001836020036101000a031916815260200191505b509650505050505050602060405180830381600087803b15801561486857600080fd5b505af192505050801561488d57506040513d602081101561488857600080fd5b505160015b61489957613b85614faf565b6001600160e01b0319811663f23a6e6160e01b146134a45760405162461bcd60e51b81526004018080602001828103825260288152602001806150ab6028913960400191505060405180910390fd5b600080600161490f60646126cb600261490988670de0b6b3a76400006145a6565b906145a6565b915061493261492b600a6126cb84670de0b6b3a76400006145a6565b83906134d7565b949350505050565b60006149468383614984565b61497c575081546001818101845560008481526020808220909301849055845484825282860190935260409020919091556113a4565b5060006113a4565b60009081526001919091016020526040902054151590565b3b151590565b6000612c19836001600160a01b038416614bfa565b60007f00000000000000000000000000000000000000000000000000000000000000006001600160a01b0316634000aea07f000000000000000000000000000000000000000000000000000000000000000085878660405160200180838152602001828152602001925050506040516020818303038152906040526040518463ffffffff1660e01b815260040180846001600160a01b0316815260200183815260200180602001828103825283818151815260200191508051906020019080838360005b83811015614a93578181015183820152602001614a7b565b50505050905090810190601f168015614ac05780820380516001836020036101000a031916815260200191505b50945050505050602060405180830381600087803b158015614ae157600080fd5b505af1158015614af5573d6000803e3d6000fd5b505050506040513d6020811015614b0b57600080fd5b5050600084815260056020526040812054614b2b90869085903090614cc0565b600086815260056020526040902054909150614b489060016134d7565b6000868152600560205260409020556132978582614d07565b600080614b7c6001614b768560ff8816614d33565b906134d7565b614b8784600a6145ff565b915091509250929050565b81546000908210614bd45760405162461bcd60e51b81526004018080602001828103825260228152602001806150896022913960400191505060405180910390fd5b826000018281548110614be357fe5b9060005260206000200154905092915050565b5490565b60008181526001830160205260408120548015614cb65783546000198083019190810190600090879083908110614c2d57fe5b9060005260206000200154905080876000018481548110614c4a57fe5b600091825260208083209091019290925582815260018981019092526040902090840190558654879080614c7a57fe5b600190038181906000526020600020016000905590558660010160008781526020019081526020016000206000905560019450505050506113a4565b60009150506113a4565b60408051602080820196909652808201949094526001600160a01b039290921660608401526080808401919091528151808403909101815260a09092019052805191012090565b604080516020808201949094528082019290925280518083038201815260609092019052805191012090565b6000808211614d89576040805162461bcd60e51b815260206004820152601860248201527f536166654d6174683a206d6f64756c6f206279207a65726f0000000000000000604482015290519081900360640190fd5b818381614d9257fe5b069392505050565b6040518060a00160405280600015158152602001600081526020016000815260200160608152602001600081525090565b828054600181600116156101000203166002900490600052602060002090601f016020900481019282601f10614e0c57805160ff1916838001178555614e39565b82800160010185558215614e39579182015b82811115614e39578251825591602001919060010190614e1e565b50614e45929150614f94565b5090565b604080516103608101825260008082526060602083018190529282018390529181018290526080810182905260a0810182905260c0810182905260e08101829052610100810182905261012081018290526101408101829052610160810182905261018081018290526101a081018290526101c081018290526101e08101829052610200810182905261022081018290526102408101829052610260810182905261028081018290526102a081018290526102c081018290526102e081018290526103008101829052610320810182905261034081019190915290565b828054600181600116156101000203166002900490600052602060002090601f016020900481019282601f10614f675782800160ff19823516178555614e39565b82800160010185558215614e39579182015b82811115614e39578235825591602001919060010190614f79565b5b80821115614e455760008155600101614f95565b60e01c90565b600060443d1015614fbf57612856565b600481823e6308c379a0614fd38251614fa9565b14614fdd57612856565b6040513d600319016004823e80513d67ffffffffffffffff816024840111818411171561500d5750505050612856565b828401925082519150808211156150275750505050612856565b503d8301602082840101111561503f57505050612856565b601f01601f191681016020016040529150509056fe455243313135353a207472616e7366657220746f206e6f6e2045524331313535526563656976657220696d706c656d656e746572456e756d657261626c655365743a20696e646578206f7574206f6620626f756e6473455243313135353a204552433131353552656365697665722072656a656374656420746f6b656e73416363657373436f6e74726f6c3a2073656e646572206d75737420626520616e2061646d696e20746f206772616e74455243313135353a2062616c616e636520717565727920666f7220746865207a65726f2061646472657373455243313135353a206275726e20616d6f756e7420657863656564732062616c616e6365455243313135353a2063616c6c6572206973206e6f74206f776e6572206e6f7220617070726f766564416363657373436f6e74726f6c3a2073656e646572206d75737420626520616e2061646d696e20746f207265766f6b65455243313135353a207472616e7366657220746f20746865207a65726f2061646472657373455243313135353a207472616e736665722063616c6c6572206973206e6f74206f776e6572206e6f7220617070726f7665642172861495e7b85edac73e3cd5fbb42dd675baadf627720e687bcfdaca025096455243313135353a206275726e2066726f6d20746865207a65726f2061646472657373455243313135353a20696e73756666696369656e742062616c616e636520666f72207472616e73666572536166654d6174683a206d756c7469706c69636174696f6e206f766572666c6f77455243313135353a2073657474696e6720617070726f76616c2073746174757320666f722073656c66455243313135353a206163636f756e747320616e6420696473206c656e677468206d69736d61746368455243313135353a2069647320616e6420616d6f756e7473206c656e677468206d69736d61746368455243313135353a206d696e7420746f20746865207a65726f2061646472657373416363657373436f6e74726f6c3a2063616e206f6e6c792072656e6f756e636520726f6c657320666f722073656c66a26469706673582212203a1ce4ed0b10f7158ad6350e89503e9fdd47146642f8b7f998dcacf7de897d1e64736f6c634300060c0033416363657373436f6e74726f6c3a2073656e646572206d75737420626520616e2061646d696e20746f206772616e742172861495e7b85edac73e3cd5fbb42dd675baadf627720e687bcfdaca0250969f4e1c871d5fdd0aee1cd182666698a4492b24c6832aac230d07b11046af5a89",
  "bytecodeSha1": "da39a3ee5e6b4b0d3255bfef95601890afd80709",
  "compiler": {
    "evm_version": "istanbul",
    "optimizer": {
      "enabled": true,
      "runs": 200
    },
    "version": "0.6.12+commit.27d51765"
  },
  "contractName": "CryptoChampions",
  "language": "Solidity",
  "natspec": {
    "author": "Oozyx",
    "kind": "dev",
    "methods": {
      "balanceOf(address,uint256)": {
        "details": "See {IERC1155-balanceOf}. Requirements: - `account` cannot be the zero address."
      },
      "balanceOfBatch(address[],uint256[])": {
        "details": "See {IERC1155-balanceOfBatch}. Requirements: - `accounts` and `ids` must have the same length."
      },
      "burnElders()": {
        "notice": "Burns all the elder spirits in game"
      },
      "burnHero(uint256)": {
        "details": "This will only be able to be called from the owner of the hero",
        "notice": "Burns the hero for a refund",
        "params": {
          "heroId": "The hero id to burn"
        }
      },
      "createAffinity(string,address)": {
        "details": "This will be called by a priviledged address. It will allow to create new affinities. May need to add a remove affinity function as well.",
        "notice": "Creates a new token affinity",
        "params": {
          "feedAddress": "The price feed address",
          "tokenTicker": "The token ticker of the affinity"
        }
      },
      "declareRoundWinner(string)": {
        "details": "This can only be called by a game admin contract",
        "notice": "Declares a winning affinity for a round",
        "params": {
          "winningAffinity": "The affinity that won the game"
        }
      },
      "delegatedTransferInGameTokens(address,address,uint256)": {
        "notice": "Transfers in game currency tokens from one address to another.",
        "params": {
          "amount": "The amount to transfer",
          "from": "The sending address.  Note that the sender must be authorized to transfer funds if the sender is different from the from address.",
          "to": "The receiving address"
        }
      },
      "disburseRewards(string)": {
        "details": "This will be called from a priviledged address",
        "notice": "Disburses the rewards evenly among the heroes of the winning affinity",
        "params": {
          "winningAffinity": "The winning affinity token ticker"
        }
      },
      "getAffinityFeedAddress(string)": {
        "notice": "Fetches the feed address for a given affinity",
        "params": {
          "affinity": "The affinity being searched for"
        },
        "returns": {
          "_0": "The address of the affinity's feed address"
        }
      },
      "getElderOwner(uint256)": {
        "notice": "Gets the elder owner for the given elder id",
        "params": {
          "elderId": "The elder id"
        },
        "returns": {
          "_0": "The owner of the elder"
        }
      },
      "getElderSpawnsAmount(uint256,uint256)": {
        "notice": "Gets the amount of heroes spawn from the elder with the specified id during the specified round",
        "params": {
          "elderId": "The elder id",
          "round": "The round the elder was created"
        },
        "returns": {
          "_0": "The amount of heroes spawned from the elder"
        }
      },
      "getElderSpirit(uint256)": {
        "notice": "Fetches the data of a single elder spirit",
        "params": {
          "elderId": "The id of the elder being searched for"
        },
        "returns": {
          "_0": "The elder's attributes in the following order (valid, raceId, classId, affinity)"
        }
      },
      "getHeroGameData(uint256)": {
        "notice": "Hero getter function",
        "params": {
          "heroId": "The hero id"
        },
        "returns": {
          "_0": "valid, affinity, affinity price, round minted, elder id"
        }
      },
      "getHeroLore(uint256)": {
        "notice": "Hero getter function",
        "params": {
          "heroId": "The hero id"
        },
        "returns": {
          "_0": "alignment, background, hometown, weather"
        }
      },
      "getHeroMintPrice(uint256,uint256)": {
        "notice": "Gets the minting price of a hero based on specified elder spirit",
        "params": {
          "elderId": "The elder id for which the hero will be based on",
          "round": "The round of the hero to be minted"
        },
        "returns": {
          "_0": "The hero mint price"
        }
      },
      "getHeroOwner(uint256)": {
        "notice": "Get the hero owner for the given hero id",
        "params": {
          "heroId": "The hero id"
        },
        "returns": {
          "_0": "The owner address"
        }
      },
      "getHeroStats(uint256)": {
        "notice": "Hero getter function",
        "params": {
          "heroId": "The hero id"
        },
        "returns": {
          "_0": "stamina, strength, dexterity, constitution, intelligence, wisdom, charisma"
        }
      },
      "getHeroTraitsSkills(uint256)": {
        "notice": "Hero getter function",
        "params": {
          "heroId": "The hero id"
        },
        "returns": {
          "_0": "trait 1, trait 2, skill 1, skill 2"
        }
      },
      "getHeroVisuals(uint256)": {
        "notice": "Hero getter function",
        "params": {
          "heroId": "The hero id"
        },
        "returns": {
          "_0": "name, race id, class id, appearance"
        }
      },
      "getHeroVitals(uint256)": {
        "notice": "Hero getter function",
        "params": {
          "heroId": "The hero id"
        },
        "returns": {
          "_0": "level, hp, mana"
        }
      },
      "getNumEldersInGame()": {
        "notice": "Fetches the number of elders currently in the game",
        "returns": {
          "_0": "The current number of elders in the game"
        }
      },
      "getRoleAdmin(bytes32)": {
        "details": "Returns the admin role that controls `role`. See {grantRole} and {revokeRole}. To change a role's admin, use {_setRoleAdmin}."
      },
      "getRoleMember(bytes32,uint256)": {
        "details": "Returns one of the accounts that have `role`. `index` must be a value between 0 and {getRoleMemberCount}, non-inclusive. Role bearers are not sorted in any particular way, and their ordering may change at any point. WARNING: When using {getRoleMember} and {getRoleMemberCount}, make sure you perform all queries on the same block. See the following https://forum.openzeppelin.com/t/iterating-over-elements-on-enumerableset-in-openzeppelin-contracts/2296[forum post] for more information."
      },
      "getRoleMemberCount(bytes32)": {
        "details": "Returns the number of accounts that have `role`. Can be used together with {getRoleMember} to enumerate all bearers of a role."
      },
      "grantRole(bytes32,address)": {
        "details": "Grants `role` to `account`. If `account` had not been already granted `role`, emits a {RoleGranted} event. Requirements: - the caller must have ``role``'s admin role."
      },
      "hasRole(bytes32,address)": {
        "details": "Returns `true` if `account` has been granted `role`."
      },
      "isApprovedForAll(address,address)": {
        "details": "See {IERC1155-isApprovedForAll}."
      },
      "mintElderSpirit(uint256,uint256,string)": {
        "details": "For now only race, class, and token (affinity) are needed. This will change. The race and class ids will probably be public constants defined in the crypto champions contract, this is subject to change.",
        "notice": "Mints an elder spirit",
        "params": {
          "affinity": "The affinity of the minted hero",
          "classId": "The class id",
          "raceId": "The race id"
        },
        "returns": {
          "_0": "The elder spirit id"
        }
      },
      "mintHero(uint256,string)": {
        "notice": "Mints a hero based on an elder spirit",
        "params": {
          "elderId": "The id of the elder spirit this hero is based on"
        },
        "returns": {
          "_0": "The hero id"
        }
      },
      "renounceRole(bytes32,address)": {
        "details": "Revokes `role` from the calling account. Roles are often managed via {grantRole} and {revokeRole}: this function's purpose is to provide a mechanism for accounts to lose their privileges if they are compromised (such as when a trusted device is misplaced). If the calling account had been granted `role`, emits a {RoleRevoked} event. Requirements: - the caller must be `account`."
      },
      "revokeRole(bytes32,address)": {
        "details": "Revokes `role` from `account`. If `account` had been granted `role`, emits a {RoleRevoked} event. Requirements: - the caller must have ``role``'s admin role."
      },
      "safeBatchTransferFrom(address,address,uint256[],uint256[],bytes)": {
        "details": "See {IERC1155-safeBatchTransferFrom}."
      },
      "safeTransferFrom(address,address,uint256,uint256,bytes)": {
        "details": "See {IERC1155-safeTransferFrom}."
      },
      "setApprovalForAll(address,bool)": {
        "details": "See {IERC1155-setApprovalForAll}."
      },
      "setElderMintPrice(uint256)": {
        "details": "Can only be called by an admin address",
        "notice": "Sets the elder mint price",
        "params": {
          "price": "The new elder mint price"
        }
      },
      "setPhase(uint8)": {
        "notice": "Sets the contract's phase",
        "params": {
          "phase": "The phase the contract should be set to"
        }
      },
      "startNewPriceGame()": {
        "details": "This can only be called by the admin of the contract",
        "notice": "Starts a new price game"
      },
      "supportsInterface(bytes4)": {
        "details": "See {IERC165-supportsInterface}. Time complexity O(1), guaranteed to always use less than 30 000 gas."
      },
      "transferInGameTokens(address,uint256)": {
        "notice": "Transfers in game currency tokens from one address to another",
        "params": {
          "amount": "The amount to transfer",
          "to": "The receiving address"
        }
      },
      "uri(uint256)": {
        "details": "See {IERC1155MetadataURI-uri}. This implementation returns the same URI for *all* token types. It relies on the token type ID substitution mechanism https://eips.ethereum.org/EIPS/eip-1155#metadata[defined in the EIP]. Clients calling this function must replace the `\\{id\\}` substring with the actual token type ID."
      }
    },
    "notice": "This is the crypto champions class",
    "title": "Crypto Champions Interface",
    "version": 1
  },
  "opcodes": "PUSH1 0x80 PUSH1 0x40 MSTORE PUSH1 0x4 CALLDATASIZE LT PUSH2 0x2C8 JUMPI PUSH1 0x0 CALLDATALOAD PUSH1 0xE0 SHR DUP1 PUSH4 0x79935FE0 GT PUSH2 0x175 JUMPI DUP1 PUSH4 0xA4AEEC53 GT PUSH2 0xDC JUMPI DUP1 PUSH4 0xD547741F GT PUSH2 0x95 JUMPI DUP1 PUSH4 0xE985E9C5 GT PUSH2 0x6F JUMPI DUP1 PUSH4 0xE985E9C5 EQ PUSH2 0x11E2 JUMPI DUP1 PUSH4 0xF242432A EQ PUSH2 0x121D JUMPI DUP1 PUSH4 0xF32C4974 EQ PUSH2 0x12F3 JUMPI DUP1 PUSH4 0xFBC120F9 EQ PUSH2 0x1323 JUMPI PUSH2 0x2C8 JUMP JUMPDEST DUP1 PUSH4 0xD547741F EQ PUSH2 0x1155 JUMPI DUP1 PUSH4 0xE3E98382 EQ PUSH2 0x118E JUMPI DUP1 PUSH4 0xE5B0A993 EQ PUSH2 0x11B8 JUMPI PUSH2 0x2C8 JUMP JUMPDEST DUP1 PUSH4 0xA4AEEC53 EQ PUSH2 0x107C JUMPI DUP1 PUSH4 0xB9280067 EQ PUSH2 0x1091 JUMPI DUP1 PUSH4 0xBF61211F EQ PUSH2 0x10D4 JUMPI DUP1 PUSH4 0xC03AFB59 EQ PUSH2 0x10E9 JUMPI DUP1 PUSH4 0xCA15C873 EQ PUSH2 0x1116 JUMPI DUP1 PUSH4 0xCAAB7EF8 EQ PUSH2 0x1140 JUMPI PUSH2 0x2C8 JUMP JUMPDEST DUP1 PUSH4 0x91D14854 GT PUSH2 0x12E JUMPI DUP1 PUSH4 0x91D14854 EQ PUSH2 0xEC4 JUMPI DUP1 PUSH4 0x94985DDD EQ PUSH2 0xEFD JUMPI DUP1 PUSH4 0x9D5B82C0 EQ PUSH2 0xF2D JUMPI DUP1 PUSH4 0x9E315008 EQ PUSH2 0xFB1 JUMPI DUP1 PUSH4 0xA217FDDF EQ PUSH2 0x102C JUMPI DUP1 PUSH4 0xA22CB465 EQ PUSH2 0x1041 JUMPI PUSH2 0x2C8 JUMP JUMPDEST DUP1 PUSH4 0x79935FE0 EQ PUSH2 0xDC4 JUMPI DUP1 PUSH4 0x835A4398 EQ PUSH2 0xDD9 JUMPI DUP1 PUSH4 0x8423B077 EQ PUSH2 0xE40 JUMPI DUP1 PUSH4 0x8A19C8BC EQ PUSH2 0xE6A JUMPI DUP1 PUSH4 0x9010D07C EQ PUSH2 0xE7F JUMPI DUP1 PUSH4 0x90DED47E EQ PUSH2 0xEAF JUMPI PUSH2 0x2C8 JUMP JUMPDEST DUP1 PUSH4 0x2EFB8874 GT PUSH2 0x234 JUMPI DUP1 PUSH4 0x4C2ED018 GT PUSH2 0x1ED JUMPI DUP1 PUSH4 0x56B4D760 GT PUSH2 0x1C7 JUMPI DUP1 PUSH4 0x56B4D760 EQ PUSH2 0xD16 JUMPI DUP1 PUSH4 0x59CA19D3 EQ PUSH2 0xD40 JUMPI DUP1 PUSH4 0x6DE51353 EQ PUSH2 0xD70 JUMPI DUP1 PUSH4 0x72EDA5BB EQ PUSH2 0xD9A JUMPI PUSH2 0x2C8 JUMP JUMPDEST DUP1 PUSH4 0x4C2ED018 EQ PUSH2 0xB57 JUMPI DUP1 PUSH4 0x4C52B2A9 EQ PUSH2 0xB81 JUMPI DUP1 PUSH4 0x4E1273F4 EQ PUSH2 0xB96 JUMPI PUSH2 0x2C8 JUMP JUMPDEST DUP1 PUSH4 0x2EFB8874 EQ PUSH2 0x8E3 JUMPI DUP1 PUSH4 0x2F2FF15D EQ PUSH2 0x95E JUMPI DUP1 PUSH4 0x36568ABE EQ PUSH2 0x997 JUMPI DUP1 PUSH4 0x46E6F13D EQ PUSH2 0x9D0 JUMPI DUP1 PUSH4 0x48772D79 EQ PUSH2 0xA8A JUMPI DUP1 PUSH4 0x498E8219 EQ PUSH2 0xAE2 JUMPI PUSH2 0x2C8 JUMP JUMPDEST DUP1 PUSH4 0x248A9CA3 GT PUSH2 0x286 JUMPI DUP1 PUSH4 0x248A9CA3 EQ PUSH2 0x56F JUMPI DUP1 PUSH4 0x26D4D15A EQ PUSH2 0x599 JUMPI DUP1 PUSH4 0x26F7AF4F EQ PUSH2 0x630 JUMPI DUP1 PUSH4 0x27E50B18 EQ PUSH2 0x66B JUMPI DUP1 PUSH4 0x2EB2C2D6 EQ PUSH2 0x695 JUMPI DUP1 PUSH4 0x2EE1F0A0 EQ PUSH2 0x863 JUMPI PUSH2 0x2C8 JUMP JUMPDEST DUP1 PUSH3 0xFDD58E EQ PUSH2 0x2CD JUMPI DUP1 PUSH4 0x1FFC9A7 EQ PUSH2 0x318 JUMPI DUP1 PUSH4 0x55AD42E EQ PUSH2 0x360 JUMPI DUP1 PUSH4 0xE89341C EQ PUSH2 0x396 JUMPI DUP1 PUSH4 0xFBEA841 EQ PUSH2 0x435 JUMPI DUP1 PUSH4 0x21C2F72A EQ PUSH2 0x4AF JUMPI JUMPDEST PUSH1 0x0 DUP1 REVERT JUMPDEST CALLVALUE DUP1 ISZERO PUSH2 0x2D9 JUMPI PUSH1 0x0 DUP1 REVERT JUMPDEST POP PUSH2 0x306 PUSH1 0x4 DUP1 CALLDATASIZE SUB PUSH1 0x40 DUP2 LT ISZERO PUSH2 0x2F0 JUMPI PUSH1 0x0 DUP1 REVERT JUMPDEST POP PUSH1 0x1 PUSH1 0x1 PUSH1 0xA0 SHL SUB DUP2 CALLDATALOAD AND SWAP1 PUSH1 0x20 ADD CALLDATALOAD PUSH2 0x1338 JUMP JUMPDEST PUSH1 0x40 DUP1 MLOAD SWAP2 DUP3 MSTORE MLOAD SWAP1 DUP2 SWAP1 SUB PUSH1 0x20 ADD SWAP1 RETURN JUMPDEST CALLVALUE DUP1 ISZERO PUSH2 0x324 JUMPI PUSH1 0x0 DUP1 REVERT JUMPDEST POP PUSH2 0x34C PUSH1 0x4 DUP1 CALLDATASIZE SUB PUSH1 0x20 DUP2 LT ISZERO PUSH2 0x33B JUMPI PUSH1 0x0 DUP1 REVERT JUMPDEST POP CALLDATALOAD PUSH1 0x1 PUSH1 0x1 PUSH1 0xE0 SHL SUB NOT AND PUSH2 0x13AA JUMP JUMPDEST PUSH1 0x40 DUP1 MLOAD SWAP2 ISZERO ISZERO DUP3 MSTORE MLOAD SWAP1 DUP2 SWAP1 SUB PUSH1 0x20 ADD SWAP1 RETURN JUMPDEST CALLVALUE DUP1 ISZERO PUSH2 0x36C JUMPI PUSH1 0x0 DUP1 REVERT JUMPDEST POP PUSH2 0x375 PUSH2 0x13CD JUMP JUMPDEST PUSH1 0x40 MLOAD DUP1 DUP3 PUSH1 0x1 DUP2 GT ISZERO PUSH2 0x385 JUMPI INVALID JUMPDEST DUP2 MSTORE PUSH1 0x20 ADD SWAP2 POP POP PUSH1 0x40 MLOAD DUP1 SWAP2 SUB SWAP1 RETURN JUMPDEST CALLVALUE DUP1 ISZERO PUSH2 0x3A2 JUMPI PUSH1 0x0 DUP1 REVERT JUMPDEST POP PUSH2 0x3C0 PUSH1 0x4 DUP1 CALLDATASIZE SUB PUSH1 0x20 DUP2 LT ISZERO PUSH2 0x3B9 JUMPI PUSH1 0x0 DUP1 REVERT JUMPDEST POP CALLDATALOAD PUSH2 0x13D6 JUMP JUMPDEST PUSH1 0x40 DUP1 MLOAD PUSH1 0x20 DUP1 DUP3 MSTORE DUP4 MLOAD DUP2 DUP4 ADD MSTORE DUP4 MLOAD SWAP2 SWAP3 DUP4 SWAP3 SWAP1 DUP4 ADD SWAP2 DUP6 ADD SWAP1 DUP1 DUP4 DUP4 PUSH1 0x0 JUMPDEST DUP4 DUP2 LT ISZERO PUSH2 0x3FA JUMPI DUP2 DUP2 ADD MLOAD DUP4 DUP3 ADD MSTORE PUSH1 0x20 ADD PUSH2 0x3E2 JUMP JUMPDEST POP POP POP POP SWAP1 POP SWAP1 DUP2 ADD SWAP1 PUSH1 0x1F AND DUP1 ISZERO PUSH2 0x427 JUMPI DUP1 DUP3 SUB DUP1 MLOAD PUSH1 0x1 DUP4 PUSH1 0x20 SUB PUSH2 0x100 EXP SUB NOT AND DUP2 MSTORE PUSH1 0x20 ADD SWAP2 POP JUMPDEST POP SWAP3 POP POP POP PUSH1 0x40 MLOAD DUP1 SWAP2 SUB SWAP1 RETURN JUMPDEST PUSH2 0x306 PUSH1 0x4 DUP1 CALLDATASIZE SUB PUSH1 0x60 DUP2 LT ISZERO PUSH2 0x44B JUMPI PUSH1 0x0 DUP1 REVERT JUMPDEST DUP2 CALLDATALOAD SWAP2 PUSH1 0x20 DUP2 ADD CALLDATALOAD SWAP2 DUP2 ADD SWAP1 PUSH1 0x60 DUP2 ADD PUSH1 0x40 DUP3 ADD CALLDATALOAD PUSH1 0x1 PUSH1 0x20 SHL DUP2 GT ISZERO PUSH2 0x471 JUMPI PUSH1 0x0 DUP1 REVERT JUMPDEST DUP3 ADD DUP4 PUSH1 0x20 DUP3 ADD GT ISZERO PUSH2 0x483 JUMPI PUSH1 0x0 DUP1 REVERT JUMPDEST DUP1 CALLDATALOAD SWAP1 PUSH1 0x20 ADD SWAP2 DUP5 PUSH1 0x1 DUP4 MUL DUP5 ADD GT PUSH1 0x1 PUSH1 0x20 SHL DUP4 GT OR ISZERO PUSH2 0x4A4 JUMPI PUSH1 0x0 DUP1 REVERT JUMPDEST POP SWAP1 SWAP3 POP SWAP1 POP PUSH2 0x146E JUMP JUMPDEST CALLVALUE DUP1 ISZERO PUSH2 0x4BB JUMPI PUSH1 0x0 DUP1 REVERT JUMPDEST POP PUSH2 0x4D9 PUSH1 0x4 DUP1 CALLDATASIZE SUB PUSH1 0x20 DUP2 LT ISZERO PUSH2 0x4D2 JUMPI PUSH1 0x0 DUP1 REVERT JUMPDEST POP CALLDATALOAD PUSH2 0x174D JUMP JUMPDEST PUSH1 0x40 MLOAD DUP1 DUP7 ISZERO ISZERO DUP2 MSTORE PUSH1 0x20 ADD DUP6 DUP2 MSTORE PUSH1 0x20 ADD DUP5 DUP2 MSTORE PUSH1 0x20 ADD DUP1 PUSH1 0x20 ADD DUP4 DUP2 MSTORE PUSH1 0x20 ADD DUP3 DUP2 SUB DUP3 MSTORE DUP5 DUP2 DUP2 MLOAD DUP2 MSTORE PUSH1 0x20 ADD SWAP2 POP DUP1 MLOAD SWAP1 PUSH1 0x20 ADD SWAP1 DUP1 DUP4 DUP4 PUSH1 0x0 JUMPDEST DUP4 DUP2 LT ISZERO PUSH2 0x530 JUMPI DUP2 DUP2 ADD MLOAD DUP4 DUP3 ADD MSTORE PUSH1 0x20 ADD PUSH2 0x518 JUMP JUMPDEST POP POP POP POP SWAP1 POP SWAP1 DUP2 ADD SWAP1 PUSH1 0x1F AND DUP1 ISZERO PUSH2 0x55D JUMPI DUP1 DUP3 SUB DUP1 MLOAD PUSH1 0x1 DUP4 PUSH1 0x20 SUB PUSH2 0x100 EXP SUB NOT AND DUP2 MSTORE PUSH1 0x20 ADD SWAP2 POP JUMPDEST POP SWAP7 POP POP POP POP POP POP POP PUSH1 0x40 MLOAD DUP1 SWAP2 SUB SWAP1 RETURN JUMPDEST CALLVALUE DUP1 ISZERO PUSH2 0x57B JUMPI PUSH1 0x0 DUP1 REVERT JUMPDEST POP PUSH2 0x306 PUSH1 0x4 DUP1 CALLDATASIZE SUB PUSH1 0x20 DUP2 LT ISZERO PUSH2 0x592 JUMPI PUSH1 0x0 DUP1 REVERT JUMPDEST POP CALLDATALOAD PUSH2 0x187B JUMP JUMPDEST CALLVALUE DUP1 ISZERO PUSH2 0x5A5 JUMPI PUSH1 0x0 DUP1 REVERT JUMPDEST POP PUSH2 0x614 PUSH1 0x4 DUP1 CALLDATASIZE SUB PUSH1 0x20 DUP2 LT ISZERO PUSH2 0x5BC JUMPI PUSH1 0x0 DUP1 REVERT JUMPDEST DUP2 ADD SWAP1 PUSH1 0x20 DUP2 ADD DUP2 CALLDATALOAD PUSH1 0x1 PUSH1 0x20 SHL DUP2 GT ISZERO PUSH2 0x5D6 JUMPI PUSH1 0x0 DUP1 REVERT JUMPDEST DUP3 ADD DUP4 PUSH1 0x20 DUP3 ADD GT ISZERO PUSH2 0x5E8 JUMPI PUSH1 0x0 DUP1 REVERT JUMPDEST DUP1 CALLDATALOAD SWAP1 PUSH1 0x20 ADD SWAP2 DUP5 PUSH1 0x1 DUP4 MUL DUP5 ADD GT PUSH1 0x1 PUSH1 0x20 SHL DUP4 GT OR ISZERO PUSH2 0x609 JUMPI PUSH1 0x0 DUP1 REVERT JUMPDEST POP SWAP1 SWAP3 POP SWAP1 POP PUSH2 0x1890 JUMP JUMPDEST PUSH1 0x40 DUP1 MLOAD PUSH1 0x1 PUSH1 0x1 PUSH1 0xA0 SHL SUB SWAP1 SWAP3 AND DUP3 MSTORE MLOAD SWAP1 DUP2 SWAP1 SUB PUSH1 0x20 ADD SWAP1 RETURN JUMPDEST CALLVALUE DUP1 ISZERO PUSH2 0x63C JUMPI PUSH1 0x0 DUP1 REVERT JUMPDEST POP PUSH2 0x669 PUSH1 0x4 DUP1 CALLDATASIZE SUB PUSH1 0x40 DUP2 LT ISZERO PUSH2 0x653 JUMPI PUSH1 0x0 DUP1 REVERT JUMPDEST POP PUSH1 0x1 PUSH1 0x1 PUSH1 0xA0 SHL SUB DUP2 CALLDATALOAD AND SWAP1 PUSH1 0x20 ADD CALLDATALOAD PUSH2 0x18CA JUMP JUMPDEST STOP JUMPDEST CALLVALUE DUP1 ISZERO PUSH2 0x677 JUMPI PUSH1 0x0 DUP1 REVERT JUMPDEST POP PUSH2 0x669 PUSH1 0x4 DUP1 CALLDATASIZE SUB PUSH1 0x20 DUP2 LT ISZERO PUSH2 0x68E JUMPI PUSH1 0x0 DUP1 REVERT JUMPDEST POP CALLDATALOAD PUSH2 0x18DF JUMP JUMPDEST CALLVALUE DUP1 ISZERO PUSH2 0x6A1 JUMPI PUSH1 0x0 DUP1 REVERT JUMPDEST POP PUSH2 0x669 PUSH1 0x4 DUP1 CALLDATASIZE SUB PUSH1 0xA0 DUP2 LT ISZERO PUSH2 0x6B8 JUMPI PUSH1 0x0 DUP1 REVERT JUMPDEST PUSH1 0x1 PUSH1 0x1 PUSH1 0xA0 SHL SUB DUP3 CALLDATALOAD DUP2 AND SWAP3 PUSH1 0x20 DUP2 ADD CALLDATALOAD SWAP1 SWAP2 AND SWAP2 DUP2 ADD SWAP1 PUSH1 0x60 DUP2 ADD PUSH1 0x40 DUP3 ADD CALLDATALOAD PUSH1 0x1 PUSH1 0x20 SHL DUP2 GT ISZERO PUSH2 0x6EB JUMPI PUSH1 0x0 DUP1 REVERT JUMPDEST DUP3 ADD DUP4 PUSH1 0x20 DUP3 ADD GT ISZERO PUSH2 0x6FD JUMPI PUSH1 0x0 DUP1 REVERT JUMPDEST DUP1 CALLDATALOAD SWAP1 PUSH1 0x20 ADD SWAP2 DUP5 PUSH1 0x20 DUP4 MUL DUP5 ADD GT PUSH1 0x1 PUSH1 0x20 SHL DUP4 GT OR ISZERO PUSH2 0x71E JUMPI PUSH1 0x0 DUP1 REVERT JUMPDEST SWAP2 SWAP1 DUP1 DUP1 PUSH1 0x20 MUL PUSH1 0x20 ADD PUSH1 0x40 MLOAD SWAP1 DUP2 ADD PUSH1 0x40 MSTORE DUP1 SWAP4 SWAP3 SWAP2 SWAP1 DUP2 DUP2 MSTORE PUSH1 0x20 ADD DUP4 DUP4 PUSH1 0x20 MUL DUP1 DUP3 DUP5 CALLDATACOPY PUSH1 0x0 SWAP3 ADD SWAP2 SWAP1 SWAP2 MSTORE POP SWAP3 SWAP6 SWAP5 SWAP4 PUSH1 0x20 DUP2 ADD SWAP4 POP CALLDATALOAD SWAP2 POP POP PUSH1 0x1 PUSH1 0x20 SHL DUP2 GT ISZERO PUSH2 0x76D JUMPI PUSH1 0x0 DUP1 REVERT JUMPDEST DUP3 ADD DUP4 PUSH1 0x20 DUP3 ADD GT ISZERO PUSH2 0x77F JUMPI PUSH1 0x0 DUP1 REVERT JUMPDEST DUP1 CALLDATALOAD SWAP1 PUSH1 0x20 ADD SWAP2 DUP5 PUSH1 0x20 DUP4 MUL DUP5 ADD GT PUSH1 0x1 PUSH1 0x20 SHL DUP4 GT OR ISZERO PUSH2 0x7A0 JUMPI PUSH1 0x0 DUP1 REVERT JUMPDEST SWAP2 SWAP1 DUP1 DUP1 PUSH1 0x20 MUL PUSH1 0x20 ADD PUSH1 0x40 MLOAD SWAP1 DUP2 ADD PUSH1 0x40 MSTORE DUP1 SWAP4 SWAP3 SWAP2 SWAP1 DUP2 DUP2 MSTORE PUSH1 0x20 ADD DUP4 DUP4 PUSH1 0x20 MUL DUP1 DUP3 DUP5 CALLDATACOPY PUSH1 0x0 SWAP3 ADD SWAP2 SWAP1 SWAP2 MSTORE POP SWAP3 SWAP6 SWAP5 SWAP4 PUSH1 0x20 DUP2 ADD SWAP4 POP CALLDATALOAD SWAP2 POP POP PUSH1 0x1 PUSH1 0x20 SHL DUP2 GT ISZERO PUSH2 0x7EF JUMPI PUSH1 0x0 DUP1 REVERT JUMPDEST DUP3 ADD DUP4 PUSH1 0x20 DUP3 ADD GT ISZERO PUSH2 0x801 JUMPI PUSH1 0x0 DUP1 REVERT JUMPDEST DUP1 CALLDATALOAD SWAP1 PUSH1 0x20 ADD SWAP2 DUP5 PUSH1 0x1 DUP4 MUL DUP5 ADD GT PUSH1 0x1 PUSH1 0x20 SHL DUP4 GT OR ISZERO PUSH2 0x822 JUMPI PUSH1 0x0 DUP1 REVERT JUMPDEST SWAP2 SWAP1 DUP1 DUP1 PUSH1 0x1F ADD PUSH1 0x20 DUP1 SWAP2 DIV MUL PUSH1 0x20 ADD PUSH1 0x40 MLOAD SWAP1 DUP2 ADD PUSH1 0x40 MSTORE DUP1 SWAP4 SWAP3 SWAP2 SWAP1 DUP2 DUP2 MSTORE PUSH1 0x20 ADD DUP4 DUP4 DUP1 DUP3 DUP5 CALLDATACOPY PUSH1 0x0 SWAP3 ADD SWAP2 SWAP1 SWAP2 MSTORE POP SWAP3 SWAP6 POP PUSH2 0x1A2B SWAP5 POP POP POP POP POP JUMP JUMPDEST CALLVALUE DUP1 ISZERO PUSH2 0x86F JUMPI PUSH1 0x0 DUP1 REVERT JUMPDEST POP PUSH2 0x88D PUSH1 0x4 DUP1 CALLDATASIZE SUB PUSH1 0x20 DUP2 LT ISZERO PUSH2 0x886 JUMPI PUSH1 0x0 DUP1 REVERT JUMPDEST POP CALLDATALOAD PUSH2 0x1D2E JUMP JUMPDEST PUSH1 0x40 MLOAD DUP1 DUP7 ISZERO ISZERO DUP2 MSTORE PUSH1 0x20 ADD DUP1 PUSH1 0x20 ADD DUP6 DUP2 MSTORE PUSH1 0x20 ADD DUP5 DUP2 MSTORE PUSH1 0x20 ADD DUP4 DUP2 MSTORE PUSH1 0x20 ADD DUP3 DUP2 SUB DUP3 MSTORE DUP7 DUP2 DUP2 MLOAD DUP2 MSTORE PUSH1 0x20 ADD SWAP2 POP DUP1 MLOAD SWAP1 PUSH1 0x20 ADD SWAP1 DUP1 DUP4 DUP4 PUSH1 0x0 DUP4 DUP2 LT ISZERO PUSH2 0x530 JUMPI DUP2 DUP2 ADD MLOAD DUP4 DUP3 ADD MSTORE PUSH1 0x20 ADD PUSH2 0x518 JUMP JUMPDEST CALLVALUE DUP1 ISZERO PUSH2 0x8EF JUMPI PUSH1 0x0 DUP1 REVERT JUMPDEST POP PUSH2 0x669 PUSH1 0x4 DUP1 CALLDATASIZE SUB PUSH1 0x20 DUP2 LT ISZERO PUSH2 0x906 JUMPI PUSH1 0x0 DUP1 REVERT JUMPDEST DUP2 ADD SWAP1 PUSH1 0x20 DUP2 ADD DUP2 CALLDATALOAD PUSH1 0x1 PUSH1 0x20 SHL DUP2 GT ISZERO PUSH2 0x920 JUMPI PUSH1 0x0 DUP1 REVERT JUMPDEST DUP3 ADD DUP4 PUSH1 0x20 DUP3 ADD GT ISZERO PUSH2 0x932 JUMPI PUSH1 0x0 DUP1 REVERT JUMPDEST DUP1 CALLDATALOAD SWAP1 PUSH1 0x20 ADD SWAP2 DUP5 PUSH1 0x1 DUP4 MUL DUP5 ADD GT PUSH1 0x1 PUSH1 0x20 SHL DUP4 GT OR ISZERO PUSH2 0x953 JUMPI PUSH1 0x0 DUP1 REVERT JUMPDEST POP SWAP1 SWAP3 POP SWAP1 POP PUSH2 0x1E30 JUMP JUMPDEST CALLVALUE DUP1 ISZERO PUSH2 0x96A JUMPI PUSH1 0x0 DUP1 REVERT JUMPDEST POP PUSH2 0x669 PUSH1 0x4 DUP1 CALLDATASIZE SUB PUSH1 0x40 DUP2 LT ISZERO PUSH2 0x981 JUMPI PUSH1 0x0 DUP1 REVERT JUMPDEST POP DUP1 CALLDATALOAD SWAP1 PUSH1 0x20 ADD CALLDATALOAD PUSH1 0x1 PUSH1 0x1 PUSH1 0xA0 SHL SUB AND PUSH2 0x1E4B JUMP JUMPDEST CALLVALUE DUP1 ISZERO PUSH2 0x9A3 JUMPI PUSH1 0x0 DUP1 REVERT JUMPDEST POP PUSH2 0x669 PUSH1 0x4 DUP1 CALLDATASIZE SUB PUSH1 0x40 DUP2 LT ISZERO PUSH2 0x9BA JUMPI PUSH1 0x0 DUP1 REVERT JUMPDEST POP DUP1 CALLDATALOAD SWAP1 PUSH1 0x20 ADD CALLDATALOAD PUSH1 0x1 PUSH1 0x1 PUSH1 0xA0 SHL SUB AND PUSH2 0x1EB3 JUMP JUMPDEST CALLVALUE DUP1 ISZERO PUSH2 0x9DC JUMPI PUSH1 0x0 DUP1 REVERT JUMPDEST POP PUSH2 0x9FA PUSH1 0x4 DUP1 CALLDATASIZE SUB PUSH1 0x20 DUP2 LT ISZERO PUSH2 0x9F3 JUMPI PUSH1 0x0 DUP1 REVERT JUMPDEST POP CALLDATALOAD PUSH2 0x1F14 JUMP JUMPDEST PUSH1 0x40 MLOAD DUP1 DUP1 PUSH1 0x20 ADD DUP6 DUP2 MSTORE PUSH1 0x20 ADD DUP5 DUP2 MSTORE PUSH1 0x20 ADD DUP4 PUSH1 0xFF AND DUP2 MSTORE PUSH1 0x20 ADD DUP3 DUP2 SUB DUP3 MSTORE DUP7 DUP2 DUP2 MLOAD DUP2 MSTORE PUSH1 0x20 ADD SWAP2 POP DUP1 MLOAD SWAP1 PUSH1 0x20 ADD SWAP1 DUP1 DUP4 DUP4 PUSH1 0x0 JUMPDEST DUP4 DUP2 LT ISZERO PUSH2 0xA4C JUMPI DUP2 DUP2 ADD MLOAD DUP4 DUP3 ADD MSTORE PUSH1 0x20 ADD PUSH2 0xA34 JUMP JUMPDEST POP POP POP POP SWAP1 POP SWAP1 DUP2 ADD SWAP1 PUSH1 0x1F AND DUP1 ISZERO PUSH2 0xA79 JUMPI DUP1 DUP3 SUB DUP1 MLOAD PUSH1 0x1 DUP4 PUSH1 0x20 SUB PUSH2 0x100 EXP SUB NOT AND DUP2 MSTORE PUSH1 0x20 ADD SWAP2 POP JUMPDEST POP SWAP6 POP POP POP POP POP POP PUSH1 0x40 MLOAD DUP1 SWAP2 SUB SWAP1 RETURN JUMPDEST CALLVALUE DUP1 ISZERO PUSH2 0xA96 JUMPI PUSH1 0x0 DUP1 REVERT JUMPDEST POP PUSH2 0xAB4 PUSH1 0x4 DUP1 CALLDATASIZE SUB PUSH1 0x20 DUP2 LT ISZERO PUSH2 0xAAD JUMPI PUSH1 0x0 DUP1 REVERT JUMPDEST POP CALLDATALOAD PUSH2 0x2011 JUMP JUMPDEST PUSH1 0x40 DUP1 MLOAD PUSH1 0xFF SWAP6 DUP7 AND DUP2 MSTORE SWAP4 DUP6 AND PUSH1 0x20 DUP6 ADD MSTORE SWAP2 DUP5 AND DUP4 DUP4 ADD MSTORE SWAP1 SWAP3 AND PUSH1 0x60 DUP3 ADD MSTORE SWAP1 MLOAD SWAP1 DUP2 SWAP1 SUB PUSH1 0x80 ADD SWAP1 RETURN JUMPDEST PUSH2 0x306 PUSH1 0x4 DUP1 CALLDATASIZE SUB PUSH1 0x40 DUP2 LT ISZERO PUSH2 0xAF8 JUMPI PUSH1 0x0 DUP1 REVERT JUMPDEST DUP2 CALLDATALOAD SWAP2 SWAP1 DUP2 ADD SWAP1 PUSH1 0x40 DUP2 ADD PUSH1 0x20 DUP3 ADD CALLDATALOAD PUSH1 0x1 PUSH1 0x20 SHL DUP2 GT ISZERO PUSH2 0xB19 JUMPI PUSH1 0x0 DUP1 REVERT JUMPDEST DUP3 ADD DUP4 PUSH1 0x20 DUP3 ADD GT ISZERO PUSH2 0xB2B JUMPI PUSH1 0x0 DUP1 REVERT JUMPDEST DUP1 CALLDATALOAD SWAP1 PUSH1 0x20 ADD SWAP2 DUP5 PUSH1 0x1 DUP4 MUL DUP5 ADD GT PUSH1 0x1 PUSH1 0x20 SHL DUP4 GT OR ISZERO PUSH2 0xB4C JUMPI PUSH1 0x0 DUP1 REVERT JUMPDEST POP SWAP1 SWAP3 POP SWAP1 POP PUSH2 0x2083 JUMP JUMPDEST CALLVALUE DUP1 ISZERO PUSH2 0xB63 JUMPI PUSH1 0x0 DUP1 REVERT JUMPDEST POP PUSH2 0xAB4 PUSH1 0x4 DUP1 CALLDATASIZE SUB PUSH1 0x20 DUP2 LT ISZERO PUSH2 0xB7A JUMPI PUSH1 0x0 DUP1 REVERT JUMPDEST POP CALLDATALOAD PUSH2 0x27DB JUMP JUMPDEST CALLVALUE DUP1 ISZERO PUSH2 0xB8D JUMPI PUSH1 0x0 DUP1 REVERT JUMPDEST POP PUSH2 0x306 PUSH2 0x2852 JUMP JUMPDEST CALLVALUE DUP1 ISZERO PUSH2 0xBA2 JUMPI PUSH1 0x0 DUP1 REVERT JUMPDEST POP PUSH2 0xCC6 PUSH1 0x4 DUP1 CALLDATASIZE SUB PUSH1 0x40 DUP2 LT ISZERO PUSH2 0xBB9 JUMPI PUSH1 0x0 DUP1 REVERT JUMPDEST DUP2 ADD SWAP1 PUSH1 0x20 DUP2 ADD DUP2 CALLDATALOAD PUSH1 0x1 PUSH1 0x20 SHL DUP2 GT ISZERO PUSH2 0xBD3 JUMPI PUSH1 0x0 DUP1 REVERT JUMPDEST DUP3 ADD DUP4 PUSH1 0x20 DUP3 ADD GT ISZERO PUSH2 0xBE5 JUMPI PUSH1 0x0 DUP1 REVERT JUMPDEST DUP1 CALLDATALOAD SWAP1 PUSH1 0x20 ADD SWAP2 DUP5 PUSH1 0x20 DUP4 MUL DUP5 ADD GT PUSH1 0x1 PUSH1 0x20 SHL DUP4 GT OR ISZERO PUSH2 0xC06 JUMPI PUSH1 0x0 DUP1 REVERT JUMPDEST SWAP2 SWAP1 DUP1 DUP1 PUSH1 0x20 MUL PUSH1 0x20 ADD PUSH1 0x40 MLOAD SWAP1 DUP2 ADD PUSH1 0x40 MSTORE DUP1 SWAP4 SWAP3 SWAP2 SWAP1 DUP2 DUP2 MSTORE PUSH1 0x20 ADD DUP4 DUP4 PUSH1 0x20 MUL DUP1 DUP3 DUP5 CALLDATACOPY PUSH1 0x0 SWAP3 ADD SWAP2 SWAP1 SWAP2 MSTORE POP SWAP3 SWAP6 SWAP5 SWAP4 PUSH1 0x20 DUP2 ADD SWAP4 POP CALLDATALOAD SWAP2 POP POP PUSH1 0x1 PUSH1 0x20 SHL DUP2 GT ISZERO PUSH2 0xC55 JUMPI PUSH1 0x0 DUP1 REVERT JUMPDEST DUP3 ADD DUP4 PUSH1 0x20 DUP3 ADD GT ISZERO PUSH2 0xC67 JUMPI PUSH1 0x0 DUP1 REVERT JUMPDEST DUP1 CALLDATALOAD SWAP1 PUSH1 0x20 ADD SWAP2 DUP5 PUSH1 0x20 DUP4 MUL DUP5 ADD GT PUSH1 0x1 PUSH1 0x20 SHL DUP4 GT OR ISZERO PUSH2 0xC88 JUMPI PUSH1 0x0 DUP1 REVERT JUMPDEST SWAP2 SWAP1 DUP1 DUP1 PUSH1 0x20 MUL PUSH1 0x20 ADD PUSH1 0x40 MLOAD SWAP1 DUP2 ADD PUSH1 0x40 MSTORE DUP1 SWAP4 SWAP3 SWAP2 SWAP1 DUP2 DUP2 MSTORE PUSH1 0x20 ADD DUP4 DUP4 PUSH1 0x20 MUL DUP1 DUP3 DUP5 CALLDATACOPY PUSH1 0x0 SWAP3 ADD SWAP2 SWAP1 SWAP2 MSTORE POP SWAP3 SWAP6 POP PUSH2 0x2859 SWAP5 POP POP POP POP POP JUMP JUMPDEST PUSH1 0x40 DUP1 MLOAD PUSH1 0x20 DUP1 DUP3 MSTORE DUP4 MLOAD DUP2 DUP4 ADD MSTORE DUP4 MLOAD SWAP2 SWAP3 DUP4 SWAP3 SWAP1 DUP4 ADD SWAP2 DUP6 DUP2 ADD SWAP2 MUL DUP1 DUP4 DUP4 PUSH1 0x0 JUMPDEST DUP4 DUP2 LT ISZERO PUSH2 0xD02 JUMPI DUP2 DUP2 ADD MLOAD DUP4 DUP3 ADD MSTORE PUSH1 0x20 ADD PUSH2 0xCEA JUMP JUMPDEST POP POP POP POP SWAP1 POP ADD SWAP3 POP POP POP PUSH1 0x40 MLOAD DUP1 SWAP2 SUB SWAP1 RETURN JUMPDEST CALLVALUE DUP1 ISZERO PUSH2 0xD22 JUMPI PUSH1 0x0 DUP1 REVERT JUMPDEST POP PUSH2 0x614 PUSH1 0x4 DUP1 CALLDATASIZE SUB PUSH1 0x20 DUP2 LT ISZERO PUSH2 0xD39 JUMPI PUSH1 0x0 DUP1 REVERT JUMPDEST POP CALLDATALOAD PUSH2 0x2945 JUMP JUMPDEST CALLVALUE DUP1 ISZERO PUSH2 0xD4C JUMPI PUSH1 0x0 DUP1 REVERT JUMPDEST POP PUSH2 0x306 PUSH1 0x4 DUP1 CALLDATASIZE SUB PUSH1 0x40 DUP2 LT ISZERO PUSH2 0xD63 JUMPI PUSH1 0x0 DUP1 REVERT JUMPDEST POP DUP1 CALLDATALOAD SWAP1 PUSH1 0x20 ADD CALLDATALOAD PUSH2 0x29AE JUMP JUMPDEST CALLVALUE DUP1 ISZERO PUSH2 0xD7C JUMPI PUSH1 0x0 DUP1 REVERT JUMPDEST POP PUSH2 0x3C0 PUSH1 0x4 DUP1 CALLDATASIZE SUB PUSH1 0x20 DUP2 LT ISZERO PUSH2 0xD93 JUMPI PUSH1 0x0 DUP1 REVERT JUMPDEST POP CALLDATALOAD PUSH2 0x29F9 JUMP JUMPDEST CALLVALUE DUP1 ISZERO PUSH2 0xDA6 JUMPI PUSH1 0x0 DUP1 REVERT JUMPDEST POP PUSH2 0x614 PUSH1 0x4 DUP1 CALLDATASIZE SUB PUSH1 0x20 DUP2 LT ISZERO PUSH2 0xDBD JUMPI PUSH1 0x0 DUP1 REVERT JUMPDEST POP CALLDATALOAD PUSH2 0x2A9F JUMP JUMPDEST CALLVALUE DUP1 ISZERO PUSH2 0xDD0 JUMPI PUSH1 0x0 DUP1 REVERT JUMPDEST POP PUSH2 0x306 PUSH2 0x2AFA JUMP JUMPDEST CALLVALUE DUP1 ISZERO PUSH2 0xDE5 JUMPI PUSH1 0x0 DUP1 REVERT JUMPDEST POP PUSH2 0xE03 PUSH1 0x4 DUP1 CALLDATASIZE SUB PUSH1 0x20 DUP2 LT ISZERO PUSH2 0xDFC JUMPI PUSH1 0x0 DUP1 REVERT JUMPDEST POP CALLDATALOAD PUSH2 0x2B00 JUMP JUMPDEST PUSH1 0x40 DUP1 MLOAD PUSH1 0xFF SWAP8 DUP9 AND DUP2 MSTORE SWAP6 DUP8 AND PUSH1 0x20 DUP8 ADD MSTORE SWAP4 DUP7 AND DUP6 DUP6 ADD MSTORE SWAP2 DUP6 AND PUSH1 0x60 DUP6 ADD MSTORE DUP5 AND PUSH1 0x80 DUP5 ADD MSTORE SWAP1 SWAP3 AND PUSH1 0xA0 DUP3 ADD MSTORE SWAP1 MLOAD SWAP1 DUP2 SWAP1 SUB PUSH1 0xC0 ADD SWAP1 RETURN JUMPDEST CALLVALUE DUP1 ISZERO PUSH2 0xE4C JUMPI PUSH1 0x0 DUP1 REVERT JUMPDEST POP PUSH2 0xAB4 PUSH1 0x4 DUP1 CALLDATASIZE SUB PUSH1 0x20 DUP2 LT ISZERO PUSH2 0xE63 JUMPI PUSH1 0x0 DUP1 REVERT JUMPDEST POP CALLDATALOAD PUSH2 0x2B8C JUMP JUMPDEST CALLVALUE DUP1 ISZERO PUSH2 0xE76 JUMPI PUSH1 0x0 DUP1 REVERT JUMPDEST POP PUSH2 0x306 PUSH2 0x2BFB JUMP JUMPDEST CALLVALUE DUP1 ISZERO PUSH2 0xE8B JUMPI PUSH1 0x0 DUP1 REVERT JUMPDEST POP PUSH2 0x614 PUSH1 0x4 DUP1 CALLDATASIZE SUB PUSH1 0x40 DUP2 LT ISZERO PUSH2 0xEA2 JUMPI PUSH1 0x0 DUP1 REVERT JUMPDEST POP DUP1 CALLDATALOAD SWAP1 PUSH1 0x20 ADD CALLDATALOAD PUSH2 0x2C01 JUMP JUMPDEST CALLVALUE DUP1 ISZERO PUSH2 0xEBB JUMPI PUSH1 0x0 DUP1 REVERT JUMPDEST POP PUSH2 0x306 PUSH2 0x2C20 JUMP JUMPDEST CALLVALUE DUP1 ISZERO PUSH2 0xED0 JUMPI PUSH1 0x0 DUP1 REVERT JUMPDEST POP PUSH2 0x34C PUSH1 0x4 DUP1 CALLDATASIZE SUB PUSH1 0x40 DUP2 LT ISZERO PUSH2 0xEE7 JUMPI PUSH1 0x0 DUP1 REVERT JUMPDEST POP DUP1 CALLDATALOAD SWAP1 PUSH1 0x20 ADD CALLDATALOAD PUSH1 0x1 PUSH1 0x1 PUSH1 0xA0 SHL SUB AND PUSH2 0x2C25 JUMP JUMPDEST CALLVALUE DUP1 ISZERO PUSH2 0xF09 JUMPI PUSH1 0x0 DUP1 REVERT JUMPDEST POP PUSH2 0x669 PUSH1 0x4 DUP1 CALLDATASIZE SUB PUSH1 0x40 DUP2 LT ISZERO PUSH2 0xF20 JUMPI PUSH1 0x0 DUP1 REVERT JUMPDEST POP DUP1 CALLDATALOAD SWAP1 PUSH1 0x20 ADD CALLDATALOAD PUSH2 0x2C3D JUMP JUMPDEST CALLVALUE DUP1 ISZERO PUSH2 0xF39 JUMPI PUSH1 0x0 DUP1 REVERT JUMPDEST POP PUSH2 0x669 PUSH1 0x4 DUP1 CALLDATASIZE SUB PUSH1 0x40 DUP2 LT ISZERO PUSH2 0xF50 JUMPI PUSH1 0x0 DUP1 REVERT JUMPDEST DUP2 ADD SWAP1 PUSH1 0x20 DUP2 ADD DUP2 CALLDATALOAD PUSH1 0x1 PUSH1 0x20 SHL DUP2 GT ISZERO PUSH2 0xF6A JUMPI PUSH1 0x0 DUP1 REVERT JUMPDEST DUP3 ADD DUP4 PUSH1 0x20 DUP3 ADD GT ISZERO PUSH2 0xF7C JUMPI PUSH1 0x0 DUP1 REVERT JUMPDEST DUP1 CALLDATALOAD SWAP1 PUSH1 0x20 ADD SWAP2 DUP5 PUSH1 0x1 DUP4 MUL DUP5 ADD GT PUSH1 0x1 PUSH1 0x20 SHL DUP4 GT OR ISZERO PUSH2 0xF9D JUMPI PUSH1 0x0 DUP1 REVERT JUMPDEST SWAP2 SWAP4 POP SWAP2 POP CALLDATALOAD PUSH1 0x1 PUSH1 0x1 PUSH1 0xA0 SHL SUB AND PUSH2 0x2CC4 JUMP JUMPDEST CALLVALUE DUP1 ISZERO PUSH2 0xFBD JUMPI PUSH1 0x0 DUP1 REVERT JUMPDEST POP PUSH2 0x669 PUSH1 0x4 DUP1 CALLDATASIZE SUB PUSH1 0x20 DUP2 LT ISZERO PUSH2 0xFD4 JUMPI PUSH1 0x0 DUP1 REVERT JUMPDEST DUP2 ADD SWAP1 PUSH1 0x20 DUP2 ADD DUP2 CALLDATALOAD PUSH1 0x1 PUSH1 0x20 SHL DUP2 GT ISZERO PUSH2 0xFEE JUMPI PUSH1 0x0 DUP1 REVERT JUMPDEST DUP3 ADD DUP4 PUSH1 0x20 DUP3 ADD GT ISZERO PUSH2 0x1000 JUMPI PUSH1 0x0 DUP1 REVERT JUMPDEST DUP1 CALLDATALOAD SWAP1 PUSH1 0x20 ADD SWAP2 DUP5 PUSH1 0x1 DUP4 MUL DUP5 ADD GT PUSH1 0x1 PUSH1 0x20 SHL DUP4 GT OR ISZERO PUSH2 0x1021 JUMPI PUSH1 0x0 DUP1 REVERT JUMPDEST POP SWAP1 SWAP3 POP SWAP1 POP PUSH2 0x2D66 JUMP JUMPDEST CALLVALUE DUP1 ISZERO PUSH2 0x1038 JUMPI PUSH1 0x0 DUP1 REVERT JUMPDEST POP PUSH2 0x306 PUSH2 0x2DCC JUMP JUMPDEST CALLVALUE DUP1 ISZERO PUSH2 0x104D JUMPI PUSH1 0x0 DUP1 REVERT JUMPDEST POP PUSH2 0x669 PUSH1 0x4 DUP1 CALLDATASIZE SUB PUSH1 0x40 DUP2 LT ISZERO PUSH2 0x1064 JUMPI PUSH1 0x0 DUP1 REVERT JUMPDEST POP PUSH1 0x1 PUSH1 0x1 PUSH1 0xA0 SHL SUB DUP2 CALLDATALOAD AND SWAP1 PUSH1 0x20 ADD CALLDATALOAD ISZERO ISZERO PUSH2 0x2DD1 JUMP JUMPDEST CALLVALUE DUP1 ISZERO PUSH2 0x1088 JUMPI PUSH1 0x0 DUP1 REVERT JUMPDEST POP PUSH2 0x669 PUSH2 0x2EC0 JUMP JUMPDEST CALLVALUE DUP1 ISZERO PUSH2 0x109D JUMPI PUSH1 0x0 DUP1 REVERT JUMPDEST POP PUSH2 0x669 PUSH1 0x4 DUP1 CALLDATASIZE SUB PUSH1 0x60 DUP2 LT ISZERO PUSH2 0x10B4 JUMPI PUSH1 0x0 DUP1 REVERT JUMPDEST POP PUSH1 0x1 PUSH1 0x1 PUSH1 0xA0 SHL SUB DUP2 CALLDATALOAD DUP2 AND SWAP2 PUSH1 0x20 DUP2 ADD CALLDATALOAD SWAP1 SWAP2 AND SWAP1 PUSH1 0x40 ADD CALLDATALOAD PUSH2 0x2F56 JUMP JUMPDEST CALLVALUE DUP1 ISZERO PUSH2 0x10E0 JUMPI PUSH1 0x0 DUP1 REVERT JUMPDEST POP PUSH2 0x306 PUSH2 0x2F66 JUMP JUMPDEST CALLVALUE DUP1 ISZERO PUSH2 0x10F5 JUMPI PUSH1 0x0 DUP1 REVERT JUMPDEST POP PUSH2 0x669 PUSH1 0x4 DUP1 CALLDATASIZE SUB PUSH1 0x20 DUP2 LT ISZERO PUSH2 0x110C JUMPI PUSH1 0x0 DUP1 REVERT JUMPDEST POP CALLDATALOAD PUSH1 0xFF AND PUSH2 0x2F6C JUMP JUMPDEST CALLVALUE DUP1 ISZERO PUSH2 0x1122 JUMPI PUSH1 0x0 DUP1 REVERT JUMPDEST POP PUSH2 0x306 PUSH1 0x4 DUP1 CALLDATASIZE SUB PUSH1 0x20 DUP2 LT ISZERO PUSH2 0x1139 JUMPI PUSH1 0x0 DUP1 REVERT JUMPDEST POP CALLDATALOAD PUSH2 0x2FA3 JUMP JUMPDEST CALLVALUE DUP1 ISZERO PUSH2 0x114C JUMPI PUSH1 0x0 DUP1 REVERT JUMPDEST POP PUSH2 0x306 PUSH2 0x2FBA JUMP JUMPDEST CALLVALUE DUP1 ISZERO PUSH2 0x1161 JUMPI PUSH1 0x0 DUP1 REVERT JUMPDEST POP PUSH2 0x669 PUSH1 0x4 DUP1 CALLDATASIZE SUB PUSH1 0x40 DUP2 LT ISZERO PUSH2 0x1178 JUMPI PUSH1 0x0 DUP1 REVERT JUMPDEST POP DUP1 CALLDATALOAD SWAP1 PUSH1 0x20 ADD CALLDATALOAD PUSH1 0x1 PUSH1 0x1 PUSH1 0xA0 SHL SUB AND PUSH2 0x2FC0 JUMP JUMPDEST CALLVALUE DUP1 ISZERO PUSH2 0x119A JUMPI PUSH1 0x0 DUP1 REVERT JUMPDEST POP PUSH2 0x669 PUSH1 0x4 DUP1 CALLDATASIZE SUB PUSH1 0x20 DUP2 LT ISZERO PUSH2 0x11B1 JUMPI PUSH1 0x0 DUP1 REVERT JUMPDEST POP CALLDATALOAD PUSH2 0x3019 JUMP JUMPDEST CALLVALUE DUP1 ISZERO PUSH2 0x11C4 JUMPI PUSH1 0x0 DUP1 REVERT JUMPDEST POP PUSH2 0x3C0 PUSH1 0x4 DUP1 CALLDATASIZE SUB PUSH1 0x20 DUP2 LT ISZERO PUSH2 0x11DB JUMPI PUSH1 0x0 DUP1 REVERT JUMPDEST POP CALLDATALOAD PUSH2 0x3035 JUMP JUMPDEST CALLVALUE DUP1 ISZERO PUSH2 0x11EE JUMPI PUSH1 0x0 DUP1 REVERT JUMPDEST POP PUSH2 0x34C PUSH1 0x4 DUP1 CALLDATASIZE SUB PUSH1 0x40 DUP2 LT ISZERO PUSH2 0x1205 JUMPI PUSH1 0x0 DUP1 REVERT JUMPDEST POP PUSH1 0x1 PUSH1 0x1 PUSH1 0xA0 SHL SUB DUP2 CALLDATALOAD DUP2 AND SWAP2 PUSH1 0x20 ADD CALLDATALOAD AND PUSH2 0x3042 JUMP JUMPDEST CALLVALUE DUP1 ISZERO PUSH2 0x1229 JUMPI PUSH1 0x0 DUP1 REVERT JUMPDEST POP PUSH2 0x669 PUSH1 0x4 DUP1 CALLDATASIZE SUB PUSH1 0xA0 DUP2 LT ISZERO PUSH2 0x1240 JUMPI PUSH1 0x0 DUP1 REVERT JUMPDEST PUSH1 0x1 PUSH1 0x1 PUSH1 0xA0 SHL SUB DUP3 CALLDATALOAD DUP2 AND SWAP3 PUSH1 0x20 DUP2 ADD CALLDATALOAD SWAP1 SWAP2 AND SWAP2 PUSH1 0x40 DUP3 ADD CALLDATALOAD SWAP2 PUSH1 0x60 DUP2 ADD CALLDATALOAD SWAP2 DUP2 ADD SWAP1 PUSH1 0xA0 DUP2 ADD PUSH1 0x80 DUP3 ADD CALLDATALOAD PUSH1 0x1 PUSH1 0x20 SHL DUP2 GT ISZERO PUSH2 0x127F JUMPI PUSH1 0x0 DUP1 REVERT JUMPDEST DUP3 ADD DUP4 PUSH1 0x20 DUP3 ADD GT ISZERO PUSH2 0x1291 JUMPI PUSH1 0x0 DUP1 REVERT JUMPDEST DUP1 CALLDATALOAD SWAP1 PUSH1 0x20 ADD SWAP2 DUP5 PUSH1 0x1 DUP4 MUL DUP5 ADD GT PUSH1 0x1 PUSH1 0x20 SHL DUP4 GT OR ISZERO PUSH2 0x12B2 JUMPI PUSH1 0x0 DUP1 REVERT JUMPDEST SWAP2 SWAP1 DUP1 DUP1 PUSH1 0x1F ADD PUSH1 0x20 DUP1 SWAP2 DIV MUL PUSH1 0x20 ADD PUSH1 0x40 MLOAD SWAP1 DUP2 ADD PUSH1 0x40 MSTORE DUP1 SWAP4 SWAP3 SWAP2 SWAP1 DUP2 DUP2 MSTORE PUSH1 0x20 ADD DUP4 DUP4 DUP1 DUP3 DUP5 CALLDATACOPY PUSH1 0x0 SWAP3 ADD SWAP2 SWAP1 SWAP2 MSTORE POP SWAP3 SWAP6 POP PUSH2 0x3070 SWAP5 POP POP POP POP POP JUMP JUMPDEST CALLVALUE DUP1 ISZERO PUSH2 0x12FF JUMPI PUSH1 0x0 DUP1 REVERT JUMPDEST POP PUSH2 0x306 PUSH1 0x4 DUP1 CALLDATASIZE SUB PUSH1 0x40 DUP2 LT ISZERO PUSH2 0x1316 JUMPI PUSH1 0x0 DUP1 REVERT JUMPDEST POP DUP1 CALLDATALOAD SWAP1 PUSH1 0x20 ADD CALLDATALOAD PUSH2 0x323B JUMP JUMPDEST CALLVALUE DUP1 ISZERO PUSH2 0x132F JUMPI PUSH1 0x0 DUP1 REVERT JUMPDEST POP PUSH2 0x669 PUSH2 0x32A0 JUMP JUMPDEST PUSH1 0x0 PUSH1 0x1 PUSH1 0x1 PUSH1 0xA0 SHL SUB DUP4 AND PUSH2 0x137F JUMPI PUSH1 0x40 MLOAD PUSH3 0x461BCD PUSH1 0xE5 SHL DUP2 MSTORE PUSH1 0x4 ADD DUP1 DUP1 PUSH1 0x20 ADD DUP3 DUP2 SUB DUP3 MSTORE PUSH1 0x2B DUP2 MSTORE PUSH1 0x20 ADD DUP1 PUSH2 0x5102 PUSH1 0x2B SWAP2 CODECOPY PUSH1 0x40 ADD SWAP2 POP POP PUSH1 0x40 MLOAD DUP1 SWAP2 SUB SWAP1 REVERT JUMPDEST POP PUSH1 0x0 DUP2 DUP2 MSTORE PUSH1 0x2 PUSH1 0x20 SWAP1 DUP2 MSTORE PUSH1 0x40 DUP1 DUP4 KECCAK256 PUSH1 0x1 PUSH1 0x1 PUSH1 0xA0 SHL SUB DUP7 AND DUP5 MSTORE SWAP1 SWAP2 MSTORE SWAP1 KECCAK256 SLOAD JUMPDEST SWAP3 SWAP2 POP POP JUMP JUMPDEST PUSH1 0x1 PUSH1 0x1 PUSH1 0xE0 SHL SUB NOT DUP2 AND PUSH1 0x0 SWAP1 DUP2 MSTORE PUSH1 0x1 PUSH1 0x20 MSTORE PUSH1 0x40 SWAP1 KECCAK256 SLOAD PUSH1 0xFF AND JUMPDEST SWAP2 SWAP1 POP JUMP JUMPDEST PUSH1 0x6 SLOAD PUSH1 0xFF AND DUP2 JUMP JUMPDEST PUSH1 0x4 DUP1 SLOAD PUSH1 0x40 DUP1 MLOAD PUSH1 0x20 PUSH1 0x1F PUSH1 0x2 PUSH1 0x0 NOT PUSH2 0x100 PUSH1 0x1 DUP9 AND ISZERO MUL ADD SWAP1 SWAP6 AND SWAP5 SWAP1 SWAP5 DIV SWAP4 DUP5 ADD DUP2 SWAP1 DIV DUP2 MUL DUP3 ADD DUP2 ADD SWAP1 SWAP3 MSTORE DUP3 DUP2 MSTORE PUSH1 0x60 SWAP4 SWAP1 SWAP3 SWAP1 SWAP2 DUP4 ADD DUP3 DUP3 DUP1 ISZERO PUSH2 0x1462 JUMPI DUP1 PUSH1 0x1F LT PUSH2 0x1437 JUMPI PUSH2 0x100 DUP1 DUP4 SLOAD DIV MUL DUP4 MSTORE SWAP2 PUSH1 0x20 ADD SWAP2 PUSH2 0x1462 JUMP JUMPDEST DUP3 ADD SWAP2 SWAP1 PUSH1 0x0 MSTORE PUSH1 0x20 PUSH1 0x0 KECCAK256 SWAP1 JUMPDEST DUP2 SLOAD DUP2 MSTORE SWAP1 PUSH1 0x1 ADD SWAP1 PUSH1 0x20 ADD DUP1 DUP4 GT PUSH2 0x1445 JUMPI DUP3 SWAP1 SUB PUSH1 0x1F AND DUP3 ADD SWAP2 JUMPDEST POP POP POP POP POP SWAP1 POP SWAP2 SWAP1 POP JUMP JUMPDEST PUSH1 0x0 DUP1 PUSH1 0x6 SLOAD PUSH1 0xFF AND PUSH1 0x1 DUP2 GT ISZERO PUSH2 0x1482 JUMPI INVALID JUMPDEST EQ PUSH2 0x148C JUMPI PUSH1 0x0 DUP1 REVERT JUMPDEST PUSH1 0x7 DUP1 SLOAD LT PUSH2 0x149A JUMPI PUSH1 0x0 DUP1 REVERT JUMPDEST PUSH1 0xE SLOAD CALLVALUE LT ISZERO PUSH2 0x14A9 JUMPI PUSH1 0x0 DUP1 REVERT JUMPDEST PUSH1 0x0 PUSH1 0x1 PUSH1 0x1 PUSH1 0xA0 SHL SUB AND PUSH1 0x10 DUP5 DUP5 PUSH1 0x40 MLOAD DUP1 DUP4 DUP4 DUP1 DUP3 DUP5 CALLDATACOPY SWAP2 SWAP1 SWAP2 ADD SWAP5 DUP6 MSTORE POP POP PUSH1 0x40 MLOAD SWAP3 DUP4 SWAP1 SUB PUSH1 0x20 ADD SWAP1 SWAP3 KECCAK256 SLOAD PUSH1 0x1 PUSH1 0x1 PUSH1 0xA0 SHL SUB AND SWAP3 SWAP1 SWAP3 EQ ISZERO SWAP2 POP PUSH2 0x14F4 SWAP1 POP JUMPI PUSH1 0x0 DUP1 REVERT JUMPDEST PUSH1 0x7 SLOAD PUSH1 0x0 SWAP1 PUSH2 0x1505 SWAP1 PUSH1 0x1 PUSH2 0x34D7 JUMP JUMPDEST PUSH1 0x0 DUP2 DUP2 MSTORE PUSH1 0x8 PUSH1 0x20 MSTORE PUSH1 0x40 SWAP1 KECCAK256 SLOAD SWAP1 SWAP2 POP PUSH1 0x1 PUSH1 0x1 PUSH1 0xA0 SHL SUB AND ISZERO PUSH2 0x1527 JUMPI INVALID JUMPDEST PUSH1 0x0 DUP2 DUP2 MSTORE PUSH1 0x9 PUSH1 0x20 MSTORE PUSH1 0x40 SWAP1 KECCAK256 SLOAD PUSH1 0xFF AND ISZERO PUSH2 0x1540 JUMPI INVALID JUMPDEST PUSH1 0x0 PUSH1 0x10 DUP6 DUP6 PUSH1 0x40 MLOAD DUP1 DUP4 DUP4 DUP1 DUP3 DUP5 CALLDATACOPY SWAP2 SWAP1 SWAP2 ADD SWAP5 DUP6 MSTORE POP POP PUSH1 0x40 DUP1 MLOAD SWAP4 DUP5 SWAP1 SUB PUSH1 0x20 ADD DUP5 KECCAK256 SLOAD PUSH4 0x3FABE5A3 PUSH1 0xE2 SHL DUP6 MSTORE SWAP1 MLOAD PUSH1 0x1 PUSH1 0x1 PUSH1 0xA0 SHL SUB SWAP1 SWAP2 AND SWAP4 PUSH4 0xFEAF968C SWAP4 POP PUSH1 0x4 DUP1 DUP3 ADD SWAP4 POP PUSH1 0xA0 SWAP3 SWAP2 DUP3 SWAP1 SUB ADD DUP2 DUP7 DUP1 EXTCODESIZE ISZERO DUP1 ISZERO PUSH2 0x15A5 JUMPI PUSH1 0x0 DUP1 REVERT JUMPDEST POP GAS STATICCALL ISZERO DUP1 ISZERO PUSH2 0x15B9 JUMPI RETURNDATASIZE PUSH1 0x0 DUP1 RETURNDATACOPY RETURNDATASIZE PUSH1 0x0 REVERT JUMPDEST POP POP POP POP PUSH1 0x40 MLOAD RETURNDATASIZE PUSH1 0xA0 DUP2 LT ISZERO PUSH2 0x15CF JUMPI PUSH1 0x0 DUP1 REVERT JUMPDEST POP PUSH1 0x20 ADD MLOAD SWAP1 POP PUSH2 0x15DE PUSH2 0x4D9A JUMP JUMPDEST PUSH1 0x1 DUP2 MSTORE PUSH1 0x20 DUP1 DUP3 ADD DUP10 SWAP1 MSTORE PUSH1 0x40 DUP1 DUP4 ADD DUP10 SWAP1 MSTORE DUP1 MLOAD PUSH1 0x1F DUP9 ADD DUP4 SWAP1 DIV DUP4 MUL DUP2 ADD DUP4 ADD SWAP1 SWAP2 MSTORE DUP7 DUP2 MSTORE SWAP1 DUP8 SWAP1 DUP8 SWAP1 DUP2 SWAP1 DUP5 ADD DUP4 DUP3 DUP1 DUP3 DUP5 CALLDATACOPY PUSH1 0x0 SWAP3 ADD SWAP2 SWAP1 SWAP2 MSTORE POP POP POP POP PUSH1 0x60 DUP3 ADD MSTORE PUSH1 0x80 DUP2 ADD DUP3 SWAP1 MSTORE PUSH2 0x1651 PUSH2 0x1639 PUSH2 0x3531 JUMP JUMPDEST DUP5 PUSH1 0x1 PUSH1 0x40 MLOAD DUP1 PUSH1 0x20 ADD PUSH1 0x40 MSTORE DUP1 PUSH1 0x0 DUP2 MSTORE POP PUSH2 0x3535 JUMP JUMPDEST PUSH2 0x1659 PUSH2 0x3531 JUMP JUMPDEST PUSH1 0x0 DUP5 DUP2 MSTORE PUSH1 0x8 PUSH1 0x20 SWAP1 DUP2 MSTORE PUSH1 0x40 DUP1 DUP4 KECCAK256 DUP1 SLOAD PUSH1 0x1 PUSH1 0x1 PUSH1 0xA0 SHL SUB NOT AND PUSH1 0x1 PUSH1 0x1 PUSH1 0xA0 SHL SUB SWAP6 SWAP1 SWAP6 AND SWAP5 SWAP1 SWAP5 OR SWAP1 SWAP4 SSTORE PUSH1 0x9 DUP2 MSTORE SWAP1 DUP3 SWAP1 KECCAK256 DUP4 MLOAD DUP2 SLOAD PUSH1 0xFF NOT AND SWAP1 ISZERO ISZERO OR DUP2 SSTORE DUP4 DUP3 ADD MLOAD PUSH1 0x1 DUP3 ADD SSTORE SWAP2 DUP4 ADD MLOAD PUSH1 0x2 DUP4 ADD SSTORE PUSH1 0x60 DUP4 ADD MLOAD DUP1 MLOAD DUP5 SWAP4 SWAP3 PUSH2 0x16CC SWAP3 PUSH1 0x3 DUP6 ADD SWAP3 SWAP2 ADD SWAP1 PUSH2 0x4DCB JUMP JUMPDEST POP PUSH1 0x80 SWAP2 SWAP1 SWAP2 ADD MLOAD PUSH1 0x4 SWAP1 SWAP2 ADD SSTORE PUSH1 0x7 SLOAD PUSH2 0x16E8 SWAP1 PUSH1 0x1 PUSH2 0x34D7 JUMP JUMPDEST PUSH1 0x7 SSTORE PUSH1 0xE SLOAD PUSH2 0x16F7 SWAP1 PUSH2 0x363D JUMP JUMPDEST PUSH32 0x3560F0337E62819199860BA21B425B8BDE9A01FA6E514DD58AB6EDF7DAF1D1F1 DUP4 PUSH2 0x1721 PUSH2 0x3531 JUMP JUMPDEST PUSH1 0x40 DUP1 MLOAD SWAP3 DUP4 MSTORE PUSH1 0x1 PUSH1 0x1 PUSH1 0xA0 SHL SUB SWAP1 SWAP2 AND PUSH1 0x20 DUP4 ADD MSTORE DUP1 MLOAD SWAP2 DUP3 SWAP1 SUB ADD SWAP1 LOG1 POP SWAP1 SWAP7 SWAP6 POP POP POP POP POP POP JUMP JUMPDEST PUSH1 0x0 DUP1 PUSH1 0x0 PUSH1 0x60 PUSH1 0x0 DUP6 PUSH1 0x0 DUP2 GT DUP1 ISZERO PUSH2 0x1768 JUMPI POP PUSH1 0x7 DUP2 GT ISZERO JUMPDEST PUSH2 0x1771 JUMPI PUSH1 0x0 DUP1 REVERT JUMPDEST PUSH2 0x1779 PUSH2 0x4D9A JUMP JUMPDEST PUSH1 0x0 DUP9 DUP2 MSTORE PUSH1 0x9 PUSH1 0x20 SWAP1 DUP2 MSTORE PUSH1 0x40 SWAP2 DUP3 SWAP1 KECCAK256 DUP3 MLOAD PUSH1 0xA0 DUP2 ADD DUP5 MSTORE DUP2 SLOAD PUSH1 0xFF AND ISZERO ISZERO DUP2 MSTORE PUSH1 0x1 DUP1 DUP4 ADD SLOAD DUP3 DUP6 ADD MSTORE PUSH1 0x2 DUP1 DUP5 ADD SLOAD DUP4 DUP8 ADD MSTORE PUSH1 0x3 DUP5 ADD DUP1 SLOAD DUP8 MLOAD PUSH2 0x100 SWAP5 DUP3 AND ISZERO SWAP5 SWAP1 SWAP5 MUL PUSH1 0x0 NOT ADD AND SWAP2 SWAP1 SWAP2 DIV PUSH1 0x1F DUP2 ADD DUP7 SWAP1 DIV DUP7 MUL DUP4 ADD DUP7 ADD SWAP1 SWAP7 MSTORE DUP6 DUP3 MSTORE SWAP2 SWAP5 SWAP3 SWAP4 PUSH1 0x60 DUP7 ADD SWAP4 SWAP2 SWAP3 SWAP2 SWAP1 DUP4 ADD DUP3 DUP3 DUP1 ISZERO PUSH2 0x183D JUMPI DUP1 PUSH1 0x1F LT PUSH2 0x1812 JUMPI PUSH2 0x100 DUP1 DUP4 SLOAD DIV MUL DUP4 MSTORE SWAP2 PUSH1 0x20 ADD SWAP2 PUSH2 0x183D JUMP JUMPDEST DUP3 ADD SWAP2 SWAP1 PUSH1 0x0 MSTORE PUSH1 0x20 PUSH1 0x0 KECCAK256 SWAP1 JUMPDEST DUP2 SLOAD DUP2 MSTORE SWAP1 PUSH1 0x1 ADD SWAP1 PUSH1 0x20 ADD DUP1 DUP4 GT PUSH2 0x1820 JUMPI DUP3 SWAP1 SUB PUSH1 0x1F AND DUP3 ADD SWAP2 JUMPDEST POP POP POP SWAP2 DUP4 MSTORE POP POP PUSH1 0x4 SWAP2 SWAP1 SWAP2 ADD SLOAD PUSH1 0x20 SWAP2 DUP3 ADD MSTORE DUP2 MLOAD SWAP1 DUP3 ADD MLOAD PUSH1 0x40 DUP4 ADD MLOAD PUSH1 0x60 DUP5 ADD MLOAD PUSH1 0x80 SWAP1 SWAP5 ADD MLOAD SWAP3 SWAP13 SWAP2 SWAP12 POP SWAP10 POP SWAP2 SWAP8 POP SWAP6 POP SWAP4 POP POP POP POP JUMP JUMPDEST PUSH1 0x0 SWAP1 DUP2 MSTORE PUSH1 0x20 DUP2 SWAP1 MSTORE PUSH1 0x40 SWAP1 KECCAK256 PUSH1 0x2 ADD SLOAD SWAP1 JUMP JUMPDEST PUSH1 0x0 PUSH1 0x10 DUP4 DUP4 PUSH1 0x40 MLOAD DUP1 DUP4 DUP4 DUP1 DUP3 DUP5 CALLDATACOPY SWAP2 SWAP1 SWAP2 ADD SWAP5 DUP6 MSTORE POP POP PUSH1 0x40 MLOAD SWAP3 DUP4 SWAP1 SUB PUSH1 0x20 ADD SWAP1 SWAP3 KECCAK256 SLOAD PUSH1 0x1 PUSH1 0x1 PUSH1 0xA0 SHL SUB AND SWAP3 POP POP POP SWAP3 SWAP2 POP POP JUMP JUMPDEST PUSH1 0x60 PUSH2 0x18DA CALLER DUP5 PUSH1 0x0 DUP6 DUP6 PUSH2 0x3070 JUMP JUMPDEST POP POP POP JUMP JUMPDEST DUP1 PUSH1 0x7 DUP2 GT PUSH2 0x18ED JUMPI PUSH1 0x0 DUP1 REVERT JUMPDEST PUSH1 0x0 DUP2 DUP2 MSTORE PUSH1 0xC PUSH1 0x20 MSTORE PUSH1 0x40 SWAP1 KECCAK256 SLOAD PUSH1 0xFF AND PUSH2 0x1908 JUMPI PUSH1 0x0 DUP1 REVERT JUMPDEST PUSH1 0x0 DUP3 DUP2 MSTORE PUSH1 0xC PUSH1 0x20 MSTORE PUSH1 0x40 SWAP1 KECCAK256 SLOAD PUSH1 0xFF AND PUSH2 0x1923 JUMPI PUSH1 0x0 DUP1 REVERT JUMPDEST PUSH2 0x192B PUSH2 0x3531 JUMP JUMPDEST PUSH1 0x0 DUP4 DUP2 MSTORE PUSH1 0xB PUSH1 0x20 MSTORE PUSH1 0x40 SWAP1 KECCAK256 SLOAD PUSH1 0x1 PUSH1 0x1 PUSH1 0xA0 SHL SUB SWAP1 DUP2 AND SWAP2 AND EQ PUSH2 0x1951 JUMPI PUSH1 0x0 DUP1 REVERT JUMPDEST PUSH1 0x0 DUP3 DUP2 MSTORE PUSH1 0xB PUSH1 0x20 MSTORE PUSH1 0x40 SWAP1 KECCAK256 SLOAD PUSH2 0x1975 SWAP1 PUSH1 0x1 PUSH1 0x1 PUSH1 0xA0 SHL SUB AND DUP4 PUSH1 0x1 PUSH2 0x36AE JUMP JUMPDEST PUSH1 0x0 DUP3 DUP2 MSTORE PUSH1 0xC PUSH1 0x20 SWAP1 DUP2 MSTORE PUSH1 0x40 DUP1 DUP4 KECCAK256 PUSH1 0x5 DUP2 ADD SLOAD PUSH1 0x4 SWAP1 SWAP2 ADD SLOAD DUP1 DUP6 MSTORE PUSH1 0xD DUP5 MSTORE DUP3 DUP6 KECCAK256 DUP3 DUP7 MSTORE SWAP1 SWAP4 MSTORE SWAP3 KECCAK256 SLOAD PUSH2 0x19AF SWAP1 PUSH1 0x1 PUSH2 0x37E1 JUMP JUMPDEST PUSH1 0x0 DUP3 DUP2 MSTORE PUSH1 0xD PUSH1 0x20 SWAP1 DUP2 MSTORE PUSH1 0x40 DUP1 DUP4 KECCAK256 DUP7 DUP5 MSTORE DUP3 MSTORE DUP1 DUP4 KECCAK256 SWAP4 SWAP1 SWAP4 SSTORE DUP7 DUP3 MSTORE PUSH1 0xB DUP2 MSTORE DUP3 DUP3 KECCAK256 DUP1 SLOAD PUSH1 0x1 PUSH1 0x1 PUSH1 0xA0 SHL SUB NOT AND SWAP1 SSTORE PUSH1 0xC DUP2 MSTORE SWAP1 DUP3 SWAP1 KECCAK256 DUP1 SLOAD PUSH1 0xFF NOT AND SWAP1 SSTORE DUP2 MLOAD DUP7 DUP2 MSTORE SWAP2 MLOAD PUSH32 0x76126F33D318ABE88F8B82C5136B7E5A52091AB897679A40F612D7590ADFC997 SWAP3 DUP2 SWAP1 SUB SWAP1 SWAP2 ADD SWAP1 LOG1 POP POP POP POP JUMP JUMPDEST DUP2 MLOAD DUP4 MLOAD EQ PUSH2 0x1A6B JUMPI PUSH1 0x40 MLOAD PUSH3 0x461BCD PUSH1 0xE5 SHL DUP2 MSTORE PUSH1 0x4 ADD DUP1 DUP1 PUSH1 0x20 ADD DUP3 DUP2 SUB DUP3 MSTORE PUSH1 0x28 DUP2 MSTORE PUSH1 0x20 ADD DUP1 PUSH2 0x52E1 PUSH1 0x28 SWAP2 CODECOPY PUSH1 0x40 ADD SWAP2 POP POP PUSH1 0x40 MLOAD DUP1 SWAP2 SUB SWAP1 REVERT JUMPDEST PUSH1 0x1 PUSH1 0x1 PUSH1 0xA0 SHL SUB DUP5 AND PUSH2 0x1AB0 JUMPI PUSH1 0x40 MLOAD PUSH3 0x461BCD PUSH1 0xE5 SHL DUP2 MSTORE PUSH1 0x4 ADD DUP1 DUP1 PUSH1 0x20 ADD DUP3 DUP2 SUB DUP3 MSTORE PUSH1 0x25 DUP2 MSTORE PUSH1 0x20 ADD DUP1 PUSH2 0x51AA PUSH1 0x25 SWAP2 CODECOPY PUSH1 0x40 ADD SWAP2 POP POP PUSH1 0x40 MLOAD DUP1 SWAP2 SUB SWAP1 REVERT JUMPDEST PUSH2 0x1AB8 PUSH2 0x3531 JUMP JUMPDEST PUSH1 0x1 PUSH1 0x1 PUSH1 0xA0 SHL SUB AND DUP6 PUSH1 0x1 PUSH1 0x1 PUSH1 0xA0 SHL SUB AND EQ DUP1 PUSH2 0x1AE3 JUMPI POP PUSH2 0x1AE3 DUP6 PUSH2 0x1ADE PUSH2 0x3531 JUMP JUMPDEST PUSH2 0x3042 JUMP JUMPDEST PUSH2 0x1B1E JUMPI PUSH1 0x40 MLOAD PUSH3 0x461BCD PUSH1 0xE5 SHL DUP2 MSTORE PUSH1 0x4 ADD DUP1 DUP1 PUSH1 0x20 ADD DUP3 DUP2 SUB DUP3 MSTORE PUSH1 0x32 DUP2 MSTORE PUSH1 0x20 ADD DUP1 PUSH2 0x51CF PUSH1 0x32 SWAP2 CODECOPY PUSH1 0x40 ADD SWAP2 POP POP PUSH1 0x40 MLOAD DUP1 SWAP2 SUB SWAP1 REVERT JUMPDEST PUSH1 0x0 PUSH2 0x1B28 PUSH2 0x3531 JUMP JUMPDEST SWAP1 POP PUSH2 0x1B38 DUP2 DUP8 DUP8 DUP8 DUP8 DUP8 PUSH2 0x383E JUMP JUMPDEST PUSH1 0x0 JUMPDEST DUP5 MLOAD DUP2 LT ISZERO PUSH2 0x1C3E JUMPI PUSH1 0x0 DUP6 DUP3 DUP2 MLOAD DUP2 LT PUSH2 0x1B52 JUMPI INVALID JUMPDEST PUSH1 0x20 MUL PUSH1 0x20 ADD ADD MLOAD SWAP1 POP PUSH1 0x0 DUP6 DUP4 DUP2 MLOAD DUP2 LT PUSH2 0x1B6A JUMPI INVALID JUMPDEST PUSH1 0x20 MUL PUSH1 0x20 ADD ADD MLOAD SWAP1 POP PUSH2 0x1BD7 DUP2 PUSH1 0x40 MLOAD DUP1 PUSH1 0x60 ADD PUSH1 0x40 MSTORE DUP1 PUSH1 0x2A DUP2 MSTORE PUSH1 0x20 ADD PUSH2 0x5244 PUSH1 0x2A SWAP2 CODECOPY PUSH1 0x2 PUSH1 0x0 DUP7 DUP2 MSTORE PUSH1 0x20 ADD SWAP1 DUP2 MSTORE PUSH1 0x20 ADD PUSH1 0x0 KECCAK256 PUSH1 0x0 DUP14 PUSH1 0x1 PUSH1 0x1 PUSH1 0xA0 SHL SUB AND PUSH1 0x1 PUSH1 0x1 PUSH1 0xA0 SHL SUB AND DUP2 MSTORE PUSH1 0x20 ADD SWAP1 DUP2 MSTORE PUSH1 0x20 ADD PUSH1 0x0 KECCAK256 SLOAD PUSH2 0x3950 SWAP1 SWAP3 SWAP2 SWAP1 PUSH4 0xFFFFFFFF AND JUMP JUMPDEST PUSH1 0x0 DUP4 DUP2 MSTORE PUSH1 0x2 PUSH1 0x20 SWAP1 DUP2 MSTORE PUSH1 0x40 DUP1 DUP4 KECCAK256 PUSH1 0x1 PUSH1 0x1 PUSH1 0xA0 SHL SUB DUP15 DUP2 AND DUP6 MSTORE SWAP3 MSTORE DUP1 DUP4 KECCAK256 SWAP4 SWAP1 SWAP4 SSTORE DUP11 AND DUP2 MSTORE KECCAK256 SLOAD PUSH2 0x1C0E SWAP1 DUP3 PUSH2 0x34D7 JUMP JUMPDEST PUSH1 0x0 SWAP3 DUP4 MSTORE PUSH1 0x2 PUSH1 0x20 SWAP1 DUP2 MSTORE PUSH1 0x40 DUP1 DUP6 KECCAK256 PUSH1 0x1 PUSH1 0x1 PUSH1 0xA0 SHL SUB DUP13 AND DUP7 MSTORE SWAP1 SWAP2 MSTORE SWAP1 SWAP3 KECCAK256 SWAP2 SWAP1 SWAP2 SSTORE POP PUSH1 0x1 ADD PUSH2 0x1B3B JUMP JUMPDEST POP DUP5 PUSH1 0x1 PUSH1 0x1 PUSH1 0xA0 SHL SUB AND DUP7 PUSH1 0x1 PUSH1 0x1 PUSH1 0xA0 SHL SUB AND DUP3 PUSH1 0x1 PUSH1 0x1 PUSH1 0xA0 SHL SUB AND PUSH32 0x4A39DC06D4C0DBC64B70AF90FD698A233A518AA5D07E595D983B8C0526C8F7FB DUP8 DUP8 PUSH1 0x40 MLOAD DUP1 DUP1 PUSH1 0x20 ADD DUP1 PUSH1 0x20 ADD DUP4 DUP2 SUB DUP4 MSTORE DUP6 DUP2 DUP2 MLOAD DUP2 MSTORE PUSH1 0x20 ADD SWAP2 POP DUP1 MLOAD SWAP1 PUSH1 0x20 ADD SWAP1 PUSH1 0x20 MUL DUP1 DUP4 DUP4 PUSH1 0x0 JUMPDEST DUP4 DUP2 LT ISZERO PUSH2 0x1CC4 JUMPI DUP2 DUP2 ADD MLOAD DUP4 DUP3 ADD MSTORE PUSH1 0x20 ADD PUSH2 0x1CAC JUMP JUMPDEST POP POP POP POP SWAP1 POP ADD DUP4 DUP2 SUB DUP3 MSTORE DUP5 DUP2 DUP2 MLOAD DUP2 MSTORE PUSH1 0x20 ADD SWAP2 POP DUP1 MLOAD SWAP1 PUSH1 0x20 ADD SWAP1 PUSH1 0x20 MUL DUP1 DUP4 DUP4 PUSH1 0x0 JUMPDEST DUP4 DUP2 LT ISZERO PUSH2 0x1D03 JUMPI DUP2 DUP2 ADD MLOAD DUP4 DUP3 ADD MSTORE PUSH1 0x20 ADD PUSH2 0x1CEB JUMP JUMPDEST POP POP POP POP SWAP1 POP ADD SWAP5 POP POP POP POP POP PUSH1 0x40 MLOAD DUP1 SWAP2 SUB SWAP1 LOG4 PUSH2 0x1D26 DUP2 DUP8 DUP8 DUP8 DUP8 DUP8 PUSH2 0x39E7 JUMP JUMPDEST POP POP POP POP POP POP JUMP JUMPDEST PUSH1 0x0 PUSH1 0x60 PUSH1 0x0 DUP1 PUSH1 0x0 DUP6 PUSH1 0x7 DUP2 GT PUSH2 0x1D45 JUMPI PUSH1 0x0 DUP1 REVERT JUMPDEST PUSH1 0x0 DUP2 DUP2 MSTORE PUSH1 0xC PUSH1 0x20 MSTORE PUSH1 0x40 SWAP1 KECCAK256 SLOAD PUSH1 0xFF AND PUSH2 0x1D60 JUMPI PUSH1 0x0 DUP1 REVERT JUMPDEST PUSH1 0x0 DUP8 DUP2 MSTORE PUSH1 0xC PUSH1 0x20 SWAP1 DUP2 MSTORE PUSH1 0x40 SWAP2 DUP3 SWAP1 KECCAK256 DUP1 SLOAD PUSH1 0x3 DUP3 ADD SLOAD PUSH1 0x4 DUP4 ADD SLOAD PUSH1 0x5 DUP5 ADD SLOAD PUSH1 0x2 SWAP5 DUP6 ADD DUP1 SLOAD DUP9 MLOAD PUSH2 0x100 PUSH1 0x1 DUP4 AND ISZERO MUL PUSH1 0x0 NOT ADD SWAP1 SWAP2 AND SWAP7 SWAP1 SWAP7 DIV PUSH1 0x1F DUP2 ADD DUP9 SWAP1 DIV DUP9 MUL DUP8 ADD DUP9 ADD SWAP1 SWAP9 MSTORE DUP8 DUP7 MSTORE PUSH1 0xFF SWAP1 SWAP5 AND SWAP7 SWAP4 SWAP6 SWAP3 SWAP5 SWAP2 SWAP4 SWAP1 SWAP3 DUP7 SWAP2 SWAP1 DUP4 ADD DUP3 DUP3 DUP1 ISZERO PUSH2 0x1E15 JUMPI DUP1 PUSH1 0x1F LT PUSH2 0x1DEA JUMPI PUSH2 0x100 DUP1 DUP4 SLOAD DIV MUL DUP4 MSTORE SWAP2 PUSH1 0x20 ADD SWAP2 PUSH2 0x1E15 JUMP JUMPDEST DUP3 ADD SWAP2 SWAP1 PUSH1 0x0 MSTORE PUSH1 0x20 PUSH1 0x0 KECCAK256 SWAP1 JUMPDEST DUP2 SLOAD DUP2 MSTORE SWAP1 PUSH1 0x1 ADD SWAP1 PUSH1 0x20 ADD DUP1 DUP4 GT PUSH2 0x1DF8 JUMPI DUP3 SWAP1 SUB PUSH1 0x1F AND DUP3 ADD SWAP2 JUMPDEST POP POP POP POP POP SWAP4 POP SWAP6 POP SWAP6 POP SWAP6 POP SWAP6 POP SWAP6 POP POP SWAP2 SWAP4 SWAP6 SWAP1 SWAP3 SWAP5 POP JUMP JUMPDEST PUSH2 0x1E47 PUSH1 0x0 DUP1 MLOAD PUSH1 0x20 PUSH2 0x5201 DUP4 CODECOPY DUP2 MLOAD SWAP2 MSTORE PUSH2 0x3C5D JUMP JUMPDEST POP POP JUMP JUMPDEST PUSH1 0x0 DUP3 DUP2 MSTORE PUSH1 0x20 DUP2 SWAP1 MSTORE PUSH1 0x40 SWAP1 KECCAK256 PUSH1 0x2 ADD SLOAD PUSH2 0x1E6E SWAP1 PUSH2 0x1E69 PUSH2 0x3531 JUMP JUMPDEST PUSH2 0x2C25 JUMP JUMPDEST PUSH2 0x1EA9 JUMPI PUSH1 0x40 MLOAD PUSH3 0x461BCD PUSH1 0xE5 SHL DUP2 MSTORE PUSH1 0x4 ADD DUP1 DUP1 PUSH1 0x20 ADD DUP3 DUP2 SUB DUP3 MSTORE PUSH1 0x2F DUP2 MSTORE PUSH1 0x20 ADD DUP1 PUSH2 0x50D3 PUSH1 0x2F SWAP2 CODECOPY PUSH1 0x40 ADD SWAP2 POP POP PUSH1 0x40 MLOAD DUP1 SWAP2 SUB SWAP1 REVERT JUMPDEST PUSH2 0x1E47 DUP3 DUP3 PUSH2 0x3C70 JUMP JUMPDEST PUSH2 0x1EBB PUSH2 0x3531 JUMP JUMPDEST PUSH1 0x1 PUSH1 0x1 PUSH1 0xA0 SHL SUB AND DUP2 PUSH1 0x1 PUSH1 0x1 PUSH1 0xA0 SHL SUB AND EQ PUSH2 0x1F0A JUMPI PUSH1 0x40 MLOAD PUSH3 0x461BCD PUSH1 0xE5 SHL DUP2 MSTORE PUSH1 0x4 ADD DUP1 DUP1 PUSH1 0x20 ADD DUP3 DUP2 SUB DUP3 MSTORE PUSH1 0x2F DUP2 MSTORE PUSH1 0x20 ADD DUP1 PUSH2 0x532A PUSH1 0x2F SWAP2 CODECOPY PUSH1 0x40 ADD SWAP2 POP POP PUSH1 0x40 MLOAD DUP1 SWAP2 SUB SWAP1 REVERT JUMPDEST PUSH2 0x1E47 DUP3 DUP3 PUSH2 0x3CD9 JUMP JUMPDEST PUSH1 0x60 PUSH1 0x0 DUP1 PUSH1 0x0 DUP5 PUSH1 0x7 DUP2 GT PUSH2 0x1F29 JUMPI PUSH1 0x0 DUP1 REVERT JUMPDEST PUSH1 0x0 DUP2 DUP2 MSTORE PUSH1 0xC PUSH1 0x20 MSTORE PUSH1 0x40 SWAP1 KECCAK256 SLOAD PUSH1 0xFF AND PUSH2 0x1F44 JUMPI PUSH1 0x0 DUP1 REVERT JUMPDEST PUSH1 0x0 DUP7 DUP2 MSTORE PUSH1 0xC PUSH1 0x20 SWAP1 DUP2 MSTORE PUSH1 0x40 SWAP2 DUP3 SWAP1 KECCAK256 PUSH1 0x6 DUP2 ADD SLOAD PUSH1 0x7 DUP3 ADD SLOAD PUSH1 0x8 DUP4 ADD SLOAD PUSH1 0x1 SWAP4 DUP5 ADD DUP1 SLOAD DUP8 MLOAD PUSH1 0x2 PUSH2 0x100 SWAP8 DUP4 AND ISZERO SWAP8 SWAP1 SWAP8 MUL PUSH1 0x0 NOT ADD SWAP1 SWAP2 AND SWAP6 SWAP1 SWAP6 DIV PUSH1 0x1F DUP2 ADD DUP8 SWAP1 DIV DUP8 MUL DUP7 ADD DUP8 ADD SWAP1 SWAP8 MSTORE DUP7 DUP6 MSTORE SWAP6 SWAP3 SWAP5 SWAP2 SWAP4 PUSH1 0xFF SWAP1 SWAP2 AND SWAP3 SWAP1 SWAP2 DUP7 SWAP2 SWAP1 DUP4 ADD DUP3 DUP3 DUP1 ISZERO PUSH2 0x1FFA JUMPI DUP1 PUSH1 0x1F LT PUSH2 0x1FCF JUMPI PUSH2 0x100 DUP1 DUP4 SLOAD DIV MUL DUP4 MSTORE SWAP2 PUSH1 0x20 ADD SWAP2 PUSH2 0x1FFA JUMP JUMPDEST DUP3 ADD SWAP2 SWAP1 PUSH1 0x0 MSTORE PUSH1 0x20 PUSH1 0x0 KECCAK256 SWAP1 JUMPDEST DUP2 SLOAD DUP2 MSTORE SWAP1 PUSH1 0x1 ADD SWAP1 PUSH1 0x20 ADD DUP1 DUP4 GT PUSH2 0x1FDD JUMPI DUP3 SWAP1 SUB PUSH1 0x1F AND DUP3 ADD SWAP2 JUMPDEST POP POP POP POP POP SWAP4 POP SWAP5 POP SWAP5 POP SWAP5 POP SWAP5 POP POP SWAP2 SWAP4 POP SWAP2 SWAP4 JUMP JUMPDEST PUSH1 0x0 DUP1 PUSH1 0x0 DUP1 DUP5 PUSH1 0x7 DUP2 GT PUSH2 0x2025 JUMPI PUSH1 0x0 DUP1 REVERT JUMPDEST PUSH1 0x0 DUP2 DUP2 MSTORE PUSH1 0xC PUSH1 0x20 MSTORE PUSH1 0x40 SWAP1 KECCAK256 SLOAD PUSH1 0xFF AND PUSH2 0x2040 JUMPI PUSH1 0x0 DUP1 REVERT JUMPDEST POP POP POP PUSH1 0x0 SWAP3 DUP4 MSTORE POP POP PUSH1 0xC PUSH1 0x20 MSTORE PUSH1 0x40 SWAP1 KECCAK256 PUSH1 0x8 ADD SLOAD PUSH1 0xFF PUSH1 0x1 PUSH1 0x48 SHL DUP3 DIV DUP2 AND SWAP3 PUSH1 0x1 PUSH1 0x50 SHL DUP4 DIV DUP3 AND SWAP3 PUSH1 0x1 PUSH1 0x58 SHL DUP2 DIV DUP4 AND SWAP3 PUSH1 0x1 PUSH1 0x60 SHL SWAP1 SWAP2 DIV AND SWAP1 JUMP JUMPDEST PUSH1 0x0 DUP4 PUSH1 0x0 DUP2 GT DUP1 ISZERO PUSH2 0x2097 JUMPI POP PUSH1 0x7 DUP2 GT ISZERO JUMPDEST PUSH2 0x20A0 JUMPI PUSH1 0x0 DUP1 REVERT JUMPDEST PUSH1 0x1 PUSH1 0x6 SLOAD PUSH1 0xFF AND PUSH1 0x1 DUP2 GT ISZERO PUSH2 0x20B3 JUMPI INVALID JUMPDEST EQ PUSH2 0x20BD JUMPI PUSH1 0x0 DUP1 REVERT JUMPDEST PUSH1 0x0 DUP6 DUP2 MSTORE PUSH1 0x9 PUSH1 0x20 MSTORE PUSH1 0x40 SWAP1 KECCAK256 SLOAD PUSH1 0xFF AND PUSH2 0x20D8 JUMPI PUSH1 0x0 DUP1 REVERT JUMPDEST PUSH2 0x20E1 DUP6 PUSH2 0x3D42 JUMP JUMPDEST PUSH2 0x20EA JUMPI PUSH1 0x0 DUP1 REVERT JUMPDEST PUSH1 0x0 PUSH2 0x20F8 PUSH1 0xF SLOAD DUP8 PUSH2 0x323B JUMP JUMPDEST SWAP1 POP DUP1 CALLVALUE LT ISZERO PUSH2 0x2107 JUMPI PUSH1 0x0 DUP1 REVERT JUMPDEST PUSH1 0x0 PUSH1 0x7 PUSH2 0x2121 PUSH1 0x1 PUSH1 0xA SLOAD PUSH2 0x34D7 SWAP1 SWAP2 SWAP1 PUSH4 0xFFFFFFFF AND JUMP JUMPDEST ADD PUSH1 0x0 DUP2 DUP2 MSTORE PUSH1 0xB PUSH1 0x20 MSTORE PUSH1 0x40 SWAP1 KECCAK256 SLOAD SWAP1 SWAP2 POP PUSH1 0x1 PUSH1 0x1 PUSH1 0xA0 SHL SUB AND ISZERO PUSH2 0x2144 JUMPI INVALID JUMPDEST PUSH1 0x0 DUP2 DUP2 MSTORE PUSH1 0xC PUSH1 0x20 MSTORE PUSH1 0x40 SWAP1 KECCAK256 SLOAD PUSH1 0xFF AND ISZERO PUSH2 0x215D JUMPI INVALID JUMPDEST PUSH2 0x2165 PUSH2 0x4E49 JUMP JUMPDEST PUSH1 0x1 DUP2 MSTORE PUSH1 0x40 DUP1 MLOAD PUSH1 0x20 PUSH1 0x1F DUP10 ADD DUP2 SWAP1 DIV DUP2 MUL DUP3 ADD DUP2 ADD SWAP1 SWAP3 MSTORE DUP8 DUP2 MSTORE SWAP1 DUP9 SWAP1 DUP9 SWAP1 DUP2 SWAP1 DUP5 ADD DUP4 DUP3 DUP1 DUP3 DUP5 CALLDATACOPY PUSH1 0x0 DUP2 DUP5 ADD MSTORE PUSH1 0x1F NOT PUSH1 0x1F DUP3 ADD AND SWAP1 POP DUP1 DUP4 ADD SWAP3 POP POP POP POP POP POP POP DUP2 PUSH1 0x20 ADD DUP2 SWAP1 MSTORE POP PUSH1 0xF SLOAD DUP2 PUSH1 0x80 ADD DUP2 DUP2 MSTORE POP POP DUP8 DUP2 PUSH1 0xA0 ADD DUP2 DUP2 MSTORE POP POP PUSH1 0x9 PUSH1 0x0 DUP10 DUP2 MSTORE PUSH1 0x20 ADD SWAP1 DUP2 MSTORE PUSH1 0x20 ADD PUSH1 0x0 KECCAK256 PUSH1 0x1 ADD SLOAD DUP2 PUSH1 0xC0 ADD DUP2 DUP2 MSTORE POP POP PUSH1 0x9 PUSH1 0x0 DUP10 DUP2 MSTORE PUSH1 0x20 ADD SWAP1 DUP2 MSTORE PUSH1 0x20 ADD PUSH1 0x0 KECCAK256 PUSH1 0x2 ADD SLOAD DUP2 PUSH1 0xE0 ADD DUP2 DUP2 MSTORE POP POP PUSH1 0x9 PUSH1 0x0 DUP10 DUP2 MSTORE PUSH1 0x20 ADD SWAP1 DUP2 MSTORE PUSH1 0x20 ADD PUSH1 0x0 KECCAK256 PUSH1 0x3 ADD DUP1 SLOAD PUSH1 0x1 DUP2 PUSH1 0x1 AND ISZERO PUSH2 0x100 MUL SUB AND PUSH1 0x2 SWAP1 DIV DUP1 PUSH1 0x1F ADD PUSH1 0x20 DUP1 SWAP2 DIV MUL PUSH1 0x20 ADD PUSH1 0x40 MLOAD SWAP1 DUP2 ADD PUSH1 0x40 MSTORE DUP1 SWAP3 SWAP2 SWAP1 DUP2 DUP2 MSTORE PUSH1 0x20 ADD DUP3 DUP1 SLOAD PUSH1 0x1 DUP2 PUSH1 0x1 AND ISZERO PUSH2 0x100 MUL SUB AND PUSH1 0x2 SWAP1 DIV DUP1 ISZERO PUSH2 0x22B4 JUMPI DUP1 PUSH1 0x1F LT PUSH2 0x2289 JUMPI PUSH2 0x100 DUP1 DUP4 SLOAD DIV MUL DUP4 MSTORE SWAP2 PUSH1 0x20 ADD SWAP2 PUSH2 0x22B4 JUMP JUMPDEST DUP3 ADD SWAP2 SWAP1 PUSH1 0x0 MSTORE PUSH1 0x20 PUSH1 0x0 KECCAK256 SWAP1 JUMPDEST DUP2 SLOAD DUP2 MSTORE SWAP1 PUSH1 0x1 ADD SWAP1 PUSH1 0x20 ADD DUP1 DUP4 GT PUSH2 0x2297 JUMPI DUP3 SWAP1 SUB PUSH1 0x1F AND DUP3 ADD SWAP2 JUMPDEST POP POP POP POP POP PUSH1 0x40 DUP3 DUP2 ADD SWAP2 SWAP1 SWAP2 MSTORE PUSH1 0x0 DUP4 DUP2 MSTORE PUSH1 0xC PUSH1 0x20 SWAP1 DUP2 MSTORE SWAP2 SWAP1 KECCAK256 DUP3 MLOAD DUP2 SLOAD PUSH1 0xFF NOT AND SWAP1 ISZERO ISZERO OR DUP2 SSTORE DUP2 DUP4 ADD MLOAD DUP1 MLOAD DUP5 SWAP4 PUSH2 0x22F8 SWAP3 PUSH1 0x1 DUP6 ADD SWAP3 SWAP2 ADD SWAP1 PUSH2 0x4DCB JUMP JUMPDEST POP PUSH1 0x40 DUP3 ADD MLOAD DUP1 MLOAD PUSH2 0x2314 SWAP2 PUSH1 0x2 DUP5 ADD SWAP2 PUSH1 0x20 SWAP1 SWAP2 ADD SWAP1 PUSH2 0x4DCB JUMP JUMPDEST POP PUSH1 0x60 DUP3 ADD MLOAD DUP2 PUSH1 0x3 ADD SSTORE PUSH1 0x80 DUP3 ADD MLOAD DUP2 PUSH1 0x4 ADD SSTORE PUSH1 0xA0 DUP3 ADD MLOAD DUP2 PUSH1 0x5 ADD SSTORE PUSH1 0xC0 DUP3 ADD MLOAD DUP2 PUSH1 0x6 ADD SSTORE PUSH1 0xE0 DUP3 ADD MLOAD DUP2 PUSH1 0x7 ADD SSTORE PUSH2 0x100 DUP3 ADD MLOAD DUP2 PUSH1 0x8 ADD PUSH1 0x0 PUSH2 0x100 EXP DUP2 SLOAD DUP2 PUSH1 0xFF MUL NOT AND SWAP1 DUP4 PUSH1 0xFF AND MUL OR SWAP1 SSTORE POP PUSH2 0x120 DUP3 ADD MLOAD DUP2 PUSH1 0x8 ADD PUSH1 0x1 PUSH2 0x100 EXP DUP2 SLOAD DUP2 PUSH1 0xFF MUL NOT AND SWAP1 DUP4 PUSH1 0xFF AND MUL OR SWAP1 SSTORE POP PUSH2 0x140 DUP3 ADD MLOAD DUP2 PUSH1 0x8 ADD PUSH1 0x2 PUSH2 0x100 EXP DUP2 SLOAD DUP2 PUSH1 0xFF MUL NOT AND SWAP1 DUP4 PUSH1 0xFF AND MUL OR SWAP1 SSTORE POP PUSH2 0x160 DUP3 ADD MLOAD DUP2 PUSH1 0x8 ADD PUSH1 0x3 PUSH2 0x100 EXP DUP2 SLOAD DUP2 PUSH1 0xFF MUL NOT AND SWAP1 DUP4 PUSH1 0xFF AND MUL OR SWAP1 SSTORE POP PUSH2 0x180 DUP3 ADD MLOAD DUP2 PUSH1 0x8 ADD PUSH1 0x4 PUSH2 0x100 EXP DUP2 SLOAD DUP2 PUSH1 0xFF MUL NOT AND SWAP1 DUP4 PUSH1 0xFF AND MUL OR SWAP1 SSTORE POP PUSH2 0x1A0 DUP3 ADD MLOAD DUP2 PUSH1 0x8 ADD PUSH1 0x5 PUSH2 0x100 EXP DUP2 SLOAD DUP2 PUSH1 0xFF MUL NOT AND SWAP1 DUP4 PUSH1 0xFF AND MUL OR SWAP1 SSTORE POP PUSH2 0x1C0 DUP3 ADD MLOAD DUP2 PUSH1 0x8 ADD PUSH1 0x6 PUSH2 0x100 EXP DUP2 SLOAD DUP2 PUSH1 0xFF MUL NOT AND SWAP1 DUP4 PUSH1 0xFF AND MUL OR SWAP1 SSTORE POP PUSH2 0x1E0 DUP3 ADD MLOAD DUP2 PUSH1 0x8 ADD PUSH1 0x7 PUSH2 0x100 EXP DUP2 SLOAD DUP2 PUSH1 0xFF MUL NOT AND SWAP1 DUP4 PUSH1 0xFF AND MUL OR SWAP1 SSTORE POP PUSH2 0x200 DUP3 ADD MLOAD DUP2 PUSH1 0x8 ADD PUSH1 0x8 PUSH2 0x100 EXP DUP2 SLOAD DUP2 PUSH1 0xFF MUL NOT AND SWAP1 DUP4 PUSH1 0xFF AND MUL OR SWAP1 SSTORE POP PUSH2 0x220 DUP3 ADD MLOAD DUP2 PUSH1 0x8 ADD PUSH1 0x9 PUSH2 0x100 EXP DUP2 SLOAD DUP2 PUSH1 0xFF MUL NOT AND SWAP1 DUP4 PUSH1 0xFF AND MUL OR SWAP1 SSTORE POP PUSH2 0x240 DUP3 ADD MLOAD DUP2 PUSH1 0x8 ADD PUSH1 0xA PUSH2 0x100 EXP DUP2 SLOAD DUP2 PUSH1 0xFF MUL NOT AND SWAP1 DUP4 PUSH1 0xFF AND MUL OR SWAP1 SSTORE POP PUSH2 0x260 DUP3 ADD MLOAD DUP2 PUSH1 0x8 ADD PUSH1 0xB PUSH2 0x100 EXP DUP2 SLOAD DUP2 PUSH1 0xFF MUL NOT AND SWAP1 DUP4 PUSH1 0xFF AND MUL OR SWAP1 SSTORE POP PUSH2 0x280 DUP3 ADD MLOAD DUP2 PUSH1 0x8 ADD PUSH1 0xC PUSH2 0x100 EXP DUP2 SLOAD DUP2 PUSH1 0xFF MUL NOT AND SWAP1 DUP4 PUSH1 0xFF AND MUL OR SWAP1 SSTORE POP PUSH2 0x2A0 DUP3 ADD MLOAD DUP2 PUSH1 0x8 ADD PUSH1 0xD PUSH2 0x100 EXP DUP2 SLOAD DUP2 PUSH1 0xFF MUL NOT AND SWAP1 DUP4 PUSH1 0xFF AND MUL OR SWAP1 SSTORE POP PUSH2 0x2C0 DUP3 ADD MLOAD DUP2 PUSH1 0x8 ADD PUSH1 0xE PUSH2 0x100 EXP DUP2 SLOAD DUP2 PUSH1 0xFF MUL NOT AND SWAP1 DUP4 PUSH1 0xFF AND MUL OR SWAP1 SSTORE POP PUSH2 0x2E0 DUP3 ADD MLOAD DUP2 PUSH1 0x8 ADD PUSH1 0xF PUSH2 0x100 EXP DUP2 SLOAD DUP2 PUSH1 0xFF MUL NOT AND SWAP1 DUP4 PUSH1 0xFF AND MUL OR SWAP1 SSTORE POP PUSH2 0x300 DUP3 ADD MLOAD DUP2 PUSH1 0x8 ADD PUSH1 0x10 PUSH2 0x100 EXP DUP2 SLOAD DUP2 PUSH1 0xFF MUL NOT AND SWAP1 DUP4 PUSH1 0xFF AND MUL OR SWAP1 SSTORE POP PUSH2 0x320 DUP3 ADD MLOAD DUP2 PUSH1 0x8 ADD PUSH1 0x11 PUSH2 0x100 EXP DUP2 SLOAD DUP2 PUSH1 0xFF MUL NOT AND SWAP1 DUP4 PUSH1 0xFF AND MUL OR SWAP1 SSTORE POP PUSH2 0x340 DUP3 ADD MLOAD DUP2 PUSH1 0x8 ADD PUSH1 0x12 PUSH2 0x100 EXP DUP2 SLOAD DUP2 PUSH1 0xFF MUL NOT AND SWAP1 DUP4 PUSH1 0xFF AND MUL OR SWAP1 SSTORE POP SWAP1 POP POP PUSH1 0x0 PUSH2 0x25DB DUP4 PUSH2 0x3E17 JUMP JUMPDEST PUSH1 0x0 DUP2 DUP2 MSTORE PUSH1 0x14 PUSH1 0x20 MSTORE PUSH1 0x40 SWAP1 KECCAK256 DUP5 SWAP1 SSTORE SWAP1 POP PUSH2 0x25F7 DUP2 PUSH2 0x3ECF JUMP JUMPDEST PUSH2 0x2602 PUSH2 0x1639 PUSH2 0x3531 JUMP JUMPDEST PUSH2 0x262E PUSH2 0x260D PUSH2 0x3531 JUMP JUMPDEST PUSH1 0x0 PUSH9 0x1B1AE4D6E2EF500000 PUSH1 0x40 MLOAD DUP1 PUSH1 0x20 ADD PUSH1 0x40 MSTORE DUP1 PUSH1 0x0 DUP2 MSTORE POP PUSH2 0x3535 JUMP JUMPDEST PUSH2 0x2636 PUSH2 0x3531 JUMP JUMPDEST PUSH1 0x0 DUP5 DUP2 MSTORE PUSH1 0xB PUSH1 0x20 MSTORE PUSH1 0x40 SWAP1 KECCAK256 DUP1 SLOAD PUSH1 0x1 PUSH1 0x1 PUSH1 0xA0 SHL SUB NOT AND PUSH1 0x1 PUSH1 0x1 PUSH1 0xA0 SHL SUB SWAP3 SWAP1 SWAP3 AND SWAP2 SWAP1 SWAP2 OR SWAP1 SSTORE PUSH1 0xA SLOAD PUSH2 0x2670 SWAP1 PUSH1 0x1 PUSH2 0x34D7 JUMP JUMPDEST PUSH1 0xA SSTORE PUSH1 0xF SLOAD PUSH1 0x0 SWAP1 DUP2 MSTORE PUSH1 0xD PUSH1 0x20 SWAP1 DUP2 MSTORE PUSH1 0x40 DUP1 DUP4 KECCAK256 DUP13 DUP5 MSTORE SWAP1 SWAP2 MSTORE SWAP1 KECCAK256 SLOAD PUSH2 0x269B SWAP1 PUSH1 0x1 PUSH2 0x34D7 JUMP JUMPDEST PUSH1 0xF SLOAD PUSH1 0x0 SWAP1 DUP2 MSTORE PUSH1 0xD PUSH1 0x20 SWAP1 DUP2 MSTORE PUSH1 0x40 DUP1 DUP4 KECCAK256 DUP14 DUP5 MSTORE SWAP1 SWAP2 MSTORE DUP2 KECCAK256 SWAP2 SWAP1 SWAP2 SSTORE PUSH2 0x26D1 PUSH1 0xA PUSH2 0x26CB DUP8 PUSH1 0x8 PUSH2 0x45A6 JUMP JUMPDEST SWAP1 PUSH2 0x45FF JUMP JUMPDEST PUSH1 0x0 DUP12 DUP2 MSTORE PUSH1 0x8 PUSH1 0x20 MSTORE PUSH1 0x40 DUP1 DUP3 KECCAK256 SLOAD SWAP1 MLOAD SWAP3 SWAP4 POP PUSH1 0x1 PUSH1 0x1 PUSH1 0xA0 SHL SUB AND SWAP2 DUP3 SWAP1 DUP5 SWAP1 DUP4 DUP2 DUP2 DUP2 DUP6 DUP8 GAS CALL SWAP3 POP POP POP RETURNDATASIZE DUP1 PUSH1 0x0 DUP2 EQ PUSH2 0x272C JUMPI PUSH1 0x40 MLOAD SWAP2 POP PUSH1 0x1F NOT PUSH1 0x3F RETURNDATASIZE ADD AND DUP3 ADD PUSH1 0x40 MSTORE RETURNDATASIZE DUP3 MSTORE RETURNDATASIZE PUSH1 0x0 PUSH1 0x20 DUP5 ADD RETURNDATACOPY PUSH2 0x2731 JUMP JUMPDEST PUSH1 0x60 SWAP2 POP JUMPDEST POP POP SWAP1 POP DUP1 PUSH2 0x2778 JUMPI PUSH1 0x40 DUP1 MLOAD PUSH3 0x461BCD PUSH1 0xE5 SHL DUP2 MSTORE PUSH1 0x20 PUSH1 0x4 DUP3 ADD MSTORE PUSH1 0xE PUSH1 0x24 DUP3 ADD MSTORE PUSH14 0x14185E5B595B9D0819985A5B1959 PUSH1 0x92 SHL PUSH1 0x44 DUP3 ADD MSTORE SWAP1 MLOAD SWAP1 DUP2 SWAP1 SUB PUSH1 0x64 ADD SWAP1 REVERT JUMPDEST PUSH2 0x2781 DUP8 PUSH2 0x363D JUMP JUMPDEST PUSH32 0xF34A510082F5A02E39555458564800FC1FE73BFD8D3AA07CBF063FE662E7657E DUP7 PUSH2 0x27AB PUSH2 0x3531 JUMP JUMPDEST PUSH1 0x40 DUP1 MLOAD SWAP3 DUP4 MSTORE PUSH1 0x1 PUSH1 0x1 PUSH1 0xA0 SHL SUB SWAP1 SWAP2 AND PUSH1 0x20 DUP4 ADD MSTORE DUP1 MLOAD SWAP2 DUP3 SWAP1 SUB ADD SWAP1 LOG1 POP SWAP4 SWAP11 SWAP10 POP POP POP POP POP POP POP POP POP POP JUMP JUMPDEST PUSH1 0x0 DUP1 PUSH1 0x0 DUP1 DUP5 PUSH1 0x7 DUP2 GT PUSH2 0x27EF JUMPI PUSH1 0x0 DUP1 REVERT JUMPDEST PUSH1 0x0 DUP2 DUP2 MSTORE PUSH1 0xC PUSH1 0x20 MSTORE PUSH1 0x40 SWAP1 KECCAK256 SLOAD PUSH1 0xFF AND PUSH2 0x280A JUMPI PUSH1 0x0 DUP1 REVERT JUMPDEST POP POP POP PUSH1 0x0 SWAP3 DUP4 MSTORE POP POP PUSH1 0xC PUSH1 0x20 MSTORE PUSH1 0x40 SWAP1 KECCAK256 PUSH1 0x8 ADD SLOAD PUSH1 0xFF PUSH6 0x10000000000 DUP3 DIV DUP2 AND SWAP3 PUSH7 0x1000000000000 DUP4 DIV DUP3 AND SWAP3 PUSH1 0x1 PUSH1 0x38 SHL DUP2 DIV DUP4 AND SWAP3 PUSH1 0x1 PUSH1 0x40 SHL SWAP1 SWAP2 DIV AND SWAP1 JUMP JUMPDEST PUSH1 0x7 SLOAD JUMPDEST SWAP1 JUMP JUMPDEST PUSH1 0x60 DUP2 MLOAD DUP4 MLOAD EQ PUSH2 0x289B JUMPI PUSH1 0x40 MLOAD PUSH3 0x461BCD PUSH1 0xE5 SHL DUP2 MSTORE PUSH1 0x4 ADD DUP1 DUP1 PUSH1 0x20 ADD DUP3 DUP2 SUB DUP3 MSTORE PUSH1 0x29 DUP2 MSTORE PUSH1 0x20 ADD DUP1 PUSH2 0x52B8 PUSH1 0x29 SWAP2 CODECOPY PUSH1 0x40 ADD SWAP2 POP POP PUSH1 0x40 MLOAD DUP1 SWAP2 SUB SWAP1 REVERT JUMPDEST PUSH1 0x60 DUP4 MLOAD PUSH8 0xFFFFFFFFFFFFFFFF DUP2 GT DUP1 ISZERO PUSH2 0x28B5 JUMPI PUSH1 0x0 DUP1 REVERT JUMPDEST POP PUSH1 0x40 MLOAD SWAP1 DUP1 DUP3 MSTORE DUP1 PUSH1 0x20 MUL PUSH1 0x20 ADD DUP3 ADD PUSH1 0x40 MSTORE DUP1 ISZERO PUSH2 0x28DF JUMPI DUP2 PUSH1 0x20 ADD PUSH1 0x20 DUP3 MUL DUP1 CALLDATASIZE DUP4 CALLDATACOPY ADD SWAP1 POP JUMPDEST POP SWAP1 POP PUSH1 0x0 JUMPDEST DUP5 MLOAD DUP2 LT ISZERO PUSH2 0x293D JUMPI PUSH2 0x291E DUP6 DUP3 DUP2 MLOAD DUP2 LT PUSH2 0x28FD JUMPI INVALID JUMPDEST PUSH1 0x20 MUL PUSH1 0x20 ADD ADD MLOAD DUP6 DUP4 DUP2 MLOAD DUP2 LT PUSH2 0x2911 JUMPI INVALID JUMPDEST PUSH1 0x20 MUL PUSH1 0x20 ADD ADD MLOAD PUSH2 0x1338 JUMP JUMPDEST DUP3 DUP3 DUP2 MLOAD DUP2 LT PUSH2 0x292A JUMPI INVALID JUMPDEST PUSH1 0x20 SWAP1 DUP2 MUL SWAP2 SWAP1 SWAP2 ADD ADD MSTORE PUSH1 0x1 ADD PUSH2 0x28E5 JUMP JUMPDEST POP SWAP4 SWAP3 POP POP POP JUMP JUMPDEST PUSH1 0x0 DUP2 PUSH1 0x7 DUP2 GT PUSH2 0x2955 JUMPI PUSH1 0x0 DUP1 REVERT JUMPDEST PUSH1 0x0 DUP2 DUP2 MSTORE PUSH1 0xC PUSH1 0x20 MSTORE PUSH1 0x40 SWAP1 KECCAK256 SLOAD PUSH1 0xFF AND PUSH2 0x2970 JUMPI PUSH1 0x0 DUP1 REVERT JUMPDEST PUSH1 0x0 DUP4 DUP2 MSTORE PUSH1 0xB PUSH1 0x20 MSTORE PUSH1 0x40 SWAP1 KECCAK256 SLOAD PUSH1 0x1 PUSH1 0x1 PUSH1 0xA0 SHL SUB AND PUSH2 0x2991 JUMPI PUSH1 0x0 DUP1 REVERT JUMPDEST POP POP PUSH1 0x0 SWAP1 DUP2 MSTORE PUSH1 0xB PUSH1 0x20 MSTORE PUSH1 0x40 SWAP1 KECCAK256 SLOAD PUSH1 0x1 PUSH1 0x1 PUSH1 0xA0 SHL SUB AND SWAP1 JUMP JUMPDEST PUSH1 0x0 DUP2 PUSH1 0x0 DUP2 GT DUP1 ISZERO PUSH2 0x29C2 JUMPI POP PUSH1 0x7 DUP2 GT ISZERO JUMPDEST PUSH2 0x29CB JUMPI PUSH1 0x0 DUP1 REVERT JUMPDEST PUSH1 0xF SLOAD DUP5 GT ISZERO PUSH2 0x29DA JUMPI PUSH1 0x0 DUP1 REVERT JUMPDEST POP POP PUSH1 0x0 SWAP2 DUP3 MSTORE PUSH1 0xD PUSH1 0x20 SWAP1 DUP2 MSTORE PUSH1 0x40 DUP1 DUP5 KECCAK256 SWAP3 DUP5 MSTORE SWAP2 SWAP1 MSTORE SWAP1 KECCAK256 SLOAD SWAP1 JUMP JUMPDEST PUSH1 0x16 DUP2 DUP2 SLOAD DUP2 LT PUSH2 0x2A06 JUMPI INVALID JUMPDEST PUSH1 0x0 SWAP2 DUP3 MSTORE PUSH1 0x20 SWAP2 DUP3 SWAP1 KECCAK256 ADD DUP1 SLOAD PUSH1 0x40 DUP1 MLOAD PUSH1 0x1F PUSH1 0x2 PUSH1 0x0 NOT PUSH2 0x100 PUSH1 0x1 DUP8 AND ISZERO MUL ADD SWAP1 SWAP5 AND SWAP4 SWAP1 SWAP4 DIV SWAP3 DUP4 ADD DUP6 SWAP1 DIV DUP6 MUL DUP2 ADD DUP6 ADD SWAP1 SWAP2 MSTORE DUP2 DUP2 MSTORE SWAP4 POP SWAP1 SWAP2 DUP4 ADD DUP3 DUP3 DUP1 ISZERO PUSH2 0x2A97 JUMPI DUP1 PUSH1 0x1F LT PUSH2 0x2A6C JUMPI PUSH2 0x100 DUP1 DUP4 SLOAD DIV MUL DUP4 MSTORE SWAP2 PUSH1 0x20 ADD SWAP2 PUSH2 0x2A97 JUMP JUMPDEST DUP3 ADD SWAP2 SWAP1 PUSH1 0x0 MSTORE PUSH1 0x20 PUSH1 0x0 KECCAK256 SWAP1 JUMPDEST DUP2 SLOAD DUP2 MSTORE SWAP1 PUSH1 0x1 ADD SWAP1 PUSH1 0x20 ADD DUP1 DUP4 GT PUSH2 0x2A7A JUMPI DUP3 SWAP1 SUB PUSH1 0x1F AND DUP3 ADD SWAP2 JUMPDEST POP POP POP POP POP DUP2 JUMP JUMPDEST PUSH1 0x0 DUP2 PUSH1 0x0 DUP2 GT DUP1 ISZERO PUSH2 0x2AB3 JUMPI POP PUSH1 0x7 DUP2 GT ISZERO JUMPDEST PUSH2 0x2ABC JUMPI PUSH1 0x0 DUP1 REVERT JUMPDEST PUSH1 0x0 DUP4 DUP2 MSTORE PUSH1 0x8 PUSH1 0x20 MSTORE PUSH1 0x40 SWAP1 KECCAK256 SLOAD PUSH1 0x1 PUSH1 0x1 PUSH1 0xA0 SHL SUB AND PUSH2 0x2ADD JUMPI PUSH1 0x0 DUP1 REVERT JUMPDEST POP POP PUSH1 0x0 SWAP1 DUP2 MSTORE PUSH1 0x8 PUSH1 0x20 MSTORE PUSH1 0x40 SWAP1 KECCAK256 SLOAD PUSH1 0x1 PUSH1 0x1 PUSH1 0xA0 SHL SUB AND SWAP1 JUMP JUMPDEST PUSH1 0xE SLOAD DUP2 JUMP JUMPDEST PUSH1 0x0 DUP1 PUSH1 0x0 DUP1 PUSH1 0x0 DUP1 DUP7 PUSH1 0x7 DUP2 GT PUSH2 0x2B17 JUMPI PUSH1 0x0 DUP1 REVERT JUMPDEST PUSH1 0x0 DUP2 DUP2 MSTORE PUSH1 0xC PUSH1 0x20 MSTORE PUSH1 0x40 SWAP1 KECCAK256 SLOAD PUSH1 0xFF AND PUSH2 0x2B32 JUMPI PUSH1 0x0 DUP1 REVERT JUMPDEST POP POP POP PUSH1 0x0 SWAP5 DUP6 MSTORE POP POP PUSH1 0xC PUSH1 0x20 MSTORE POP POP PUSH1 0x40 SWAP1 KECCAK256 PUSH1 0x8 ADD SLOAD PUSH1 0xFF PUSH1 0x1 PUSH1 0x68 SHL DUP3 DIV DUP2 AND SWAP3 PUSH1 0x1 PUSH1 0x70 SHL DUP4 DIV DUP3 AND SWAP3 PUSH1 0x1 PUSH1 0x78 SHL DUP2 DIV DUP4 AND SWAP3 PUSH1 0x1 PUSH1 0x80 SHL DUP3 DIV DUP2 AND SWAP3 PUSH1 0x1 PUSH1 0x88 SHL DUP4 DIV DUP3 AND SWAP3 PUSH1 0x1 PUSH1 0x90 SHL SWAP1 DIV SWAP1 SWAP2 AND SWAP1 JUMP JUMPDEST PUSH1 0x0 DUP1 PUSH1 0x0 DUP1 DUP5 PUSH1 0x7 DUP2 GT PUSH2 0x2BA0 JUMPI PUSH1 0x0 DUP1 REVERT JUMPDEST PUSH1 0x0 DUP2 DUP2 MSTORE PUSH1 0xC PUSH1 0x20 MSTORE PUSH1 0x40 SWAP1 KECCAK256 SLOAD PUSH1 0xFF AND PUSH2 0x2BBB JUMPI PUSH1 0x0 DUP1 REVERT JUMPDEST POP POP POP PUSH1 0x0 SWAP3 DUP4 MSTORE POP POP PUSH1 0xC PUSH1 0x20 MSTORE PUSH1 0x40 SWAP1 KECCAK256 PUSH1 0x8 ADD SLOAD PUSH1 0xFF PUSH2 0x100 DUP3 DIV DUP2 AND SWAP3 PUSH3 0x10000 DUP4 DIV DUP3 AND SWAP3 PUSH4 0x1000000 DUP2 DIV DUP4 AND SWAP3 PUSH1 0x1 PUSH1 0x20 SHL SWAP1 SWAP2 DIV AND SWAP1 JUMP JUMPDEST PUSH1 0xF SLOAD DUP2 JUMP JUMPDEST PUSH1 0x0 DUP3 DUP2 MSTORE PUSH1 0x20 DUP2 SWAP1 MSTORE PUSH1 0x40 DUP2 KECCAK256 PUSH2 0x2C19 SWAP1 DUP4 PUSH2 0x4666 JUMP JUMPDEST SWAP4 SWAP3 POP POP POP JUMP JUMPDEST PUSH1 0x7 DUP2 JUMP JUMPDEST PUSH1 0x0 DUP3 DUP2 MSTORE PUSH1 0x20 DUP2 SWAP1 MSTORE PUSH1 0x40 DUP2 KECCAK256 PUSH2 0x2C19 SWAP1 DUP4 PUSH2 0x34C2 JUMP JUMPDEST CALLER PUSH1 0x1 PUSH1 0x1 PUSH1 0xA0 SHL SUB PUSH32 0x0 AND EQ PUSH2 0x2CBA JUMPI PUSH1 0x40 DUP1 MLOAD PUSH3 0x461BCD PUSH1 0xE5 SHL DUP2 MSTORE PUSH1 0x20 PUSH1 0x4 DUP3 ADD MSTORE PUSH1 0x1F PUSH1 0x24 DUP3 ADD MSTORE PUSH32 0x4F6E6C7920565246436F6F7264696E61746F722063616E2066756C66696C6C00 PUSH1 0x44 DUP3 ADD MSTORE SWAP1 MLOAD SWAP1 DUP2 SWAP1 SUB PUSH1 0x64 ADD SWAP1 REVERT JUMPDEST PUSH2 0x1E47 DUP3 DUP3 PUSH2 0x4672 JUMP JUMPDEST PUSH2 0x2CDB PUSH1 0x0 DUP1 MLOAD PUSH1 0x20 PUSH2 0x5201 DUP4 CODECOPY DUP2 MLOAD SWAP2 MSTORE PUSH2 0x3C5D JUMP JUMPDEST DUP1 PUSH1 0x10 DUP5 DUP5 PUSH1 0x40 MLOAD DUP1 DUP4 DUP4 DUP1 DUP3 DUP5 CALLDATACOPY SWAP2 SWAP1 SWAP2 ADD SWAP5 DUP6 MSTORE POP POP PUSH1 0x40 MLOAD SWAP3 DUP4 SWAP1 SUB PUSH1 0x20 ADD SWAP1 SWAP3 KECCAK256 DUP1 SLOAD PUSH1 0x1 PUSH1 0x1 PUSH1 0xA0 SHL SUB SWAP5 SWAP1 SWAP5 AND PUSH1 0x1 PUSH1 0x1 PUSH1 0xA0 SHL SUB NOT SWAP1 SWAP5 AND SWAP4 SWAP1 SWAP4 OR SWAP1 SWAP3 SSTORE POP POP PUSH1 0x11 DUP1 SLOAD PUSH1 0x1 DUP2 ADD DUP3 SSTORE PUSH1 0x0 SWAP2 SWAP1 SWAP2 MSTORE PUSH2 0x2D60 SWAP1 PUSH32 0x31ECC21A745E3968A04E9570E4425BC18FA8019C68028196B546D1669C200C68 ADD DUP5 DUP5 PUSH2 0x4F26 JUMP JUMPDEST POP POP POP POP JUMP JUMPDEST PUSH2 0x2D8F PUSH32 0xAE0C232B87105E0A8134F8B92146DCD1D99373D32394BE9D70F700F90B3A3DB3 PUSH2 0x3C5D JUMP JUMPDEST PUSH1 0x16 DUP1 SLOAD PUSH1 0x1 DUP2 ADD DUP3 SSTORE PUSH1 0x0 SWAP2 SWAP1 SWAP2 MSTORE PUSH2 0x18DA SWAP1 PUSH32 0xD833147D7DC355BA459FC788F669E58CFAF9DC25DDCD0702E87D69C7B5124289 ADD DUP4 DUP4 PUSH2 0x4F26 JUMP JUMPDEST PUSH1 0x0 DUP2 JUMP JUMPDEST DUP2 PUSH1 0x1 PUSH1 0x1 PUSH1 0xA0 SHL SUB AND PUSH2 0x2DE3 PUSH2 0x3531 JUMP JUMPDEST PUSH1 0x1 PUSH1 0x1 PUSH1 0xA0 SHL SUB AND EQ ISZERO PUSH2 0x2E29 JUMPI PUSH1 0x40 MLOAD PUSH3 0x461BCD PUSH1 0xE5 SHL DUP2 MSTORE PUSH1 0x4 ADD DUP1 DUP1 PUSH1 0x20 ADD DUP3 DUP2 SUB DUP3 MSTORE PUSH1 0x29 DUP2 MSTORE PUSH1 0x20 ADD DUP1 PUSH2 0x528F PUSH1 0x29 SWAP2 CODECOPY PUSH1 0x40 ADD SWAP2 POP POP PUSH1 0x40 MLOAD DUP1 SWAP2 SUB SWAP1 REVERT JUMPDEST DUP1 PUSH1 0x3 PUSH1 0x0 PUSH2 0x2E36 PUSH2 0x3531 JUMP JUMPDEST PUSH1 0x1 PUSH1 0x1 PUSH1 0xA0 SHL SUB SWAP1 DUP2 AND DUP3 MSTORE PUSH1 0x20 DUP1 DUP4 ADD SWAP4 SWAP1 SWAP4 MSTORE PUSH1 0x40 SWAP2 DUP3 ADD PUSH1 0x0 SWAP1 DUP2 KECCAK256 SWAP2 DUP8 AND DUP1 DUP3 MSTORE SWAP2 SWAP1 SWAP4 MSTORE SWAP2 KECCAK256 DUP1 SLOAD PUSH1 0xFF NOT AND SWAP3 ISZERO ISZERO SWAP3 SWAP1 SWAP3 OR SWAP1 SWAP2 SSTORE PUSH2 0x2E7A PUSH2 0x3531 JUMP JUMPDEST PUSH1 0x1 PUSH1 0x1 PUSH1 0xA0 SHL SUB AND PUSH32 0x17307EAB39AB6107E8899845AD3D59BD9653F200F220920489CA2B5937696C31 DUP4 PUSH1 0x40 MLOAD DUP1 DUP3 ISZERO ISZERO DUP2 MSTORE PUSH1 0x20 ADD SWAP2 POP POP PUSH1 0x40 MLOAD DUP1 SWAP2 SUB SWAP1 LOG3 POP POP JUMP JUMPDEST PUSH2 0x2ED7 PUSH1 0x0 DUP1 MLOAD PUSH1 0x20 PUSH2 0x5201 DUP4 CODECOPY DUP2 MLOAD SWAP2 MSTORE PUSH2 0x3C5D JUMP JUMPDEST PUSH1 0x0 PUSH1 0x7 SLOAD GT PUSH2 0x2EE6 JUMPI PUSH1 0x0 DUP1 REVERT JUMPDEST PUSH1 0x1 JUMPDEST PUSH1 0x7 DUP2 GT PUSH2 0x2F19 JUMPI PUSH1 0x0 DUP2 DUP2 MSTORE PUSH1 0x9 PUSH1 0x20 MSTORE PUSH1 0x40 SWAP1 KECCAK256 SLOAD PUSH1 0xFF AND ISZERO PUSH2 0x2F11 JUMPI PUSH2 0x2F11 DUP2 PUSH2 0x468C JUMP JUMPDEST PUSH1 0x1 ADD PUSH2 0x2EE9 JUMP JUMPDEST POP PUSH1 0xF SLOAD PUSH2 0x2F28 SWAP1 PUSH1 0x1 PUSH2 0x34D7 JUMP JUMPDEST PUSH1 0xF SSTORE PUSH1 0x40 MLOAD PUSH32 0x143B2C36FAC98F86168603D28D499BDE9CE0367D41E111CEF9F2ECBC9EEABFC SWAP1 PUSH1 0x0 SWAP1 LOG1 JUMP JUMPDEST PUSH1 0x60 PUSH2 0x2D60 DUP5 DUP5 PUSH1 0x0 DUP6 DUP6 PUSH2 0x3070 JUMP JUMPDEST PUSH1 0x7 SLOAD DUP2 JUMP JUMPDEST PUSH2 0x2F83 PUSH1 0x0 DUP1 MLOAD PUSH1 0x20 PUSH2 0x5201 DUP4 CODECOPY DUP2 MLOAD SWAP2 MSTORE PUSH2 0x3C5D JUMP JUMPDEST PUSH1 0x6 DUP1 SLOAD DUP3 SWAP2 SWAP1 PUSH1 0xFF NOT AND PUSH1 0x1 DUP4 DUP2 DUP2 GT ISZERO PUSH2 0x2F9B JUMPI INVALID JUMPDEST MUL OR SWAP1 SSTORE POP POP JUMP JUMPDEST PUSH1 0x0 DUP2 DUP2 MSTORE PUSH1 0x20 DUP2 SWAP1 MSTORE PUSH1 0x40 DUP2 KECCAK256 PUSH2 0x13A4 SWAP1 PUSH2 0x4728 JUMP JUMPDEST PUSH1 0xA SLOAD DUP2 JUMP JUMPDEST PUSH1 0x0 DUP3 DUP2 MSTORE PUSH1 0x20 DUP2 SWAP1 MSTORE PUSH1 0x40 SWAP1 KECCAK256 PUSH1 0x2 ADD SLOAD PUSH2 0x2FDE SWAP1 PUSH2 0x1E69 PUSH2 0x3531 JUMP JUMPDEST PUSH2 0x1F0A JUMPI PUSH1 0x40 MLOAD PUSH3 0x461BCD PUSH1 0xE5 SHL DUP2 MSTORE PUSH1 0x4 ADD DUP1 DUP1 PUSH1 0x20 ADD DUP3 DUP2 SUB DUP3 MSTORE PUSH1 0x30 DUP2 MSTORE PUSH1 0x20 ADD DUP1 PUSH2 0x517A PUSH1 0x30 SWAP2 CODECOPY PUSH1 0x40 ADD SWAP2 POP POP PUSH1 0x40 MLOAD DUP1 SWAP2 SUB SWAP1 REVERT JUMPDEST PUSH2 0x3030 PUSH1 0x0 DUP1 MLOAD PUSH1 0x20 PUSH2 0x5201 DUP4 CODECOPY DUP2 MLOAD SWAP2 MSTORE PUSH2 0x3C5D JUMP JUMPDEST PUSH1 0xE SSTORE JUMP JUMPDEST PUSH1 0x11 DUP2 DUP2 SLOAD DUP2 LT PUSH2 0x2A06 JUMPI INVALID JUMPDEST PUSH1 0x1 PUSH1 0x1 PUSH1 0xA0 SHL SUB SWAP2 DUP3 AND PUSH1 0x0 SWAP1 DUP2 MSTORE PUSH1 0x3 PUSH1 0x20 SWAP1 DUP2 MSTORE PUSH1 0x40 DUP1 DUP4 KECCAK256 SWAP4 SWAP1 SWAP5 AND DUP3 MSTORE SWAP2 SWAP1 SWAP2 MSTORE KECCAK256 SLOAD PUSH1 0xFF AND SWAP1 JUMP JUMPDEST PUSH1 0x1 PUSH1 0x1 PUSH1 0xA0 SHL SUB DUP5 AND PUSH2 0x30B5 JUMPI PUSH1 0x40 MLOAD PUSH3 0x461BCD PUSH1 0xE5 SHL DUP2 MSTORE PUSH1 0x4 ADD DUP1 DUP1 PUSH1 0x20 ADD DUP3 DUP2 SUB DUP3 MSTORE PUSH1 0x25 DUP2 MSTORE PUSH1 0x20 ADD DUP1 PUSH2 0x51AA PUSH1 0x25 SWAP2 CODECOPY PUSH1 0x40 ADD SWAP2 POP POP PUSH1 0x40 MLOAD DUP1 SWAP2 SUB SWAP1 REVERT JUMPDEST PUSH2 0x30BD PUSH2 0x3531 JUMP JUMPDEST PUSH1 0x1 PUSH1 0x1 PUSH1 0xA0 SHL SUB AND DUP6 PUSH1 0x1 PUSH1 0x1 PUSH1 0xA0 SHL SUB AND EQ DUP1 PUSH2 0x30E3 JUMPI POP PUSH2 0x30E3 DUP6 PUSH2 0x1ADE PUSH2 0x3531 JUMP JUMPDEST PUSH2 0x311E JUMPI PUSH1 0x40 MLOAD PUSH3 0x461BCD PUSH1 0xE5 SHL DUP2 MSTORE PUSH1 0x4 ADD DUP1 DUP1 PUSH1 0x20 ADD DUP3 DUP2 SUB DUP3 MSTORE PUSH1 0x29 DUP2 MSTORE PUSH1 0x20 ADD DUP1 PUSH2 0x5151 PUSH1 0x29 SWAP2 CODECOPY PUSH1 0x40 ADD SWAP2 POP POP PUSH1 0x40 MLOAD DUP1 SWAP2 SUB SWAP1 REVERT JUMPDEST PUSH1 0x0 PUSH2 0x3128 PUSH2 0x3531 JUMP JUMPDEST SWAP1 POP PUSH2 0x3148 DUP2 DUP8 DUP8 PUSH2 0x3139 DUP9 PUSH2 0x4733 JUMP JUMPDEST PUSH2 0x3142 DUP9 PUSH2 0x4733 JUMP JUMPDEST DUP8 PUSH2 0x383E JUMP JUMPDEST PUSH2 0x318F DUP4 PUSH1 0x40 MLOAD DUP1 PUSH1 0x60 ADD PUSH1 0x40 MSTORE DUP1 PUSH1 0x2A DUP2 MSTORE PUSH1 0x20 ADD PUSH2 0x5244 PUSH1 0x2A SWAP2 CODECOPY PUSH1 0x0 DUP8 DUP2 MSTORE PUSH1 0x2 PUSH1 0x20 SWAP1 DUP2 MSTORE PUSH1 0x40 DUP1 DUP4 KECCAK256 PUSH1 0x1 PUSH1 0x1 PUSH1 0xA0 SHL SUB DUP14 AND DUP5 MSTORE SWAP1 SWAP2 MSTORE SWAP1 KECCAK256 SLOAD SWAP2 SWAP1 PUSH2 0x3950 JUMP JUMPDEST PUSH1 0x0 DUP6 DUP2 MSTORE PUSH1 0x2 PUSH1 0x20 SWAP1 DUP2 MSTORE PUSH1 0x40 DUP1 DUP4 KECCAK256 PUSH1 0x1 PUSH1 0x1 PUSH1 0xA0 SHL SUB DUP12 DUP2 AND DUP6 MSTORE SWAP3 MSTORE DUP1 DUP4 KECCAK256 SWAP4 SWAP1 SWAP4 SSTORE DUP8 AND DUP2 MSTORE KECCAK256 SLOAD PUSH2 0x31C6 SWAP1 DUP5 PUSH2 0x34D7 JUMP JUMPDEST PUSH1 0x0 DUP6 DUP2 MSTORE PUSH1 0x2 PUSH1 0x20 SWAP1 DUP2 MSTORE PUSH1 0x40 DUP1 DUP4 KECCAK256 PUSH1 0x1 PUSH1 0x1 PUSH1 0xA0 SHL SUB DUP1 DUP12 AND DUP1 DUP7 MSTORE SWAP2 DUP5 MSTORE SWAP4 DUP3 SWAP1 KECCAK256 SWAP5 SWAP1 SWAP5 SSTORE DUP1 MLOAD DUP9 DUP2 MSTORE SWAP2 DUP3 ADD DUP8 SWAP1 MSTORE DUP1 MLOAD DUP11 DUP5 AND SWAP4 DUP7 AND SWAP3 PUSH32 0xC3D58168C5AE7397731D063D5BBF3D657854427343F4C083240F7AACAA2D0F62 SWAP3 SWAP1 DUP3 SWAP1 SUB ADD SWAP1 LOG4 PUSH2 0x1D26 DUP2 DUP8 DUP8 DUP8 DUP8 DUP8 PUSH2 0x4777 JUMP JUMPDEST PUSH1 0x0 DUP2 PUSH1 0x0 DUP2 GT DUP1 ISZERO PUSH2 0x324F JUMPI POP PUSH1 0x7 DUP2 GT ISZERO JUMPDEST PUSH2 0x3258 JUMPI PUSH1 0x0 DUP1 REVERT JUMPDEST PUSH1 0xF SLOAD DUP5 GT ISZERO PUSH2 0x3267 JUMPI PUSH1 0x0 DUP1 REVERT JUMPDEST PUSH1 0x0 DUP5 DUP2 MSTORE PUSH1 0xD PUSH1 0x20 SWAP1 DUP2 MSTORE PUSH1 0x40 DUP1 DUP4 KECCAK256 DUP7 DUP5 MSTORE SWAP1 SWAP2 MSTORE DUP2 KECCAK256 SLOAD PUSH2 0x328C SWAP1 PUSH1 0x1 PUSH2 0x34D7 JUMP JUMPDEST SWAP1 POP PUSH2 0x3297 DUP2 PUSH2 0x48E8 JUMP JUMPDEST SWAP6 SWAP5 POP POP POP POP POP JUMP JUMPDEST PUSH2 0x32B7 PUSH1 0x0 DUP1 MLOAD PUSH1 0x20 PUSH2 0x5201 DUP4 CODECOPY DUP2 MLOAD SWAP2 MSTORE PUSH2 0x3C5D JUMP JUMPDEST PUSH1 0x17 SLOAD PUSH1 0x40 DUP1 MLOAD DUP1 DUP3 ADD DUP3 MSTORE PUSH1 0xA DUP2 MSTORE PUSH10 0x50524943455F57415253 PUSH1 0xB0 SHL PUSH1 0x20 DUP1 DUP4 ADD SWAP2 DUP3 MSTORE SWAP3 MLOAD PUSH4 0x6CADCD79 PUSH1 0xE1 SHL DUP2 MSTORE PUSH1 0x4 DUP2 ADD SWAP4 DUP5 MSTORE DUP3 MLOAD PUSH1 0x24 DUP3 ADD MSTORE DUP3 MLOAD PUSH1 0x0 SWAP6 PUSH1 0x1 PUSH1 0x1 PUSH1 0xA0 SHL SUB AND SWAP5 PUSH4 0xD95B9AF2 SWAP5 SWAP4 SWAP1 SWAP3 DUP4 SWAP3 PUSH1 0x44 SWAP1 SWAP2 ADD SWAP2 SWAP1 DUP1 DUP4 DUP4 DUP12 JUMPDEST DUP4 DUP2 LT ISZERO PUSH2 0x3335 JUMPI DUP2 DUP2 ADD MLOAD DUP4 DUP3 ADD MSTORE PUSH1 0x20 ADD PUSH2 0x331D JUMP JUMPDEST POP POP POP POP SWAP1 POP SWAP1 DUP2 ADD SWAP1 PUSH1 0x1F AND DUP1 ISZERO PUSH2 0x3362 JUMPI DUP1 DUP3 SUB DUP1 MLOAD PUSH1 0x1 DUP4 PUSH1 0x20 SUB PUSH2 0x100 EXP SUB NOT AND DUP2 MSTORE PUSH1 0x20 ADD SWAP2 POP JUMPDEST POP SWAP3 POP POP POP PUSH1 0x20 PUSH1 0x40 MLOAD DUP1 DUP4 SUB DUP2 PUSH1 0x0 DUP8 DUP1 EXTCODESIZE ISZERO DUP1 ISZERO PUSH2 0x3381 JUMPI PUSH1 0x0 DUP1 REVERT JUMPDEST POP GAS CALL ISZERO DUP1 ISZERO PUSH2 0x3395 JUMPI RETURNDATASIZE PUSH1 0x0 DUP1 RETURNDATACOPY RETURNDATASIZE PUSH1 0x0 REVERT JUMPDEST POP POP POP POP PUSH1 0x40 MLOAD RETURNDATASIZE PUSH1 0x20 DUP2 LT ISZERO PUSH2 0x33AB JUMPI PUSH1 0x0 DUP1 REVERT JUMPDEST POP MLOAD PUSH1 0x40 DUP1 MLOAD PUSH4 0x72D7F665 PUSH1 0xE1 SHL DUP2 MSTORE ADDRESS PUSH1 0x4 DUP3 ADD MSTORE SWAP1 MLOAD SWAP2 SWAP3 POP DUP3 SWAP2 PUSH1 0x0 SWAP2 PUSH1 0x1 PUSH1 0x1 PUSH1 0xA0 SHL SUB DUP5 AND SWAP2 PUSH4 0xE5AFECCA SWAP2 PUSH1 0x24 DUP1 DUP3 ADD SWAP3 PUSH1 0x20 SWAP3 SWAP1 SWAP2 SWAP1 DUP3 SWAP1 SUB ADD DUP2 DUP8 DUP8 DUP1 EXTCODESIZE ISZERO DUP1 ISZERO PUSH2 0x33FD JUMPI PUSH1 0x0 DUP1 REVERT JUMPDEST POP GAS CALL ISZERO DUP1 ISZERO PUSH2 0x3411 JUMPI RETURNDATASIZE PUSH1 0x0 DUP1 RETURNDATACOPY RETURNDATASIZE PUSH1 0x0 REVERT JUMPDEST POP POP POP POP PUSH1 0x40 MLOAD RETURNDATASIZE PUSH1 0x20 DUP2 LT ISZERO PUSH2 0x3427 JUMPI PUSH1 0x0 DUP1 REVERT JUMPDEST POP MLOAD SWAP1 POP PUSH2 0x3455 PUSH32 0xAE0C232B87105E0A8134F8B92146DCD1D99373D32394BE9D70F700F90B3A3DB3 DUP3 PUSH2 0x1E4B JUMP JUMPDEST DUP1 PUSH1 0x1 PUSH1 0x1 PUSH1 0xA0 SHL SUB AND PUSH4 0xD65AB5F2 PUSH1 0x40 MLOAD DUP2 PUSH4 0xFFFFFFFF AND PUSH1 0xE0 SHL DUP2 MSTORE PUSH1 0x4 ADD PUSH1 0x0 PUSH1 0x40 MLOAD DUP1 DUP4 SUB DUP2 PUSH1 0x0 DUP8 DUP1 EXTCODESIZE ISZERO DUP1 ISZERO PUSH2 0x3490 JUMPI PUSH1 0x0 DUP1 REVERT JUMPDEST POP GAS CALL ISZERO DUP1 ISZERO PUSH2 0x34A4 JUMPI RETURNDATASIZE PUSH1 0x0 DUP1 RETURNDATACOPY RETURNDATASIZE PUSH1 0x0 REVERT JUMPDEST POP POP POP POP POP POP POP JUMP JUMPDEST PUSH1 0x0 PUSH2 0x2C19 DUP4 PUSH1 0x1 PUSH1 0x1 PUSH1 0xA0 SHL SUB DUP5 AND PUSH2 0x493A JUMP JUMPDEST PUSH1 0x0 PUSH2 0x2C19 DUP4 PUSH1 0x1 PUSH1 0x1 PUSH1 0xA0 SHL SUB DUP5 AND PUSH2 0x4984 JUMP JUMPDEST PUSH1 0x0 DUP3 DUP3 ADD DUP4 DUP2 LT ISZERO PUSH2 0x2C19 JUMPI PUSH1 0x40 DUP1 MLOAD PUSH3 0x461BCD PUSH1 0xE5 SHL DUP2 MSTORE PUSH1 0x20 PUSH1 0x4 DUP3 ADD MSTORE PUSH1 0x1B PUSH1 0x24 DUP3 ADD MSTORE PUSH32 0x536166654D6174683A206164646974696F6E206F766572666C6F770000000000 PUSH1 0x44 DUP3 ADD MSTORE SWAP1 MLOAD SWAP1 DUP2 SWAP1 SUB PUSH1 0x64 ADD SWAP1 REVERT JUMPDEST CALLER SWAP1 JUMP JUMPDEST PUSH1 0x1 PUSH1 0x1 PUSH1 0xA0 SHL SUB DUP5 AND PUSH2 0x357A JUMPI PUSH1 0x40 MLOAD PUSH3 0x461BCD PUSH1 0xE5 SHL DUP2 MSTORE PUSH1 0x4 ADD DUP1 DUP1 PUSH1 0x20 ADD DUP3 DUP2 SUB DUP3 MSTORE PUSH1 0x21 DUP2 MSTORE PUSH1 0x20 ADD DUP1 PUSH2 0x5309 PUSH1 0x21 SWAP2 CODECOPY PUSH1 0x40 ADD SWAP2 POP POP PUSH1 0x40 MLOAD DUP1 SWAP2 SUB SWAP1 REVERT JUMPDEST PUSH1 0x0 PUSH2 0x3584 PUSH2 0x3531 JUMP JUMPDEST SWAP1 POP PUSH2 0x3596 DUP2 PUSH1 0x0 DUP8 PUSH2 0x3139 DUP9 PUSH2 0x4733 JUMP JUMPDEST PUSH1 0x0 DUP5 DUP2 MSTORE PUSH1 0x2 PUSH1 0x20 SWAP1 DUP2 MSTORE PUSH1 0x40 DUP1 DUP4 KECCAK256 PUSH1 0x1 PUSH1 0x1 PUSH1 0xA0 SHL SUB DUP10 AND DUP5 MSTORE SWAP1 SWAP2 MSTORE SWAP1 KECCAK256 SLOAD PUSH2 0x35C3 SWAP1 DUP5 PUSH2 0x34D7 JUMP JUMPDEST PUSH1 0x0 DUP6 DUP2 MSTORE PUSH1 0x2 PUSH1 0x20 SWAP1 DUP2 MSTORE PUSH1 0x40 DUP1 DUP4 KECCAK256 PUSH1 0x1 PUSH1 0x1 PUSH1 0xA0 SHL SUB DUP1 DUP12 AND DUP1 DUP7 MSTORE SWAP2 DUP5 MSTORE DUP3 DUP6 KECCAK256 SWAP6 SWAP1 SWAP6 SSTORE DUP2 MLOAD DUP10 DUP2 MSTORE SWAP3 DUP4 ADD DUP9 SWAP1 MSTORE DUP2 MLOAD SWAP1 SWAP5 DUP7 AND SWAP3 PUSH32 0xC3D58168C5AE7397731D063D5BBF3D657854427343F4C083240F7AACAA2D0F62 SWAP3 SWAP1 DUP3 SWAP1 SUB ADD SWAP1 LOG4 PUSH2 0x3636 DUP2 PUSH1 0x0 DUP8 DUP8 DUP8 DUP8 PUSH2 0x4777 JUMP JUMPDEST POP POP POP POP POP JUMP JUMPDEST PUSH1 0x0 PUSH2 0x3649 CALLVALUE DUP4 PUSH2 0x37E1 JUMP JUMPDEST GT ISZERO PUSH2 0x36AB JUMPI PUSH1 0x0 CALLER PUSH2 0x365C CALLVALUE DUP5 PUSH2 0x37E1 JUMP JUMPDEST PUSH1 0x40 MLOAD PUSH1 0x0 DUP2 DUP2 DUP2 DUP6 DUP8 GAS CALL SWAP3 POP POP POP RETURNDATASIZE DUP1 PUSH1 0x0 DUP2 EQ PUSH2 0x3698 JUMPI PUSH1 0x40 MLOAD SWAP2 POP PUSH1 0x1F NOT PUSH1 0x3F RETURNDATASIZE ADD AND DUP3 ADD PUSH1 0x40 MSTORE RETURNDATASIZE DUP3 MSTORE RETURNDATASIZE PUSH1 0x0 PUSH1 0x20 DUP5 ADD RETURNDATACOPY PUSH2 0x369D JUMP JUMPDEST PUSH1 0x60 SWAP2 POP JUMPDEST POP POP SWAP1 POP DUP1 PUSH2 0x1E47 JUMPI PUSH1 0x0 DUP1 REVERT JUMPDEST POP JUMP JUMPDEST PUSH1 0x1 PUSH1 0x1 PUSH1 0xA0 SHL SUB DUP4 AND PUSH2 0x36F3 JUMPI PUSH1 0x40 MLOAD PUSH3 0x461BCD PUSH1 0xE5 SHL DUP2 MSTORE PUSH1 0x4 ADD DUP1 DUP1 PUSH1 0x20 ADD DUP3 DUP2 SUB DUP3 MSTORE PUSH1 0x23 DUP2 MSTORE PUSH1 0x20 ADD DUP1 PUSH2 0x5221 PUSH1 0x23 SWAP2 CODECOPY PUSH1 0x40 ADD SWAP2 POP POP PUSH1 0x40 MLOAD DUP1 SWAP2 SUB SWAP1 REVERT JUMPDEST PUSH1 0x0 PUSH2 0x36FD PUSH2 0x3531 JUMP JUMPDEST SWAP1 POP PUSH2 0x372D DUP2 DUP6 PUSH1 0x0 PUSH2 0x370F DUP8 PUSH2 0x4733 JUMP JUMPDEST PUSH2 0x3718 DUP8 PUSH2 0x4733 JUMP JUMPDEST PUSH1 0x40 MLOAD DUP1 PUSH1 0x20 ADD PUSH1 0x40 MSTORE DUP1 PUSH1 0x0 DUP2 MSTORE POP PUSH2 0x383E JUMP JUMPDEST PUSH2 0x3774 DUP3 PUSH1 0x40 MLOAD DUP1 PUSH1 0x60 ADD PUSH1 0x40 MSTORE DUP1 PUSH1 0x24 DUP2 MSTORE PUSH1 0x20 ADD PUSH2 0x512D PUSH1 0x24 SWAP2 CODECOPY PUSH1 0x0 DUP7 DUP2 MSTORE PUSH1 0x2 PUSH1 0x20 SWAP1 DUP2 MSTORE PUSH1 0x40 DUP1 DUP4 KECCAK256 PUSH1 0x1 PUSH1 0x1 PUSH1 0xA0 SHL SUB DUP12 AND DUP5 MSTORE SWAP1 SWAP2 MSTORE SWAP1 KECCAK256 SLOAD SWAP2 SWAP1 PUSH2 0x3950 JUMP JUMPDEST PUSH1 0x0 DUP5 DUP2 MSTORE PUSH1 0x2 PUSH1 0x20 SWAP1 DUP2 MSTORE PUSH1 0x40 DUP1 DUP4 KECCAK256 PUSH1 0x1 PUSH1 0x1 PUSH1 0xA0 SHL SUB DUP1 DUP11 AND DUP1 DUP7 MSTORE SWAP2 DUP5 MSTORE DUP3 DUP6 KECCAK256 SWAP6 SWAP1 SWAP6 SSTORE DUP2 MLOAD DUP9 DUP2 MSTORE SWAP3 DUP4 ADD DUP8 SWAP1 MSTORE DUP2 MLOAD SWAP4 SWAP5 SWAP1 SWAP4 SWAP1 DUP7 AND SWAP3 PUSH32 0xC3D58168C5AE7397731D063D5BBF3D657854427343F4C083240F7AACAA2D0F62 SWAP3 SWAP1 DUP3 SWAP1 SUB ADD SWAP1 LOG4 POP POP POP POP JUMP JUMPDEST PUSH1 0x0 DUP3 DUP3 GT ISZERO PUSH2 0x3838 JUMPI PUSH1 0x40 DUP1 MLOAD PUSH3 0x461BCD PUSH1 0xE5 SHL DUP2 MSTORE PUSH1 0x20 PUSH1 0x4 DUP3 ADD MSTORE PUSH1 0x1E PUSH1 0x24 DUP3 ADD MSTORE PUSH32 0x536166654D6174683A207375627472616374696F6E206F766572666C6F770000 PUSH1 0x44 DUP3 ADD MSTORE SWAP1 MLOAD SWAP1 DUP2 SWAP1 SUB PUSH1 0x64 ADD SWAP1 REVERT JUMPDEST POP SWAP1 SUB SWAP1 JUMP JUMPDEST PUSH2 0x384C DUP7 DUP7 DUP7 DUP7 DUP7 DUP7 PUSH2 0x1D26 JUMP JUMPDEST PUSH1 0x0 JUMPDEST DUP4 MLOAD DUP2 LT ISZERO PUSH2 0x34A4 JUMPI PUSH1 0x0 DUP5 DUP3 DUP2 MLOAD DUP2 LT PUSH2 0x3866 JUMPI INVALID JUMPDEST PUSH1 0x20 MUL PUSH1 0x20 ADD ADD MLOAD GT DUP1 ISZERO PUSH2 0x388F JUMPI POP PUSH1 0x7 DUP5 DUP3 DUP2 MLOAD DUP2 LT PUSH2 0x3884 JUMPI INVALID JUMPDEST PUSH1 0x20 MUL PUSH1 0x20 ADD ADD MLOAD GT ISZERO JUMPDEST ISZERO PUSH2 0x38E0 JUMPI DUP5 PUSH1 0x8 PUSH1 0x0 DUP7 DUP5 DUP2 MLOAD DUP2 LT PUSH2 0x38A5 JUMPI INVALID JUMPDEST PUSH1 0x20 MUL PUSH1 0x20 ADD ADD MLOAD DUP2 MSTORE PUSH1 0x20 ADD SWAP1 DUP2 MSTORE PUSH1 0x20 ADD PUSH1 0x0 KECCAK256 PUSH1 0x0 PUSH2 0x100 EXP DUP2 SLOAD DUP2 PUSH1 0x1 PUSH1 0x1 PUSH1 0xA0 SHL SUB MUL NOT AND SWAP1 DUP4 PUSH1 0x1 PUSH1 0x1 PUSH1 0xA0 SHL SUB AND MUL OR SWAP1 SSTORE POP JUMPDEST PUSH1 0x7 DUP5 DUP3 DUP2 MLOAD DUP2 LT PUSH2 0x38EE JUMPI INVALID JUMPDEST PUSH1 0x20 MUL PUSH1 0x20 ADD ADD MLOAD GT ISZERO PUSH2 0x3948 JUMPI DUP5 PUSH1 0xB PUSH1 0x0 DUP7 DUP5 DUP2 MLOAD DUP2 LT PUSH2 0x390D JUMPI INVALID JUMPDEST PUSH1 0x20 MUL PUSH1 0x20 ADD ADD MLOAD DUP2 MSTORE PUSH1 0x20 ADD SWAP1 DUP2 MSTORE PUSH1 0x20 ADD PUSH1 0x0 KECCAK256 PUSH1 0x0 PUSH2 0x100 EXP DUP2 SLOAD DUP2 PUSH1 0x1 PUSH1 0x1 PUSH1 0xA0 SHL SUB MUL NOT AND SWAP1 DUP4 PUSH1 0x1 PUSH1 0x1 PUSH1 0xA0 SHL SUB AND MUL OR SWAP1 SSTORE POP JUMPDEST PUSH1 0x1 ADD PUSH2 0x384F JUMP JUMPDEST PUSH1 0x0 DUP2 DUP5 DUP5 GT ISZERO PUSH2 0x39DF JUMPI PUSH1 0x40 MLOAD PUSH3 0x461BCD PUSH1 0xE5 SHL DUP2 MSTORE PUSH1 0x4 ADD DUP1 DUP1 PUSH1 0x20 ADD DUP3 DUP2 SUB DUP3 MSTORE DUP4 DUP2 DUP2 MLOAD DUP2 MSTORE PUSH1 0x20 ADD SWAP2 POP DUP1 MLOAD SWAP1 PUSH1 0x20 ADD SWAP1 DUP1 DUP4 DUP4 PUSH1 0x0 JUMPDEST DUP4 DUP2 LT ISZERO PUSH2 0x39A4 JUMPI DUP2 DUP2 ADD MLOAD DUP4 DUP3 ADD MSTORE PUSH1 0x20 ADD PUSH2 0x398C JUMP JUMPDEST POP POP POP POP SWAP1 POP SWAP1 DUP2 ADD SWAP1 PUSH1 0x1F AND DUP1 ISZERO PUSH2 0x39D1 JUMPI DUP1 DUP3 SUB DUP1 MLOAD PUSH1 0x1 DUP4 PUSH1 0x20 SUB PUSH2 0x100 EXP SUB NOT AND DUP2 MSTORE PUSH1 0x20 ADD SWAP2 POP JUMPDEST POP SWAP3 POP POP POP PUSH1 0x40 MLOAD DUP1 SWAP2 SUB SWAP1 REVERT JUMPDEST POP POP POP SWAP1 SUB SWAP1 JUMP JUMPDEST PUSH2 0x39F9 DUP5 PUSH1 0x1 PUSH1 0x1 PUSH1 0xA0 SHL SUB AND PUSH2 0x499C JUMP JUMPDEST ISZERO PUSH2 0x1D26 JUMPI DUP4 PUSH1 0x1 PUSH1 0x1 PUSH1 0xA0 SHL SUB AND PUSH4 0xBC197C81 DUP8 DUP8 DUP7 DUP7 DUP7 PUSH1 0x40 MLOAD DUP7 PUSH4 0xFFFFFFFF AND PUSH1 0xE0 SHL DUP2 MSTORE PUSH1 0x4 ADD DUP1 DUP7 PUSH1 0x1 PUSH1 0x1 PUSH1 0xA0 SHL SUB AND DUP2 MSTORE PUSH1 0x20 ADD DUP6 PUSH1 0x1 PUSH1 0x1 PUSH1 0xA0 SHL SUB AND DUP2 MSTORE PUSH1 0x20 ADD DUP1 PUSH1 0x20 ADD DUP1 PUSH1 0x20 ADD DUP1 PUSH1 0x20 ADD DUP5 DUP2 SUB DUP5 MSTORE DUP8 DUP2 DUP2 MLOAD DUP2 MSTORE PUSH1 0x20 ADD SWAP2 POP DUP1 MLOAD SWAP1 PUSH1 0x20 ADD SWAP1 PUSH1 0x20 MUL DUP1 DUP4 DUP4 PUSH1 0x0 JUMPDEST DUP4 DUP2 LT ISZERO PUSH2 0x3A87 JUMPI DUP2 DUP2 ADD MLOAD DUP4 DUP3 ADD MSTORE PUSH1 0x20 ADD PUSH2 0x3A6F JUMP JUMPDEST POP POP POP POP SWAP1 POP ADD DUP5 DUP2 SUB DUP4 MSTORE DUP7 DUP2 DUP2 MLOAD DUP2 MSTORE PUSH1 0x20 ADD SWAP2 POP DUP1 MLOAD SWAP1 PUSH1 0x20 ADD SWAP1 PUSH1 0x20 MUL DUP1 DUP4 DUP4 PUSH1 0x0 JUMPDEST DUP4 DUP2 LT ISZERO PUSH2 0x3AC6 JUMPI DUP2 DUP2 ADD MLOAD DUP4 DUP3 ADD MSTORE PUSH1 0x20 ADD PUSH2 0x3AAE JUMP JUMPDEST POP POP POP POP SWAP1 POP ADD DUP5 DUP2 SUB DUP3 MSTORE DUP6 DUP2 DUP2 MLOAD DUP2 MSTORE PUSH1 0x20 ADD SWAP2 POP DUP1 MLOAD SWAP1 PUSH1 0x20 ADD SWAP1 DUP1 DUP4 DUP4 PUSH1 0x0 JUMPDEST DUP4 DUP2 LT ISZERO PUSH2 0x3B02 JUMPI DUP2 DUP2 ADD MLOAD DUP4 DUP3 ADD MSTORE PUSH1 0x20 ADD PUSH2 0x3AEA JUMP JUMPDEST POP POP POP POP SWAP1 POP SWAP1 DUP2 ADD SWAP1 PUSH1 0x1F AND DUP1 ISZERO PUSH2 0x3B2F JUMPI DUP1 DUP3 SUB DUP1 MLOAD PUSH1 0x1 DUP4 PUSH1 0x20 SUB PUSH2 0x100 EXP SUB NOT AND DUP2 MSTORE PUSH1 0x20 ADD SWAP2 POP JUMPDEST POP SWAP9 POP POP POP POP POP POP POP POP POP PUSH1 0x20 PUSH1 0x40 MLOAD DUP1 DUP4 SUB DUP2 PUSH1 0x0 DUP8 DUP1 EXTCODESIZE ISZERO DUP1 ISZERO PUSH2 0x3B54 JUMPI PUSH1 0x0 DUP1 REVERT JUMPDEST POP GAS CALL SWAP3 POP POP POP DUP1 ISZERO PUSH2 0x3B79 JUMPI POP PUSH1 0x40 MLOAD RETURNDATASIZE PUSH1 0x20 DUP2 LT ISZERO PUSH2 0x3B74 JUMPI PUSH1 0x0 DUP1 REVERT JUMPDEST POP MLOAD PUSH1 0x1 JUMPDEST PUSH2 0x3C0E JUMPI PUSH2 0x3B85 PUSH2 0x4FAF JUMP JUMPDEST DUP1 PUSH2 0x3B90 JUMPI POP PUSH2 0x3BD7 JUMP JUMPDEST PUSH1 0x40 MLOAD PUSH3 0x461BCD PUSH1 0xE5 SHL DUP2 MSTORE PUSH1 0x20 PUSH1 0x4 DUP3 ADD DUP2 DUP2 MSTORE DUP4 MLOAD PUSH1 0x24 DUP5 ADD MSTORE DUP4 MLOAD DUP5 SWAP4 SWAP2 SWAP3 DUP4 SWAP3 PUSH1 0x44 ADD SWAP2 SWAP1 DUP6 ADD SWAP1 DUP1 DUP4 DUP4 PUSH1 0x0 DUP4 ISZERO PUSH2 0x39A4 JUMPI DUP2 DUP2 ADD MLOAD DUP4 DUP3 ADD MSTORE PUSH1 0x20 ADD PUSH2 0x398C JUMP JUMPDEST PUSH1 0x40 MLOAD PUSH3 0x461BCD PUSH1 0xE5 SHL DUP2 MSTORE PUSH1 0x4 ADD DUP1 DUP1 PUSH1 0x20 ADD DUP3 DUP2 SUB DUP3 MSTORE PUSH1 0x34 DUP2 MSTORE PUSH1 0x20 ADD DUP1 PUSH2 0x5055 PUSH1 0x34 SWAP2 CODECOPY PUSH1 0x40 ADD SWAP2 POP POP PUSH1 0x40 MLOAD DUP1 SWAP2 SUB SWAP1 REVERT JUMPDEST PUSH1 0x1 PUSH1 0x1 PUSH1 0xE0 SHL SUB NOT DUP2 AND PUSH4 0xBC197C81 PUSH1 0xE0 SHL EQ PUSH2 0x34A4 JUMPI PUSH1 0x40 MLOAD PUSH3 0x461BCD PUSH1 0xE5 SHL DUP2 MSTORE PUSH1 0x4 ADD DUP1 DUP1 PUSH1 0x20 ADD DUP3 DUP2 SUB DUP3 MSTORE PUSH1 0x28 DUP2 MSTORE PUSH1 0x20 ADD DUP1 PUSH2 0x50AB PUSH1 0x28 SWAP2 CODECOPY PUSH1 0x40 ADD SWAP2 POP POP PUSH1 0x40 MLOAD DUP1 SWAP2 SUB SWAP1 REVERT JUMPDEST PUSH2 0x3C67 DUP2 CALLER PUSH2 0x2C25 JUMP JUMPDEST PUSH2 0x36AB JUMPI PUSH1 0x0 DUP1 REVERT JUMPDEST PUSH1 0x0 DUP3 DUP2 MSTORE PUSH1 0x20 DUP2 SWAP1 MSTORE PUSH1 0x40 SWAP1 KECCAK256 PUSH2 0x3C88 SWAP1 DUP3 PUSH2 0x34AD JUMP JUMPDEST ISZERO PUSH2 0x1E47 JUMPI PUSH2 0x3C95 PUSH2 0x3531 JUMP JUMPDEST PUSH1 0x1 PUSH1 0x1 PUSH1 0xA0 SHL SUB AND DUP2 PUSH1 0x1 PUSH1 0x1 PUSH1 0xA0 SHL SUB AND DUP4 PUSH32 0x2F8788117E7EFF1D82E926EC794901D17C78024A50270940304540A733656F0D PUSH1 0x40 MLOAD PUSH1 0x40 MLOAD DUP1 SWAP2 SUB SWAP1 LOG4 POP POP JUMP JUMPDEST PUSH1 0x0 DUP3 DUP2 MSTORE PUSH1 0x20 DUP2 SWAP1 MSTORE PUSH1 0x40 SWAP1 KECCAK256 PUSH2 0x3CF1 SWAP1 DUP3 PUSH2 0x49A2 JUMP JUMPDEST ISZERO PUSH2 0x1E47 JUMPI PUSH2 0x3CFE PUSH2 0x3531 JUMP JUMPDEST PUSH1 0x1 PUSH1 0x1 PUSH1 0xA0 SHL SUB AND DUP2 PUSH1 0x1 PUSH1 0x1 PUSH1 0xA0 SHL SUB AND DUP4 PUSH32 0xF6391F5C32D9C69D2A47EA670B442974B53935D1EDC7FD64EB21E047A839171B PUSH1 0x40 MLOAD PUSH1 0x40 MLOAD DUP1 SWAP2 SUB SWAP1 LOG4 POP POP JUMP JUMPDEST PUSH1 0xF SLOAD PUSH1 0x0 SWAP1 DUP2 MSTORE PUSH1 0xD PUSH1 0x20 SWAP1 DUP2 MSTORE PUSH1 0x40 DUP1 DUP4 KECCAK256 DUP5 DUP5 MSTORE SWAP1 SWAP2 MSTORE DUP2 KECCAK256 SLOAD PUSH1 0x4 GT ISZERO PUSH2 0x3D6F JUMPI POP PUSH1 0x1 PUSH2 0x13C8 JUMP JUMPDEST PUSH1 0xF SLOAD PUSH1 0x0 SWAP1 DUP2 MSTORE PUSH1 0xD PUSH1 0x20 SWAP1 DUP2 MSTORE PUSH1 0x40 DUP1 DUP4 KECCAK256 DUP6 DUP5 MSTORE SWAP1 SWAP2 MSTORE SWAP1 KECCAK256 SLOAD PUSH1 0x1 JUMPDEST PUSH1 0x7 SLOAD DUP2 GT PUSH2 0x3DE4 JUMPI PUSH1 0xF SLOAD PUSH1 0x0 SWAP1 DUP2 MSTORE PUSH1 0xD PUSH1 0x20 SWAP1 DUP2 MSTORE PUSH1 0x40 DUP1 DUP4 KECCAK256 DUP5 DUP5 MSTORE SWAP1 SWAP2 MSTORE SWAP1 KECCAK256 SLOAD DUP3 GT ISZERO PUSH2 0x3DDC JUMPI PUSH1 0xF SLOAD PUSH1 0x0 SWAP1 DUP2 MSTORE PUSH1 0xD PUSH1 0x20 SWAP1 DUP2 MSTORE PUSH1 0x40 DUP1 DUP4 KECCAK256 DUP5 DUP5 MSTORE SWAP1 SWAP2 MSTORE SWAP1 KECCAK256 SLOAD SWAP2 POP JUMPDEST PUSH1 0x1 ADD PUSH2 0x3D8F JUMP JUMPDEST POP PUSH2 0x3DF0 DUP2 PUSH1 0x2 PUSH2 0x45A6 JUMP JUMPDEST PUSH1 0xF SLOAD PUSH1 0x0 SWAP1 DUP2 MSTORE PUSH1 0xD PUSH1 0x20 SWAP1 DUP2 MSTORE PUSH1 0x40 DUP1 DUP4 KECCAK256 DUP8 DUP5 MSTORE SWAP1 SWAP2 MSTORE SWAP1 KECCAK256 SLOAD GT ISZERO SWAP2 POP POP SWAP2 SWAP1 POP JUMP JUMPDEST PUSH1 0x0 PUSH1 0x13 SLOAD PUSH32 0x0 PUSH1 0x1 PUSH1 0x1 PUSH1 0xA0 SHL SUB AND PUSH4 0x70A08231 ADDRESS PUSH1 0x40 MLOAD DUP3 PUSH4 0xFFFFFFFF AND PUSH1 0xE0 SHL DUP2 MSTORE PUSH1 0x4 ADD DUP1 DUP3 PUSH1 0x1 PUSH1 0x1 PUSH1 0xA0 SHL SUB AND DUP2 MSTORE PUSH1 0x20 ADD SWAP2 POP POP PUSH1 0x20 PUSH1 0x40 MLOAD DUP1 DUP4 SUB DUP2 DUP7 DUP1 EXTCODESIZE ISZERO DUP1 ISZERO PUSH2 0x3E89 JUMPI PUSH1 0x0 DUP1 REVERT JUMPDEST POP GAS STATICCALL ISZERO DUP1 ISZERO PUSH2 0x3E9D JUMPI RETURNDATASIZE PUSH1 0x0 DUP1 RETURNDATACOPY RETURNDATASIZE PUSH1 0x0 REVERT JUMPDEST POP POP POP POP PUSH1 0x40 MLOAD RETURNDATASIZE PUSH1 0x20 DUP2 LT ISZERO PUSH2 0x3EB3 JUMPI PUSH1 0x0 DUP1 REVERT JUMPDEST POP MLOAD LT ISZERO PUSH2 0x3EC0 JUMPI PUSH1 0x0 DUP1 REVERT JUMPDEST PUSH2 0x13A4 PUSH1 0x12 SLOAD PUSH1 0x13 SLOAD DUP5 PUSH2 0x49B7 JUMP JUMPDEST PUSH1 0x0 DUP2 DUP2 MSTORE PUSH1 0x14 PUSH1 0x20 MSTORE PUSH1 0x40 SWAP1 KECCAK256 SLOAD PUSH1 0x7 DUP2 GT PUSH2 0x3EEB JUMPI PUSH1 0x0 DUP1 REVERT JUMPDEST PUSH1 0x0 DUP2 DUP2 MSTORE PUSH1 0xC PUSH1 0x20 MSTORE PUSH1 0x40 SWAP1 KECCAK256 SLOAD PUSH1 0xFF AND PUSH2 0x3F06 JUMPI PUSH1 0x0 DUP1 REVERT JUMPDEST PUSH1 0x0 DUP3 DUP2 MSTORE PUSH1 0x14 PUSH1 0x20 SWAP1 DUP2 MSTORE PUSH1 0x40 DUP1 DUP4 KECCAK256 SLOAD PUSH1 0x15 DUP4 MSTORE DUP2 DUP5 KECCAK256 SLOAD DUP2 DUP6 MSTORE PUSH1 0xC SWAP1 SWAP4 MSTORE SWAP1 DUP4 KECCAK256 PUSH1 0x8 ADD DUP1 SLOAD PUSH10 0xFF000000000000000000 NOT AND PUSH1 0x1 PUSH1 0x48 SHL OR SWAP1 SSTORE SWAP2 PUSH2 0x3F51 PUSH1 0x2 DUP4 PUSH2 0x4B61 JUMP JUMPDEST PUSH1 0x0 DUP6 DUP2 MSTORE PUSH1 0xC PUSH1 0x20 MSTORE PUSH1 0x40 SWAP1 KECCAK256 PUSH1 0x8 ADD DUP1 SLOAD PUSH1 0xFF NOT AND PUSH1 0xFF SWAP4 SWAP1 SWAP4 AND SWAP3 SWAP1 SWAP3 OR SWAP1 SWAP2 SSTORE SWAP1 POP PUSH2 0x3F82 PUSH1 0x4 DUP3 PUSH2 0x4B61 JUMP JUMPDEST PUSH1 0x0 DUP6 DUP2 MSTORE PUSH1 0xC PUSH1 0x20 MSTORE PUSH1 0x40 SWAP1 KECCAK256 PUSH1 0x8 ADD DUP1 SLOAD PUSH1 0xFF SWAP1 SWAP4 AND PUSH2 0x100 MUL PUSH2 0xFF00 NOT SWAP1 SWAP4 AND SWAP3 SWAP1 SWAP3 OR SWAP1 SWAP2 SSTORE SWAP1 POP PUSH2 0x3FB9 PUSH1 0x4 DUP3 PUSH2 0x4B61 JUMP JUMPDEST PUSH1 0x0 DUP6 DUP2 MSTORE PUSH1 0xC PUSH1 0x20 MSTORE PUSH1 0x40 SWAP1 KECCAK256 PUSH1 0x8 ADD DUP1 SLOAD PUSH1 0xFF SWAP1 SWAP4 AND PUSH3 0x10000 MUL PUSH3 0xFF0000 NOT SWAP1 SWAP4 AND SWAP3 SWAP1 SWAP3 OR SWAP1 SWAP2 SSTORE SWAP1 POP PUSH2 0x3FF2 PUSH1 0x4 DUP3 PUSH2 0x4B61 JUMP JUMPDEST PUSH1 0x0 DUP6 DUP2 MSTORE PUSH1 0xC PUSH1 0x20 MSTORE PUSH1 0x40 SWAP1 KECCAK256 PUSH1 0x8 ADD DUP1 SLOAD PUSH1 0xFF SWAP1 SWAP4 AND PUSH4 0x1000000 MUL PUSH4 0xFF000000 NOT SWAP1 SWAP4 AND SWAP3 SWAP1 SWAP3 OR SWAP1 SWAP2 SSTORE SWAP1 POP PUSH2 0x402D PUSH1 0x4 DUP3 PUSH2 0x4B61 JUMP JUMPDEST PUSH1 0x0 DUP6 DUP2 MSTORE PUSH1 0xC PUSH1 0x20 MSTORE PUSH1 0x40 SWAP1 KECCAK256 PUSH1 0x8 ADD DUP1 SLOAD PUSH1 0xFF SWAP1 SWAP4 AND PUSH1 0x1 PUSH1 0x20 SHL MUL PUSH5 0xFF00000000 NOT SWAP1 SWAP4 AND SWAP3 SWAP1 SWAP3 OR SWAP1 SWAP2 SSTORE SWAP1 POP PUSH2 0x4069 PUSH1 0x9 DUP3 PUSH2 0x4B61 JUMP JUMPDEST PUSH1 0x0 DUP6 DUP2 MSTORE PUSH1 0xC PUSH1 0x20 MSTORE PUSH1 0x40 SWAP1 KECCAK256 PUSH1 0x8 ADD DUP1 SLOAD PUSH1 0xFF SWAP1 SWAP4 AND PUSH6 0x10000000000 MUL PUSH6 0xFF0000000000 NOT SWAP1 SWAP4 AND SWAP3 SWAP1 SWAP3 OR SWAP1 SWAP2 SSTORE SWAP1 POP PUSH2 0x40A8 PUSH1 0x1E DUP3 PUSH2 0x4B61 JUMP JUMPDEST PUSH1 0x0 DUP6 DUP2 MSTORE PUSH1 0xC PUSH1 0x20 MSTORE PUSH1 0x40 SWAP1 KECCAK256 PUSH1 0x8 ADD DUP1 SLOAD PUSH1 0xFF SWAP1 SWAP4 AND PUSH7 0x1000000000000 MUL PUSH7 0xFF000000000000 NOT SWAP1 SWAP4 AND SWAP3 SWAP1 SWAP3 OR SWAP1 SWAP2 SSTORE SWAP1 POP PUSH2 0x40E9 PUSH1 0x18 DUP3 PUSH2 0x4B61 JUMP JUMPDEST PUSH1 0x0 DUP6 DUP2 MSTORE PUSH1 0xC PUSH1 0x20 MSTORE PUSH1 0x40 SWAP1 KECCAK256 PUSH1 0x8 ADD DUP1 SLOAD PUSH1 0xFF SWAP1 SWAP4 AND PUSH1 0x1 PUSH1 0x38 SHL MUL PUSH8 0xFF00000000000000 NOT SWAP1 SWAP4 AND SWAP3 SWAP1 SWAP3 OR SWAP1 SWAP2 SSTORE SWAP1 POP PUSH2 0x4128 PUSH1 0x7 DUP3 PUSH2 0x4B61 JUMP JUMPDEST PUSH1 0x0 DUP6 DUP2 MSTORE PUSH1 0xC PUSH1 0x20 MSTORE PUSH1 0x40 SWAP1 KECCAK256 PUSH1 0x8 ADD DUP1 SLOAD PUSH1 0xFF SWAP1 SWAP4 AND PUSH1 0x1 PUSH1 0x40 SHL MUL PUSH9 0xFF0000000000000000 NOT SWAP1 SWAP4 AND SWAP3 SWAP1 SWAP3 OR SWAP1 SWAP2 SSTORE SWAP1 POP PUSH2 0x4168 PUSH1 0x15 DUP3 PUSH2 0x4B61 JUMP JUMPDEST PUSH1 0x0 DUP6 DUP2 MSTORE PUSH1 0xC PUSH1 0x20 MSTORE PUSH1 0x40 SWAP1 KECCAK256 PUSH1 0x8 ADD DUP1 SLOAD PUSH1 0xFF PUSH1 0x50 SHL NOT AND PUSH1 0x1 PUSH1 0x50 SHL PUSH1 0xFF SWAP5 DUP6 AND DUP2 MUL SWAP2 SWAP1 SWAP2 OR SWAP2 DUP3 SWAP1 SSTORE SWAP2 SWAP4 POP PUSH2 0x41A8 SWAP3 SWAP2 SWAP1 DIV AND PUSH1 0x9 PUSH2 0x34D7 JUMP JUMPDEST PUSH1 0x0 DUP5 DUP2 MSTORE PUSH1 0xC PUSH1 0x20 MSTORE PUSH1 0x40 SWAP1 KECCAK256 PUSH1 0x8 ADD DUP1 SLOAD PUSH1 0xFF SWAP3 SWAP1 SWAP3 AND PUSH1 0x1 PUSH1 0x50 SHL MUL PUSH1 0xFF PUSH1 0x50 SHL NOT SWAP1 SWAP3 AND SWAP2 SWAP1 SWAP2 OR SWAP1 SSTORE PUSH2 0x41E1 PUSH1 0x15 DUP3 PUSH2 0x4B61 JUMP JUMPDEST PUSH1 0x0 DUP6 DUP2 MSTORE PUSH1 0xC PUSH1 0x20 MSTORE PUSH1 0x40 SWAP1 KECCAK256 PUSH1 0x8 ADD DUP1 SLOAD PUSH1 0xFF PUSH1 0x58 SHL NOT AND PUSH1 0x1 PUSH1 0x58 SHL PUSH1 0xFF SWAP5 DUP6 AND DUP2 MUL SWAP2 SWAP1 SWAP2 OR SWAP2 DUP3 SWAP1 SSTORE SWAP2 SWAP4 POP PUSH2 0x4221 SWAP3 SWAP2 SWAP1 DIV AND PUSH1 0x9 PUSH2 0x34D7 JUMP JUMPDEST PUSH1 0x0 DUP5 DUP2 MSTORE PUSH1 0xC PUSH1 0x20 MSTORE PUSH1 0x40 SWAP1 KECCAK256 PUSH1 0x8 ADD DUP1 SLOAD PUSH1 0xFF SWAP3 SWAP1 SWAP3 AND PUSH1 0x1 PUSH1 0x58 SHL MUL PUSH1 0xFF PUSH1 0x58 SHL NOT SWAP1 SWAP3 AND SWAP2 SWAP1 SWAP2 OR SWAP1 SSTORE PUSH2 0x425A PUSH1 0x1F DUP3 PUSH2 0x4B61 JUMP JUMPDEST PUSH1 0x0 DUP6 DUP2 MSTORE PUSH1 0xC PUSH1 0x20 MSTORE PUSH1 0x40 SWAP1 KECCAK256 PUSH1 0x8 ADD DUP1 SLOAD PUSH1 0xFF PUSH1 0x60 SHL NOT AND PUSH1 0x1 PUSH1 0x60 SHL PUSH1 0xFF SWAP5 DUP6 AND DUP2 MUL SWAP2 SWAP1 SWAP2 OR SWAP2 DUP3 SWAP1 SSTORE SWAP2 SWAP4 POP PUSH2 0x429A SWAP3 SWAP2 SWAP1 DIV AND PUSH1 0x9 PUSH2 0x34D7 JUMP JUMPDEST PUSH1 0x0 DUP5 DUP2 MSTORE PUSH1 0xC PUSH1 0x20 MSTORE PUSH1 0x40 SWAP1 KECCAK256 PUSH1 0x8 ADD DUP1 SLOAD PUSH1 0xFF SWAP3 SWAP1 SWAP3 AND PUSH1 0x1 PUSH1 0x60 SHL MUL PUSH1 0xFF PUSH1 0x60 SHL NOT SWAP1 SWAP3 AND SWAP2 SWAP1 SWAP2 OR SWAP1 SSTORE PUSH2 0x42D3 PUSH1 0x10 DUP3 PUSH2 0x4B61 JUMP JUMPDEST PUSH1 0x0 DUP6 DUP2 MSTORE PUSH1 0xC PUSH1 0x20 MSTORE PUSH1 0x40 SWAP1 KECCAK256 PUSH1 0x8 ADD DUP1 SLOAD PUSH1 0xFF PUSH1 0x68 SHL NOT AND PUSH1 0x1 PUSH1 0x68 SHL PUSH1 0xFF SWAP5 DUP6 AND DUP2 MUL SWAP2 SWAP1 SWAP2 OR SWAP2 DUP3 SWAP1 SSTORE SWAP2 SWAP4 POP PUSH2 0x4313 SWAP3 SWAP2 SWAP1 DIV AND PUSH1 0x2 PUSH2 0x34D7 JUMP JUMPDEST PUSH1 0x0 DUP5 DUP2 MSTORE PUSH1 0xC PUSH1 0x20 MSTORE PUSH1 0x40 SWAP1 KECCAK256 PUSH1 0x8 ADD DUP1 SLOAD PUSH1 0xFF SWAP3 SWAP1 SWAP3 AND PUSH1 0x1 PUSH1 0x68 SHL MUL PUSH1 0xFF PUSH1 0x68 SHL NOT SWAP1 SWAP3 AND SWAP2 SWAP1 SWAP2 OR SWAP1 SSTORE PUSH2 0x434C PUSH1 0x10 DUP3 PUSH2 0x4B61 JUMP JUMPDEST PUSH1 0x0 DUP6 DUP2 MSTORE PUSH1 0xC PUSH1 0x20 MSTORE PUSH1 0x40 SWAP1 KECCAK256 PUSH1 0x8 ADD DUP1 SLOAD PUSH1 0xFF PUSH1 0x70 SHL NOT AND PUSH1 0x1 PUSH1 0x70 SHL PUSH1 0xFF SWAP5 DUP6 AND DUP2 MUL SWAP2 SWAP1 SWAP2 OR SWAP2 DUP3 SWAP1 SSTORE SWAP2 SWAP4 POP PUSH2 0x438C SWAP3 SWAP2 SWAP1 DIV AND PUSH1 0x2 PUSH2 0x34D7 JUMP JUMPDEST PUSH1 0x0 DUP5 DUP2 MSTORE PUSH1 0xC PUSH1 0x20 MSTORE PUSH1 0x40 SWAP1 KECCAK256 PUSH1 0x8 ADD DUP1 SLOAD PUSH1 0xFF SWAP3 SWAP1 SWAP3 AND PUSH1 0x1 PUSH1 0x70 SHL MUL PUSH1 0xFF PUSH1 0x70 SHL NOT SWAP1 SWAP3 AND SWAP2 SWAP1 SWAP2 OR SWAP1 SSTORE PUSH2 0x43C5 PUSH1 0x10 DUP3 PUSH2 0x4B61 JUMP JUMPDEST PUSH1 0x0 DUP6 DUP2 MSTORE PUSH1 0xC PUSH1 0x20 MSTORE PUSH1 0x40 SWAP1 KECCAK256 PUSH1 0x8 ADD DUP1 SLOAD PUSH1 0xFF PUSH1 0x78 SHL NOT AND PUSH1 0x1 PUSH1 0x78 SHL PUSH1 0xFF SWAP5 DUP6 AND DUP2 MUL SWAP2 SWAP1 SWAP2 OR SWAP2 DUP3 SWAP1 SSTORE SWAP2 SWAP4 POP PUSH2 0x4405 SWAP3 SWAP2 SWAP1 DIV AND PUSH1 0x2 PUSH2 0x34D7 JUMP JUMPDEST PUSH1 0x0 DUP5 DUP2 MSTORE PUSH1 0xC PUSH1 0x20 MSTORE PUSH1 0x40 SWAP1 KECCAK256 PUSH1 0x8 ADD DUP1 SLOAD PUSH1 0xFF SWAP3 SWAP1 SWAP3 AND PUSH1 0x1 PUSH1 0x78 SHL MUL PUSH1 0xFF PUSH1 0x78 SHL NOT SWAP1 SWAP3 AND SWAP2 SWAP1 SWAP2 OR SWAP1 SSTORE PUSH2 0x443E PUSH1 0x10 DUP3 PUSH2 0x4B61 JUMP JUMPDEST PUSH1 0x0 DUP6 DUP2 MSTORE PUSH1 0xC PUSH1 0x20 MSTORE PUSH1 0x40 SWAP1 KECCAK256 PUSH1 0x8 ADD DUP1 SLOAD PUSH1 0xFF PUSH1 0x80 SHL NOT AND PUSH1 0x1 PUSH1 0x80 SHL PUSH1 0xFF SWAP5 DUP6 AND DUP2 MUL SWAP2 SWAP1 SWAP2 OR SWAP2 DUP3 SWAP1 SSTORE SWAP2 SWAP4 POP PUSH2 0x447E SWAP3 SWAP2 SWAP1 DIV AND PUSH1 0x2 PUSH2 0x34D7 JUMP JUMPDEST PUSH1 0x0 DUP5 DUP2 MSTORE PUSH1 0xC PUSH1 0x20 MSTORE PUSH1 0x40 SWAP1 KECCAK256 PUSH1 0x8 ADD DUP1 SLOAD PUSH1 0xFF SWAP3 SWAP1 SWAP3 AND PUSH1 0x1 PUSH1 0x80 SHL MUL PUSH1 0xFF PUSH1 0x80 SHL NOT SWAP1 SWAP3 AND SWAP2 SWAP1 SWAP2 OR SWAP1 SSTORE PUSH2 0x44B7 PUSH1 0x10 DUP3 PUSH2 0x4B61 JUMP JUMPDEST PUSH1 0x0 DUP6 DUP2 MSTORE PUSH1 0xC PUSH1 0x20 MSTORE PUSH1 0x40 SWAP1 KECCAK256 PUSH1 0x8 ADD DUP1 SLOAD PUSH1 0xFF PUSH1 0x88 SHL NOT AND PUSH1 0x1 PUSH1 0x88 SHL PUSH1 0xFF SWAP5 DUP6 AND DUP2 MUL SWAP2 SWAP1 SWAP2 OR SWAP2 DUP3 SWAP1 SSTORE SWAP2 SWAP4 POP PUSH2 0x44F7 SWAP3 SWAP2 SWAP1 DIV AND PUSH1 0x2 PUSH2 0x34D7 JUMP JUMPDEST PUSH1 0x0 DUP5 DUP2 MSTORE PUSH1 0xC PUSH1 0x20 MSTORE PUSH1 0x40 SWAP1 KECCAK256 PUSH1 0x8 ADD DUP1 SLOAD PUSH1 0xFF SWAP3 SWAP1 SWAP3 AND PUSH1 0x1 PUSH1 0x88 SHL MUL PUSH1 0xFF PUSH1 0x88 SHL NOT SWAP1 SWAP3 AND SWAP2 SWAP1 SWAP2 OR SWAP1 SSTORE PUSH2 0x4530 PUSH1 0x10 DUP3 PUSH2 0x4B61 JUMP JUMPDEST PUSH1 0x0 DUP6 DUP2 MSTORE PUSH1 0xC PUSH1 0x20 MSTORE PUSH1 0x40 SWAP1 KECCAK256 PUSH1 0x8 ADD DUP1 SLOAD PUSH1 0xFF PUSH1 0x90 SHL NOT AND PUSH1 0x1 PUSH1 0x90 SHL PUSH1 0xFF SWAP5 DUP6 AND DUP2 MUL SWAP2 SWAP1 SWAP2 OR SWAP2 DUP3 SWAP1 SSTORE SWAP2 SWAP4 POP PUSH2 0x4570 SWAP3 SWAP2 SWAP1 DIV AND PUSH1 0x2 PUSH2 0x34D7 JUMP JUMPDEST PUSH1 0x0 SWAP4 DUP5 MSTORE PUSH1 0xC PUSH1 0x20 MSTORE PUSH1 0x40 SWAP1 SWAP4 KECCAK256 PUSH1 0x8 ADD DUP1 SLOAD PUSH1 0xFF SWAP5 SWAP1 SWAP5 AND PUSH1 0x1 PUSH1 0x90 SHL MUL PUSH1 0xFF PUSH1 0x90 SHL NOT SWAP1 SWAP5 AND SWAP4 SWAP1 SWAP4 OR SWAP1 SWAP3 SSTORE POP POP POP POP JUMP JUMPDEST PUSH1 0x0 DUP3 PUSH2 0x45B5 JUMPI POP PUSH1 0x0 PUSH2 0x13A4 JUMP JUMPDEST DUP3 DUP3 MUL DUP3 DUP5 DUP3 DUP2 PUSH2 0x45C2 JUMPI INVALID JUMPDEST DIV EQ PUSH2 0x2C19 JUMPI PUSH1 0x40 MLOAD PUSH3 0x461BCD PUSH1 0xE5 SHL DUP2 MSTORE PUSH1 0x4 ADD DUP1 DUP1 PUSH1 0x20 ADD DUP3 DUP2 SUB DUP3 MSTORE PUSH1 0x21 DUP2 MSTORE PUSH1 0x20 ADD DUP1 PUSH2 0x526E PUSH1 0x21 SWAP2 CODECOPY PUSH1 0x40 ADD SWAP2 POP POP PUSH1 0x40 MLOAD DUP1 SWAP2 SUB SWAP1 REVERT JUMPDEST PUSH1 0x0 DUP1 DUP3 GT PUSH2 0x4655 JUMPI PUSH1 0x40 DUP1 MLOAD PUSH3 0x461BCD PUSH1 0xE5 SHL DUP2 MSTORE PUSH1 0x20 PUSH1 0x4 DUP3 ADD MSTORE PUSH1 0x1A PUSH1 0x24 DUP3 ADD MSTORE PUSH32 0x536166654D6174683A206469766973696F6E206279207A65726F000000000000 PUSH1 0x44 DUP3 ADD MSTORE SWAP1 MLOAD SWAP1 DUP2 SWAP1 SUB PUSH1 0x64 ADD SWAP1 REVERT JUMPDEST DUP2 DUP4 DUP2 PUSH2 0x465E JUMPI INVALID JUMPDEST DIV SWAP4 SWAP3 POP POP POP JUMP JUMPDEST PUSH1 0x0 PUSH2 0x2C19 DUP4 DUP4 PUSH2 0x4B92 JUMP JUMPDEST PUSH1 0x0 DUP3 DUP2 MSTORE PUSH1 0x15 PUSH1 0x20 MSTORE PUSH1 0x40 SWAP1 KECCAK256 DUP2 SWAP1 SSTORE PUSH2 0x1E47 DUP3 PUSH2 0x3ECF JUMP JUMPDEST DUP1 PUSH1 0x0 DUP2 GT DUP1 ISZERO PUSH2 0x469E JUMPI POP PUSH1 0x7 DUP2 GT ISZERO JUMPDEST PUSH2 0x46A7 JUMPI PUSH1 0x0 DUP1 REVERT JUMPDEST PUSH1 0x0 DUP3 DUP2 MSTORE PUSH1 0x9 PUSH1 0x20 MSTORE PUSH1 0x40 SWAP1 KECCAK256 SLOAD PUSH1 0xFF AND PUSH2 0x46C2 JUMPI PUSH1 0x0 DUP1 REVERT JUMPDEST PUSH1 0x0 DUP3 DUP2 MSTORE PUSH1 0x8 PUSH1 0x20 MSTORE PUSH1 0x40 SWAP1 KECCAK256 SLOAD PUSH2 0x46E6 SWAP1 PUSH1 0x1 PUSH1 0x1 PUSH1 0xA0 SHL SUB AND DUP4 PUSH1 0x1 PUSH2 0x36AE JUMP JUMPDEST PUSH1 0x7 SLOAD PUSH2 0x46F4 SWAP1 PUSH1 0x1 PUSH2 0x37E1 JUMP JUMPDEST PUSH1 0x7 SSTORE POP PUSH1 0x0 SWAP1 DUP2 MSTORE PUSH1 0x8 PUSH1 0x20 SWAP1 DUP2 MSTORE PUSH1 0x40 DUP1 DUP4 KECCAK256 DUP1 SLOAD PUSH1 0x1 PUSH1 0x1 PUSH1 0xA0 SHL SUB NOT AND SWAP1 SSTORE PUSH1 0x9 SWAP1 SWAP2 MSTORE SWAP1 KECCAK256 DUP1 SLOAD PUSH1 0xFF NOT AND SWAP1 SSTORE JUMP JUMPDEST PUSH1 0x0 PUSH2 0x13A4 DUP3 PUSH2 0x4BF6 JUMP JUMPDEST PUSH1 0x40 DUP1 MLOAD PUSH1 0x1 DUP1 DUP3 MSTORE DUP2 DUP4 ADD SWAP1 SWAP3 MSTORE PUSH1 0x60 SWAP2 DUP3 SWAP2 SWAP1 PUSH1 0x20 DUP1 DUP4 ADD SWAP1 DUP1 CALLDATASIZE DUP4 CALLDATACOPY ADD SWAP1 POP POP SWAP1 POP DUP3 DUP2 PUSH1 0x0 DUP2 MLOAD DUP2 LT PUSH2 0x4766 JUMPI INVALID JUMPDEST PUSH1 0x20 SWAP1 DUP2 MUL SWAP2 SWAP1 SWAP2 ADD ADD MSTORE SWAP3 SWAP2 POP POP JUMP JUMPDEST PUSH2 0x4789 DUP5 PUSH1 0x1 PUSH1 0x1 PUSH1 0xA0 SHL SUB AND PUSH2 0x499C JUMP JUMPDEST ISZERO PUSH2 0x1D26 JUMPI DUP4 PUSH1 0x1 PUSH1 0x1 PUSH1 0xA0 SHL SUB AND PUSH4 0xF23A6E61 DUP8 DUP8 DUP7 DUP7 DUP7 PUSH1 0x40 MLOAD DUP7 PUSH4 0xFFFFFFFF AND PUSH1 0xE0 SHL DUP2 MSTORE PUSH1 0x4 ADD DUP1 DUP7 PUSH1 0x1 PUSH1 0x1 PUSH1 0xA0 SHL SUB AND DUP2 MSTORE PUSH1 0x20 ADD DUP6 PUSH1 0x1 PUSH1 0x1 PUSH1 0xA0 SHL SUB AND DUP2 MSTORE PUSH1 0x20 ADD DUP5 DUP2 MSTORE PUSH1 0x20 ADD DUP4 DUP2 MSTORE PUSH1 0x20 ADD DUP1 PUSH1 0x20 ADD DUP3 DUP2 SUB DUP3 MSTORE DUP4 DUP2 DUP2 MLOAD DUP2 MSTORE PUSH1 0x20 ADD SWAP2 POP DUP1 MLOAD SWAP1 PUSH1 0x20 ADD SWAP1 DUP1 DUP4 DUP4 PUSH1 0x0 JUMPDEST DUP4 DUP2 LT ISZERO PUSH2 0x4818 JUMPI DUP2 DUP2 ADD MLOAD DUP4 DUP3 ADD MSTORE PUSH1 0x20 ADD PUSH2 0x4800 JUMP JUMPDEST POP POP POP POP SWAP1 POP SWAP1 DUP2 ADD SWAP1 PUSH1 0x1F AND DUP1 ISZERO PUSH2 0x4845 JUMPI DUP1 DUP3 SUB DUP1 MLOAD PUSH1 0x1 DUP4 PUSH1 0x20 SUB PUSH2 0x100 EXP SUB NOT AND DUP2 MSTORE PUSH1 0x20 ADD SWAP2 POP JUMPDEST POP SWAP7 POP POP POP POP POP POP POP PUSH1 0x20 PUSH1 0x40 MLOAD DUP1 DUP4 SUB DUP2 PUSH1 0x0 DUP8 DUP1 EXTCODESIZE ISZERO DUP1 ISZERO PUSH2 0x4868 JUMPI PUSH1 0x0 DUP1 REVERT JUMPDEST POP GAS CALL SWAP3 POP POP POP DUP1 ISZERO PUSH2 0x488D JUMPI POP PUSH1 0x40 MLOAD RETURNDATASIZE PUSH1 0x20 DUP2 LT ISZERO PUSH2 0x4888 JUMPI PUSH1 0x0 DUP1 REVERT JUMPDEST POP MLOAD PUSH1 0x1 JUMPDEST PUSH2 0x4899 JUMPI PUSH2 0x3B85 PUSH2 0x4FAF JUMP JUMPDEST PUSH1 0x1 PUSH1 0x1 PUSH1 0xE0 SHL SUB NOT DUP2 AND PUSH4 0xF23A6E61 PUSH1 0xE0 SHL EQ PUSH2 0x34A4 JUMPI PUSH1 0x40 MLOAD PUSH3 0x461BCD PUSH1 0xE5 SHL DUP2 MSTORE PUSH1 0x4 ADD DUP1 DUP1 PUSH1 0x20 ADD DUP3 DUP2 SUB DUP3 MSTORE PUSH1 0x28 DUP2 MSTORE PUSH1 0x20 ADD DUP1 PUSH2 0x50AB PUSH1 0x28 SWAP2 CODECOPY PUSH1 0x40 ADD SWAP2 POP POP PUSH1 0x40 MLOAD DUP1 SWAP2 SUB SWAP1 REVERT JUMPDEST PUSH1 0x0 DUP1 PUSH1 0x1 PUSH2 0x490F PUSH1 0x64 PUSH2 0x26CB PUSH1 0x2 PUSH2 0x4909 DUP9 PUSH8 0xDE0B6B3A7640000 PUSH2 0x45A6 JUMP JUMPDEST SWAP1 PUSH2 0x45A6 JUMP JUMPDEST SWAP2 POP PUSH2 0x4932 PUSH2 0x492B PUSH1 0xA PUSH2 0x26CB DUP5 PUSH8 0xDE0B6B3A7640000 PUSH2 0x45A6 JUMP JUMPDEST DUP4 SWAP1 PUSH2 0x34D7 JUMP JUMPDEST SWAP5 SWAP4 POP POP POP POP JUMP JUMPDEST PUSH1 0x0 PUSH2 0x4946 DUP4 DUP4 PUSH2 0x4984 JUMP JUMPDEST PUSH2 0x497C JUMPI POP DUP2 SLOAD PUSH1 0x1 DUP2 DUP2 ADD DUP5 SSTORE PUSH1 0x0 DUP5 DUP2 MSTORE PUSH1 0x20 DUP1 DUP3 KECCAK256 SWAP1 SWAP4 ADD DUP5 SWAP1 SSTORE DUP5 SLOAD DUP5 DUP3 MSTORE DUP3 DUP7 ADD SWAP1 SWAP4 MSTORE PUSH1 0x40 SWAP1 KECCAK256 SWAP2 SWAP1 SWAP2 SSTORE PUSH2 0x13A4 JUMP JUMPDEST POP PUSH1 0x0 PUSH2 0x13A4 JUMP JUMPDEST PUSH1 0x0 SWAP1 DUP2 MSTORE PUSH1 0x1 SWAP2 SWAP1 SWAP2 ADD PUSH1 0x20 MSTORE PUSH1 0x40 SWAP1 KECCAK256 SLOAD ISZERO ISZERO SWAP1 JUMP JUMPDEST EXTCODESIZE ISZERO ISZERO SWAP1 JUMP JUMPDEST PUSH1 0x0 PUSH2 0x2C19 DUP4 PUSH1 0x1 PUSH1 0x1 PUSH1 0xA0 SHL SUB DUP5 AND PUSH2 0x4BFA JUMP JUMPDEST PUSH1 0x0 PUSH32 0x0 PUSH1 0x1 PUSH1 0x1 PUSH1 0xA0 SHL SUB AND PUSH4 0x4000AEA0 PUSH32 0x0 DUP6 DUP8 DUP7 PUSH1 0x40 MLOAD PUSH1 0x20 ADD DUP1 DUP4 DUP2 MSTORE PUSH1 0x20 ADD DUP3 DUP2 MSTORE PUSH1 0x20 ADD SWAP3 POP POP POP PUSH1 0x40 MLOAD PUSH1 0x20 DUP2 DUP4 SUB SUB DUP2 MSTORE SWAP1 PUSH1 0x40 MSTORE PUSH1 0x40 MLOAD DUP5 PUSH4 0xFFFFFFFF AND PUSH1 0xE0 SHL DUP2 MSTORE PUSH1 0x4 ADD DUP1 DUP5 PUSH1 0x1 PUSH1 0x1 PUSH1 0xA0 SHL SUB AND DUP2 MSTORE PUSH1 0x20 ADD DUP4 DUP2 MSTORE PUSH1 0x20 ADD DUP1 PUSH1 0x20 ADD DUP3 DUP2 SUB DUP3 MSTORE DUP4 DUP2 DUP2 MLOAD DUP2 MSTORE PUSH1 0x20 ADD SWAP2 POP DUP1 MLOAD SWAP1 PUSH1 0x20 ADD SWAP1 DUP1 DUP4 DUP4 PUSH1 0x0 JUMPDEST DUP4 DUP2 LT ISZERO PUSH2 0x4A93 JUMPI DUP2 DUP2 ADD MLOAD DUP4 DUP3 ADD MSTORE PUSH1 0x20 ADD PUSH2 0x4A7B JUMP JUMPDEST POP POP POP POP SWAP1 POP SWAP1 DUP2 ADD SWAP1 PUSH1 0x1F AND DUP1 ISZERO PUSH2 0x4AC0 JUMPI DUP1 DUP3 SUB DUP1 MLOAD PUSH1 0x1 DUP4 PUSH1 0x20 SUB PUSH2 0x100 EXP SUB NOT AND DUP2 MSTORE PUSH1 0x20 ADD SWAP2 POP JUMPDEST POP SWAP5 POP POP POP POP POP PUSH1 0x20 PUSH1 0x40 MLOAD DUP1 DUP4 SUB DUP2 PUSH1 0x0 DUP8 DUP1 EXTCODESIZE ISZERO DUP1 ISZERO PUSH2 0x4AE1 JUMPI PUSH1 0x0 DUP1 REVERT JUMPDEST POP GAS CALL ISZERO DUP1 ISZERO PUSH2 0x4AF5 JUMPI RETURNDATASIZE PUSH1 0x0 DUP1 RETURNDATACOPY RETURNDATASIZE PUSH1 0x0 REVERT JUMPDEST POP POP POP POP PUSH1 0x40 MLOAD RETURNDATASIZE PUSH1 0x20 DUP2 LT ISZERO PUSH2 0x4B0B JUMPI PUSH1 0x0 DUP1 REVERT JUMPDEST POP POP PUSH1 0x0 DUP5 DUP2 MSTORE PUSH1 0x5 PUSH1 0x20 MSTORE PUSH1 0x40 DUP2 KECCAK256 SLOAD PUSH2 0x4B2B SWAP1 DUP7 SWAP1 DUP6 SWAP1 ADDRESS SWAP1 PUSH2 0x4CC0 JUMP JUMPDEST PUSH1 0x0 DUP7 DUP2 MSTORE PUSH1 0x5 PUSH1 0x20 MSTORE PUSH1 0x40 SWAP1 KECCAK256 SLOAD SWAP1 SWAP2 POP PUSH2 0x4B48 SWAP1 PUSH1 0x1 PUSH2 0x34D7 JUMP JUMPDEST PUSH1 0x0 DUP7 DUP2 MSTORE PUSH1 0x5 PUSH1 0x20 MSTORE PUSH1 0x40 SWAP1 KECCAK256 SSTORE PUSH2 0x3297 DUP6 DUP3 PUSH2 0x4D07 JUMP JUMPDEST PUSH1 0x0 DUP1 PUSH2 0x4B7C PUSH1 0x1 PUSH2 0x4B76 DUP6 PUSH1 0xFF DUP9 AND PUSH2 0x4D33 JUMP JUMPDEST SWAP1 PUSH2 0x34D7 JUMP JUMPDEST PUSH2 0x4B87 DUP5 PUSH1 0xA PUSH2 0x45FF JUMP JUMPDEST SWAP2 POP SWAP2 POP SWAP3 POP SWAP3 SWAP1 POP JUMP JUMPDEST DUP2 SLOAD PUSH1 0x0 SWAP1 DUP3 LT PUSH2 0x4BD4 JUMPI PUSH1 0x40 MLOAD PUSH3 0x461BCD PUSH1 0xE5 SHL DUP2 MSTORE PUSH1 0x4 ADD DUP1 DUP1 PUSH1 0x20 ADD DUP3 DUP2 SUB DUP3 MSTORE PUSH1 0x22 DUP2 MSTORE PUSH1 0x20 ADD DUP1 PUSH2 0x5089 PUSH1 0x22 SWAP2 CODECOPY PUSH1 0x40 ADD SWAP2 POP POP PUSH1 0x40 MLOAD DUP1 SWAP2 SUB SWAP1 REVERT JUMPDEST DUP3 PUSH1 0x0 ADD DUP3 DUP2 SLOAD DUP2 LT PUSH2 0x4BE3 JUMPI INVALID JUMPDEST SWAP1 PUSH1 0x0 MSTORE PUSH1 0x20 PUSH1 0x0 KECCAK256 ADD SLOAD SWAP1 POP SWAP3 SWAP2 POP POP JUMP JUMPDEST SLOAD SWAP1 JUMP JUMPDEST PUSH1 0x0 DUP2 DUP2 MSTORE PUSH1 0x1 DUP4 ADD PUSH1 0x20 MSTORE PUSH1 0x40 DUP2 KECCAK256 SLOAD DUP1 ISZERO PUSH2 0x4CB6 JUMPI DUP4 SLOAD PUSH1 0x0 NOT DUP1 DUP4 ADD SWAP2 SWAP1 DUP2 ADD SWAP1 PUSH1 0x0 SWAP1 DUP8 SWAP1 DUP4 SWAP1 DUP2 LT PUSH2 0x4C2D JUMPI INVALID JUMPDEST SWAP1 PUSH1 0x0 MSTORE PUSH1 0x20 PUSH1 0x0 KECCAK256 ADD SLOAD SWAP1 POP DUP1 DUP8 PUSH1 0x0 ADD DUP5 DUP2 SLOAD DUP2 LT PUSH2 0x4C4A JUMPI INVALID JUMPDEST PUSH1 0x0 SWAP2 DUP3 MSTORE PUSH1 0x20 DUP1 DUP4 KECCAK256 SWAP1 SWAP2 ADD SWAP3 SWAP1 SWAP3 SSTORE DUP3 DUP2 MSTORE PUSH1 0x1 DUP10 DUP2 ADD SWAP1 SWAP3 MSTORE PUSH1 0x40 SWAP1 KECCAK256 SWAP1 DUP5 ADD SWAP1 SSTORE DUP7 SLOAD DUP8 SWAP1 DUP1 PUSH2 0x4C7A JUMPI INVALID JUMPDEST PUSH1 0x1 SWAP1 SUB DUP2 DUP2 SWAP1 PUSH1 0x0 MSTORE PUSH1 0x20 PUSH1 0x0 KECCAK256 ADD PUSH1 0x0 SWAP1 SSTORE SWAP1 SSTORE DUP7 PUSH1 0x1 ADD PUSH1 0x0 DUP8 DUP2 MSTORE PUSH1 0x20 ADD SWAP1 DUP2 MSTORE PUSH1 0x20 ADD PUSH1 0x0 KECCAK256 PUSH1 0x0 SWAP1 SSTORE PUSH1 0x1 SWAP5 POP POP POP POP POP PUSH2 0x13A4 JUMP JUMPDEST PUSH1 0x0 SWAP2 POP POP PUSH2 0x13A4 JUMP JUMPDEST PUSH1 0x40 DUP1 MLOAD PUSH1 0x20 DUP1 DUP3 ADD SWAP7 SWAP1 SWAP7 MSTORE DUP1 DUP3 ADD SWAP5 SWAP1 SWAP5 MSTORE PUSH1 0x1 PUSH1 0x1 PUSH1 0xA0 SHL SUB SWAP3 SWAP1 SWAP3 AND PUSH1 0x60 DUP5 ADD MSTORE PUSH1 0x80 DUP1 DUP5 ADD SWAP2 SWAP1 SWAP2 MSTORE DUP2 MLOAD DUP1 DUP5 SUB SWAP1 SWAP2 ADD DUP2 MSTORE PUSH1 0xA0 SWAP1 SWAP3 ADD SWAP1 MSTORE DUP1 MLOAD SWAP2 ADD KECCAK256 SWAP1 JUMP JUMPDEST PUSH1 0x40 DUP1 MLOAD PUSH1 0x20 DUP1 DUP3 ADD SWAP5 SWAP1 SWAP5 MSTORE DUP1 DUP3 ADD SWAP3 SWAP1 SWAP3 MSTORE DUP1 MLOAD DUP1 DUP4 SUB DUP3 ADD DUP2 MSTORE PUSH1 0x60 SWAP1 SWAP3 ADD SWAP1 MSTORE DUP1 MLOAD SWAP2 ADD KECCAK256 SWAP1 JUMP JUMPDEST PUSH1 0x0 DUP1 DUP3 GT PUSH2 0x4D89 JUMPI PUSH1 0x40 DUP1 MLOAD PUSH3 0x461BCD PUSH1 0xE5 SHL DUP2 MSTORE PUSH1 0x20 PUSH1 0x4 DUP3 ADD MSTORE PUSH1 0x18 PUSH1 0x24 DUP3 ADD MSTORE PUSH32 0x536166654D6174683A206D6F64756C6F206279207A65726F0000000000000000 PUSH1 0x44 DUP3 ADD MSTORE SWAP1 MLOAD SWAP1 DUP2 SWAP1 SUB PUSH1 0x64 ADD SWAP1 REVERT JUMPDEST DUP2 DUP4 DUP2 PUSH2 0x4D92 JUMPI INVALID JUMPDEST MOD SWAP4 SWAP3 POP POP POP JUMP JUMPDEST PUSH1 0x40 MLOAD DUP1 PUSH1 0xA0 ADD PUSH1 0x40 MSTORE DUP1 PUSH1 0x0 ISZERO ISZERO DUP2 MSTORE PUSH1 0x20 ADD PUSH1 0x0 DUP2 MSTORE PUSH1 0x20 ADD PUSH1 0x0 DUP2 MSTORE PUSH1 0x20 ADD PUSH1 0x60 DUP2 MSTORE PUSH1 0x20 ADD PUSH1 0x0 DUP2 MSTORE POP SWAP1 JUMP JUMPDEST DUP3 DUP1 SLOAD PUSH1 0x1 DUP2 PUSH1 0x1 AND ISZERO PUSH2 0x100 MUL SUB AND PUSH1 0x2 SWAP1 DIV SWAP1 PUSH1 0x0 MSTORE PUSH1 0x20 PUSH1 0x0 KECCAK256 SWAP1 PUSH1 0x1F ADD PUSH1 0x20 SWAP1 DIV DUP2 ADD SWAP3 DUP3 PUSH1 0x1F LT PUSH2 0x4E0C JUMPI DUP1 MLOAD PUSH1 0xFF NOT AND DUP4 DUP1 ADD OR DUP6 SSTORE PUSH2 0x4E39 JUMP JUMPDEST DUP3 DUP1 ADD PUSH1 0x1 ADD DUP6 SSTORE DUP3 ISZERO PUSH2 0x4E39 JUMPI SWAP2 DUP3 ADD JUMPDEST DUP3 DUP2 GT ISZERO PUSH2 0x4E39 JUMPI DUP3 MLOAD DUP3 SSTORE SWAP2 PUSH1 0x20 ADD SWAP2 SWAP1 PUSH1 0x1 ADD SWAP1 PUSH2 0x4E1E JUMP JUMPDEST POP PUSH2 0x4E45 SWAP3 SWAP2 POP PUSH2 0x4F94 JUMP JUMPDEST POP SWAP1 JUMP JUMPDEST PUSH1 0x40 DUP1 MLOAD PUSH2 0x360 DUP2 ADD DUP3 MSTORE PUSH1 0x0 DUP1 DUP3 MSTORE PUSH1 0x60 PUSH1 0x20 DUP4 ADD DUP2 SWAP1 MSTORE SWAP3 DUP3 ADD DUP4 SWAP1 MSTORE SWAP2 DUP2 ADD DUP3 SWAP1 MSTORE PUSH1 0x80 DUP2 ADD DUP3 SWAP1 MSTORE PUSH1 0xA0 DUP2 ADD DUP3 SWAP1 MSTORE PUSH1 0xC0 DUP2 ADD DUP3 SWAP1 MSTORE PUSH1 0xE0 DUP2 ADD DUP3 SWAP1 MSTORE PUSH2 0x100 DUP2 ADD DUP3 SWAP1 MSTORE PUSH2 0x120 DUP2 ADD DUP3 SWAP1 MSTORE PUSH2 0x140 DUP2 ADD DUP3 SWAP1 MSTORE PUSH2 0x160 DUP2 ADD DUP3 SWAP1 MSTORE PUSH2 0x180 DUP2 ADD DUP3 SWAP1 MSTORE PUSH2 0x1A0 DUP2 ADD DUP3 SWAP1 MSTORE PUSH2 0x1C0 DUP2 ADD DUP3 SWAP1 MSTORE PUSH2 0x1E0 DUP2 ADD DUP3 SWAP1 MSTORE PUSH2 0x200 DUP2 ADD DUP3 SWAP1 MSTORE PUSH2 0x220 DUP2 ADD DUP3 SWAP1 MSTORE PUSH2 0x240 DUP2 ADD DUP3 SWAP1 MSTORE PUSH2 0x260 DUP2 ADD DUP3 SWAP1 MSTORE PUSH2 0x280 DUP2 ADD DUP3 SWAP1 MSTORE PUSH2 0x2A0 DUP2 ADD DUP3 SWAP1 MSTORE PUSH2 0x2C0 DUP2 ADD DUP3 SWAP1 MSTORE PUSH2 0x2E0 DUP2 ADD DUP3 SWAP1 MSTORE PUSH2 0x300 DUP2 ADD DUP3 SWAP1 MSTORE PUSH2 0x320 DUP2 ADD DUP3 SWAP1 MSTORE PUSH2 0x340 DUP2 ADD SWAP2 SWAP1 SWAP2 MSTORE SWAP1 JUMP JUMPDEST DUP3 DUP1 SLOAD PUSH1 0x1 DUP2 PUSH1 0x1 AND ISZERO PUSH2 0x100 MUL SUB AND PUSH1 0x2 SWAP1 DIV SWAP1 PUSH1 0x0 MSTORE PUSH1 0x20 PUSH1 0x0 KECCAK256 SWAP1 PUSH1 0x1F ADD PUSH1 0x20 SWAP1 DIV DUP2 ADD SWAP3 DUP3 PUSH1 0x1F LT PUSH2 0x4F67 JUMPI DUP3 DUP1 ADD PUSH1 0xFF NOT DUP3 CALLDATALOAD AND OR DUP6 SSTORE PUSH2 0x4E39 JUMP JUMPDEST DUP3 DUP1 ADD PUSH1 0x1 ADD DUP6 SSTORE DUP3 ISZERO PUSH2 0x4E39 JUMPI SWAP2 DUP3 ADD JUMPDEST DUP3 DUP2 GT ISZERO PUSH2 0x4E39 JUMPI DUP3 CALLDATALOAD DUP3 SSTORE SWAP2 PUSH1 0x20 ADD SWAP2 SWAP1 PUSH1 0x1 ADD SWAP1 PUSH2 0x4F79 JUMP JUMPDEST JUMPDEST DUP1 DUP3 GT ISZERO PUSH2 0x4E45 JUMPI PUSH1 0x0 DUP2 SSTORE PUSH1 0x1 ADD PUSH2 0x4F95 JUMP JUMPDEST PUSH1 0xE0 SHR SWAP1 JUMP JUMPDEST PUSH1 0x0 PUSH1 0x44 RETURNDATASIZE LT ISZERO PUSH2 0x4FBF JUMPI PUSH2 0x2856 JUMP JUMPDEST PUSH1 0x4 DUP2 DUP3 RETURNDATACOPY PUSH4 0x8C379A0 PUSH2 0x4FD3 DUP3 MLOAD PUSH2 0x4FA9 JUMP JUMPDEST EQ PUSH2 0x4FDD JUMPI PUSH2 0x2856 JUMP JUMPDEST PUSH1 0x40 MLOAD RETURNDATASIZE PUSH1 0x3 NOT ADD PUSH1 0x4 DUP3 RETURNDATACOPY DUP1 MLOAD RETURNDATASIZE PUSH8 0xFFFFFFFFFFFFFFFF DUP2 PUSH1 0x24 DUP5 ADD GT DUP2 DUP5 GT OR ISZERO PUSH2 0x500D JUMPI POP POP POP POP PUSH2 0x2856 JUMP JUMPDEST DUP3 DUP5 ADD SWAP3 POP DUP3 MLOAD SWAP2 POP DUP1 DUP3 GT ISZERO PUSH2 0x5027 JUMPI POP POP POP POP PUSH2 0x2856 JUMP JUMPDEST POP RETURNDATASIZE DUP4 ADD PUSH1 0x20 DUP3 DUP5 ADD ADD GT ISZERO PUSH2 0x503F JUMPI POP POP POP PUSH2 0x2856 JUMP JUMPDEST PUSH1 0x1F ADD PUSH1 0x1F NOT AND DUP2 ADD PUSH1 0x20 ADD PUSH1 0x40 MSTORE SWAP2 POP POP SWAP1 JUMP INVALID GASLIMIT MSTORE NUMBER BALANCE BALANCE CALLDATALOAD CALLDATALOAD GASPRICE KECCAK256 PUSH21 0x72616E7366657220746F206E6F6E20455243313135 CALLDATALOAD MSTORE PUSH6 0x636569766572 KECCAK256 PUSH10 0x6D706C656D656E746572 GASLIMIT PUSH15 0x756D657261626C655365743A20696E PUSH5 0x6578206F75 PUSH21 0x206F6620626F756E6473455243313135353A204552 NUMBER BALANCE BALANCE CALLDATALOAD CALLDATALOAD MSTORE PUSH6 0x636569766572 KECCAK256 PUSH19 0x656A656374656420746F6B656E734163636573 PUSH20 0x436F6E74726F6C3A2073656E646572206D757374 KECCAK256 PUSH3 0x652061 PUSH15 0x2061646D696E20746F206772616E74 GASLIMIT MSTORE NUMBER BALANCE BALANCE CALLDATALOAD CALLDATALOAD GASPRICE KECCAK256 PUSH3 0x616C61 PUSH15 0x636520717565727920666F72207468 PUSH6 0x207A65726F20 PUSH2 0x6464 PUSH19 0x657373455243313135353A206275726E20616D PUSH16 0x756E7420657863656564732062616C61 PUSH15 0x6365455243313135353A2063616C6C PUSH6 0x72206973206E PUSH16 0x74206F776E6572206E6F722061707072 PUSH16 0x766564416363657373436F6E74726F6C GASPRICE KECCAK256 PUSH20 0x656E646572206D75737420626520616E2061646D PUSH10 0x6E20746F207265766F6B PUSH6 0x455243313135 CALLDATALOAD GASPRICE KECCAK256 PUSH21 0x72616E7366657220746F20746865207A65726F2061 PUSH5 0x6472657373 GASLIMIT MSTORE NUMBER BALANCE BALANCE CALLDATALOAD CALLDATALOAD GASPRICE KECCAK256 PUSH21 0x72616E736665722063616C6C6572206973206E6F74 KECCAK256 PUSH16 0x776E6572206E6F7220617070726F7665 PUSH5 0x2172861495 0xE7 0xB8 0x5E 0xDA 0xC7 RETURNDATACOPY EXTCODECOPY 0xD5 0xFB 0xB4 0x2D 0xD6 PUSH22 0xBAADF627720E687BCFDACA025096455243313135353A KECCAK256 PUSH3 0x75726E KECCAK256 PUSH7 0x726F6D20746865 KECCAK256 PUSH27 0x65726F2061646472657373455243313135353A20696E7375666669 PUSH4 0x69656E74 KECCAK256 PUSH3 0x616C61 PUSH15 0x636520666F72207472616E73666572 MSTORE8 PUSH2 0x6665 0x4D PUSH2 0x7468 GASPRICE KECCAK256 PUSH14 0x756C7469706C69636174696F6E20 PUSH16 0x766572666C6F77455243313135353A20 PUSH20 0x657474696E6720617070726F76616C2073746174 PUSH22 0x7320666F722073656C66455243313135353A20616363 PUSH16 0x756E747320616E6420696473206C656E PUSH8 0x7468206D69736D61 PUSH21 0x6368455243313135353A2069647320616E6420616D PUSH16 0x756E7473206C656E677468206D69736D PUSH2 0x7463 PUSH9 0x455243313135353A20 PUSH14 0x696E7420746F20746865207A6572 PUSH16 0x2061646472657373416363657373436F PUSH15 0x74726F6C3A2063616E206F6E6C7920 PUSH19 0x656E6F756E636520726F6C657320666F722073 PUSH6 0x6C66A2646970 PUSH7 0x73582212203A1C 0xE4 0xED SIGNEXTEND LT 0xF7 ISZERO DUP11 0xD6 CALLDATALOAD 0xE DUP10 POP RETURNDATACOPY SWAP16 0xDD SELFBALANCE EQ PUSH7 0x42F8B7F998DCAC 0xF7 0xDE DUP10 PUSH30 0x1E64736F6C634300060C0033000000000000000000000000000000000000 ",
  "sha1": "ccecc3f2cb7e84ca693f8e66ad79ecb5e821a828",
  "source": "// SPDX-License-Identifier: UNLICENSED\npragma solidity ^0.6.0;\n\nimport \"../interfaces/ICryptoChampions.sol\";\nimport \"../interfaces/IMinigameFactoryRegistry.sol\";\nimport \"./chainlink_contracts/AggregatorV3Interface.sol\";\nimport \"./chainlink_contracts/VRFConsumerBase.sol\";\nimport \"./minigames/games/priceWars/PriceWarsFactory.sol\";\nimport \"./minigames/games/priceWars/PriceWars.sol\";\n\nimport \"OpenZeppelin/openzeppelin-contracts@3.4.0/contracts/access/AccessControl.sol\";\nimport \"OpenZeppelin/openzeppelin-contracts@3.4.0/contracts/math/SafeMath.sol\";\nimport \"OpenZeppelin/openzeppelin-contracts@3.4.0/contracts/token/ERC1155/ERC1155.sol\";\n\n/// @title Crypto Champions Interface\n/// @author Oozyx\n/// @notice This is the crypto champions class\ncontract CryptoChampions is ICryptoChampions, AccessControl, ERC1155, VRFConsumerBase {\n    using SafeMath for uint256;\n    using SafeMath for uint8;\n\n    // Possible phases the contract can be in.  Phase one is when users can mint elder spirits and two is when they can mint heros.\n    enum Phase { MINT_ELDER, MINT_HERO }\n\n    // The current phase the contract is in.\n    Phase public currentPhase;\n\n    // Number of tokens minted whenever a user mints a hero\n    uint256 internal constant NUM_TOKENS_MINTED = 500 * 10**18;\n\n    // The owner role is used to globally govern the contract\n    bytes32 internal constant ROLE_OWNER = keccak256(\"ROLE_OWNER\");\n\n    // The admin role is used for administrator duties and reports to the owner\n    bytes32 internal constant ROLE_ADMIN = keccak256(\"ROLE_ADMIN\");\n\n    // The role to declare round winners\n    bytes32 internal constant ROLE_GAME_ADMIN = keccak256(\"ROLE_GAME_ADMIN\");\n\n    // Reserved id for the in game currency\n    uint256 internal constant IN_GAME_CURRENCY_ID = 0;\n\n    // Constants used to determine fee proportions.\n    // Usage: fee.mul(proportion).div(10)\n    uint8 internal constant HERO_MINT_ROYALTY_PROPORTION = 8;\n\n    // The identifier for the price wars game\n    string internal constant PRICE_WARS_ID = \"PRICE_WARS\";\n\n    // The max amount of elders that can be minted\n    uint256 public constant MAX_NUMBER_OF_ELDERS = 7;\n\n    // The amount of elders minted\n    // This amount cannot be greater than MAX_NUMBER_OF_ELDERS\n    uint256 public eldersInGame = 0;\n\n    // The mapping of elder id to elder owner, ids can only be in the range of [1, MAX_NUMBER OF ELDERS]\n    mapping(uint256 => address) internal _elderOwners;\n\n    // The mapping of elder id to the elder spirit\n    mapping(uint256 => ElderSpirit) internal _elderSpirits;\n\n    // The amount of heros minted\n    uint256 public heroesMinted = 0;\n\n    // The mapping of hero id to owner, ids can only be in the range of\n    // [1 + MAX_NUMBER_OF_ELDERS, ]\n    mapping(uint256 => address) internal _heroOwners;\n\n    // The mapping of hero id to the hero\n    mapping(uint256 => Hero) internal _heroes;\n\n    // The mapping of the round played to the elder spawns mapping\n    mapping(uint256 => mapping(uint256 => uint256)) internal _roundElderSpawns;\n\n    // The mint price for elders and heroes\n    uint256 public elderMintPrice;\n\n    // The current round index\n    uint256 public currentRound;\n\n    // The mapping of affinities (token ticker) to price feed address\n    mapping(string => address) internal _affinities;\n\n    // List of available affinities\n    string[] public affinities;\n\n    // The key hash used for VRF\n    bytes32 internal _keyHash;\n\n    // The fee in LINK for VRF\n    uint256 internal _fee;\n\n    // Mapping of request id to hero id\n    mapping(bytes32 => uint256) internal _heroRandomRequest;\n\n    // Mapping of request id to random result\n    mapping(bytes32 => uint256) internal _randomResultsVRF;\n\n    // The list of affinities that won in a round\n    string[] public winningAffinitiesByRound;\n\n    // The registry of minigame factories\n    IMinigameFactoryRegistry internal _minigameFactoryRegistry;\n\n    /// @notice Triggered when an elder spirit gets minted\n    /// @param elderId The elder id belonging to the minted elder\n    /// @param owner The address of the owner\n    event ElderSpiritMinted(uint256 elderId, address owner);\n\n    /// @notice Triggered when a hero gets minted\n    /// @param heroId The hero id belonging to the hero that was minted\n    /// @param owner The address of the owner\n    event HeroMinted(uint256 heroId, address owner);\n\n    /// @notice Triggered when the elder spirits have been burned\n    event ElderSpiritsBurned();\n\n    /// @notice Triggered when a hero has been burned\n    /// @param heroId The hero id of the hero that was burned\n    event HeroBurned(uint256 heroId);\n\n    // Initializes a new CryptoChampions contract\n    // TODO: need to provide the proper uri\n    constructor(\n        bytes32 keyhash,\n        address vrfCoordinator,\n        address linkToken,\n        address minigameFactoryRegistry\n    ) public ERC1155(\"uri\") VRFConsumerBase(vrfCoordinator, linkToken) {\n        // Set up administrative roles\n        _setRoleAdmin(ROLE_OWNER, ROLE_OWNER);\n        _setRoleAdmin(ROLE_ADMIN, ROLE_OWNER);\n        _setRoleAdmin(ROLE_GAME_ADMIN, ROLE_OWNER);\n\n        // Set up the deployer as the owner and give admin rights\n        _setupRole(ROLE_OWNER, msg.sender);\n        grantRole(ROLE_ADMIN, msg.sender);\n\n        // Set initial elder mint price\n        elderMintPrice = 0.271 ether;\n\n        // Set the initial round to 0\n        currentRound = 0;\n\n        // Set initial phase to phase one\n        currentPhase = Phase.MINT_ELDER;\n\n        // Set VRF fields\n        _keyHash = keyhash;\n        _fee = 0.1 * 10**18; // 0.1 LINK\n\n        _minigameFactoryRegistry = IMinigameFactoryRegistry(minigameFactoryRegistry);\n    }\n\n    modifier isValidElderSpiritId(uint256 elderId) {\n        require(elderId > IN_GAME_CURRENCY_ID && elderId <= MAX_NUMBER_OF_ELDERS); // dev: Given id is not valid.\n        _;\n    }\n\n    modifier isValidHero(uint256 heroId) {\n        require(heroId > MAX_NUMBER_OF_ELDERS); // dev: Given id is not valid.\n        require(_heroes[heroId].valid); // dev: Hero is not valid.\n        _;\n    }\n\n    // Restrict to only price war addresses\n    modifier onlyGameAdmin {\n        _hasRole(ROLE_GAME_ADMIN);\n        _;\n    }\n\n    // Restrict to only admins\n    modifier onlyAdmin {\n        _hasRole(ROLE_ADMIN);\n        _;\n    }\n\n    /// @notice Makes a request for a random number\n    /// @param userProvidedSeed The seed for the random request\n    /// @return requestId The request id\n    function _getRandomNumber(uint256 userProvidedSeed) internal returns (bytes32 requestId) {\n        require(LINK.balanceOf(address(this)) >= _fee); // dev: Not enough LINK - fill contract with faucet\n        return requestRandomness(_keyHash, _fee, userProvidedSeed);\n    }\n\n    /// @notice Callback function used by the VRF coordinator\n    /// @param requestId The request id\n    /// @param randomness The randomness\n    function fulfillRandomness(bytes32 requestId, uint256 randomness) internal override {\n        _randomResultsVRF[requestId] = randomness;\n        _trainHero(requestId);\n    }\n\n    /// @notice Sets the contract's phase\n    /// @param phase The phase the contract should be set to\n    function setPhase(Phase phase) external onlyAdmin {\n        currentPhase = phase;\n    }\n\n    /// @notice Check if msg.sender has the role\n    /// @param role The role to verify\n    function _hasRole(bytes32 role) internal view {\n        require(hasRole(role, msg.sender)); // dev: Access denied.\n    }\n\n    /// @notice Creates a new token affinity\n    /// @dev This will be called by a priviledged address. It will allow to create new affinities. May need to add a\n    /// remove affinity function as well.\n    /// @param tokenTicker The token ticker of the affinity\n    /// @param feedAddress The price feed address\n    function createAffinity(string calldata tokenTicker, address feedAddress) external override onlyAdmin {\n        _affinities[tokenTicker] = feedAddress;\n        affinities.push(tokenTicker);\n    }\n\n    /// @notice Sets the elder mint price\n    /// @dev Can only be called by an admin address\n    /// @param price The new elder mint price\n    function setElderMintPrice(uint256 price) external override onlyAdmin {\n        elderMintPrice = price;\n    }\n\n    /// @notice Mints an elder spirit\n    /// @dev For now only race, class, and token (affinity) are needed. This will change. The race and class ids will\n    /// probably be public constants defined in the crypto champions contract, this is subject to change.\n    /// @param raceId The race id\n    /// @param classId The class id\n    /// @param affinity The affinity of the minted hero\n    /// @return The elder spirit id\n    function mintElderSpirit(\n        uint256 raceId,\n        uint256 classId,\n        string calldata affinity\n    ) external payable override returns (uint256) {\n        require(currentPhase == Phase.MINT_ELDER); // dev: Can only mint elders in phase one\n        require(eldersInGame < MAX_NUMBER_OF_ELDERS); // dev: Max number of elders already minted.\n        require(msg.value >= elderMintPrice); // dev: Insufficient payment.\n        require(_affinities[affinity] != address(0)); // dev: Affinity does not exist.\n\n        // Generate the elderId and make sure it doesn't already exists\n        uint256 elderId = eldersInGame.add(1);\n        assert(_elderOwners[elderId] == address(0)); // dev: Elder with id already has owner.\n        assert(_elderSpirits[elderId].valid == false); // dev: Elder spirit with id has already been generated.\n\n        // Get the price data of affinity\n        int256 affinityPrice;\n        (, affinityPrice, , , ) = AggregatorV3Interface(_affinities[affinity]).latestRoundData();\n\n        // Create the elder spirit\n        ElderSpirit memory elder;\n        elder.valid = true;\n        elder.raceId = raceId;\n        elder.classId = classId;\n        elder.affinity = affinity;\n        elder.affinityPrice = affinityPrice;\n\n        // Mint the NFT\n        _mint(_msgSender(), elderId, 1, \"\"); // TODO: give the URI\n\n        // Assign the elder id with the owner and its spirit\n        _elderOwners[elderId] = _msgSender();\n        _elderSpirits[elderId] = elder;\n\n        // Increment elders minted\n        eldersInGame = eldersInGame.add(1);\n\n        // Refund if user sent too much\n        _refundSender(elderMintPrice);\n\n        emit ElderSpiritMinted(elderId, _msgSender());\n\n        return elderId;\n    }\n\n    /// @notice Gets the elder owner for the given elder id\n    /// @param elderId The elder id\n    /// @return The owner of the elder\n    function getElderOwner(uint256 elderId) public view override isValidElderSpiritId(elderId) returns (address) {\n        require(_elderOwners[elderId] != address(0)); // dev: Given elder id has not been minted.\n\n        return _elderOwners[elderId];\n    }\n\n    /// @notice Mints a hero based on an elder spirit\n    /// @param elderId The id of the elder spirit this hero is based on\n    /// @return The hero id\n    function mintHero(uint256 elderId, string calldata heroName)\n        external\n        payable\n        override\n        isValidElderSpiritId(elderId)\n        returns (uint256)\n    {\n        require(currentPhase == Phase.MINT_HERO); //dev: Can only mint hero in phase 2.\n        require(_elderSpirits[elderId].valid); // dev: Elder with id doesn't exists or not valid.\n\n        require(_canMintHero(elderId)); // dev: Can't mint hero. Too mnay heroes minted for elder.\n\n        uint256 mintPrice = getHeroMintPrice(currentRound, elderId);\n        require(msg.value >= mintPrice); // dev: Insufficient payment.\n\n        // Generate the hero id\n        uint256 heroId = heroesMinted.add(1) + MAX_NUMBER_OF_ELDERS;\n        assert(_heroOwners[heroId] == address(0)); // dev: Hero with id already has an owner.\n        assert(_heroes[heroId].valid == false); // dev: Hero with id has already been generated.\n\n        // Create the hero\n        Hero memory hero;\n        hero.valid = true;\n        hero.name = heroName;\n        hero.roundMinted = currentRound;\n        hero.elderId = elderId;\n        hero.raceId = _elderSpirits[elderId].raceId;\n        hero.classId = _elderSpirits[elderId].classId;\n        hero.affinity = _elderSpirits[elderId].affinity;\n        _heroes[heroId] = hero;\n\n        // Request the random number and set hero attributes\n        bytes32 requestId = _getRandomNumber(heroId);\n        _heroRandomRequest[requestId] = heroId;\n        _trainHero(requestId);\n\n        // Mint the NFT\n        _mint(_msgSender(), heroId, 1, \"\"); // TODO: give the URI\n\n        // Mint in game currency tokens\n        _mint(_msgSender(), IN_GAME_CURRENCY_ID, NUM_TOKENS_MINTED, \"\");\n\n        // Assign the hero id with the owner and with the hero\n        _heroOwners[heroId] = _msgSender();\n\n        // Increment the heroes minted and the elder spawns\n        heroesMinted = heroesMinted.add(1);\n        _roundElderSpawns[currentRound][elderId] = _roundElderSpawns[currentRound][elderId].add(1);\n\n        // Disburse royalties\n        uint256 royaltyFee = mintPrice.mul(HERO_MINT_ROYALTY_PROPORTION).div(10);\n        address seedOwner = _elderOwners[elderId];\n        (bool success, ) = seedOwner.call{ value: royaltyFee }(\"\");\n        require(success, \"Payment failed\");\n        // Remaining 20% kept for contract/Treum\n\n        // Refund if user sent too much\n        _refundSender(mintPrice);\n\n        emit HeroMinted(heroId, _msgSender());\n\n        return heroId;\n    }\n\n    /// @notice Checks to see if a hero can be minted for a given elder\n    /// @dev (n < 4) || (n <= 2 * m)\n    ///     n is number of champions already minted for elder\n    ///     m is number of champions already minted for elder with least amount of champions\n    /// @param elderId The elder id\n    /// @return True if hero can be minted, false otherwise\n    function _canMintHero(uint256 elderId) internal view returns (bool) {\n        // Verify first condition\n        if (_roundElderSpawns[currentRound][elderId] < 4) {\n            return true;\n        }\n\n        // Find the elder with the least amount of heroes minted\n        uint256 smallestElderAmount = _roundElderSpawns[currentRound][elderId];\n        for (uint256 i = 1; i <= eldersInGame; ++i) {\n            if (_roundElderSpawns[currentRound][i] < smallestElderAmount) {\n                smallestElderAmount = _roundElderSpawns[currentRound][i];\n            }\n        }\n\n        return _roundElderSpawns[currentRound][elderId] <= smallestElderAmount.mul(2);\n    }\n\n    /// @notice Sets the hero attributes\n    /// @param requestId The request id that is mapped to a hero\n    function _trainHero(bytes32 requestId) internal isValidHero(_heroRandomRequest[requestId]) {\n        uint256 heroId = _heroRandomRequest[requestId];\n        uint256 randomNumber = _randomResultsVRF[requestId];\n        uint256 newRandomNumber;\n\n        _heroes[heroId].level = 1; // 1 by default\n        (_heroes[heroId].appearance, newRandomNumber) = _rollDice(2, randomNumber); // 1 out of 2\n\n        (_heroes[heroId].trait1, newRandomNumber) = _rollDice(4, newRandomNumber); // 1 out of 4\n        (_heroes[heroId].trait2, newRandomNumber) = _rollDice(4, newRandomNumber); // 1 out of 4\n        (_heroes[heroId].skill1, newRandomNumber) = _rollDice(4, newRandomNumber); // 1 out of 4\n        (_heroes[heroId].skill2, newRandomNumber) = _rollDice(4, newRandomNumber); // 1 out of 4\n\n        (_heroes[heroId].alignment, newRandomNumber) = _rollDice(9, newRandomNumber); // 1 out of 9\n        (_heroes[heroId].background, newRandomNumber) = _rollDice(30, newRandomNumber); // 1 out of 30\n        (_heroes[heroId].hometown, newRandomNumber) = _rollDice(24, newRandomNumber); // 1 out of 24\n        (_heroes[heroId].weather, newRandomNumber) = _rollDice(7, newRandomNumber); // 1 ouf of 7\n\n        (_heroes[heroId].hp, newRandomNumber) = _rollDice(21, newRandomNumber); // Roll 10-30\n        _heroes[heroId].hp = uint8(_heroes[heroId].hp.add(9));\n        (_heroes[heroId].mana, newRandomNumber) = _rollDice(21, newRandomNumber); // Roll 10-30\n        _heroes[heroId].mana = uint8(_heroes[heroId].mana.add(9));\n        (_heroes[heroId].stamina, newRandomNumber) = _rollDice(31, newRandomNumber); // Roll 10-40\n        _heroes[heroId].stamina = uint8(_heroes[heroId].stamina.add(9));\n\n        (_heroes[heroId].strength, newRandomNumber) = _rollDice(16, newRandomNumber); // Roll 3-18\n        _heroes[heroId].strength = uint8(_heroes[heroId].strength.add(2));\n        (_heroes[heroId].dexterity, newRandomNumber) = _rollDice(16, newRandomNumber); // Roll 3-18\n        _heroes[heroId].dexterity = uint8(_heroes[heroId].dexterity.add(2));\n        (_heroes[heroId].constitution, newRandomNumber) = _rollDice(16, newRandomNumber); // Roll 3-18\n        _heroes[heroId].constitution = uint8(_heroes[heroId].constitution.add(2));\n        (_heroes[heroId].intelligence, newRandomNumber) = _rollDice(16, newRandomNumber); // Roll 3-18\n        _heroes[heroId].intelligence = uint8(_heroes[heroId].intelligence.add(2));\n        (_heroes[heroId].wisdom, newRandomNumber) = _rollDice(16, newRandomNumber); // Roll 3-18\n        _heroes[heroId].wisdom = uint8(_heroes[heroId].wisdom.add(2));\n        (_heroes[heroId].charisma, newRandomNumber) = _rollDice(16, newRandomNumber); // Roll 3-18\n        _heroes[heroId].charisma = uint8(_heroes[heroId].charisma.add(2));\n    }\n\n    /// @notice Simulates rolling dice\n    /// @param maxNumber The max number of the dice (e.g. regular die is 6)\n    /// @param randomNumber The random number\n    /// @return The result of the dice roll and a new random number to use for another dice roll\n    function _rollDice(uint8 maxNumber, uint256 randomNumber) internal pure returns (uint8, uint256) {\n        return (uint8(randomNumber.mod(maxNumber).add(1)), randomNumber.div(10));\n    }\n\n    /// @notice Get the hero owner for the given hero id\n    /// @param heroId The hero id\n    /// @return The owner address\n    function getHeroOwner(uint256 heroId) public view override isValidHero(heroId) returns (address) {\n        require(_heroOwners[heroId] != address(0)); // dev: Given hero id has not been minted.\n\n        return _heroOwners[heroId];\n    }\n\n    /// @notice Disburses the rewards evenly among the heroes of the winning affinity\n    /// @dev This will be called from a priviledged address\n    /// @param winningAffinity The winning affinity token ticker\n    function disburseRewards(string calldata winningAffinity) external override onlyAdmin {}\n\n    /// @notice Burns all the elder spirits in game\n    function burnElders() external override onlyAdmin {\n        require(eldersInGame > 0); // dev: No elders have been minted.\n        for (uint256 i = 1; i <= MAX_NUMBER_OF_ELDERS; ++i) {\n            if (_elderSpirits[i].valid) {\n                _burnElder(i);\n            }\n        }\n\n        // Increment the round\n        currentRound = currentRound.add(1);\n\n        emit ElderSpiritsBurned();\n    }\n\n    /// @notice Burns the elder spirit\n    /// @dev This will only be able to be called by the contract\n    /// @param elderId The elder id\n    function _burnElder(uint256 elderId) internal isValidElderSpiritId(elderId) {\n        require(_elderSpirits[elderId].valid); // dev: Cannot burn elder that does not exist.\n\n        // TODO: need to make sure _elderOwners[elderId] can never be address(0).\n        //     Check recipient before every token send so that we never send to address(0).\n        _burn(_elderOwners[elderId], elderId, 1);\n\n        // Reset elder values for elder id\n        eldersInGame = eldersInGame.sub(1);\n        _elderOwners[elderId] = address(0);\n        _elderSpirits[elderId].valid = false;\n    }\n\n    /// @notice Burns the hero for a refund\n    /// @dev This will only be able to be called from the owner of the hero\n    /// @param heroId The hero id to burn\n    function burnHero(uint256 heroId) external override isValidHero(heroId) {\n        require(_heroes[heroId].valid); // dev: Cannot burn hero that does not exist.\n        require(_heroOwners[heroId] == _msgSender()); // dev: Cannot burn hero that is not yours.\n\n        _burn(_heroOwners[heroId], heroId, 1);\n\n        // Decrement the amount of spawns for the hero's elder\n        uint256 elderId = _heroes[heroId].elderId;\n        uint256 heroRound = _heroes[heroId].roundMinted;\n        _roundElderSpawns[heroRound][elderId] = _roundElderSpawns[heroRound][elderId].sub(1);\n\n        // Reset hero values for hero id\n        _heroOwners[heroId] = address(0);\n        _heroes[heroId].valid = false;\n\n        emit HeroBurned(heroId);\n    }\n\n    /// @notice Gets the minting price of a hero based on specified elder spirit\n    /// @param round The round of the hero to be minted\n    /// @param elderId The elder id for which the hero will be based on\n    /// @return The hero mint price\n    function getHeroMintPrice(uint256 round, uint256 elderId)\n        public\n        view\n        override\n        isValidElderSpiritId(elderId)\n        returns (uint256)\n    {\n        require(round <= currentRound); // dev: Cannot get price round has not started.\n        uint256 heroAmount = _roundElderSpawns[round][elderId].add(1);\n\n        return _priceFormula(heroAmount);\n    }\n\n    /// @notice The bounding curve function that calculates price for the new supply\n    /// @dev price = 0.02*(heroes minted) + 0.1\n    /// @param newSupply The new supply after a burn or mint\n    /// @return The calculated price\n    function _priceFormula(uint256 newSupply) internal pure returns (uint256) {\n        uint256 price;\n        uint256 base = 1;\n        price = newSupply.mul(10**18).mul(2).div(100);\n        price = price.add(base.mul(10**18).div(10));\n\n        return price;\n    }\n\n    /// @dev Hook function called before every token transfer\n    function _beforeTokenTransfer(\n        address operator,\n        address from,\n        address to,\n        uint256[] memory ids,\n        uint256[] memory amounts,\n        bytes memory data\n    ) internal virtual override {\n        super._beforeTokenTransfer(operator, from, to, ids, amounts, data);\n\n        for (uint256 i = 0; i < ids.length; i++) {\n            // If token is an elder spirit, update owners so can send them royalties\n            if (ids[i] > IN_GAME_CURRENCY_ID && ids[i] <= MAX_NUMBER_OF_ELDERS) {\n                _elderOwners[ids[i]] = payable(to);\n            }\n            if (ids[i] > MAX_NUMBER_OF_ELDERS) {\n                _heroOwners[ids[i]] = to;\n            }\n        }\n    }\n\n    /// @notice Gets the amount of heroes spawn from the elder with the specified id during the specified round\n    /// @param round The round the elder was created\n    /// @param elderId The elder id\n    /// @return The amount of heroes spawned from the elder\n    function getElderSpawnsAmount(uint256 round, uint256 elderId)\n        public\n        view\n        override\n        isValidElderSpiritId(elderId)\n        returns (uint256)\n    {\n        require(round <= currentRound); // dev: Invalid round.\n        return _roundElderSpawns[round][elderId];\n    }\n\n    /// @notice Refunds the sender if they sent too much\n    /// @param cost The cost\n    function _refundSender(uint256 cost) internal {\n        if (msg.value.sub(cost) > 0) {\n            (bool success, ) = msg.sender.call{ value: msg.value.sub(cost) }(\"\");\n            require(success); // dev: Refund failed.\n        }\n    }\n\n    /// @notice Fetches the data of a single elder spirit\n    /// @param elderId The id of the elder being searched for\n    /// @return The elder's attributes in the following order (valid, raceId, classId, affinity)\n    function getElderSpirit(uint256 elderId)\n        external\n        view\n        override\n        isValidElderSpiritId(elderId)\n        returns (\n            bool,\n            uint256,\n            uint256,\n            string memory,\n            int256\n        )\n    {\n        ElderSpirit memory elderSpirit = _elderSpirits[elderId];\n        return (\n            elderSpirit.valid,\n            elderSpirit.raceId,\n            elderSpirit.classId,\n            elderSpirit.affinity,\n            elderSpirit.affinityPrice\n        );\n    }\n\n    /// @notice Hero getter function\n    /// @param heroId The hero id\n    /// @return valid, affinity, affinity price, round minted, elder id\n    function getHeroGameData(uint256 heroId)\n        external\n        view\n        override\n        isValidHero(heroId)\n        returns (\n            bool, // valid\n            string memory, // affinity\n            int256, // affinity price\n            uint256, // round minted\n            uint256 // elder id\n        )\n    {\n        return (\n            _heroes[heroId].valid,\n            _heroes[heroId].affinity,\n            _heroes[heroId].affinityPrice,\n            _heroes[heroId].roundMinted,\n            _heroes[heroId].elderId\n        );\n    }\n\n    /// @notice Hero getter function\n    /// @param heroId The hero id\n    /// @return name, race id, class id, appearance\n    function getHeroVisuals(uint256 heroId)\n        external\n        view\n        override\n        isValidHero(heroId)\n        returns (\n            string memory, // name\n            uint256, // race id\n            uint256, // class id\n            uint8 // appearance\n        )\n    {\n        return (_heroes[heroId].name, _heroes[heroId].raceId, _heroes[heroId].classId, _heroes[heroId].appearance);\n    }\n\n    /// @notice Hero getter function\n    /// @param heroId The hero id\n    /// @return trait 1, trait 2, skill 1, skill 2\n    function getHeroTraitsSkills(uint256 heroId)\n        external\n        view\n        override\n        isValidHero(heroId)\n        returns (\n            uint8, // trait 1\n            uint8, // trait 2\n            uint8, // skill 1\n            uint8 // skill 2\n        )\n    {\n        return (_heroes[heroId].trait1, _heroes[heroId].trait2, _heroes[heroId].skill1, _heroes[heroId].skill2);\n    }\n\n    /// @notice Hero getter function\n    /// @param heroId The hero id\n    /// @return alignment, background, hometown, weather\n    function getHeroLore(uint256 heroId)\n        external\n        view\n        override\n        isValidHero(heroId)\n        returns (\n            uint8, // alignment\n            uint8, // background\n            uint8, // hometown\n            uint8 // weather\n        )\n    {\n        return (\n            _heroes[heroId].alignment,\n            _heroes[heroId].background,\n            _heroes[heroId].hometown,\n            _heroes[heroId].weather\n        );\n    }\n\n    /// @notice Hero getter function\n    /// @param heroId The hero id\n    /// @return level, hp, mana\n    function getHeroVitals(uint256 heroId)\n        external\n        view\n        override\n        isValidHero(heroId)\n        returns (\n            uint8, // level\n            uint8, // hp\n            uint8, // mana\n            uint8 // stamina\n        )\n    {\n        return (_heroes[heroId].level, _heroes[heroId].hp, _heroes[heroId].mana, _heroes[heroId].stamina);\n    }\n\n    /// @notice Hero getter function\n    /// @param heroId The hero id\n    /// @return stamina, strength, dexterity, constitution, intelligence, wisdom, charisma\n    function getHeroStats(uint256 heroId)\n        external\n        view\n        override\n        isValidHero(heroId)\n        returns (\n            uint8, // strength\n            uint8, // dexterity\n            uint8, // constitution\n            uint8, // intelligence\n            uint8, // wisdom\n            uint8 // charisma\n        )\n    {\n        return (\n            _heroes[heroId].strength,\n            _heroes[heroId].dexterity,\n            _heroes[heroId].constitution,\n            _heroes[heroId].intelligence,\n            _heroes[heroId].wisdom,\n            _heroes[heroId].charisma\n        );\n    }\n\n    /// @notice Fetches the feed address for a given affinity\n    /// @param affinity The affinity being searched for\n    /// @return The address of the affinity's feed address\n    function getAffinityFeedAddress(string calldata affinity) external view override returns (address) {\n        return _affinities[affinity];\n    }\n\n    /// @notice Fetches the number of elders currently in the game\n    /// @return The current number of elders in the game\n    function getNumEldersInGame() external view override returns (uint256) {\n        return eldersInGame;\n    }\n\n    /// @notice Declares a winning affinity for a round\n    /// @dev This can only be called by a game admin contract\n    /// @param winningAffinity The affinity that won the game\n    function declareRoundWinner(string calldata winningAffinity) external override onlyGameAdmin {\n        winningAffinitiesByRound.push(winningAffinity);\n    }\n\n    /// @notice Starts a new price game\n    /// @dev This can only be called by the admin of the contract\n    function startNewPriceGame() external override onlyAdmin {\n        address priceWarsFactoryAddress = _minigameFactoryRegistry.getFactory(PRICE_WARS_ID);\n        PriceWarsFactory priceWarsFactory = PriceWarsFactory(priceWarsFactoryAddress);\n        PriceWars priceWar = priceWarsFactory.createPriceWar(address(this));\n        grantRole(ROLE_GAME_ADMIN, address(priceWar));\n        priceWar.startGame();\n    }\n\n    /// @notice Transfers in game currency tokens from one address to another\n    /// @param to The receiving address\n    /// @param amount The amount to transfer\n    function transferInGameTokens(address to, uint256 amount) external override {\n        bytes memory data;\n        safeTransferFrom(msg.sender, to, IN_GAME_CURRENCY_ID, amount, data);\n    }\n\n    /// @notice Transfers in game currency tokens from one address to another.\n    /// @param from The sending address.  Note that the sender must be authorized to transfer funds if the sender is different from the from address.\n    /// @param to The receiving address\n    /// @param amount The amount to transfer\n    function delegatedTransferInGameTokens(\n        address from,\n        address to,\n        uint256 amount\n    ) external override {\n        bytes memory data;\n        safeTransferFrom(from, to, IN_GAME_CURRENCY_ID, amount, data);\n    }\n}\n",
  "sourcePath": "contracts/CryptoChampions.sol",
  "type": "contract"
}