{
  "abi": [
    {
      "inputs": [
        {
          "internalType": "bytes32",
          "name": "keyhash",
          "type": "bytes32"
        },
        {
          "internalType": "address",
          "name": "vrfCoordinator",
          "type": "address"
        },
        {
          "internalType": "address",
          "name": "linkToken",
          "type": "address"
        },
        {
          "internalType": "address",
          "name": "minigameFactoryRegistry",
          "type": "address"
        }
      ],
      "stateMutability": "nonpayable",
      "type": "constructor"
    },
    {
      "anonymous": false,
      "inputs": [
        {
          "indexed": true,
          "internalType": "address",
          "name": "account",
          "type": "address"
        },
        {
          "indexed": true,
          "internalType": "address",
          "name": "operator",
          "type": "address"
        },
        {
          "indexed": false,
          "internalType": "bool",
          "name": "approved",
          "type": "bool"
        }
      ],
      "name": "ApprovalForAll",
      "type": "event"
    },
    {
      "anonymous": false,
      "inputs": [
        {
          "indexed": false,
          "internalType": "uint256",
          "name": "elderId",
          "type": "uint256"
        },
        {
          "indexed": false,
          "internalType": "address",
          "name": "owner",
          "type": "address"
        }
      ],
      "name": "ElderSpiritMinted",
      "type": "event"
    },
    {
      "anonymous": false,
      "inputs": [],
      "name": "ElderSpiritsBurned",
      "type": "event"
    },
    {
      "anonymous": false,
      "inputs": [
        {
          "indexed": false,
          "internalType": "uint256",
          "name": "heroId",
          "type": "uint256"
        }
      ],
      "name": "HeroBurned",
      "type": "event"
    },
    {
      "anonymous": false,
      "inputs": [
        {
          "indexed": false,
          "internalType": "uint256",
          "name": "heroId",
          "type": "uint256"
        },
        {
          "indexed": false,
          "internalType": "address",
          "name": "owner",
          "type": "address"
        }
      ],
      "name": "HeroMinted",
      "type": "event"
    },
    {
      "anonymous": false,
      "inputs": [
        {
          "indexed": true,
          "internalType": "bytes32",
          "name": "role",
          "type": "bytes32"
        },
        {
          "indexed": true,
          "internalType": "bytes32",
          "name": "previousAdminRole",
          "type": "bytes32"
        },
        {
          "indexed": true,
          "internalType": "bytes32",
          "name": "newAdminRole",
          "type": "bytes32"
        }
      ],
      "name": "RoleAdminChanged",
      "type": "event"
    },
    {
      "anonymous": false,
      "inputs": [
        {
          "indexed": true,
          "internalType": "bytes32",
          "name": "role",
          "type": "bytes32"
        },
        {
          "indexed": true,
          "internalType": "address",
          "name": "account",
          "type": "address"
        },
        {
          "indexed": true,
          "internalType": "address",
          "name": "sender",
          "type": "address"
        }
      ],
      "name": "RoleGranted",
      "type": "event"
    },
    {
      "anonymous": false,
      "inputs": [
        {
          "indexed": true,
          "internalType": "bytes32",
          "name": "role",
          "type": "bytes32"
        },
        {
          "indexed": true,
          "internalType": "address",
          "name": "account",
          "type": "address"
        },
        {
          "indexed": true,
          "internalType": "address",
          "name": "sender",
          "type": "address"
        }
      ],
      "name": "RoleRevoked",
      "type": "event"
    },
    {
      "anonymous": false,
      "inputs": [
        {
          "indexed": true,
          "internalType": "address",
          "name": "operator",
          "type": "address"
        },
        {
          "indexed": true,
          "internalType": "address",
          "name": "from",
          "type": "address"
        },
        {
          "indexed": true,
          "internalType": "address",
          "name": "to",
          "type": "address"
        },
        {
          "indexed": false,
          "internalType": "uint256[]",
          "name": "ids",
          "type": "uint256[]"
        },
        {
          "indexed": false,
          "internalType": "uint256[]",
          "name": "values",
          "type": "uint256[]"
        }
      ],
      "name": "TransferBatch",
      "type": "event"
    },
    {
      "anonymous": false,
      "inputs": [
        {
          "indexed": true,
          "internalType": "address",
          "name": "operator",
          "type": "address"
        },
        {
          "indexed": true,
          "internalType": "address",
          "name": "from",
          "type": "address"
        },
        {
          "indexed": true,
          "internalType": "address",
          "name": "to",
          "type": "address"
        },
        {
          "indexed": false,
          "internalType": "uint256",
          "name": "id",
          "type": "uint256"
        },
        {
          "indexed": false,
          "internalType": "uint256",
          "name": "value",
          "type": "uint256"
        }
      ],
      "name": "TransferSingle",
      "type": "event"
    },
    {
      "anonymous": false,
      "inputs": [
        {
          "indexed": false,
          "internalType": "string",
          "name": "value",
          "type": "string"
        },
        {
          "indexed": true,
          "internalType": "uint256",
          "name": "id",
          "type": "uint256"
        }
      ],
      "name": "URI",
      "type": "event"
    },
    {
      "inputs": [],
      "name": "DEFAULT_ADMIN_ROLE",
      "outputs": [
        {
          "internalType": "bytes32",
          "name": "",
          "type": "bytes32"
        }
      ],
      "stateMutability": "view",
      "type": "function"
    },
    {
      "inputs": [],
      "name": "MAX_NUMBER_OF_ELDERS",
      "outputs": [
        {
          "internalType": "uint256",
          "name": "",
          "type": "uint256"
        }
      ],
      "stateMutability": "view",
      "type": "function"
    },
    {
      "inputs": [
        {
          "internalType": "uint256",
          "name": "",
          "type": "uint256"
        }
      ],
      "name": "affinities",
      "outputs": [
        {
          "internalType": "string",
          "name": "",
          "type": "string"
        }
      ],
      "stateMutability": "view",
      "type": "function"
    },
    {
      "inputs": [
        {
          "internalType": "address",
          "name": "account",
          "type": "address"
        },
        {
          "internalType": "uint256",
          "name": "id",
          "type": "uint256"
        }
      ],
      "name": "balanceOf",
      "outputs": [
        {
          "internalType": "uint256",
          "name": "",
          "type": "uint256"
        }
      ],
      "stateMutability": "view",
      "type": "function"
    },
    {
      "inputs": [
        {
          "internalType": "address[]",
          "name": "accounts",
          "type": "address[]"
        },
        {
          "internalType": "uint256[]",
          "name": "ids",
          "type": "uint256[]"
        }
      ],
      "name": "balanceOfBatch",
      "outputs": [
        {
          "internalType": "uint256[]",
          "name": "",
          "type": "uint256[]"
        }
      ],
      "stateMutability": "view",
      "type": "function"
    },
    {
      "inputs": [],
      "name": "burnElders",
      "outputs": [],
      "stateMutability": "nonpayable",
      "type": "function"
    },
    {
      "inputs": [
        {
          "internalType": "uint256",
          "name": "heroId",
          "type": "uint256"
        }
      ],
      "name": "burnHero",
      "outputs": [],
      "stateMutability": "nonpayable",
      "type": "function"
    },
    {
      "inputs": [
        {
          "internalType": "string",
          "name": "tokenTicker",
          "type": "string"
        },
        {
          "internalType": "address",
          "name": "feedAddress",
          "type": "address"
        }
      ],
      "name": "createAffinity",
      "outputs": [],
      "stateMutability": "nonpayable",
      "type": "function"
    },
    {
      "inputs": [],
      "name": "currentPhase",
      "outputs": [
        {
          "internalType": "enum CryptoChampions.Phase",
          "name": "",
          "type": "uint8"
        }
      ],
      "stateMutability": "view",
      "type": "function"
    },
    {
      "inputs": [],
      "name": "currentRound",
      "outputs": [
        {
          "internalType": "uint256",
          "name": "",
          "type": "uint256"
        }
      ],
      "stateMutability": "view",
      "type": "function"
    },
    {
      "inputs": [
        {
          "internalType": "string",
          "name": "winningAffinity",
          "type": "string"
        }
      ],
      "name": "declareRoundWinner",
      "outputs": [],
      "stateMutability": "nonpayable",
      "type": "function"
    },
    {
      "inputs": [
        {
          "internalType": "string",
          "name": "winningAffinity",
          "type": "string"
        }
      ],
      "name": "disburseRewards",
      "outputs": [],
      "stateMutability": "nonpayable",
      "type": "function"
    },
    {
      "inputs": [],
      "name": "elderMintPrice",
      "outputs": [
        {
          "internalType": "uint256",
          "name": "",
          "type": "uint256"
        }
      ],
      "stateMutability": "view",
      "type": "function"
    },
    {
      "inputs": [],
      "name": "eldersInGame",
      "outputs": [
        {
          "internalType": "uint256",
          "name": "",
          "type": "uint256"
        }
      ],
      "stateMutability": "view",
      "type": "function"
    },
    {
      "inputs": [
        {
          "internalType": "string",
          "name": "affinity",
          "type": "string"
        }
      ],
      "name": "getAffinityFeedAddress",
      "outputs": [
        {
          "internalType": "address",
          "name": "",
          "type": "address"
        }
      ],
      "stateMutability": "view",
      "type": "function"
    },
    {
      "inputs": [
        {
          "internalType": "uint256",
          "name": "elderId",
          "type": "uint256"
        }
      ],
      "name": "getElderOwner",
      "outputs": [
        {
          "internalType": "address",
          "name": "",
          "type": "address"
        }
      ],
      "stateMutability": "view",
      "type": "function"
    },
    {
      "inputs": [
        {
          "internalType": "uint256",
          "name": "round",
          "type": "uint256"
        },
        {
          "internalType": "uint256",
          "name": "elderId",
          "type": "uint256"
        }
      ],
      "name": "getElderSpawnsAmount",
      "outputs": [
        {
          "internalType": "uint256",
          "name": "",
          "type": "uint256"
        }
      ],
      "stateMutability": "view",
      "type": "function"
    },
    {
      "inputs": [
        {
          "internalType": "uint256",
          "name": "elderId",
          "type": "uint256"
        }
      ],
      "name": "getElderSpirit",
      "outputs": [
        {
          "internalType": "bool",
          "name": "",
          "type": "bool"
        },
        {
          "internalType": "uint256",
          "name": "",
          "type": "uint256"
        },
        {
          "internalType": "uint256",
          "name": "",
          "type": "uint256"
        },
        {
          "internalType": "string",
          "name": "",
          "type": "string"
        },
        {
          "internalType": "int256",
          "name": "",
          "type": "int256"
        }
      ],
      "stateMutability": "view",
      "type": "function"
    },
    {
      "inputs": [
        {
          "internalType": "uint256",
          "name": "heroId",
          "type": "uint256"
        }
      ],
      "name": "getHeroGameData",
      "outputs": [
        {
          "internalType": "bool",
          "name": "",
          "type": "bool"
        },
        {
          "internalType": "string",
          "name": "",
          "type": "string"
        },
        {
          "internalType": "int256",
          "name": "",
          "type": "int256"
        },
        {
          "internalType": "uint256",
          "name": "",
          "type": "uint256"
        },
        {
          "internalType": "uint256",
          "name": "",
          "type": "uint256"
        }
      ],
      "stateMutability": "view",
      "type": "function"
    },
    {
      "inputs": [
        {
          "internalType": "uint256",
          "name": "heroId",
          "type": "uint256"
        }
      ],
      "name": "getHeroLore",
      "outputs": [
        {
          "internalType": "uint256",
          "name": "",
          "type": "uint256"
        },
        {
          "internalType": "uint256",
          "name": "",
          "type": "uint256"
        },
        {
          "internalType": "uint256",
          "name": "",
          "type": "uint256"
        },
        {
          "internalType": "uint256",
          "name": "",
          "type": "uint256"
        }
      ],
      "stateMutability": "view",
      "type": "function"
    },
    {
      "inputs": [
        {
          "internalType": "uint256",
          "name": "round",
          "type": "uint256"
        },
        {
          "internalType": "uint256",
          "name": "elderId",
          "type": "uint256"
        }
      ],
      "name": "getHeroMintPrice",
      "outputs": [
        {
          "internalType": "uint256",
          "name": "",
          "type": "uint256"
        }
      ],
      "stateMutability": "view",
      "type": "function"
    },
    {
      "inputs": [
        {
          "internalType": "uint256",
          "name": "heroId",
          "type": "uint256"
        }
      ],
      "name": "getHeroOwner",
      "outputs": [
        {
          "internalType": "address",
          "name": "",
          "type": "address"
        }
      ],
      "stateMutability": "view",
      "type": "function"
    },
    {
      "inputs": [
        {
          "internalType": "uint256",
          "name": "heroId",
          "type": "uint256"
        }
      ],
      "name": "getHeroStats",
      "outputs": [
        {
          "internalType": "uint256",
          "name": "",
          "type": "uint256"
        },
        {
          "internalType": "uint256",
          "name": "",
          "type": "uint256"
        },
        {
          "internalType": "uint256",
          "name": "",
          "type": "uint256"
        },
        {
          "internalType": "uint256",
          "name": "",
          "type": "uint256"
        },
        {
          "internalType": "uint256",
          "name": "",
          "type": "uint256"
        },
        {
          "internalType": "uint256",
          "name": "",
          "type": "uint256"
        }
      ],
      "stateMutability": "view",
      "type": "function"
    },
    {
      "inputs": [
        {
          "internalType": "uint256",
          "name": "heroId",
          "type": "uint256"
        }
      ],
      "name": "getHeroTraitsSkills",
      "outputs": [
        {
          "internalType": "uint256",
          "name": "",
          "type": "uint256"
        },
        {
          "internalType": "uint256",
          "name": "",
          "type": "uint256"
        },
        {
          "internalType": "uint256",
          "name": "",
          "type": "uint256"
        },
        {
          "internalType": "uint256",
          "name": "",
          "type": "uint256"
        }
      ],
      "stateMutability": "view",
      "type": "function"
    },
    {
      "inputs": [
        {
          "internalType": "uint256",
          "name": "heroId",
          "type": "uint256"
        }
      ],
      "name": "getHeroVisuals",
      "outputs": [
        {
          "internalType": "string",
          "name": "",
          "type": "string"
        },
        {
          "internalType": "uint256",
          "name": "",
          "type": "uint256"
        },
        {
          "internalType": "uint256",
          "name": "",
          "type": "uint256"
        },
        {
          "internalType": "uint256",
          "name": "",
          "type": "uint256"
        }
      ],
      "stateMutability": "view",
      "type": "function"
    },
    {
      "inputs": [
        {
          "internalType": "uint256",
          "name": "heroId",
          "type": "uint256"
        }
      ],
      "name": "getHeroVitals",
      "outputs": [
        {
          "internalType": "uint256",
          "name": "",
          "type": "uint256"
        },
        {
          "internalType": "uint256",
          "name": "",
          "type": "uint256"
        },
        {
          "internalType": "uint256",
          "name": "",
          "type": "uint256"
        },
        {
          "internalType": "uint256",
          "name": "",
          "type": "uint256"
        }
      ],
      "stateMutability": "view",
      "type": "function"
    },
    {
      "inputs": [],
      "name": "getNumEldersInGame",
      "outputs": [
        {
          "internalType": "uint256",
          "name": "",
          "type": "uint256"
        }
      ],
      "stateMutability": "view",
      "type": "function"
    },
    {
      "inputs": [
        {
          "internalType": "bytes32",
          "name": "role",
          "type": "bytes32"
        }
      ],
      "name": "getRoleAdmin",
      "outputs": [
        {
          "internalType": "bytes32",
          "name": "",
          "type": "bytes32"
        }
      ],
      "stateMutability": "view",
      "type": "function"
    },
    {
      "inputs": [
        {
          "internalType": "bytes32",
          "name": "role",
          "type": "bytes32"
        },
        {
          "internalType": "uint256",
          "name": "index",
          "type": "uint256"
        }
      ],
      "name": "getRoleMember",
      "outputs": [
        {
          "internalType": "address",
          "name": "",
          "type": "address"
        }
      ],
      "stateMutability": "view",
      "type": "function"
    },
    {
      "inputs": [
        {
          "internalType": "bytes32",
          "name": "role",
          "type": "bytes32"
        }
      ],
      "name": "getRoleMemberCount",
      "outputs": [
        {
          "internalType": "uint256",
          "name": "",
          "type": "uint256"
        }
      ],
      "stateMutability": "view",
      "type": "function"
    },
    {
      "inputs": [
        {
          "internalType": "bytes32",
          "name": "role",
          "type": "bytes32"
        },
        {
          "internalType": "address",
          "name": "account",
          "type": "address"
        }
      ],
      "name": "grantRole",
      "outputs": [],
      "stateMutability": "nonpayable",
      "type": "function"
    },
    {
      "inputs": [
        {
          "internalType": "bytes32",
          "name": "role",
          "type": "bytes32"
        },
        {
          "internalType": "address",
          "name": "account",
          "type": "address"
        }
      ],
      "name": "hasRole",
      "outputs": [
        {
          "internalType": "bool",
          "name": "",
          "type": "bool"
        }
      ],
      "stateMutability": "view",
      "type": "function"
    },
    {
      "inputs": [],
      "name": "heroesMinted",
      "outputs": [
        {
          "internalType": "uint256",
          "name": "",
          "type": "uint256"
        }
      ],
      "stateMutability": "view",
      "type": "function"
    },
    {
      "inputs": [
        {
          "internalType": "address",
          "name": "account",
          "type": "address"
        },
        {
          "internalType": "address",
          "name": "operator",
          "type": "address"
        }
      ],
      "name": "isApprovedForAll",
      "outputs": [
        {
          "internalType": "bool",
          "name": "",
          "type": "bool"
        }
      ],
      "stateMutability": "view",
      "type": "function"
    },
    {
      "inputs": [
        {
          "internalType": "uint256",
          "name": "raceId",
          "type": "uint256"
        },
        {
          "internalType": "uint256",
          "name": "classId",
          "type": "uint256"
        },
        {
          "internalType": "string",
          "name": "affinity",
          "type": "string"
        }
      ],
      "name": "mintElderSpirit",
      "outputs": [
        {
          "internalType": "uint256",
          "name": "",
          "type": "uint256"
        }
      ],
      "stateMutability": "payable",
      "type": "function"
    },
    {
      "inputs": [
        {
          "internalType": "uint256",
          "name": "elderId",
          "type": "uint256"
        },
        {
          "internalType": "string",
          "name": "heroName",
          "type": "string"
        }
      ],
      "name": "mintHero",
      "outputs": [
        {
          "internalType": "uint256",
          "name": "",
          "type": "uint256"
        }
      ],
      "stateMutability": "payable",
      "type": "function"
    },
    {
      "inputs": [
        {
          "internalType": "bytes32",
          "name": "requestId",
          "type": "bytes32"
        },
        {
          "internalType": "uint256",
          "name": "randomness",
          "type": "uint256"
        }
      ],
      "name": "rawFulfillRandomness",
      "outputs": [],
      "stateMutability": "nonpayable",
      "type": "function"
    },
    {
      "inputs": [
        {
          "internalType": "bytes32",
          "name": "role",
          "type": "bytes32"
        },
        {
          "internalType": "address",
          "name": "account",
          "type": "address"
        }
      ],
      "name": "renounceRole",
      "outputs": [],
      "stateMutability": "nonpayable",
      "type": "function"
    },
    {
      "inputs": [
        {
          "internalType": "bytes32",
          "name": "role",
          "type": "bytes32"
        },
        {
          "internalType": "address",
          "name": "account",
          "type": "address"
        }
      ],
      "name": "revokeRole",
      "outputs": [],
      "stateMutability": "nonpayable",
      "type": "function"
    },
    {
      "inputs": [
        {
          "internalType": "address",
          "name": "from",
          "type": "address"
        },
        {
          "internalType": "address",
          "name": "to",
          "type": "address"
        },
        {
          "internalType": "uint256[]",
          "name": "ids",
          "type": "uint256[]"
        },
        {
          "internalType": "uint256[]",
          "name": "amounts",
          "type": "uint256[]"
        },
        {
          "internalType": "bytes",
          "name": "data",
          "type": "bytes"
        }
      ],
      "name": "safeBatchTransferFrom",
      "outputs": [],
      "stateMutability": "nonpayable",
      "type": "function"
    },
    {
      "inputs": [
        {
          "internalType": "address",
          "name": "from",
          "type": "address"
        },
        {
          "internalType": "address",
          "name": "to",
          "type": "address"
        },
        {
          "internalType": "uint256",
          "name": "id",
          "type": "uint256"
        },
        {
          "internalType": "uint256",
          "name": "amount",
          "type": "uint256"
        },
        {
          "internalType": "bytes",
          "name": "data",
          "type": "bytes"
        }
      ],
      "name": "safeTransferFrom",
      "outputs": [],
      "stateMutability": "nonpayable",
      "type": "function"
    },
    {
      "inputs": [
        {
          "internalType": "address",
          "name": "operator",
          "type": "address"
        },
        {
          "internalType": "bool",
          "name": "approved",
          "type": "bool"
        }
      ],
      "name": "setApprovalForAll",
      "outputs": [],
      "stateMutability": "nonpayable",
      "type": "function"
    },
    {
      "inputs": [
        {
          "internalType": "uint256",
          "name": "price",
          "type": "uint256"
        }
      ],
      "name": "setElderMintPrice",
      "outputs": [],
      "stateMutability": "nonpayable",
      "type": "function"
    },
    {
      "inputs": [
        {
          "internalType": "enum CryptoChampions.Phase",
          "name": "phase",
          "type": "uint8"
        }
      ],
      "name": "setPhase",
      "outputs": [],
      "stateMutability": "nonpayable",
      "type": "function"
    },
    {
      "inputs": [],
      "name": "startNewPriceGame",
      "outputs": [],
      "stateMutability": "nonpayable",
      "type": "function"
    },
    {
      "inputs": [
        {
          "internalType": "bytes4",
          "name": "interfaceId",
          "type": "bytes4"
        }
      ],
      "name": "supportsInterface",
      "outputs": [
        {
          "internalType": "bool",
          "name": "",
          "type": "bool"
        }
      ],
      "stateMutability": "view",
      "type": "function"
    },
    {
      "inputs": [
        {
          "internalType": "uint256",
          "name": "heroId",
          "type": "uint256"
        }
      ],
      "name": "trainHero",
      "outputs": [],
      "stateMutability": "nonpayable",
      "type": "function"
    },
    {
      "inputs": [
        {
          "internalType": "uint256",
          "name": "",
          "type": "uint256"
        }
      ],
      "name": "uri",
      "outputs": [
        {
          "internalType": "string",
          "name": "",
          "type": "string"
        }
      ],
      "stateMutability": "view",
      "type": "function"
    },
    {
      "inputs": [
        {
          "internalType": "uint256",
          "name": "",
          "type": "uint256"
        }
      ],
      "name": "winningAffinitiesByRound",
      "outputs": [
        {
          "internalType": "string",
          "name": "",
          "type": "string"
        }
      ],
      "stateMutability": "view",
      "type": "function"
    }
  ],
  "bytecode": "60c060405260006007556000600a553480156200001b57600080fd5b506040516200534338038062005343833981810160405260808110156200004157600080fd5b5080516020808301516040808501516060909501518151808301909252600382526275726960e81b9382019390935292939092909190839083906200008d6301ffc9a760e01b620001e0565b620000988162000268565b620000aa636cdb3d1360e11b620001e0565b620000bc6303a24d0760e21b620001e0565b506001600160601b0319606092831b811660a052911b16608052620000f1600080516020620053238339815191528062000281565b6200011b600080516020620053038339815191526000805160206200532383398151915262000281565b620001567fae0c232b87105e0a8134f8b92146dcd1d99373d32394be9d70f700f90b3a3db36000805160206200532383398151915262000281565b620001716000805160206200532383398151915233620002d3565b6200018c6000805160206200530383398151915233620002df565b6703c2c9106e218000600e556000600f556006805460ff19169055601293909355505067016345785d8a0000601355601780546001600160a01b0319166001600160a01b039092169190911790556200051e565b6001600160e01b0319808216141562000240576040805162461bcd60e51b815260206004820152601c60248201527f4552433136353a20696e76616c696420696e7465726661636520696400000000604482015290519081900360640190fd5b6001600160e01b0319166000908152600160208190526040909120805460ff19169091179055565b80516200027d90600490602084019062000482565b5050565b600082815260208190526040808220600201549051839285917fbd79b86ffe0ab8e8776151514217cd7cacd52c909f66475c3af44e129f0b00ff9190a460009182526020829052604090912060020155565b6200027d828262000343565b600082815260208190526040902060020154620003069062000300620003bc565b620003c0565b620002d35760405162461bcd60e51b815260040180806020018281038252602f815260200180620052d4602f913960400191505060405180910390fd5b600082815260208181526040909120620003689183906200359c620003ed821b17901c565b156200027d5762000378620003bc565b6001600160a01b0316816001600160a01b0316837f2f8788117e7eff1d82e926ec794901d17c78024a50270940304540a733656f0d60405160405180910390a45050565b3390565b6000828152602081815260408220620003e4918490620035b162000404821b17901c565b90505b92915050565b6000620003e4836001600160a01b0384166200041b565b6000620003e4836001600160a01b0384166200046a565b60006200042983836200046a565b6200046157508154600181810184556000848152602080822090930184905584548482528286019093526040902091909155620003e7565b506000620003e7565b60009081526001919091016020526040902054151590565b828054600181600116156101000203166002900490600052602060002090601f016020900481019282601f10620004c557805160ff1916838001178555620004f5565b82800160010185558215620004f5579182015b82811115620004f5578251825591602001919060010190620004d8565b506200050392915062000507565b5090565b5b8082111562000503576000815560010162000508565b60805160601c60a05160601c614d8262000552600039806129665280614420525080613f0d52806143f15250614d826000f3fe6080604052600436106102ad5760003560e01c806379935fe011610175578063a4aeec53116100dc578063d547741f11610095578063e985e9c51161006f578063e985e9c514611160578063f242432a1461119b578063f32c497414611271578063fbc120f9146112a1576102ad565b8063d547741f146110d3578063e3e983821461110c578063e5b0a99314611136576102ad565b8063a4aeec5314611013578063ad313c2414611028578063bf61211f14611052578063c03afb5914611067578063ca15c87314611094578063caab7ef8146110be576102ad565b806391d148541161012e57806391d1485414610e5b57806394985ddd14610e945780639d5b82c014610ec45780639e31500814610f48578063a217fddf14610fc3578063a22cb46514610fd8576102ad565b806379935fe014610d65578063835a439814610d7a5780638423b07714610dd75780638a19c8bc14610e015780639010d07c14610e1657806390ded47e14610e46576102ad565b80632f2ff15d116102195780634c52b2a9116101d25780634c52b2a914610b225780634e1273f414610b3757806356b4d76014610cb757806359ca19d314610ce15780636de5135314610d1157806372eda5bb14610d3b576102ad565b80632f2ff15d1461090a57806336568abe1461094357806346e6f13d1461097c57806348772d7914610a33578063498e821914610a835780634c2ed01814610af8576102ad565b8063248a9ca31161026b578063248a9ca31461055457806326d4d15a1461057e57806327e50b18146106155780632eb2c2d6146106415780632ee1f0a01461080f5780632efb88741461088f576102ad565b8062fdd58e146102b257806301ffc9a7146102fd578063055ad42e146103455780630e89341c1461037b5780630fbea8411461041a57806321c2f72a14610494575b600080fd5b3480156102be57600080fd5b506102eb600480360360408110156102d557600080fd5b506001600160a01b0381351690602001356112b6565b60408051918252519081900360200190f35b34801561030957600080fd5b506103316004803603602081101561032057600080fd5b50356001600160e01b031916611328565b604080519115158252519081900360200190f35b34801561035157600080fd5b5061035a61134b565b6040518082600181111561036a57fe5b815260200191505060405180910390f35b34801561038757600080fd5b506103a56004803603602081101561039e57600080fd5b5035611354565b6040805160208082528351818301528351919283929083019185019080838360005b838110156103df5781810151838201526020016103c7565b50505050905090810190601f16801561040c5780820380516001836020036101000a031916815260200191505b509250505060405180910390f35b6102eb6004803603606081101561043057600080fd5b813591602081013591810190606081016040820135600160201b81111561045657600080fd5b82018360208201111561046857600080fd5b803590602001918460018302840111600160201b8311171561048957600080fd5b5090925090506113ec565b3480156104a057600080fd5b506104be600480360360208110156104b757600080fd5b50356116cb565b60405180861515815260200185815260200184815260200180602001838152602001828103825284818151815260200191508051906020019080838360005b838110156105155781810151838201526020016104fd565b50505050905090810190601f1680156105425780820380516001836020036101000a031916815260200191505b50965050505050505060405180910390f35b34801561056057600080fd5b506102eb6004803603602081101561057757600080fd5b50356117f9565b34801561058a57600080fd5b506105f9600480360360208110156105a157600080fd5b810190602081018135600160201b8111156105bb57600080fd5b8201836020820111156105cd57600080fd5b803590602001918460018302840111600160201b831117156105ee57600080fd5b50909250905061180e565b604080516001600160a01b039092168252519081900360200190f35b34801561062157600080fd5b5061063f6004803603602081101561063857600080fd5b5035611848565b005b34801561064d57600080fd5b5061063f600480360360a081101561066457600080fd5b6001600160a01b038235811692602081013590911691810190606081016040820135600160201b81111561069757600080fd5b8201836020820111156106a957600080fd5b803590602001918460208302840111600160201b831117156106ca57600080fd5b9190808060200260200160405190810160405280939291908181526020018383602002808284376000920191909152509295949360208101935035915050600160201b81111561071957600080fd5b82018360208201111561072b57600080fd5b803590602001918460208302840111600160201b8311171561074c57600080fd5b9190808060200260200160405190810160405280939291908181526020018383602002808284376000920191909152509295949360208101935035915050600160201b81111561079b57600080fd5b8201836020820111156107ad57600080fd5b803590602001918460018302840111600160201b831117156107ce57600080fd5b91908080601f016020809104026020016040519081016040528093929190818152602001838380828437600092019190915250929550611994945050505050565b34801561081b57600080fd5b506108396004803603602081101561083257600080fd5b5035611c97565b6040518086151581526020018060200185815260200184815260200183815260200182810382528681815181526020019150805190602001908083836000838110156105155781810151838201526020016104fd565b34801561089b57600080fd5b5061063f600480360360208110156108b257600080fd5b810190602081018135600160201b8111156108cc57600080fd5b8201836020820111156108de57600080fd5b803590602001918460018302840111600160201b831117156108ff57600080fd5b509092509050611d99565b34801561091657600080fd5b5061063f6004803603604081101561092d57600080fd5b50803590602001356001600160a01b0316611db4565b34801561094f57600080fd5b5061063f6004803603604081101561096657600080fd5b50803590602001356001600160a01b0316611e1c565b34801561098857600080fd5b506109a66004803603602081101561099f57600080fd5b5035611e7d565b6040518080602001858152602001848152602001838152602001828103825286818151815260200191508051906020019080838360005b838110156109f55781810151838201526020016109dd565b50505050905090810190601f168015610a225780820380516001836020036101000a031916815260200191505b509550505050505060405180910390f35b348015610a3f57600080fd5b50610a5d60048036036020811015610a5657600080fd5b5035611f73565b604080519485526020850193909352838301919091526060830152519081900360800190f35b6102eb60048036036040811015610a9957600080fd5b81359190810190604081016020820135600160201b811115610aba57600080fd5b820183602082011115610acc57600080fd5b803590602001918460018302840111600160201b83111715610aed57600080fd5b509092509050611fd2565b348015610b0457600080fd5b50610a5d60048036036020811015610b1b57600080fd5b503561253f565b348015610b2e57600080fd5b506102eb61259e565b348015610b4357600080fd5b50610c6760048036036040811015610b5a57600080fd5b810190602081018135600160201b811115610b7457600080fd5b820183602082011115610b8657600080fd5b803590602001918460208302840111600160201b83111715610ba757600080fd5b9190808060200260200160405190810160405280939291908181526020018383602002808284376000920191909152509295949360208101935035915050600160201b811115610bf657600080fd5b820183602082011115610c0857600080fd5b803590602001918460208302840111600160201b83111715610c2957600080fd5b9190808060200260200160405190810160405280939291908181526020018383602002808284376000920191909152509295506125a5945050505050565b60408051602080825283518183015283519192839290830191858101910280838360005b83811015610ca3578181015183820152602001610c8b565b505050509050019250505060405180910390f35b348015610cc357600080fd5b506105f960048036036020811015610cda57600080fd5b5035612691565b348015610ced57600080fd5b506102eb60048036036040811015610d0457600080fd5b50803590602001356126fa565b348015610d1d57600080fd5b506103a560048036036020811015610d3457600080fd5b5035612745565b348015610d4757600080fd5b506105f960048036036020811015610d5e57600080fd5b50356127eb565b348015610d7157600080fd5b506102eb612846565b348015610d8657600080fd5b50610da460048036036020811015610d9d57600080fd5b503561284c565b604080519687526020870195909552858501939093526060850191909152608084015260a0830152519081900360c00190f35b348015610de357600080fd5b50610a5d60048036036020811015610dfa57600080fd5b50356128bc565b348015610e0d57600080fd5b506102eb612919565b348015610e2257600080fd5b506105f960048036036040811015610e3957600080fd5b508035906020013561291f565b348015610e5257600080fd5b506102eb61293e565b348015610e6757600080fd5b5061033160048036036040811015610e7e57600080fd5b50803590602001356001600160a01b0316612943565b348015610ea057600080fd5b5061063f60048036036040811015610eb757600080fd5b508035906020013561295b565b348015610ed057600080fd5b5061063f60048036036040811015610ee757600080fd5b810190602081018135600160201b811115610f0157600080fd5b820183602082011115610f1357600080fd5b803590602001918460018302840111600160201b83111715610f3457600080fd5b9193509150356001600160a01b03166129e2565b348015610f5457600080fd5b5061063f60048036036020811015610f6b57600080fd5b810190602081018135600160201b811115610f8557600080fd5b820183602082011115610f9757600080fd5b803590602001918460018302840111600160201b83111715610fb857600080fd5b509092509050612a84565b348015610fcf57600080fd5b506102eb612aef565b348015610fe457600080fd5b5061063f60048036036040811015610ffb57600080fd5b506001600160a01b0381351690602001351515612af4565b34801561101f57600080fd5b5061063f612be3565b34801561103457600080fd5b5061063f6004803603602081101561104b57600080fd5b5035612c79565b34801561105e57600080fd5b506102eb613055565b34801561107357600080fd5b5061063f6004803603602081101561108a57600080fd5b503560ff1661305b565b3480156110a057600080fd5b506102eb600480360360208110156110b757600080fd5b5035613092565b3480156110ca57600080fd5b506102eb6130a9565b3480156110df57600080fd5b5061063f600480360360408110156110f657600080fd5b50803590602001356001600160a01b03166130af565b34801561111857600080fd5b5061063f6004803603602081101561112f57600080fd5b5035613108565b34801561114257600080fd5b506103a56004803603602081101561115957600080fd5b5035613124565b34801561116c57600080fd5b506103316004803603604081101561118357600080fd5b506001600160a01b0381358116916020013516613131565b3480156111a757600080fd5b5061063f600480360360a08110156111be57600080fd5b6001600160a01b03823581169260208101359091169160408201359160608101359181019060a081016080820135600160201b8111156111fd57600080fd5b82018360208201111561120f57600080fd5b803590602001918460018302840111600160201b8311171561123057600080fd5b91908080601f01602080910402602001604051908101604052809392919081815260200183838082843760009201919091525092955061315f945050505050565b34801561127d57600080fd5b506102eb6004803603604081101561129457600080fd5b508035906020013561332a565b3480156112ad57600080fd5b5061063f61338f565b60006001600160a01b0383166112fd5760405162461bcd60e51b815260040180806020018281038252602b815260200180614af6602b913960400191505060405180910390fd5b5060008181526002602090815260408083206001600160a01b03861684529091529020545b92915050565b6001600160e01b0319811660009081526001602052604090205460ff165b919050565b60065460ff1681565b60048054604080516020601f60026000196101006001881615020190951694909404938401819004810282018101909252828152606093909290918301828280156113e05780601f106113b5576101008083540402835291602001916113e0565b820191906000526020600020905b8154815290600101906020018083116113c357829003601f168201915b50505050509050919050565b60008060065460ff16600181111561140057fe5b1461140a57600080fd5b600780541061141857600080fd5b600e5434101561142757600080fd5b60006001600160a01b0316601084846040518083838082843791909101948552505060405192839003602001909220546001600160a01b031692909214159150611472905057600080fd5b6007546000906114839060016135c6565b6000818152600860205260409020549091506001600160a01b0316156114a557fe5b60008181526009602052604090205460ff16156114be57fe5b600060108585604051808383808284379190910194855250506040805193849003602001842054633fabe5a360e21b855290516001600160a01b039091169363feaf968c93506004808201935060a09291829003018186803b15801561152357600080fd5b505afa158015611537573d6000803e3d6000fd5b505050506040513d60a081101561154d57600080fd5b5060200151905061155c61479f565b60018152602080820189905260408083018990528051601f88018390048302810183019091528681529087908790819084018382808284376000920191909152505050506060820152608081018290526115cf6115b7613620565b84600160405180602001604052806000815250613624565b6115d7613620565b600084815260086020908152604080832080546001600160a01b0319166001600160a01b03959095169490941790935560098152908290208351815460ff19169015151781558382015160018201559183015160028301556060830151805184939261164a9260038501929101906147d0565b50608091909101516004909101556007546116669060016135c6565b600755600e546116759061372c565b7f3560f0337e62819199860ba21b425b8bde9a01fa6e514dd58ab6edf7daf1d1f18361169f613620565b604080519283526001600160a01b0390911660208301528051918290030190a150909695505050505050565b600080600060606000856000811180156116e6575060078111155b6116ef57600080fd5b6116f761479f565b600088815260096020908152604091829020825160a081018452815460ff1615158152600180830154828501526002808401548387015260038401805487516101009482161594909402600019011691909104601f8101869004860283018601909652858252919492936060860193919291908301828280156117bb5780601f10611790576101008083540402835291602001916117bb565b820191906000526020600020905b81548152906001019060200180831161179e57829003601f168201915b50505091835250506004919091015460209182015281519082015160408301516060840151608090940151929c919b50995091975095509350505050565b60009081526020819052604090206002015490565b6000601083836040518083838082843791909101948552505060405192839003602001909220546001600160a01b03169250505092915050565b806007811161185657600080fd5b6000818152600c602052604090205460ff1661187157600080fd5b6000828152600c602052604090205460ff1661188c57600080fd5b611894613620565b6000838152600b60205260409020546001600160a01b039081169116146118ba57600080fd5b6000828152600b60205260409020546118de906001600160a01b031683600161379d565b6000828152600c602090815260408083206005810154600490910154808552600d84528285208286529093529220546119189060016138d0565b6000828152600d60209081526040808320868452825280832093909355868252600b815282822080546001600160a01b0319169055600c815290829020805460ff19169055815186815291517f76126f33d318abe88f8b82c5136b7e5a52091ab897679a40f612d7590adfc9979281900390910190a150505050565b81518351146119d45760405162461bcd60e51b8152600401808060200182810382526028815260200180614cd56028913960400191505060405180910390fd5b6001600160a01b038416611a195760405162461bcd60e51b8152600401808060200182810382526025815260200180614b9e6025913960400191505060405180910390fd5b611a21613620565b6001600160a01b0316856001600160a01b03161480611a4c5750611a4c85611a47613620565b613131565b611a875760405162461bcd60e51b8152600401808060200182810382526032815260200180614bc36032913960400191505060405180910390fd5b6000611a91613620565b9050611aa181878787878761392d565b60005b8451811015611ba7576000858281518110611abb57fe5b602002602001015190506000858381518110611ad357fe5b60200260200101519050611b40816040518060600160405280602a8152602001614c38602a91396002600086815260200190815260200160002060008d6001600160a01b03166001600160a01b0316815260200190815260200160002054613a3f9092919063ffffffff16565b60008381526002602090815260408083206001600160a01b038e811685529252808320939093558a1681522054611b7790826135c6565b60009283526002602090815260408085206001600160a01b038c1686529091529092209190915550600101611aa4565b50846001600160a01b0316866001600160a01b0316826001600160a01b03167f4a39dc06d4c0dbc64b70af90fd698a233a518aa5d07e595d983b8c0526c8f7fb8787604051808060200180602001838103835285818151815260200191508051906020019060200280838360005b83811015611c2d578181015183820152602001611c15565b50505050905001838103825284818151815260200191508051906020019060200280838360005b83811015611c6c578181015183820152602001611c54565b5050505090500194505050505060405180910390a4611c8f818787878787613ad6565b505050505050565b6000606060008060008560078111611cae57600080fd5b6000818152600c602052604090205460ff16611cc957600080fd5b6000878152600c602090815260409182902080546003820154600483015460058401546002948501805488516101006001831615026000190190911696909604601f810188900488028701880190985287865260ff909416969395929491939092869190830182828015611d7e5780601f10611d5357610100808354040283529160200191611d7e565b820191906000526020600020905b815481529060010190602001808311611d6157829003601f168201915b50505050509350955095509550955095505091939590929450565b611db0600080516020614bf5833981519152613d4c565b5050565b600082815260208190526040902060020154611dd790611dd2613620565b612943565b611e125760405162461bcd60e51b815260040180806020018281038252602f815260200180614ac7602f913960400191505060405180910390fd5b611db08282613d5f565b611e24613620565b6001600160a01b0316816001600160a01b031614611e735760405162461bcd60e51b815260040180806020018281038252602f815260200180614d1e602f913960400191505060405180910390fd5b611db08282613dc8565b606060008060008460078111611e9257600080fd5b6000818152600c602052604090205460ff16611ead57600080fd5b6000868152600c6020908152604091829020600681015460078201546008830154600193840180548751600296821615610100026000190190911695909504601f8101879004870286018701909752868552959294919390929091869190830182828015611f5c5780601f10611f3157610100808354040283529160200191611f5c565b820191906000526020600020905b815481529060010190602001808311611f3f57829003601f168201915b505050505093509450945094509450509193509193565b6000806000808460078111611f8757600080fd5b6000818152600c602052604090205460ff16611fa257600080fd5b50505060009283525050600c60205260409020601181015460128201546013830154601490930154919390929190565b600083600081118015611fe6575060078111155b611fef57600080fd5b600160065460ff16600181111561200257fe5b1461200c57600080fd5b60008581526009602052604090205460ff1661202757600080fd5b61203085613e31565b61203957600080fd5b6000612047600f548761332a565b90508034101561205657600080fd5b600060076120706001600a546135c690919063ffffffff16565b016000818152600b60205260409020549091506001600160a01b03161561209357fe5b6000818152600c602052604090205460ff16156120ac57fe5b6120b461484e565b60018152604080516020601f8901819004810282018101909252878152908890889081908401838280828437600081840152601f19601f820116905080830192505050505050508160200181905250600f54816080018181525050878160a001818152505060096000898152602001908152602001600020600101548160c001818152505060096000898152602001908152602001600020600201548160e0018181525050600960008981526020019081526020016000206003018054600181600116156101000203166002900480601f0160208091040260200160405190810160405280929190818152602001828054600181600116156101000203166002900480156122035780601f106121d857610100808354040283529160200191612203565b820191906000526020600020905b8154815290600101906020018083116121e657829003601f168201915b50505050506040828101919091526000838152600c60209081529190208251815460ff191690151517815581830151805184936122479260018501929101906147d0565b50604082015180516122639160028401916020909101906147d0565b50606082015160038201556080820151600482015560a0820151600582015560c0820151600682015560e0820151600782015561010082015160088201556101208201516009820155610140820151600a820155610160820151600b820155610180820151600c8201556101a0820151600d8201556101c0820151600e8201556101e0820151600f820155610200820151601082015561022082015160118201556102408201516012820155610260820151601382015561028082015160148201556102a082015160158201556102c082015160168201556102e082015160178201556103008201516018820155610320820151601982015561034090910151601a90910155600061237483613f06565b600084815260146020526040902081905590506123926115b7613620565b61239a613620565b6000848152600b6020526040902080546001600160a01b0319166001600160a01b0392909216919091179055600a546123d49060016135c6565b600a55600f546000908152600d602090815260408083208c84529091529020546123ff9060016135c6565b600f546000908152600d602090815260408083208d8452909152812091909155612435600a61242f876008613fbe565b90614017565b60008b8152600860205260408082205490519293506001600160a01b031691829084908381818185875af1925050503d8060008114612490576040519150601f19603f3d011682016040523d82523d6000602084013e612495565b606091505b50509050806124dc576040805162461bcd60e51b815260206004820152600e60248201526d14185e5b595b9d0819985a5b195960921b604482015290519081900360640190fd5b6124e58761372c565b7ff34a510082f5a02e39555458564800fc1fe73bfd8d3aa07cbf063fe662e7657e8661250f613620565b604080519283526001600160a01b0390911660208301528051918290030190a150939a9950505050505050505050565b600080600080846007811161255357600080fd5b6000818152600c602052604090205460ff1661256e57600080fd5b50505060009283525050600c60205260409020600d810154600e820154600f830154601090930154919390929190565b6007545b90565b606081518351146125e75760405162461bcd60e51b8152600401808060200182810382526029815260200180614cac6029913960400191505060405180910390fd5b6060835167ffffffffffffffff8111801561260157600080fd5b5060405190808252806020026020018201604052801561262b578160200160208202803683370190505b50905060005b84518110156126895761266a85828151811061264957fe5b602002602001015185838151811061265d57fe5b60200260200101516112b6565b82828151811061267657fe5b6020908102919091010152600101612631565b509392505050565b600081600781116126a157600080fd5b6000818152600c602052604090205460ff166126bc57600080fd5b6000838152600b60205260409020546001600160a01b03166126dd57600080fd5b50506000908152600b60205260409020546001600160a01b031690565b60008160008111801561270e575060078111155b61271757600080fd5b600f5484111561272657600080fd5b50506000918252600d6020908152604080842092845291905290205490565b6016818154811061275257fe5b600091825260209182902001805460408051601f60026000196101006001871615020190941693909304928301859004850281018501909152818152935090918301828280156127e35780601f106127b8576101008083540402835291602001916127e3565b820191906000526020600020905b8154815290600101906020018083116127c657829003601f168201915b505050505081565b6000816000811180156127ff575060078111155b61280857600080fd5b6000838152600860205260409020546001600160a01b031661282957600080fd5b50506000908152600860205260409020546001600160a01b031690565b600e5481565b600080600080600080866007811161286357600080fd5b6000818152600c602052604090205460ff1661287e57600080fd5b50505060009485525050600c60205250506040902060158101546016820154601783015460188401546019850154601a909501549395929491939092565b60008060008084600781116128d057600080fd5b6000818152600c602052604090205460ff166128eb57600080fd5b50505060009283525050600c602081905260409091206009810154600a820154600b83015492909301549093565b600f5481565b6000828152602081905260408120612937908361407e565b9392505050565b600781565b600082815260208190526040812061293790836135b1565b336001600160a01b037f000000000000000000000000000000000000000000000000000000000000000016146129d8576040805162461bcd60e51b815260206004820152601f60248201527f4f6e6c7920565246436f6f7264696e61746f722063616e2066756c66696c6c00604482015290519081900360640190fd5b611db0828261408a565b6129f9600080516020614bf5833981519152613d4c565b8060108484604051808383808284379190910194855250506040519283900360200190922080546001600160a01b03949094166001600160a01b031990941693909317909255505060118054600181018255600091909152612a7e907f31ecc21a745e3968a04e9570e4425bc18fa8019c68028196b546d1669c200c6801848461491a565b50505050565b612aad7fae0c232b87105e0a8134f8b92146dcd1d99373d32394be9d70f700f90b3a3db3613d4c565b60168054600181018255600091909152612aea907fd833147d7dc355ba459fc788f669e58cfaf9dc25ddcd0702e87d69c7b512428901838361491a565b505050565b600081565b816001600160a01b0316612b06613620565b6001600160a01b03161415612b4c5760405162461bcd60e51b8152600401808060200182810382526029815260200180614c836029913960400191505060405180910390fd5b8060036000612b59613620565b6001600160a01b03908116825260208083019390935260409182016000908120918716808252919093529120805460ff191692151592909217909155612b9d613620565b6001600160a01b03167f17307eab39ab6107e8899845ad3d59bd9653f200f220920489ca2b5937696c318360405180821515815260200191505060405180910390a35050565b612bfa600080516020614bf5833981519152613d4c565b600060075411612c0957600080fd5b60015b60078111612c3c5760008181526009602052604090205460ff1615612c3457612c348161409c565b600101612c0c565b50600f54612c4b9060016135c6565b600f556040517f0143b2c36fac98f86168603d28d499bde9ce0367d41e111cef9f2ecbc9eeabfc90600090a1565b8060078111612c8757600080fd5b6000818152600c602052604090205460ff16612ca257600080fd5b60008281526014602052604090205480612cbb57600080fd5b60008181526015602052604090205480612cd457600080fd5b6000848152600c602052604081206001601190910155612cf5600283614138565b6000878152600c60205260409020600801919091559050612d17600482614138565b6000878152600c60205260409020600901919091559050612d39600482614138565b6000878152600c60205260409020600a01919091559050612d5b600482614138565b6000878152600c60205260409020600b01919091559050612d7d600482614138565b6000878152600c6020819052604090912001919091559050612da0600982614138565b6000878152600c60205260409020600d01919091559050612dc2601e82614138565b6000878152600c60205260409020600e01919091559050612de4601882614138565b6000878152600c60205260409020600f01919091559050612e06600582614138565b6000878152600c60205260409020601001919091559050612e28601582614138565b6000878152600c602052604090206012018290559150612e499060096135c6565b6000868152600c6020526040902060120155612e66601582614138565b6000878152600c602052604090206013018290559150612e879060096135c6565b6000868152600c6020526040902060130155612ea4601f82614138565b6000878152600c602052604090206014018290559150612ec59060096135c6565b6000868152600c6020526040902060140155612ee2601082614138565b6000878152600c602052604090206015018290559150612f039060026135c6565b6000868152600c6020526040902060150155612f20601082614138565b6000878152600c602052604090206016018290559150612f419060026135c6565b6000868152600c6020526040902060160155612f5e601082614138565b6000878152600c602052604090206017018290559150612f7f9060026135c6565b6000868152600c6020526040902060170155612f9c601082614138565b6000878152600c602052604090206018018290559150612fbd9060026135c6565b6000868152600c6020526040902060180155612fda601082614138565b6000878152600c602052604090206019018290559150612ffb9060026135c6565b6000868152600c6020526040902060190155613018601082614138565b6000878152600c60205260409020601a0182905591506130399060026135c6565b6000958652600c6020526040909520601a019490945550505050565b60075481565b613072600080516020614bf5833981519152613d4c565b6006805482919060ff19166001838181111561308a57fe5b021790555050565b60008181526020819052604081206113229061415e565b600a5481565b6000828152602081905260409020600201546130cd90611dd2613620565b611e735760405162461bcd60e51b8152600401808060200182810382526030815260200180614b6e6030913960400191505060405180910390fd5b61311f600080516020614bf5833981519152613d4c565b600e55565b6011818154811061275257fe5b6001600160a01b03918216600090815260036020908152604080832093909416825291909152205460ff1690565b6001600160a01b0384166131a45760405162461bcd60e51b8152600401808060200182810382526025815260200180614b9e6025913960400191505060405180910390fd5b6131ac613620565b6001600160a01b0316856001600160a01b031614806131d257506131d285611a47613620565b61320d5760405162461bcd60e51b8152600401808060200182810382526029815260200180614b456029913960400191505060405180910390fd5b6000613217613620565b905061323781878761322888614169565b61323188614169565b8761392d565b61327e836040518060600160405280602a8152602001614c38602a913960008781526002602090815260408083206001600160a01b038d1684529091529020549190613a3f565b60008581526002602090815260408083206001600160a01b038b811685529252808320939093558716815220546132b590846135c6565b60008581526002602090815260408083206001600160a01b03808b168086529184529382902094909455805188815291820187905280518a8416938616927fc3d58168c5ae7397731d063d5bbf3d657854427343f4c083240f7aacaa2d0f6292908290030190a4611c8f8187878787876141ad565b60008160008111801561333e575060078111155b61334757600080fd5b600f5484111561335657600080fd5b6000848152600d6020908152604080832086845290915281205461337b9060016135c6565b90506133868161431e565b95945050505050565b6133a6600080516020614bf5833981519152613d4c565b601754604080518082018252600a81526950524943455f5741525360b01b60208083019182529251636cadcd7960e11b8152600481019384528251602482015282516000956001600160a01b03169463d95b9af2949390928392604490910191908083838b5b8381101561342457818101518382015260200161340c565b50505050905090810190601f1680156134515780820380516001836020036101000a031916815260200191505b5092505050602060405180830381600087803b15801561347057600080fd5b505af1158015613484573d6000803e3d6000fd5b505050506040513d602081101561349a57600080fd5b5051604080516372d7f66560e11b8152306004820152905191925082916000916001600160a01b0384169163e5afecca9160248082019260209290919082900301818787803b1580156134ec57600080fd5b505af1158015613500573d6000803e3d6000fd5b505050506040513d602081101561351657600080fd5b505190506135447fae0c232b87105e0a8134f8b92146dcd1d99373d32394be9d70f700f90b3a3db382611db4565b806001600160a01b031663d65ab5f26040518163ffffffff1660e01b8152600401600060405180830381600087803b15801561357f57600080fd5b505af1158015613593573d6000803e3d6000fd5b50505050505050565b6000612937836001600160a01b038416614370565b6000612937836001600160a01b0384166143ba565b600082820183811015612937576040805162461bcd60e51b815260206004820152601b60248201527f536166654d6174683a206164646974696f6e206f766572666c6f770000000000604482015290519081900360640190fd5b3390565b6001600160a01b0384166136695760405162461bcd60e51b8152600401808060200182810382526021815260200180614cfd6021913960400191505060405180910390fd5b6000613673613620565b90506136858160008761322888614169565b60008481526002602090815260408083206001600160a01b03891684529091529020546136b290846135c6565b60008581526002602090815260408083206001600160a01b03808b16808652918452828520959095558151898152928301889052815190948616927fc3d58168c5ae7397731d063d5bbf3d657854427343f4c083240f7aacaa2d0f6292908290030190a4613725816000878787876141ad565b5050505050565b600061373834836138d0565b111561379a5760003361374b34846138d0565b604051600081818185875af1925050503d8060008114613787576040519150601f19603f3d011682016040523d82523d6000602084013e61378c565b606091505b5050905080611db057600080fd5b50565b6001600160a01b0383166137e25760405162461bcd60e51b8152600401808060200182810382526023815260200180614c156023913960400191505060405180910390fd5b60006137ec613620565b905061381c818560006137fe87614169565b61380787614169565b6040518060200160405280600081525061392d565b61386382604051806060016040528060248152602001614b216024913960008681526002602090815260408083206001600160a01b038b1684529091529020549190613a3f565b60008481526002602090815260408083206001600160a01b03808a16808652918452828520959095558151888152928301879052815193949093908616927fc3d58168c5ae7397731d063d5bbf3d657854427343f4c083240f7aacaa2d0f6292908290030190a450505050565b600082821115613927576040805162461bcd60e51b815260206004820152601e60248201527f536166654d6174683a207375627472616374696f6e206f766572666c6f770000604482015290519081900360640190fd5b50900390565b61393b868686868686611c8f565b60005b835181101561359357600084828151811061395557fe5b602002602001015111801561397e5750600784828151811061397357fe5b602002602001015111155b156139cf57846008600086848151811061399457fe5b6020026020010151815260200190815260200160002060006101000a8154816001600160a01b0302191690836001600160a01b031602179055505b60078482815181106139dd57fe5b60200260200101511115613a375784600b60008684815181106139fc57fe5b6020026020010151815260200190815260200160002060006101000a8154816001600160a01b0302191690836001600160a01b031602179055505b60010161393e565b60008184841115613ace5760405162461bcd60e51b81526004018080602001828103825283818151815260200191508051906020019080838360005b83811015613a93578181015183820152602001613a7b565b50505050905090810190601f168015613ac05780820380516001836020036101000a031916815260200191505b509250505060405180910390fd5b505050900390565b613ae8846001600160a01b03166143d2565b15611c8f57836001600160a01b031663bc197c8187878686866040518663ffffffff1660e01b815260040180866001600160a01b03168152602001856001600160a01b03168152602001806020018060200180602001848103845287818151815260200191508051906020019060200280838360005b83811015613b76578181015183820152602001613b5e565b50505050905001848103835286818151815260200191508051906020019060200280838360005b83811015613bb5578181015183820152602001613b9d565b50505050905001848103825285818151815260200191508051906020019080838360005b83811015613bf1578181015183820152602001613bd9565b50505050905090810190601f168015613c1e5780820380516001836020036101000a031916815260200191505b5098505050505050505050602060405180830381600087803b158015613c4357600080fd5b505af1925050508015613c6857506040513d6020811015613c6357600080fd5b505160015b613cfd57613c746149a3565b80613c7f5750613cc6565b60405162461bcd60e51b8152602060048201818152835160248401528351849391928392604401919085019080838360008315613a93578181015183820152602001613a7b565b60405162461bcd60e51b8152600401808060200182810382526034815260200180614a496034913960400191505060405180910390fd5b6001600160e01b0319811663bc197c8160e01b146135935760405162461bcd60e51b8152600401808060200182810382526028815260200180614a9f6028913960400191505060405180910390fd5b613d568133612943565b61379a57600080fd5b6000828152602081905260409020613d77908261359c565b15611db057613d84613620565b6001600160a01b0316816001600160a01b0316837f2f8788117e7eff1d82e926ec794901d17c78024a50270940304540a733656f0d60405160405180910390a45050565b6000828152602081905260409020613de090826143d8565b15611db057613ded613620565b6001600160a01b0316816001600160a01b0316837ff6391f5c32d9c69d2a47ea670b442974b53935d1edc7fd64eb21e047a839171b60405160405180910390a45050565b600f546000908152600d6020908152604080832084845290915281205460041115613e5e57506001611346565b600f546000908152600d6020908152604080832085845290915290205460015b6007548111613ed357600f546000908152600d60209081526040808320848452909152902054821115613ecb57600f546000908152600d6020908152604080832084845290915290205491505b600101613e7e565b50613edf816002613fbe565b600f546000908152600d602090815260408083208784529091529020541115915050919050565b60006013547f00000000000000000000000000000000000000000000000000000000000000006001600160a01b03166370a08231306040518263ffffffff1660e01b815260040180826001600160a01b0316815260200191505060206040518083038186803b158015613f7857600080fd5b505afa158015613f8c573d6000803e3d6000fd5b505050506040513d6020811015613fa257600080fd5b50511015613faf57600080fd5b611322601254601354846143ed565b600082613fcd57506000611322565b82820282848281613fda57fe5b04146129375760405162461bcd60e51b8152600401808060200182810382526021815260200180614c626021913960400191505060405180910390fd5b600080821161406d576040805162461bcd60e51b815260206004820152601a60248201527f536166654d6174683a206469766973696f6e206279207a65726f000000000000604482015290519081900360640190fd5b81838161407657fe5b049392505050565b60006129378383614597565b60009182526015602052604090912055565b806000811180156140ae575060078111155b6140b757600080fd5b60008281526009602052604090205460ff166140d257600080fd5b6000828152600860205260409020546140f6906001600160a01b031683600161379d565b6007546141049060016138d0565b60075550600090815260086020908152604080832080546001600160a01b031916905560099091529020805460ff19169055565b60008061414583856145fb565b60010161415384600a614017565b915091509250929050565b600061132282614662565b60408051600180825281830190925260609182919060208083019080368337019050509050828160008151811061419c57fe5b602090810291909101015292915050565b6141bf846001600160a01b03166143d2565b15611c8f57836001600160a01b031663f23a6e6187878686866040518663ffffffff1660e01b815260040180866001600160a01b03168152602001856001600160a01b0316815260200184815260200183815260200180602001828103825283818151815260200191508051906020019080838360005b8381101561424e578181015183820152602001614236565b50505050905090810190601f16801561427b5780820380516001836020036101000a031916815260200191505b509650505050505050602060405180830381600087803b15801561429e57600080fd5b505af19250505080156142c357506040513d60208110156142be57600080fd5b505160015b6142cf57613c746149a3565b6001600160e01b0319811663f23a6e6160e01b146135935760405162461bcd60e51b8152600401808060200182810382526028815260200180614a9f6028913960400191505060405180910390fd5b6000806001614345606461242f600261433f88670de0b6b3a7640000613fbe565b90613fbe565b9150614368614361600a61242f84670de0b6b3a7640000613fbe565b83906135c6565b949350505050565b600061437c83836143ba565b6143b257508154600181810184556000848152602080822090930184905584548482528286019093526040902091909155611322565b506000611322565b60009081526001919091016020526040902054151590565b3b151590565b6000612937836001600160a01b038416614666565b60007f00000000000000000000000000000000000000000000000000000000000000006001600160a01b0316634000aea07f000000000000000000000000000000000000000000000000000000000000000085878660405160200180838152602001828152602001925050506040516020818303038152906040526040518463ffffffff1660e01b815260040180846001600160a01b0316815260200183815260200180602001828103825283818151815260200191508051906020019080838360005b838110156144c95781810151838201526020016144b1565b50505050905090810190601f1680156144f65780820380516001836020036101000a031916815260200191505b50945050505050602060405180830381600087803b15801561451757600080fd5b505af115801561452b573d6000803e3d6000fd5b505050506040513d602081101561454157600080fd5b50506000848152600560205260408120546145619086908590309061472c565b60008681526005602052604090205490915061457e9060016135c6565b6000868152600560205260409020556133868582614773565b815460009082106145d95760405162461bcd60e51b8152600401808060200182810382526022815260200180614a7d6022913960400191505060405180910390fd5b8260000182815481106145e857fe5b9060005260206000200154905092915050565b6000808211614651576040805162461bcd60e51b815260206004820152601860248201527f536166654d6174683a206d6f64756c6f206279207a65726f0000000000000000604482015290519081900360640190fd5b81838161465a57fe5b069392505050565b5490565b60008181526001830160205260408120548015614722578354600019808301919081019060009087908390811061469957fe5b90600052602060002001549050808760000184815481106146b657fe5b6000918252602080832090910192909255828152600189810190925260409020908401905586548790806146e657fe5b60019003818190600052602060002001600090559055866001016000878152602001908152602001600020600090556001945050505050611322565b6000915050611322565b60408051602080820196909652808201949094526001600160a01b039290921660608401526080808401919091528151808403909101815260a09092019052805191012090565b604080516020808201949094528082019290925280518083038201815260609092019052805191012090565b6040518060a00160405280600015158152602001600081526020016000815260200160608152602001600081525090565b828054600181600116156101000203166002900490600052602060002090601f016020900481019282601f1061481157805160ff191683800117855561483e565b8280016001018555821561483e579182015b8281111561483e578251825591602001919060010190614823565b5061484a929150614988565b5090565b60405180610360016040528060001515815260200160608152602001606081526020016000815260200160008152602001600081526020016000815260200160008152602001600081526020016000815260200160008152602001600081526020016000815260200160008152602001600081526020016000815260200160008152602001600081526020016000815260200160008152602001600081526020016000815260200160008152602001600081526020016000815260200160008152602001600081525090565b828054600181600116156101000203166002900490600052602060002090601f016020900481019282601f1061495b5782800160ff1982351617855561483e565b8280016001018555821561483e579182015b8281111561483e57823582559160200191906001019061496d565b5b8082111561484a5760008155600101614989565b60e01c90565b600060443d10156149b3576125a2565b600481823e6308c379a06149c7825161499d565b146149d1576125a2565b6040513d600319016004823e80513d67ffffffffffffffff8160248401118184111715614a0157505050506125a2565b82840192508251915080821115614a1b57505050506125a2565b503d83016020828401011115614a33575050506125a2565b601f01601f191681016020016040529150509056fe455243313135353a207472616e7366657220746f206e6f6e2045524331313535526563656976657220696d706c656d656e746572456e756d657261626c655365743a20696e646578206f7574206f6620626f756e6473455243313135353a204552433131353552656365697665722072656a656374656420746f6b656e73416363657373436f6e74726f6c3a2073656e646572206d75737420626520616e2061646d696e20746f206772616e74455243313135353a2062616c616e636520717565727920666f7220746865207a65726f2061646472657373455243313135353a206275726e20616d6f756e7420657863656564732062616c616e6365455243313135353a2063616c6c6572206973206e6f74206f776e6572206e6f7220617070726f766564416363657373436f6e74726f6c3a2073656e646572206d75737420626520616e2061646d696e20746f207265766f6b65455243313135353a207472616e7366657220746f20746865207a65726f2061646472657373455243313135353a207472616e736665722063616c6c6572206973206e6f74206f776e6572206e6f7220617070726f7665642172861495e7b85edac73e3cd5fbb42dd675baadf627720e687bcfdaca025096455243313135353a206275726e2066726f6d20746865207a65726f2061646472657373455243313135353a20696e73756666696369656e742062616c616e636520666f72207472616e73666572536166654d6174683a206d756c7469706c69636174696f6e206f766572666c6f77455243313135353a2073657474696e6720617070726f76616c2073746174757320666f722073656c66455243313135353a206163636f756e747320616e6420696473206c656e677468206d69736d61746368455243313135353a2069647320616e6420616d6f756e7473206c656e677468206d69736d61746368455243313135353a206d696e7420746f20746865207a65726f2061646472657373416363657373436f6e74726f6c3a2063616e206f6e6c792072656e6f756e636520726f6c657320666f722073656c66a2646970667358221220be2cd48f27d0b771ecc739de1b1a4b10494d7b7e17c29d0193739b4b328c8e8064736f6c634300060c0033416363657373436f6e74726f6c3a2073656e646572206d75737420626520616e2061646d696e20746f206772616e742172861495e7b85edac73e3cd5fbb42dd675baadf627720e687bcfdaca0250969f4e1c871d5fdd0aee1cd182666698a4492b24c6832aac230d07b11046af5a89",
  "bytecodeSha1": "da39a3ee5e6b4b0d3255bfef95601890afd80709",
  "compiler": {
    "evm_version": "istanbul",
    "optimizer": {
      "enabled": true,
      "runs": 200
    },
    "version": "0.6.12+commit.27d51765"
  },
  "contractName": "CryptoChampions",
  "language": "Solidity",
  "natspec": {
    "author": "Oozyx",
    "kind": "dev",
    "methods": {
      "balanceOf(address,uint256)": {
        "details": "See {IERC1155-balanceOf}. Requirements: - `account` cannot be the zero address."
      },
      "balanceOfBatch(address[],uint256[])": {
        "details": "See {IERC1155-balanceOfBatch}. Requirements: - `accounts` and `ids` must have the same length."
      },
      "burnElders()": {
        "notice": "Burns all the elder spirits in game"
      },
      "burnHero(uint256)": {
        "details": "This will only be able to be called from the owner of the hero",
        "notice": "Burns the hero for a refund",
        "params": {
          "heroId": "The hero id to burn"
        }
      },
      "createAffinity(string,address)": {
        "details": "This will be called by a priviledged address. It will allow to create new affinities. May need to add a remove affinity function as well.",
        "notice": "Creates a new token affinity",
        "params": {
          "feedAddress": "The price feed address",
          "tokenTicker": "The token ticker of the affinity"
        }
      },
      "declareRoundWinner(string)": {
        "details": "This can only be called by a game admin contract",
        "notice": "Declares a winning affinity for a round",
        "params": {
          "winningAffinity": "The affinity that won the game"
        }
      },
      "disburseRewards(string)": {
        "details": "This will be called from a priviledged address",
        "notice": "Disburses the rewards evenly among the heroes of the winning affinity",
        "params": {
          "winningAffinity": "The winning affinity token ticker"
        }
      },
      "getAffinityFeedAddress(string)": {
        "notice": "Fetches the feed address for a given affinity",
        "params": {
          "affinity": "The affinity being searched for"
        },
        "returns": {
          "_0": "The address of the affinity's feed address"
        }
      },
      "getElderOwner(uint256)": {
        "notice": "Gets the elder owner for the given elder id",
        "params": {
          "elderId": "The elder id"
        },
        "returns": {
          "_0": "The owner of the elder"
        }
      },
      "getElderSpawnsAmount(uint256,uint256)": {
        "notice": "Gets the amount of heroes spawn from the elder with the specified id during the specified round",
        "params": {
          "elderId": "The elder id",
          "round": "The round the elder was created"
        },
        "returns": {
          "_0": "The amount of heroes spawned from the elder"
        }
      },
      "getElderSpirit(uint256)": {
        "notice": "Fetches the data of a single elder spirit",
        "params": {
          "elderId": "The id of the elder being searched for"
        },
        "returns": {
          "_0": "The elder's attributes in the following order (valid, raceId, classId, affinity)"
        }
      },
      "getHeroGameData(uint256)": {
        "notice": "Hero getter function",
        "params": {
          "heroId": "The hero id"
        },
        "returns": {
          "_0": "valid, affinity, affinity price, round minted, elder id"
        }
      },
      "getHeroLore(uint256)": {
        "notice": "Hero getter function",
        "params": {
          "heroId": "The hero id"
        },
        "returns": {
          "_0": "alignment, background, hometown, weather"
        }
      },
      "getHeroMintPrice(uint256,uint256)": {
        "notice": "Gets the minting price of a hero based on specified elder spirit",
        "params": {
          "elderId": "The elder id for which the hero will be based on",
          "round": "The round of the hero to be minted"
        },
        "returns": {
          "_0": "The hero mint price"
        }
      },
      "getHeroOwner(uint256)": {
        "notice": "Get the hero owner for the given hero id",
        "params": {
          "heroId": "The hero id"
        },
        "returns": {
          "_0": "The owner address"
        }
      },
      "getHeroStats(uint256)": {
        "notice": "Hero getter function",
        "params": {
          "heroId": "The hero id"
        },
        "returns": {
          "_0": "stamina, strength, dexterity, constitution, intelligence, wisdom, charisma"
        }
      },
      "getHeroTraitsSkills(uint256)": {
        "notice": "Hero getter function",
        "params": {
          "heroId": "The hero id"
        },
        "returns": {
          "_0": "trait 1, trait 2, skill 1, skill 2"
        }
      },
      "getHeroVisuals(uint256)": {
        "notice": "Hero getter function",
        "params": {
          "heroId": "The hero id"
        },
        "returns": {
          "_0": "name, race id, class id, appearance"
        }
      },
      "getHeroVitals(uint256)": {
        "notice": "Hero getter function",
        "params": {
          "heroId": "The hero id"
        },
        "returns": {
          "_0": "level, hp, mana"
        }
      },
      "getNumEldersInGame()": {
        "notice": "Fetches the number of elders currently in the game",
        "returns": {
          "_0": "The current number of elders in the game"
        }
      },
      "getRoleAdmin(bytes32)": {
        "details": "Returns the admin role that controls `role`. See {grantRole} and {revokeRole}. To change a role's admin, use {_setRoleAdmin}."
      },
      "getRoleMember(bytes32,uint256)": {
        "details": "Returns one of the accounts that have `role`. `index` must be a value between 0 and {getRoleMemberCount}, non-inclusive. Role bearers are not sorted in any particular way, and their ordering may change at any point. WARNING: When using {getRoleMember} and {getRoleMemberCount}, make sure you perform all queries on the same block. See the following https://forum.openzeppelin.com/t/iterating-over-elements-on-enumerableset-in-openzeppelin-contracts/2296[forum post] for more information."
      },
      "getRoleMemberCount(bytes32)": {
        "details": "Returns the number of accounts that have `role`. Can be used together with {getRoleMember} to enumerate all bearers of a role."
      },
      "grantRole(bytes32,address)": {
        "details": "Grants `role` to `account`. If `account` had not been already granted `role`, emits a {RoleGranted} event. Requirements: - the caller must have ``role``'s admin role."
      },
      "hasRole(bytes32,address)": {
        "details": "Returns `true` if `account` has been granted `role`."
      },
      "isApprovedForAll(address,address)": {
        "details": "See {IERC1155-isApprovedForAll}."
      },
      "mintElderSpirit(uint256,uint256,string)": {
        "details": "For now only race, class, and token (affinity) are needed. This will change. The race and class ids will probably be public constants defined in the crypto champions contract, this is subject to change.",
        "notice": "Mints an elder spirit",
        "params": {
          "affinity": "The affinity of the minted hero",
          "classId": "The class id",
          "raceId": "The race id"
        },
        "returns": {
          "_0": "The elder spirit id"
        }
      },
      "mintHero(uint256,string)": {
        "notice": "Mints a hero based on an elder spirit",
        "params": {
          "elderId": "The id of the elder spirit this hero is based on"
        },
        "returns": {
          "_0": "The hero id"
        }
      },
      "renounceRole(bytes32,address)": {
        "details": "Revokes `role` from the calling account. Roles are often managed via {grantRole} and {revokeRole}: this function's purpose is to provide a mechanism for accounts to lose their privileges if they are compromised (such as when a trusted device is misplaced). If the calling account had been granted `role`, emits a {RoleRevoked} event. Requirements: - the caller must be `account`."
      },
      "revokeRole(bytes32,address)": {
        "details": "Revokes `role` from `account`. If `account` had been granted `role`, emits a {RoleRevoked} event. Requirements: - the caller must have ``role``'s admin role."
      },
      "safeBatchTransferFrom(address,address,uint256[],uint256[],bytes)": {
        "details": "See {IERC1155-safeBatchTransferFrom}."
      },
      "safeTransferFrom(address,address,uint256,uint256,bytes)": {
        "details": "See {IERC1155-safeTransferFrom}."
      },
      "setApprovalForAll(address,bool)": {
        "details": "See {IERC1155-setApprovalForAll}."
      },
      "setElderMintPrice(uint256)": {
        "details": "Can only be called by an admin address",
        "notice": "Sets the elder mint price",
        "params": {
          "price": "The new elder mint price"
        }
      },
      "setPhase(uint8)": {
        "notice": "Sets the contract's phase",
        "params": {
          "phase": "The phase the contract should be set to"
        }
      },
      "startNewPriceGame()": {
        "details": "This can only be called by the admin of the contract",
        "notice": "Starts a new price game"
      },
      "supportsInterface(bytes4)": {
        "details": "See {IERC165-supportsInterface}. Time complexity O(1), guaranteed to always use less than 30 000 gas."
      },
      "trainHero(uint256)": {
        "notice": "Sets the hero attributes",
        "params": {
          "heroId": "The hero id"
        }
      },
      "uri(uint256)": {
        "details": "See {IERC1155MetadataURI-uri}. This implementation returns the same URI for *all* token types. It relies on the token type ID substitution mechanism https://eips.ethereum.org/EIPS/eip-1155#metadata[defined in the EIP]. Clients calling this function must replace the `\\{id\\}` substring with the actual token type ID."
      }
    },
    "notice": "This is the crypto champions class",
    "title": "Crypto Champions Interface",
    "version": 1
  },
  "opcodes": "PUSH1 0x80 PUSH1 0x40 MSTORE PUSH1 0x4 CALLDATASIZE LT PUSH2 0x2AD JUMPI PUSH1 0x0 CALLDATALOAD PUSH1 0xE0 SHR DUP1 PUSH4 0x79935FE0 GT PUSH2 0x175 JUMPI DUP1 PUSH4 0xA4AEEC53 GT PUSH2 0xDC JUMPI DUP1 PUSH4 0xD547741F GT PUSH2 0x95 JUMPI DUP1 PUSH4 0xE985E9C5 GT PUSH2 0x6F JUMPI DUP1 PUSH4 0xE985E9C5 EQ PUSH2 0x1160 JUMPI DUP1 PUSH4 0xF242432A EQ PUSH2 0x119B JUMPI DUP1 PUSH4 0xF32C4974 EQ PUSH2 0x1271 JUMPI DUP1 PUSH4 0xFBC120F9 EQ PUSH2 0x12A1 JUMPI PUSH2 0x2AD JUMP JUMPDEST DUP1 PUSH4 0xD547741F EQ PUSH2 0x10D3 JUMPI DUP1 PUSH4 0xE3E98382 EQ PUSH2 0x110C JUMPI DUP1 PUSH4 0xE5B0A993 EQ PUSH2 0x1136 JUMPI PUSH2 0x2AD JUMP JUMPDEST DUP1 PUSH4 0xA4AEEC53 EQ PUSH2 0x1013 JUMPI DUP1 PUSH4 0xAD313C24 EQ PUSH2 0x1028 JUMPI DUP1 PUSH4 0xBF61211F EQ PUSH2 0x1052 JUMPI DUP1 PUSH4 0xC03AFB59 EQ PUSH2 0x1067 JUMPI DUP1 PUSH4 0xCA15C873 EQ PUSH2 0x1094 JUMPI DUP1 PUSH4 0xCAAB7EF8 EQ PUSH2 0x10BE JUMPI PUSH2 0x2AD JUMP JUMPDEST DUP1 PUSH4 0x91D14854 GT PUSH2 0x12E JUMPI DUP1 PUSH4 0x91D14854 EQ PUSH2 0xE5B JUMPI DUP1 PUSH4 0x94985DDD EQ PUSH2 0xE94 JUMPI DUP1 PUSH4 0x9D5B82C0 EQ PUSH2 0xEC4 JUMPI DUP1 PUSH4 0x9E315008 EQ PUSH2 0xF48 JUMPI DUP1 PUSH4 0xA217FDDF EQ PUSH2 0xFC3 JUMPI DUP1 PUSH4 0xA22CB465 EQ PUSH2 0xFD8 JUMPI PUSH2 0x2AD JUMP JUMPDEST DUP1 PUSH4 0x79935FE0 EQ PUSH2 0xD65 JUMPI DUP1 PUSH4 0x835A4398 EQ PUSH2 0xD7A JUMPI DUP1 PUSH4 0x8423B077 EQ PUSH2 0xDD7 JUMPI DUP1 PUSH4 0x8A19C8BC EQ PUSH2 0xE01 JUMPI DUP1 PUSH4 0x9010D07C EQ PUSH2 0xE16 JUMPI DUP1 PUSH4 0x90DED47E EQ PUSH2 0xE46 JUMPI PUSH2 0x2AD JUMP JUMPDEST DUP1 PUSH4 0x2F2FF15D GT PUSH2 0x219 JUMPI DUP1 PUSH4 0x4C52B2A9 GT PUSH2 0x1D2 JUMPI DUP1 PUSH4 0x4C52B2A9 EQ PUSH2 0xB22 JUMPI DUP1 PUSH4 0x4E1273F4 EQ PUSH2 0xB37 JUMPI DUP1 PUSH4 0x56B4D760 EQ PUSH2 0xCB7 JUMPI DUP1 PUSH4 0x59CA19D3 EQ PUSH2 0xCE1 JUMPI DUP1 PUSH4 0x6DE51353 EQ PUSH2 0xD11 JUMPI DUP1 PUSH4 0x72EDA5BB EQ PUSH2 0xD3B JUMPI PUSH2 0x2AD JUMP JUMPDEST DUP1 PUSH4 0x2F2FF15D EQ PUSH2 0x90A JUMPI DUP1 PUSH4 0x36568ABE EQ PUSH2 0x943 JUMPI DUP1 PUSH4 0x46E6F13D EQ PUSH2 0x97C JUMPI DUP1 PUSH4 0x48772D79 EQ PUSH2 0xA33 JUMPI DUP1 PUSH4 0x498E8219 EQ PUSH2 0xA83 JUMPI DUP1 PUSH4 0x4C2ED018 EQ PUSH2 0xAF8 JUMPI PUSH2 0x2AD JUMP JUMPDEST DUP1 PUSH4 0x248A9CA3 GT PUSH2 0x26B JUMPI DUP1 PUSH4 0x248A9CA3 EQ PUSH2 0x554 JUMPI DUP1 PUSH4 0x26D4D15A EQ PUSH2 0x57E JUMPI DUP1 PUSH4 0x27E50B18 EQ PUSH2 0x615 JUMPI DUP1 PUSH4 0x2EB2C2D6 EQ PUSH2 0x641 JUMPI DUP1 PUSH4 0x2EE1F0A0 EQ PUSH2 0x80F JUMPI DUP1 PUSH4 0x2EFB8874 EQ PUSH2 0x88F JUMPI PUSH2 0x2AD JUMP JUMPDEST DUP1 PUSH3 0xFDD58E EQ PUSH2 0x2B2 JUMPI DUP1 PUSH4 0x1FFC9A7 EQ PUSH2 0x2FD JUMPI DUP1 PUSH4 0x55AD42E EQ PUSH2 0x345 JUMPI DUP1 PUSH4 0xE89341C EQ PUSH2 0x37B JUMPI DUP1 PUSH4 0xFBEA841 EQ PUSH2 0x41A JUMPI DUP1 PUSH4 0x21C2F72A EQ PUSH2 0x494 JUMPI JUMPDEST PUSH1 0x0 DUP1 REVERT JUMPDEST CALLVALUE DUP1 ISZERO PUSH2 0x2BE JUMPI PUSH1 0x0 DUP1 REVERT JUMPDEST POP PUSH2 0x2EB PUSH1 0x4 DUP1 CALLDATASIZE SUB PUSH1 0x40 DUP2 LT ISZERO PUSH2 0x2D5 JUMPI PUSH1 0x0 DUP1 REVERT JUMPDEST POP PUSH1 0x1 PUSH1 0x1 PUSH1 0xA0 SHL SUB DUP2 CALLDATALOAD AND SWAP1 PUSH1 0x20 ADD CALLDATALOAD PUSH2 0x12B6 JUMP JUMPDEST PUSH1 0x40 DUP1 MLOAD SWAP2 DUP3 MSTORE MLOAD SWAP1 DUP2 SWAP1 SUB PUSH1 0x20 ADD SWAP1 RETURN JUMPDEST CALLVALUE DUP1 ISZERO PUSH2 0x309 JUMPI PUSH1 0x0 DUP1 REVERT JUMPDEST POP PUSH2 0x331 PUSH1 0x4 DUP1 CALLDATASIZE SUB PUSH1 0x20 DUP2 LT ISZERO PUSH2 0x320 JUMPI PUSH1 0x0 DUP1 REVERT JUMPDEST POP CALLDATALOAD PUSH1 0x1 PUSH1 0x1 PUSH1 0xE0 SHL SUB NOT AND PUSH2 0x1328 JUMP JUMPDEST PUSH1 0x40 DUP1 MLOAD SWAP2 ISZERO ISZERO DUP3 MSTORE MLOAD SWAP1 DUP2 SWAP1 SUB PUSH1 0x20 ADD SWAP1 RETURN JUMPDEST CALLVALUE DUP1 ISZERO PUSH2 0x351 JUMPI PUSH1 0x0 DUP1 REVERT JUMPDEST POP PUSH2 0x35A PUSH2 0x134B JUMP JUMPDEST PUSH1 0x40 MLOAD DUP1 DUP3 PUSH1 0x1 DUP2 GT ISZERO PUSH2 0x36A JUMPI INVALID JUMPDEST DUP2 MSTORE PUSH1 0x20 ADD SWAP2 POP POP PUSH1 0x40 MLOAD DUP1 SWAP2 SUB SWAP1 RETURN JUMPDEST CALLVALUE DUP1 ISZERO PUSH2 0x387 JUMPI PUSH1 0x0 DUP1 REVERT JUMPDEST POP PUSH2 0x3A5 PUSH1 0x4 DUP1 CALLDATASIZE SUB PUSH1 0x20 DUP2 LT ISZERO PUSH2 0x39E JUMPI PUSH1 0x0 DUP1 REVERT JUMPDEST POP CALLDATALOAD PUSH2 0x1354 JUMP JUMPDEST PUSH1 0x40 DUP1 MLOAD PUSH1 0x20 DUP1 DUP3 MSTORE DUP4 MLOAD DUP2 DUP4 ADD MSTORE DUP4 MLOAD SWAP2 SWAP3 DUP4 SWAP3 SWAP1 DUP4 ADD SWAP2 DUP6 ADD SWAP1 DUP1 DUP4 DUP4 PUSH1 0x0 JUMPDEST DUP4 DUP2 LT ISZERO PUSH2 0x3DF JUMPI DUP2 DUP2 ADD MLOAD DUP4 DUP3 ADD MSTORE PUSH1 0x20 ADD PUSH2 0x3C7 JUMP JUMPDEST POP POP POP POP SWAP1 POP SWAP1 DUP2 ADD SWAP1 PUSH1 0x1F AND DUP1 ISZERO PUSH2 0x40C JUMPI DUP1 DUP3 SUB DUP1 MLOAD PUSH1 0x1 DUP4 PUSH1 0x20 SUB PUSH2 0x100 EXP SUB NOT AND DUP2 MSTORE PUSH1 0x20 ADD SWAP2 POP JUMPDEST POP SWAP3 POP POP POP PUSH1 0x40 MLOAD DUP1 SWAP2 SUB SWAP1 RETURN JUMPDEST PUSH2 0x2EB PUSH1 0x4 DUP1 CALLDATASIZE SUB PUSH1 0x60 DUP2 LT ISZERO PUSH2 0x430 JUMPI PUSH1 0x0 DUP1 REVERT JUMPDEST DUP2 CALLDATALOAD SWAP2 PUSH1 0x20 DUP2 ADD CALLDATALOAD SWAP2 DUP2 ADD SWAP1 PUSH1 0x60 DUP2 ADD PUSH1 0x40 DUP3 ADD CALLDATALOAD PUSH1 0x1 PUSH1 0x20 SHL DUP2 GT ISZERO PUSH2 0x456 JUMPI PUSH1 0x0 DUP1 REVERT JUMPDEST DUP3 ADD DUP4 PUSH1 0x20 DUP3 ADD GT ISZERO PUSH2 0x468 JUMPI PUSH1 0x0 DUP1 REVERT JUMPDEST DUP1 CALLDATALOAD SWAP1 PUSH1 0x20 ADD SWAP2 DUP5 PUSH1 0x1 DUP4 MUL DUP5 ADD GT PUSH1 0x1 PUSH1 0x20 SHL DUP4 GT OR ISZERO PUSH2 0x489 JUMPI PUSH1 0x0 DUP1 REVERT JUMPDEST POP SWAP1 SWAP3 POP SWAP1 POP PUSH2 0x13EC JUMP JUMPDEST CALLVALUE DUP1 ISZERO PUSH2 0x4A0 JUMPI PUSH1 0x0 DUP1 REVERT JUMPDEST POP PUSH2 0x4BE PUSH1 0x4 DUP1 CALLDATASIZE SUB PUSH1 0x20 DUP2 LT ISZERO PUSH2 0x4B7 JUMPI PUSH1 0x0 DUP1 REVERT JUMPDEST POP CALLDATALOAD PUSH2 0x16CB JUMP JUMPDEST PUSH1 0x40 MLOAD DUP1 DUP7 ISZERO ISZERO DUP2 MSTORE PUSH1 0x20 ADD DUP6 DUP2 MSTORE PUSH1 0x20 ADD DUP5 DUP2 MSTORE PUSH1 0x20 ADD DUP1 PUSH1 0x20 ADD DUP4 DUP2 MSTORE PUSH1 0x20 ADD DUP3 DUP2 SUB DUP3 MSTORE DUP5 DUP2 DUP2 MLOAD DUP2 MSTORE PUSH1 0x20 ADD SWAP2 POP DUP1 MLOAD SWAP1 PUSH1 0x20 ADD SWAP1 DUP1 DUP4 DUP4 PUSH1 0x0 JUMPDEST DUP4 DUP2 LT ISZERO PUSH2 0x515 JUMPI DUP2 DUP2 ADD MLOAD DUP4 DUP3 ADD MSTORE PUSH1 0x20 ADD PUSH2 0x4FD JUMP JUMPDEST POP POP POP POP SWAP1 POP SWAP1 DUP2 ADD SWAP1 PUSH1 0x1F AND DUP1 ISZERO PUSH2 0x542 JUMPI DUP1 DUP3 SUB DUP1 MLOAD PUSH1 0x1 DUP4 PUSH1 0x20 SUB PUSH2 0x100 EXP SUB NOT AND DUP2 MSTORE PUSH1 0x20 ADD SWAP2 POP JUMPDEST POP SWAP7 POP POP POP POP POP POP POP PUSH1 0x40 MLOAD DUP1 SWAP2 SUB SWAP1 RETURN JUMPDEST CALLVALUE DUP1 ISZERO PUSH2 0x560 JUMPI PUSH1 0x0 DUP1 REVERT JUMPDEST POP PUSH2 0x2EB PUSH1 0x4 DUP1 CALLDATASIZE SUB PUSH1 0x20 DUP2 LT ISZERO PUSH2 0x577 JUMPI PUSH1 0x0 DUP1 REVERT JUMPDEST POP CALLDATALOAD PUSH2 0x17F9 JUMP JUMPDEST CALLVALUE DUP1 ISZERO PUSH2 0x58A JUMPI PUSH1 0x0 DUP1 REVERT JUMPDEST POP PUSH2 0x5F9 PUSH1 0x4 DUP1 CALLDATASIZE SUB PUSH1 0x20 DUP2 LT ISZERO PUSH2 0x5A1 JUMPI PUSH1 0x0 DUP1 REVERT JUMPDEST DUP2 ADD SWAP1 PUSH1 0x20 DUP2 ADD DUP2 CALLDATALOAD PUSH1 0x1 PUSH1 0x20 SHL DUP2 GT ISZERO PUSH2 0x5BB JUMPI PUSH1 0x0 DUP1 REVERT JUMPDEST DUP3 ADD DUP4 PUSH1 0x20 DUP3 ADD GT ISZERO PUSH2 0x5CD JUMPI PUSH1 0x0 DUP1 REVERT JUMPDEST DUP1 CALLDATALOAD SWAP1 PUSH1 0x20 ADD SWAP2 DUP5 PUSH1 0x1 DUP4 MUL DUP5 ADD GT PUSH1 0x1 PUSH1 0x20 SHL DUP4 GT OR ISZERO PUSH2 0x5EE JUMPI PUSH1 0x0 DUP1 REVERT JUMPDEST POP SWAP1 SWAP3 POP SWAP1 POP PUSH2 0x180E JUMP JUMPDEST PUSH1 0x40 DUP1 MLOAD PUSH1 0x1 PUSH1 0x1 PUSH1 0xA0 SHL SUB SWAP1 SWAP3 AND DUP3 MSTORE MLOAD SWAP1 DUP2 SWAP1 SUB PUSH1 0x20 ADD SWAP1 RETURN JUMPDEST CALLVALUE DUP1 ISZERO PUSH2 0x621 JUMPI PUSH1 0x0 DUP1 REVERT JUMPDEST POP PUSH2 0x63F PUSH1 0x4 DUP1 CALLDATASIZE SUB PUSH1 0x20 DUP2 LT ISZERO PUSH2 0x638 JUMPI PUSH1 0x0 DUP1 REVERT JUMPDEST POP CALLDATALOAD PUSH2 0x1848 JUMP JUMPDEST STOP JUMPDEST CALLVALUE DUP1 ISZERO PUSH2 0x64D JUMPI PUSH1 0x0 DUP1 REVERT JUMPDEST POP PUSH2 0x63F PUSH1 0x4 DUP1 CALLDATASIZE SUB PUSH1 0xA0 DUP2 LT ISZERO PUSH2 0x664 JUMPI PUSH1 0x0 DUP1 REVERT JUMPDEST PUSH1 0x1 PUSH1 0x1 PUSH1 0xA0 SHL SUB DUP3 CALLDATALOAD DUP2 AND SWAP3 PUSH1 0x20 DUP2 ADD CALLDATALOAD SWAP1 SWAP2 AND SWAP2 DUP2 ADD SWAP1 PUSH1 0x60 DUP2 ADD PUSH1 0x40 DUP3 ADD CALLDATALOAD PUSH1 0x1 PUSH1 0x20 SHL DUP2 GT ISZERO PUSH2 0x697 JUMPI PUSH1 0x0 DUP1 REVERT JUMPDEST DUP3 ADD DUP4 PUSH1 0x20 DUP3 ADD GT ISZERO PUSH2 0x6A9 JUMPI PUSH1 0x0 DUP1 REVERT JUMPDEST DUP1 CALLDATALOAD SWAP1 PUSH1 0x20 ADD SWAP2 DUP5 PUSH1 0x20 DUP4 MUL DUP5 ADD GT PUSH1 0x1 PUSH1 0x20 SHL DUP4 GT OR ISZERO PUSH2 0x6CA JUMPI PUSH1 0x0 DUP1 REVERT JUMPDEST SWAP2 SWAP1 DUP1 DUP1 PUSH1 0x20 MUL PUSH1 0x20 ADD PUSH1 0x40 MLOAD SWAP1 DUP2 ADD PUSH1 0x40 MSTORE DUP1 SWAP4 SWAP3 SWAP2 SWAP1 DUP2 DUP2 MSTORE PUSH1 0x20 ADD DUP4 DUP4 PUSH1 0x20 MUL DUP1 DUP3 DUP5 CALLDATACOPY PUSH1 0x0 SWAP3 ADD SWAP2 SWAP1 SWAP2 MSTORE POP SWAP3 SWAP6 SWAP5 SWAP4 PUSH1 0x20 DUP2 ADD SWAP4 POP CALLDATALOAD SWAP2 POP POP PUSH1 0x1 PUSH1 0x20 SHL DUP2 GT ISZERO PUSH2 0x719 JUMPI PUSH1 0x0 DUP1 REVERT JUMPDEST DUP3 ADD DUP4 PUSH1 0x20 DUP3 ADD GT ISZERO PUSH2 0x72B JUMPI PUSH1 0x0 DUP1 REVERT JUMPDEST DUP1 CALLDATALOAD SWAP1 PUSH1 0x20 ADD SWAP2 DUP5 PUSH1 0x20 DUP4 MUL DUP5 ADD GT PUSH1 0x1 PUSH1 0x20 SHL DUP4 GT OR ISZERO PUSH2 0x74C JUMPI PUSH1 0x0 DUP1 REVERT JUMPDEST SWAP2 SWAP1 DUP1 DUP1 PUSH1 0x20 MUL PUSH1 0x20 ADD PUSH1 0x40 MLOAD SWAP1 DUP2 ADD PUSH1 0x40 MSTORE DUP1 SWAP4 SWAP3 SWAP2 SWAP1 DUP2 DUP2 MSTORE PUSH1 0x20 ADD DUP4 DUP4 PUSH1 0x20 MUL DUP1 DUP3 DUP5 CALLDATACOPY PUSH1 0x0 SWAP3 ADD SWAP2 SWAP1 SWAP2 MSTORE POP SWAP3 SWAP6 SWAP5 SWAP4 PUSH1 0x20 DUP2 ADD SWAP4 POP CALLDATALOAD SWAP2 POP POP PUSH1 0x1 PUSH1 0x20 SHL DUP2 GT ISZERO PUSH2 0x79B JUMPI PUSH1 0x0 DUP1 REVERT JUMPDEST DUP3 ADD DUP4 PUSH1 0x20 DUP3 ADD GT ISZERO PUSH2 0x7AD JUMPI PUSH1 0x0 DUP1 REVERT JUMPDEST DUP1 CALLDATALOAD SWAP1 PUSH1 0x20 ADD SWAP2 DUP5 PUSH1 0x1 DUP4 MUL DUP5 ADD GT PUSH1 0x1 PUSH1 0x20 SHL DUP4 GT OR ISZERO PUSH2 0x7CE JUMPI PUSH1 0x0 DUP1 REVERT JUMPDEST SWAP2 SWAP1 DUP1 DUP1 PUSH1 0x1F ADD PUSH1 0x20 DUP1 SWAP2 DIV MUL PUSH1 0x20 ADD PUSH1 0x40 MLOAD SWAP1 DUP2 ADD PUSH1 0x40 MSTORE DUP1 SWAP4 SWAP3 SWAP2 SWAP1 DUP2 DUP2 MSTORE PUSH1 0x20 ADD DUP4 DUP4 DUP1 DUP3 DUP5 CALLDATACOPY PUSH1 0x0 SWAP3 ADD SWAP2 SWAP1 SWAP2 MSTORE POP SWAP3 SWAP6 POP PUSH2 0x1994 SWAP5 POP POP POP POP POP JUMP JUMPDEST CALLVALUE DUP1 ISZERO PUSH2 0x81B JUMPI PUSH1 0x0 DUP1 REVERT JUMPDEST POP PUSH2 0x839 PUSH1 0x4 DUP1 CALLDATASIZE SUB PUSH1 0x20 DUP2 LT ISZERO PUSH2 0x832 JUMPI PUSH1 0x0 DUP1 REVERT JUMPDEST POP CALLDATALOAD PUSH2 0x1C97 JUMP JUMPDEST PUSH1 0x40 MLOAD DUP1 DUP7 ISZERO ISZERO DUP2 MSTORE PUSH1 0x20 ADD DUP1 PUSH1 0x20 ADD DUP6 DUP2 MSTORE PUSH1 0x20 ADD DUP5 DUP2 MSTORE PUSH1 0x20 ADD DUP4 DUP2 MSTORE PUSH1 0x20 ADD DUP3 DUP2 SUB DUP3 MSTORE DUP7 DUP2 DUP2 MLOAD DUP2 MSTORE PUSH1 0x20 ADD SWAP2 POP DUP1 MLOAD SWAP1 PUSH1 0x20 ADD SWAP1 DUP1 DUP4 DUP4 PUSH1 0x0 DUP4 DUP2 LT ISZERO PUSH2 0x515 JUMPI DUP2 DUP2 ADD MLOAD DUP4 DUP3 ADD MSTORE PUSH1 0x20 ADD PUSH2 0x4FD JUMP JUMPDEST CALLVALUE DUP1 ISZERO PUSH2 0x89B JUMPI PUSH1 0x0 DUP1 REVERT JUMPDEST POP PUSH2 0x63F PUSH1 0x4 DUP1 CALLDATASIZE SUB PUSH1 0x20 DUP2 LT ISZERO PUSH2 0x8B2 JUMPI PUSH1 0x0 DUP1 REVERT JUMPDEST DUP2 ADD SWAP1 PUSH1 0x20 DUP2 ADD DUP2 CALLDATALOAD PUSH1 0x1 PUSH1 0x20 SHL DUP2 GT ISZERO PUSH2 0x8CC JUMPI PUSH1 0x0 DUP1 REVERT JUMPDEST DUP3 ADD DUP4 PUSH1 0x20 DUP3 ADD GT ISZERO PUSH2 0x8DE JUMPI PUSH1 0x0 DUP1 REVERT JUMPDEST DUP1 CALLDATALOAD SWAP1 PUSH1 0x20 ADD SWAP2 DUP5 PUSH1 0x1 DUP4 MUL DUP5 ADD GT PUSH1 0x1 PUSH1 0x20 SHL DUP4 GT OR ISZERO PUSH2 0x8FF JUMPI PUSH1 0x0 DUP1 REVERT JUMPDEST POP SWAP1 SWAP3 POP SWAP1 POP PUSH2 0x1D99 JUMP JUMPDEST CALLVALUE DUP1 ISZERO PUSH2 0x916 JUMPI PUSH1 0x0 DUP1 REVERT JUMPDEST POP PUSH2 0x63F PUSH1 0x4 DUP1 CALLDATASIZE SUB PUSH1 0x40 DUP2 LT ISZERO PUSH2 0x92D JUMPI PUSH1 0x0 DUP1 REVERT JUMPDEST POP DUP1 CALLDATALOAD SWAP1 PUSH1 0x20 ADD CALLDATALOAD PUSH1 0x1 PUSH1 0x1 PUSH1 0xA0 SHL SUB AND PUSH2 0x1DB4 JUMP JUMPDEST CALLVALUE DUP1 ISZERO PUSH2 0x94F JUMPI PUSH1 0x0 DUP1 REVERT JUMPDEST POP PUSH2 0x63F PUSH1 0x4 DUP1 CALLDATASIZE SUB PUSH1 0x40 DUP2 LT ISZERO PUSH2 0x966 JUMPI PUSH1 0x0 DUP1 REVERT JUMPDEST POP DUP1 CALLDATALOAD SWAP1 PUSH1 0x20 ADD CALLDATALOAD PUSH1 0x1 PUSH1 0x1 PUSH1 0xA0 SHL SUB AND PUSH2 0x1E1C JUMP JUMPDEST CALLVALUE DUP1 ISZERO PUSH2 0x988 JUMPI PUSH1 0x0 DUP1 REVERT JUMPDEST POP PUSH2 0x9A6 PUSH1 0x4 DUP1 CALLDATASIZE SUB PUSH1 0x20 DUP2 LT ISZERO PUSH2 0x99F JUMPI PUSH1 0x0 DUP1 REVERT JUMPDEST POP CALLDATALOAD PUSH2 0x1E7D JUMP JUMPDEST PUSH1 0x40 MLOAD DUP1 DUP1 PUSH1 0x20 ADD DUP6 DUP2 MSTORE PUSH1 0x20 ADD DUP5 DUP2 MSTORE PUSH1 0x20 ADD DUP4 DUP2 MSTORE PUSH1 0x20 ADD DUP3 DUP2 SUB DUP3 MSTORE DUP7 DUP2 DUP2 MLOAD DUP2 MSTORE PUSH1 0x20 ADD SWAP2 POP DUP1 MLOAD SWAP1 PUSH1 0x20 ADD SWAP1 DUP1 DUP4 DUP4 PUSH1 0x0 JUMPDEST DUP4 DUP2 LT ISZERO PUSH2 0x9F5 JUMPI DUP2 DUP2 ADD MLOAD DUP4 DUP3 ADD MSTORE PUSH1 0x20 ADD PUSH2 0x9DD JUMP JUMPDEST POP POP POP POP SWAP1 POP SWAP1 DUP2 ADD SWAP1 PUSH1 0x1F AND DUP1 ISZERO PUSH2 0xA22 JUMPI DUP1 DUP3 SUB DUP1 MLOAD PUSH1 0x1 DUP4 PUSH1 0x20 SUB PUSH2 0x100 EXP SUB NOT AND DUP2 MSTORE PUSH1 0x20 ADD SWAP2 POP JUMPDEST POP SWAP6 POP POP POP POP POP POP PUSH1 0x40 MLOAD DUP1 SWAP2 SUB SWAP1 RETURN JUMPDEST CALLVALUE DUP1 ISZERO PUSH2 0xA3F JUMPI PUSH1 0x0 DUP1 REVERT JUMPDEST POP PUSH2 0xA5D PUSH1 0x4 DUP1 CALLDATASIZE SUB PUSH1 0x20 DUP2 LT ISZERO PUSH2 0xA56 JUMPI PUSH1 0x0 DUP1 REVERT JUMPDEST POP CALLDATALOAD PUSH2 0x1F73 JUMP JUMPDEST PUSH1 0x40 DUP1 MLOAD SWAP5 DUP6 MSTORE PUSH1 0x20 DUP6 ADD SWAP4 SWAP1 SWAP4 MSTORE DUP4 DUP4 ADD SWAP2 SWAP1 SWAP2 MSTORE PUSH1 0x60 DUP4 ADD MSTORE MLOAD SWAP1 DUP2 SWAP1 SUB PUSH1 0x80 ADD SWAP1 RETURN JUMPDEST PUSH2 0x2EB PUSH1 0x4 DUP1 CALLDATASIZE SUB PUSH1 0x40 DUP2 LT ISZERO PUSH2 0xA99 JUMPI PUSH1 0x0 DUP1 REVERT JUMPDEST DUP2 CALLDATALOAD SWAP2 SWAP1 DUP2 ADD SWAP1 PUSH1 0x40 DUP2 ADD PUSH1 0x20 DUP3 ADD CALLDATALOAD PUSH1 0x1 PUSH1 0x20 SHL DUP2 GT ISZERO PUSH2 0xABA JUMPI PUSH1 0x0 DUP1 REVERT JUMPDEST DUP3 ADD DUP4 PUSH1 0x20 DUP3 ADD GT ISZERO PUSH2 0xACC JUMPI PUSH1 0x0 DUP1 REVERT JUMPDEST DUP1 CALLDATALOAD SWAP1 PUSH1 0x20 ADD SWAP2 DUP5 PUSH1 0x1 DUP4 MUL DUP5 ADD GT PUSH1 0x1 PUSH1 0x20 SHL DUP4 GT OR ISZERO PUSH2 0xAED JUMPI PUSH1 0x0 DUP1 REVERT JUMPDEST POP SWAP1 SWAP3 POP SWAP1 POP PUSH2 0x1FD2 JUMP JUMPDEST CALLVALUE DUP1 ISZERO PUSH2 0xB04 JUMPI PUSH1 0x0 DUP1 REVERT JUMPDEST POP PUSH2 0xA5D PUSH1 0x4 DUP1 CALLDATASIZE SUB PUSH1 0x20 DUP2 LT ISZERO PUSH2 0xB1B JUMPI PUSH1 0x0 DUP1 REVERT JUMPDEST POP CALLDATALOAD PUSH2 0x253F JUMP JUMPDEST CALLVALUE DUP1 ISZERO PUSH2 0xB2E JUMPI PUSH1 0x0 DUP1 REVERT JUMPDEST POP PUSH2 0x2EB PUSH2 0x259E JUMP JUMPDEST CALLVALUE DUP1 ISZERO PUSH2 0xB43 JUMPI PUSH1 0x0 DUP1 REVERT JUMPDEST POP PUSH2 0xC67 PUSH1 0x4 DUP1 CALLDATASIZE SUB PUSH1 0x40 DUP2 LT ISZERO PUSH2 0xB5A JUMPI PUSH1 0x0 DUP1 REVERT JUMPDEST DUP2 ADD SWAP1 PUSH1 0x20 DUP2 ADD DUP2 CALLDATALOAD PUSH1 0x1 PUSH1 0x20 SHL DUP2 GT ISZERO PUSH2 0xB74 JUMPI PUSH1 0x0 DUP1 REVERT JUMPDEST DUP3 ADD DUP4 PUSH1 0x20 DUP3 ADD GT ISZERO PUSH2 0xB86 JUMPI PUSH1 0x0 DUP1 REVERT JUMPDEST DUP1 CALLDATALOAD SWAP1 PUSH1 0x20 ADD SWAP2 DUP5 PUSH1 0x20 DUP4 MUL DUP5 ADD GT PUSH1 0x1 PUSH1 0x20 SHL DUP4 GT OR ISZERO PUSH2 0xBA7 JUMPI PUSH1 0x0 DUP1 REVERT JUMPDEST SWAP2 SWAP1 DUP1 DUP1 PUSH1 0x20 MUL PUSH1 0x20 ADD PUSH1 0x40 MLOAD SWAP1 DUP2 ADD PUSH1 0x40 MSTORE DUP1 SWAP4 SWAP3 SWAP2 SWAP1 DUP2 DUP2 MSTORE PUSH1 0x20 ADD DUP4 DUP4 PUSH1 0x20 MUL DUP1 DUP3 DUP5 CALLDATACOPY PUSH1 0x0 SWAP3 ADD SWAP2 SWAP1 SWAP2 MSTORE POP SWAP3 SWAP6 SWAP5 SWAP4 PUSH1 0x20 DUP2 ADD SWAP4 POP CALLDATALOAD SWAP2 POP POP PUSH1 0x1 PUSH1 0x20 SHL DUP2 GT ISZERO PUSH2 0xBF6 JUMPI PUSH1 0x0 DUP1 REVERT JUMPDEST DUP3 ADD DUP4 PUSH1 0x20 DUP3 ADD GT ISZERO PUSH2 0xC08 JUMPI PUSH1 0x0 DUP1 REVERT JUMPDEST DUP1 CALLDATALOAD SWAP1 PUSH1 0x20 ADD SWAP2 DUP5 PUSH1 0x20 DUP4 MUL DUP5 ADD GT PUSH1 0x1 PUSH1 0x20 SHL DUP4 GT OR ISZERO PUSH2 0xC29 JUMPI PUSH1 0x0 DUP1 REVERT JUMPDEST SWAP2 SWAP1 DUP1 DUP1 PUSH1 0x20 MUL PUSH1 0x20 ADD PUSH1 0x40 MLOAD SWAP1 DUP2 ADD PUSH1 0x40 MSTORE DUP1 SWAP4 SWAP3 SWAP2 SWAP1 DUP2 DUP2 MSTORE PUSH1 0x20 ADD DUP4 DUP4 PUSH1 0x20 MUL DUP1 DUP3 DUP5 CALLDATACOPY PUSH1 0x0 SWAP3 ADD SWAP2 SWAP1 SWAP2 MSTORE POP SWAP3 SWAP6 POP PUSH2 0x25A5 SWAP5 POP POP POP POP POP JUMP JUMPDEST PUSH1 0x40 DUP1 MLOAD PUSH1 0x20 DUP1 DUP3 MSTORE DUP4 MLOAD DUP2 DUP4 ADD MSTORE DUP4 MLOAD SWAP2 SWAP3 DUP4 SWAP3 SWAP1 DUP4 ADD SWAP2 DUP6 DUP2 ADD SWAP2 MUL DUP1 DUP4 DUP4 PUSH1 0x0 JUMPDEST DUP4 DUP2 LT ISZERO PUSH2 0xCA3 JUMPI DUP2 DUP2 ADD MLOAD DUP4 DUP3 ADD MSTORE PUSH1 0x20 ADD PUSH2 0xC8B JUMP JUMPDEST POP POP POP POP SWAP1 POP ADD SWAP3 POP POP POP PUSH1 0x40 MLOAD DUP1 SWAP2 SUB SWAP1 RETURN JUMPDEST CALLVALUE DUP1 ISZERO PUSH2 0xCC3 JUMPI PUSH1 0x0 DUP1 REVERT JUMPDEST POP PUSH2 0x5F9 PUSH1 0x4 DUP1 CALLDATASIZE SUB PUSH1 0x20 DUP2 LT ISZERO PUSH2 0xCDA JUMPI PUSH1 0x0 DUP1 REVERT JUMPDEST POP CALLDATALOAD PUSH2 0x2691 JUMP JUMPDEST CALLVALUE DUP1 ISZERO PUSH2 0xCED JUMPI PUSH1 0x0 DUP1 REVERT JUMPDEST POP PUSH2 0x2EB PUSH1 0x4 DUP1 CALLDATASIZE SUB PUSH1 0x40 DUP2 LT ISZERO PUSH2 0xD04 JUMPI PUSH1 0x0 DUP1 REVERT JUMPDEST POP DUP1 CALLDATALOAD SWAP1 PUSH1 0x20 ADD CALLDATALOAD PUSH2 0x26FA JUMP JUMPDEST CALLVALUE DUP1 ISZERO PUSH2 0xD1D JUMPI PUSH1 0x0 DUP1 REVERT JUMPDEST POP PUSH2 0x3A5 PUSH1 0x4 DUP1 CALLDATASIZE SUB PUSH1 0x20 DUP2 LT ISZERO PUSH2 0xD34 JUMPI PUSH1 0x0 DUP1 REVERT JUMPDEST POP CALLDATALOAD PUSH2 0x2745 JUMP JUMPDEST CALLVALUE DUP1 ISZERO PUSH2 0xD47 JUMPI PUSH1 0x0 DUP1 REVERT JUMPDEST POP PUSH2 0x5F9 PUSH1 0x4 DUP1 CALLDATASIZE SUB PUSH1 0x20 DUP2 LT ISZERO PUSH2 0xD5E JUMPI PUSH1 0x0 DUP1 REVERT JUMPDEST POP CALLDATALOAD PUSH2 0x27EB JUMP JUMPDEST CALLVALUE DUP1 ISZERO PUSH2 0xD71 JUMPI PUSH1 0x0 DUP1 REVERT JUMPDEST POP PUSH2 0x2EB PUSH2 0x2846 JUMP JUMPDEST CALLVALUE DUP1 ISZERO PUSH2 0xD86 JUMPI PUSH1 0x0 DUP1 REVERT JUMPDEST POP PUSH2 0xDA4 PUSH1 0x4 DUP1 CALLDATASIZE SUB PUSH1 0x20 DUP2 LT ISZERO PUSH2 0xD9D JUMPI PUSH1 0x0 DUP1 REVERT JUMPDEST POP CALLDATALOAD PUSH2 0x284C JUMP JUMPDEST PUSH1 0x40 DUP1 MLOAD SWAP7 DUP8 MSTORE PUSH1 0x20 DUP8 ADD SWAP6 SWAP1 SWAP6 MSTORE DUP6 DUP6 ADD SWAP4 SWAP1 SWAP4 MSTORE PUSH1 0x60 DUP6 ADD SWAP2 SWAP1 SWAP2 MSTORE PUSH1 0x80 DUP5 ADD MSTORE PUSH1 0xA0 DUP4 ADD MSTORE MLOAD SWAP1 DUP2 SWAP1 SUB PUSH1 0xC0 ADD SWAP1 RETURN JUMPDEST CALLVALUE DUP1 ISZERO PUSH2 0xDE3 JUMPI PUSH1 0x0 DUP1 REVERT JUMPDEST POP PUSH2 0xA5D PUSH1 0x4 DUP1 CALLDATASIZE SUB PUSH1 0x20 DUP2 LT ISZERO PUSH2 0xDFA JUMPI PUSH1 0x0 DUP1 REVERT JUMPDEST POP CALLDATALOAD PUSH2 0x28BC JUMP JUMPDEST CALLVALUE DUP1 ISZERO PUSH2 0xE0D JUMPI PUSH1 0x0 DUP1 REVERT JUMPDEST POP PUSH2 0x2EB PUSH2 0x2919 JUMP JUMPDEST CALLVALUE DUP1 ISZERO PUSH2 0xE22 JUMPI PUSH1 0x0 DUP1 REVERT JUMPDEST POP PUSH2 0x5F9 PUSH1 0x4 DUP1 CALLDATASIZE SUB PUSH1 0x40 DUP2 LT ISZERO PUSH2 0xE39 JUMPI PUSH1 0x0 DUP1 REVERT JUMPDEST POP DUP1 CALLDATALOAD SWAP1 PUSH1 0x20 ADD CALLDATALOAD PUSH2 0x291F JUMP JUMPDEST CALLVALUE DUP1 ISZERO PUSH2 0xE52 JUMPI PUSH1 0x0 DUP1 REVERT JUMPDEST POP PUSH2 0x2EB PUSH2 0x293E JUMP JUMPDEST CALLVALUE DUP1 ISZERO PUSH2 0xE67 JUMPI PUSH1 0x0 DUP1 REVERT JUMPDEST POP PUSH2 0x331 PUSH1 0x4 DUP1 CALLDATASIZE SUB PUSH1 0x40 DUP2 LT ISZERO PUSH2 0xE7E JUMPI PUSH1 0x0 DUP1 REVERT JUMPDEST POP DUP1 CALLDATALOAD SWAP1 PUSH1 0x20 ADD CALLDATALOAD PUSH1 0x1 PUSH1 0x1 PUSH1 0xA0 SHL SUB AND PUSH2 0x2943 JUMP JUMPDEST CALLVALUE DUP1 ISZERO PUSH2 0xEA0 JUMPI PUSH1 0x0 DUP1 REVERT JUMPDEST POP PUSH2 0x63F PUSH1 0x4 DUP1 CALLDATASIZE SUB PUSH1 0x40 DUP2 LT ISZERO PUSH2 0xEB7 JUMPI PUSH1 0x0 DUP1 REVERT JUMPDEST POP DUP1 CALLDATALOAD SWAP1 PUSH1 0x20 ADD CALLDATALOAD PUSH2 0x295B JUMP JUMPDEST CALLVALUE DUP1 ISZERO PUSH2 0xED0 JUMPI PUSH1 0x0 DUP1 REVERT JUMPDEST POP PUSH2 0x63F PUSH1 0x4 DUP1 CALLDATASIZE SUB PUSH1 0x40 DUP2 LT ISZERO PUSH2 0xEE7 JUMPI PUSH1 0x0 DUP1 REVERT JUMPDEST DUP2 ADD SWAP1 PUSH1 0x20 DUP2 ADD DUP2 CALLDATALOAD PUSH1 0x1 PUSH1 0x20 SHL DUP2 GT ISZERO PUSH2 0xF01 JUMPI PUSH1 0x0 DUP1 REVERT JUMPDEST DUP3 ADD DUP4 PUSH1 0x20 DUP3 ADD GT ISZERO PUSH2 0xF13 JUMPI PUSH1 0x0 DUP1 REVERT JUMPDEST DUP1 CALLDATALOAD SWAP1 PUSH1 0x20 ADD SWAP2 DUP5 PUSH1 0x1 DUP4 MUL DUP5 ADD GT PUSH1 0x1 PUSH1 0x20 SHL DUP4 GT OR ISZERO PUSH2 0xF34 JUMPI PUSH1 0x0 DUP1 REVERT JUMPDEST SWAP2 SWAP4 POP SWAP2 POP CALLDATALOAD PUSH1 0x1 PUSH1 0x1 PUSH1 0xA0 SHL SUB AND PUSH2 0x29E2 JUMP JUMPDEST CALLVALUE DUP1 ISZERO PUSH2 0xF54 JUMPI PUSH1 0x0 DUP1 REVERT JUMPDEST POP PUSH2 0x63F PUSH1 0x4 DUP1 CALLDATASIZE SUB PUSH1 0x20 DUP2 LT ISZERO PUSH2 0xF6B JUMPI PUSH1 0x0 DUP1 REVERT JUMPDEST DUP2 ADD SWAP1 PUSH1 0x20 DUP2 ADD DUP2 CALLDATALOAD PUSH1 0x1 PUSH1 0x20 SHL DUP2 GT ISZERO PUSH2 0xF85 JUMPI PUSH1 0x0 DUP1 REVERT JUMPDEST DUP3 ADD DUP4 PUSH1 0x20 DUP3 ADD GT ISZERO PUSH2 0xF97 JUMPI PUSH1 0x0 DUP1 REVERT JUMPDEST DUP1 CALLDATALOAD SWAP1 PUSH1 0x20 ADD SWAP2 DUP5 PUSH1 0x1 DUP4 MUL DUP5 ADD GT PUSH1 0x1 PUSH1 0x20 SHL DUP4 GT OR ISZERO PUSH2 0xFB8 JUMPI PUSH1 0x0 DUP1 REVERT JUMPDEST POP SWAP1 SWAP3 POP SWAP1 POP PUSH2 0x2A84 JUMP JUMPDEST CALLVALUE DUP1 ISZERO PUSH2 0xFCF JUMPI PUSH1 0x0 DUP1 REVERT JUMPDEST POP PUSH2 0x2EB PUSH2 0x2AEF JUMP JUMPDEST CALLVALUE DUP1 ISZERO PUSH2 0xFE4 JUMPI PUSH1 0x0 DUP1 REVERT JUMPDEST POP PUSH2 0x63F PUSH1 0x4 DUP1 CALLDATASIZE SUB PUSH1 0x40 DUP2 LT ISZERO PUSH2 0xFFB JUMPI PUSH1 0x0 DUP1 REVERT JUMPDEST POP PUSH1 0x1 PUSH1 0x1 PUSH1 0xA0 SHL SUB DUP2 CALLDATALOAD AND SWAP1 PUSH1 0x20 ADD CALLDATALOAD ISZERO ISZERO PUSH2 0x2AF4 JUMP JUMPDEST CALLVALUE DUP1 ISZERO PUSH2 0x101F JUMPI PUSH1 0x0 DUP1 REVERT JUMPDEST POP PUSH2 0x63F PUSH2 0x2BE3 JUMP JUMPDEST CALLVALUE DUP1 ISZERO PUSH2 0x1034 JUMPI PUSH1 0x0 DUP1 REVERT JUMPDEST POP PUSH2 0x63F PUSH1 0x4 DUP1 CALLDATASIZE SUB PUSH1 0x20 DUP2 LT ISZERO PUSH2 0x104B JUMPI PUSH1 0x0 DUP1 REVERT JUMPDEST POP CALLDATALOAD PUSH2 0x2C79 JUMP JUMPDEST CALLVALUE DUP1 ISZERO PUSH2 0x105E JUMPI PUSH1 0x0 DUP1 REVERT JUMPDEST POP PUSH2 0x2EB PUSH2 0x3055 JUMP JUMPDEST CALLVALUE DUP1 ISZERO PUSH2 0x1073 JUMPI PUSH1 0x0 DUP1 REVERT JUMPDEST POP PUSH2 0x63F PUSH1 0x4 DUP1 CALLDATASIZE SUB PUSH1 0x20 DUP2 LT ISZERO PUSH2 0x108A JUMPI PUSH1 0x0 DUP1 REVERT JUMPDEST POP CALLDATALOAD PUSH1 0xFF AND PUSH2 0x305B JUMP JUMPDEST CALLVALUE DUP1 ISZERO PUSH2 0x10A0 JUMPI PUSH1 0x0 DUP1 REVERT JUMPDEST POP PUSH2 0x2EB PUSH1 0x4 DUP1 CALLDATASIZE SUB PUSH1 0x20 DUP2 LT ISZERO PUSH2 0x10B7 JUMPI PUSH1 0x0 DUP1 REVERT JUMPDEST POP CALLDATALOAD PUSH2 0x3092 JUMP JUMPDEST CALLVALUE DUP1 ISZERO PUSH2 0x10CA JUMPI PUSH1 0x0 DUP1 REVERT JUMPDEST POP PUSH2 0x2EB PUSH2 0x30A9 JUMP JUMPDEST CALLVALUE DUP1 ISZERO PUSH2 0x10DF JUMPI PUSH1 0x0 DUP1 REVERT JUMPDEST POP PUSH2 0x63F PUSH1 0x4 DUP1 CALLDATASIZE SUB PUSH1 0x40 DUP2 LT ISZERO PUSH2 0x10F6 JUMPI PUSH1 0x0 DUP1 REVERT JUMPDEST POP DUP1 CALLDATALOAD SWAP1 PUSH1 0x20 ADD CALLDATALOAD PUSH1 0x1 PUSH1 0x1 PUSH1 0xA0 SHL SUB AND PUSH2 0x30AF JUMP JUMPDEST CALLVALUE DUP1 ISZERO PUSH2 0x1118 JUMPI PUSH1 0x0 DUP1 REVERT JUMPDEST POP PUSH2 0x63F PUSH1 0x4 DUP1 CALLDATASIZE SUB PUSH1 0x20 DUP2 LT ISZERO PUSH2 0x112F JUMPI PUSH1 0x0 DUP1 REVERT JUMPDEST POP CALLDATALOAD PUSH2 0x3108 JUMP JUMPDEST CALLVALUE DUP1 ISZERO PUSH2 0x1142 JUMPI PUSH1 0x0 DUP1 REVERT JUMPDEST POP PUSH2 0x3A5 PUSH1 0x4 DUP1 CALLDATASIZE SUB PUSH1 0x20 DUP2 LT ISZERO PUSH2 0x1159 JUMPI PUSH1 0x0 DUP1 REVERT JUMPDEST POP CALLDATALOAD PUSH2 0x3124 JUMP JUMPDEST CALLVALUE DUP1 ISZERO PUSH2 0x116C JUMPI PUSH1 0x0 DUP1 REVERT JUMPDEST POP PUSH2 0x331 PUSH1 0x4 DUP1 CALLDATASIZE SUB PUSH1 0x40 DUP2 LT ISZERO PUSH2 0x1183 JUMPI PUSH1 0x0 DUP1 REVERT JUMPDEST POP PUSH1 0x1 PUSH1 0x1 PUSH1 0xA0 SHL SUB DUP2 CALLDATALOAD DUP2 AND SWAP2 PUSH1 0x20 ADD CALLDATALOAD AND PUSH2 0x3131 JUMP JUMPDEST CALLVALUE DUP1 ISZERO PUSH2 0x11A7 JUMPI PUSH1 0x0 DUP1 REVERT JUMPDEST POP PUSH2 0x63F PUSH1 0x4 DUP1 CALLDATASIZE SUB PUSH1 0xA0 DUP2 LT ISZERO PUSH2 0x11BE JUMPI PUSH1 0x0 DUP1 REVERT JUMPDEST PUSH1 0x1 PUSH1 0x1 PUSH1 0xA0 SHL SUB DUP3 CALLDATALOAD DUP2 AND SWAP3 PUSH1 0x20 DUP2 ADD CALLDATALOAD SWAP1 SWAP2 AND SWAP2 PUSH1 0x40 DUP3 ADD CALLDATALOAD SWAP2 PUSH1 0x60 DUP2 ADD CALLDATALOAD SWAP2 DUP2 ADD SWAP1 PUSH1 0xA0 DUP2 ADD PUSH1 0x80 DUP3 ADD CALLDATALOAD PUSH1 0x1 PUSH1 0x20 SHL DUP2 GT ISZERO PUSH2 0x11FD JUMPI PUSH1 0x0 DUP1 REVERT JUMPDEST DUP3 ADD DUP4 PUSH1 0x20 DUP3 ADD GT ISZERO PUSH2 0x120F JUMPI PUSH1 0x0 DUP1 REVERT JUMPDEST DUP1 CALLDATALOAD SWAP1 PUSH1 0x20 ADD SWAP2 DUP5 PUSH1 0x1 DUP4 MUL DUP5 ADD GT PUSH1 0x1 PUSH1 0x20 SHL DUP4 GT OR ISZERO PUSH2 0x1230 JUMPI PUSH1 0x0 DUP1 REVERT JUMPDEST SWAP2 SWAP1 DUP1 DUP1 PUSH1 0x1F ADD PUSH1 0x20 DUP1 SWAP2 DIV MUL PUSH1 0x20 ADD PUSH1 0x40 MLOAD SWAP1 DUP2 ADD PUSH1 0x40 MSTORE DUP1 SWAP4 SWAP3 SWAP2 SWAP1 DUP2 DUP2 MSTORE PUSH1 0x20 ADD DUP4 DUP4 DUP1 DUP3 DUP5 CALLDATACOPY PUSH1 0x0 SWAP3 ADD SWAP2 SWAP1 SWAP2 MSTORE POP SWAP3 SWAP6 POP PUSH2 0x315F SWAP5 POP POP POP POP POP JUMP JUMPDEST CALLVALUE DUP1 ISZERO PUSH2 0x127D JUMPI PUSH1 0x0 DUP1 REVERT JUMPDEST POP PUSH2 0x2EB PUSH1 0x4 DUP1 CALLDATASIZE SUB PUSH1 0x40 DUP2 LT ISZERO PUSH2 0x1294 JUMPI PUSH1 0x0 DUP1 REVERT JUMPDEST POP DUP1 CALLDATALOAD SWAP1 PUSH1 0x20 ADD CALLDATALOAD PUSH2 0x332A JUMP JUMPDEST CALLVALUE DUP1 ISZERO PUSH2 0x12AD JUMPI PUSH1 0x0 DUP1 REVERT JUMPDEST POP PUSH2 0x63F PUSH2 0x338F JUMP JUMPDEST PUSH1 0x0 PUSH1 0x1 PUSH1 0x1 PUSH1 0xA0 SHL SUB DUP4 AND PUSH2 0x12FD JUMPI PUSH1 0x40 MLOAD PUSH3 0x461BCD PUSH1 0xE5 SHL DUP2 MSTORE PUSH1 0x4 ADD DUP1 DUP1 PUSH1 0x20 ADD DUP3 DUP2 SUB DUP3 MSTORE PUSH1 0x2B DUP2 MSTORE PUSH1 0x20 ADD DUP1 PUSH2 0x4AF6 PUSH1 0x2B SWAP2 CODECOPY PUSH1 0x40 ADD SWAP2 POP POP PUSH1 0x40 MLOAD DUP1 SWAP2 SUB SWAP1 REVERT JUMPDEST POP PUSH1 0x0 DUP2 DUP2 MSTORE PUSH1 0x2 PUSH1 0x20 SWAP1 DUP2 MSTORE PUSH1 0x40 DUP1 DUP4 KECCAK256 PUSH1 0x1 PUSH1 0x1 PUSH1 0xA0 SHL SUB DUP7 AND DUP5 MSTORE SWAP1 SWAP2 MSTORE SWAP1 KECCAK256 SLOAD JUMPDEST SWAP3 SWAP2 POP POP JUMP JUMPDEST PUSH1 0x1 PUSH1 0x1 PUSH1 0xE0 SHL SUB NOT DUP2 AND PUSH1 0x0 SWAP1 DUP2 MSTORE PUSH1 0x1 PUSH1 0x20 MSTORE PUSH1 0x40 SWAP1 KECCAK256 SLOAD PUSH1 0xFF AND JUMPDEST SWAP2 SWAP1 POP JUMP JUMPDEST PUSH1 0x6 SLOAD PUSH1 0xFF AND DUP2 JUMP JUMPDEST PUSH1 0x4 DUP1 SLOAD PUSH1 0x40 DUP1 MLOAD PUSH1 0x20 PUSH1 0x1F PUSH1 0x2 PUSH1 0x0 NOT PUSH2 0x100 PUSH1 0x1 DUP9 AND ISZERO MUL ADD SWAP1 SWAP6 AND SWAP5 SWAP1 SWAP5 DIV SWAP4 DUP5 ADD DUP2 SWAP1 DIV DUP2 MUL DUP3 ADD DUP2 ADD SWAP1 SWAP3 MSTORE DUP3 DUP2 MSTORE PUSH1 0x60 SWAP4 SWAP1 SWAP3 SWAP1 SWAP2 DUP4 ADD DUP3 DUP3 DUP1 ISZERO PUSH2 0x13E0 JUMPI DUP1 PUSH1 0x1F LT PUSH2 0x13B5 JUMPI PUSH2 0x100 DUP1 DUP4 SLOAD DIV MUL DUP4 MSTORE SWAP2 PUSH1 0x20 ADD SWAP2 PUSH2 0x13E0 JUMP JUMPDEST DUP3 ADD SWAP2 SWAP1 PUSH1 0x0 MSTORE PUSH1 0x20 PUSH1 0x0 KECCAK256 SWAP1 JUMPDEST DUP2 SLOAD DUP2 MSTORE SWAP1 PUSH1 0x1 ADD SWAP1 PUSH1 0x20 ADD DUP1 DUP4 GT PUSH2 0x13C3 JUMPI DUP3 SWAP1 SUB PUSH1 0x1F AND DUP3 ADD SWAP2 JUMPDEST POP POP POP POP POP SWAP1 POP SWAP2 SWAP1 POP JUMP JUMPDEST PUSH1 0x0 DUP1 PUSH1 0x6 SLOAD PUSH1 0xFF AND PUSH1 0x1 DUP2 GT ISZERO PUSH2 0x1400 JUMPI INVALID JUMPDEST EQ PUSH2 0x140A JUMPI PUSH1 0x0 DUP1 REVERT JUMPDEST PUSH1 0x7 DUP1 SLOAD LT PUSH2 0x1418 JUMPI PUSH1 0x0 DUP1 REVERT JUMPDEST PUSH1 0xE SLOAD CALLVALUE LT ISZERO PUSH2 0x1427 JUMPI PUSH1 0x0 DUP1 REVERT JUMPDEST PUSH1 0x0 PUSH1 0x1 PUSH1 0x1 PUSH1 0xA0 SHL SUB AND PUSH1 0x10 DUP5 DUP5 PUSH1 0x40 MLOAD DUP1 DUP4 DUP4 DUP1 DUP3 DUP5 CALLDATACOPY SWAP2 SWAP1 SWAP2 ADD SWAP5 DUP6 MSTORE POP POP PUSH1 0x40 MLOAD SWAP3 DUP4 SWAP1 SUB PUSH1 0x20 ADD SWAP1 SWAP3 KECCAK256 SLOAD PUSH1 0x1 PUSH1 0x1 PUSH1 0xA0 SHL SUB AND SWAP3 SWAP1 SWAP3 EQ ISZERO SWAP2 POP PUSH2 0x1472 SWAP1 POP JUMPI PUSH1 0x0 DUP1 REVERT JUMPDEST PUSH1 0x7 SLOAD PUSH1 0x0 SWAP1 PUSH2 0x1483 SWAP1 PUSH1 0x1 PUSH2 0x35C6 JUMP JUMPDEST PUSH1 0x0 DUP2 DUP2 MSTORE PUSH1 0x8 PUSH1 0x20 MSTORE PUSH1 0x40 SWAP1 KECCAK256 SLOAD SWAP1 SWAP2 POP PUSH1 0x1 PUSH1 0x1 PUSH1 0xA0 SHL SUB AND ISZERO PUSH2 0x14A5 JUMPI INVALID JUMPDEST PUSH1 0x0 DUP2 DUP2 MSTORE PUSH1 0x9 PUSH1 0x20 MSTORE PUSH1 0x40 SWAP1 KECCAK256 SLOAD PUSH1 0xFF AND ISZERO PUSH2 0x14BE JUMPI INVALID JUMPDEST PUSH1 0x0 PUSH1 0x10 DUP6 DUP6 PUSH1 0x40 MLOAD DUP1 DUP4 DUP4 DUP1 DUP3 DUP5 CALLDATACOPY SWAP2 SWAP1 SWAP2 ADD SWAP5 DUP6 MSTORE POP POP PUSH1 0x40 DUP1 MLOAD SWAP4 DUP5 SWAP1 SUB PUSH1 0x20 ADD DUP5 KECCAK256 SLOAD PUSH4 0x3FABE5A3 PUSH1 0xE2 SHL DUP6 MSTORE SWAP1 MLOAD PUSH1 0x1 PUSH1 0x1 PUSH1 0xA0 SHL SUB SWAP1 SWAP2 AND SWAP4 PUSH4 0xFEAF968C SWAP4 POP PUSH1 0x4 DUP1 DUP3 ADD SWAP4 POP PUSH1 0xA0 SWAP3 SWAP2 DUP3 SWAP1 SUB ADD DUP2 DUP7 DUP1 EXTCODESIZE ISZERO DUP1 ISZERO PUSH2 0x1523 JUMPI PUSH1 0x0 DUP1 REVERT JUMPDEST POP GAS STATICCALL ISZERO DUP1 ISZERO PUSH2 0x1537 JUMPI RETURNDATASIZE PUSH1 0x0 DUP1 RETURNDATACOPY RETURNDATASIZE PUSH1 0x0 REVERT JUMPDEST POP POP POP POP PUSH1 0x40 MLOAD RETURNDATASIZE PUSH1 0xA0 DUP2 LT ISZERO PUSH2 0x154D JUMPI PUSH1 0x0 DUP1 REVERT JUMPDEST POP PUSH1 0x20 ADD MLOAD SWAP1 POP PUSH2 0x155C PUSH2 0x479F JUMP JUMPDEST PUSH1 0x1 DUP2 MSTORE PUSH1 0x20 DUP1 DUP3 ADD DUP10 SWAP1 MSTORE PUSH1 0x40 DUP1 DUP4 ADD DUP10 SWAP1 MSTORE DUP1 MLOAD PUSH1 0x1F DUP9 ADD DUP4 SWAP1 DIV DUP4 MUL DUP2 ADD DUP4 ADD SWAP1 SWAP2 MSTORE DUP7 DUP2 MSTORE SWAP1 DUP8 SWAP1 DUP8 SWAP1 DUP2 SWAP1 DUP5 ADD DUP4 DUP3 DUP1 DUP3 DUP5 CALLDATACOPY PUSH1 0x0 SWAP3 ADD SWAP2 SWAP1 SWAP2 MSTORE POP POP POP POP PUSH1 0x60 DUP3 ADD MSTORE PUSH1 0x80 DUP2 ADD DUP3 SWAP1 MSTORE PUSH2 0x15CF PUSH2 0x15B7 PUSH2 0x3620 JUMP JUMPDEST DUP5 PUSH1 0x1 PUSH1 0x40 MLOAD DUP1 PUSH1 0x20 ADD PUSH1 0x40 MSTORE DUP1 PUSH1 0x0 DUP2 MSTORE POP PUSH2 0x3624 JUMP JUMPDEST PUSH2 0x15D7 PUSH2 0x3620 JUMP JUMPDEST PUSH1 0x0 DUP5 DUP2 MSTORE PUSH1 0x8 PUSH1 0x20 SWAP1 DUP2 MSTORE PUSH1 0x40 DUP1 DUP4 KECCAK256 DUP1 SLOAD PUSH1 0x1 PUSH1 0x1 PUSH1 0xA0 SHL SUB NOT AND PUSH1 0x1 PUSH1 0x1 PUSH1 0xA0 SHL SUB SWAP6 SWAP1 SWAP6 AND SWAP5 SWAP1 SWAP5 OR SWAP1 SWAP4 SSTORE PUSH1 0x9 DUP2 MSTORE SWAP1 DUP3 SWAP1 KECCAK256 DUP4 MLOAD DUP2 SLOAD PUSH1 0xFF NOT AND SWAP1 ISZERO ISZERO OR DUP2 SSTORE DUP4 DUP3 ADD MLOAD PUSH1 0x1 DUP3 ADD SSTORE SWAP2 DUP4 ADD MLOAD PUSH1 0x2 DUP4 ADD SSTORE PUSH1 0x60 DUP4 ADD MLOAD DUP1 MLOAD DUP5 SWAP4 SWAP3 PUSH2 0x164A SWAP3 PUSH1 0x3 DUP6 ADD SWAP3 SWAP2 ADD SWAP1 PUSH2 0x47D0 JUMP JUMPDEST POP PUSH1 0x80 SWAP2 SWAP1 SWAP2 ADD MLOAD PUSH1 0x4 SWAP1 SWAP2 ADD SSTORE PUSH1 0x7 SLOAD PUSH2 0x1666 SWAP1 PUSH1 0x1 PUSH2 0x35C6 JUMP JUMPDEST PUSH1 0x7 SSTORE PUSH1 0xE SLOAD PUSH2 0x1675 SWAP1 PUSH2 0x372C JUMP JUMPDEST PUSH32 0x3560F0337E62819199860BA21B425B8BDE9A01FA6E514DD58AB6EDF7DAF1D1F1 DUP4 PUSH2 0x169F PUSH2 0x3620 JUMP JUMPDEST PUSH1 0x40 DUP1 MLOAD SWAP3 DUP4 MSTORE PUSH1 0x1 PUSH1 0x1 PUSH1 0xA0 SHL SUB SWAP1 SWAP2 AND PUSH1 0x20 DUP4 ADD MSTORE DUP1 MLOAD SWAP2 DUP3 SWAP1 SUB ADD SWAP1 LOG1 POP SWAP1 SWAP7 SWAP6 POP POP POP POP POP POP JUMP JUMPDEST PUSH1 0x0 DUP1 PUSH1 0x0 PUSH1 0x60 PUSH1 0x0 DUP6 PUSH1 0x0 DUP2 GT DUP1 ISZERO PUSH2 0x16E6 JUMPI POP PUSH1 0x7 DUP2 GT ISZERO JUMPDEST PUSH2 0x16EF JUMPI PUSH1 0x0 DUP1 REVERT JUMPDEST PUSH2 0x16F7 PUSH2 0x479F JUMP JUMPDEST PUSH1 0x0 DUP9 DUP2 MSTORE PUSH1 0x9 PUSH1 0x20 SWAP1 DUP2 MSTORE PUSH1 0x40 SWAP2 DUP3 SWAP1 KECCAK256 DUP3 MLOAD PUSH1 0xA0 DUP2 ADD DUP5 MSTORE DUP2 SLOAD PUSH1 0xFF AND ISZERO ISZERO DUP2 MSTORE PUSH1 0x1 DUP1 DUP4 ADD SLOAD DUP3 DUP6 ADD MSTORE PUSH1 0x2 DUP1 DUP5 ADD SLOAD DUP4 DUP8 ADD MSTORE PUSH1 0x3 DUP5 ADD DUP1 SLOAD DUP8 MLOAD PUSH2 0x100 SWAP5 DUP3 AND ISZERO SWAP5 SWAP1 SWAP5 MUL PUSH1 0x0 NOT ADD AND SWAP2 SWAP1 SWAP2 DIV PUSH1 0x1F DUP2 ADD DUP7 SWAP1 DIV DUP7 MUL DUP4 ADD DUP7 ADD SWAP1 SWAP7 MSTORE DUP6 DUP3 MSTORE SWAP2 SWAP5 SWAP3 SWAP4 PUSH1 0x60 DUP7 ADD SWAP4 SWAP2 SWAP3 SWAP2 SWAP1 DUP4 ADD DUP3 DUP3 DUP1 ISZERO PUSH2 0x17BB JUMPI DUP1 PUSH1 0x1F LT PUSH2 0x1790 JUMPI PUSH2 0x100 DUP1 DUP4 SLOAD DIV MUL DUP4 MSTORE SWAP2 PUSH1 0x20 ADD SWAP2 PUSH2 0x17BB JUMP JUMPDEST DUP3 ADD SWAP2 SWAP1 PUSH1 0x0 MSTORE PUSH1 0x20 PUSH1 0x0 KECCAK256 SWAP1 JUMPDEST DUP2 SLOAD DUP2 MSTORE SWAP1 PUSH1 0x1 ADD SWAP1 PUSH1 0x20 ADD DUP1 DUP4 GT PUSH2 0x179E JUMPI DUP3 SWAP1 SUB PUSH1 0x1F AND DUP3 ADD SWAP2 JUMPDEST POP POP POP SWAP2 DUP4 MSTORE POP POP PUSH1 0x4 SWAP2 SWAP1 SWAP2 ADD SLOAD PUSH1 0x20 SWAP2 DUP3 ADD MSTORE DUP2 MLOAD SWAP1 DUP3 ADD MLOAD PUSH1 0x40 DUP4 ADD MLOAD PUSH1 0x60 DUP5 ADD MLOAD PUSH1 0x80 SWAP1 SWAP5 ADD MLOAD SWAP3 SWAP13 SWAP2 SWAP12 POP SWAP10 POP SWAP2 SWAP8 POP SWAP6 POP SWAP4 POP POP POP POP JUMP JUMPDEST PUSH1 0x0 SWAP1 DUP2 MSTORE PUSH1 0x20 DUP2 SWAP1 MSTORE PUSH1 0x40 SWAP1 KECCAK256 PUSH1 0x2 ADD SLOAD SWAP1 JUMP JUMPDEST PUSH1 0x0 PUSH1 0x10 DUP4 DUP4 PUSH1 0x40 MLOAD DUP1 DUP4 DUP4 DUP1 DUP3 DUP5 CALLDATACOPY SWAP2 SWAP1 SWAP2 ADD SWAP5 DUP6 MSTORE POP POP PUSH1 0x40 MLOAD SWAP3 DUP4 SWAP1 SUB PUSH1 0x20 ADD SWAP1 SWAP3 KECCAK256 SLOAD PUSH1 0x1 PUSH1 0x1 PUSH1 0xA0 SHL SUB AND SWAP3 POP POP POP SWAP3 SWAP2 POP POP JUMP JUMPDEST DUP1 PUSH1 0x7 DUP2 GT PUSH2 0x1856 JUMPI PUSH1 0x0 DUP1 REVERT JUMPDEST PUSH1 0x0 DUP2 DUP2 MSTORE PUSH1 0xC PUSH1 0x20 MSTORE PUSH1 0x40 SWAP1 KECCAK256 SLOAD PUSH1 0xFF AND PUSH2 0x1871 JUMPI PUSH1 0x0 DUP1 REVERT JUMPDEST PUSH1 0x0 DUP3 DUP2 MSTORE PUSH1 0xC PUSH1 0x20 MSTORE PUSH1 0x40 SWAP1 KECCAK256 SLOAD PUSH1 0xFF AND PUSH2 0x188C JUMPI PUSH1 0x0 DUP1 REVERT JUMPDEST PUSH2 0x1894 PUSH2 0x3620 JUMP JUMPDEST PUSH1 0x0 DUP4 DUP2 MSTORE PUSH1 0xB PUSH1 0x20 MSTORE PUSH1 0x40 SWAP1 KECCAK256 SLOAD PUSH1 0x1 PUSH1 0x1 PUSH1 0xA0 SHL SUB SWAP1 DUP2 AND SWAP2 AND EQ PUSH2 0x18BA JUMPI PUSH1 0x0 DUP1 REVERT JUMPDEST PUSH1 0x0 DUP3 DUP2 MSTORE PUSH1 0xB PUSH1 0x20 MSTORE PUSH1 0x40 SWAP1 KECCAK256 SLOAD PUSH2 0x18DE SWAP1 PUSH1 0x1 PUSH1 0x1 PUSH1 0xA0 SHL SUB AND DUP4 PUSH1 0x1 PUSH2 0x379D JUMP JUMPDEST PUSH1 0x0 DUP3 DUP2 MSTORE PUSH1 0xC PUSH1 0x20 SWAP1 DUP2 MSTORE PUSH1 0x40 DUP1 DUP4 KECCAK256 PUSH1 0x5 DUP2 ADD SLOAD PUSH1 0x4 SWAP1 SWAP2 ADD SLOAD DUP1 DUP6 MSTORE PUSH1 0xD DUP5 MSTORE DUP3 DUP6 KECCAK256 DUP3 DUP7 MSTORE SWAP1 SWAP4 MSTORE SWAP3 KECCAK256 SLOAD PUSH2 0x1918 SWAP1 PUSH1 0x1 PUSH2 0x38D0 JUMP JUMPDEST PUSH1 0x0 DUP3 DUP2 MSTORE PUSH1 0xD PUSH1 0x20 SWAP1 DUP2 MSTORE PUSH1 0x40 DUP1 DUP4 KECCAK256 DUP7 DUP5 MSTORE DUP3 MSTORE DUP1 DUP4 KECCAK256 SWAP4 SWAP1 SWAP4 SSTORE DUP7 DUP3 MSTORE PUSH1 0xB DUP2 MSTORE DUP3 DUP3 KECCAK256 DUP1 SLOAD PUSH1 0x1 PUSH1 0x1 PUSH1 0xA0 SHL SUB NOT AND SWAP1 SSTORE PUSH1 0xC DUP2 MSTORE SWAP1 DUP3 SWAP1 KECCAK256 DUP1 SLOAD PUSH1 0xFF NOT AND SWAP1 SSTORE DUP2 MLOAD DUP7 DUP2 MSTORE SWAP2 MLOAD PUSH32 0x76126F33D318ABE88F8B82C5136B7E5A52091AB897679A40F612D7590ADFC997 SWAP3 DUP2 SWAP1 SUB SWAP1 SWAP2 ADD SWAP1 LOG1 POP POP POP POP JUMP JUMPDEST DUP2 MLOAD DUP4 MLOAD EQ PUSH2 0x19D4 JUMPI PUSH1 0x40 MLOAD PUSH3 0x461BCD PUSH1 0xE5 SHL DUP2 MSTORE PUSH1 0x4 ADD DUP1 DUP1 PUSH1 0x20 ADD DUP3 DUP2 SUB DUP3 MSTORE PUSH1 0x28 DUP2 MSTORE PUSH1 0x20 ADD DUP1 PUSH2 0x4CD5 PUSH1 0x28 SWAP2 CODECOPY PUSH1 0x40 ADD SWAP2 POP POP PUSH1 0x40 MLOAD DUP1 SWAP2 SUB SWAP1 REVERT JUMPDEST PUSH1 0x1 PUSH1 0x1 PUSH1 0xA0 SHL SUB DUP5 AND PUSH2 0x1A19 JUMPI PUSH1 0x40 MLOAD PUSH3 0x461BCD PUSH1 0xE5 SHL DUP2 MSTORE PUSH1 0x4 ADD DUP1 DUP1 PUSH1 0x20 ADD DUP3 DUP2 SUB DUP3 MSTORE PUSH1 0x25 DUP2 MSTORE PUSH1 0x20 ADD DUP1 PUSH2 0x4B9E PUSH1 0x25 SWAP2 CODECOPY PUSH1 0x40 ADD SWAP2 POP POP PUSH1 0x40 MLOAD DUP1 SWAP2 SUB SWAP1 REVERT JUMPDEST PUSH2 0x1A21 PUSH2 0x3620 JUMP JUMPDEST PUSH1 0x1 PUSH1 0x1 PUSH1 0xA0 SHL SUB AND DUP6 PUSH1 0x1 PUSH1 0x1 PUSH1 0xA0 SHL SUB AND EQ DUP1 PUSH2 0x1A4C JUMPI POP PUSH2 0x1A4C DUP6 PUSH2 0x1A47 PUSH2 0x3620 JUMP JUMPDEST PUSH2 0x3131 JUMP JUMPDEST PUSH2 0x1A87 JUMPI PUSH1 0x40 MLOAD PUSH3 0x461BCD PUSH1 0xE5 SHL DUP2 MSTORE PUSH1 0x4 ADD DUP1 DUP1 PUSH1 0x20 ADD DUP3 DUP2 SUB DUP3 MSTORE PUSH1 0x32 DUP2 MSTORE PUSH1 0x20 ADD DUP1 PUSH2 0x4BC3 PUSH1 0x32 SWAP2 CODECOPY PUSH1 0x40 ADD SWAP2 POP POP PUSH1 0x40 MLOAD DUP1 SWAP2 SUB SWAP1 REVERT JUMPDEST PUSH1 0x0 PUSH2 0x1A91 PUSH2 0x3620 JUMP JUMPDEST SWAP1 POP PUSH2 0x1AA1 DUP2 DUP8 DUP8 DUP8 DUP8 DUP8 PUSH2 0x392D JUMP JUMPDEST PUSH1 0x0 JUMPDEST DUP5 MLOAD DUP2 LT ISZERO PUSH2 0x1BA7 JUMPI PUSH1 0x0 DUP6 DUP3 DUP2 MLOAD DUP2 LT PUSH2 0x1ABB JUMPI INVALID JUMPDEST PUSH1 0x20 MUL PUSH1 0x20 ADD ADD MLOAD SWAP1 POP PUSH1 0x0 DUP6 DUP4 DUP2 MLOAD DUP2 LT PUSH2 0x1AD3 JUMPI INVALID JUMPDEST PUSH1 0x20 MUL PUSH1 0x20 ADD ADD MLOAD SWAP1 POP PUSH2 0x1B40 DUP2 PUSH1 0x40 MLOAD DUP1 PUSH1 0x60 ADD PUSH1 0x40 MSTORE DUP1 PUSH1 0x2A DUP2 MSTORE PUSH1 0x20 ADD PUSH2 0x4C38 PUSH1 0x2A SWAP2 CODECOPY PUSH1 0x2 PUSH1 0x0 DUP7 DUP2 MSTORE PUSH1 0x20 ADD SWAP1 DUP2 MSTORE PUSH1 0x20 ADD PUSH1 0x0 KECCAK256 PUSH1 0x0 DUP14 PUSH1 0x1 PUSH1 0x1 PUSH1 0xA0 SHL SUB AND PUSH1 0x1 PUSH1 0x1 PUSH1 0xA0 SHL SUB AND DUP2 MSTORE PUSH1 0x20 ADD SWAP1 DUP2 MSTORE PUSH1 0x20 ADD PUSH1 0x0 KECCAK256 SLOAD PUSH2 0x3A3F SWAP1 SWAP3 SWAP2 SWAP1 PUSH4 0xFFFFFFFF AND JUMP JUMPDEST PUSH1 0x0 DUP4 DUP2 MSTORE PUSH1 0x2 PUSH1 0x20 SWAP1 DUP2 MSTORE PUSH1 0x40 DUP1 DUP4 KECCAK256 PUSH1 0x1 PUSH1 0x1 PUSH1 0xA0 SHL SUB DUP15 DUP2 AND DUP6 MSTORE SWAP3 MSTORE DUP1 DUP4 KECCAK256 SWAP4 SWAP1 SWAP4 SSTORE DUP11 AND DUP2 MSTORE KECCAK256 SLOAD PUSH2 0x1B77 SWAP1 DUP3 PUSH2 0x35C6 JUMP JUMPDEST PUSH1 0x0 SWAP3 DUP4 MSTORE PUSH1 0x2 PUSH1 0x20 SWAP1 DUP2 MSTORE PUSH1 0x40 DUP1 DUP6 KECCAK256 PUSH1 0x1 PUSH1 0x1 PUSH1 0xA0 SHL SUB DUP13 AND DUP7 MSTORE SWAP1 SWAP2 MSTORE SWAP1 SWAP3 KECCAK256 SWAP2 SWAP1 SWAP2 SSTORE POP PUSH1 0x1 ADD PUSH2 0x1AA4 JUMP JUMPDEST POP DUP5 PUSH1 0x1 PUSH1 0x1 PUSH1 0xA0 SHL SUB AND DUP7 PUSH1 0x1 PUSH1 0x1 PUSH1 0xA0 SHL SUB AND DUP3 PUSH1 0x1 PUSH1 0x1 PUSH1 0xA0 SHL SUB AND PUSH32 0x4A39DC06D4C0DBC64B70AF90FD698A233A518AA5D07E595D983B8C0526C8F7FB DUP8 DUP8 PUSH1 0x40 MLOAD DUP1 DUP1 PUSH1 0x20 ADD DUP1 PUSH1 0x20 ADD DUP4 DUP2 SUB DUP4 MSTORE DUP6 DUP2 DUP2 MLOAD DUP2 MSTORE PUSH1 0x20 ADD SWAP2 POP DUP1 MLOAD SWAP1 PUSH1 0x20 ADD SWAP1 PUSH1 0x20 MUL DUP1 DUP4 DUP4 PUSH1 0x0 JUMPDEST DUP4 DUP2 LT ISZERO PUSH2 0x1C2D JUMPI DUP2 DUP2 ADD MLOAD DUP4 DUP3 ADD MSTORE PUSH1 0x20 ADD PUSH2 0x1C15 JUMP JUMPDEST POP POP POP POP SWAP1 POP ADD DUP4 DUP2 SUB DUP3 MSTORE DUP5 DUP2 DUP2 MLOAD DUP2 MSTORE PUSH1 0x20 ADD SWAP2 POP DUP1 MLOAD SWAP1 PUSH1 0x20 ADD SWAP1 PUSH1 0x20 MUL DUP1 DUP4 DUP4 PUSH1 0x0 JUMPDEST DUP4 DUP2 LT ISZERO PUSH2 0x1C6C JUMPI DUP2 DUP2 ADD MLOAD DUP4 DUP3 ADD MSTORE PUSH1 0x20 ADD PUSH2 0x1C54 JUMP JUMPDEST POP POP POP POP SWAP1 POP ADD SWAP5 POP POP POP POP POP PUSH1 0x40 MLOAD DUP1 SWAP2 SUB SWAP1 LOG4 PUSH2 0x1C8F DUP2 DUP8 DUP8 DUP8 DUP8 DUP8 PUSH2 0x3AD6 JUMP JUMPDEST POP POP POP POP POP POP JUMP JUMPDEST PUSH1 0x0 PUSH1 0x60 PUSH1 0x0 DUP1 PUSH1 0x0 DUP6 PUSH1 0x7 DUP2 GT PUSH2 0x1CAE JUMPI PUSH1 0x0 DUP1 REVERT JUMPDEST PUSH1 0x0 DUP2 DUP2 MSTORE PUSH1 0xC PUSH1 0x20 MSTORE PUSH1 0x40 SWAP1 KECCAK256 SLOAD PUSH1 0xFF AND PUSH2 0x1CC9 JUMPI PUSH1 0x0 DUP1 REVERT JUMPDEST PUSH1 0x0 DUP8 DUP2 MSTORE PUSH1 0xC PUSH1 0x20 SWAP1 DUP2 MSTORE PUSH1 0x40 SWAP2 DUP3 SWAP1 KECCAK256 DUP1 SLOAD PUSH1 0x3 DUP3 ADD SLOAD PUSH1 0x4 DUP4 ADD SLOAD PUSH1 0x5 DUP5 ADD SLOAD PUSH1 0x2 SWAP5 DUP6 ADD DUP1 SLOAD DUP9 MLOAD PUSH2 0x100 PUSH1 0x1 DUP4 AND ISZERO MUL PUSH1 0x0 NOT ADD SWAP1 SWAP2 AND SWAP7 SWAP1 SWAP7 DIV PUSH1 0x1F DUP2 ADD DUP9 SWAP1 DIV DUP9 MUL DUP8 ADD DUP9 ADD SWAP1 SWAP9 MSTORE DUP8 DUP7 MSTORE PUSH1 0xFF SWAP1 SWAP5 AND SWAP7 SWAP4 SWAP6 SWAP3 SWAP5 SWAP2 SWAP4 SWAP1 SWAP3 DUP7 SWAP2 SWAP1 DUP4 ADD DUP3 DUP3 DUP1 ISZERO PUSH2 0x1D7E JUMPI DUP1 PUSH1 0x1F LT PUSH2 0x1D53 JUMPI PUSH2 0x100 DUP1 DUP4 SLOAD DIV MUL DUP4 MSTORE SWAP2 PUSH1 0x20 ADD SWAP2 PUSH2 0x1D7E JUMP JUMPDEST DUP3 ADD SWAP2 SWAP1 PUSH1 0x0 MSTORE PUSH1 0x20 PUSH1 0x0 KECCAK256 SWAP1 JUMPDEST DUP2 SLOAD DUP2 MSTORE SWAP1 PUSH1 0x1 ADD SWAP1 PUSH1 0x20 ADD DUP1 DUP4 GT PUSH2 0x1D61 JUMPI DUP3 SWAP1 SUB PUSH1 0x1F AND DUP3 ADD SWAP2 JUMPDEST POP POP POP POP POP SWAP4 POP SWAP6 POP SWAP6 POP SWAP6 POP SWAP6 POP SWAP6 POP POP SWAP2 SWAP4 SWAP6 SWAP1 SWAP3 SWAP5 POP JUMP JUMPDEST PUSH2 0x1DB0 PUSH1 0x0 DUP1 MLOAD PUSH1 0x20 PUSH2 0x4BF5 DUP4 CODECOPY DUP2 MLOAD SWAP2 MSTORE PUSH2 0x3D4C JUMP JUMPDEST POP POP JUMP JUMPDEST PUSH1 0x0 DUP3 DUP2 MSTORE PUSH1 0x20 DUP2 SWAP1 MSTORE PUSH1 0x40 SWAP1 KECCAK256 PUSH1 0x2 ADD SLOAD PUSH2 0x1DD7 SWAP1 PUSH2 0x1DD2 PUSH2 0x3620 JUMP JUMPDEST PUSH2 0x2943 JUMP JUMPDEST PUSH2 0x1E12 JUMPI PUSH1 0x40 MLOAD PUSH3 0x461BCD PUSH1 0xE5 SHL DUP2 MSTORE PUSH1 0x4 ADD DUP1 DUP1 PUSH1 0x20 ADD DUP3 DUP2 SUB DUP3 MSTORE PUSH1 0x2F DUP2 MSTORE PUSH1 0x20 ADD DUP1 PUSH2 0x4AC7 PUSH1 0x2F SWAP2 CODECOPY PUSH1 0x40 ADD SWAP2 POP POP PUSH1 0x40 MLOAD DUP1 SWAP2 SUB SWAP1 REVERT JUMPDEST PUSH2 0x1DB0 DUP3 DUP3 PUSH2 0x3D5F JUMP JUMPDEST PUSH2 0x1E24 PUSH2 0x3620 JUMP JUMPDEST PUSH1 0x1 PUSH1 0x1 PUSH1 0xA0 SHL SUB AND DUP2 PUSH1 0x1 PUSH1 0x1 PUSH1 0xA0 SHL SUB AND EQ PUSH2 0x1E73 JUMPI PUSH1 0x40 MLOAD PUSH3 0x461BCD PUSH1 0xE5 SHL DUP2 MSTORE PUSH1 0x4 ADD DUP1 DUP1 PUSH1 0x20 ADD DUP3 DUP2 SUB DUP3 MSTORE PUSH1 0x2F DUP2 MSTORE PUSH1 0x20 ADD DUP1 PUSH2 0x4D1E PUSH1 0x2F SWAP2 CODECOPY PUSH1 0x40 ADD SWAP2 POP POP PUSH1 0x40 MLOAD DUP1 SWAP2 SUB SWAP1 REVERT JUMPDEST PUSH2 0x1DB0 DUP3 DUP3 PUSH2 0x3DC8 JUMP JUMPDEST PUSH1 0x60 PUSH1 0x0 DUP1 PUSH1 0x0 DUP5 PUSH1 0x7 DUP2 GT PUSH2 0x1E92 JUMPI PUSH1 0x0 DUP1 REVERT JUMPDEST PUSH1 0x0 DUP2 DUP2 MSTORE PUSH1 0xC PUSH1 0x20 MSTORE PUSH1 0x40 SWAP1 KECCAK256 SLOAD PUSH1 0xFF AND PUSH2 0x1EAD JUMPI PUSH1 0x0 DUP1 REVERT JUMPDEST PUSH1 0x0 DUP7 DUP2 MSTORE PUSH1 0xC PUSH1 0x20 SWAP1 DUP2 MSTORE PUSH1 0x40 SWAP2 DUP3 SWAP1 KECCAK256 PUSH1 0x6 DUP2 ADD SLOAD PUSH1 0x7 DUP3 ADD SLOAD PUSH1 0x8 DUP4 ADD SLOAD PUSH1 0x1 SWAP4 DUP5 ADD DUP1 SLOAD DUP8 MLOAD PUSH1 0x2 SWAP7 DUP3 AND ISZERO PUSH2 0x100 MUL PUSH1 0x0 NOT ADD SWAP1 SWAP2 AND SWAP6 SWAP1 SWAP6 DIV PUSH1 0x1F DUP2 ADD DUP8 SWAP1 DIV DUP8 MUL DUP7 ADD DUP8 ADD SWAP1 SWAP8 MSTORE DUP7 DUP6 MSTORE SWAP6 SWAP3 SWAP5 SWAP2 SWAP4 SWAP1 SWAP3 SWAP1 SWAP2 DUP7 SWAP2 SWAP1 DUP4 ADD DUP3 DUP3 DUP1 ISZERO PUSH2 0x1F5C JUMPI DUP1 PUSH1 0x1F LT PUSH2 0x1F31 JUMPI PUSH2 0x100 DUP1 DUP4 SLOAD DIV MUL DUP4 MSTORE SWAP2 PUSH1 0x20 ADD SWAP2 PUSH2 0x1F5C JUMP JUMPDEST DUP3 ADD SWAP2 SWAP1 PUSH1 0x0 MSTORE PUSH1 0x20 PUSH1 0x0 KECCAK256 SWAP1 JUMPDEST DUP2 SLOAD DUP2 MSTORE SWAP1 PUSH1 0x1 ADD SWAP1 PUSH1 0x20 ADD DUP1 DUP4 GT PUSH2 0x1F3F JUMPI DUP3 SWAP1 SUB PUSH1 0x1F AND DUP3 ADD SWAP2 JUMPDEST POP POP POP POP POP SWAP4 POP SWAP5 POP SWAP5 POP SWAP5 POP SWAP5 POP POP SWAP2 SWAP4 POP SWAP2 SWAP4 JUMP JUMPDEST PUSH1 0x0 DUP1 PUSH1 0x0 DUP1 DUP5 PUSH1 0x7 DUP2 GT PUSH2 0x1F87 JUMPI PUSH1 0x0 DUP1 REVERT JUMPDEST PUSH1 0x0 DUP2 DUP2 MSTORE PUSH1 0xC PUSH1 0x20 MSTORE PUSH1 0x40 SWAP1 KECCAK256 SLOAD PUSH1 0xFF AND PUSH2 0x1FA2 JUMPI PUSH1 0x0 DUP1 REVERT JUMPDEST POP POP POP PUSH1 0x0 SWAP3 DUP4 MSTORE POP POP PUSH1 0xC PUSH1 0x20 MSTORE PUSH1 0x40 SWAP1 KECCAK256 PUSH1 0x11 DUP2 ADD SLOAD PUSH1 0x12 DUP3 ADD SLOAD PUSH1 0x13 DUP4 ADD SLOAD PUSH1 0x14 SWAP1 SWAP4 ADD SLOAD SWAP2 SWAP4 SWAP1 SWAP3 SWAP2 SWAP1 JUMP JUMPDEST PUSH1 0x0 DUP4 PUSH1 0x0 DUP2 GT DUP1 ISZERO PUSH2 0x1FE6 JUMPI POP PUSH1 0x7 DUP2 GT ISZERO JUMPDEST PUSH2 0x1FEF JUMPI PUSH1 0x0 DUP1 REVERT JUMPDEST PUSH1 0x1 PUSH1 0x6 SLOAD PUSH1 0xFF AND PUSH1 0x1 DUP2 GT ISZERO PUSH2 0x2002 JUMPI INVALID JUMPDEST EQ PUSH2 0x200C JUMPI PUSH1 0x0 DUP1 REVERT JUMPDEST PUSH1 0x0 DUP6 DUP2 MSTORE PUSH1 0x9 PUSH1 0x20 MSTORE PUSH1 0x40 SWAP1 KECCAK256 SLOAD PUSH1 0xFF AND PUSH2 0x2027 JUMPI PUSH1 0x0 DUP1 REVERT JUMPDEST PUSH2 0x2030 DUP6 PUSH2 0x3E31 JUMP JUMPDEST PUSH2 0x2039 JUMPI PUSH1 0x0 DUP1 REVERT JUMPDEST PUSH1 0x0 PUSH2 0x2047 PUSH1 0xF SLOAD DUP8 PUSH2 0x332A JUMP JUMPDEST SWAP1 POP DUP1 CALLVALUE LT ISZERO PUSH2 0x2056 JUMPI PUSH1 0x0 DUP1 REVERT JUMPDEST PUSH1 0x0 PUSH1 0x7 PUSH2 0x2070 PUSH1 0x1 PUSH1 0xA SLOAD PUSH2 0x35C6 SWAP1 SWAP2 SWAP1 PUSH4 0xFFFFFFFF AND JUMP JUMPDEST ADD PUSH1 0x0 DUP2 DUP2 MSTORE PUSH1 0xB PUSH1 0x20 MSTORE PUSH1 0x40 SWAP1 KECCAK256 SLOAD SWAP1 SWAP2 POP PUSH1 0x1 PUSH1 0x1 PUSH1 0xA0 SHL SUB AND ISZERO PUSH2 0x2093 JUMPI INVALID JUMPDEST PUSH1 0x0 DUP2 DUP2 MSTORE PUSH1 0xC PUSH1 0x20 MSTORE PUSH1 0x40 SWAP1 KECCAK256 SLOAD PUSH1 0xFF AND ISZERO PUSH2 0x20AC JUMPI INVALID JUMPDEST PUSH2 0x20B4 PUSH2 0x484E JUMP JUMPDEST PUSH1 0x1 DUP2 MSTORE PUSH1 0x40 DUP1 MLOAD PUSH1 0x20 PUSH1 0x1F DUP10 ADD DUP2 SWAP1 DIV DUP2 MUL DUP3 ADD DUP2 ADD SWAP1 SWAP3 MSTORE DUP8 DUP2 MSTORE SWAP1 DUP9 SWAP1 DUP9 SWAP1 DUP2 SWAP1 DUP5 ADD DUP4 DUP3 DUP1 DUP3 DUP5 CALLDATACOPY PUSH1 0x0 DUP2 DUP5 ADD MSTORE PUSH1 0x1F NOT PUSH1 0x1F DUP3 ADD AND SWAP1 POP DUP1 DUP4 ADD SWAP3 POP POP POP POP POP POP POP DUP2 PUSH1 0x20 ADD DUP2 SWAP1 MSTORE POP PUSH1 0xF SLOAD DUP2 PUSH1 0x80 ADD DUP2 DUP2 MSTORE POP POP DUP8 DUP2 PUSH1 0xA0 ADD DUP2 DUP2 MSTORE POP POP PUSH1 0x9 PUSH1 0x0 DUP10 DUP2 MSTORE PUSH1 0x20 ADD SWAP1 DUP2 MSTORE PUSH1 0x20 ADD PUSH1 0x0 KECCAK256 PUSH1 0x1 ADD SLOAD DUP2 PUSH1 0xC0 ADD DUP2 DUP2 MSTORE POP POP PUSH1 0x9 PUSH1 0x0 DUP10 DUP2 MSTORE PUSH1 0x20 ADD SWAP1 DUP2 MSTORE PUSH1 0x20 ADD PUSH1 0x0 KECCAK256 PUSH1 0x2 ADD SLOAD DUP2 PUSH1 0xE0 ADD DUP2 DUP2 MSTORE POP POP PUSH1 0x9 PUSH1 0x0 DUP10 DUP2 MSTORE PUSH1 0x20 ADD SWAP1 DUP2 MSTORE PUSH1 0x20 ADD PUSH1 0x0 KECCAK256 PUSH1 0x3 ADD DUP1 SLOAD PUSH1 0x1 DUP2 PUSH1 0x1 AND ISZERO PUSH2 0x100 MUL SUB AND PUSH1 0x2 SWAP1 DIV DUP1 PUSH1 0x1F ADD PUSH1 0x20 DUP1 SWAP2 DIV MUL PUSH1 0x20 ADD PUSH1 0x40 MLOAD SWAP1 DUP2 ADD PUSH1 0x40 MSTORE DUP1 SWAP3 SWAP2 SWAP1 DUP2 DUP2 MSTORE PUSH1 0x20 ADD DUP3 DUP1 SLOAD PUSH1 0x1 DUP2 PUSH1 0x1 AND ISZERO PUSH2 0x100 MUL SUB AND PUSH1 0x2 SWAP1 DIV DUP1 ISZERO PUSH2 0x2203 JUMPI DUP1 PUSH1 0x1F LT PUSH2 0x21D8 JUMPI PUSH2 0x100 DUP1 DUP4 SLOAD DIV MUL DUP4 MSTORE SWAP2 PUSH1 0x20 ADD SWAP2 PUSH2 0x2203 JUMP JUMPDEST DUP3 ADD SWAP2 SWAP1 PUSH1 0x0 MSTORE PUSH1 0x20 PUSH1 0x0 KECCAK256 SWAP1 JUMPDEST DUP2 SLOAD DUP2 MSTORE SWAP1 PUSH1 0x1 ADD SWAP1 PUSH1 0x20 ADD DUP1 DUP4 GT PUSH2 0x21E6 JUMPI DUP3 SWAP1 SUB PUSH1 0x1F AND DUP3 ADD SWAP2 JUMPDEST POP POP POP POP POP PUSH1 0x40 DUP3 DUP2 ADD SWAP2 SWAP1 SWAP2 MSTORE PUSH1 0x0 DUP4 DUP2 MSTORE PUSH1 0xC PUSH1 0x20 SWAP1 DUP2 MSTORE SWAP2 SWAP1 KECCAK256 DUP3 MLOAD DUP2 SLOAD PUSH1 0xFF NOT AND SWAP1 ISZERO ISZERO OR DUP2 SSTORE DUP2 DUP4 ADD MLOAD DUP1 MLOAD DUP5 SWAP4 PUSH2 0x2247 SWAP3 PUSH1 0x1 DUP6 ADD SWAP3 SWAP2 ADD SWAP1 PUSH2 0x47D0 JUMP JUMPDEST POP PUSH1 0x40 DUP3 ADD MLOAD DUP1 MLOAD PUSH2 0x2263 SWAP2 PUSH1 0x2 DUP5 ADD SWAP2 PUSH1 0x20 SWAP1 SWAP2 ADD SWAP1 PUSH2 0x47D0 JUMP JUMPDEST POP PUSH1 0x60 DUP3 ADD MLOAD PUSH1 0x3 DUP3 ADD SSTORE PUSH1 0x80 DUP3 ADD MLOAD PUSH1 0x4 DUP3 ADD SSTORE PUSH1 0xA0 DUP3 ADD MLOAD PUSH1 0x5 DUP3 ADD SSTORE PUSH1 0xC0 DUP3 ADD MLOAD PUSH1 0x6 DUP3 ADD SSTORE PUSH1 0xE0 DUP3 ADD MLOAD PUSH1 0x7 DUP3 ADD SSTORE PUSH2 0x100 DUP3 ADD MLOAD PUSH1 0x8 DUP3 ADD SSTORE PUSH2 0x120 DUP3 ADD MLOAD PUSH1 0x9 DUP3 ADD SSTORE PUSH2 0x140 DUP3 ADD MLOAD PUSH1 0xA DUP3 ADD SSTORE PUSH2 0x160 DUP3 ADD MLOAD PUSH1 0xB DUP3 ADD SSTORE PUSH2 0x180 DUP3 ADD MLOAD PUSH1 0xC DUP3 ADD SSTORE PUSH2 0x1A0 DUP3 ADD MLOAD PUSH1 0xD DUP3 ADD SSTORE PUSH2 0x1C0 DUP3 ADD MLOAD PUSH1 0xE DUP3 ADD SSTORE PUSH2 0x1E0 DUP3 ADD MLOAD PUSH1 0xF DUP3 ADD SSTORE PUSH2 0x200 DUP3 ADD MLOAD PUSH1 0x10 DUP3 ADD SSTORE PUSH2 0x220 DUP3 ADD MLOAD PUSH1 0x11 DUP3 ADD SSTORE PUSH2 0x240 DUP3 ADD MLOAD PUSH1 0x12 DUP3 ADD SSTORE PUSH2 0x260 DUP3 ADD MLOAD PUSH1 0x13 DUP3 ADD SSTORE PUSH2 0x280 DUP3 ADD MLOAD PUSH1 0x14 DUP3 ADD SSTORE PUSH2 0x2A0 DUP3 ADD MLOAD PUSH1 0x15 DUP3 ADD SSTORE PUSH2 0x2C0 DUP3 ADD MLOAD PUSH1 0x16 DUP3 ADD SSTORE PUSH2 0x2E0 DUP3 ADD MLOAD PUSH1 0x17 DUP3 ADD SSTORE PUSH2 0x300 DUP3 ADD MLOAD PUSH1 0x18 DUP3 ADD SSTORE PUSH2 0x320 DUP3 ADD MLOAD PUSH1 0x19 DUP3 ADD SSTORE PUSH2 0x340 SWAP1 SWAP2 ADD MLOAD PUSH1 0x1A SWAP1 SWAP2 ADD SSTORE PUSH1 0x0 PUSH2 0x2374 DUP4 PUSH2 0x3F06 JUMP JUMPDEST PUSH1 0x0 DUP5 DUP2 MSTORE PUSH1 0x14 PUSH1 0x20 MSTORE PUSH1 0x40 SWAP1 KECCAK256 DUP2 SWAP1 SSTORE SWAP1 POP PUSH2 0x2392 PUSH2 0x15B7 PUSH2 0x3620 JUMP JUMPDEST PUSH2 0x239A PUSH2 0x3620 JUMP JUMPDEST PUSH1 0x0 DUP5 DUP2 MSTORE PUSH1 0xB PUSH1 0x20 MSTORE PUSH1 0x40 SWAP1 KECCAK256 DUP1 SLOAD PUSH1 0x1 PUSH1 0x1 PUSH1 0xA0 SHL SUB NOT AND PUSH1 0x1 PUSH1 0x1 PUSH1 0xA0 SHL SUB SWAP3 SWAP1 SWAP3 AND SWAP2 SWAP1 SWAP2 OR SWAP1 SSTORE PUSH1 0xA SLOAD PUSH2 0x23D4 SWAP1 PUSH1 0x1 PUSH2 0x35C6 JUMP JUMPDEST PUSH1 0xA SSTORE PUSH1 0xF SLOAD PUSH1 0x0 SWAP1 DUP2 MSTORE PUSH1 0xD PUSH1 0x20 SWAP1 DUP2 MSTORE PUSH1 0x40 DUP1 DUP4 KECCAK256 DUP13 DUP5 MSTORE SWAP1 SWAP2 MSTORE SWAP1 KECCAK256 SLOAD PUSH2 0x23FF SWAP1 PUSH1 0x1 PUSH2 0x35C6 JUMP JUMPDEST PUSH1 0xF SLOAD PUSH1 0x0 SWAP1 DUP2 MSTORE PUSH1 0xD PUSH1 0x20 SWAP1 DUP2 MSTORE PUSH1 0x40 DUP1 DUP4 KECCAK256 DUP14 DUP5 MSTORE SWAP1 SWAP2 MSTORE DUP2 KECCAK256 SWAP2 SWAP1 SWAP2 SSTORE PUSH2 0x2435 PUSH1 0xA PUSH2 0x242F DUP8 PUSH1 0x8 PUSH2 0x3FBE JUMP JUMPDEST SWAP1 PUSH2 0x4017 JUMP JUMPDEST PUSH1 0x0 DUP12 DUP2 MSTORE PUSH1 0x8 PUSH1 0x20 MSTORE PUSH1 0x40 DUP1 DUP3 KECCAK256 SLOAD SWAP1 MLOAD SWAP3 SWAP4 POP PUSH1 0x1 PUSH1 0x1 PUSH1 0xA0 SHL SUB AND SWAP2 DUP3 SWAP1 DUP5 SWAP1 DUP4 DUP2 DUP2 DUP2 DUP6 DUP8 GAS CALL SWAP3 POP POP POP RETURNDATASIZE DUP1 PUSH1 0x0 DUP2 EQ PUSH2 0x2490 JUMPI PUSH1 0x40 MLOAD SWAP2 POP PUSH1 0x1F NOT PUSH1 0x3F RETURNDATASIZE ADD AND DUP3 ADD PUSH1 0x40 MSTORE RETURNDATASIZE DUP3 MSTORE RETURNDATASIZE PUSH1 0x0 PUSH1 0x20 DUP5 ADD RETURNDATACOPY PUSH2 0x2495 JUMP JUMPDEST PUSH1 0x60 SWAP2 POP JUMPDEST POP POP SWAP1 POP DUP1 PUSH2 0x24DC JUMPI PUSH1 0x40 DUP1 MLOAD PUSH3 0x461BCD PUSH1 0xE5 SHL DUP2 MSTORE PUSH1 0x20 PUSH1 0x4 DUP3 ADD MSTORE PUSH1 0xE PUSH1 0x24 DUP3 ADD MSTORE PUSH14 0x14185E5B595B9D0819985A5B1959 PUSH1 0x92 SHL PUSH1 0x44 DUP3 ADD MSTORE SWAP1 MLOAD SWAP1 DUP2 SWAP1 SUB PUSH1 0x64 ADD SWAP1 REVERT JUMPDEST PUSH2 0x24E5 DUP8 PUSH2 0x372C JUMP JUMPDEST PUSH32 0xF34A510082F5A02E39555458564800FC1FE73BFD8D3AA07CBF063FE662E7657E DUP7 PUSH2 0x250F PUSH2 0x3620 JUMP JUMPDEST PUSH1 0x40 DUP1 MLOAD SWAP3 DUP4 MSTORE PUSH1 0x1 PUSH1 0x1 PUSH1 0xA0 SHL SUB SWAP1 SWAP2 AND PUSH1 0x20 DUP4 ADD MSTORE DUP1 MLOAD SWAP2 DUP3 SWAP1 SUB ADD SWAP1 LOG1 POP SWAP4 SWAP11 SWAP10 POP POP POP POP POP POP POP POP POP POP JUMP JUMPDEST PUSH1 0x0 DUP1 PUSH1 0x0 DUP1 DUP5 PUSH1 0x7 DUP2 GT PUSH2 0x2553 JUMPI PUSH1 0x0 DUP1 REVERT JUMPDEST PUSH1 0x0 DUP2 DUP2 MSTORE PUSH1 0xC PUSH1 0x20 MSTORE PUSH1 0x40 SWAP1 KECCAK256 SLOAD PUSH1 0xFF AND PUSH2 0x256E JUMPI PUSH1 0x0 DUP1 REVERT JUMPDEST POP POP POP PUSH1 0x0 SWAP3 DUP4 MSTORE POP POP PUSH1 0xC PUSH1 0x20 MSTORE PUSH1 0x40 SWAP1 KECCAK256 PUSH1 0xD DUP2 ADD SLOAD PUSH1 0xE DUP3 ADD SLOAD PUSH1 0xF DUP4 ADD SLOAD PUSH1 0x10 SWAP1 SWAP4 ADD SLOAD SWAP2 SWAP4 SWAP1 SWAP3 SWAP2 SWAP1 JUMP JUMPDEST PUSH1 0x7 SLOAD JUMPDEST SWAP1 JUMP JUMPDEST PUSH1 0x60 DUP2 MLOAD DUP4 MLOAD EQ PUSH2 0x25E7 JUMPI PUSH1 0x40 MLOAD PUSH3 0x461BCD PUSH1 0xE5 SHL DUP2 MSTORE PUSH1 0x4 ADD DUP1 DUP1 PUSH1 0x20 ADD DUP3 DUP2 SUB DUP3 MSTORE PUSH1 0x29 DUP2 MSTORE PUSH1 0x20 ADD DUP1 PUSH2 0x4CAC PUSH1 0x29 SWAP2 CODECOPY PUSH1 0x40 ADD SWAP2 POP POP PUSH1 0x40 MLOAD DUP1 SWAP2 SUB SWAP1 REVERT JUMPDEST PUSH1 0x60 DUP4 MLOAD PUSH8 0xFFFFFFFFFFFFFFFF DUP2 GT DUP1 ISZERO PUSH2 0x2601 JUMPI PUSH1 0x0 DUP1 REVERT JUMPDEST POP PUSH1 0x40 MLOAD SWAP1 DUP1 DUP3 MSTORE DUP1 PUSH1 0x20 MUL PUSH1 0x20 ADD DUP3 ADD PUSH1 0x40 MSTORE DUP1 ISZERO PUSH2 0x262B JUMPI DUP2 PUSH1 0x20 ADD PUSH1 0x20 DUP3 MUL DUP1 CALLDATASIZE DUP4 CALLDATACOPY ADD SWAP1 POP JUMPDEST POP SWAP1 POP PUSH1 0x0 JUMPDEST DUP5 MLOAD DUP2 LT ISZERO PUSH2 0x2689 JUMPI PUSH2 0x266A DUP6 DUP3 DUP2 MLOAD DUP2 LT PUSH2 0x2649 JUMPI INVALID JUMPDEST PUSH1 0x20 MUL PUSH1 0x20 ADD ADD MLOAD DUP6 DUP4 DUP2 MLOAD DUP2 LT PUSH2 0x265D JUMPI INVALID JUMPDEST PUSH1 0x20 MUL PUSH1 0x20 ADD ADD MLOAD PUSH2 0x12B6 JUMP JUMPDEST DUP3 DUP3 DUP2 MLOAD DUP2 LT PUSH2 0x2676 JUMPI INVALID JUMPDEST PUSH1 0x20 SWAP1 DUP2 MUL SWAP2 SWAP1 SWAP2 ADD ADD MSTORE PUSH1 0x1 ADD PUSH2 0x2631 JUMP JUMPDEST POP SWAP4 SWAP3 POP POP POP JUMP JUMPDEST PUSH1 0x0 DUP2 PUSH1 0x7 DUP2 GT PUSH2 0x26A1 JUMPI PUSH1 0x0 DUP1 REVERT JUMPDEST PUSH1 0x0 DUP2 DUP2 MSTORE PUSH1 0xC PUSH1 0x20 MSTORE PUSH1 0x40 SWAP1 KECCAK256 SLOAD PUSH1 0xFF AND PUSH2 0x26BC JUMPI PUSH1 0x0 DUP1 REVERT JUMPDEST PUSH1 0x0 DUP4 DUP2 MSTORE PUSH1 0xB PUSH1 0x20 MSTORE PUSH1 0x40 SWAP1 KECCAK256 SLOAD PUSH1 0x1 PUSH1 0x1 PUSH1 0xA0 SHL SUB AND PUSH2 0x26DD JUMPI PUSH1 0x0 DUP1 REVERT JUMPDEST POP POP PUSH1 0x0 SWAP1 DUP2 MSTORE PUSH1 0xB PUSH1 0x20 MSTORE PUSH1 0x40 SWAP1 KECCAK256 SLOAD PUSH1 0x1 PUSH1 0x1 PUSH1 0xA0 SHL SUB AND SWAP1 JUMP JUMPDEST PUSH1 0x0 DUP2 PUSH1 0x0 DUP2 GT DUP1 ISZERO PUSH2 0x270E JUMPI POP PUSH1 0x7 DUP2 GT ISZERO JUMPDEST PUSH2 0x2717 JUMPI PUSH1 0x0 DUP1 REVERT JUMPDEST PUSH1 0xF SLOAD DUP5 GT ISZERO PUSH2 0x2726 JUMPI PUSH1 0x0 DUP1 REVERT JUMPDEST POP POP PUSH1 0x0 SWAP2 DUP3 MSTORE PUSH1 0xD PUSH1 0x20 SWAP1 DUP2 MSTORE PUSH1 0x40 DUP1 DUP5 KECCAK256 SWAP3 DUP5 MSTORE SWAP2 SWAP1 MSTORE SWAP1 KECCAK256 SLOAD SWAP1 JUMP JUMPDEST PUSH1 0x16 DUP2 DUP2 SLOAD DUP2 LT PUSH2 0x2752 JUMPI INVALID JUMPDEST PUSH1 0x0 SWAP2 DUP3 MSTORE PUSH1 0x20 SWAP2 DUP3 SWAP1 KECCAK256 ADD DUP1 SLOAD PUSH1 0x40 DUP1 MLOAD PUSH1 0x1F PUSH1 0x2 PUSH1 0x0 NOT PUSH2 0x100 PUSH1 0x1 DUP8 AND ISZERO MUL ADD SWAP1 SWAP5 AND SWAP4 SWAP1 SWAP4 DIV SWAP3 DUP4 ADD DUP6 SWAP1 DIV DUP6 MUL DUP2 ADD DUP6 ADD SWAP1 SWAP2 MSTORE DUP2 DUP2 MSTORE SWAP4 POP SWAP1 SWAP2 DUP4 ADD DUP3 DUP3 DUP1 ISZERO PUSH2 0x27E3 JUMPI DUP1 PUSH1 0x1F LT PUSH2 0x27B8 JUMPI PUSH2 0x100 DUP1 DUP4 SLOAD DIV MUL DUP4 MSTORE SWAP2 PUSH1 0x20 ADD SWAP2 PUSH2 0x27E3 JUMP JUMPDEST DUP3 ADD SWAP2 SWAP1 PUSH1 0x0 MSTORE PUSH1 0x20 PUSH1 0x0 KECCAK256 SWAP1 JUMPDEST DUP2 SLOAD DUP2 MSTORE SWAP1 PUSH1 0x1 ADD SWAP1 PUSH1 0x20 ADD DUP1 DUP4 GT PUSH2 0x27C6 JUMPI DUP3 SWAP1 SUB PUSH1 0x1F AND DUP3 ADD SWAP2 JUMPDEST POP POP POP POP POP DUP2 JUMP JUMPDEST PUSH1 0x0 DUP2 PUSH1 0x0 DUP2 GT DUP1 ISZERO PUSH2 0x27FF JUMPI POP PUSH1 0x7 DUP2 GT ISZERO JUMPDEST PUSH2 0x2808 JUMPI PUSH1 0x0 DUP1 REVERT JUMPDEST PUSH1 0x0 DUP4 DUP2 MSTORE PUSH1 0x8 PUSH1 0x20 MSTORE PUSH1 0x40 SWAP1 KECCAK256 SLOAD PUSH1 0x1 PUSH1 0x1 PUSH1 0xA0 SHL SUB AND PUSH2 0x2829 JUMPI PUSH1 0x0 DUP1 REVERT JUMPDEST POP POP PUSH1 0x0 SWAP1 DUP2 MSTORE PUSH1 0x8 PUSH1 0x20 MSTORE PUSH1 0x40 SWAP1 KECCAK256 SLOAD PUSH1 0x1 PUSH1 0x1 PUSH1 0xA0 SHL SUB AND SWAP1 JUMP JUMPDEST PUSH1 0xE SLOAD DUP2 JUMP JUMPDEST PUSH1 0x0 DUP1 PUSH1 0x0 DUP1 PUSH1 0x0 DUP1 DUP7 PUSH1 0x7 DUP2 GT PUSH2 0x2863 JUMPI PUSH1 0x0 DUP1 REVERT JUMPDEST PUSH1 0x0 DUP2 DUP2 MSTORE PUSH1 0xC PUSH1 0x20 MSTORE PUSH1 0x40 SWAP1 KECCAK256 SLOAD PUSH1 0xFF AND PUSH2 0x287E JUMPI PUSH1 0x0 DUP1 REVERT JUMPDEST POP POP POP PUSH1 0x0 SWAP5 DUP6 MSTORE POP POP PUSH1 0xC PUSH1 0x20 MSTORE POP POP PUSH1 0x40 SWAP1 KECCAK256 PUSH1 0x15 DUP2 ADD SLOAD PUSH1 0x16 DUP3 ADD SLOAD PUSH1 0x17 DUP4 ADD SLOAD PUSH1 0x18 DUP5 ADD SLOAD PUSH1 0x19 DUP6 ADD SLOAD PUSH1 0x1A SWAP1 SWAP6 ADD SLOAD SWAP4 SWAP6 SWAP3 SWAP5 SWAP2 SWAP4 SWAP1 SWAP3 JUMP JUMPDEST PUSH1 0x0 DUP1 PUSH1 0x0 DUP1 DUP5 PUSH1 0x7 DUP2 GT PUSH2 0x28D0 JUMPI PUSH1 0x0 DUP1 REVERT JUMPDEST PUSH1 0x0 DUP2 DUP2 MSTORE PUSH1 0xC PUSH1 0x20 MSTORE PUSH1 0x40 SWAP1 KECCAK256 SLOAD PUSH1 0xFF AND PUSH2 0x28EB JUMPI PUSH1 0x0 DUP1 REVERT JUMPDEST POP POP POP PUSH1 0x0 SWAP3 DUP4 MSTORE POP POP PUSH1 0xC PUSH1 0x20 DUP2 SWAP1 MSTORE PUSH1 0x40 SWAP1 SWAP2 KECCAK256 PUSH1 0x9 DUP2 ADD SLOAD PUSH1 0xA DUP3 ADD SLOAD PUSH1 0xB DUP4 ADD SLOAD SWAP3 SWAP1 SWAP4 ADD SLOAD SWAP1 SWAP4 JUMP JUMPDEST PUSH1 0xF SLOAD DUP2 JUMP JUMPDEST PUSH1 0x0 DUP3 DUP2 MSTORE PUSH1 0x20 DUP2 SWAP1 MSTORE PUSH1 0x40 DUP2 KECCAK256 PUSH2 0x2937 SWAP1 DUP4 PUSH2 0x407E JUMP JUMPDEST SWAP4 SWAP3 POP POP POP JUMP JUMPDEST PUSH1 0x7 DUP2 JUMP JUMPDEST PUSH1 0x0 DUP3 DUP2 MSTORE PUSH1 0x20 DUP2 SWAP1 MSTORE PUSH1 0x40 DUP2 KECCAK256 PUSH2 0x2937 SWAP1 DUP4 PUSH2 0x35B1 JUMP JUMPDEST CALLER PUSH1 0x1 PUSH1 0x1 PUSH1 0xA0 SHL SUB PUSH32 0x0 AND EQ PUSH2 0x29D8 JUMPI PUSH1 0x40 DUP1 MLOAD PUSH3 0x461BCD PUSH1 0xE5 SHL DUP2 MSTORE PUSH1 0x20 PUSH1 0x4 DUP3 ADD MSTORE PUSH1 0x1F PUSH1 0x24 DUP3 ADD MSTORE PUSH32 0x4F6E6C7920565246436F6F7264696E61746F722063616E2066756C66696C6C00 PUSH1 0x44 DUP3 ADD MSTORE SWAP1 MLOAD SWAP1 DUP2 SWAP1 SUB PUSH1 0x64 ADD SWAP1 REVERT JUMPDEST PUSH2 0x1DB0 DUP3 DUP3 PUSH2 0x408A JUMP JUMPDEST PUSH2 0x29F9 PUSH1 0x0 DUP1 MLOAD PUSH1 0x20 PUSH2 0x4BF5 DUP4 CODECOPY DUP2 MLOAD SWAP2 MSTORE PUSH2 0x3D4C JUMP JUMPDEST DUP1 PUSH1 0x10 DUP5 DUP5 PUSH1 0x40 MLOAD DUP1 DUP4 DUP4 DUP1 DUP3 DUP5 CALLDATACOPY SWAP2 SWAP1 SWAP2 ADD SWAP5 DUP6 MSTORE POP POP PUSH1 0x40 MLOAD SWAP3 DUP4 SWAP1 SUB PUSH1 0x20 ADD SWAP1 SWAP3 KECCAK256 DUP1 SLOAD PUSH1 0x1 PUSH1 0x1 PUSH1 0xA0 SHL SUB SWAP5 SWAP1 SWAP5 AND PUSH1 0x1 PUSH1 0x1 PUSH1 0xA0 SHL SUB NOT SWAP1 SWAP5 AND SWAP4 SWAP1 SWAP4 OR SWAP1 SWAP3 SSTORE POP POP PUSH1 0x11 DUP1 SLOAD PUSH1 0x1 DUP2 ADD DUP3 SSTORE PUSH1 0x0 SWAP2 SWAP1 SWAP2 MSTORE PUSH2 0x2A7E SWAP1 PUSH32 0x31ECC21A745E3968A04E9570E4425BC18FA8019C68028196B546D1669C200C68 ADD DUP5 DUP5 PUSH2 0x491A JUMP JUMPDEST POP POP POP POP JUMP JUMPDEST PUSH2 0x2AAD PUSH32 0xAE0C232B87105E0A8134F8B92146DCD1D99373D32394BE9D70F700F90B3A3DB3 PUSH2 0x3D4C JUMP JUMPDEST PUSH1 0x16 DUP1 SLOAD PUSH1 0x1 DUP2 ADD DUP3 SSTORE PUSH1 0x0 SWAP2 SWAP1 SWAP2 MSTORE PUSH2 0x2AEA SWAP1 PUSH32 0xD833147D7DC355BA459FC788F669E58CFAF9DC25DDCD0702E87D69C7B5124289 ADD DUP4 DUP4 PUSH2 0x491A JUMP JUMPDEST POP POP POP JUMP JUMPDEST PUSH1 0x0 DUP2 JUMP JUMPDEST DUP2 PUSH1 0x1 PUSH1 0x1 PUSH1 0xA0 SHL SUB AND PUSH2 0x2B06 PUSH2 0x3620 JUMP JUMPDEST PUSH1 0x1 PUSH1 0x1 PUSH1 0xA0 SHL SUB AND EQ ISZERO PUSH2 0x2B4C JUMPI PUSH1 0x40 MLOAD PUSH3 0x461BCD PUSH1 0xE5 SHL DUP2 MSTORE PUSH1 0x4 ADD DUP1 DUP1 PUSH1 0x20 ADD DUP3 DUP2 SUB DUP3 MSTORE PUSH1 0x29 DUP2 MSTORE PUSH1 0x20 ADD DUP1 PUSH2 0x4C83 PUSH1 0x29 SWAP2 CODECOPY PUSH1 0x40 ADD SWAP2 POP POP PUSH1 0x40 MLOAD DUP1 SWAP2 SUB SWAP1 REVERT JUMPDEST DUP1 PUSH1 0x3 PUSH1 0x0 PUSH2 0x2B59 PUSH2 0x3620 JUMP JUMPDEST PUSH1 0x1 PUSH1 0x1 PUSH1 0xA0 SHL SUB SWAP1 DUP2 AND DUP3 MSTORE PUSH1 0x20 DUP1 DUP4 ADD SWAP4 SWAP1 SWAP4 MSTORE PUSH1 0x40 SWAP2 DUP3 ADD PUSH1 0x0 SWAP1 DUP2 KECCAK256 SWAP2 DUP8 AND DUP1 DUP3 MSTORE SWAP2 SWAP1 SWAP4 MSTORE SWAP2 KECCAK256 DUP1 SLOAD PUSH1 0xFF NOT AND SWAP3 ISZERO ISZERO SWAP3 SWAP1 SWAP3 OR SWAP1 SWAP2 SSTORE PUSH2 0x2B9D PUSH2 0x3620 JUMP JUMPDEST PUSH1 0x1 PUSH1 0x1 PUSH1 0xA0 SHL SUB AND PUSH32 0x17307EAB39AB6107E8899845AD3D59BD9653F200F220920489CA2B5937696C31 DUP4 PUSH1 0x40 MLOAD DUP1 DUP3 ISZERO ISZERO DUP2 MSTORE PUSH1 0x20 ADD SWAP2 POP POP PUSH1 0x40 MLOAD DUP1 SWAP2 SUB SWAP1 LOG3 POP POP JUMP JUMPDEST PUSH2 0x2BFA PUSH1 0x0 DUP1 MLOAD PUSH1 0x20 PUSH2 0x4BF5 DUP4 CODECOPY DUP2 MLOAD SWAP2 MSTORE PUSH2 0x3D4C JUMP JUMPDEST PUSH1 0x0 PUSH1 0x7 SLOAD GT PUSH2 0x2C09 JUMPI PUSH1 0x0 DUP1 REVERT JUMPDEST PUSH1 0x1 JUMPDEST PUSH1 0x7 DUP2 GT PUSH2 0x2C3C JUMPI PUSH1 0x0 DUP2 DUP2 MSTORE PUSH1 0x9 PUSH1 0x20 MSTORE PUSH1 0x40 SWAP1 KECCAK256 SLOAD PUSH1 0xFF AND ISZERO PUSH2 0x2C34 JUMPI PUSH2 0x2C34 DUP2 PUSH2 0x409C JUMP JUMPDEST PUSH1 0x1 ADD PUSH2 0x2C0C JUMP JUMPDEST POP PUSH1 0xF SLOAD PUSH2 0x2C4B SWAP1 PUSH1 0x1 PUSH2 0x35C6 JUMP JUMPDEST PUSH1 0xF SSTORE PUSH1 0x40 MLOAD PUSH32 0x143B2C36FAC98F86168603D28D499BDE9CE0367D41E111CEF9F2ECBC9EEABFC SWAP1 PUSH1 0x0 SWAP1 LOG1 JUMP JUMPDEST DUP1 PUSH1 0x7 DUP2 GT PUSH2 0x2C87 JUMPI PUSH1 0x0 DUP1 REVERT JUMPDEST PUSH1 0x0 DUP2 DUP2 MSTORE PUSH1 0xC PUSH1 0x20 MSTORE PUSH1 0x40 SWAP1 KECCAK256 SLOAD PUSH1 0xFF AND PUSH2 0x2CA2 JUMPI PUSH1 0x0 DUP1 REVERT JUMPDEST PUSH1 0x0 DUP3 DUP2 MSTORE PUSH1 0x14 PUSH1 0x20 MSTORE PUSH1 0x40 SWAP1 KECCAK256 SLOAD DUP1 PUSH2 0x2CBB JUMPI PUSH1 0x0 DUP1 REVERT JUMPDEST PUSH1 0x0 DUP2 DUP2 MSTORE PUSH1 0x15 PUSH1 0x20 MSTORE PUSH1 0x40 SWAP1 KECCAK256 SLOAD DUP1 PUSH2 0x2CD4 JUMPI PUSH1 0x0 DUP1 REVERT JUMPDEST PUSH1 0x0 DUP5 DUP2 MSTORE PUSH1 0xC PUSH1 0x20 MSTORE PUSH1 0x40 DUP2 KECCAK256 PUSH1 0x1 PUSH1 0x11 SWAP1 SWAP2 ADD SSTORE PUSH2 0x2CF5 PUSH1 0x2 DUP4 PUSH2 0x4138 JUMP JUMPDEST PUSH1 0x0 DUP8 DUP2 MSTORE PUSH1 0xC PUSH1 0x20 MSTORE PUSH1 0x40 SWAP1 KECCAK256 PUSH1 0x8 ADD SWAP2 SWAP1 SWAP2 SSTORE SWAP1 POP PUSH2 0x2D17 PUSH1 0x4 DUP3 PUSH2 0x4138 JUMP JUMPDEST PUSH1 0x0 DUP8 DUP2 MSTORE PUSH1 0xC PUSH1 0x20 MSTORE PUSH1 0x40 SWAP1 KECCAK256 PUSH1 0x9 ADD SWAP2 SWAP1 SWAP2 SSTORE SWAP1 POP PUSH2 0x2D39 PUSH1 0x4 DUP3 PUSH2 0x4138 JUMP JUMPDEST PUSH1 0x0 DUP8 DUP2 MSTORE PUSH1 0xC PUSH1 0x20 MSTORE PUSH1 0x40 SWAP1 KECCAK256 PUSH1 0xA ADD SWAP2 SWAP1 SWAP2 SSTORE SWAP1 POP PUSH2 0x2D5B PUSH1 0x4 DUP3 PUSH2 0x4138 JUMP JUMPDEST PUSH1 0x0 DUP8 DUP2 MSTORE PUSH1 0xC PUSH1 0x20 MSTORE PUSH1 0x40 SWAP1 KECCAK256 PUSH1 0xB ADD SWAP2 SWAP1 SWAP2 SSTORE SWAP1 POP PUSH2 0x2D7D PUSH1 0x4 DUP3 PUSH2 0x4138 JUMP JUMPDEST PUSH1 0x0 DUP8 DUP2 MSTORE PUSH1 0xC PUSH1 0x20 DUP2 SWAP1 MSTORE PUSH1 0x40 SWAP1 SWAP2 KECCAK256 ADD SWAP2 SWAP1 SWAP2 SSTORE SWAP1 POP PUSH2 0x2DA0 PUSH1 0x9 DUP3 PUSH2 0x4138 JUMP JUMPDEST PUSH1 0x0 DUP8 DUP2 MSTORE PUSH1 0xC PUSH1 0x20 MSTORE PUSH1 0x40 SWAP1 KECCAK256 PUSH1 0xD ADD SWAP2 SWAP1 SWAP2 SSTORE SWAP1 POP PUSH2 0x2DC2 PUSH1 0x1E DUP3 PUSH2 0x4138 JUMP JUMPDEST PUSH1 0x0 DUP8 DUP2 MSTORE PUSH1 0xC PUSH1 0x20 MSTORE PUSH1 0x40 SWAP1 KECCAK256 PUSH1 0xE ADD SWAP2 SWAP1 SWAP2 SSTORE SWAP1 POP PUSH2 0x2DE4 PUSH1 0x18 DUP3 PUSH2 0x4138 JUMP JUMPDEST PUSH1 0x0 DUP8 DUP2 MSTORE PUSH1 0xC PUSH1 0x20 MSTORE PUSH1 0x40 SWAP1 KECCAK256 PUSH1 0xF ADD SWAP2 SWAP1 SWAP2 SSTORE SWAP1 POP PUSH2 0x2E06 PUSH1 0x5 DUP3 PUSH2 0x4138 JUMP JUMPDEST PUSH1 0x0 DUP8 DUP2 MSTORE PUSH1 0xC PUSH1 0x20 MSTORE PUSH1 0x40 SWAP1 KECCAK256 PUSH1 0x10 ADD SWAP2 SWAP1 SWAP2 SSTORE SWAP1 POP PUSH2 0x2E28 PUSH1 0x15 DUP3 PUSH2 0x4138 JUMP JUMPDEST PUSH1 0x0 DUP8 DUP2 MSTORE PUSH1 0xC PUSH1 0x20 MSTORE PUSH1 0x40 SWAP1 KECCAK256 PUSH1 0x12 ADD DUP3 SWAP1 SSTORE SWAP2 POP PUSH2 0x2E49 SWAP1 PUSH1 0x9 PUSH2 0x35C6 JUMP JUMPDEST PUSH1 0x0 DUP7 DUP2 MSTORE PUSH1 0xC PUSH1 0x20 MSTORE PUSH1 0x40 SWAP1 KECCAK256 PUSH1 0x12 ADD SSTORE PUSH2 0x2E66 PUSH1 0x15 DUP3 PUSH2 0x4138 JUMP JUMPDEST PUSH1 0x0 DUP8 DUP2 MSTORE PUSH1 0xC PUSH1 0x20 MSTORE PUSH1 0x40 SWAP1 KECCAK256 PUSH1 0x13 ADD DUP3 SWAP1 SSTORE SWAP2 POP PUSH2 0x2E87 SWAP1 PUSH1 0x9 PUSH2 0x35C6 JUMP JUMPDEST PUSH1 0x0 DUP7 DUP2 MSTORE PUSH1 0xC PUSH1 0x20 MSTORE PUSH1 0x40 SWAP1 KECCAK256 PUSH1 0x13 ADD SSTORE PUSH2 0x2EA4 PUSH1 0x1F DUP3 PUSH2 0x4138 JUMP JUMPDEST PUSH1 0x0 DUP8 DUP2 MSTORE PUSH1 0xC PUSH1 0x20 MSTORE PUSH1 0x40 SWAP1 KECCAK256 PUSH1 0x14 ADD DUP3 SWAP1 SSTORE SWAP2 POP PUSH2 0x2EC5 SWAP1 PUSH1 0x9 PUSH2 0x35C6 JUMP JUMPDEST PUSH1 0x0 DUP7 DUP2 MSTORE PUSH1 0xC PUSH1 0x20 MSTORE PUSH1 0x40 SWAP1 KECCAK256 PUSH1 0x14 ADD SSTORE PUSH2 0x2EE2 PUSH1 0x10 DUP3 PUSH2 0x4138 JUMP JUMPDEST PUSH1 0x0 DUP8 DUP2 MSTORE PUSH1 0xC PUSH1 0x20 MSTORE PUSH1 0x40 SWAP1 KECCAK256 PUSH1 0x15 ADD DUP3 SWAP1 SSTORE SWAP2 POP PUSH2 0x2F03 SWAP1 PUSH1 0x2 PUSH2 0x35C6 JUMP JUMPDEST PUSH1 0x0 DUP7 DUP2 MSTORE PUSH1 0xC PUSH1 0x20 MSTORE PUSH1 0x40 SWAP1 KECCAK256 PUSH1 0x15 ADD SSTORE PUSH2 0x2F20 PUSH1 0x10 DUP3 PUSH2 0x4138 JUMP JUMPDEST PUSH1 0x0 DUP8 DUP2 MSTORE PUSH1 0xC PUSH1 0x20 MSTORE PUSH1 0x40 SWAP1 KECCAK256 PUSH1 0x16 ADD DUP3 SWAP1 SSTORE SWAP2 POP PUSH2 0x2F41 SWAP1 PUSH1 0x2 PUSH2 0x35C6 JUMP JUMPDEST PUSH1 0x0 DUP7 DUP2 MSTORE PUSH1 0xC PUSH1 0x20 MSTORE PUSH1 0x40 SWAP1 KECCAK256 PUSH1 0x16 ADD SSTORE PUSH2 0x2F5E PUSH1 0x10 DUP3 PUSH2 0x4138 JUMP JUMPDEST PUSH1 0x0 DUP8 DUP2 MSTORE PUSH1 0xC PUSH1 0x20 MSTORE PUSH1 0x40 SWAP1 KECCAK256 PUSH1 0x17 ADD DUP3 SWAP1 SSTORE SWAP2 POP PUSH2 0x2F7F SWAP1 PUSH1 0x2 PUSH2 0x35C6 JUMP JUMPDEST PUSH1 0x0 DUP7 DUP2 MSTORE PUSH1 0xC PUSH1 0x20 MSTORE PUSH1 0x40 SWAP1 KECCAK256 PUSH1 0x17 ADD SSTORE PUSH2 0x2F9C PUSH1 0x10 DUP3 PUSH2 0x4138 JUMP JUMPDEST PUSH1 0x0 DUP8 DUP2 MSTORE PUSH1 0xC PUSH1 0x20 MSTORE PUSH1 0x40 SWAP1 KECCAK256 PUSH1 0x18 ADD DUP3 SWAP1 SSTORE SWAP2 POP PUSH2 0x2FBD SWAP1 PUSH1 0x2 PUSH2 0x35C6 JUMP JUMPDEST PUSH1 0x0 DUP7 DUP2 MSTORE PUSH1 0xC PUSH1 0x20 MSTORE PUSH1 0x40 SWAP1 KECCAK256 PUSH1 0x18 ADD SSTORE PUSH2 0x2FDA PUSH1 0x10 DUP3 PUSH2 0x4138 JUMP JUMPDEST PUSH1 0x0 DUP8 DUP2 MSTORE PUSH1 0xC PUSH1 0x20 MSTORE PUSH1 0x40 SWAP1 KECCAK256 PUSH1 0x19 ADD DUP3 SWAP1 SSTORE SWAP2 POP PUSH2 0x2FFB SWAP1 PUSH1 0x2 PUSH2 0x35C6 JUMP JUMPDEST PUSH1 0x0 DUP7 DUP2 MSTORE PUSH1 0xC PUSH1 0x20 MSTORE PUSH1 0x40 SWAP1 KECCAK256 PUSH1 0x19 ADD SSTORE PUSH2 0x3018 PUSH1 0x10 DUP3 PUSH2 0x4138 JUMP JUMPDEST PUSH1 0x0 DUP8 DUP2 MSTORE PUSH1 0xC PUSH1 0x20 MSTORE PUSH1 0x40 SWAP1 KECCAK256 PUSH1 0x1A ADD DUP3 SWAP1 SSTORE SWAP2 POP PUSH2 0x3039 SWAP1 PUSH1 0x2 PUSH2 0x35C6 JUMP JUMPDEST PUSH1 0x0 SWAP6 DUP7 MSTORE PUSH1 0xC PUSH1 0x20 MSTORE PUSH1 0x40 SWAP1 SWAP6 KECCAK256 PUSH1 0x1A ADD SWAP5 SWAP1 SWAP5 SSTORE POP POP POP POP JUMP JUMPDEST PUSH1 0x7 SLOAD DUP2 JUMP JUMPDEST PUSH2 0x3072 PUSH1 0x0 DUP1 MLOAD PUSH1 0x20 PUSH2 0x4BF5 DUP4 CODECOPY DUP2 MLOAD SWAP2 MSTORE PUSH2 0x3D4C JUMP JUMPDEST PUSH1 0x6 DUP1 SLOAD DUP3 SWAP2 SWAP1 PUSH1 0xFF NOT AND PUSH1 0x1 DUP4 DUP2 DUP2 GT ISZERO PUSH2 0x308A JUMPI INVALID JUMPDEST MUL OR SWAP1 SSTORE POP POP JUMP JUMPDEST PUSH1 0x0 DUP2 DUP2 MSTORE PUSH1 0x20 DUP2 SWAP1 MSTORE PUSH1 0x40 DUP2 KECCAK256 PUSH2 0x1322 SWAP1 PUSH2 0x415E JUMP JUMPDEST PUSH1 0xA SLOAD DUP2 JUMP JUMPDEST PUSH1 0x0 DUP3 DUP2 MSTORE PUSH1 0x20 DUP2 SWAP1 MSTORE PUSH1 0x40 SWAP1 KECCAK256 PUSH1 0x2 ADD SLOAD PUSH2 0x30CD SWAP1 PUSH2 0x1DD2 PUSH2 0x3620 JUMP JUMPDEST PUSH2 0x1E73 JUMPI PUSH1 0x40 MLOAD PUSH3 0x461BCD PUSH1 0xE5 SHL DUP2 MSTORE PUSH1 0x4 ADD DUP1 DUP1 PUSH1 0x20 ADD DUP3 DUP2 SUB DUP3 MSTORE PUSH1 0x30 DUP2 MSTORE PUSH1 0x20 ADD DUP1 PUSH2 0x4B6E PUSH1 0x30 SWAP2 CODECOPY PUSH1 0x40 ADD SWAP2 POP POP PUSH1 0x40 MLOAD DUP1 SWAP2 SUB SWAP1 REVERT JUMPDEST PUSH2 0x311F PUSH1 0x0 DUP1 MLOAD PUSH1 0x20 PUSH2 0x4BF5 DUP4 CODECOPY DUP2 MLOAD SWAP2 MSTORE PUSH2 0x3D4C JUMP JUMPDEST PUSH1 0xE SSTORE JUMP JUMPDEST PUSH1 0x11 DUP2 DUP2 SLOAD DUP2 LT PUSH2 0x2752 JUMPI INVALID JUMPDEST PUSH1 0x1 PUSH1 0x1 PUSH1 0xA0 SHL SUB SWAP2 DUP3 AND PUSH1 0x0 SWAP1 DUP2 MSTORE PUSH1 0x3 PUSH1 0x20 SWAP1 DUP2 MSTORE PUSH1 0x40 DUP1 DUP4 KECCAK256 SWAP4 SWAP1 SWAP5 AND DUP3 MSTORE SWAP2 SWAP1 SWAP2 MSTORE KECCAK256 SLOAD PUSH1 0xFF AND SWAP1 JUMP JUMPDEST PUSH1 0x1 PUSH1 0x1 PUSH1 0xA0 SHL SUB DUP5 AND PUSH2 0x31A4 JUMPI PUSH1 0x40 MLOAD PUSH3 0x461BCD PUSH1 0xE5 SHL DUP2 MSTORE PUSH1 0x4 ADD DUP1 DUP1 PUSH1 0x20 ADD DUP3 DUP2 SUB DUP3 MSTORE PUSH1 0x25 DUP2 MSTORE PUSH1 0x20 ADD DUP1 PUSH2 0x4B9E PUSH1 0x25 SWAP2 CODECOPY PUSH1 0x40 ADD SWAP2 POP POP PUSH1 0x40 MLOAD DUP1 SWAP2 SUB SWAP1 REVERT JUMPDEST PUSH2 0x31AC PUSH2 0x3620 JUMP JUMPDEST PUSH1 0x1 PUSH1 0x1 PUSH1 0xA0 SHL SUB AND DUP6 PUSH1 0x1 PUSH1 0x1 PUSH1 0xA0 SHL SUB AND EQ DUP1 PUSH2 0x31D2 JUMPI POP PUSH2 0x31D2 DUP6 PUSH2 0x1A47 PUSH2 0x3620 JUMP JUMPDEST PUSH2 0x320D JUMPI PUSH1 0x40 MLOAD PUSH3 0x461BCD PUSH1 0xE5 SHL DUP2 MSTORE PUSH1 0x4 ADD DUP1 DUP1 PUSH1 0x20 ADD DUP3 DUP2 SUB DUP3 MSTORE PUSH1 0x29 DUP2 MSTORE PUSH1 0x20 ADD DUP1 PUSH2 0x4B45 PUSH1 0x29 SWAP2 CODECOPY PUSH1 0x40 ADD SWAP2 POP POP PUSH1 0x40 MLOAD DUP1 SWAP2 SUB SWAP1 REVERT JUMPDEST PUSH1 0x0 PUSH2 0x3217 PUSH2 0x3620 JUMP JUMPDEST SWAP1 POP PUSH2 0x3237 DUP2 DUP8 DUP8 PUSH2 0x3228 DUP9 PUSH2 0x4169 JUMP JUMPDEST PUSH2 0x3231 DUP9 PUSH2 0x4169 JUMP JUMPDEST DUP8 PUSH2 0x392D JUMP JUMPDEST PUSH2 0x327E DUP4 PUSH1 0x40 MLOAD DUP1 PUSH1 0x60 ADD PUSH1 0x40 MSTORE DUP1 PUSH1 0x2A DUP2 MSTORE PUSH1 0x20 ADD PUSH2 0x4C38 PUSH1 0x2A SWAP2 CODECOPY PUSH1 0x0 DUP8 DUP2 MSTORE PUSH1 0x2 PUSH1 0x20 SWAP1 DUP2 MSTORE PUSH1 0x40 DUP1 DUP4 KECCAK256 PUSH1 0x1 PUSH1 0x1 PUSH1 0xA0 SHL SUB DUP14 AND DUP5 MSTORE SWAP1 SWAP2 MSTORE SWAP1 KECCAK256 SLOAD SWAP2 SWAP1 PUSH2 0x3A3F JUMP JUMPDEST PUSH1 0x0 DUP6 DUP2 MSTORE PUSH1 0x2 PUSH1 0x20 SWAP1 DUP2 MSTORE PUSH1 0x40 DUP1 DUP4 KECCAK256 PUSH1 0x1 PUSH1 0x1 PUSH1 0xA0 SHL SUB DUP12 DUP2 AND DUP6 MSTORE SWAP3 MSTORE DUP1 DUP4 KECCAK256 SWAP4 SWAP1 SWAP4 SSTORE DUP8 AND DUP2 MSTORE KECCAK256 SLOAD PUSH2 0x32B5 SWAP1 DUP5 PUSH2 0x35C6 JUMP JUMPDEST PUSH1 0x0 DUP6 DUP2 MSTORE PUSH1 0x2 PUSH1 0x20 SWAP1 DUP2 MSTORE PUSH1 0x40 DUP1 DUP4 KECCAK256 PUSH1 0x1 PUSH1 0x1 PUSH1 0xA0 SHL SUB DUP1 DUP12 AND DUP1 DUP7 MSTORE SWAP2 DUP5 MSTORE SWAP4 DUP3 SWAP1 KECCAK256 SWAP5 SWAP1 SWAP5 SSTORE DUP1 MLOAD DUP9 DUP2 MSTORE SWAP2 DUP3 ADD DUP8 SWAP1 MSTORE DUP1 MLOAD DUP11 DUP5 AND SWAP4 DUP7 AND SWAP3 PUSH32 0xC3D58168C5AE7397731D063D5BBF3D657854427343F4C083240F7AACAA2D0F62 SWAP3 SWAP1 DUP3 SWAP1 SUB ADD SWAP1 LOG4 PUSH2 0x1C8F DUP2 DUP8 DUP8 DUP8 DUP8 DUP8 PUSH2 0x41AD JUMP JUMPDEST PUSH1 0x0 DUP2 PUSH1 0x0 DUP2 GT DUP1 ISZERO PUSH2 0x333E JUMPI POP PUSH1 0x7 DUP2 GT ISZERO JUMPDEST PUSH2 0x3347 JUMPI PUSH1 0x0 DUP1 REVERT JUMPDEST PUSH1 0xF SLOAD DUP5 GT ISZERO PUSH2 0x3356 JUMPI PUSH1 0x0 DUP1 REVERT JUMPDEST PUSH1 0x0 DUP5 DUP2 MSTORE PUSH1 0xD PUSH1 0x20 SWAP1 DUP2 MSTORE PUSH1 0x40 DUP1 DUP4 KECCAK256 DUP7 DUP5 MSTORE SWAP1 SWAP2 MSTORE DUP2 KECCAK256 SLOAD PUSH2 0x337B SWAP1 PUSH1 0x1 PUSH2 0x35C6 JUMP JUMPDEST SWAP1 POP PUSH2 0x3386 DUP2 PUSH2 0x431E JUMP JUMPDEST SWAP6 SWAP5 POP POP POP POP POP JUMP JUMPDEST PUSH2 0x33A6 PUSH1 0x0 DUP1 MLOAD PUSH1 0x20 PUSH2 0x4BF5 DUP4 CODECOPY DUP2 MLOAD SWAP2 MSTORE PUSH2 0x3D4C JUMP JUMPDEST PUSH1 0x17 SLOAD PUSH1 0x40 DUP1 MLOAD DUP1 DUP3 ADD DUP3 MSTORE PUSH1 0xA DUP2 MSTORE PUSH10 0x50524943455F57415253 PUSH1 0xB0 SHL PUSH1 0x20 DUP1 DUP4 ADD SWAP2 DUP3 MSTORE SWAP3 MLOAD PUSH4 0x6CADCD79 PUSH1 0xE1 SHL DUP2 MSTORE PUSH1 0x4 DUP2 ADD SWAP4 DUP5 MSTORE DUP3 MLOAD PUSH1 0x24 DUP3 ADD MSTORE DUP3 MLOAD PUSH1 0x0 SWAP6 PUSH1 0x1 PUSH1 0x1 PUSH1 0xA0 SHL SUB AND SWAP5 PUSH4 0xD95B9AF2 SWAP5 SWAP4 SWAP1 SWAP3 DUP4 SWAP3 PUSH1 0x44 SWAP1 SWAP2 ADD SWAP2 SWAP1 DUP1 DUP4 DUP4 DUP12 JUMPDEST DUP4 DUP2 LT ISZERO PUSH2 0x3424 JUMPI DUP2 DUP2 ADD MLOAD DUP4 DUP3 ADD MSTORE PUSH1 0x20 ADD PUSH2 0x340C JUMP JUMPDEST POP POP POP POP SWAP1 POP SWAP1 DUP2 ADD SWAP1 PUSH1 0x1F AND DUP1 ISZERO PUSH2 0x3451 JUMPI DUP1 DUP3 SUB DUP1 MLOAD PUSH1 0x1 DUP4 PUSH1 0x20 SUB PUSH2 0x100 EXP SUB NOT AND DUP2 MSTORE PUSH1 0x20 ADD SWAP2 POP JUMPDEST POP SWAP3 POP POP POP PUSH1 0x20 PUSH1 0x40 MLOAD DUP1 DUP4 SUB DUP2 PUSH1 0x0 DUP8 DUP1 EXTCODESIZE ISZERO DUP1 ISZERO PUSH2 0x3470 JUMPI PUSH1 0x0 DUP1 REVERT JUMPDEST POP GAS CALL ISZERO DUP1 ISZERO PUSH2 0x3484 JUMPI RETURNDATASIZE PUSH1 0x0 DUP1 RETURNDATACOPY RETURNDATASIZE PUSH1 0x0 REVERT JUMPDEST POP POP POP POP PUSH1 0x40 MLOAD RETURNDATASIZE PUSH1 0x20 DUP2 LT ISZERO PUSH2 0x349A JUMPI PUSH1 0x0 DUP1 REVERT JUMPDEST POP MLOAD PUSH1 0x40 DUP1 MLOAD PUSH4 0x72D7F665 PUSH1 0xE1 SHL DUP2 MSTORE ADDRESS PUSH1 0x4 DUP3 ADD MSTORE SWAP1 MLOAD SWAP2 SWAP3 POP DUP3 SWAP2 PUSH1 0x0 SWAP2 PUSH1 0x1 PUSH1 0x1 PUSH1 0xA0 SHL SUB DUP5 AND SWAP2 PUSH4 0xE5AFECCA SWAP2 PUSH1 0x24 DUP1 DUP3 ADD SWAP3 PUSH1 0x20 SWAP3 SWAP1 SWAP2 SWAP1 DUP3 SWAP1 SUB ADD DUP2 DUP8 DUP8 DUP1 EXTCODESIZE ISZERO DUP1 ISZERO PUSH2 0x34EC JUMPI PUSH1 0x0 DUP1 REVERT JUMPDEST POP GAS CALL ISZERO DUP1 ISZERO PUSH2 0x3500 JUMPI RETURNDATASIZE PUSH1 0x0 DUP1 RETURNDATACOPY RETURNDATASIZE PUSH1 0x0 REVERT JUMPDEST POP POP POP POP PUSH1 0x40 MLOAD RETURNDATASIZE PUSH1 0x20 DUP2 LT ISZERO PUSH2 0x3516 JUMPI PUSH1 0x0 DUP1 REVERT JUMPDEST POP MLOAD SWAP1 POP PUSH2 0x3544 PUSH32 0xAE0C232B87105E0A8134F8B92146DCD1D99373D32394BE9D70F700F90B3A3DB3 DUP3 PUSH2 0x1DB4 JUMP JUMPDEST DUP1 PUSH1 0x1 PUSH1 0x1 PUSH1 0xA0 SHL SUB AND PUSH4 0xD65AB5F2 PUSH1 0x40 MLOAD DUP2 PUSH4 0xFFFFFFFF AND PUSH1 0xE0 SHL DUP2 MSTORE PUSH1 0x4 ADD PUSH1 0x0 PUSH1 0x40 MLOAD DUP1 DUP4 SUB DUP2 PUSH1 0x0 DUP8 DUP1 EXTCODESIZE ISZERO DUP1 ISZERO PUSH2 0x357F JUMPI PUSH1 0x0 DUP1 REVERT JUMPDEST POP GAS CALL ISZERO DUP1 ISZERO PUSH2 0x3593 JUMPI RETURNDATASIZE PUSH1 0x0 DUP1 RETURNDATACOPY RETURNDATASIZE PUSH1 0x0 REVERT JUMPDEST POP POP POP POP POP POP POP JUMP JUMPDEST PUSH1 0x0 PUSH2 0x2937 DUP4 PUSH1 0x1 PUSH1 0x1 PUSH1 0xA0 SHL SUB DUP5 AND PUSH2 0x4370 JUMP JUMPDEST PUSH1 0x0 PUSH2 0x2937 DUP4 PUSH1 0x1 PUSH1 0x1 PUSH1 0xA0 SHL SUB DUP5 AND PUSH2 0x43BA JUMP JUMPDEST PUSH1 0x0 DUP3 DUP3 ADD DUP4 DUP2 LT ISZERO PUSH2 0x2937 JUMPI PUSH1 0x40 DUP1 MLOAD PUSH3 0x461BCD PUSH1 0xE5 SHL DUP2 MSTORE PUSH1 0x20 PUSH1 0x4 DUP3 ADD MSTORE PUSH1 0x1B PUSH1 0x24 DUP3 ADD MSTORE PUSH32 0x536166654D6174683A206164646974696F6E206F766572666C6F770000000000 PUSH1 0x44 DUP3 ADD MSTORE SWAP1 MLOAD SWAP1 DUP2 SWAP1 SUB PUSH1 0x64 ADD SWAP1 REVERT JUMPDEST CALLER SWAP1 JUMP JUMPDEST PUSH1 0x1 PUSH1 0x1 PUSH1 0xA0 SHL SUB DUP5 AND PUSH2 0x3669 JUMPI PUSH1 0x40 MLOAD PUSH3 0x461BCD PUSH1 0xE5 SHL DUP2 MSTORE PUSH1 0x4 ADD DUP1 DUP1 PUSH1 0x20 ADD DUP3 DUP2 SUB DUP3 MSTORE PUSH1 0x21 DUP2 MSTORE PUSH1 0x20 ADD DUP1 PUSH2 0x4CFD PUSH1 0x21 SWAP2 CODECOPY PUSH1 0x40 ADD SWAP2 POP POP PUSH1 0x40 MLOAD DUP1 SWAP2 SUB SWAP1 REVERT JUMPDEST PUSH1 0x0 PUSH2 0x3673 PUSH2 0x3620 JUMP JUMPDEST SWAP1 POP PUSH2 0x3685 DUP2 PUSH1 0x0 DUP8 PUSH2 0x3228 DUP9 PUSH2 0x4169 JUMP JUMPDEST PUSH1 0x0 DUP5 DUP2 MSTORE PUSH1 0x2 PUSH1 0x20 SWAP1 DUP2 MSTORE PUSH1 0x40 DUP1 DUP4 KECCAK256 PUSH1 0x1 PUSH1 0x1 PUSH1 0xA0 SHL SUB DUP10 AND DUP5 MSTORE SWAP1 SWAP2 MSTORE SWAP1 KECCAK256 SLOAD PUSH2 0x36B2 SWAP1 DUP5 PUSH2 0x35C6 JUMP JUMPDEST PUSH1 0x0 DUP6 DUP2 MSTORE PUSH1 0x2 PUSH1 0x20 SWAP1 DUP2 MSTORE PUSH1 0x40 DUP1 DUP4 KECCAK256 PUSH1 0x1 PUSH1 0x1 PUSH1 0xA0 SHL SUB DUP1 DUP12 AND DUP1 DUP7 MSTORE SWAP2 DUP5 MSTORE DUP3 DUP6 KECCAK256 SWAP6 SWAP1 SWAP6 SSTORE DUP2 MLOAD DUP10 DUP2 MSTORE SWAP3 DUP4 ADD DUP9 SWAP1 MSTORE DUP2 MLOAD SWAP1 SWAP5 DUP7 AND SWAP3 PUSH32 0xC3D58168C5AE7397731D063D5BBF3D657854427343F4C083240F7AACAA2D0F62 SWAP3 SWAP1 DUP3 SWAP1 SUB ADD SWAP1 LOG4 PUSH2 0x3725 DUP2 PUSH1 0x0 DUP8 DUP8 DUP8 DUP8 PUSH2 0x41AD JUMP JUMPDEST POP POP POP POP POP JUMP JUMPDEST PUSH1 0x0 PUSH2 0x3738 CALLVALUE DUP4 PUSH2 0x38D0 JUMP JUMPDEST GT ISZERO PUSH2 0x379A JUMPI PUSH1 0x0 CALLER PUSH2 0x374B CALLVALUE DUP5 PUSH2 0x38D0 JUMP JUMPDEST PUSH1 0x40 MLOAD PUSH1 0x0 DUP2 DUP2 DUP2 DUP6 DUP8 GAS CALL SWAP3 POP POP POP RETURNDATASIZE DUP1 PUSH1 0x0 DUP2 EQ PUSH2 0x3787 JUMPI PUSH1 0x40 MLOAD SWAP2 POP PUSH1 0x1F NOT PUSH1 0x3F RETURNDATASIZE ADD AND DUP3 ADD PUSH1 0x40 MSTORE RETURNDATASIZE DUP3 MSTORE RETURNDATASIZE PUSH1 0x0 PUSH1 0x20 DUP5 ADD RETURNDATACOPY PUSH2 0x378C JUMP JUMPDEST PUSH1 0x60 SWAP2 POP JUMPDEST POP POP SWAP1 POP DUP1 PUSH2 0x1DB0 JUMPI PUSH1 0x0 DUP1 REVERT JUMPDEST POP JUMP JUMPDEST PUSH1 0x1 PUSH1 0x1 PUSH1 0xA0 SHL SUB DUP4 AND PUSH2 0x37E2 JUMPI PUSH1 0x40 MLOAD PUSH3 0x461BCD PUSH1 0xE5 SHL DUP2 MSTORE PUSH1 0x4 ADD DUP1 DUP1 PUSH1 0x20 ADD DUP3 DUP2 SUB DUP3 MSTORE PUSH1 0x23 DUP2 MSTORE PUSH1 0x20 ADD DUP1 PUSH2 0x4C15 PUSH1 0x23 SWAP2 CODECOPY PUSH1 0x40 ADD SWAP2 POP POP PUSH1 0x40 MLOAD DUP1 SWAP2 SUB SWAP1 REVERT JUMPDEST PUSH1 0x0 PUSH2 0x37EC PUSH2 0x3620 JUMP JUMPDEST SWAP1 POP PUSH2 0x381C DUP2 DUP6 PUSH1 0x0 PUSH2 0x37FE DUP8 PUSH2 0x4169 JUMP JUMPDEST PUSH2 0x3807 DUP8 PUSH2 0x4169 JUMP JUMPDEST PUSH1 0x40 MLOAD DUP1 PUSH1 0x20 ADD PUSH1 0x40 MSTORE DUP1 PUSH1 0x0 DUP2 MSTORE POP PUSH2 0x392D JUMP JUMPDEST PUSH2 0x3863 DUP3 PUSH1 0x40 MLOAD DUP1 PUSH1 0x60 ADD PUSH1 0x40 MSTORE DUP1 PUSH1 0x24 DUP2 MSTORE PUSH1 0x20 ADD PUSH2 0x4B21 PUSH1 0x24 SWAP2 CODECOPY PUSH1 0x0 DUP7 DUP2 MSTORE PUSH1 0x2 PUSH1 0x20 SWAP1 DUP2 MSTORE PUSH1 0x40 DUP1 DUP4 KECCAK256 PUSH1 0x1 PUSH1 0x1 PUSH1 0xA0 SHL SUB DUP12 AND DUP5 MSTORE SWAP1 SWAP2 MSTORE SWAP1 KECCAK256 SLOAD SWAP2 SWAP1 PUSH2 0x3A3F JUMP JUMPDEST PUSH1 0x0 DUP5 DUP2 MSTORE PUSH1 0x2 PUSH1 0x20 SWAP1 DUP2 MSTORE PUSH1 0x40 DUP1 DUP4 KECCAK256 PUSH1 0x1 PUSH1 0x1 PUSH1 0xA0 SHL SUB DUP1 DUP11 AND DUP1 DUP7 MSTORE SWAP2 DUP5 MSTORE DUP3 DUP6 KECCAK256 SWAP6 SWAP1 SWAP6 SSTORE DUP2 MLOAD DUP9 DUP2 MSTORE SWAP3 DUP4 ADD DUP8 SWAP1 MSTORE DUP2 MLOAD SWAP4 SWAP5 SWAP1 SWAP4 SWAP1 DUP7 AND SWAP3 PUSH32 0xC3D58168C5AE7397731D063D5BBF3D657854427343F4C083240F7AACAA2D0F62 SWAP3 SWAP1 DUP3 SWAP1 SUB ADD SWAP1 LOG4 POP POP POP POP JUMP JUMPDEST PUSH1 0x0 DUP3 DUP3 GT ISZERO PUSH2 0x3927 JUMPI PUSH1 0x40 DUP1 MLOAD PUSH3 0x461BCD PUSH1 0xE5 SHL DUP2 MSTORE PUSH1 0x20 PUSH1 0x4 DUP3 ADD MSTORE PUSH1 0x1E PUSH1 0x24 DUP3 ADD MSTORE PUSH32 0x536166654D6174683A207375627472616374696F6E206F766572666C6F770000 PUSH1 0x44 DUP3 ADD MSTORE SWAP1 MLOAD SWAP1 DUP2 SWAP1 SUB PUSH1 0x64 ADD SWAP1 REVERT JUMPDEST POP SWAP1 SUB SWAP1 JUMP JUMPDEST PUSH2 0x393B DUP7 DUP7 DUP7 DUP7 DUP7 DUP7 PUSH2 0x1C8F JUMP JUMPDEST PUSH1 0x0 JUMPDEST DUP4 MLOAD DUP2 LT ISZERO PUSH2 0x3593 JUMPI PUSH1 0x0 DUP5 DUP3 DUP2 MLOAD DUP2 LT PUSH2 0x3955 JUMPI INVALID JUMPDEST PUSH1 0x20 MUL PUSH1 0x20 ADD ADD MLOAD GT DUP1 ISZERO PUSH2 0x397E JUMPI POP PUSH1 0x7 DUP5 DUP3 DUP2 MLOAD DUP2 LT PUSH2 0x3973 JUMPI INVALID JUMPDEST PUSH1 0x20 MUL PUSH1 0x20 ADD ADD MLOAD GT ISZERO JUMPDEST ISZERO PUSH2 0x39CF JUMPI DUP5 PUSH1 0x8 PUSH1 0x0 DUP7 DUP5 DUP2 MLOAD DUP2 LT PUSH2 0x3994 JUMPI INVALID JUMPDEST PUSH1 0x20 MUL PUSH1 0x20 ADD ADD MLOAD DUP2 MSTORE PUSH1 0x20 ADD SWAP1 DUP2 MSTORE PUSH1 0x20 ADD PUSH1 0x0 KECCAK256 PUSH1 0x0 PUSH2 0x100 EXP DUP2 SLOAD DUP2 PUSH1 0x1 PUSH1 0x1 PUSH1 0xA0 SHL SUB MUL NOT AND SWAP1 DUP4 PUSH1 0x1 PUSH1 0x1 PUSH1 0xA0 SHL SUB AND MUL OR SWAP1 SSTORE POP JUMPDEST PUSH1 0x7 DUP5 DUP3 DUP2 MLOAD DUP2 LT PUSH2 0x39DD JUMPI INVALID JUMPDEST PUSH1 0x20 MUL PUSH1 0x20 ADD ADD MLOAD GT ISZERO PUSH2 0x3A37 JUMPI DUP5 PUSH1 0xB PUSH1 0x0 DUP7 DUP5 DUP2 MLOAD DUP2 LT PUSH2 0x39FC JUMPI INVALID JUMPDEST PUSH1 0x20 MUL PUSH1 0x20 ADD ADD MLOAD DUP2 MSTORE PUSH1 0x20 ADD SWAP1 DUP2 MSTORE PUSH1 0x20 ADD PUSH1 0x0 KECCAK256 PUSH1 0x0 PUSH2 0x100 EXP DUP2 SLOAD DUP2 PUSH1 0x1 PUSH1 0x1 PUSH1 0xA0 SHL SUB MUL NOT AND SWAP1 DUP4 PUSH1 0x1 PUSH1 0x1 PUSH1 0xA0 SHL SUB AND MUL OR SWAP1 SSTORE POP JUMPDEST PUSH1 0x1 ADD PUSH2 0x393E JUMP JUMPDEST PUSH1 0x0 DUP2 DUP5 DUP5 GT ISZERO PUSH2 0x3ACE JUMPI PUSH1 0x40 MLOAD PUSH3 0x461BCD PUSH1 0xE5 SHL DUP2 MSTORE PUSH1 0x4 ADD DUP1 DUP1 PUSH1 0x20 ADD DUP3 DUP2 SUB DUP3 MSTORE DUP4 DUP2 DUP2 MLOAD DUP2 MSTORE PUSH1 0x20 ADD SWAP2 POP DUP1 MLOAD SWAP1 PUSH1 0x20 ADD SWAP1 DUP1 DUP4 DUP4 PUSH1 0x0 JUMPDEST DUP4 DUP2 LT ISZERO PUSH2 0x3A93 JUMPI DUP2 DUP2 ADD MLOAD DUP4 DUP3 ADD MSTORE PUSH1 0x20 ADD PUSH2 0x3A7B JUMP JUMPDEST POP POP POP POP SWAP1 POP SWAP1 DUP2 ADD SWAP1 PUSH1 0x1F AND DUP1 ISZERO PUSH2 0x3AC0 JUMPI DUP1 DUP3 SUB DUP1 MLOAD PUSH1 0x1 DUP4 PUSH1 0x20 SUB PUSH2 0x100 EXP SUB NOT AND DUP2 MSTORE PUSH1 0x20 ADD SWAP2 POP JUMPDEST POP SWAP3 POP POP POP PUSH1 0x40 MLOAD DUP1 SWAP2 SUB SWAP1 REVERT JUMPDEST POP POP POP SWAP1 SUB SWAP1 JUMP JUMPDEST PUSH2 0x3AE8 DUP5 PUSH1 0x1 PUSH1 0x1 PUSH1 0xA0 SHL SUB AND PUSH2 0x43D2 JUMP JUMPDEST ISZERO PUSH2 0x1C8F JUMPI DUP4 PUSH1 0x1 PUSH1 0x1 PUSH1 0xA0 SHL SUB AND PUSH4 0xBC197C81 DUP8 DUP8 DUP7 DUP7 DUP7 PUSH1 0x40 MLOAD DUP7 PUSH4 0xFFFFFFFF AND PUSH1 0xE0 SHL DUP2 MSTORE PUSH1 0x4 ADD DUP1 DUP7 PUSH1 0x1 PUSH1 0x1 PUSH1 0xA0 SHL SUB AND DUP2 MSTORE PUSH1 0x20 ADD DUP6 PUSH1 0x1 PUSH1 0x1 PUSH1 0xA0 SHL SUB AND DUP2 MSTORE PUSH1 0x20 ADD DUP1 PUSH1 0x20 ADD DUP1 PUSH1 0x20 ADD DUP1 PUSH1 0x20 ADD DUP5 DUP2 SUB DUP5 MSTORE DUP8 DUP2 DUP2 MLOAD DUP2 MSTORE PUSH1 0x20 ADD SWAP2 POP DUP1 MLOAD SWAP1 PUSH1 0x20 ADD SWAP1 PUSH1 0x20 MUL DUP1 DUP4 DUP4 PUSH1 0x0 JUMPDEST DUP4 DUP2 LT ISZERO PUSH2 0x3B76 JUMPI DUP2 DUP2 ADD MLOAD DUP4 DUP3 ADD MSTORE PUSH1 0x20 ADD PUSH2 0x3B5E JUMP JUMPDEST POP POP POP POP SWAP1 POP ADD DUP5 DUP2 SUB DUP4 MSTORE DUP7 DUP2 DUP2 MLOAD DUP2 MSTORE PUSH1 0x20 ADD SWAP2 POP DUP1 MLOAD SWAP1 PUSH1 0x20 ADD SWAP1 PUSH1 0x20 MUL DUP1 DUP4 DUP4 PUSH1 0x0 JUMPDEST DUP4 DUP2 LT ISZERO PUSH2 0x3BB5 JUMPI DUP2 DUP2 ADD MLOAD DUP4 DUP3 ADD MSTORE PUSH1 0x20 ADD PUSH2 0x3B9D JUMP JUMPDEST POP POP POP POP SWAP1 POP ADD DUP5 DUP2 SUB DUP3 MSTORE DUP6 DUP2 DUP2 MLOAD DUP2 MSTORE PUSH1 0x20 ADD SWAP2 POP DUP1 MLOAD SWAP1 PUSH1 0x20 ADD SWAP1 DUP1 DUP4 DUP4 PUSH1 0x0 JUMPDEST DUP4 DUP2 LT ISZERO PUSH2 0x3BF1 JUMPI DUP2 DUP2 ADD MLOAD DUP4 DUP3 ADD MSTORE PUSH1 0x20 ADD PUSH2 0x3BD9 JUMP JUMPDEST POP POP POP POP SWAP1 POP SWAP1 DUP2 ADD SWAP1 PUSH1 0x1F AND DUP1 ISZERO PUSH2 0x3C1E JUMPI DUP1 DUP3 SUB DUP1 MLOAD PUSH1 0x1 DUP4 PUSH1 0x20 SUB PUSH2 0x100 EXP SUB NOT AND DUP2 MSTORE PUSH1 0x20 ADD SWAP2 POP JUMPDEST POP SWAP9 POP POP POP POP POP POP POP POP POP PUSH1 0x20 PUSH1 0x40 MLOAD DUP1 DUP4 SUB DUP2 PUSH1 0x0 DUP8 DUP1 EXTCODESIZE ISZERO DUP1 ISZERO PUSH2 0x3C43 JUMPI PUSH1 0x0 DUP1 REVERT JUMPDEST POP GAS CALL SWAP3 POP POP POP DUP1 ISZERO PUSH2 0x3C68 JUMPI POP PUSH1 0x40 MLOAD RETURNDATASIZE PUSH1 0x20 DUP2 LT ISZERO PUSH2 0x3C63 JUMPI PUSH1 0x0 DUP1 REVERT JUMPDEST POP MLOAD PUSH1 0x1 JUMPDEST PUSH2 0x3CFD JUMPI PUSH2 0x3C74 PUSH2 0x49A3 JUMP JUMPDEST DUP1 PUSH2 0x3C7F JUMPI POP PUSH2 0x3CC6 JUMP JUMPDEST PUSH1 0x40 MLOAD PUSH3 0x461BCD PUSH1 0xE5 SHL DUP2 MSTORE PUSH1 0x20 PUSH1 0x4 DUP3 ADD DUP2 DUP2 MSTORE DUP4 MLOAD PUSH1 0x24 DUP5 ADD MSTORE DUP4 MLOAD DUP5 SWAP4 SWAP2 SWAP3 DUP4 SWAP3 PUSH1 0x44 ADD SWAP2 SWAP1 DUP6 ADD SWAP1 DUP1 DUP4 DUP4 PUSH1 0x0 DUP4 ISZERO PUSH2 0x3A93 JUMPI DUP2 DUP2 ADD MLOAD DUP4 DUP3 ADD MSTORE PUSH1 0x20 ADD PUSH2 0x3A7B JUMP JUMPDEST PUSH1 0x40 MLOAD PUSH3 0x461BCD PUSH1 0xE5 SHL DUP2 MSTORE PUSH1 0x4 ADD DUP1 DUP1 PUSH1 0x20 ADD DUP3 DUP2 SUB DUP3 MSTORE PUSH1 0x34 DUP2 MSTORE PUSH1 0x20 ADD DUP1 PUSH2 0x4A49 PUSH1 0x34 SWAP2 CODECOPY PUSH1 0x40 ADD SWAP2 POP POP PUSH1 0x40 MLOAD DUP1 SWAP2 SUB SWAP1 REVERT JUMPDEST PUSH1 0x1 PUSH1 0x1 PUSH1 0xE0 SHL SUB NOT DUP2 AND PUSH4 0xBC197C81 PUSH1 0xE0 SHL EQ PUSH2 0x3593 JUMPI PUSH1 0x40 MLOAD PUSH3 0x461BCD PUSH1 0xE5 SHL DUP2 MSTORE PUSH1 0x4 ADD DUP1 DUP1 PUSH1 0x20 ADD DUP3 DUP2 SUB DUP3 MSTORE PUSH1 0x28 DUP2 MSTORE PUSH1 0x20 ADD DUP1 PUSH2 0x4A9F PUSH1 0x28 SWAP2 CODECOPY PUSH1 0x40 ADD SWAP2 POP POP PUSH1 0x40 MLOAD DUP1 SWAP2 SUB SWAP1 REVERT JUMPDEST PUSH2 0x3D56 DUP2 CALLER PUSH2 0x2943 JUMP JUMPDEST PUSH2 0x379A JUMPI PUSH1 0x0 DUP1 REVERT JUMPDEST PUSH1 0x0 DUP3 DUP2 MSTORE PUSH1 0x20 DUP2 SWAP1 MSTORE PUSH1 0x40 SWAP1 KECCAK256 PUSH2 0x3D77 SWAP1 DUP3 PUSH2 0x359C JUMP JUMPDEST ISZERO PUSH2 0x1DB0 JUMPI PUSH2 0x3D84 PUSH2 0x3620 JUMP JUMPDEST PUSH1 0x1 PUSH1 0x1 PUSH1 0xA0 SHL SUB AND DUP2 PUSH1 0x1 PUSH1 0x1 PUSH1 0xA0 SHL SUB AND DUP4 PUSH32 0x2F8788117E7EFF1D82E926EC794901D17C78024A50270940304540A733656F0D PUSH1 0x40 MLOAD PUSH1 0x40 MLOAD DUP1 SWAP2 SUB SWAP1 LOG4 POP POP JUMP JUMPDEST PUSH1 0x0 DUP3 DUP2 MSTORE PUSH1 0x20 DUP2 SWAP1 MSTORE PUSH1 0x40 SWAP1 KECCAK256 PUSH2 0x3DE0 SWAP1 DUP3 PUSH2 0x43D8 JUMP JUMPDEST ISZERO PUSH2 0x1DB0 JUMPI PUSH2 0x3DED PUSH2 0x3620 JUMP JUMPDEST PUSH1 0x1 PUSH1 0x1 PUSH1 0xA0 SHL SUB AND DUP2 PUSH1 0x1 PUSH1 0x1 PUSH1 0xA0 SHL SUB AND DUP4 PUSH32 0xF6391F5C32D9C69D2A47EA670B442974B53935D1EDC7FD64EB21E047A839171B PUSH1 0x40 MLOAD PUSH1 0x40 MLOAD DUP1 SWAP2 SUB SWAP1 LOG4 POP POP JUMP JUMPDEST PUSH1 0xF SLOAD PUSH1 0x0 SWAP1 DUP2 MSTORE PUSH1 0xD PUSH1 0x20 SWAP1 DUP2 MSTORE PUSH1 0x40 DUP1 DUP4 KECCAK256 DUP5 DUP5 MSTORE SWAP1 SWAP2 MSTORE DUP2 KECCAK256 SLOAD PUSH1 0x4 GT ISZERO PUSH2 0x3E5E JUMPI POP PUSH1 0x1 PUSH2 0x1346 JUMP JUMPDEST PUSH1 0xF SLOAD PUSH1 0x0 SWAP1 DUP2 MSTORE PUSH1 0xD PUSH1 0x20 SWAP1 DUP2 MSTORE PUSH1 0x40 DUP1 DUP4 KECCAK256 DUP6 DUP5 MSTORE SWAP1 SWAP2 MSTORE SWAP1 KECCAK256 SLOAD PUSH1 0x1 JUMPDEST PUSH1 0x7 SLOAD DUP2 GT PUSH2 0x3ED3 JUMPI PUSH1 0xF SLOAD PUSH1 0x0 SWAP1 DUP2 MSTORE PUSH1 0xD PUSH1 0x20 SWAP1 DUP2 MSTORE PUSH1 0x40 DUP1 DUP4 KECCAK256 DUP5 DUP5 MSTORE SWAP1 SWAP2 MSTORE SWAP1 KECCAK256 SLOAD DUP3 GT ISZERO PUSH2 0x3ECB JUMPI PUSH1 0xF SLOAD PUSH1 0x0 SWAP1 DUP2 MSTORE PUSH1 0xD PUSH1 0x20 SWAP1 DUP2 MSTORE PUSH1 0x40 DUP1 DUP4 KECCAK256 DUP5 DUP5 MSTORE SWAP1 SWAP2 MSTORE SWAP1 KECCAK256 SLOAD SWAP2 POP JUMPDEST PUSH1 0x1 ADD PUSH2 0x3E7E JUMP JUMPDEST POP PUSH2 0x3EDF DUP2 PUSH1 0x2 PUSH2 0x3FBE JUMP JUMPDEST PUSH1 0xF SLOAD PUSH1 0x0 SWAP1 DUP2 MSTORE PUSH1 0xD PUSH1 0x20 SWAP1 DUP2 MSTORE PUSH1 0x40 DUP1 DUP4 KECCAK256 DUP8 DUP5 MSTORE SWAP1 SWAP2 MSTORE SWAP1 KECCAK256 SLOAD GT ISZERO SWAP2 POP POP SWAP2 SWAP1 POP JUMP JUMPDEST PUSH1 0x0 PUSH1 0x13 SLOAD PUSH32 0x0 PUSH1 0x1 PUSH1 0x1 PUSH1 0xA0 SHL SUB AND PUSH4 0x70A08231 ADDRESS PUSH1 0x40 MLOAD DUP3 PUSH4 0xFFFFFFFF AND PUSH1 0xE0 SHL DUP2 MSTORE PUSH1 0x4 ADD DUP1 DUP3 PUSH1 0x1 PUSH1 0x1 PUSH1 0xA0 SHL SUB AND DUP2 MSTORE PUSH1 0x20 ADD SWAP2 POP POP PUSH1 0x20 PUSH1 0x40 MLOAD DUP1 DUP4 SUB DUP2 DUP7 DUP1 EXTCODESIZE ISZERO DUP1 ISZERO PUSH2 0x3F78 JUMPI PUSH1 0x0 DUP1 REVERT JUMPDEST POP GAS STATICCALL ISZERO DUP1 ISZERO PUSH2 0x3F8C JUMPI RETURNDATASIZE PUSH1 0x0 DUP1 RETURNDATACOPY RETURNDATASIZE PUSH1 0x0 REVERT JUMPDEST POP POP POP POP PUSH1 0x40 MLOAD RETURNDATASIZE PUSH1 0x20 DUP2 LT ISZERO PUSH2 0x3FA2 JUMPI PUSH1 0x0 DUP1 REVERT JUMPDEST POP MLOAD LT ISZERO PUSH2 0x3FAF JUMPI PUSH1 0x0 DUP1 REVERT JUMPDEST PUSH2 0x1322 PUSH1 0x12 SLOAD PUSH1 0x13 SLOAD DUP5 PUSH2 0x43ED JUMP JUMPDEST PUSH1 0x0 DUP3 PUSH2 0x3FCD JUMPI POP PUSH1 0x0 PUSH2 0x1322 JUMP JUMPDEST DUP3 DUP3 MUL DUP3 DUP5 DUP3 DUP2 PUSH2 0x3FDA JUMPI INVALID JUMPDEST DIV EQ PUSH2 0x2937 JUMPI PUSH1 0x40 MLOAD PUSH3 0x461BCD PUSH1 0xE5 SHL DUP2 MSTORE PUSH1 0x4 ADD DUP1 DUP1 PUSH1 0x20 ADD DUP3 DUP2 SUB DUP3 MSTORE PUSH1 0x21 DUP2 MSTORE PUSH1 0x20 ADD DUP1 PUSH2 0x4C62 PUSH1 0x21 SWAP2 CODECOPY PUSH1 0x40 ADD SWAP2 POP POP PUSH1 0x40 MLOAD DUP1 SWAP2 SUB SWAP1 REVERT JUMPDEST PUSH1 0x0 DUP1 DUP3 GT PUSH2 0x406D JUMPI PUSH1 0x40 DUP1 MLOAD PUSH3 0x461BCD PUSH1 0xE5 SHL DUP2 MSTORE PUSH1 0x20 PUSH1 0x4 DUP3 ADD MSTORE PUSH1 0x1A PUSH1 0x24 DUP3 ADD MSTORE PUSH32 0x536166654D6174683A206469766973696F6E206279207A65726F000000000000 PUSH1 0x44 DUP3 ADD MSTORE SWAP1 MLOAD SWAP1 DUP2 SWAP1 SUB PUSH1 0x64 ADD SWAP1 REVERT JUMPDEST DUP2 DUP4 DUP2 PUSH2 0x4076 JUMPI INVALID JUMPDEST DIV SWAP4 SWAP3 POP POP POP JUMP JUMPDEST PUSH1 0x0 PUSH2 0x2937 DUP4 DUP4 PUSH2 0x4597 JUMP JUMPDEST PUSH1 0x0 SWAP2 DUP3 MSTORE PUSH1 0x15 PUSH1 0x20 MSTORE PUSH1 0x40 SWAP1 SWAP2 KECCAK256 SSTORE JUMP JUMPDEST DUP1 PUSH1 0x0 DUP2 GT DUP1 ISZERO PUSH2 0x40AE JUMPI POP PUSH1 0x7 DUP2 GT ISZERO JUMPDEST PUSH2 0x40B7 JUMPI PUSH1 0x0 DUP1 REVERT JUMPDEST PUSH1 0x0 DUP3 DUP2 MSTORE PUSH1 0x9 PUSH1 0x20 MSTORE PUSH1 0x40 SWAP1 KECCAK256 SLOAD PUSH1 0xFF AND PUSH2 0x40D2 JUMPI PUSH1 0x0 DUP1 REVERT JUMPDEST PUSH1 0x0 DUP3 DUP2 MSTORE PUSH1 0x8 PUSH1 0x20 MSTORE PUSH1 0x40 SWAP1 KECCAK256 SLOAD PUSH2 0x40F6 SWAP1 PUSH1 0x1 PUSH1 0x1 PUSH1 0xA0 SHL SUB AND DUP4 PUSH1 0x1 PUSH2 0x379D JUMP JUMPDEST PUSH1 0x7 SLOAD PUSH2 0x4104 SWAP1 PUSH1 0x1 PUSH2 0x38D0 JUMP JUMPDEST PUSH1 0x7 SSTORE POP PUSH1 0x0 SWAP1 DUP2 MSTORE PUSH1 0x8 PUSH1 0x20 SWAP1 DUP2 MSTORE PUSH1 0x40 DUP1 DUP4 KECCAK256 DUP1 SLOAD PUSH1 0x1 PUSH1 0x1 PUSH1 0xA0 SHL SUB NOT AND SWAP1 SSTORE PUSH1 0x9 SWAP1 SWAP2 MSTORE SWAP1 KECCAK256 DUP1 SLOAD PUSH1 0xFF NOT AND SWAP1 SSTORE JUMP JUMPDEST PUSH1 0x0 DUP1 PUSH2 0x4145 DUP4 DUP6 PUSH2 0x45FB JUMP JUMPDEST PUSH1 0x1 ADD PUSH2 0x4153 DUP5 PUSH1 0xA PUSH2 0x4017 JUMP JUMPDEST SWAP2 POP SWAP2 POP SWAP3 POP SWAP3 SWAP1 POP JUMP JUMPDEST PUSH1 0x0 PUSH2 0x1322 DUP3 PUSH2 0x4662 JUMP JUMPDEST PUSH1 0x40 DUP1 MLOAD PUSH1 0x1 DUP1 DUP3 MSTORE DUP2 DUP4 ADD SWAP1 SWAP3 MSTORE PUSH1 0x60 SWAP2 DUP3 SWAP2 SWAP1 PUSH1 0x20 DUP1 DUP4 ADD SWAP1 DUP1 CALLDATASIZE DUP4 CALLDATACOPY ADD SWAP1 POP POP SWAP1 POP DUP3 DUP2 PUSH1 0x0 DUP2 MLOAD DUP2 LT PUSH2 0x419C JUMPI INVALID JUMPDEST PUSH1 0x20 SWAP1 DUP2 MUL SWAP2 SWAP1 SWAP2 ADD ADD MSTORE SWAP3 SWAP2 POP POP JUMP JUMPDEST PUSH2 0x41BF DUP5 PUSH1 0x1 PUSH1 0x1 PUSH1 0xA0 SHL SUB AND PUSH2 0x43D2 JUMP JUMPDEST ISZERO PUSH2 0x1C8F JUMPI DUP4 PUSH1 0x1 PUSH1 0x1 PUSH1 0xA0 SHL SUB AND PUSH4 0xF23A6E61 DUP8 DUP8 DUP7 DUP7 DUP7 PUSH1 0x40 MLOAD DUP7 PUSH4 0xFFFFFFFF AND PUSH1 0xE0 SHL DUP2 MSTORE PUSH1 0x4 ADD DUP1 DUP7 PUSH1 0x1 PUSH1 0x1 PUSH1 0xA0 SHL SUB AND DUP2 MSTORE PUSH1 0x20 ADD DUP6 PUSH1 0x1 PUSH1 0x1 PUSH1 0xA0 SHL SUB AND DUP2 MSTORE PUSH1 0x20 ADD DUP5 DUP2 MSTORE PUSH1 0x20 ADD DUP4 DUP2 MSTORE PUSH1 0x20 ADD DUP1 PUSH1 0x20 ADD DUP3 DUP2 SUB DUP3 MSTORE DUP4 DUP2 DUP2 MLOAD DUP2 MSTORE PUSH1 0x20 ADD SWAP2 POP DUP1 MLOAD SWAP1 PUSH1 0x20 ADD SWAP1 DUP1 DUP4 DUP4 PUSH1 0x0 JUMPDEST DUP4 DUP2 LT ISZERO PUSH2 0x424E JUMPI DUP2 DUP2 ADD MLOAD DUP4 DUP3 ADD MSTORE PUSH1 0x20 ADD PUSH2 0x4236 JUMP JUMPDEST POP POP POP POP SWAP1 POP SWAP1 DUP2 ADD SWAP1 PUSH1 0x1F AND DUP1 ISZERO PUSH2 0x427B JUMPI DUP1 DUP3 SUB DUP1 MLOAD PUSH1 0x1 DUP4 PUSH1 0x20 SUB PUSH2 0x100 EXP SUB NOT AND DUP2 MSTORE PUSH1 0x20 ADD SWAP2 POP JUMPDEST POP SWAP7 POP POP POP POP POP POP POP PUSH1 0x20 PUSH1 0x40 MLOAD DUP1 DUP4 SUB DUP2 PUSH1 0x0 DUP8 DUP1 EXTCODESIZE ISZERO DUP1 ISZERO PUSH2 0x429E JUMPI PUSH1 0x0 DUP1 REVERT JUMPDEST POP GAS CALL SWAP3 POP POP POP DUP1 ISZERO PUSH2 0x42C3 JUMPI POP PUSH1 0x40 MLOAD RETURNDATASIZE PUSH1 0x20 DUP2 LT ISZERO PUSH2 0x42BE JUMPI PUSH1 0x0 DUP1 REVERT JUMPDEST POP MLOAD PUSH1 0x1 JUMPDEST PUSH2 0x42CF JUMPI PUSH2 0x3C74 PUSH2 0x49A3 JUMP JUMPDEST PUSH1 0x1 PUSH1 0x1 PUSH1 0xE0 SHL SUB NOT DUP2 AND PUSH4 0xF23A6E61 PUSH1 0xE0 SHL EQ PUSH2 0x3593 JUMPI PUSH1 0x40 MLOAD PUSH3 0x461BCD PUSH1 0xE5 SHL DUP2 MSTORE PUSH1 0x4 ADD DUP1 DUP1 PUSH1 0x20 ADD DUP3 DUP2 SUB DUP3 MSTORE PUSH1 0x28 DUP2 MSTORE PUSH1 0x20 ADD DUP1 PUSH2 0x4A9F PUSH1 0x28 SWAP2 CODECOPY PUSH1 0x40 ADD SWAP2 POP POP PUSH1 0x40 MLOAD DUP1 SWAP2 SUB SWAP1 REVERT JUMPDEST PUSH1 0x0 DUP1 PUSH1 0x1 PUSH2 0x4345 PUSH1 0x64 PUSH2 0x242F PUSH1 0x2 PUSH2 0x433F DUP9 PUSH8 0xDE0B6B3A7640000 PUSH2 0x3FBE JUMP JUMPDEST SWAP1 PUSH2 0x3FBE JUMP JUMPDEST SWAP2 POP PUSH2 0x4368 PUSH2 0x4361 PUSH1 0xA PUSH2 0x242F DUP5 PUSH8 0xDE0B6B3A7640000 PUSH2 0x3FBE JUMP JUMPDEST DUP4 SWAP1 PUSH2 0x35C6 JUMP JUMPDEST SWAP5 SWAP4 POP POP POP POP JUMP JUMPDEST PUSH1 0x0 PUSH2 0x437C DUP4 DUP4 PUSH2 0x43BA JUMP JUMPDEST PUSH2 0x43B2 JUMPI POP DUP2 SLOAD PUSH1 0x1 DUP2 DUP2 ADD DUP5 SSTORE PUSH1 0x0 DUP5 DUP2 MSTORE PUSH1 0x20 DUP1 DUP3 KECCAK256 SWAP1 SWAP4 ADD DUP5 SWAP1 SSTORE DUP5 SLOAD DUP5 DUP3 MSTORE DUP3 DUP7 ADD SWAP1 SWAP4 MSTORE PUSH1 0x40 SWAP1 KECCAK256 SWAP2 SWAP1 SWAP2 SSTORE PUSH2 0x1322 JUMP JUMPDEST POP PUSH1 0x0 PUSH2 0x1322 JUMP JUMPDEST PUSH1 0x0 SWAP1 DUP2 MSTORE PUSH1 0x1 SWAP2 SWAP1 SWAP2 ADD PUSH1 0x20 MSTORE PUSH1 0x40 SWAP1 KECCAK256 SLOAD ISZERO ISZERO SWAP1 JUMP JUMPDEST EXTCODESIZE ISZERO ISZERO SWAP1 JUMP JUMPDEST PUSH1 0x0 PUSH2 0x2937 DUP4 PUSH1 0x1 PUSH1 0x1 PUSH1 0xA0 SHL SUB DUP5 AND PUSH2 0x4666 JUMP JUMPDEST PUSH1 0x0 PUSH32 0x0 PUSH1 0x1 PUSH1 0x1 PUSH1 0xA0 SHL SUB AND PUSH4 0x4000AEA0 PUSH32 0x0 DUP6 DUP8 DUP7 PUSH1 0x40 MLOAD PUSH1 0x20 ADD DUP1 DUP4 DUP2 MSTORE PUSH1 0x20 ADD DUP3 DUP2 MSTORE PUSH1 0x20 ADD SWAP3 POP POP POP PUSH1 0x40 MLOAD PUSH1 0x20 DUP2 DUP4 SUB SUB DUP2 MSTORE SWAP1 PUSH1 0x40 MSTORE PUSH1 0x40 MLOAD DUP5 PUSH4 0xFFFFFFFF AND PUSH1 0xE0 SHL DUP2 MSTORE PUSH1 0x4 ADD DUP1 DUP5 PUSH1 0x1 PUSH1 0x1 PUSH1 0xA0 SHL SUB AND DUP2 MSTORE PUSH1 0x20 ADD DUP4 DUP2 MSTORE PUSH1 0x20 ADD DUP1 PUSH1 0x20 ADD DUP3 DUP2 SUB DUP3 MSTORE DUP4 DUP2 DUP2 MLOAD DUP2 MSTORE PUSH1 0x20 ADD SWAP2 POP DUP1 MLOAD SWAP1 PUSH1 0x20 ADD SWAP1 DUP1 DUP4 DUP4 PUSH1 0x0 JUMPDEST DUP4 DUP2 LT ISZERO PUSH2 0x44C9 JUMPI DUP2 DUP2 ADD MLOAD DUP4 DUP3 ADD MSTORE PUSH1 0x20 ADD PUSH2 0x44B1 JUMP JUMPDEST POP POP POP POP SWAP1 POP SWAP1 DUP2 ADD SWAP1 PUSH1 0x1F AND DUP1 ISZERO PUSH2 0x44F6 JUMPI DUP1 DUP3 SUB DUP1 MLOAD PUSH1 0x1 DUP4 PUSH1 0x20 SUB PUSH2 0x100 EXP SUB NOT AND DUP2 MSTORE PUSH1 0x20 ADD SWAP2 POP JUMPDEST POP SWAP5 POP POP POP POP POP PUSH1 0x20 PUSH1 0x40 MLOAD DUP1 DUP4 SUB DUP2 PUSH1 0x0 DUP8 DUP1 EXTCODESIZE ISZERO DUP1 ISZERO PUSH2 0x4517 JUMPI PUSH1 0x0 DUP1 REVERT JUMPDEST POP GAS CALL ISZERO DUP1 ISZERO PUSH2 0x452B JUMPI RETURNDATASIZE PUSH1 0x0 DUP1 RETURNDATACOPY RETURNDATASIZE PUSH1 0x0 REVERT JUMPDEST POP POP POP POP PUSH1 0x40 MLOAD RETURNDATASIZE PUSH1 0x20 DUP2 LT ISZERO PUSH2 0x4541 JUMPI PUSH1 0x0 DUP1 REVERT JUMPDEST POP POP PUSH1 0x0 DUP5 DUP2 MSTORE PUSH1 0x5 PUSH1 0x20 MSTORE PUSH1 0x40 DUP2 KECCAK256 SLOAD PUSH2 0x4561 SWAP1 DUP7 SWAP1 DUP6 SWAP1 ADDRESS SWAP1 PUSH2 0x472C JUMP JUMPDEST PUSH1 0x0 DUP7 DUP2 MSTORE PUSH1 0x5 PUSH1 0x20 MSTORE PUSH1 0x40 SWAP1 KECCAK256 SLOAD SWAP1 SWAP2 POP PUSH2 0x457E SWAP1 PUSH1 0x1 PUSH2 0x35C6 JUMP JUMPDEST PUSH1 0x0 DUP7 DUP2 MSTORE PUSH1 0x5 PUSH1 0x20 MSTORE PUSH1 0x40 SWAP1 KECCAK256 SSTORE PUSH2 0x3386 DUP6 DUP3 PUSH2 0x4773 JUMP JUMPDEST DUP2 SLOAD PUSH1 0x0 SWAP1 DUP3 LT PUSH2 0x45D9 JUMPI PUSH1 0x40 MLOAD PUSH3 0x461BCD PUSH1 0xE5 SHL DUP2 MSTORE PUSH1 0x4 ADD DUP1 DUP1 PUSH1 0x20 ADD DUP3 DUP2 SUB DUP3 MSTORE PUSH1 0x22 DUP2 MSTORE PUSH1 0x20 ADD DUP1 PUSH2 0x4A7D PUSH1 0x22 SWAP2 CODECOPY PUSH1 0x40 ADD SWAP2 POP POP PUSH1 0x40 MLOAD DUP1 SWAP2 SUB SWAP1 REVERT JUMPDEST DUP3 PUSH1 0x0 ADD DUP3 DUP2 SLOAD DUP2 LT PUSH2 0x45E8 JUMPI INVALID JUMPDEST SWAP1 PUSH1 0x0 MSTORE PUSH1 0x20 PUSH1 0x0 KECCAK256 ADD SLOAD SWAP1 POP SWAP3 SWAP2 POP POP JUMP JUMPDEST PUSH1 0x0 DUP1 DUP3 GT PUSH2 0x4651 JUMPI PUSH1 0x40 DUP1 MLOAD PUSH3 0x461BCD PUSH1 0xE5 SHL DUP2 MSTORE PUSH1 0x20 PUSH1 0x4 DUP3 ADD MSTORE PUSH1 0x18 PUSH1 0x24 DUP3 ADD MSTORE PUSH32 0x536166654D6174683A206D6F64756C6F206279207A65726F0000000000000000 PUSH1 0x44 DUP3 ADD MSTORE SWAP1 MLOAD SWAP1 DUP2 SWAP1 SUB PUSH1 0x64 ADD SWAP1 REVERT JUMPDEST DUP2 DUP4 DUP2 PUSH2 0x465A JUMPI INVALID JUMPDEST MOD SWAP4 SWAP3 POP POP POP JUMP JUMPDEST SLOAD SWAP1 JUMP JUMPDEST PUSH1 0x0 DUP2 DUP2 MSTORE PUSH1 0x1 DUP4 ADD PUSH1 0x20 MSTORE PUSH1 0x40 DUP2 KECCAK256 SLOAD DUP1 ISZERO PUSH2 0x4722 JUMPI DUP4 SLOAD PUSH1 0x0 NOT DUP1 DUP4 ADD SWAP2 SWAP1 DUP2 ADD SWAP1 PUSH1 0x0 SWAP1 DUP8 SWAP1 DUP4 SWAP1 DUP2 LT PUSH2 0x4699 JUMPI INVALID JUMPDEST SWAP1 PUSH1 0x0 MSTORE PUSH1 0x20 PUSH1 0x0 KECCAK256 ADD SLOAD SWAP1 POP DUP1 DUP8 PUSH1 0x0 ADD DUP5 DUP2 SLOAD DUP2 LT PUSH2 0x46B6 JUMPI INVALID JUMPDEST PUSH1 0x0 SWAP2 DUP3 MSTORE PUSH1 0x20 DUP1 DUP4 KECCAK256 SWAP1 SWAP2 ADD SWAP3 SWAP1 SWAP3 SSTORE DUP3 DUP2 MSTORE PUSH1 0x1 DUP10 DUP2 ADD SWAP1 SWAP3 MSTORE PUSH1 0x40 SWAP1 KECCAK256 SWAP1 DUP5 ADD SWAP1 SSTORE DUP7 SLOAD DUP8 SWAP1 DUP1 PUSH2 0x46E6 JUMPI INVALID JUMPDEST PUSH1 0x1 SWAP1 SUB DUP2 DUP2 SWAP1 PUSH1 0x0 MSTORE PUSH1 0x20 PUSH1 0x0 KECCAK256 ADD PUSH1 0x0 SWAP1 SSTORE SWAP1 SSTORE DUP7 PUSH1 0x1 ADD PUSH1 0x0 DUP8 DUP2 MSTORE PUSH1 0x20 ADD SWAP1 DUP2 MSTORE PUSH1 0x20 ADD PUSH1 0x0 KECCAK256 PUSH1 0x0 SWAP1 SSTORE PUSH1 0x1 SWAP5 POP POP POP POP POP PUSH2 0x1322 JUMP JUMPDEST PUSH1 0x0 SWAP2 POP POP PUSH2 0x1322 JUMP JUMPDEST PUSH1 0x40 DUP1 MLOAD PUSH1 0x20 DUP1 DUP3 ADD SWAP7 SWAP1 SWAP7 MSTORE DUP1 DUP3 ADD SWAP5 SWAP1 SWAP5 MSTORE PUSH1 0x1 PUSH1 0x1 PUSH1 0xA0 SHL SUB SWAP3 SWAP1 SWAP3 AND PUSH1 0x60 DUP5 ADD MSTORE PUSH1 0x80 DUP1 DUP5 ADD SWAP2 SWAP1 SWAP2 MSTORE DUP2 MLOAD DUP1 DUP5 SUB SWAP1 SWAP2 ADD DUP2 MSTORE PUSH1 0xA0 SWAP1 SWAP3 ADD SWAP1 MSTORE DUP1 MLOAD SWAP2 ADD KECCAK256 SWAP1 JUMP JUMPDEST PUSH1 0x40 DUP1 MLOAD PUSH1 0x20 DUP1 DUP3 ADD SWAP5 SWAP1 SWAP5 MSTORE DUP1 DUP3 ADD SWAP3 SWAP1 SWAP3 MSTORE DUP1 MLOAD DUP1 DUP4 SUB DUP3 ADD DUP2 MSTORE PUSH1 0x60 SWAP1 SWAP3 ADD SWAP1 MSTORE DUP1 MLOAD SWAP2 ADD KECCAK256 SWAP1 JUMP JUMPDEST PUSH1 0x40 MLOAD DUP1 PUSH1 0xA0 ADD PUSH1 0x40 MSTORE DUP1 PUSH1 0x0 ISZERO ISZERO DUP2 MSTORE PUSH1 0x20 ADD PUSH1 0x0 DUP2 MSTORE PUSH1 0x20 ADD PUSH1 0x0 DUP2 MSTORE PUSH1 0x20 ADD PUSH1 0x60 DUP2 MSTORE PUSH1 0x20 ADD PUSH1 0x0 DUP2 MSTORE POP SWAP1 JUMP JUMPDEST DUP3 DUP1 SLOAD PUSH1 0x1 DUP2 PUSH1 0x1 AND ISZERO PUSH2 0x100 MUL SUB AND PUSH1 0x2 SWAP1 DIV SWAP1 PUSH1 0x0 MSTORE PUSH1 0x20 PUSH1 0x0 KECCAK256 SWAP1 PUSH1 0x1F ADD PUSH1 0x20 SWAP1 DIV DUP2 ADD SWAP3 DUP3 PUSH1 0x1F LT PUSH2 0x4811 JUMPI DUP1 MLOAD PUSH1 0xFF NOT AND DUP4 DUP1 ADD OR DUP6 SSTORE PUSH2 0x483E JUMP JUMPDEST DUP3 DUP1 ADD PUSH1 0x1 ADD DUP6 SSTORE DUP3 ISZERO PUSH2 0x483E JUMPI SWAP2 DUP3 ADD JUMPDEST DUP3 DUP2 GT ISZERO PUSH2 0x483E JUMPI DUP3 MLOAD DUP3 SSTORE SWAP2 PUSH1 0x20 ADD SWAP2 SWAP1 PUSH1 0x1 ADD SWAP1 PUSH2 0x4823 JUMP JUMPDEST POP PUSH2 0x484A SWAP3 SWAP2 POP PUSH2 0x4988 JUMP JUMPDEST POP SWAP1 JUMP JUMPDEST PUSH1 0x40 MLOAD DUP1 PUSH2 0x360 ADD PUSH1 0x40 MSTORE DUP1 PUSH1 0x0 ISZERO ISZERO DUP2 MSTORE PUSH1 0x20 ADD PUSH1 0x60 DUP2 MSTORE PUSH1 0x20 ADD PUSH1 0x60 DUP2 MSTORE PUSH1 0x20 ADD PUSH1 0x0 DUP2 MSTORE PUSH1 0x20 ADD PUSH1 0x0 DUP2 MSTORE PUSH1 0x20 ADD PUSH1 0x0 DUP2 MSTORE PUSH1 0x20 ADD PUSH1 0x0 DUP2 MSTORE PUSH1 0x20 ADD PUSH1 0x0 DUP2 MSTORE PUSH1 0x20 ADD PUSH1 0x0 DUP2 MSTORE PUSH1 0x20 ADD PUSH1 0x0 DUP2 MSTORE PUSH1 0x20 ADD PUSH1 0x0 DUP2 MSTORE PUSH1 0x20 ADD PUSH1 0x0 DUP2 MSTORE PUSH1 0x20 ADD PUSH1 0x0 DUP2 MSTORE PUSH1 0x20 ADD PUSH1 0x0 DUP2 MSTORE PUSH1 0x20 ADD PUSH1 0x0 DUP2 MSTORE PUSH1 0x20 ADD PUSH1 0x0 DUP2 MSTORE PUSH1 0x20 ADD PUSH1 0x0 DUP2 MSTORE PUSH1 0x20 ADD PUSH1 0x0 DUP2 MSTORE PUSH1 0x20 ADD PUSH1 0x0 DUP2 MSTORE PUSH1 0x20 ADD PUSH1 0x0 DUP2 MSTORE PUSH1 0x20 ADD PUSH1 0x0 DUP2 MSTORE PUSH1 0x20 ADD PUSH1 0x0 DUP2 MSTORE PUSH1 0x20 ADD PUSH1 0x0 DUP2 MSTORE PUSH1 0x20 ADD PUSH1 0x0 DUP2 MSTORE PUSH1 0x20 ADD PUSH1 0x0 DUP2 MSTORE PUSH1 0x20 ADD PUSH1 0x0 DUP2 MSTORE PUSH1 0x20 ADD PUSH1 0x0 DUP2 MSTORE POP SWAP1 JUMP JUMPDEST DUP3 DUP1 SLOAD PUSH1 0x1 DUP2 PUSH1 0x1 AND ISZERO PUSH2 0x100 MUL SUB AND PUSH1 0x2 SWAP1 DIV SWAP1 PUSH1 0x0 MSTORE PUSH1 0x20 PUSH1 0x0 KECCAK256 SWAP1 PUSH1 0x1F ADD PUSH1 0x20 SWAP1 DIV DUP2 ADD SWAP3 DUP3 PUSH1 0x1F LT PUSH2 0x495B JUMPI DUP3 DUP1 ADD PUSH1 0xFF NOT DUP3 CALLDATALOAD AND OR DUP6 SSTORE PUSH2 0x483E JUMP JUMPDEST DUP3 DUP1 ADD PUSH1 0x1 ADD DUP6 SSTORE DUP3 ISZERO PUSH2 0x483E JUMPI SWAP2 DUP3 ADD JUMPDEST DUP3 DUP2 GT ISZERO PUSH2 0x483E JUMPI DUP3 CALLDATALOAD DUP3 SSTORE SWAP2 PUSH1 0x20 ADD SWAP2 SWAP1 PUSH1 0x1 ADD SWAP1 PUSH2 0x496D JUMP JUMPDEST JUMPDEST DUP1 DUP3 GT ISZERO PUSH2 0x484A JUMPI PUSH1 0x0 DUP2 SSTORE PUSH1 0x1 ADD PUSH2 0x4989 JUMP JUMPDEST PUSH1 0xE0 SHR SWAP1 JUMP JUMPDEST PUSH1 0x0 PUSH1 0x44 RETURNDATASIZE LT ISZERO PUSH2 0x49B3 JUMPI PUSH2 0x25A2 JUMP JUMPDEST PUSH1 0x4 DUP2 DUP3 RETURNDATACOPY PUSH4 0x8C379A0 PUSH2 0x49C7 DUP3 MLOAD PUSH2 0x499D JUMP JUMPDEST EQ PUSH2 0x49D1 JUMPI PUSH2 0x25A2 JUMP JUMPDEST PUSH1 0x40 MLOAD RETURNDATASIZE PUSH1 0x3 NOT ADD PUSH1 0x4 DUP3 RETURNDATACOPY DUP1 MLOAD RETURNDATASIZE PUSH8 0xFFFFFFFFFFFFFFFF DUP2 PUSH1 0x24 DUP5 ADD GT DUP2 DUP5 GT OR ISZERO PUSH2 0x4A01 JUMPI POP POP POP POP PUSH2 0x25A2 JUMP JUMPDEST DUP3 DUP5 ADD SWAP3 POP DUP3 MLOAD SWAP2 POP DUP1 DUP3 GT ISZERO PUSH2 0x4A1B JUMPI POP POP POP POP PUSH2 0x25A2 JUMP JUMPDEST POP RETURNDATASIZE DUP4 ADD PUSH1 0x20 DUP3 DUP5 ADD ADD GT ISZERO PUSH2 0x4A33 JUMPI POP POP POP PUSH2 0x25A2 JUMP JUMPDEST PUSH1 0x1F ADD PUSH1 0x1F NOT AND DUP2 ADD PUSH1 0x20 ADD PUSH1 0x40 MSTORE SWAP2 POP POP SWAP1 JUMP INVALID GASLIMIT MSTORE NUMBER BALANCE BALANCE CALLDATALOAD CALLDATALOAD GASPRICE KECCAK256 PUSH21 0x72616E7366657220746F206E6F6E20455243313135 CALLDATALOAD MSTORE PUSH6 0x636569766572 KECCAK256 PUSH10 0x6D706C656D656E746572 GASLIMIT PUSH15 0x756D657261626C655365743A20696E PUSH5 0x6578206F75 PUSH21 0x206F6620626F756E6473455243313135353A204552 NUMBER BALANCE BALANCE CALLDATALOAD CALLDATALOAD MSTORE PUSH6 0x636569766572 KECCAK256 PUSH19 0x656A656374656420746F6B656E734163636573 PUSH20 0x436F6E74726F6C3A2073656E646572206D757374 KECCAK256 PUSH3 0x652061 PUSH15 0x2061646D696E20746F206772616E74 GASLIMIT MSTORE NUMBER BALANCE BALANCE CALLDATALOAD CALLDATALOAD GASPRICE KECCAK256 PUSH3 0x616C61 PUSH15 0x636520717565727920666F72207468 PUSH6 0x207A65726F20 PUSH2 0x6464 PUSH19 0x657373455243313135353A206275726E20616D PUSH16 0x756E7420657863656564732062616C61 PUSH15 0x6365455243313135353A2063616C6C PUSH6 0x72206973206E PUSH16 0x74206F776E6572206E6F722061707072 PUSH16 0x766564416363657373436F6E74726F6C GASPRICE KECCAK256 PUSH20 0x656E646572206D75737420626520616E2061646D PUSH10 0x6E20746F207265766F6B PUSH6 0x455243313135 CALLDATALOAD GASPRICE KECCAK256 PUSH21 0x72616E7366657220746F20746865207A65726F2061 PUSH5 0x6472657373 GASLIMIT MSTORE NUMBER BALANCE BALANCE CALLDATALOAD CALLDATALOAD GASPRICE KECCAK256 PUSH21 0x72616E736665722063616C6C6572206973206E6F74 KECCAK256 PUSH16 0x776E6572206E6F7220617070726F7665 PUSH5 0x2172861495 0xE7 0xB8 0x5E 0xDA 0xC7 RETURNDATACOPY EXTCODECOPY 0xD5 0xFB 0xB4 0x2D 0xD6 PUSH22 0xBAADF627720E687BCFDACA025096455243313135353A KECCAK256 PUSH3 0x75726E KECCAK256 PUSH7 0x726F6D20746865 KECCAK256 PUSH27 0x65726F2061646472657373455243313135353A20696E7375666669 PUSH4 0x69656E74 KECCAK256 PUSH3 0x616C61 PUSH15 0x636520666F72207472616E73666572 MSTORE8 PUSH2 0x6665 0x4D PUSH2 0x7468 GASPRICE KECCAK256 PUSH14 0x756C7469706C69636174696F6E20 PUSH16 0x766572666C6F77455243313135353A20 PUSH20 0x657474696E6720617070726F76616C2073746174 PUSH22 0x7320666F722073656C66455243313135353A20616363 PUSH16 0x756E747320616E6420696473206C656E PUSH8 0x7468206D69736D61 PUSH21 0x6368455243313135353A2069647320616E6420616D PUSH16 0x756E7473206C656E677468206D69736D PUSH2 0x7463 PUSH9 0x455243313135353A20 PUSH14 0x696E7420746F20746865207A6572 PUSH16 0x2061646472657373416363657373436F PUSH15 0x74726F6C3A2063616E206F6E6C7920 PUSH19 0x656E6F756E636520726F6C657320666F722073 PUSH6 0x6C66A2646970 PUSH7 0x7358221220BE2C 0xD4 DUP16 0x27 0xD0 0xB7 PUSH18 0xECC739DE1B1A4B10494D7B7E17C29D019373 SWAP12 0x4B ORIGIN DUP13 DUP15 DUP1 PUSH5 0x736F6C6343 STOP MOD 0xC STOP CALLER ",
  "sha1": "e509e6d7320af9a55e244b559a6d49ad1e0fbd9e",
  "source": "// SPDX-License-Identifier: UNLICENSED\npragma solidity ^0.6.0;\n\nimport \"../interfaces/ICryptoChampions.sol\";\nimport \"../interfaces/IMinigameFactoryRegistry.sol\";\nimport \"./chainlink_contracts/AggregatorV3Interface.sol\";\nimport \"./chainlink_contracts/VRFConsumerBase.sol\";\nimport \"./minigames/games/priceWars/PriceWarsFactory.sol\";\nimport \"./minigames/games/priceWars/PriceWars.sol\";\n\nimport \"OpenZeppelin/openzeppelin-contracts@3.4.0/contracts/access/AccessControl.sol\";\nimport \"OpenZeppelin/openzeppelin-contracts@3.4.0/contracts/math/SafeMath.sol\";\nimport \"OpenZeppelin/openzeppelin-contracts@3.4.0/contracts/token/ERC1155/ERC1155.sol\";\n\n/// @title Crypto Champions Interface\n/// @author Oozyx\n/// @notice This is the crypto champions class\ncontract CryptoChampions is ICryptoChampions, AccessControl, ERC1155, VRFConsumerBase {\n    using SafeMath for uint256;\n\n    // Possible phases the contract can be in.  Phase one is when users can mint elder spirits and two is when they can mint heros.\n    enum Phase { MINT_ELDER, MINT_HERO }\n\n    // The current phase the contract is in.\n    Phase public currentPhase;\n\n    // The owner role is used to globally govern the contract\n    bytes32 internal constant ROLE_OWNER = keccak256(\"ROLE_OWNER\");\n\n    // The admin role is used for administrator duties and reports to the owner\n    bytes32 internal constant ROLE_ADMIN = keccak256(\"ROLE_ADMIN\");\n\n    // The role to declare round winners\n    bytes32 internal constant ROLE_GAME_ADMIN = keccak256(\"ROLE_GAME_ADMIN\");\n\n    // Reserved id for the in game currency\n    uint256 internal constant IN_GAME_CURRENCY_ID = 0;\n\n    // Constants used to determine fee proportions.\n    // Usage: fee.mul(proportion).div(10)\n    uint8 internal constant HERO_MINT_ROYALTY_PROPORTION = 8;\n\n    // The identifier for the price wars game\n    string internal constant PRICE_WARS_ID = \"PRICE_WARS\";\n\n    // The max amount of elders that can be minted\n    uint256 public constant MAX_NUMBER_OF_ELDERS = 7;\n\n    // The amount of elders minted\n    // This amount cannot be greater than MAX_NUMBER_OF_ELDERS\n    uint256 public eldersInGame = 0;\n\n    // The mapping of elder id to elder owner, ids can only be in the range of [1, MAX_NUMBER OF ELDERS]\n    mapping(uint256 => address) internal _elderOwners;\n\n    // The mapping of elder id to the elder spirit\n    mapping(uint256 => ElderSpirit) internal _elderSpirits;\n\n    // The amount of heros minted\n    uint256 public heroesMinted = 0;\n\n    // The mapping of hero id to owner, ids can only be in the range of\n    // [1 + MAX_NUMBER_OF_ELDERS, ]\n    mapping(uint256 => address) internal _heroOwners;\n\n    // The mapping of hero id to the hero\n    mapping(uint256 => Hero) internal _heroes;\n\n    // The mapping of the round played to the elder spawns mapping\n    mapping(uint256 => mapping(uint256 => uint256)) internal _roundElderSpawns;\n\n    // The mint price for elders and heroes\n    uint256 public elderMintPrice;\n\n    // The current round index\n    uint256 public currentRound;\n\n    // The mapping of affinities (token ticker) to price feed address\n    mapping(string => address) internal _affinities;\n\n    // List of available affinities\n    string[] public affinities;\n\n    // The key hash used for VRF\n    bytes32 internal _keyHash;\n\n    // The fee in LINK for VRF\n    uint256 internal _fee;\n\n    // Mapping of request id to hero id\n    mapping(uint256 => bytes32) internal _heroRandomRequest;\n\n    // Mapping of request id to random result\n    mapping(bytes32 => uint256) internal _randomResultsVRF;\n\n    // The list of affinities that won in a round\n    string[] public winningAffinitiesByRound;\n\n    // The registry of minigame factories\n    IMinigameFactoryRegistry internal _minigameFactoryRegistry;\n\n    /// @notice Triggered when an elder spirit gets minted\n    /// @param elderId The elder id belonging to the minted elder\n    /// @param owner The address of the owner\n    event ElderSpiritMinted(uint256 elderId, address owner);\n\n    /// @notice Triggered when a hero gets minted\n    /// @param heroId The hero id belonging to the hero that was minted\n    /// @param owner The address of the owner\n    event HeroMinted(uint256 heroId, address owner);\n\n    /// @notice Triggered when the elder spirits have been burned\n    event ElderSpiritsBurned();\n\n    /// @notice Triggered when a hero has been burned\n    /// @param heroId The hero id of the hero that was burned\n    event HeroBurned(uint256 heroId);\n\n    // Initializes a new CryptoChampions contract\n    // TODO: need to provide the proper uri\n    constructor(\n        bytes32 keyhash,\n        address vrfCoordinator,\n        address linkToken,\n        address minigameFactoryRegistry\n    ) public ERC1155(\"uri\") VRFConsumerBase(vrfCoordinator, linkToken) {\n        // Set up administrative roles\n        _setRoleAdmin(ROLE_OWNER, ROLE_OWNER);\n        _setRoleAdmin(ROLE_ADMIN, ROLE_OWNER);\n        _setRoleAdmin(ROLE_GAME_ADMIN, ROLE_OWNER);\n\n        // Set up the deployer as the owner and give admin rights\n        _setupRole(ROLE_OWNER, msg.sender);\n        grantRole(ROLE_ADMIN, msg.sender);\n\n        // Set initial elder mint price\n        elderMintPrice = 0.271 ether;\n\n        // Set the initial round to 0\n        currentRound = 0;\n\n        // Set initial phase to phase one\n        currentPhase = Phase.MINT_ELDER;\n\n        // Set VRF fields\n        _keyHash = keyhash;\n        _fee = 0.1 * 10**18; // 0.1 LINK\n\n        _minigameFactoryRegistry = IMinigameFactoryRegistry(minigameFactoryRegistry);\n    }\n\n    modifier isValidElderSpiritId(uint256 elderId) {\n        require(elderId > IN_GAME_CURRENCY_ID && elderId <= MAX_NUMBER_OF_ELDERS); // dev: Given id is not valid.\n        _;\n    }\n\n    modifier isValidHero(uint256 heroId) {\n        require(heroId > MAX_NUMBER_OF_ELDERS); // dev: Given id is not valid.\n        require(_heroes[heroId].valid); // dev: Hero is not valid.\n        _;\n    }\n\n    // Restrict to only price war addresses\n    modifier onlyGameAdmin {\n        _hasRole(ROLE_GAME_ADMIN);\n        _;\n    }\n\n    // Restrict to only admins\n    modifier onlyAdmin {\n        _hasRole(ROLE_ADMIN);\n        _;\n    }\n\n    /// @notice Makes a request for a random number\n    /// @param userProvidedSeed The seed for the random request\n    /// @return requestId The request id\n    function _getRandomNumber(uint256 userProvidedSeed) internal returns (bytes32 requestId) {\n        require(LINK.balanceOf(address(this)) >= _fee); // dev: Not enough LINK - fill contract with faucet\n        return requestRandomness(_keyHash, _fee, userProvidedSeed);\n    }\n\n    /// @notice Callback function used by the VRF coordinator\n    /// @param requestId The request id\n    /// @param randomness The randomness\n    function fulfillRandomness(bytes32 requestId, uint256 randomness) internal override {\n        _randomResultsVRF[requestId] = randomness;\n    }\n\n    /// @notice Sets the contract's phase\n    /// @param phase The phase the contract should be set to\n    function setPhase(Phase phase) external onlyAdmin {\n        currentPhase = phase;\n    }\n\n    /// @notice Check if msg.sender has the role\n    /// @param role The role to verify\n    function _hasRole(bytes32 role) internal view {\n        require(hasRole(role, msg.sender)); // dev: Access denied.\n    }\n\n    /// @notice Creates a new token affinity\n    /// @dev This will be called by a priviledged address. It will allow to create new affinities. May need to add a\n    /// remove affinity function as well.\n    /// @param tokenTicker The token ticker of the affinity\n    /// @param feedAddress The price feed address\n    function createAffinity(string calldata tokenTicker, address feedAddress) external override onlyAdmin {\n        _affinities[tokenTicker] = feedAddress;\n        affinities.push(tokenTicker);\n    }\n\n    /// @notice Sets the elder mint price\n    /// @dev Can only be called by an admin address\n    /// @param price The new elder mint price\n    function setElderMintPrice(uint256 price) external override onlyAdmin {\n        elderMintPrice = price;\n    }\n\n    /// @notice Mints an elder spirit\n    /// @dev For now only race, class, and token (affinity) are needed. This will change. The race and class ids will\n    /// probably be public constants defined in the crypto champions contract, this is subject to change.\n    /// @param raceId The race id\n    /// @param classId The class id\n    /// @param affinity The affinity of the minted hero\n    /// @return The elder spirit id\n    function mintElderSpirit(\n        uint256 raceId,\n        uint256 classId,\n        string calldata affinity\n    ) external payable override returns (uint256) {\n        require(currentPhase == Phase.MINT_ELDER); // dev: Can only mint elders in phase one\n        require(eldersInGame < MAX_NUMBER_OF_ELDERS); // dev: Max number of elders already minted.\n        require(msg.value >= elderMintPrice); // dev: Insufficient payment.\n        require(_affinities[affinity] != address(0)); // dev: Affinity does not exist.\n\n        // Generate the elderId and make sure it doesn't already exists\n        uint256 elderId = eldersInGame.add(1);\n        assert(_elderOwners[elderId] == address(0)); // dev: Elder with id already has owner.\n        assert(_elderSpirits[elderId].valid == false); // dev: Elder spirit with id has already been generated.\n\n        // Get the price data of affinity\n        int256 affinityPrice;\n        (, affinityPrice, , , ) = AggregatorV3Interface(_affinities[affinity]).latestRoundData();\n\n        // Create the elder spirit\n        ElderSpirit memory elder;\n        elder.valid = true;\n        elder.raceId = raceId;\n        elder.classId = classId;\n        elder.affinity = affinity;\n        elder.affinityPrice = affinityPrice;\n\n        // Mint the NFT\n        _mint(_msgSender(), elderId, 1, \"\"); // TODO: give the URI\n\n        // Assign the elder id with the owner and its spirit\n        _elderOwners[elderId] = _msgSender();\n        _elderSpirits[elderId] = elder;\n\n        // Increment elders minted\n        eldersInGame = eldersInGame.add(1);\n\n        // Refund if user sent too much\n        _refundSender(elderMintPrice);\n\n        emit ElderSpiritMinted(elderId, _msgSender());\n\n        return elderId;\n    }\n\n    /// @notice Gets the elder owner for the given elder id\n    /// @param elderId The elder id\n    /// @return The owner of the elder\n    function getElderOwner(uint256 elderId) public view override isValidElderSpiritId(elderId) returns (address) {\n        require(_elderOwners[elderId] != address(0)); // dev: Given elder id has not been minted.\n\n        return _elderOwners[elderId];\n    }\n\n    /// @notice Mints a hero based on an elder spirit\n    /// @param elderId The id of the elder spirit this hero is based on\n    /// @return The hero id\n    function mintHero(uint256 elderId, string calldata heroName)\n        external\n        payable\n        override\n        isValidElderSpiritId(elderId)\n        returns (uint256)\n    {\n        require(currentPhase == Phase.MINT_HERO); //dev: Can only mint hero in phase 2.\n        require(_elderSpirits[elderId].valid); // dev: Elder with id doesn't exists or not valid.\n\n        require(_canMintHero(elderId)); // dev: Can't mint hero. Too mnay heroes minted for elder.\n\n        uint256 mintPrice = getHeroMintPrice(currentRound, elderId);\n        require(msg.value >= mintPrice); // dev: Insufficient payment.\n\n        // Generate the hero id\n        uint256 heroId = heroesMinted.add(1) + MAX_NUMBER_OF_ELDERS;\n        assert(_heroOwners[heroId] == address(0)); // dev: Hero with id already has an owner.\n        assert(_heroes[heroId].valid == false); // dev: Hero with id has already been generated.\n\n        // Create the hero\n        Hero memory hero;\n        hero.valid = true;\n        hero.name = heroName;\n        hero.roundMinted = currentRound;\n        hero.elderId = elderId;\n        hero.raceId = _elderSpirits[elderId].raceId;\n        hero.classId = _elderSpirits[elderId].classId;\n        hero.affinity = _elderSpirits[elderId].affinity;\n        _heroes[heroId] = hero;\n\n        // Request the random number and set hero attributes\n        bytes32 requestId = _getRandomNumber(heroId);\n        _heroRandomRequest[heroId] = requestId;\n\n        // Mint the NFT\n        _mint(_msgSender(), heroId, 1, \"\"); // TODO: give the URI\n\n        // Assign the hero id with the owner and with the hero\n        _heroOwners[heroId] = _msgSender();\n\n        // Increment the heroes minted and the elder spawns\n        heroesMinted = heroesMinted.add(1);\n        _roundElderSpawns[currentRound][elderId] = _roundElderSpawns[currentRound][elderId].add(1);\n\n        // Disburse royalties\n        uint256 royaltyFee = mintPrice.mul(HERO_MINT_ROYALTY_PROPORTION).div(10);\n        address seedOwner = _elderOwners[elderId];\n        (bool success, ) = seedOwner.call{ value: royaltyFee }(\"\");\n        require(success, \"Payment failed\");\n        // Remaining 20% kept for contract/Treum\n\n        // Refund if user sent too much\n        _refundSender(mintPrice);\n\n        emit HeroMinted(heroId, _msgSender());\n\n        return heroId;\n    }\n\n    /// @notice Checks to see if a hero can be minted for a given elder\n    /// @dev (n < 4) || (n <= 2 * m)\n    ///     n is number of champions already minted for elder\n    ///     m is number of champions already minted for elder with least amount of champions\n    /// @param elderId The elder id\n    /// @return True if hero can be minted, false otherwise\n    function _canMintHero(uint256 elderId) internal view returns (bool) {\n        // Verify first condition\n        if (_roundElderSpawns[currentRound][elderId] < 4) {\n            return true;\n        }\n\n        // Find the elder with the least amount of heroes minted\n        uint256 smallestElderAmount = _roundElderSpawns[currentRound][elderId];\n        for (uint256 i = 1; i <= eldersInGame; ++i) {\n            if (_roundElderSpawns[currentRound][i] < smallestElderAmount) {\n                smallestElderAmount = _roundElderSpawns[currentRound][i];\n            }\n        }\n\n        return _roundElderSpawns[currentRound][elderId] <= smallestElderAmount.mul(2);\n    }\n\n    /// @notice Sets the hero attributes\n    /// @param heroId The hero id\n    function trainHero(uint256 heroId) external override isValidHero(heroId) {\n        bytes32 heroRequestId = _heroRandomRequest[heroId];\n        require(heroRequestId != 0); // dev: Random number was never requested for this hero.\n\n        uint256 randomNumber = _randomResultsVRF[heroRequestId];\n        require(randomNumber != 0); // dev: Random number has not arrived yet.\n\n        uint256 newRandomNumber;\n\n        _heroes[heroId].level = 1; // 1 by default\n        (_heroes[heroId].appearance, newRandomNumber) = _rollDice(2, randomNumber); // 1 out of 2\n\n        (_heroes[heroId].trait1, newRandomNumber) = _rollDice(4, newRandomNumber); // 1 out of 4\n        (_heroes[heroId].trait2, newRandomNumber) = _rollDice(4, newRandomNumber); // 1 out of 4\n        (_heroes[heroId].skill1, newRandomNumber) = _rollDice(4, newRandomNumber); // 1 out of 4\n        (_heroes[heroId].skill2, newRandomNumber) = _rollDice(4, newRandomNumber); // 1 out of 4\n\n        (_heroes[heroId].alignment, newRandomNumber) = _rollDice(9, newRandomNumber); // 1 out of 9\n        (_heroes[heroId].background, newRandomNumber) = _rollDice(30, newRandomNumber); // 1 out of 30\n        (_heroes[heroId].hometown, newRandomNumber) = _rollDice(24, newRandomNumber); // 1 out of 24\n        (_heroes[heroId].weather, newRandomNumber) = _rollDice(5, newRandomNumber); // 1 ouf of 5\n\n        (_heroes[heroId].hp, newRandomNumber) = _rollDice(21, newRandomNumber); // Roll 10-30\n        _heroes[heroId].hp = _heroes[heroId].hp.add(9);\n        (_heroes[heroId].mana, newRandomNumber) = _rollDice(21, newRandomNumber); // Roll 10-30\n        _heroes[heroId].mana = _heroes[heroId].mana.add(9);\n        (_heroes[heroId].stamina, newRandomNumber) = _rollDice(31, newRandomNumber); // Roll 10-40\n        _heroes[heroId].stamina = _heroes[heroId].stamina.add(9);\n\n        (_heroes[heroId].strength, newRandomNumber) = _rollDice(16, newRandomNumber); // Roll 3-18\n        _heroes[heroId].strength = _heroes[heroId].strength.add(2);\n        (_heroes[heroId].dexterity, newRandomNumber) = _rollDice(16, newRandomNumber); // Roll 3-18\n        _heroes[heroId].dexterity = _heroes[heroId].dexterity.add(2);\n        (_heroes[heroId].constitution, newRandomNumber) = _rollDice(16, newRandomNumber); // Roll 3-18\n        _heroes[heroId].constitution = _heroes[heroId].constitution.add(2);\n        (_heroes[heroId].intelligence, newRandomNumber) = _rollDice(16, newRandomNumber); // Roll 3-18\n        _heroes[heroId].intelligence = _heroes[heroId].intelligence.add(2);\n        (_heroes[heroId].wisdom, newRandomNumber) = _rollDice(16, newRandomNumber); // Roll 3-18\n        _heroes[heroId].wisdom = _heroes[heroId].wisdom.add(2);\n        (_heroes[heroId].charisma, newRandomNumber) = _rollDice(16, newRandomNumber); // Roll 3-18\n        _heroes[heroId].charisma = _heroes[heroId].charisma.add(2);\n    }\n\n    /// @notice Simulates rolling dice\n    /// @param maxNumber The max number of the dice (e.g. regular die is 6)\n    /// @param randomNumber The random number\n    /// @return The result of the dice roll and a new random number to use for another dice roll\n    function _rollDice(uint256 maxNumber, uint256 randomNumber) internal pure returns (uint256, uint256) {\n        return (randomNumber.mod(maxNumber) + 1, randomNumber.div(10));\n    }\n\n    /// @notice Get the hero owner for the given hero id\n    /// @param heroId The hero id\n    /// @return The owner address\n    function getHeroOwner(uint256 heroId) public view override isValidHero(heroId) returns (address) {\n        require(_heroOwners[heroId] != address(0)); // dev: Given hero id has not been minted.\n\n        return _heroOwners[heroId];\n    }\n\n    /// @notice Disburses the rewards evenly among the heroes of the winning affinity\n    /// @dev This will be called from a priviledged address\n    /// @param winningAffinity The winning affinity token ticker\n    function disburseRewards(string calldata winningAffinity) external override onlyAdmin {}\n\n    /// @notice Burns all the elder spirits in game\n    function burnElders() external override onlyAdmin {\n        require(eldersInGame > 0); // dev: No elders have been minted.\n        for (uint256 i = 1; i <= MAX_NUMBER_OF_ELDERS; ++i) {\n            if (_elderSpirits[i].valid) {\n                _burnElder(i);\n            }\n        }\n\n        // Increment the round\n        currentRound = currentRound.add(1);\n\n        emit ElderSpiritsBurned();\n    }\n\n    /// @notice Burns the elder spirit\n    /// @dev This will only be able to be called by the contract\n    /// @param elderId The elder id\n    function _burnElder(uint256 elderId) internal isValidElderSpiritId(elderId) {\n        require(_elderSpirits[elderId].valid); // dev: Cannot burn elder that does not exist.\n\n        // TODO: need to make sure _elderOwners[elderId] can never be address(0).\n        //     Check recipient before every token send so that we never send to address(0).\n        _burn(_elderOwners[elderId], elderId, 1);\n\n        // Reset elder values for elder id\n        eldersInGame = eldersInGame.sub(1);\n        _elderOwners[elderId] = address(0);\n        _elderSpirits[elderId].valid = false;\n    }\n\n    /// @notice Burns the hero for a refund\n    /// @dev This will only be able to be called from the owner of the hero\n    /// @param heroId The hero id to burn\n    function burnHero(uint256 heroId) external override isValidHero(heroId) {\n        require(_heroes[heroId].valid); // dev: Cannot burn hero that does not exist.\n        require(_heroOwners[heroId] == _msgSender()); // dev: Cannot burn hero that is not yours.\n\n        _burn(_heroOwners[heroId], heroId, 1);\n\n        // Decrement the amount of spawns for the hero's elder\n        uint256 elderId = _heroes[heroId].elderId;\n        uint256 heroRound = _heroes[heroId].roundMinted;\n        _roundElderSpawns[heroRound][elderId] = _roundElderSpawns[heroRound][elderId].sub(1);\n\n        // Reset hero values for hero id\n        _heroOwners[heroId] = address(0);\n        _heroes[heroId].valid = false;\n\n        emit HeroBurned(heroId);\n    }\n\n    /// @notice Gets the minting price of a hero based on specified elder spirit\n    /// @param round The round of the hero to be minted\n    /// @param elderId The elder id for which the hero will be based on\n    /// @return The hero mint price\n    function getHeroMintPrice(uint256 round, uint256 elderId)\n        public\n        view\n        override\n        isValidElderSpiritId(elderId)\n        returns (uint256)\n    {\n        require(round <= currentRound); // dev: Cannot get price round has not started.\n        uint256 heroAmount = _roundElderSpawns[round][elderId].add(1);\n\n        return _priceFormula(heroAmount);\n    }\n\n    /// @notice The bounding curve function that calculates price for the new supply\n    /// @dev price = 0.02*(heroes minted) + 0.1\n    /// @param newSupply The new supply after a burn or mint\n    /// @return The calculated price\n    function _priceFormula(uint256 newSupply) internal pure returns (uint256) {\n        uint256 price;\n        uint256 base = 1;\n        price = newSupply.mul(10**18).mul(2).div(100);\n        price = price.add(base.mul(10**18).div(10));\n\n        return price;\n    }\n\n    /// @dev Hook function called before every token transfer\n    function _beforeTokenTransfer(\n        address operator,\n        address from,\n        address to,\n        uint256[] memory ids,\n        uint256[] memory amounts,\n        bytes memory data\n    ) internal virtual override {\n        super._beforeTokenTransfer(operator, from, to, ids, amounts, data);\n\n        for (uint256 i = 0; i < ids.length; i++) {\n            // If token is an elder spirit, update owners so can send them royalties\n            if (ids[i] > IN_GAME_CURRENCY_ID && ids[i] <= MAX_NUMBER_OF_ELDERS) {\n                _elderOwners[ids[i]] = payable(to);\n            }\n            if (ids[i] > MAX_NUMBER_OF_ELDERS) {\n                _heroOwners[ids[i]] = to;\n            }\n        }\n    }\n\n    /// @notice Gets the amount of heroes spawn from the elder with the specified id during the specified round\n    /// @param round The round the elder was created\n    /// @param elderId The elder id\n    /// @return The amount of heroes spawned from the elder\n    function getElderSpawnsAmount(uint256 round, uint256 elderId)\n        public\n        view\n        override\n        isValidElderSpiritId(elderId)\n        returns (uint256)\n    {\n        require(round <= currentRound); // dev: Invalid round.\n        return _roundElderSpawns[round][elderId];\n    }\n\n    /// @notice Refunds the sender if they sent too much\n    /// @param cost The cost\n    function _refundSender(uint256 cost) internal {\n        if (msg.value.sub(cost) > 0) {\n            (bool success, ) = msg.sender.call{ value: msg.value.sub(cost) }(\"\");\n            require(success); // dev: Refund failed.\n        }\n    }\n\n    /// @notice Fetches the data of a single elder spirit\n    /// @param elderId The id of the elder being searched for\n    /// @return The elder's attributes in the following order (valid, raceId, classId, affinity)\n    function getElderSpirit(uint256 elderId)\n        external\n        view\n        override\n        isValidElderSpiritId(elderId)\n        returns (\n            bool,\n            uint256,\n            uint256,\n            string memory,\n            int256\n        )\n    {\n        ElderSpirit memory elderSpirit = _elderSpirits[elderId];\n        return (\n            elderSpirit.valid,\n            elderSpirit.raceId,\n            elderSpirit.classId,\n            elderSpirit.affinity,\n            elderSpirit.affinityPrice\n        );\n    }\n\n    /// @notice Hero getter function\n    /// @param heroId The hero id\n    /// @return valid, affinity, affinity price, round minted, elder id\n    function getHeroGameData(uint256 heroId)\n        external\n        view\n        override\n        isValidHero(heroId)\n        returns (\n            bool, // valid\n            string memory, // affinity\n            int256, // affinity price\n            uint256, // round minted\n            uint256 // elder id\n        )\n    {\n        return (\n            _heroes[heroId].valid,\n            _heroes[heroId].affinity,\n            _heroes[heroId].affinityPrice,\n            _heroes[heroId].roundMinted,\n            _heroes[heroId].elderId\n        );\n    }\n\n    /// @notice Hero getter function\n    /// @param heroId The hero id\n    /// @return name, race id, class id, appearance\n    function getHeroVisuals(uint256 heroId)\n        external\n        view\n        override\n        isValidHero(heroId)\n        returns (\n            string memory, // name\n            uint256, // race id\n            uint256, // class id\n            uint256 // appearance\n        )\n    {\n        return (_heroes[heroId].name, _heroes[heroId].raceId, _heroes[heroId].classId, _heroes[heroId].appearance);\n    }\n\n    /// @notice Hero getter function\n    /// @param heroId The hero id\n    /// @return trait 1, trait 2, skill 1, skill 2\n    function getHeroTraitsSkills(uint256 heroId)\n        external\n        view\n        override\n        isValidHero(heroId)\n        returns (\n            uint256, // trait 1\n            uint256, // trait 2\n            uint256, // skill 1\n            uint256 // skill 2\n        )\n    {\n        return (_heroes[heroId].trait1, _heroes[heroId].trait2, _heroes[heroId].skill1, _heroes[heroId].skill2);\n    }\n\n    /// @notice Hero getter function\n    /// @param heroId The hero id\n    /// @return alignment, background, hometown, weather\n    function getHeroLore(uint256 heroId)\n        external\n        view\n        override\n        isValidHero(heroId)\n        returns (\n            uint256, // alignment\n            uint256, // background\n            uint256, // hometown\n            uint256 // weather\n        )\n    {\n        return (\n            _heroes[heroId].alignment,\n            _heroes[heroId].background,\n            _heroes[heroId].hometown,\n            _heroes[heroId].weather\n        );\n    }\n\n    /// @notice Hero getter function\n    /// @param heroId The hero id\n    /// @return level, hp, mana\n    function getHeroVitals(uint256 heroId)\n        external\n        view\n        override\n        isValidHero(heroId)\n        returns (\n            uint256, // level\n            uint256, // hp\n            uint256, // mana\n            uint256 // stamina\n        )\n    {\n        return (_heroes[heroId].level, _heroes[heroId].hp, _heroes[heroId].mana, _heroes[heroId].stamina);\n    }\n\n    /// @notice Hero getter function\n    /// @param heroId The hero id\n    /// @return stamina, strength, dexterity, constitution, intelligence, wisdom, charisma\n    function getHeroStats(uint256 heroId)\n        external\n        view\n        override\n        isValidHero(heroId)\n        returns (\n            uint256, // strength\n            uint256, // dexterity\n            uint256, // constitution\n            uint256, // intelligence\n            uint256, // wisdom\n            uint256 // charisma\n        )\n    {\n        return (\n            _heroes[heroId].strength,\n            _heroes[heroId].dexterity,\n            _heroes[heroId].constitution,\n            _heroes[heroId].intelligence,\n            _heroes[heroId].wisdom,\n            _heroes[heroId].charisma\n        );\n    }\n\n    /// @notice Fetches the feed address for a given affinity\n    /// @param affinity The affinity being searched for\n    /// @return The address of the affinity's feed address\n    function getAffinityFeedAddress(string calldata affinity) external view override returns (address) {\n        return _affinities[affinity];\n    }\n\n    /// @notice Fetches the number of elders currently in the game\n    /// @return The current number of elders in the game\n    function getNumEldersInGame() external view override returns (uint256) {\n        return eldersInGame;\n    }\n\n    /// @notice Declares a winning affinity for a round\n    /// @dev This can only be called by a game admin contract\n    /// @param winningAffinity The affinity that won the game\n    function declareRoundWinner(string calldata winningAffinity) external override onlyGameAdmin {\n        winningAffinitiesByRound.push(winningAffinity);\n    }\n\n    /// @notice Starts a new price game\n    /// @dev This can only be called by the admin of the contract\n    function startNewPriceGame() external override onlyAdmin {\n        address priceWarsFactoryAddress = _minigameFactoryRegistry.getFactory(PRICE_WARS_ID);\n        PriceWarsFactory priceWarsFactory = PriceWarsFactory(priceWarsFactoryAddress);\n        PriceWars priceWar = priceWarsFactory.createPriceWar(address(this));\n        grantRole(ROLE_GAME_ADMIN, address(priceWar));\n        priceWar.startGame();\n    }\n}\n",
  "sourcePath": "contracts/CryptoChampions.sol",
  "type": "contract"
}