{
  "abi": [
    {
      "inputs": [
        {
          "internalType": "address",
          "name": "cryptoChampionsContractAddress",
          "type": "address"
        }
      ],
      "stateMutability": "nonpayable",
      "type": "constructor"
    },
    {
      "anonymous": false,
      "inputs": [],
      "name": "GameEnded",
      "type": "event"
    },
    {
      "anonymous": false,
      "inputs": [],
      "name": "GameStarted",
      "type": "event"
    },
    {
      "inputs": [],
      "name": "cryptoChampions",
      "outputs": [
        {
          "internalType": "contract ICryptoChampions",
          "name": "",
          "type": "address"
        }
      ],
      "stateMutability": "view",
      "type": "function"
    },
    {
      "inputs": [],
      "name": "currentPhase",
      "outputs": [
        {
          "internalType": "enum Minigame.MinigamePhase",
          "name": "",
          "type": "uint8"
        }
      ],
      "stateMutability": "view",
      "type": "function"
    },
    {
      "inputs": [],
      "name": "gameName",
      "outputs": [
        {
          "internalType": "string",
          "name": "",
          "type": "string"
        }
      ],
      "stateMutability": "view",
      "type": "function"
    },
    {
      "inputs": [],
      "name": "getNumPlayers",
      "outputs": [
        {
          "internalType": "uint256",
          "name": "",
          "type": "uint256"
        }
      ],
      "stateMutability": "view",
      "type": "function"
    },
    {
      "inputs": [
        {
          "internalType": "uint256",
          "name": "",
          "type": "uint256"
        }
      ],
      "name": "heroIds",
      "outputs": [
        {
          "internalType": "uint256",
          "name": "",
          "type": "uint256"
        }
      ],
      "stateMutability": "view",
      "type": "function"
    },
    {
      "inputs": [
        {
          "internalType": "uint256",
          "name": "heroId",
          "type": "uint256"
        }
      ],
      "name": "joinGame",
      "outputs": [],
      "stateMutability": "nonpayable",
      "type": "function"
    },
    {
      "inputs": [
        {
          "internalType": "uint256",
          "name": "heroId",
          "type": "uint256"
        }
      ],
      "name": "leaveGame",
      "outputs": [],
      "stateMutability": "nonpayable",
      "type": "function"
    },
    {
      "inputs": [],
      "name": "numPlayers",
      "outputs": [
        {
          "internalType": "uint256",
          "name": "",
          "type": "uint256"
        }
      ],
      "stateMutability": "view",
      "type": "function"
    },
    {
      "inputs": [
        {
          "internalType": "uint256",
          "name": "",
          "type": "uint256"
        }
      ],
      "name": "players",
      "outputs": [
        {
          "internalType": "bool",
          "name": "isInGame",
          "type": "bool"
        }
      ],
      "stateMutability": "view",
      "type": "function"
    },
    {
      "inputs": [],
      "name": "startGame",
      "outputs": [],
      "stateMutability": "nonpayable",
      "type": "function"
    }
  ],
  "bytecode": "608060405234801561001057600080fd5b506040516108c83803806108c88339818101604052602081101561003357600080fd5b505160408051808201909152600a8082526970726963652d7761727360b01b6020830190815283916100679160049161009a565b506000805460ff19169055600580546001600160a01b0319166001600160a01b03929092169190911790555061012d9050565b828054600181600116156101000203166002900490600052602060002090601f016020900481019282601f106100db57805160ff1916838001178555610108565b82800160010185558215610108579182015b828111156101085782518255916020019190600101906100ed565b50610114929150610118565b5090565b5b808211156101145760008155600101610119565b61078c8061013c6000396000f3fe608060405234801561001057600080fd5b506004361061009e5760003560e01c8063614a4e4411610066578063614a4e44146101a657806397b2f556146101c3578063d65ab5f2146101cb578063efaa55a0146101d3578063f71d96cb146101f05761009e565b8063053e4fb6146100a3578063055ad42e146100c75780633feef58a146100f0578063473bc2231461010f57806355c9e9261461018c575b600080fd5b6100ab610221565b604080516001600160a01b039092168252519081900360200190f35b6100cf610230565b604051808260018111156100df57fe5b815260200191505060405180910390f35b61010d6004803603602081101561010657600080fd5b5035610239565b005b610117610277565b6040805160208082528351818301528351919283929083019185019080838360005b83811015610151578181015183820152602001610139565b50505050905090810190601f16801561017e5780820380516001836020036101000a031916815260200191505b509250505060405180910390f35b610194610305565b60408051918252519081900360200190f35b610194600480360360208110156101bc57600080fd5b503561030b565b610194610329565b61010d61032f565b61010d600480360360208110156101e957600080fd5b50356103b1565b61020d6004803603602081101561020657600080fd5b5035610435565b604080519115158252519081900360200190f35b6005546001600160a01b031681565b60005460ff1681565b6000805460ff16600181111561024b57fe5b1461025557600080fd5b6000908152600160205260409020805460ff1916905560038054600019019055565b6004805460408051602060026001851615610100026000190190941693909304601f810184900484028201840190925281815292918301828280156102fd5780601f106102d2576101008083540402835291602001916102fd565b820191906000526020600020905b8154815290600101906020018083116102e057829003601f168201915b505050505081565b60035490565b6002818154811061031857fe5b600091825260209091200154905081565b60035481565b6000805460ff16600181111561034157fe5b1461034b57600080fd5b6040517f762f260439bb4be3ef6e4dc2786e2e7bd187d3d80b79057d7a424fe98563e33590600090a161037c61044a565b6103866001610724565b6040517f1084d47e99647565312e58bba004b0fc3088c683fa22f3925f1cf5fb0955402990600090a1565b6000805460ff1660018111156103c357fe5b146103cd57600080fd5b6103d5610744565b600180825260008381526020829052604081209251835460ff19169015151790925560028054808301825592527f405787fa12a823e0f2b7631cc41b3ba8828b3321ca811111fa75cd3aa3bb5ace90910191909155600380549091019055565b60016020526000908152604090205460ff1681565b606060008060015b600560009054906101000a90046001600160a01b03166001600160a01b0316634c52b2a96040518163ffffffff1660e01b815260040160206040518083038186803b1580156104a057600080fd5b505afa1580156104b4573d6000803e3d6000fd5b505050506040513d60208110156104ca57600080fd5b5051811161065a57600554604080516310e17b9560e11b81526004810184905290516060926000926001600160a01b03909116916321c2f72a916024808201928692909190829003018186803b15801561052357600080fd5b505afa158015610537573d6000803e3d6000fd5b505050506040513d6000823e601f3d908101601f1916820160405260a081101561056057600080fd5b81516020830151604080850151606086018051925194969395919493918201928464010000000082111561059357600080fd5b9083019060208201858111156105a857600080fd5b82516401000000008111828201881017156105c257600080fd5b82525081516020918201929091019080838360005b838110156105ef5781810151838201526020016105d7565b50505050905090810190601f16801561061c5780820380516001836020036101000a031916815260200191505b50604052602001519297509195508894505050878313915081905061063f575085155b1561064b578095508296505b50505060019182019101610452565b506005546040516313c62a0160e31b81526020600482018181528651602484015286516001600160a01b0390941693639e31500893889383926044909201919085019080838360005b838110156106bb5781810151838201526020016106a3565b50505050905090810190601f1680156106e85780820380516001836020036101000a031916815260200191505b5092505050600060405180830381600087803b15801561070757600080fd5b505af115801561071b573d6000803e3d6000fd5b50505050505050565b6000805482919060ff19166001838181111561073c57fe5b021790555050565b6040805160208101909152600081529056fea2646970667358221220dda40698c7233894b922e162368b31b174ec59b8a3f2176f5440e20d90cf801064736f6c634300060c0033",
  "bytecodeSha1": "f97cecfa335e5eebfb2ff31a3571f198d0811d5e",
  "compiler": {
    "evm_version": "istanbul",
    "optimizer": {
      "enabled": true,
      "runs": 200
    },
    "version": "0.6.12+commit.27d51765"
  },
  "contractName": "PriceWars",
  "language": "Solidity",
  "natspec": {
    "author": "cds95",
    "kind": "dev",
    "methods": {
      "getNumPlayers()": {
        "notice": "Gets the number of players in the game"
      },
      "joinGame(uint256)": {
        "notice": "Joins a game",
        "params": {
          "heroId": "The id of the joining player's hero"
        }
      },
      "leaveGame(uint256)": {
        "notice": "Leaves a game",
        "params": {
          "heroId": "The id of the leaving player's hero"
        }
      },
      "startGame()": {
        "notice": "Starts a new game and closes it when it's finished"
      }
    },
    "notice": "This is the contract for the price wars minigame",
    "title": "PriceWars",
    "version": 1
  },
  "opcodes": "PUSH1 0x80 PUSH1 0x40 MSTORE CALLVALUE DUP1 ISZERO PUSH2 0x10 JUMPI PUSH1 0x0 DUP1 REVERT JUMPDEST POP PUSH1 0x4 CALLDATASIZE LT PUSH2 0x9E JUMPI PUSH1 0x0 CALLDATALOAD PUSH1 0xE0 SHR DUP1 PUSH4 0x614A4E44 GT PUSH2 0x66 JUMPI DUP1 PUSH4 0x614A4E44 EQ PUSH2 0x1A6 JUMPI DUP1 PUSH4 0x97B2F556 EQ PUSH2 0x1C3 JUMPI DUP1 PUSH4 0xD65AB5F2 EQ PUSH2 0x1CB JUMPI DUP1 PUSH4 0xEFAA55A0 EQ PUSH2 0x1D3 JUMPI DUP1 PUSH4 0xF71D96CB EQ PUSH2 0x1F0 JUMPI PUSH2 0x9E JUMP JUMPDEST DUP1 PUSH4 0x53E4FB6 EQ PUSH2 0xA3 JUMPI DUP1 PUSH4 0x55AD42E EQ PUSH2 0xC7 JUMPI DUP1 PUSH4 0x3FEEF58A EQ PUSH2 0xF0 JUMPI DUP1 PUSH4 0x473BC223 EQ PUSH2 0x10F JUMPI DUP1 PUSH4 0x55C9E926 EQ PUSH2 0x18C JUMPI JUMPDEST PUSH1 0x0 DUP1 REVERT JUMPDEST PUSH2 0xAB PUSH2 0x221 JUMP JUMPDEST PUSH1 0x40 DUP1 MLOAD PUSH1 0x1 PUSH1 0x1 PUSH1 0xA0 SHL SUB SWAP1 SWAP3 AND DUP3 MSTORE MLOAD SWAP1 DUP2 SWAP1 SUB PUSH1 0x20 ADD SWAP1 RETURN JUMPDEST PUSH2 0xCF PUSH2 0x230 JUMP JUMPDEST PUSH1 0x40 MLOAD DUP1 DUP3 PUSH1 0x1 DUP2 GT ISZERO PUSH2 0xDF JUMPI INVALID JUMPDEST DUP2 MSTORE PUSH1 0x20 ADD SWAP2 POP POP PUSH1 0x40 MLOAD DUP1 SWAP2 SUB SWAP1 RETURN JUMPDEST PUSH2 0x10D PUSH1 0x4 DUP1 CALLDATASIZE SUB PUSH1 0x20 DUP2 LT ISZERO PUSH2 0x106 JUMPI PUSH1 0x0 DUP1 REVERT JUMPDEST POP CALLDATALOAD PUSH2 0x239 JUMP JUMPDEST STOP JUMPDEST PUSH2 0x117 PUSH2 0x277 JUMP JUMPDEST PUSH1 0x40 DUP1 MLOAD PUSH1 0x20 DUP1 DUP3 MSTORE DUP4 MLOAD DUP2 DUP4 ADD MSTORE DUP4 MLOAD SWAP2 SWAP3 DUP4 SWAP3 SWAP1 DUP4 ADD SWAP2 DUP6 ADD SWAP1 DUP1 DUP4 DUP4 PUSH1 0x0 JUMPDEST DUP4 DUP2 LT ISZERO PUSH2 0x151 JUMPI DUP2 DUP2 ADD MLOAD DUP4 DUP3 ADD MSTORE PUSH1 0x20 ADD PUSH2 0x139 JUMP JUMPDEST POP POP POP POP SWAP1 POP SWAP1 DUP2 ADD SWAP1 PUSH1 0x1F AND DUP1 ISZERO PUSH2 0x17E JUMPI DUP1 DUP3 SUB DUP1 MLOAD PUSH1 0x1 DUP4 PUSH1 0x20 SUB PUSH2 0x100 EXP SUB NOT AND DUP2 MSTORE PUSH1 0x20 ADD SWAP2 POP JUMPDEST POP SWAP3 POP POP POP PUSH1 0x40 MLOAD DUP1 SWAP2 SUB SWAP1 RETURN JUMPDEST PUSH2 0x194 PUSH2 0x305 JUMP JUMPDEST PUSH1 0x40 DUP1 MLOAD SWAP2 DUP3 MSTORE MLOAD SWAP1 DUP2 SWAP1 SUB PUSH1 0x20 ADD SWAP1 RETURN JUMPDEST PUSH2 0x194 PUSH1 0x4 DUP1 CALLDATASIZE SUB PUSH1 0x20 DUP2 LT ISZERO PUSH2 0x1BC JUMPI PUSH1 0x0 DUP1 REVERT JUMPDEST POP CALLDATALOAD PUSH2 0x30B JUMP JUMPDEST PUSH2 0x194 PUSH2 0x329 JUMP JUMPDEST PUSH2 0x10D PUSH2 0x32F JUMP JUMPDEST PUSH2 0x10D PUSH1 0x4 DUP1 CALLDATASIZE SUB PUSH1 0x20 DUP2 LT ISZERO PUSH2 0x1E9 JUMPI PUSH1 0x0 DUP1 REVERT JUMPDEST POP CALLDATALOAD PUSH2 0x3B1 JUMP JUMPDEST PUSH2 0x20D PUSH1 0x4 DUP1 CALLDATASIZE SUB PUSH1 0x20 DUP2 LT ISZERO PUSH2 0x206 JUMPI PUSH1 0x0 DUP1 REVERT JUMPDEST POP CALLDATALOAD PUSH2 0x435 JUMP JUMPDEST PUSH1 0x40 DUP1 MLOAD SWAP2 ISZERO ISZERO DUP3 MSTORE MLOAD SWAP1 DUP2 SWAP1 SUB PUSH1 0x20 ADD SWAP1 RETURN JUMPDEST PUSH1 0x5 SLOAD PUSH1 0x1 PUSH1 0x1 PUSH1 0xA0 SHL SUB AND DUP2 JUMP JUMPDEST PUSH1 0x0 SLOAD PUSH1 0xFF AND DUP2 JUMP JUMPDEST PUSH1 0x0 DUP1 SLOAD PUSH1 0xFF AND PUSH1 0x1 DUP2 GT ISZERO PUSH2 0x24B JUMPI INVALID JUMPDEST EQ PUSH2 0x255 JUMPI PUSH1 0x0 DUP1 REVERT JUMPDEST PUSH1 0x0 SWAP1 DUP2 MSTORE PUSH1 0x1 PUSH1 0x20 MSTORE PUSH1 0x40 SWAP1 KECCAK256 DUP1 SLOAD PUSH1 0xFF NOT AND SWAP1 SSTORE PUSH1 0x3 DUP1 SLOAD PUSH1 0x0 NOT ADD SWAP1 SSTORE JUMP JUMPDEST PUSH1 0x4 DUP1 SLOAD PUSH1 0x40 DUP1 MLOAD PUSH1 0x20 PUSH1 0x2 PUSH1 0x1 DUP6 AND ISZERO PUSH2 0x100 MUL PUSH1 0x0 NOT ADD SWAP1 SWAP5 AND SWAP4 SWAP1 SWAP4 DIV PUSH1 0x1F DUP2 ADD DUP5 SWAP1 DIV DUP5 MUL DUP3 ADD DUP5 ADD SWAP1 SWAP3 MSTORE DUP2 DUP2 MSTORE SWAP3 SWAP2 DUP4 ADD DUP3 DUP3 DUP1 ISZERO PUSH2 0x2FD JUMPI DUP1 PUSH1 0x1F LT PUSH2 0x2D2 JUMPI PUSH2 0x100 DUP1 DUP4 SLOAD DIV MUL DUP4 MSTORE SWAP2 PUSH1 0x20 ADD SWAP2 PUSH2 0x2FD JUMP JUMPDEST DUP3 ADD SWAP2 SWAP1 PUSH1 0x0 MSTORE PUSH1 0x20 PUSH1 0x0 KECCAK256 SWAP1 JUMPDEST DUP2 SLOAD DUP2 MSTORE SWAP1 PUSH1 0x1 ADD SWAP1 PUSH1 0x20 ADD DUP1 DUP4 GT PUSH2 0x2E0 JUMPI DUP3 SWAP1 SUB PUSH1 0x1F AND DUP3 ADD SWAP2 JUMPDEST POP POP POP POP POP DUP2 JUMP JUMPDEST PUSH1 0x3 SLOAD SWAP1 JUMP JUMPDEST PUSH1 0x2 DUP2 DUP2 SLOAD DUP2 LT PUSH2 0x318 JUMPI INVALID JUMPDEST PUSH1 0x0 SWAP2 DUP3 MSTORE PUSH1 0x20 SWAP1 SWAP2 KECCAK256 ADD SLOAD SWAP1 POP DUP2 JUMP JUMPDEST PUSH1 0x3 SLOAD DUP2 JUMP JUMPDEST PUSH1 0x0 DUP1 SLOAD PUSH1 0xFF AND PUSH1 0x1 DUP2 GT ISZERO PUSH2 0x341 JUMPI INVALID JUMPDEST EQ PUSH2 0x34B JUMPI PUSH1 0x0 DUP1 REVERT JUMPDEST PUSH1 0x40 MLOAD PUSH32 0x762F260439BB4BE3EF6E4DC2786E2E7BD187D3D80B79057D7A424FE98563E335 SWAP1 PUSH1 0x0 SWAP1 LOG1 PUSH2 0x37C PUSH2 0x44A JUMP JUMPDEST PUSH2 0x386 PUSH1 0x1 PUSH2 0x724 JUMP JUMPDEST PUSH1 0x40 MLOAD PUSH32 0x1084D47E99647565312E58BBA004B0FC3088C683FA22F3925F1CF5FB09554029 SWAP1 PUSH1 0x0 SWAP1 LOG1 JUMP JUMPDEST PUSH1 0x0 DUP1 SLOAD PUSH1 0xFF AND PUSH1 0x1 DUP2 GT ISZERO PUSH2 0x3C3 JUMPI INVALID JUMPDEST EQ PUSH2 0x3CD JUMPI PUSH1 0x0 DUP1 REVERT JUMPDEST PUSH2 0x3D5 PUSH2 0x744 JUMP JUMPDEST PUSH1 0x1 DUP1 DUP3 MSTORE PUSH1 0x0 DUP4 DUP2 MSTORE PUSH1 0x20 DUP3 SWAP1 MSTORE PUSH1 0x40 DUP2 KECCAK256 SWAP3 MLOAD DUP4 SLOAD PUSH1 0xFF NOT AND SWAP1 ISZERO ISZERO OR SWAP1 SWAP3 SSTORE PUSH1 0x2 DUP1 SLOAD DUP1 DUP4 ADD DUP3 SSTORE SWAP3 MSTORE PUSH32 0x405787FA12A823E0F2B7631CC41B3BA8828B3321CA811111FA75CD3AA3BB5ACE SWAP1 SWAP2 ADD SWAP2 SWAP1 SWAP2 SSTORE PUSH1 0x3 DUP1 SLOAD SWAP1 SWAP2 ADD SWAP1 SSTORE JUMP JUMPDEST PUSH1 0x1 PUSH1 0x20 MSTORE PUSH1 0x0 SWAP1 DUP2 MSTORE PUSH1 0x40 SWAP1 KECCAK256 SLOAD PUSH1 0xFF AND DUP2 JUMP JUMPDEST PUSH1 0x60 PUSH1 0x0 DUP1 PUSH1 0x1 JUMPDEST PUSH1 0x5 PUSH1 0x0 SWAP1 SLOAD SWAP1 PUSH2 0x100 EXP SWAP1 DIV PUSH1 0x1 PUSH1 0x1 PUSH1 0xA0 SHL SUB AND PUSH1 0x1 PUSH1 0x1 PUSH1 0xA0 SHL SUB AND PUSH4 0x4C52B2A9 PUSH1 0x40 MLOAD DUP2 PUSH4 0xFFFFFFFF AND PUSH1 0xE0 SHL DUP2 MSTORE PUSH1 0x4 ADD PUSH1 0x20 PUSH1 0x40 MLOAD DUP1 DUP4 SUB DUP2 DUP7 DUP1 EXTCODESIZE ISZERO DUP1 ISZERO PUSH2 0x4A0 JUMPI PUSH1 0x0 DUP1 REVERT JUMPDEST POP GAS STATICCALL ISZERO DUP1 ISZERO PUSH2 0x4B4 JUMPI RETURNDATASIZE PUSH1 0x0 DUP1 RETURNDATACOPY RETURNDATASIZE PUSH1 0x0 REVERT JUMPDEST POP POP POP POP PUSH1 0x40 MLOAD RETURNDATASIZE PUSH1 0x20 DUP2 LT ISZERO PUSH2 0x4CA JUMPI PUSH1 0x0 DUP1 REVERT JUMPDEST POP MLOAD DUP2 GT PUSH2 0x65A JUMPI PUSH1 0x5 SLOAD PUSH1 0x40 DUP1 MLOAD PUSH4 0x10E17B95 PUSH1 0xE1 SHL DUP2 MSTORE PUSH1 0x4 DUP2 ADD DUP5 SWAP1 MSTORE SWAP1 MLOAD PUSH1 0x60 SWAP3 PUSH1 0x0 SWAP3 PUSH1 0x1 PUSH1 0x1 PUSH1 0xA0 SHL SUB SWAP1 SWAP2 AND SWAP2 PUSH4 0x21C2F72A SWAP2 PUSH1 0x24 DUP1 DUP3 ADD SWAP3 DUP7 SWAP3 SWAP1 SWAP2 SWAP1 DUP3 SWAP1 SUB ADD DUP2 DUP7 DUP1 EXTCODESIZE ISZERO DUP1 ISZERO PUSH2 0x523 JUMPI PUSH1 0x0 DUP1 REVERT JUMPDEST POP GAS STATICCALL ISZERO DUP1 ISZERO PUSH2 0x537 JUMPI RETURNDATASIZE PUSH1 0x0 DUP1 RETURNDATACOPY RETURNDATASIZE PUSH1 0x0 REVERT JUMPDEST POP POP POP POP PUSH1 0x40 MLOAD RETURNDATASIZE PUSH1 0x0 DUP3 RETURNDATACOPY PUSH1 0x1F RETURNDATASIZE SWAP1 DUP2 ADD PUSH1 0x1F NOT AND DUP3 ADD PUSH1 0x40 MSTORE PUSH1 0xA0 DUP2 LT ISZERO PUSH2 0x560 JUMPI PUSH1 0x0 DUP1 REVERT JUMPDEST DUP2 MLOAD PUSH1 0x20 DUP4 ADD MLOAD PUSH1 0x40 DUP1 DUP6 ADD MLOAD PUSH1 0x60 DUP7 ADD DUP1 MLOAD SWAP3 MLOAD SWAP5 SWAP7 SWAP4 SWAP6 SWAP2 SWAP5 SWAP4 SWAP2 DUP3 ADD SWAP3 DUP5 PUSH5 0x100000000 DUP3 GT ISZERO PUSH2 0x593 JUMPI PUSH1 0x0 DUP1 REVERT JUMPDEST SWAP1 DUP4 ADD SWAP1 PUSH1 0x20 DUP3 ADD DUP6 DUP2 GT ISZERO PUSH2 0x5A8 JUMPI PUSH1 0x0 DUP1 REVERT JUMPDEST DUP3 MLOAD PUSH5 0x100000000 DUP2 GT DUP3 DUP3 ADD DUP9 LT OR ISZERO PUSH2 0x5C2 JUMPI PUSH1 0x0 DUP1 REVERT JUMPDEST DUP3 MSTORE POP DUP2 MLOAD PUSH1 0x20 SWAP2 DUP3 ADD SWAP3 SWAP1 SWAP2 ADD SWAP1 DUP1 DUP4 DUP4 PUSH1 0x0 JUMPDEST DUP4 DUP2 LT ISZERO PUSH2 0x5EF JUMPI DUP2 DUP2 ADD MLOAD DUP4 DUP3 ADD MSTORE PUSH1 0x20 ADD PUSH2 0x5D7 JUMP JUMPDEST POP POP POP POP SWAP1 POP SWAP1 DUP2 ADD SWAP1 PUSH1 0x1F AND DUP1 ISZERO PUSH2 0x61C JUMPI DUP1 DUP3 SUB DUP1 MLOAD PUSH1 0x1 DUP4 PUSH1 0x20 SUB PUSH2 0x100 EXP SUB NOT AND DUP2 MSTORE PUSH1 0x20 ADD SWAP2 POP JUMPDEST POP PUSH1 0x40 MSTORE PUSH1 0x20 ADD MLOAD SWAP3 SWAP8 POP SWAP2 SWAP6 POP DUP9 SWAP5 POP POP POP DUP8 DUP4 SGT SWAP2 POP DUP2 SWAP1 POP PUSH2 0x63F JUMPI POP DUP6 ISZERO JUMPDEST ISZERO PUSH2 0x64B JUMPI DUP1 SWAP6 POP DUP3 SWAP7 POP JUMPDEST POP POP POP PUSH1 0x1 SWAP2 DUP3 ADD SWAP2 ADD PUSH2 0x452 JUMP JUMPDEST POP PUSH1 0x5 SLOAD PUSH1 0x40 MLOAD PUSH4 0x13C62A01 PUSH1 0xE3 SHL DUP2 MSTORE PUSH1 0x20 PUSH1 0x4 DUP3 ADD DUP2 DUP2 MSTORE DUP7 MLOAD PUSH1 0x24 DUP5 ADD MSTORE DUP7 MLOAD PUSH1 0x1 PUSH1 0x1 PUSH1 0xA0 SHL SUB SWAP1 SWAP5 AND SWAP4 PUSH4 0x9E315008 SWAP4 DUP9 SWAP4 DUP4 SWAP3 PUSH1 0x44 SWAP1 SWAP3 ADD SWAP2 SWAP1 DUP6 ADD SWAP1 DUP1 DUP4 DUP4 PUSH1 0x0 JUMPDEST DUP4 DUP2 LT ISZERO PUSH2 0x6BB JUMPI DUP2 DUP2 ADD MLOAD DUP4 DUP3 ADD MSTORE PUSH1 0x20 ADD PUSH2 0x6A3 JUMP JUMPDEST POP POP POP POP SWAP1 POP SWAP1 DUP2 ADD SWAP1 PUSH1 0x1F AND DUP1 ISZERO PUSH2 0x6E8 JUMPI DUP1 DUP3 SUB DUP1 MLOAD PUSH1 0x1 DUP4 PUSH1 0x20 SUB PUSH2 0x100 EXP SUB NOT AND DUP2 MSTORE PUSH1 0x20 ADD SWAP2 POP JUMPDEST POP SWAP3 POP POP POP PUSH1 0x0 PUSH1 0x40 MLOAD DUP1 DUP4 SUB DUP2 PUSH1 0x0 DUP8 DUP1 EXTCODESIZE ISZERO DUP1 ISZERO PUSH2 0x707 JUMPI PUSH1 0x0 DUP1 REVERT JUMPDEST POP GAS CALL ISZERO DUP1 ISZERO PUSH2 0x71B JUMPI RETURNDATASIZE PUSH1 0x0 DUP1 RETURNDATACOPY RETURNDATASIZE PUSH1 0x0 REVERT JUMPDEST POP POP POP POP POP POP POP JUMP JUMPDEST PUSH1 0x0 DUP1 SLOAD DUP3 SWAP2 SWAP1 PUSH1 0xFF NOT AND PUSH1 0x1 DUP4 DUP2 DUP2 GT ISZERO PUSH2 0x73C JUMPI INVALID JUMPDEST MUL OR SWAP1 SSTORE POP POP JUMP JUMPDEST PUSH1 0x40 DUP1 MLOAD PUSH1 0x20 DUP2 ADD SWAP1 SWAP2 MSTORE PUSH1 0x0 DUP2 MSTORE SWAP1 JUMP INVALID LOG2 PUSH5 0x6970667358 0x22 SLT KECCAK256 0xDD LOG4 MOD SWAP9 0xC7 0x23 CODESIZE SWAP5 0xB9 0x22 0xE1 PUSH3 0x368B31 0xB1 PUSH21 0xEC59B8A3F2176F5440E20D90CF801064736F6C6343 STOP MOD 0xC STOP CALLER ",
  "sha1": "492da30402f5937c4cf760afdda65ec9336d619a",
  "source": "// SPDX-License-Identifier: UNLICENSED\npragma solidity ^0.6.0;\n\nimport \"../../Minigame.sol\";\nimport \"../../../chainlink_contracts/AggregatorV3Interface.sol\";\nimport \"../../../../interfaces/ICryptoChampions.sol\";\nimport \"OpenZeppelin/openzeppelin-contracts@3.4.0/contracts/math/SignedSafeMath.sol\";\n\n/// @title PriceWars\n/// @author cds95\n/// @notice This is the contract for the price wars minigame\ncontract PriceWars is Minigame {\n    using SignedSafeMath for int256;\n\n    // Initializes a new price war minigame\n    constructor(address cryptoChampionsContractAddress) public Minigame(\"price-wars\", cryptoChampionsContractAddress) {}\n\n    /// @notice Executes one round of a price war minigame by determining the affinity with the token that had the greatest gain.\n    function play() internal override {\n        string memory winningAffinity;\n        int256 greatestPercentageChange;\n        int256 i = 0;\n        for (uint256 elderId = 1; elderId <= cryptoChampions.getNumEldersInGame(); elderId++) {\n            string memory affinity;\n            int256 startAffinityPrice;\n            (, , , affinity, startAffinityPrice) = cryptoChampions.getElderSpirit(elderId);\n            int256 percentageChange = i;\n            if (percentageChange > greatestPercentageChange || greatestPercentageChange == 0) {\n                greatestPercentageChange = percentageChange;\n                winningAffinity = affinity;\n            }\n            i += 1;\n        }\n        cryptoChampions.declareRoundWinner(winningAffinity);\n    }\n\n    /// @notice Determines the percentage change of a token.\n    /// @return The token's percentage change.\n    function determinePercentageChange(int256 startAffinityPrice, string memory affinity)\n        internal\n        view\n        returns (int256)\n    {}\n}\n",
  "sourcePath": "contracts/minigames/games/priceWars/PriceWars.sol",
  "type": "contract"
}