{
  "abi": [
    {
      "inputs": [
        {
          "internalType": "address",
          "name": "oracleAddress",
          "type": "address"
        },
        {
          "internalType": "address",
          "name": "vrfCoordinateAdddress",
          "type": "address"
        },
        {
          "internalType": "address",
          "name": "linkTokenAddress",
          "type": "address"
        },
        {
          "internalType": "uint256",
          "name": "feeInLink",
          "type": "uint256"
        },
        {
          "internalType": "bytes32",
          "name": "keyHash",
          "type": "bytes32"
        },
        {
          "internalType": "string",
          "name": "weatherApiKey",
          "type": "string"
        },
        {
          "internalType": "bytes32",
          "name": "oracleJobId",
          "type": "bytes32"
        },
        {
          "internalType": "address",
          "name": "cryptoChampionsAddress",
          "type": "address"
        }
      ],
      "stateMutability": "nonpayable",
      "type": "constructor"
    },
    {
      "anonymous": false,
      "inputs": [
        {
          "indexed": false,
          "internalType": "string",
          "name": "city",
          "type": "string"
        }
      ],
      "name": "CreatingGame",
      "type": "event"
    },
    {
      "anonymous": false,
      "inputs": [
        {
          "indexed": false,
          "internalType": "string",
          "name": "gameName",
          "type": "string"
        },
        {
          "indexed": false,
          "internalType": "string",
          "name": "city",
          "type": "string"
        }
      ],
      "name": "GameCreated",
      "type": "event"
    },
    {
      "inputs": [
        {
          "internalType": "string",
          "name": "openWeatherCityId",
          "type": "string"
        },
        {
          "internalType": "uint8",
          "name": "cityId",
          "type": "uint8"
        }
      ],
      "name": "addCityMapping",
      "outputs": [],
      "stateMutability": "nonpayable",
      "type": "function"
    },
    {
      "inputs": [
        {
          "internalType": "string",
          "name": "weather",
          "type": "string"
        },
        {
          "internalType": "uint8",
          "name": "id",
          "type": "uint8"
        }
      ],
      "name": "addWeatherMapping",
      "outputs": [],
      "stateMutability": "nonpayable",
      "type": "function"
    },
    {
      "inputs": [
        {
          "internalType": "string",
          "name": "",
          "type": "string"
        }
      ],
      "name": "cities",
      "outputs": [
        {
          "internalType": "uint8",
          "name": "",
          "type": "uint8"
        }
      ],
      "stateMutability": "view",
      "type": "function"
    },
    {
      "inputs": [
        {
          "internalType": "uint256",
          "name": "_buyinAmount",
          "type": "uint256"
        },
        {
          "internalType": "uint256",
          "name": "initiatorHeroId",
          "type": "uint256"
        },
        {
          "internalType": "address",
          "name": "opponent",
          "type": "address"
        },
        {
          "internalType": "uint256",
          "name": "opponentHeroId",
          "type": "uint256"
        }
      ],
      "name": "createWeatherWars",
      "outputs": [
        {
          "internalType": "bytes32",
          "name": "",
          "type": "bytes32"
        }
      ],
      "stateMutability": "nonpayable",
      "type": "function"
    },
    {
      "inputs": [
        {
          "internalType": "uint256",
          "name": "",
          "type": "uint256"
        }
      ],
      "name": "games",
      "outputs": [
        {
          "internalType": "contract WeatherWars",
          "name": "",
          "type": "address"
        }
      ],
      "stateMutability": "view",
      "type": "function"
    },
    {
      "inputs": [],
      "name": "getNumGames",
      "outputs": [
        {
          "internalType": "uint256",
          "name": "",
          "type": "uint256"
        }
      ],
      "stateMutability": "nonpayable",
      "type": "function"
    },
    {
      "inputs": [],
      "name": "init",
      "outputs": [],
      "stateMutability": "nonpayable",
      "type": "function"
    },
    {
      "inputs": [],
      "name": "jobId",
      "outputs": [
        {
          "internalType": "bytes32",
          "name": "",
          "type": "bytes32"
        }
      ],
      "stateMutability": "view",
      "type": "function"
    },
    {
      "inputs": [
        {
          "internalType": "bytes32",
          "name": "",
          "type": "bytes32"
        }
      ],
      "name": "nonces",
      "outputs": [
        {
          "internalType": "uint256",
          "name": "",
          "type": "uint256"
        }
      ],
      "stateMutability": "view",
      "type": "function"
    },
    {
      "inputs": [],
      "name": "oracle",
      "outputs": [
        {
          "internalType": "address",
          "name": "",
          "type": "address"
        }
      ],
      "stateMutability": "view",
      "type": "function"
    },
    {
      "inputs": [
        {
          "internalType": "bytes32",
          "name": "requestId",
          "type": "bytes32"
        },
        {
          "internalType": "uint256",
          "name": "randomness",
          "type": "uint256"
        }
      ],
      "name": "rawFulfillRandomness",
      "outputs": [],
      "stateMutability": "nonpayable",
      "type": "function"
    },
    {
      "inputs": [
        {
          "internalType": "bytes32",
          "name": "_keyHash",
          "type": "bytes32"
        },
        {
          "internalType": "uint256",
          "name": "_fee",
          "type": "uint256"
        },
        {
          "internalType": "uint256",
          "name": "_seed",
          "type": "uint256"
        }
      ],
      "name": "requestRandomness",
      "outputs": [
        {
          "internalType": "bytes32",
          "name": "requestId",
          "type": "bytes32"
        }
      ],
      "stateMutability": "nonpayable",
      "type": "function"
    },
    {
      "inputs": [
        {
          "internalType": "string",
          "name": "",
          "type": "string"
        }
      ],
      "name": "weatherMapping",
      "outputs": [
        {
          "internalType": "uint8",
          "name": "",
          "type": "uint8"
        }
      ],
      "stateMutability": "view",
      "type": "function"
    }
  ],
  "bytecode": "60c06040523480156200001157600080fd5b5060405162003b9838038062003b9883398181016040526101008110156200003857600080fd5b815160208301516040808501516060860151608087015160a0880180519451969895979396929591949293820192846401000000008211156200007a57600080fd5b9083019060208201858111156200009057600080fd5b8251640100000000811182820188101715620000ab57600080fd5b82525081516020918201929091019080838360005b83811015620000da578181015183820152602001620000c0565b50505050905090810190601f168015620001085780820380516001836020036101000a031916815260200191505b50604090815260208281015192909101516001600160601b031960608b811b821660a0528a901b1660805260028890556003879055600580546001600160a01b0319166001600160a01b038b16179055855192945092506200017091600791860190620001b0565b50600680546001600160a01b03998a166001600160a01b031991821617909155600892909255600e805491909816911617909555506200024c9350505050565b828054600181600116156101000203166002900490600052602060002090601f016020900481019282601f10620001f357805160ff191683800117855562000223565b8280016001018555821562000223579182015b828111156200022357825182559160200191906001019062000206565b506200023192915062000235565b5090565b5b8082111562000231576000815560010162000236565b60805160601c60a05160601c613918620002806000398061059252806109af5250806109805280610bad52506139186000f3fe60806040523480156200001157600080fd5b5060043610620000e25760003560e01c80639d6364ce1162000099578063c2939d97116200006f578063c2939d9714620003ad578063d1c8cc5314620003b7578063dc6cfe10146200042e578063e1c7392a146200045a57620000e2565b80639d6364ce14620002a85780639e317f121462000352578063b3242853146200037257620000e2565b8063117a5b9014620000e75780635c782dda146200012357806365eae2db146200019c5780636ce079fe146200025c5780637dc0d1d0146200027857806394985ddd1462000282575b600080fd5b6200010760048036036020811015620000ff57600080fd5b503562000464565b604080516001600160a01b039092168252519081900360200190f35b6200019a600480360360408110156200013b57600080fd5b810190602081018135600160201b8111156200015657600080fd5b8201836020820111156200016957600080fd5b803590602001918460018302840111600160201b831117156200018b57600080fd5b91935091503560ff166200048c565b005b6200024660048036036020811015620001b457600080fd5b810190602081018135600160201b811115620001cf57600080fd5b820183602082011115620001e257600080fd5b803590602001918460018302840111600160201b831117156200020457600080fd5b91908080601f01602080910402602001604051908101604052809392919081815260200183838082843760009201919091525092955062000552945050505050565b6040805160ff9092168252519081900360200190f35b6200026662000572565b60408051918252519081900360200190f35b6200010762000578565b6200019a600480360360408110156200029a57600080fd5b508035906020013562000587565b6200024660048036036020811015620002c057600080fd5b810190602081018135600160201b811115620002db57600080fd5b820183602082011115620002ee57600080fd5b803590602001918460018302840111600160201b831117156200031057600080fd5b91908080601f01602080910402602001604051908101604052809392919081815260200183838082843760009201919091525092955062000615945050505050565b62000266600480360360208110156200036a57600080fd5b503562000635565b62000266600480360360808110156200038a57600080fd5b508035906020810135906001600160a01b03604082013516906060013562000647565b62000266620008ef565b6200019a60048036036040811015620003cf57600080fd5b810190602081018135600160201b811115620003ea57600080fd5b820183602082011115620003fd57600080fd5b803590602001918460018302840111600160201b831117156200041f57600080fd5b91935091503560ff16620008f5565b62000266600480360360608110156200044657600080fd5b50803590602081013590604001356200097c565b6200019a62000b3b565b600181815481106200047257fe5b6000918252602090912001546001600160a01b0316905081565b60ff8082166000908152600d60205260409020541615620004ac57600080fd5b601860ff821610620004bd57600080fd5b80600b8484604051808383808284379190910194855250506040805160209481900385019020805460ff1990811660ff978816179091559486166000908152600d9094528320805490941660019081179094555050600c8054928301815590526200054c907fdf6966c971051c3d54ec59162606531493a51404a002842f56009d7e5cf4a8c701848462000d19565b50505050565b8051602081830181018051600b8252928201919093012091525460ff1681565b60015490565b6006546001600160a01b031681565b336001600160a01b037f0000000000000000000000000000000000000000000000000000000000000000161462000605576040805162461bcd60e51b815260206004820152601f60248201527f4f6e6c7920565246436f6f7264696e61746f722063616e2066756c66696c6c00604482015290519081900360640190fd5b62000611828262000b47565b5050565b805160208183018101805160098252928201919093012091525460ff1681565b60006020819052908152604090205481565b600654600554600254600e5460085460405160009586956001600160a01b03918216959082169490939116918b916004916007903090620006889062000d9e565b6001600160a01b038a81168252898116602083015260408201899052878116608083015260a0820187905260e08201859052821661012082015261014060608201818152600c918301919091526b776561746865722d7761727360a01b61016083015261018060c08301818152875460026101006001831615810260001901909216049285018390529091908401906101a085019089908015620007705780601f10620007445761010080835404028352916020019162000770565b820191906000526020600020905b8154815290600101906020018083116200075257829003601f168201915b5050848103825286546002600019610100600184161502019091160480825260209091019087908015620007e85780601f10620007bc57610100808354040283529160200191620007e8565b820191906000526020600020905b815481529060010190602001808311620007ca57829003601f168201915b50509c50505050505050505050505050604051809103906000f08015801562000815573d6000803e3d6000fd5b50604080516231236560e61b8152336004820152602481018890526001600160a01b03878116604483015260648201879052915192935090831691630c48d9409160848082019260009290919082900301818387803b1580156200087857600080fd5b505af11580156200088d573d6000803e3d6000fd5b50506001805480820182556000919091527fb10e2d527612073b26eecdfd717e6a320cf44b4afac2b0732d9fcbe2b7fa0cf60180546001600160a01b0319166001600160a01b03851617905550620008e6905062000b8a565b50949350505050565b60085481565b60ff8082166000908152600a602052604090205416156200091557600080fd5b600760ff8216106200092657600080fd5b8060098484604051808383808284379190910194855250506040805160209481900385019020805460ff1990811660ff97881617909155959094166000908152600a909352505020805490911660011790555050565b60007f00000000000000000000000000000000000000000000000000000000000000006001600160a01b0316634000aea07f000000000000000000000000000000000000000000000000000000000000000085878660405160200180838152602001828152602001925050506040516020818303038152906040526040518463ffffffff1660e01b815260040180846001600160a01b0316815260200183815260200180602001828103825283818151815260200191508051906020019080838360005b8381101562000a5a57818101518382015260200162000a40565b50505050905090810190601f16801562000a885780820380516001836020036101000a031916815260200191505b50945050505050602060405180830381600087803b15801562000aaa57600080fd5b505af115801562000abf573d6000803e3d6000fd5b505050506040513d602081101562000ad657600080fd5b505060008481526020819052604081205462000af89086908590309062000c44565b60008681526020819052604090205490915062000b1790600162000c8b565b60008681526020819052604090205562000b32858262000ced565b95945050505050565b62000b4562000b8a565b565b6000601882069050600c818154811062000b5d57fe5b90600052602060002001600490805460018160011615610100020316600290046200054c92919062000dac565b600254604080516370a0823160e01b815230600482015290516001600160a01b037f000000000000000000000000000000000000000000000000000000000000000016916370a08231916024808301926020929190829003018186803b15801562000bf457600080fd5b505afa15801562000c09573d6000803e3d6000fd5b505050506040513d602081101562000c2057600080fd5b5051101562000c2e57600080fd5b62000c416003546002546134fb6200097c565b50565b60408051602080820196909652808201949094526001600160a01b039290921660608401526080808401919091528151808403909101815260a09092019052805191012090565b60008282018381101562000ce6576040805162461bcd60e51b815260206004820152601b60248201527f536166654d6174683a206164646974696f6e206f766572666c6f770000000000604482015290519081900360640190fd5b9392505050565b604080516020808201949094528082019290925280518083038201815260609092019052805191012090565b828054600181600116156101000203166002900490600052602060002090601f016020900481019282601f1062000d5c5782800160ff1982351617855562000d8c565b8280016001018555821562000d8c579182015b8281111562000d8c57823582559160200191906001019062000d6f565b5062000d9a92915062000e26565b5090565b612aa58062000e3e83390190565b828054600181600116156101000203166002900490600052602060002090601f016020900481019282601f1062000de7578054855562000d8c565b8280016001018555821562000d8c57600052602060002091601f016020900482015b8281111562000d8c57825482559160010191906001019062000e09565b5b8082111562000d9a576000815560010162000e2756fe60806040526001600b553480156200001657600080fd5b5060405162002aa538038062002aa583398181016040526101408110156200003d57600080fd5b8151602083015160408085015160608601805192519496939591949391820192846401000000008211156200007157600080fd5b9083019060208201858111156200008757600080fd5b8251640100000000811182820188101715620000a257600080fd5b82525081516020918201929091019080838360005b83811015620000d1578181015183820152602001620000b7565b50505050905090810190601f168015620000ff5780820380516001836020036101000a031916815260200191505b506040818152602083015190830151606090930180519195939492939291846401000000008211156200013157600080fd5b9083019060208201858111156200014757600080fd5b82516401000000008111828201881017156200016257600080fd5b82525081516020918201929091019080838360005b838110156200019157818101518382015260200162000177565b50505050905090810190601f168015620001bf5780820380516001836020036101000a031916815260200191505b50604081815260208301519201805192949193919284640100000000821115620001e857600080fd5b908301906020820185811115620001fe57600080fd5b82516401000000008111828201881017156200021957600080fd5b82525081516020918201929091019080838360005b83811015620002485781810151838201526020016200022e565b50505050905090810190601f168015620002765780820380516001836020036101000a031916815260200191505b5060408181526020928301516004805460026001821615610100026000190190911604601f81018690048602850186019093528284529095509193509091830182828015620003095780601f10620002dd5761010080835404028352916020019162000309565b820191906000526020600020905b815481529060010190602001808311620002eb57829003601f168201915b5050505050600287828181600490805190602001906200032b929190620004a0565b506000805460ff19169055600580546001600160a01b0319166001600160a01b03929092169190911790555050600655506200036e6301ffc9a760e01b6200041b565b62000380630271189760e51b6200041b565b600e80546001600160a01b03808c166001600160a01b031992831617909255600f8a905560118054928d16929091169190911790558351620003ca906010906020870190620004a0565b50601385905560158390558151620003ea906016906020850190620004a0565b50601780546001600160a01b0319166001600160a01b0392909216919091179055506200053c975050505050505050565b6001600160e01b031980821614156200047b576040805162461bcd60e51b815260206004820152601c60248201527f4552433136353a20696e76616c696420696e7465726661636520696400000000604482015290519081900360640190fd5b6001600160e01b0319166000908152600d60205260409020805460ff19166001179055565b828054600181600116156101000203166002900490600052602060002090601f016020900481019282601f10620004e357805160ff191683800117855562000513565b8280016001018555821562000513579182015b8281111562000513578251825591602001919060010190620004f6565b506200052192915062000525565b5090565b5b8082111562000521576000815560010162000526565b612559806200054c6000396000f3fe608060405234801561001057600080fd5b50600436106101da5760003560e01c80635c39fcc111610104578063bd8d3c0c116100a2578063efaa55a011610071578063efaa55a0146105ff578063f23a6e611461061c578063f71d96cb146106af578063fd0160fe146106cc576101da565b8063bd8d3c0c14610577578063d65ab5f2146105e7578063dfbf53ae146105ef578063ed9d3b88146105f7576101da565b806393694f67116100de57806393694f671461041b57806397b2f55614610423578063a3f584a41461042b578063bc197c8114610433576101da565b80635c39fcc1146103ee578063614a4e44146103f65780636eb7826314610413576101da565b80631fcc8bb21161017c5780633feef58a1161014b5780633feef58a146103b9578063473bc223146103d65780634c2412a2146103de57806355c9e926146103e6576101da565b80631fcc8bb21461037b57806327e235e31461038357806327f99a27146103a957806333b16d93146103b1576101da565b8063055ad42e116101b8578063055ad42e146102635780630c48d9401461028c578063106e2c57146102c657806314c4175114610343576101da565b806301ffc9a7146101df578063042f2b651461021a578063053e4fb61461023f575b600080fd5b610206600480360360208110156101f557600080fd5b50356001600160e01b0319166106d4565b604080519115158252519081900360200190f35b61023d6004803603604081101561023057600080fd5b50803590602001356106f7565b005b6102476107c2565b604080516001600160a01b039092168252519081900360200190f35b61026b6107d1565b6040518082600181111561027b57fe5b815260200191505060405180910390f35b61023d600480360360808110156102a257600080fd5b506001600160a01b03813581169160208101359160408201351690606001356107da565b6102ce61082a565b6040805160208082528351818301528351919283929083019185019080838360005b838110156103085781810151838201526020016102f0565b50505050905090810190601f1680156103355780820380516001836020036101000a031916815260200191505b509250505060405180910390f35b6103696004803603602081101561035957600080fd5b50356001600160a01b03166108b8565b60408051918252519081900360200190f35b6103696108ca565b6103696004803603602081101561039957600080fd5b50356001600160a01b03166108d0565b6103696108e2565b61023d6108e8565b61023d600480360360208110156103cf57600080fd5b5035610d9f565b6102ce610e92565b610369610eed565b610369610ef3565b610247610ef9565b6103696004803603602081101561040c57600080fd5b5035610f08565b610206610f26565b610247610f2f565b610369610f3e565b61023d610f44565b61055a600480360360a081101561044957600080fd5b6001600160a01b038235811692602081013590911691810190606081016040820135600160201b81111561047c57600080fd5b82018360208201111561048e57600080fd5b803590602001918460208302840111600160201b831117156104af57600080fd5b919390929091602081019035600160201b8111156104cc57600080fd5b8201836020820111156104de57600080fd5b803590602001918460208302840111600160201b831117156104ff57600080fd5b919390929091602081019035600160201b81111561051c57600080fd5b82018360208201111561052e57600080fd5b803590602001918460018302840111600160201b8311171561054f57600080fd5b509092509050610f6a565b604080516001600160e01b03199092168252519081900360200190f35b61057f610f7e565b60405180886001600160a01b03168152602001876001600160a01b031681526020018681526020018581526020018460018111156105b957fe5b8152602001836001600160a01b03168152602001821515815260200197505050505050505060405180910390f35b61023d610fc7565b610247611049565b610369611058565b61023d6004803603602081101561061557600080fd5b503561105e565b61055a600480360360a081101561063257600080fd5b6001600160a01b03823581169260208101359091169160408201359160608101359181019060a081016080820135600160201b81111561067157600080fd5b82018360208201111561068357600080fd5b803590602001918460018302840111600160201b831117156106a457600080fd5b5090925090506110c5565b610206600480360360208110156106c557600080fd5b50356110f2565b6102ce611107565b6001600160e01b031981166000908152600d602052604090205460ff165b919050565b6000828152600c602052604090205482906001600160a01b0316331461074e5760405162461bcd60e51b81526004018080602001828103825260288152602001806124fc6028913960400191505060405180910390fd5b6000818152600c602052604080822080546001600160a01b03191690555182917f7cc135e0cebb02c3480ae5d74d377283180a2601f8f644edf7987b009316c63a91a260408051602080820185905282518083038201815291830190925280516107bc926012920190612391565b50505050565b6005546001600160a01b031681565b60005460ff1681565b601880546001600160a01b03199081166001600160a01b0396871617918290556019805490911693861693909317835584166000908152601d602052604080822094909455915490931681522055565b6012805460408051602060026001851615610100026000190190941693909304601f810184900484028201840190925281815292918301828280156108b05780601f10610885576101008083540402835291602001916108b0565b820191906000526020600020905b81548152906001019060200180831161089357829003601f168201915b505050505081565b601d6020526000908152604090205481565b60135481565b60146020526000908152604090205481565b601a5481565b60026108f2610ef3565b146108fc57600080fd5b3360009081526014602052604090205461091557600080fd5b600160005460ff16600181111561092857fe5b1461093257600080fd5b6012546002600019610100600184161502019091160461095157600080fd5b601e5460ff1661096057600080fd5b6000600260008154811061097057fe5b906000526020600020015490506000600260018154811061098d57fe5b9060005260206000200154905060006109a583611162565b905060006109b283611162565b905080821415610bbf57600554604080516302b5a6bb60e51b81526004810187905290516000926001600160a01b0316916356b4d760916024808301926020929190829003018186803b158015610a0857600080fd5b505afa158015610a1c573d6000803e3d6000fd5b505050506040513d6020811015610a3257600080fd5b5051600554604080516302b5a6bb60e51b81526004810188905290519293506000926001600160a01b03909216916356b4d76091602480820192602092909190829003018186803b158015610a8657600080fd5b505afa158015610a9a573d6000803e3d6000fd5b505050506040513d6020811015610ab057600080fd5b50516001600160a01b038381166000818152601460205260408082208054858716845282842080549285905584905560055483516326f7af4f60e01b8152600481019690965260248601829052925196975095909491909116926326f7af4f92604480830193919282900301818387803b158015610b2d57600080fd5b505af1158015610b41573d6000803e3d6000fd5b5050600554604080516326f7af4f60e01b81526001600160a01b0388811660048301526024820187905291519190921693506326f7af4f9250604480830192600092919082900301818387803b158015610b9a57600080fd5b505af1158015610bae573d6000803e3d6000fd5b505050505050505050505050610d9d565b60008082841015610bd4575083905084610be2565b82841115610be25750849050835b600554604080516302b5a6bb60e51b81526004810185905290516000926001600160a01b0316916356b4d760916024808301926020929190829003018186803b158015610c2e57600080fd5b505afa158015610c42573d6000803e3d6000fd5b505050506040513d6020811015610c5857600080fd5b5051600554604080516302b5a6bb60e51b81526004810186905290519293506000926001600160a01b03909216916356b4d76091602480820192602092909190829003018186803b158015610cac57600080fd5b505afa158015610cc0573d6000803e3d6000fd5b505050506040513d6020811015610cd657600080fd5b50516001600160a01b038381166000818152601460205260408082208054858716845282842080549285905584905560055483516326f7af4f60e01b815260048101969096528282016024870152925196975095909491909116926326f7af4f92604480830193919282900301818387803b158015610d5457600080fd5b505af1158015610d68573d6000803e3d6000fd5b5050601c80546001600160a01b0319166001600160a01b03881617905550610d9290506001611468565b505050505050505050505b565b6018546001600160a01b0316331480610dc257506019546001600160a01b031633145b610dcb57600080fd5b6000805460ff166001811115610ddd57fe5b14610de757600080fd5b6012546002600019610100600184161502019091160415610e0757600080fd5b610e1081611488565b3360008181526014602052604080822080549083905560055482516326f7af4f60e01b8152600481019590955260248501829052915190936001600160a01b03909216926326f7af4f926044808201939182900301818387803b158015610e7657600080fd5b505af1158015610e8a573d6000803e3d6000fd5b505050505050565b6004805460408051602060026001851615610100026000190190941693909304601f810184900484028201840190925281815292918301828280156108b05780601f10610885576101008083540402835291602001916108b0565b60065481565b60035490565b6018546001600160a01b031681565b60028181548110610f1557fe5b600091825260209091200154905081565b601e5460ff1681565b6019546001600160a01b031681565b60035481565b6019546001600160a01b03163314610f5b57600080fd5b601e805460ff19166001179055565b63bc197c8160e01b98975050505050505050565b6018546019546001600160a01b039182166000818152601d602052604080822054938516808352908220549154601c54601e5494979296939460ff928316949190911692911690565b6000805460ff166001811115610fd957fe5b14610fe357600080fd5b6040517f762f260439bb4be3ef6e4dc2786e2e7bd187d3d80b79057d7a424fe98563e33590600090a16110146114c6565b61101e6001611468565b6040517f1084d47e99647565312e58bba004b0fc3088c683fa22f3925f1cf5fb0955402990600090a1565b601c546001600160a01b031681565b601b5481565b601b5481148061106f5750601a5481145b61107857600080fd5b6017546001600160a01b031633148061109b57506018546001600160a01b031633145b806110b057506019546001600160a01b031633145b6110b957600080fd5b6110c2816116c5565b50565b6001600160a01b038516600090815260146020526040902083905563f23a6e6160e01b9695505050505050565b60016020526000908152604090205460ff1681565b6010805460408051602060026001851615610100026000190190941693909304601f810184900484028201840190925281815292918301828280156108b05780601f10610885576101008083540402835291602001916108b0565b60055460408051630985da0360e31b8152600481018490529051600092839283926001600160a01b0390921691634c2ed01891602480820192608092909190829003018186803b1580156111b557600080fd5b505afa1580156111c9573d6000803e3d6000fd5b505050506040513d60808110156111df57600080fd5b5060408082015160609092015160175491516365eae2db60e01b81526020600482019081526010805460026000196001838116156101000291909101909216046024850181905296985093965092946001600160a01b03909416936365eae2db93928291604490910190849080156112985780601f1061126d57610100808354040283529160200191611298565b820191906000526020600020905b81548152906001019060200180831161127b57829003601f168201915b50509250505060206040518083038186803b1580156112b657600080fd5b505afa1580156112ca573d6000803e3d6000fd5b505050506040513d60208110156112e057600080fd5b505160ff8481169116141561130857611305600a6112ff83600b6116e3565b90611745565b90505b601754604051634eb1b26760e11b81526020600482019081526012805460026000196001831615610100020190911604602484018190526001600160a01b0390941693639d6364ce939192918291604490910190849080156113ab5780601f10611380576101008083540402835291602001916113ab565b820191906000526020600020905b81548152906001019060200180831161138e57829003601f168201915b50509250505060206040518083038186803b1580156113c957600080fd5b505afa1580156113dd573d6000803e3d6000fd5b505050506040513d60208110156113f357600080fd5b505160ff8381169116141561141557611412600a6112ff83600b6116e3565b90505b6000611420866117af565b9050600061143460046112ff8460056116e3565b9050600061144188611aa2565b9050600061144f8383611b8b565b905061145b85826116e3565b9998505050505050505050565b6000805482919060ff19166001838181111561148057fe5b021790555050565b6000805460ff16600181111561149a57fe5b146114a457600080fd5b6000908152600160205260409020805460ff1916905560038054600019019055565b6114ce61240f565b6015546114e3903063042f2b6560e01b611be5565b905060606115936040518060600160405280603281526020016124a9603291396010805460408051602060026001851615610100026000190190941693909304601f810184900484028201840190925281815292918301828280156115895780601f1061155e57610100808354040283529160200191611589565b820191906000526020600020905b81548152906001019060200180831161156c57829003601f168201915b5050505050611c0a565b90506115be81604051806040016040528060078152602001662661707069643d60c81b815250611c0a565b60168054604080516020601f60026000196101006001881615020190951694909404938401819004810282018101909252828152939450611625938593909290918301828280156115895780601f1061155e57610100808354040283529160200191611589565b60408051808201909152600381526219d95d60ea1b602082015290915061164e90839083611cc5565b6116a5604051806040016040528060048152602001630e0c2e8d60e31b8152506040518060400160405280600e81526020016d3bb2b0ba3432b917181736b0b4b760911b81525084611cc59092919063ffffffff16565b601154600f546116c0916001600160a01b0316908490611ce3565b505050565b6006546116d0610ef3565b106116da57600080fd5b6110c281611eb1565b6000826116f25750600061173f565b828202828482816116ff57fe5b041461173c5760405162461bcd60e51b81526004018080602001828103825260218152602001806124db6021913960400191505060405180910390fd5b90505b92915050565b600080821161179b576040805162461bcd60e51b815260206004820152601a60248201527f536166654d6174683a206469766973696f6e206279207a65726f000000000000604482015290519081900360640190fd5b60008284816117a657fe5b04949350505050565b6000806000806000806000600560009054906101000a90046001600160a01b03166001600160a01b031663835a4398896040518263ffffffff1660e01b81526004018082815260200191505060c06040518083038186803b15801561181357600080fd5b505afa158015611827573d6000803e3d6000fd5b505050506040513d60c081101561183d57600080fd5b810190808051906020019092919080519060200190929190805190602001909291908051906020019092919080519060200190929190805190602001909291905050509550955095509550955095506000600560009054906101000a90046001600160a01b03166001600160a01b03166346e6f13d8a6040518263ffffffff1660e01b81526004018082815260200191505060006040518083038186803b1580156118e757600080fd5b505afa1580156118fb573d6000803e3d6000fd5b505050506040513d6000823e601f3d908101601f19168201604052608081101561192457600080fd5b8101908080516040519392919084600160201b82111561194357600080fd5b90830190602082018581111561195857600080fd5b8251600160201b81118282018810171561197157600080fd5b82525081516020918201929091019080838360005b8381101561199e578181015183820152602001611986565b50505050905090810190601f1680156119cb5780820380516001836020036101000a031916815260200191505b50604090815201519350505081151590506119f2578660ff169750505050505050506106f2565b8060011415611a0d578360ff169750505050505050506106f2565b8060021415611a2757505060ff1694506106f29350505050565b8060031415611a42578460ff169750505050505050506106f2565b8060041415611a5c575060ff1695506106f2945050505050565b8060051415611a77578360ff169750505050505050506106f2565b8060061415611a9157505060ff1694506106f29350505050565b505060ff9093169695505050505050565b6000806000806000600560009054906101000a90046001600160a01b03166001600160a01b0316638423b077876040518263ffffffff1660e01b81526004018082815260200191505060806040518083038186803b158015611b0357600080fd5b505afa158015611b17573d6000803e3d6000fd5b505050506040513d6080811015611b2d57600080fd5b508051602082015160408301516060909301519196509450909250905060ff808516908416811015611b5f575060ff83165b808360ff161115611b70575060ff82165b808260ff161115611b81575060ff81165b9695505050505050565b60008282018381101561173c576040805162461bcd60e51b815260206004820152601b60248201527f536166654d6174683a206164646974696f6e206f766572666c6f770000000000604482015290519081900360640190fd5b611bed61240f565b611bf561240f565b611c0181868686611f35565b95945050505050565b606082826040516020018083805190602001908083835b60208310611c405780518252601f199092019160209182019101611c21565b51815160209384036101000a600019018019909216911617905285519190930192850191508083835b60208310611c885780518252601f199092019160209182019101611c69565b6001836020036101000a03801982511681845116808217855250505050505090500192505050604051602081830303815290604052905092915050565b6080830151611cd49083611f72565b60808301516116c09082611f72565b600b546040805130606090811b60208084019190915260348084018690528451808503909101815260549093018452825192810192909220908601939093526000838152600c90915281812080546001600160a01b0319166001600160a01b038816179055905182917fb5e6e01e79f91267dc17b4e6314d5d4d03593d2ceee0fbb452b750bd70ea5af991a26009546001600160a01b0316634000aea08584611d8b87611f89565b6040518463ffffffff1660e01b815260040180846001600160a01b0316815260200183815260200180602001828103825283818151815260200191508051906020019080838360005b83811015611dec578181015183820152602001611dd4565b50505050905090810190601f168015611e195780820380516001836020036101000a031916815260200191505b50945050505050602060405180830381600087803b158015611e3a57600080fd5b505af1158015611e4e573d6000803e3d6000fd5b505050506040513d6020811015611e6457600080fd5b5051611ea15760405162461bcd60e51b81526004018080602001828103825260238152602001806124866023913960400191505060405180910390fd5b600b805460010190559392505050565b6000805460ff166001811115611ec357fe5b14611ecd57600080fd5b611ed5612444565b600180825260008381526020829052604081209251835460ff19169015151790925560028054808301825592527f405787fa12a823e0f2b7631cc41b3ba8828b3321ca811111fa75cd3aa3bb5ace90910191909155600380549091019055565b611f3d61240f565b611f4d85608001516101006120ad565b50509183526001600160a01b031660208301526001600160e01b031916604082015290565b611f7f82600383516120e7565b6116c082826121bb565b6060634042994660e01b6000808460000151856020015186604001518760600151600189608001516000015160405160240180896001600160a01b03168152602001888152602001878152602001866001600160a01b03168152602001856001600160e01b031916815260200184815260200183815260200180602001828103825283818151815260200191508051906020019080838360005b8381101561203b578181015183820152602001612023565b50505050905090810190601f1680156120685780820380516001836020036101000a031916815260200191505b5060408051601f198184030181529190526020810180516001600160e01b03166001600160e01b0319909d169c909c17909b5250989950505050505050505050919050565b6120b5612456565b60208206156120ca5760208206602003820191505b506020828101829052604080518085526000815290920101905290565b60178111612108576121028360e0600585901b1683176121d5565b506116c0565b60ff811161213257612125836018611fe0600586901b16176121d5565b50612102838260016121ed565b61ffff811161215d57612150836019611fe0600586901b16176121d5565b50612102838260026121ed565b63ffffffff811161218a5761217d83601a611fe0600586901b16176121d5565b50612102838260046121ed565b67ffffffffffffffff81116116c0576121ae83601b611fe0600586901b16176121d5565b506107bc838260086121ed565b6121c3612456565b61173c8384600001515184855161220e565b6121dd612456565b61173c83846000015151846122ba565b6121f5612456565b612206848560000151518585612305565b949350505050565b612216612456565b825182111561222457600080fd5b8460200151828501111561224e5761224e856122468760200151878601612363565b60020261237a565b60008086518051876020830101935080888701111561226d5787860182525b505050602084015b602084106122945780518252601f199093019260209182019101612275565b51815160001960208690036101000a019081169019919091161790525083949350505050565b6122c2612456565b836020015183106122de576122de84856020015160020261237a565b8351805160208583010184815350808514156122fb576001810182525b5093949350505050565b61230d612456565b8460200151848301111561232a5761232a8585840160020261237a565b60006001836101000a0390508551838682010185831982511617815250805184870111156123585783860181525b509495945050505050565b60008183111561237457508161173f565b50919050565b815161238683836120ad565b506107bc83826121bb565b828054600181600116156101000203166002900490600052602060002090601f016020900481019282601f106123d257805160ff19168380011785556123ff565b828001600101855582156123ff579182015b828111156123ff5782518255916020019190600101906123e4565b5061240b929150612470565b5090565b6040805160a08101825260008082526020820181905291810182905260608101919091526080810161243f612456565b905290565b60408051602081019091526000815290565b604051806040016040528060608152602001600081525090565b5b8082111561240b576000815560010161247156fe756e61626c6520746f207472616e73666572416e6443616c6c20746f206f7261636c65687474703a2f2f6170692e6f70656e776561746865726d61702e6f72672f646174612f322e352f776561746865723f69643d536166654d6174683a206d756c7469706c69636174696f6e206f766572666c6f77536f75726365206d75737420626520746865206f7261636c65206f66207468652072657175657374a2646970667358221220f870221686cb7db655d5374b9f60acc24fea08b5711c01912f80933aaa34ae2364736f6c634300060c0033a26469706673582212205e4c9caf35c0500914e8c80d4e65386e4f05481c1d3cf8caf083cf56a6be054464736f6c634300060c0033",
  "bytecodeSha1": "dde71bc3f624d5d4a5eb9b16fd80159c14592710",
  "compiler": {
    "evm_version": "istanbul",
    "optimizer": {
      "enabled": true,
      "runs": 200
    },
    "version": "0.6.12+commit.27d51765"
  },
  "contractName": "WeatherWarsFactory",
  "language": "Solidity",
  "natspec": {
    "kind": "dev",
    "methods": {
      "requestRandomness(bytes32,uint256,uint256)": {
        "details": "See \"SECURITY CONSIDERATIONS\" above for more information on _seed.The fulfillRandomness method receives the output, once it's providedby the Oracle, and verified by the vrfCoordinator.The _keyHash must already be registered with the VRFCoordinator, andthe _fee must exceed the fee specified during registration of the_keyHash.The returned requestId can be used to distinguish responses to *concurrent requests. It is passed as the first argument tofulfillRandomness.",
        "notice": "requestRandomness initiates a request for VRF output given _seed",
        "params": {
          "_fee": "The amount of LINK to send with the request",
          "_keyHash": "ID of public key against which randomness is generated",
          "_seed": "seed mixed into the input of the VRF"
        },
        "returns": {
          "requestId": "unique ID for this request"
        }
      }
    },
    "version": 1
  },
  "opcodes": "PUSH1 0x80 PUSH1 0x40 MSTORE CALLVALUE DUP1 ISZERO PUSH3 0x11 JUMPI PUSH1 0x0 DUP1 REVERT JUMPDEST POP PUSH1 0x4 CALLDATASIZE LT PUSH3 0xE2 JUMPI PUSH1 0x0 CALLDATALOAD PUSH1 0xE0 SHR DUP1 PUSH4 0x9D6364CE GT PUSH3 0x99 JUMPI DUP1 PUSH4 0xC2939D97 GT PUSH3 0x6F JUMPI DUP1 PUSH4 0xC2939D97 EQ PUSH3 0x3AD JUMPI DUP1 PUSH4 0xD1C8CC53 EQ PUSH3 0x3B7 JUMPI DUP1 PUSH4 0xDC6CFE10 EQ PUSH3 0x42E JUMPI DUP1 PUSH4 0xE1C7392A EQ PUSH3 0x45A JUMPI PUSH3 0xE2 JUMP JUMPDEST DUP1 PUSH4 0x9D6364CE EQ PUSH3 0x2A8 JUMPI DUP1 PUSH4 0x9E317F12 EQ PUSH3 0x352 JUMPI DUP1 PUSH4 0xB3242853 EQ PUSH3 0x372 JUMPI PUSH3 0xE2 JUMP JUMPDEST DUP1 PUSH4 0x117A5B90 EQ PUSH3 0xE7 JUMPI DUP1 PUSH4 0x5C782DDA EQ PUSH3 0x123 JUMPI DUP1 PUSH4 0x65EAE2DB EQ PUSH3 0x19C JUMPI DUP1 PUSH4 0x6CE079FE EQ PUSH3 0x25C JUMPI DUP1 PUSH4 0x7DC0D1D0 EQ PUSH3 0x278 JUMPI DUP1 PUSH4 0x94985DDD EQ PUSH3 0x282 JUMPI JUMPDEST PUSH1 0x0 DUP1 REVERT JUMPDEST PUSH3 0x107 PUSH1 0x4 DUP1 CALLDATASIZE SUB PUSH1 0x20 DUP2 LT ISZERO PUSH3 0xFF JUMPI PUSH1 0x0 DUP1 REVERT JUMPDEST POP CALLDATALOAD PUSH3 0x464 JUMP JUMPDEST PUSH1 0x40 DUP1 MLOAD PUSH1 0x1 PUSH1 0x1 PUSH1 0xA0 SHL SUB SWAP1 SWAP3 AND DUP3 MSTORE MLOAD SWAP1 DUP2 SWAP1 SUB PUSH1 0x20 ADD SWAP1 RETURN JUMPDEST PUSH3 0x19A PUSH1 0x4 DUP1 CALLDATASIZE SUB PUSH1 0x40 DUP2 LT ISZERO PUSH3 0x13B JUMPI PUSH1 0x0 DUP1 REVERT JUMPDEST DUP2 ADD SWAP1 PUSH1 0x20 DUP2 ADD DUP2 CALLDATALOAD PUSH1 0x1 PUSH1 0x20 SHL DUP2 GT ISZERO PUSH3 0x156 JUMPI PUSH1 0x0 DUP1 REVERT JUMPDEST DUP3 ADD DUP4 PUSH1 0x20 DUP3 ADD GT ISZERO PUSH3 0x169 JUMPI PUSH1 0x0 DUP1 REVERT JUMPDEST DUP1 CALLDATALOAD SWAP1 PUSH1 0x20 ADD SWAP2 DUP5 PUSH1 0x1 DUP4 MUL DUP5 ADD GT PUSH1 0x1 PUSH1 0x20 SHL DUP4 GT OR ISZERO PUSH3 0x18B JUMPI PUSH1 0x0 DUP1 REVERT JUMPDEST SWAP2 SWAP4 POP SWAP2 POP CALLDATALOAD PUSH1 0xFF AND PUSH3 0x48C JUMP JUMPDEST STOP JUMPDEST PUSH3 0x246 PUSH1 0x4 DUP1 CALLDATASIZE SUB PUSH1 0x20 DUP2 LT ISZERO PUSH3 0x1B4 JUMPI PUSH1 0x0 DUP1 REVERT JUMPDEST DUP2 ADD SWAP1 PUSH1 0x20 DUP2 ADD DUP2 CALLDATALOAD PUSH1 0x1 PUSH1 0x20 SHL DUP2 GT ISZERO PUSH3 0x1CF JUMPI PUSH1 0x0 DUP1 REVERT JUMPDEST DUP3 ADD DUP4 PUSH1 0x20 DUP3 ADD GT ISZERO PUSH3 0x1E2 JUMPI PUSH1 0x0 DUP1 REVERT JUMPDEST DUP1 CALLDATALOAD SWAP1 PUSH1 0x20 ADD SWAP2 DUP5 PUSH1 0x1 DUP4 MUL DUP5 ADD GT PUSH1 0x1 PUSH1 0x20 SHL DUP4 GT OR ISZERO PUSH3 0x204 JUMPI PUSH1 0x0 DUP1 REVERT JUMPDEST SWAP2 SWAP1 DUP1 DUP1 PUSH1 0x1F ADD PUSH1 0x20 DUP1 SWAP2 DIV MUL PUSH1 0x20 ADD PUSH1 0x40 MLOAD SWAP1 DUP2 ADD PUSH1 0x40 MSTORE DUP1 SWAP4 SWAP3 SWAP2 SWAP1 DUP2 DUP2 MSTORE PUSH1 0x20 ADD DUP4 DUP4 DUP1 DUP3 DUP5 CALLDATACOPY PUSH1 0x0 SWAP3 ADD SWAP2 SWAP1 SWAP2 MSTORE POP SWAP3 SWAP6 POP PUSH3 0x552 SWAP5 POP POP POP POP POP JUMP JUMPDEST PUSH1 0x40 DUP1 MLOAD PUSH1 0xFF SWAP1 SWAP3 AND DUP3 MSTORE MLOAD SWAP1 DUP2 SWAP1 SUB PUSH1 0x20 ADD SWAP1 RETURN JUMPDEST PUSH3 0x266 PUSH3 0x572 JUMP JUMPDEST PUSH1 0x40 DUP1 MLOAD SWAP2 DUP3 MSTORE MLOAD SWAP1 DUP2 SWAP1 SUB PUSH1 0x20 ADD SWAP1 RETURN JUMPDEST PUSH3 0x107 PUSH3 0x578 JUMP JUMPDEST PUSH3 0x19A PUSH1 0x4 DUP1 CALLDATASIZE SUB PUSH1 0x40 DUP2 LT ISZERO PUSH3 0x29A JUMPI PUSH1 0x0 DUP1 REVERT JUMPDEST POP DUP1 CALLDATALOAD SWAP1 PUSH1 0x20 ADD CALLDATALOAD PUSH3 0x587 JUMP JUMPDEST PUSH3 0x246 PUSH1 0x4 DUP1 CALLDATASIZE SUB PUSH1 0x20 DUP2 LT ISZERO PUSH3 0x2C0 JUMPI PUSH1 0x0 DUP1 REVERT JUMPDEST DUP2 ADD SWAP1 PUSH1 0x20 DUP2 ADD DUP2 CALLDATALOAD PUSH1 0x1 PUSH1 0x20 SHL DUP2 GT ISZERO PUSH3 0x2DB JUMPI PUSH1 0x0 DUP1 REVERT JUMPDEST DUP3 ADD DUP4 PUSH1 0x20 DUP3 ADD GT ISZERO PUSH3 0x2EE JUMPI PUSH1 0x0 DUP1 REVERT JUMPDEST DUP1 CALLDATALOAD SWAP1 PUSH1 0x20 ADD SWAP2 DUP5 PUSH1 0x1 DUP4 MUL DUP5 ADD GT PUSH1 0x1 PUSH1 0x20 SHL DUP4 GT OR ISZERO PUSH3 0x310 JUMPI PUSH1 0x0 DUP1 REVERT JUMPDEST SWAP2 SWAP1 DUP1 DUP1 PUSH1 0x1F ADD PUSH1 0x20 DUP1 SWAP2 DIV MUL PUSH1 0x20 ADD PUSH1 0x40 MLOAD SWAP1 DUP2 ADD PUSH1 0x40 MSTORE DUP1 SWAP4 SWAP3 SWAP2 SWAP1 DUP2 DUP2 MSTORE PUSH1 0x20 ADD DUP4 DUP4 DUP1 DUP3 DUP5 CALLDATACOPY PUSH1 0x0 SWAP3 ADD SWAP2 SWAP1 SWAP2 MSTORE POP SWAP3 SWAP6 POP PUSH3 0x615 SWAP5 POP POP POP POP POP JUMP JUMPDEST PUSH3 0x266 PUSH1 0x4 DUP1 CALLDATASIZE SUB PUSH1 0x20 DUP2 LT ISZERO PUSH3 0x36A JUMPI PUSH1 0x0 DUP1 REVERT JUMPDEST POP CALLDATALOAD PUSH3 0x635 JUMP JUMPDEST PUSH3 0x266 PUSH1 0x4 DUP1 CALLDATASIZE SUB PUSH1 0x80 DUP2 LT ISZERO PUSH3 0x38A JUMPI PUSH1 0x0 DUP1 REVERT JUMPDEST POP DUP1 CALLDATALOAD SWAP1 PUSH1 0x20 DUP2 ADD CALLDATALOAD SWAP1 PUSH1 0x1 PUSH1 0x1 PUSH1 0xA0 SHL SUB PUSH1 0x40 DUP3 ADD CALLDATALOAD AND SWAP1 PUSH1 0x60 ADD CALLDATALOAD PUSH3 0x647 JUMP JUMPDEST PUSH3 0x266 PUSH3 0x8EF JUMP JUMPDEST PUSH3 0x19A PUSH1 0x4 DUP1 CALLDATASIZE SUB PUSH1 0x40 DUP2 LT ISZERO PUSH3 0x3CF JUMPI PUSH1 0x0 DUP1 REVERT JUMPDEST DUP2 ADD SWAP1 PUSH1 0x20 DUP2 ADD DUP2 CALLDATALOAD PUSH1 0x1 PUSH1 0x20 SHL DUP2 GT ISZERO PUSH3 0x3EA JUMPI PUSH1 0x0 DUP1 REVERT JUMPDEST DUP3 ADD DUP4 PUSH1 0x20 DUP3 ADD GT ISZERO PUSH3 0x3FD JUMPI PUSH1 0x0 DUP1 REVERT JUMPDEST DUP1 CALLDATALOAD SWAP1 PUSH1 0x20 ADD SWAP2 DUP5 PUSH1 0x1 DUP4 MUL DUP5 ADD GT PUSH1 0x1 PUSH1 0x20 SHL DUP4 GT OR ISZERO PUSH3 0x41F JUMPI PUSH1 0x0 DUP1 REVERT JUMPDEST SWAP2 SWAP4 POP SWAP2 POP CALLDATALOAD PUSH1 0xFF AND PUSH3 0x8F5 JUMP JUMPDEST PUSH3 0x266 PUSH1 0x4 DUP1 CALLDATASIZE SUB PUSH1 0x60 DUP2 LT ISZERO PUSH3 0x446 JUMPI PUSH1 0x0 DUP1 REVERT JUMPDEST POP DUP1 CALLDATALOAD SWAP1 PUSH1 0x20 DUP2 ADD CALLDATALOAD SWAP1 PUSH1 0x40 ADD CALLDATALOAD PUSH3 0x97C JUMP JUMPDEST PUSH3 0x19A PUSH3 0xB3B JUMP JUMPDEST PUSH1 0x1 DUP2 DUP2 SLOAD DUP2 LT PUSH3 0x472 JUMPI INVALID JUMPDEST PUSH1 0x0 SWAP2 DUP3 MSTORE PUSH1 0x20 SWAP1 SWAP2 KECCAK256 ADD SLOAD PUSH1 0x1 PUSH1 0x1 PUSH1 0xA0 SHL SUB AND SWAP1 POP DUP2 JUMP JUMPDEST PUSH1 0xFF DUP1 DUP3 AND PUSH1 0x0 SWAP1 DUP2 MSTORE PUSH1 0xD PUSH1 0x20 MSTORE PUSH1 0x40 SWAP1 KECCAK256 SLOAD AND ISZERO PUSH3 0x4AC JUMPI PUSH1 0x0 DUP1 REVERT JUMPDEST PUSH1 0x18 PUSH1 0xFF DUP3 AND LT PUSH3 0x4BD JUMPI PUSH1 0x0 DUP1 REVERT JUMPDEST DUP1 PUSH1 0xB DUP5 DUP5 PUSH1 0x40 MLOAD DUP1 DUP4 DUP4 DUP1 DUP3 DUP5 CALLDATACOPY SWAP2 SWAP1 SWAP2 ADD SWAP5 DUP6 MSTORE POP POP PUSH1 0x40 DUP1 MLOAD PUSH1 0x20 SWAP5 DUP2 SWAP1 SUB DUP6 ADD SWAP1 KECCAK256 DUP1 SLOAD PUSH1 0xFF NOT SWAP1 DUP2 AND PUSH1 0xFF SWAP8 DUP9 AND OR SWAP1 SWAP2 SSTORE SWAP5 DUP7 AND PUSH1 0x0 SWAP1 DUP2 MSTORE PUSH1 0xD SWAP1 SWAP5 MSTORE DUP4 KECCAK256 DUP1 SLOAD SWAP1 SWAP5 AND PUSH1 0x1 SWAP1 DUP2 OR SWAP1 SWAP5 SSTORE POP POP PUSH1 0xC DUP1 SLOAD SWAP3 DUP4 ADD DUP2 SSTORE SWAP1 MSTORE PUSH3 0x54C SWAP1 PUSH32 0xDF6966C971051C3D54EC59162606531493A51404A002842F56009D7E5CF4A8C7 ADD DUP5 DUP5 PUSH3 0xD19 JUMP JUMPDEST POP POP POP POP JUMP JUMPDEST DUP1 MLOAD PUSH1 0x20 DUP2 DUP4 ADD DUP2 ADD DUP1 MLOAD PUSH1 0xB DUP3 MSTORE SWAP3 DUP3 ADD SWAP2 SWAP1 SWAP4 ADD KECCAK256 SWAP2 MSTORE SLOAD PUSH1 0xFF AND DUP2 JUMP JUMPDEST PUSH1 0x1 SLOAD SWAP1 JUMP JUMPDEST PUSH1 0x6 SLOAD PUSH1 0x1 PUSH1 0x1 PUSH1 0xA0 SHL SUB AND DUP2 JUMP JUMPDEST CALLER PUSH1 0x1 PUSH1 0x1 PUSH1 0xA0 SHL SUB PUSH32 0x0 AND EQ PUSH3 0x605 JUMPI PUSH1 0x40 DUP1 MLOAD PUSH3 0x461BCD PUSH1 0xE5 SHL DUP2 MSTORE PUSH1 0x20 PUSH1 0x4 DUP3 ADD MSTORE PUSH1 0x1F PUSH1 0x24 DUP3 ADD MSTORE PUSH32 0x4F6E6C7920565246436F6F7264696E61746F722063616E2066756C66696C6C00 PUSH1 0x44 DUP3 ADD MSTORE SWAP1 MLOAD SWAP1 DUP2 SWAP1 SUB PUSH1 0x64 ADD SWAP1 REVERT JUMPDEST PUSH3 0x611 DUP3 DUP3 PUSH3 0xB47 JUMP JUMPDEST POP POP JUMP JUMPDEST DUP1 MLOAD PUSH1 0x20 DUP2 DUP4 ADD DUP2 ADD DUP1 MLOAD PUSH1 0x9 DUP3 MSTORE SWAP3 DUP3 ADD SWAP2 SWAP1 SWAP4 ADD KECCAK256 SWAP2 MSTORE SLOAD PUSH1 0xFF AND DUP2 JUMP JUMPDEST PUSH1 0x0 PUSH1 0x20 DUP2 SWAP1 MSTORE SWAP1 DUP2 MSTORE PUSH1 0x40 SWAP1 KECCAK256 SLOAD DUP2 JUMP JUMPDEST PUSH1 0x6 SLOAD PUSH1 0x5 SLOAD PUSH1 0x2 SLOAD PUSH1 0xE SLOAD PUSH1 0x8 SLOAD PUSH1 0x40 MLOAD PUSH1 0x0 SWAP6 DUP7 SWAP6 PUSH1 0x1 PUSH1 0x1 PUSH1 0xA0 SHL SUB SWAP2 DUP3 AND SWAP6 SWAP1 DUP3 AND SWAP5 SWAP1 SWAP4 SWAP2 AND SWAP2 DUP12 SWAP2 PUSH1 0x4 SWAP2 PUSH1 0x7 SWAP1 ADDRESS SWAP1 PUSH3 0x688 SWAP1 PUSH3 0xD9E JUMP JUMPDEST PUSH1 0x1 PUSH1 0x1 PUSH1 0xA0 SHL SUB DUP11 DUP2 AND DUP3 MSTORE DUP10 DUP2 AND PUSH1 0x20 DUP4 ADD MSTORE PUSH1 0x40 DUP3 ADD DUP10 SWAP1 MSTORE DUP8 DUP2 AND PUSH1 0x80 DUP4 ADD MSTORE PUSH1 0xA0 DUP3 ADD DUP8 SWAP1 MSTORE PUSH1 0xE0 DUP3 ADD DUP6 SWAP1 MSTORE DUP3 AND PUSH2 0x120 DUP3 ADD MSTORE PUSH2 0x140 PUSH1 0x60 DUP3 ADD DUP2 DUP2 MSTORE PUSH1 0xC SWAP2 DUP4 ADD SWAP2 SWAP1 SWAP2 MSTORE PUSH12 0x776561746865722D77617273 PUSH1 0xA0 SHL PUSH2 0x160 DUP4 ADD MSTORE PUSH2 0x180 PUSH1 0xC0 DUP4 ADD DUP2 DUP2 MSTORE DUP8 SLOAD PUSH1 0x2 PUSH2 0x100 PUSH1 0x1 DUP4 AND ISZERO DUP2 MUL PUSH1 0x0 NOT ADD SWAP1 SWAP3 AND DIV SWAP3 DUP6 ADD DUP4 SWAP1 MSTORE SWAP1 SWAP2 SWAP1 DUP5 ADD SWAP1 PUSH2 0x1A0 DUP6 ADD SWAP1 DUP10 SWAP1 DUP1 ISZERO PUSH3 0x770 JUMPI DUP1 PUSH1 0x1F LT PUSH3 0x744 JUMPI PUSH2 0x100 DUP1 DUP4 SLOAD DIV MUL DUP4 MSTORE SWAP2 PUSH1 0x20 ADD SWAP2 PUSH3 0x770 JUMP JUMPDEST DUP3 ADD SWAP2 SWAP1 PUSH1 0x0 MSTORE PUSH1 0x20 PUSH1 0x0 KECCAK256 SWAP1 JUMPDEST DUP2 SLOAD DUP2 MSTORE SWAP1 PUSH1 0x1 ADD SWAP1 PUSH1 0x20 ADD DUP1 DUP4 GT PUSH3 0x752 JUMPI DUP3 SWAP1 SUB PUSH1 0x1F AND DUP3 ADD SWAP2 JUMPDEST POP POP DUP5 DUP2 SUB DUP3 MSTORE DUP7 SLOAD PUSH1 0x2 PUSH1 0x0 NOT PUSH2 0x100 PUSH1 0x1 DUP5 AND ISZERO MUL ADD SWAP1 SWAP2 AND DIV DUP1 DUP3 MSTORE PUSH1 0x20 SWAP1 SWAP2 ADD SWAP1 DUP8 SWAP1 DUP1 ISZERO PUSH3 0x7E8 JUMPI DUP1 PUSH1 0x1F LT PUSH3 0x7BC JUMPI PUSH2 0x100 DUP1 DUP4 SLOAD DIV MUL DUP4 MSTORE SWAP2 PUSH1 0x20 ADD SWAP2 PUSH3 0x7E8 JUMP JUMPDEST DUP3 ADD SWAP2 SWAP1 PUSH1 0x0 MSTORE PUSH1 0x20 PUSH1 0x0 KECCAK256 SWAP1 JUMPDEST DUP2 SLOAD DUP2 MSTORE SWAP1 PUSH1 0x1 ADD SWAP1 PUSH1 0x20 ADD DUP1 DUP4 GT PUSH3 0x7CA JUMPI DUP3 SWAP1 SUB PUSH1 0x1F AND DUP3 ADD SWAP2 JUMPDEST POP POP SWAP13 POP POP POP POP POP POP POP POP POP POP POP POP POP PUSH1 0x40 MLOAD DUP1 SWAP2 SUB SWAP1 PUSH1 0x0 CREATE DUP1 ISZERO DUP1 ISZERO PUSH3 0x815 JUMPI RETURNDATASIZE PUSH1 0x0 DUP1 RETURNDATACOPY RETURNDATASIZE PUSH1 0x0 REVERT JUMPDEST POP PUSH1 0x40 DUP1 MLOAD PUSH3 0x312365 PUSH1 0xE6 SHL DUP2 MSTORE CALLER PUSH1 0x4 DUP3 ADD MSTORE PUSH1 0x24 DUP2 ADD DUP9 SWAP1 MSTORE PUSH1 0x1 PUSH1 0x1 PUSH1 0xA0 SHL SUB DUP8 DUP2 AND PUSH1 0x44 DUP4 ADD MSTORE PUSH1 0x64 DUP3 ADD DUP8 SWAP1 MSTORE SWAP2 MLOAD SWAP3 SWAP4 POP SWAP1 DUP4 AND SWAP2 PUSH4 0xC48D940 SWAP2 PUSH1 0x84 DUP1 DUP3 ADD SWAP3 PUSH1 0x0 SWAP3 SWAP1 SWAP2 SWAP1 DUP3 SWAP1 SUB ADD DUP2 DUP4 DUP8 DUP1 EXTCODESIZE ISZERO DUP1 ISZERO PUSH3 0x878 JUMPI PUSH1 0x0 DUP1 REVERT JUMPDEST POP GAS CALL ISZERO DUP1 ISZERO PUSH3 0x88D JUMPI RETURNDATASIZE PUSH1 0x0 DUP1 RETURNDATACOPY RETURNDATASIZE PUSH1 0x0 REVERT JUMPDEST POP POP PUSH1 0x1 DUP1 SLOAD DUP1 DUP3 ADD DUP3 SSTORE PUSH1 0x0 SWAP2 SWAP1 SWAP2 MSTORE PUSH32 0xB10E2D527612073B26EECDFD717E6A320CF44B4AFAC2B0732D9FCBE2B7FA0CF6 ADD DUP1 SLOAD PUSH1 0x1 PUSH1 0x1 PUSH1 0xA0 SHL SUB NOT AND PUSH1 0x1 PUSH1 0x1 PUSH1 0xA0 SHL SUB DUP6 AND OR SWAP1 SSTORE POP PUSH3 0x8E6 SWAP1 POP PUSH3 0xB8A JUMP JUMPDEST POP SWAP5 SWAP4 POP POP POP POP JUMP JUMPDEST PUSH1 0x8 SLOAD DUP2 JUMP JUMPDEST PUSH1 0xFF DUP1 DUP3 AND PUSH1 0x0 SWAP1 DUP2 MSTORE PUSH1 0xA PUSH1 0x20 MSTORE PUSH1 0x40 SWAP1 KECCAK256 SLOAD AND ISZERO PUSH3 0x915 JUMPI PUSH1 0x0 DUP1 REVERT JUMPDEST PUSH1 0x7 PUSH1 0xFF DUP3 AND LT PUSH3 0x926 JUMPI PUSH1 0x0 DUP1 REVERT JUMPDEST DUP1 PUSH1 0x9 DUP5 DUP5 PUSH1 0x40 MLOAD DUP1 DUP4 DUP4 DUP1 DUP3 DUP5 CALLDATACOPY SWAP2 SWAP1 SWAP2 ADD SWAP5 DUP6 MSTORE POP POP PUSH1 0x40 DUP1 MLOAD PUSH1 0x20 SWAP5 DUP2 SWAP1 SUB DUP6 ADD SWAP1 KECCAK256 DUP1 SLOAD PUSH1 0xFF NOT SWAP1 DUP2 AND PUSH1 0xFF SWAP8 DUP9 AND OR SWAP1 SWAP2 SSTORE SWAP6 SWAP1 SWAP5 AND PUSH1 0x0 SWAP1 DUP2 MSTORE PUSH1 0xA SWAP1 SWAP4 MSTORE POP POP KECCAK256 DUP1 SLOAD SWAP1 SWAP2 AND PUSH1 0x1 OR SWAP1 SSTORE POP POP JUMP JUMPDEST PUSH1 0x0 PUSH32 0x0 PUSH1 0x1 PUSH1 0x1 PUSH1 0xA0 SHL SUB AND PUSH4 0x4000AEA0 PUSH32 0x0 DUP6 DUP8 DUP7 PUSH1 0x40 MLOAD PUSH1 0x20 ADD DUP1 DUP4 DUP2 MSTORE PUSH1 0x20 ADD DUP3 DUP2 MSTORE PUSH1 0x20 ADD SWAP3 POP POP POP PUSH1 0x40 MLOAD PUSH1 0x20 DUP2 DUP4 SUB SUB DUP2 MSTORE SWAP1 PUSH1 0x40 MSTORE PUSH1 0x40 MLOAD DUP5 PUSH4 0xFFFFFFFF AND PUSH1 0xE0 SHL DUP2 MSTORE PUSH1 0x4 ADD DUP1 DUP5 PUSH1 0x1 PUSH1 0x1 PUSH1 0xA0 SHL SUB AND DUP2 MSTORE PUSH1 0x20 ADD DUP4 DUP2 MSTORE PUSH1 0x20 ADD DUP1 PUSH1 0x20 ADD DUP3 DUP2 SUB DUP3 MSTORE DUP4 DUP2 DUP2 MLOAD DUP2 MSTORE PUSH1 0x20 ADD SWAP2 POP DUP1 MLOAD SWAP1 PUSH1 0x20 ADD SWAP1 DUP1 DUP4 DUP4 PUSH1 0x0 JUMPDEST DUP4 DUP2 LT ISZERO PUSH3 0xA5A JUMPI DUP2 DUP2 ADD MLOAD DUP4 DUP3 ADD MSTORE PUSH1 0x20 ADD PUSH3 0xA40 JUMP JUMPDEST POP POP POP POP SWAP1 POP SWAP1 DUP2 ADD SWAP1 PUSH1 0x1F AND DUP1 ISZERO PUSH3 0xA88 JUMPI DUP1 DUP3 SUB DUP1 MLOAD PUSH1 0x1 DUP4 PUSH1 0x20 SUB PUSH2 0x100 EXP SUB NOT AND DUP2 MSTORE PUSH1 0x20 ADD SWAP2 POP JUMPDEST POP SWAP5 POP POP POP POP POP PUSH1 0x20 PUSH1 0x40 MLOAD DUP1 DUP4 SUB DUP2 PUSH1 0x0 DUP8 DUP1 EXTCODESIZE ISZERO DUP1 ISZERO PUSH3 0xAAA JUMPI PUSH1 0x0 DUP1 REVERT JUMPDEST POP GAS CALL ISZERO DUP1 ISZERO PUSH3 0xABF JUMPI RETURNDATASIZE PUSH1 0x0 DUP1 RETURNDATACOPY RETURNDATASIZE PUSH1 0x0 REVERT JUMPDEST POP POP POP POP PUSH1 0x40 MLOAD RETURNDATASIZE PUSH1 0x20 DUP2 LT ISZERO PUSH3 0xAD6 JUMPI PUSH1 0x0 DUP1 REVERT JUMPDEST POP POP PUSH1 0x0 DUP5 DUP2 MSTORE PUSH1 0x20 DUP2 SWAP1 MSTORE PUSH1 0x40 DUP2 KECCAK256 SLOAD PUSH3 0xAF8 SWAP1 DUP7 SWAP1 DUP6 SWAP1 ADDRESS SWAP1 PUSH3 0xC44 JUMP JUMPDEST PUSH1 0x0 DUP7 DUP2 MSTORE PUSH1 0x20 DUP2 SWAP1 MSTORE PUSH1 0x40 SWAP1 KECCAK256 SLOAD SWAP1 SWAP2 POP PUSH3 0xB17 SWAP1 PUSH1 0x1 PUSH3 0xC8B JUMP JUMPDEST PUSH1 0x0 DUP7 DUP2 MSTORE PUSH1 0x20 DUP2 SWAP1 MSTORE PUSH1 0x40 SWAP1 KECCAK256 SSTORE PUSH3 0xB32 DUP6 DUP3 PUSH3 0xCED JUMP JUMPDEST SWAP6 SWAP5 POP POP POP POP POP JUMP JUMPDEST PUSH3 0xB45 PUSH3 0xB8A JUMP JUMPDEST JUMP JUMPDEST PUSH1 0x0 PUSH1 0x18 DUP3 MOD SWAP1 POP PUSH1 0xC DUP2 DUP2 SLOAD DUP2 LT PUSH3 0xB5D JUMPI INVALID JUMPDEST SWAP1 PUSH1 0x0 MSTORE PUSH1 0x20 PUSH1 0x0 KECCAK256 ADD PUSH1 0x4 SWAP1 DUP1 SLOAD PUSH1 0x1 DUP2 PUSH1 0x1 AND ISZERO PUSH2 0x100 MUL SUB AND PUSH1 0x2 SWAP1 DIV PUSH3 0x54C SWAP3 SWAP2 SWAP1 PUSH3 0xDAC JUMP JUMPDEST PUSH1 0x2 SLOAD PUSH1 0x40 DUP1 MLOAD PUSH4 0x70A08231 PUSH1 0xE0 SHL DUP2 MSTORE ADDRESS PUSH1 0x4 DUP3 ADD MSTORE SWAP1 MLOAD PUSH1 0x1 PUSH1 0x1 PUSH1 0xA0 SHL SUB PUSH32 0x0 AND SWAP2 PUSH4 0x70A08231 SWAP2 PUSH1 0x24 DUP1 DUP4 ADD SWAP3 PUSH1 0x20 SWAP3 SWAP2 SWAP1 DUP3 SWAP1 SUB ADD DUP2 DUP7 DUP1 EXTCODESIZE ISZERO DUP1 ISZERO PUSH3 0xBF4 JUMPI PUSH1 0x0 DUP1 REVERT JUMPDEST POP GAS STATICCALL ISZERO DUP1 ISZERO PUSH3 0xC09 JUMPI RETURNDATASIZE PUSH1 0x0 DUP1 RETURNDATACOPY RETURNDATASIZE PUSH1 0x0 REVERT JUMPDEST POP POP POP POP PUSH1 0x40 MLOAD RETURNDATASIZE PUSH1 0x20 DUP2 LT ISZERO PUSH3 0xC20 JUMPI PUSH1 0x0 DUP1 REVERT JUMPDEST POP MLOAD LT ISZERO PUSH3 0xC2E JUMPI PUSH1 0x0 DUP1 REVERT JUMPDEST PUSH3 0xC41 PUSH1 0x3 SLOAD PUSH1 0x2 SLOAD PUSH2 0x34FB PUSH3 0x97C JUMP JUMPDEST POP JUMP JUMPDEST PUSH1 0x40 DUP1 MLOAD PUSH1 0x20 DUP1 DUP3 ADD SWAP7 SWAP1 SWAP7 MSTORE DUP1 DUP3 ADD SWAP5 SWAP1 SWAP5 MSTORE PUSH1 0x1 PUSH1 0x1 PUSH1 0xA0 SHL SUB SWAP3 SWAP1 SWAP3 AND PUSH1 0x60 DUP5 ADD MSTORE PUSH1 0x80 DUP1 DUP5 ADD SWAP2 SWAP1 SWAP2 MSTORE DUP2 MLOAD DUP1 DUP5 SUB SWAP1 SWAP2 ADD DUP2 MSTORE PUSH1 0xA0 SWAP1 SWAP3 ADD SWAP1 MSTORE DUP1 MLOAD SWAP2 ADD KECCAK256 SWAP1 JUMP JUMPDEST PUSH1 0x0 DUP3 DUP3 ADD DUP4 DUP2 LT ISZERO PUSH3 0xCE6 JUMPI PUSH1 0x40 DUP1 MLOAD PUSH3 0x461BCD PUSH1 0xE5 SHL DUP2 MSTORE PUSH1 0x20 PUSH1 0x4 DUP3 ADD MSTORE PUSH1 0x1B PUSH1 0x24 DUP3 ADD MSTORE PUSH32 0x536166654D6174683A206164646974696F6E206F766572666C6F770000000000 PUSH1 0x44 DUP3 ADD MSTORE SWAP1 MLOAD SWAP1 DUP2 SWAP1 SUB PUSH1 0x64 ADD SWAP1 REVERT JUMPDEST SWAP4 SWAP3 POP POP POP JUMP JUMPDEST PUSH1 0x40 DUP1 MLOAD PUSH1 0x20 DUP1 DUP3 ADD SWAP5 SWAP1 SWAP5 MSTORE DUP1 DUP3 ADD SWAP3 SWAP1 SWAP3 MSTORE DUP1 MLOAD DUP1 DUP4 SUB DUP3 ADD DUP2 MSTORE PUSH1 0x60 SWAP1 SWAP3 ADD SWAP1 MSTORE DUP1 MLOAD SWAP2 ADD KECCAK256 SWAP1 JUMP JUMPDEST DUP3 DUP1 SLOAD PUSH1 0x1 DUP2 PUSH1 0x1 AND ISZERO PUSH2 0x100 MUL SUB AND PUSH1 0x2 SWAP1 DIV SWAP1 PUSH1 0x0 MSTORE PUSH1 0x20 PUSH1 0x0 KECCAK256 SWAP1 PUSH1 0x1F ADD PUSH1 0x20 SWAP1 DIV DUP2 ADD SWAP3 DUP3 PUSH1 0x1F LT PUSH3 0xD5C JUMPI DUP3 DUP1 ADD PUSH1 0xFF NOT DUP3 CALLDATALOAD AND OR DUP6 SSTORE PUSH3 0xD8C JUMP JUMPDEST DUP3 DUP1 ADD PUSH1 0x1 ADD DUP6 SSTORE DUP3 ISZERO PUSH3 0xD8C JUMPI SWAP2 DUP3 ADD JUMPDEST DUP3 DUP2 GT ISZERO PUSH3 0xD8C JUMPI DUP3 CALLDATALOAD DUP3 SSTORE SWAP2 PUSH1 0x20 ADD SWAP2 SWAP1 PUSH1 0x1 ADD SWAP1 PUSH3 0xD6F JUMP JUMPDEST POP PUSH3 0xD9A SWAP3 SWAP2 POP PUSH3 0xE26 JUMP JUMPDEST POP SWAP1 JUMP JUMPDEST PUSH2 0x2AA5 DUP1 PUSH3 0xE3E DUP4 CODECOPY ADD SWAP1 JUMP JUMPDEST DUP3 DUP1 SLOAD PUSH1 0x1 DUP2 PUSH1 0x1 AND ISZERO PUSH2 0x100 MUL SUB AND PUSH1 0x2 SWAP1 DIV SWAP1 PUSH1 0x0 MSTORE PUSH1 0x20 PUSH1 0x0 KECCAK256 SWAP1 PUSH1 0x1F ADD PUSH1 0x20 SWAP1 DIV DUP2 ADD SWAP3 DUP3 PUSH1 0x1F LT PUSH3 0xDE7 JUMPI DUP1 SLOAD DUP6 SSTORE PUSH3 0xD8C JUMP JUMPDEST DUP3 DUP1 ADD PUSH1 0x1 ADD DUP6 SSTORE DUP3 ISZERO PUSH3 0xD8C JUMPI PUSH1 0x0 MSTORE PUSH1 0x20 PUSH1 0x0 KECCAK256 SWAP2 PUSH1 0x1F ADD PUSH1 0x20 SWAP1 DIV DUP3 ADD JUMPDEST DUP3 DUP2 GT ISZERO PUSH3 0xD8C JUMPI DUP3 SLOAD DUP3 SSTORE SWAP2 PUSH1 0x1 ADD SWAP2 SWAP1 PUSH1 0x1 ADD SWAP1 PUSH3 0xE09 JUMP JUMPDEST JUMPDEST DUP1 DUP3 GT ISZERO PUSH3 0xD9A JUMPI PUSH1 0x0 DUP2 SSTORE PUSH1 0x1 ADD PUSH3 0xE27 JUMP INVALID PUSH1 0x80 PUSH1 0x40 MSTORE PUSH1 0x1 PUSH1 0xB SSTORE CALLVALUE DUP1 ISZERO PUSH3 0x16 JUMPI PUSH1 0x0 DUP1 REVERT JUMPDEST POP PUSH1 0x40 MLOAD PUSH3 0x2AA5 CODESIZE SUB DUP1 PUSH3 0x2AA5 DUP4 CODECOPY DUP2 DUP2 ADD PUSH1 0x40 MSTORE PUSH2 0x140 DUP2 LT ISZERO PUSH3 0x3D JUMPI PUSH1 0x0 DUP1 REVERT JUMPDEST DUP2 MLOAD PUSH1 0x20 DUP4 ADD MLOAD PUSH1 0x40 DUP1 DUP6 ADD MLOAD PUSH1 0x60 DUP7 ADD DUP1 MLOAD SWAP3 MLOAD SWAP5 SWAP7 SWAP4 SWAP6 SWAP2 SWAP5 SWAP4 SWAP2 DUP3 ADD SWAP3 DUP5 PUSH5 0x100000000 DUP3 GT ISZERO PUSH3 0x71 JUMPI PUSH1 0x0 DUP1 REVERT JUMPDEST SWAP1 DUP4 ADD SWAP1 PUSH1 0x20 DUP3 ADD DUP6 DUP2 GT ISZERO PUSH3 0x87 JUMPI PUSH1 0x0 DUP1 REVERT JUMPDEST DUP3 MLOAD PUSH5 0x100000000 DUP2 GT DUP3 DUP3 ADD DUP9 LT OR ISZERO PUSH3 0xA2 JUMPI PUSH1 0x0 DUP1 REVERT JUMPDEST DUP3 MSTORE POP DUP2 MLOAD PUSH1 0x20 SWAP2 DUP3 ADD SWAP3 SWAP1 SWAP2 ADD SWAP1 DUP1 DUP4 DUP4 PUSH1 0x0 JUMPDEST DUP4 DUP2 LT ISZERO PUSH3 0xD1 JUMPI DUP2 DUP2 ADD MLOAD DUP4 DUP3 ADD MSTORE PUSH1 0x20 ADD PUSH3 0xB7 JUMP JUMPDEST POP POP POP POP SWAP1 POP SWAP1 DUP2 ADD SWAP1 PUSH1 0x1F AND DUP1 ISZERO PUSH3 0xFF JUMPI DUP1 DUP3 SUB DUP1 MLOAD PUSH1 0x1 DUP4 PUSH1 0x20 SUB PUSH2 0x100 EXP SUB NOT AND DUP2 MSTORE PUSH1 0x20 ADD SWAP2 POP JUMPDEST POP PUSH1 0x40 DUP2 DUP2 MSTORE PUSH1 0x20 DUP4 ADD MLOAD SWAP1 DUP4 ADD MLOAD PUSH1 0x60 SWAP1 SWAP4 ADD DUP1 MLOAD SWAP2 SWAP6 SWAP4 SWAP5 SWAP3 SWAP4 SWAP3 SWAP2 DUP5 PUSH5 0x100000000 DUP3 GT ISZERO PUSH3 0x131 JUMPI PUSH1 0x0 DUP1 REVERT JUMPDEST SWAP1 DUP4 ADD SWAP1 PUSH1 0x20 DUP3 ADD DUP6 DUP2 GT ISZERO PUSH3 0x147 JUMPI PUSH1 0x0 DUP1 REVERT JUMPDEST DUP3 MLOAD PUSH5 0x100000000 DUP2 GT DUP3 DUP3 ADD DUP9 LT OR ISZERO PUSH3 0x162 JUMPI PUSH1 0x0 DUP1 REVERT JUMPDEST DUP3 MSTORE POP DUP2 MLOAD PUSH1 0x20 SWAP2 DUP3 ADD SWAP3 SWAP1 SWAP2 ADD SWAP1 DUP1 DUP4 DUP4 PUSH1 0x0 JUMPDEST DUP4 DUP2 LT ISZERO PUSH3 0x191 JUMPI DUP2 DUP2 ADD MLOAD DUP4 DUP3 ADD MSTORE PUSH1 0x20 ADD PUSH3 0x177 JUMP JUMPDEST POP POP POP POP SWAP1 POP SWAP1 DUP2 ADD SWAP1 PUSH1 0x1F AND DUP1 ISZERO PUSH3 0x1BF JUMPI DUP1 DUP3 SUB DUP1 MLOAD PUSH1 0x1 DUP4 PUSH1 0x20 SUB PUSH2 0x100 EXP SUB NOT AND DUP2 MSTORE PUSH1 0x20 ADD SWAP2 POP JUMPDEST POP PUSH1 0x40 DUP2 DUP2 MSTORE PUSH1 0x20 DUP4 ADD MLOAD SWAP3 ADD DUP1 MLOAD SWAP3 SWAP5 SWAP2 SWAP4 SWAP2 SWAP3 DUP5 PUSH5 0x100000000 DUP3 GT ISZERO PUSH3 0x1E8 JUMPI PUSH1 0x0 DUP1 REVERT JUMPDEST SWAP1 DUP4 ADD SWAP1 PUSH1 0x20 DUP3 ADD DUP6 DUP2 GT ISZERO PUSH3 0x1FE JUMPI PUSH1 0x0 DUP1 REVERT JUMPDEST DUP3 MLOAD PUSH5 0x100000000 DUP2 GT DUP3 DUP3 ADD DUP9 LT OR ISZERO PUSH3 0x219 JUMPI PUSH1 0x0 DUP1 REVERT JUMPDEST DUP3 MSTORE POP DUP2 MLOAD PUSH1 0x20 SWAP2 DUP3 ADD SWAP3 SWAP1 SWAP2 ADD SWAP1 DUP1 DUP4 DUP4 PUSH1 0x0 JUMPDEST DUP4 DUP2 LT ISZERO PUSH3 0x248 JUMPI DUP2 DUP2 ADD MLOAD DUP4 DUP3 ADD MSTORE PUSH1 0x20 ADD PUSH3 0x22E JUMP JUMPDEST POP POP POP POP SWAP1 POP SWAP1 DUP2 ADD SWAP1 PUSH1 0x1F AND DUP1 ISZERO PUSH3 0x276 JUMPI DUP1 DUP3 SUB DUP1 MLOAD PUSH1 0x1 DUP4 PUSH1 0x20 SUB PUSH2 0x100 EXP SUB NOT AND DUP2 MSTORE PUSH1 0x20 ADD SWAP2 POP JUMPDEST POP PUSH1 0x40 DUP2 DUP2 MSTORE PUSH1 0x20 SWAP3 DUP4 ADD MLOAD PUSH1 0x4 DUP1 SLOAD PUSH1 0x2 PUSH1 0x1 DUP3 AND ISZERO PUSH2 0x100 MUL PUSH1 0x0 NOT ADD SWAP1 SWAP2 AND DIV PUSH1 0x1F DUP2 ADD DUP7 SWAP1 DIV DUP7 MUL DUP6 ADD DUP7 ADD SWAP1 SWAP4 MSTORE DUP3 DUP5 MSTORE SWAP1 SWAP6 POP SWAP2 SWAP4 POP SWAP1 SWAP2 DUP4 ADD DUP3 DUP3 DUP1 ISZERO PUSH3 0x309 JUMPI DUP1 PUSH1 0x1F LT PUSH3 0x2DD JUMPI PUSH2 0x100 DUP1 DUP4 SLOAD DIV MUL DUP4 MSTORE SWAP2 PUSH1 0x20 ADD SWAP2 PUSH3 0x309 JUMP JUMPDEST DUP3 ADD SWAP2 SWAP1 PUSH1 0x0 MSTORE PUSH1 0x20 PUSH1 0x0 KECCAK256 SWAP1 JUMPDEST DUP2 SLOAD DUP2 MSTORE SWAP1 PUSH1 0x1 ADD SWAP1 PUSH1 0x20 ADD DUP1 DUP4 GT PUSH3 0x2EB JUMPI DUP3 SWAP1 SUB PUSH1 0x1F AND DUP3 ADD SWAP2 JUMPDEST POP POP POP POP POP PUSH1 0x2 DUP8 DUP3 DUP2 DUP2 PUSH1 0x4 SWAP1 DUP1 MLOAD SWAP1 PUSH1 0x20 ADD SWAP1 PUSH3 0x32B SWAP3 SWAP2 SWAP1 PUSH3 0x4A0 JUMP JUMPDEST POP PUSH1 0x0 DUP1 SLOAD PUSH1 0xFF NOT AND SWAP1 SSTORE PUSH1 0x5 DUP1 SLOAD PUSH1 0x1 PUSH1 0x1 PUSH1 0xA0 SHL SUB NOT AND PUSH1 0x1 PUSH1 0x1 PUSH1 0xA0 SHL SUB SWAP3 SWAP1 SWAP3 AND SWAP2 SWAP1 SWAP2 OR SWAP1 SSTORE POP POP PUSH1 0x6 SSTORE POP PUSH3 0x36E PUSH4 0x1FFC9A7 PUSH1 0xE0 SHL PUSH3 0x41B JUMP JUMPDEST PUSH3 0x380 PUSH4 0x2711897 PUSH1 0xE5 SHL PUSH3 0x41B JUMP JUMPDEST PUSH1 0xE DUP1 SLOAD PUSH1 0x1 PUSH1 0x1 PUSH1 0xA0 SHL SUB DUP1 DUP13 AND PUSH1 0x1 PUSH1 0x1 PUSH1 0xA0 SHL SUB NOT SWAP3 DUP4 AND OR SWAP1 SWAP3 SSTORE PUSH1 0xF DUP11 SWAP1 SSTORE PUSH1 0x11 DUP1 SLOAD SWAP3 DUP14 AND SWAP3 SWAP1 SWAP2 AND SWAP2 SWAP1 SWAP2 OR SWAP1 SSTORE DUP4 MLOAD PUSH3 0x3CA SWAP1 PUSH1 0x10 SWAP1 PUSH1 0x20 DUP8 ADD SWAP1 PUSH3 0x4A0 JUMP JUMPDEST POP PUSH1 0x13 DUP6 SWAP1 SSTORE PUSH1 0x15 DUP4 SWAP1 SSTORE DUP2 MLOAD PUSH3 0x3EA SWAP1 PUSH1 0x16 SWAP1 PUSH1 0x20 DUP6 ADD SWAP1 PUSH3 0x4A0 JUMP JUMPDEST POP PUSH1 0x17 DUP1 SLOAD PUSH1 0x1 PUSH1 0x1 PUSH1 0xA0 SHL SUB NOT AND PUSH1 0x1 PUSH1 0x1 PUSH1 0xA0 SHL SUB SWAP3 SWAP1 SWAP3 AND SWAP2 SWAP1 SWAP2 OR SWAP1 SSTORE POP PUSH3 0x53C SWAP8 POP POP POP POP POP POP POP POP JUMP JUMPDEST PUSH1 0x1 PUSH1 0x1 PUSH1 0xE0 SHL SUB NOT DUP1 DUP3 AND EQ ISZERO PUSH3 0x47B JUMPI PUSH1 0x40 DUP1 MLOAD PUSH3 0x461BCD PUSH1 0xE5 SHL DUP2 MSTORE PUSH1 0x20 PUSH1 0x4 DUP3 ADD MSTORE PUSH1 0x1C PUSH1 0x24 DUP3 ADD MSTORE PUSH32 0x4552433136353A20696E76616C696420696E7465726661636520696400000000 PUSH1 0x44 DUP3 ADD MSTORE SWAP1 MLOAD SWAP1 DUP2 SWAP1 SUB PUSH1 0x64 ADD SWAP1 REVERT JUMPDEST PUSH1 0x1 PUSH1 0x1 PUSH1 0xE0 SHL SUB NOT AND PUSH1 0x0 SWAP1 DUP2 MSTORE PUSH1 0xD PUSH1 0x20 MSTORE PUSH1 0x40 SWAP1 KECCAK256 DUP1 SLOAD PUSH1 0xFF NOT AND PUSH1 0x1 OR SWAP1 SSTORE JUMP JUMPDEST DUP3 DUP1 SLOAD PUSH1 0x1 DUP2 PUSH1 0x1 AND ISZERO PUSH2 0x100 MUL SUB AND PUSH1 0x2 SWAP1 DIV SWAP1 PUSH1 0x0 MSTORE PUSH1 0x20 PUSH1 0x0 KECCAK256 SWAP1 PUSH1 0x1F ADD PUSH1 0x20 SWAP1 DIV DUP2 ADD SWAP3 DUP3 PUSH1 0x1F LT PUSH3 0x4E3 JUMPI DUP1 MLOAD PUSH1 0xFF NOT AND DUP4 DUP1 ADD OR DUP6 SSTORE PUSH3 0x513 JUMP JUMPDEST DUP3 DUP1 ADD PUSH1 0x1 ADD DUP6 SSTORE DUP3 ISZERO PUSH3 0x513 JUMPI SWAP2 DUP3 ADD JUMPDEST DUP3 DUP2 GT ISZERO PUSH3 0x513 JUMPI DUP3 MLOAD DUP3 SSTORE SWAP2 PUSH1 0x20 ADD SWAP2 SWAP1 PUSH1 0x1 ADD SWAP1 PUSH3 0x4F6 JUMP JUMPDEST POP PUSH3 0x521 SWAP3 SWAP2 POP PUSH3 0x525 JUMP JUMPDEST POP SWAP1 JUMP JUMPDEST JUMPDEST DUP1 DUP3 GT ISZERO PUSH3 0x521 JUMPI PUSH1 0x0 DUP2 SSTORE PUSH1 0x1 ADD PUSH3 0x526 JUMP JUMPDEST PUSH2 0x2559 DUP1 PUSH3 0x54C PUSH1 0x0 CODECOPY PUSH1 0x0 RETURN INVALID PUSH1 0x80 PUSH1 0x40 MSTORE CALLVALUE DUP1 ISZERO PUSH2 0x10 JUMPI PUSH1 0x0 DUP1 REVERT JUMPDEST POP PUSH1 0x4 CALLDATASIZE LT PUSH2 0x1DA JUMPI PUSH1 0x0 CALLDATALOAD PUSH1 0xE0 SHR DUP1 PUSH4 0x5C39FCC1 GT PUSH2 0x104 JUMPI DUP1 PUSH4 0xBD8D3C0C GT PUSH2 0xA2 JUMPI DUP1 PUSH4 0xEFAA55A0 GT PUSH2 0x71 JUMPI DUP1 PUSH4 0xEFAA55A0 EQ PUSH2 0x5FF JUMPI DUP1 PUSH4 0xF23A6E61 EQ PUSH2 0x61C JUMPI DUP1 PUSH4 0xF71D96CB EQ PUSH2 0x6AF JUMPI DUP1 PUSH4 0xFD0160FE EQ PUSH2 0x6CC JUMPI PUSH2 0x1DA JUMP JUMPDEST DUP1 PUSH4 0xBD8D3C0C EQ PUSH2 0x577 JUMPI DUP1 PUSH4 0xD65AB5F2 EQ PUSH2 0x5E7 JUMPI DUP1 PUSH4 0xDFBF53AE EQ PUSH2 0x5EF JUMPI DUP1 PUSH4 0xED9D3B88 EQ PUSH2 0x5F7 JUMPI PUSH2 0x1DA JUMP JUMPDEST DUP1 PUSH4 0x93694F67 GT PUSH2 0xDE JUMPI DUP1 PUSH4 0x93694F67 EQ PUSH2 0x41B JUMPI DUP1 PUSH4 0x97B2F556 EQ PUSH2 0x423 JUMPI DUP1 PUSH4 0xA3F584A4 EQ PUSH2 0x42B JUMPI DUP1 PUSH4 0xBC197C81 EQ PUSH2 0x433 JUMPI PUSH2 0x1DA JUMP JUMPDEST DUP1 PUSH4 0x5C39FCC1 EQ PUSH2 0x3EE JUMPI DUP1 PUSH4 0x614A4E44 EQ PUSH2 0x3F6 JUMPI DUP1 PUSH4 0x6EB78263 EQ PUSH2 0x413 JUMPI PUSH2 0x1DA JUMP JUMPDEST DUP1 PUSH4 0x1FCC8BB2 GT PUSH2 0x17C JUMPI DUP1 PUSH4 0x3FEEF58A GT PUSH2 0x14B JUMPI DUP1 PUSH4 0x3FEEF58A EQ PUSH2 0x3B9 JUMPI DUP1 PUSH4 0x473BC223 EQ PUSH2 0x3D6 JUMPI DUP1 PUSH4 0x4C2412A2 EQ PUSH2 0x3DE JUMPI DUP1 PUSH4 0x55C9E926 EQ PUSH2 0x3E6 JUMPI PUSH2 0x1DA JUMP JUMPDEST DUP1 PUSH4 0x1FCC8BB2 EQ PUSH2 0x37B JUMPI DUP1 PUSH4 0x27E235E3 EQ PUSH2 0x383 JUMPI DUP1 PUSH4 0x27F99A27 EQ PUSH2 0x3A9 JUMPI DUP1 PUSH4 0x33B16D93 EQ PUSH2 0x3B1 JUMPI PUSH2 0x1DA JUMP JUMPDEST DUP1 PUSH4 0x55AD42E GT PUSH2 0x1B8 JUMPI DUP1 PUSH4 0x55AD42E EQ PUSH2 0x263 JUMPI DUP1 PUSH4 0xC48D940 EQ PUSH2 0x28C JUMPI DUP1 PUSH4 0x106E2C57 EQ PUSH2 0x2C6 JUMPI DUP1 PUSH4 0x14C41751 EQ PUSH2 0x343 JUMPI PUSH2 0x1DA JUMP JUMPDEST DUP1 PUSH4 0x1FFC9A7 EQ PUSH2 0x1DF JUMPI DUP1 PUSH4 0x42F2B65 EQ PUSH2 0x21A JUMPI DUP1 PUSH4 0x53E4FB6 EQ PUSH2 0x23F JUMPI JUMPDEST PUSH1 0x0 DUP1 REVERT JUMPDEST PUSH2 0x206 PUSH1 0x4 DUP1 CALLDATASIZE SUB PUSH1 0x20 DUP2 LT ISZERO PUSH2 0x1F5 JUMPI PUSH1 0x0 DUP1 REVERT JUMPDEST POP CALLDATALOAD PUSH1 0x1 PUSH1 0x1 PUSH1 0xE0 SHL SUB NOT AND PUSH2 0x6D4 JUMP JUMPDEST PUSH1 0x40 DUP1 MLOAD SWAP2 ISZERO ISZERO DUP3 MSTORE MLOAD SWAP1 DUP2 SWAP1 SUB PUSH1 0x20 ADD SWAP1 RETURN JUMPDEST PUSH2 0x23D PUSH1 0x4 DUP1 CALLDATASIZE SUB PUSH1 0x40 DUP2 LT ISZERO PUSH2 0x230 JUMPI PUSH1 0x0 DUP1 REVERT JUMPDEST POP DUP1 CALLDATALOAD SWAP1 PUSH1 0x20 ADD CALLDATALOAD PUSH2 0x6F7 JUMP JUMPDEST STOP JUMPDEST PUSH2 0x247 PUSH2 0x7C2 JUMP JUMPDEST PUSH1 0x40 DUP1 MLOAD PUSH1 0x1 PUSH1 0x1 PUSH1 0xA0 SHL SUB SWAP1 SWAP3 AND DUP3 MSTORE MLOAD SWAP1 DUP2 SWAP1 SUB PUSH1 0x20 ADD SWAP1 RETURN JUMPDEST PUSH2 0x26B PUSH2 0x7D1 JUMP JUMPDEST PUSH1 0x40 MLOAD DUP1 DUP3 PUSH1 0x1 DUP2 GT ISZERO PUSH2 0x27B JUMPI INVALID JUMPDEST DUP2 MSTORE PUSH1 0x20 ADD SWAP2 POP POP PUSH1 0x40 MLOAD DUP1 SWAP2 SUB SWAP1 RETURN JUMPDEST PUSH2 0x23D PUSH1 0x4 DUP1 CALLDATASIZE SUB PUSH1 0x80 DUP2 LT ISZERO PUSH2 0x2A2 JUMPI PUSH1 0x0 DUP1 REVERT JUMPDEST POP PUSH1 0x1 PUSH1 0x1 PUSH1 0xA0 SHL SUB DUP2 CALLDATALOAD DUP2 AND SWAP2 PUSH1 0x20 DUP2 ADD CALLDATALOAD SWAP2 PUSH1 0x40 DUP3 ADD CALLDATALOAD AND SWAP1 PUSH1 0x60 ADD CALLDATALOAD PUSH2 0x7DA JUMP JUMPDEST PUSH2 0x2CE PUSH2 0x82A JUMP JUMPDEST PUSH1 0x40 DUP1 MLOAD PUSH1 0x20 DUP1 DUP3 MSTORE DUP4 MLOAD DUP2 DUP4 ADD MSTORE DUP4 MLOAD SWAP2 SWAP3 DUP4 SWAP3 SWAP1 DUP4 ADD SWAP2 DUP6 ADD SWAP1 DUP1 DUP4 DUP4 PUSH1 0x0 JUMPDEST DUP4 DUP2 LT ISZERO PUSH2 0x308 JUMPI DUP2 DUP2 ADD MLOAD DUP4 DUP3 ADD MSTORE PUSH1 0x20 ADD PUSH2 0x2F0 JUMP JUMPDEST POP POP POP POP SWAP1 POP SWAP1 DUP2 ADD SWAP1 PUSH1 0x1F AND DUP1 ISZERO PUSH2 0x335 JUMPI DUP1 DUP3 SUB DUP1 MLOAD PUSH1 0x1 DUP4 PUSH1 0x20 SUB PUSH2 0x100 EXP SUB NOT AND DUP2 MSTORE PUSH1 0x20 ADD SWAP2 POP JUMPDEST POP SWAP3 POP POP POP PUSH1 0x40 MLOAD DUP1 SWAP2 SUB SWAP1 RETURN JUMPDEST PUSH2 0x369 PUSH1 0x4 DUP1 CALLDATASIZE SUB PUSH1 0x20 DUP2 LT ISZERO PUSH2 0x359 JUMPI PUSH1 0x0 DUP1 REVERT JUMPDEST POP CALLDATALOAD PUSH1 0x1 PUSH1 0x1 PUSH1 0xA0 SHL SUB AND PUSH2 0x8B8 JUMP JUMPDEST PUSH1 0x40 DUP1 MLOAD SWAP2 DUP3 MSTORE MLOAD SWAP1 DUP2 SWAP1 SUB PUSH1 0x20 ADD SWAP1 RETURN JUMPDEST PUSH2 0x369 PUSH2 0x8CA JUMP JUMPDEST PUSH2 0x369 PUSH1 0x4 DUP1 CALLDATASIZE SUB PUSH1 0x20 DUP2 LT ISZERO PUSH2 0x399 JUMPI PUSH1 0x0 DUP1 REVERT JUMPDEST POP CALLDATALOAD PUSH1 0x1 PUSH1 0x1 PUSH1 0xA0 SHL SUB AND PUSH2 0x8D0 JUMP JUMPDEST PUSH2 0x369 PUSH2 0x8E2 JUMP JUMPDEST PUSH2 0x23D PUSH2 0x8E8 JUMP JUMPDEST PUSH2 0x23D PUSH1 0x4 DUP1 CALLDATASIZE SUB PUSH1 0x20 DUP2 LT ISZERO PUSH2 0x3CF JUMPI PUSH1 0x0 DUP1 REVERT JUMPDEST POP CALLDATALOAD PUSH2 0xD9F JUMP JUMPDEST PUSH2 0x2CE PUSH2 0xE92 JUMP JUMPDEST PUSH2 0x369 PUSH2 0xEED JUMP JUMPDEST PUSH2 0x369 PUSH2 0xEF3 JUMP JUMPDEST PUSH2 0x247 PUSH2 0xEF9 JUMP JUMPDEST PUSH2 0x369 PUSH1 0x4 DUP1 CALLDATASIZE SUB PUSH1 0x20 DUP2 LT ISZERO PUSH2 0x40C JUMPI PUSH1 0x0 DUP1 REVERT JUMPDEST POP CALLDATALOAD PUSH2 0xF08 JUMP JUMPDEST PUSH2 0x206 PUSH2 0xF26 JUMP JUMPDEST PUSH2 0x247 PUSH2 0xF2F JUMP JUMPDEST PUSH2 0x369 PUSH2 0xF3E JUMP JUMPDEST PUSH2 0x23D PUSH2 0xF44 JUMP JUMPDEST PUSH2 0x55A PUSH1 0x4 DUP1 CALLDATASIZE SUB PUSH1 0xA0 DUP2 LT ISZERO PUSH2 0x449 JUMPI PUSH1 0x0 DUP1 REVERT JUMPDEST PUSH1 0x1 PUSH1 0x1 PUSH1 0xA0 SHL SUB DUP3 CALLDATALOAD DUP2 AND SWAP3 PUSH1 0x20 DUP2 ADD CALLDATALOAD SWAP1 SWAP2 AND SWAP2 DUP2 ADD SWAP1 PUSH1 0x60 DUP2 ADD PUSH1 0x40 DUP3 ADD CALLDATALOAD PUSH1 0x1 PUSH1 0x20 SHL DUP2 GT ISZERO PUSH2 0x47C JUMPI PUSH1 0x0 DUP1 REVERT JUMPDEST DUP3 ADD DUP4 PUSH1 0x20 DUP3 ADD GT ISZERO PUSH2 0x48E JUMPI PUSH1 0x0 DUP1 REVERT JUMPDEST DUP1 CALLDATALOAD SWAP1 PUSH1 0x20 ADD SWAP2 DUP5 PUSH1 0x20 DUP4 MUL DUP5 ADD GT PUSH1 0x1 PUSH1 0x20 SHL DUP4 GT OR ISZERO PUSH2 0x4AF JUMPI PUSH1 0x0 DUP1 REVERT JUMPDEST SWAP2 SWAP4 SWAP1 SWAP3 SWAP1 SWAP2 PUSH1 0x20 DUP2 ADD SWAP1 CALLDATALOAD PUSH1 0x1 PUSH1 0x20 SHL DUP2 GT ISZERO PUSH2 0x4CC JUMPI PUSH1 0x0 DUP1 REVERT JUMPDEST DUP3 ADD DUP4 PUSH1 0x20 DUP3 ADD GT ISZERO PUSH2 0x4DE JUMPI PUSH1 0x0 DUP1 REVERT JUMPDEST DUP1 CALLDATALOAD SWAP1 PUSH1 0x20 ADD SWAP2 DUP5 PUSH1 0x20 DUP4 MUL DUP5 ADD GT PUSH1 0x1 PUSH1 0x20 SHL DUP4 GT OR ISZERO PUSH2 0x4FF JUMPI PUSH1 0x0 DUP1 REVERT JUMPDEST SWAP2 SWAP4 SWAP1 SWAP3 SWAP1 SWAP2 PUSH1 0x20 DUP2 ADD SWAP1 CALLDATALOAD PUSH1 0x1 PUSH1 0x20 SHL DUP2 GT ISZERO PUSH2 0x51C JUMPI PUSH1 0x0 DUP1 REVERT JUMPDEST DUP3 ADD DUP4 PUSH1 0x20 DUP3 ADD GT ISZERO PUSH2 0x52E JUMPI PUSH1 0x0 DUP1 REVERT JUMPDEST DUP1 CALLDATALOAD SWAP1 PUSH1 0x20 ADD SWAP2 DUP5 PUSH1 0x1 DUP4 MUL DUP5 ADD GT PUSH1 0x1 PUSH1 0x20 SHL DUP4 GT OR ISZERO PUSH2 0x54F JUMPI PUSH1 0x0 DUP1 REVERT JUMPDEST POP SWAP1 SWAP3 POP SWAP1 POP PUSH2 0xF6A JUMP JUMPDEST PUSH1 0x40 DUP1 MLOAD PUSH1 0x1 PUSH1 0x1 PUSH1 0xE0 SHL SUB NOT SWAP1 SWAP3 AND DUP3 MSTORE MLOAD SWAP1 DUP2 SWAP1 SUB PUSH1 0x20 ADD SWAP1 RETURN JUMPDEST PUSH2 0x57F PUSH2 0xF7E JUMP JUMPDEST PUSH1 0x40 MLOAD DUP1 DUP9 PUSH1 0x1 PUSH1 0x1 PUSH1 0xA0 SHL SUB AND DUP2 MSTORE PUSH1 0x20 ADD DUP8 PUSH1 0x1 PUSH1 0x1 PUSH1 0xA0 SHL SUB AND DUP2 MSTORE PUSH1 0x20 ADD DUP7 DUP2 MSTORE PUSH1 0x20 ADD DUP6 DUP2 MSTORE PUSH1 0x20 ADD DUP5 PUSH1 0x1 DUP2 GT ISZERO PUSH2 0x5B9 JUMPI INVALID JUMPDEST DUP2 MSTORE PUSH1 0x20 ADD DUP4 PUSH1 0x1 PUSH1 0x1 PUSH1 0xA0 SHL SUB AND DUP2 MSTORE PUSH1 0x20 ADD DUP3 ISZERO ISZERO DUP2 MSTORE PUSH1 0x20 ADD SWAP8 POP POP POP POP POP POP POP POP PUSH1 0x40 MLOAD DUP1 SWAP2 SUB SWAP1 RETURN JUMPDEST PUSH2 0x23D PUSH2 0xFC7 JUMP JUMPDEST PUSH2 0x247 PUSH2 0x1049 JUMP JUMPDEST PUSH2 0x369 PUSH2 0x1058 JUMP JUMPDEST PUSH2 0x23D PUSH1 0x4 DUP1 CALLDATASIZE SUB PUSH1 0x20 DUP2 LT ISZERO PUSH2 0x615 JUMPI PUSH1 0x0 DUP1 REVERT JUMPDEST POP CALLDATALOAD PUSH2 0x105E JUMP JUMPDEST PUSH2 0x55A PUSH1 0x4 DUP1 CALLDATASIZE SUB PUSH1 0xA0 DUP2 LT ISZERO PUSH2 0x632 JUMPI PUSH1 0x0 DUP1 REVERT JUMPDEST PUSH1 0x1 PUSH1 0x1 PUSH1 0xA0 SHL SUB DUP3 CALLDATALOAD DUP2 AND SWAP3 PUSH1 0x20 DUP2 ADD CALLDATALOAD SWAP1 SWAP2 AND SWAP2 PUSH1 0x40 DUP3 ADD CALLDATALOAD SWAP2 PUSH1 0x60 DUP2 ADD CALLDATALOAD SWAP2 DUP2 ADD SWAP1 PUSH1 0xA0 DUP2 ADD PUSH1 0x80 DUP3 ADD CALLDATALOAD PUSH1 0x1 PUSH1 0x20 SHL DUP2 GT ISZERO PUSH2 0x671 JUMPI PUSH1 0x0 DUP1 REVERT JUMPDEST DUP3 ADD DUP4 PUSH1 0x20 DUP3 ADD GT ISZERO PUSH2 0x683 JUMPI PUSH1 0x0 DUP1 REVERT JUMPDEST DUP1 CALLDATALOAD SWAP1 PUSH1 0x20 ADD SWAP2 DUP5 PUSH1 0x1 DUP4 MUL DUP5 ADD GT PUSH1 0x1 PUSH1 0x20 SHL DUP4 GT OR ISZERO PUSH2 0x6A4 JUMPI PUSH1 0x0 DUP1 REVERT JUMPDEST POP SWAP1 SWAP3 POP SWAP1 POP PUSH2 0x10C5 JUMP JUMPDEST PUSH2 0x206 PUSH1 0x4 DUP1 CALLDATASIZE SUB PUSH1 0x20 DUP2 LT ISZERO PUSH2 0x6C5 JUMPI PUSH1 0x0 DUP1 REVERT JUMPDEST POP CALLDATALOAD PUSH2 0x10F2 JUMP JUMPDEST PUSH2 0x2CE PUSH2 0x1107 JUMP JUMPDEST PUSH1 0x1 PUSH1 0x1 PUSH1 0xE0 SHL SUB NOT DUP2 AND PUSH1 0x0 SWAP1 DUP2 MSTORE PUSH1 0xD PUSH1 0x20 MSTORE PUSH1 0x40 SWAP1 KECCAK256 SLOAD PUSH1 0xFF AND JUMPDEST SWAP2 SWAP1 POP JUMP JUMPDEST PUSH1 0x0 DUP3 DUP2 MSTORE PUSH1 0xC PUSH1 0x20 MSTORE PUSH1 0x40 SWAP1 KECCAK256 SLOAD DUP3 SWAP1 PUSH1 0x1 PUSH1 0x1 PUSH1 0xA0 SHL SUB AND CALLER EQ PUSH2 0x74E JUMPI PUSH1 0x40 MLOAD PUSH3 0x461BCD PUSH1 0xE5 SHL DUP2 MSTORE PUSH1 0x4 ADD DUP1 DUP1 PUSH1 0x20 ADD DUP3 DUP2 SUB DUP3 MSTORE PUSH1 0x28 DUP2 MSTORE PUSH1 0x20 ADD DUP1 PUSH2 0x24FC PUSH1 0x28 SWAP2 CODECOPY PUSH1 0x40 ADD SWAP2 POP POP PUSH1 0x40 MLOAD DUP1 SWAP2 SUB SWAP1 REVERT JUMPDEST PUSH1 0x0 DUP2 DUP2 MSTORE PUSH1 0xC PUSH1 0x20 MSTORE PUSH1 0x40 DUP1 DUP3 KECCAK256 DUP1 SLOAD PUSH1 0x1 PUSH1 0x1 PUSH1 0xA0 SHL SUB NOT AND SWAP1 SSTORE MLOAD DUP3 SWAP2 PUSH32 0x7CC135E0CEBB02C3480AE5D74D377283180A2601F8F644EDF7987B009316C63A SWAP2 LOG2 PUSH1 0x40 DUP1 MLOAD PUSH1 0x20 DUP1 DUP3 ADD DUP6 SWAP1 MSTORE DUP3 MLOAD DUP1 DUP4 SUB DUP3 ADD DUP2 MSTORE SWAP2 DUP4 ADD SWAP1 SWAP3 MSTORE DUP1 MLOAD PUSH2 0x7BC SWAP3 PUSH1 0x12 SWAP3 ADD SWAP1 PUSH2 0x2391 JUMP JUMPDEST POP POP POP POP JUMP JUMPDEST PUSH1 0x5 SLOAD PUSH1 0x1 PUSH1 0x1 PUSH1 0xA0 SHL SUB AND DUP2 JUMP JUMPDEST PUSH1 0x0 SLOAD PUSH1 0xFF AND DUP2 JUMP JUMPDEST PUSH1 0x18 DUP1 SLOAD PUSH1 0x1 PUSH1 0x1 PUSH1 0xA0 SHL SUB NOT SWAP1 DUP2 AND PUSH1 0x1 PUSH1 0x1 PUSH1 0xA0 SHL SUB SWAP7 DUP8 AND OR SWAP2 DUP3 SWAP1 SSTORE PUSH1 0x19 DUP1 SLOAD SWAP1 SWAP2 AND SWAP4 DUP7 AND SWAP4 SWAP1 SWAP4 OR DUP4 SSTORE DUP5 AND PUSH1 0x0 SWAP1 DUP2 MSTORE PUSH1 0x1D PUSH1 0x20 MSTORE PUSH1 0x40 DUP1 DUP3 KECCAK256 SWAP5 SWAP1 SWAP5 SSTORE SWAP2 SLOAD SWAP1 SWAP4 AND DUP2 MSTORE KECCAK256 SSTORE JUMP JUMPDEST PUSH1 0x12 DUP1 SLOAD PUSH1 0x40 DUP1 MLOAD PUSH1 0x20 PUSH1 0x2 PUSH1 0x1 DUP6 AND ISZERO PUSH2 0x100 MUL PUSH1 0x0 NOT ADD SWAP1 SWAP5 AND SWAP4 SWAP1 SWAP4 DIV PUSH1 0x1F DUP2 ADD DUP5 SWAP1 DIV DUP5 MUL DUP3 ADD DUP5 ADD SWAP1 SWAP3 MSTORE DUP2 DUP2 MSTORE SWAP3 SWAP2 DUP4 ADD DUP3 DUP3 DUP1 ISZERO PUSH2 0x8B0 JUMPI DUP1 PUSH1 0x1F LT PUSH2 0x885 JUMPI PUSH2 0x100 DUP1 DUP4 SLOAD DIV MUL DUP4 MSTORE SWAP2 PUSH1 0x20 ADD SWAP2 PUSH2 0x8B0 JUMP JUMPDEST DUP3 ADD SWAP2 SWAP1 PUSH1 0x0 MSTORE PUSH1 0x20 PUSH1 0x0 KECCAK256 SWAP1 JUMPDEST DUP2 SLOAD DUP2 MSTORE SWAP1 PUSH1 0x1 ADD SWAP1 PUSH1 0x20 ADD DUP1 DUP4 GT PUSH2 0x893 JUMPI DUP3 SWAP1 SUB PUSH1 0x1F AND DUP3 ADD SWAP2 JUMPDEST POP POP POP POP POP DUP2 JUMP JUMPDEST PUSH1 0x1D PUSH1 0x20 MSTORE PUSH1 0x0 SWAP1 DUP2 MSTORE PUSH1 0x40 SWAP1 KECCAK256 SLOAD DUP2 JUMP JUMPDEST PUSH1 0x13 SLOAD DUP2 JUMP JUMPDEST PUSH1 0x14 PUSH1 0x20 MSTORE PUSH1 0x0 SWAP1 DUP2 MSTORE PUSH1 0x40 SWAP1 KECCAK256 SLOAD DUP2 JUMP JUMPDEST PUSH1 0x1A SLOAD DUP2 JUMP JUMPDEST PUSH1 0x2 PUSH2 0x8F2 PUSH2 0xEF3 JUMP JUMPDEST EQ PUSH2 0x8FC JUMPI PUSH1 0x0 DUP1 REVERT JUMPDEST CALLER PUSH1 0x0 SWAP1 DUP2 MSTORE PUSH1 0x14 PUSH1 0x20 MSTORE PUSH1 0x40 SWAP1 KECCAK256 SLOAD PUSH2 0x915 JUMPI PUSH1 0x0 DUP1 REVERT JUMPDEST PUSH1 0x1 PUSH1 0x0 SLOAD PUSH1 0xFF AND PUSH1 0x1 DUP2 GT ISZERO PUSH2 0x928 JUMPI INVALID JUMPDEST EQ PUSH2 0x932 JUMPI PUSH1 0x0 DUP1 REVERT JUMPDEST PUSH1 0x12 SLOAD PUSH1 0x2 PUSH1 0x0 NOT PUSH2 0x100 PUSH1 0x1 DUP5 AND ISZERO MUL ADD SWAP1 SWAP2 AND DIV PUSH2 0x951 JUMPI PUSH1 0x0 DUP1 REVERT JUMPDEST PUSH1 0x1E SLOAD PUSH1 0xFF AND PUSH2 0x960 JUMPI PUSH1 0x0 DUP1 REVERT JUMPDEST PUSH1 0x0 PUSH1 0x2 PUSH1 0x0 DUP2 SLOAD DUP2 LT PUSH2 0x970 JUMPI INVALID JUMPDEST SWAP1 PUSH1 0x0 MSTORE PUSH1 0x20 PUSH1 0x0 KECCAK256 ADD SLOAD SWAP1 POP PUSH1 0x0 PUSH1 0x2 PUSH1 0x1 DUP2 SLOAD DUP2 LT PUSH2 0x98D JUMPI INVALID JUMPDEST SWAP1 PUSH1 0x0 MSTORE PUSH1 0x20 PUSH1 0x0 KECCAK256 ADD SLOAD SWAP1 POP PUSH1 0x0 PUSH2 0x9A5 DUP4 PUSH2 0x1162 JUMP JUMPDEST SWAP1 POP PUSH1 0x0 PUSH2 0x9B2 DUP4 PUSH2 0x1162 JUMP JUMPDEST SWAP1 POP DUP1 DUP3 EQ ISZERO PUSH2 0xBBF JUMPI PUSH1 0x5 SLOAD PUSH1 0x40 DUP1 MLOAD PUSH4 0x2B5A6BB PUSH1 0xE5 SHL DUP2 MSTORE PUSH1 0x4 DUP2 ADD DUP8 SWAP1 MSTORE SWAP1 MLOAD PUSH1 0x0 SWAP3 PUSH1 0x1 PUSH1 0x1 PUSH1 0xA0 SHL SUB AND SWAP2 PUSH4 0x56B4D760 SWAP2 PUSH1 0x24 DUP1 DUP4 ADD SWAP3 PUSH1 0x20 SWAP3 SWAP2 SWAP1 DUP3 SWAP1 SUB ADD DUP2 DUP7 DUP1 EXTCODESIZE ISZERO DUP1 ISZERO PUSH2 0xA08 JUMPI PUSH1 0x0 DUP1 REVERT JUMPDEST POP GAS STATICCALL ISZERO DUP1 ISZERO PUSH2 0xA1C JUMPI RETURNDATASIZE PUSH1 0x0 DUP1 RETURNDATACOPY RETURNDATASIZE PUSH1 0x0 REVERT JUMPDEST POP POP POP POP PUSH1 0x40 MLOAD RETURNDATASIZE PUSH1 0x20 DUP2 LT ISZERO PUSH2 0xA32 JUMPI PUSH1 0x0 DUP1 REVERT JUMPDEST POP MLOAD PUSH1 0x5 SLOAD PUSH1 0x40 DUP1 MLOAD PUSH4 0x2B5A6BB PUSH1 0xE5 SHL DUP2 MSTORE PUSH1 0x4 DUP2 ADD DUP9 SWAP1 MSTORE SWAP1 MLOAD SWAP3 SWAP4 POP PUSH1 0x0 SWAP3 PUSH1 0x1 PUSH1 0x1 PUSH1 0xA0 SHL SUB SWAP1 SWAP3 AND SWAP2 PUSH4 0x56B4D760 SWAP2 PUSH1 0x24 DUP1 DUP3 ADD SWAP3 PUSH1 0x20 SWAP3 SWAP1 SWAP2 SWAP1 DUP3 SWAP1 SUB ADD DUP2 DUP7 DUP1 EXTCODESIZE ISZERO DUP1 ISZERO PUSH2 0xA86 JUMPI PUSH1 0x0 DUP1 REVERT JUMPDEST POP GAS STATICCALL ISZERO DUP1 ISZERO PUSH2 0xA9A JUMPI RETURNDATASIZE PUSH1 0x0 DUP1 RETURNDATACOPY RETURNDATASIZE PUSH1 0x0 REVERT JUMPDEST POP POP POP POP PUSH1 0x40 MLOAD RETURNDATASIZE PUSH1 0x20 DUP2 LT ISZERO PUSH2 0xAB0 JUMPI PUSH1 0x0 DUP1 REVERT JUMPDEST POP MLOAD PUSH1 0x1 PUSH1 0x1 PUSH1 0xA0 SHL SUB DUP4 DUP2 AND PUSH1 0x0 DUP2 DUP2 MSTORE PUSH1 0x14 PUSH1 0x20 MSTORE PUSH1 0x40 DUP1 DUP3 KECCAK256 DUP1 SLOAD DUP6 DUP8 AND DUP5 MSTORE DUP3 DUP5 KECCAK256 DUP1 SLOAD SWAP3 DUP6 SWAP1 SSTORE DUP5 SWAP1 SSTORE PUSH1 0x5 SLOAD DUP4 MLOAD PUSH4 0x26F7AF4F PUSH1 0xE0 SHL DUP2 MSTORE PUSH1 0x4 DUP2 ADD SWAP7 SWAP1 SWAP7 MSTORE PUSH1 0x24 DUP7 ADD DUP3 SWAP1 MSTORE SWAP3 MLOAD SWAP7 SWAP8 POP SWAP6 SWAP1 SWAP5 SWAP2 SWAP1 SWAP2 AND SWAP3 PUSH4 0x26F7AF4F SWAP3 PUSH1 0x44 DUP1 DUP4 ADD SWAP4 SWAP2 SWAP3 DUP3 SWAP1 SUB ADD DUP2 DUP4 DUP8 DUP1 EXTCODESIZE ISZERO DUP1 ISZERO PUSH2 0xB2D JUMPI PUSH1 0x0 DUP1 REVERT JUMPDEST POP GAS CALL ISZERO DUP1 ISZERO PUSH2 0xB41 JUMPI RETURNDATASIZE PUSH1 0x0 DUP1 RETURNDATACOPY RETURNDATASIZE PUSH1 0x0 REVERT JUMPDEST POP POP PUSH1 0x5 SLOAD PUSH1 0x40 DUP1 MLOAD PUSH4 0x26F7AF4F PUSH1 0xE0 SHL DUP2 MSTORE PUSH1 0x1 PUSH1 0x1 PUSH1 0xA0 SHL SUB DUP9 DUP2 AND PUSH1 0x4 DUP4 ADD MSTORE PUSH1 0x24 DUP3 ADD DUP8 SWAP1 MSTORE SWAP2 MLOAD SWAP2 SWAP1 SWAP3 AND SWAP4 POP PUSH4 0x26F7AF4F SWAP3 POP PUSH1 0x44 DUP1 DUP4 ADD SWAP3 PUSH1 0x0 SWAP3 SWAP2 SWAP1 DUP3 SWAP1 SUB ADD DUP2 DUP4 DUP8 DUP1 EXTCODESIZE ISZERO DUP1 ISZERO PUSH2 0xB9A JUMPI PUSH1 0x0 DUP1 REVERT JUMPDEST POP GAS CALL ISZERO DUP1 ISZERO PUSH2 0xBAE JUMPI RETURNDATASIZE PUSH1 0x0 DUP1 RETURNDATACOPY RETURNDATASIZE PUSH1 0x0 REVERT JUMPDEST POP POP POP POP POP POP POP POP POP POP POP POP PUSH2 0xD9D JUMP JUMPDEST PUSH1 0x0 DUP1 DUP3 DUP5 LT ISZERO PUSH2 0xBD4 JUMPI POP DUP4 SWAP1 POP DUP5 PUSH2 0xBE2 JUMP JUMPDEST DUP3 DUP5 GT ISZERO PUSH2 0xBE2 JUMPI POP DUP5 SWAP1 POP DUP4 JUMPDEST PUSH1 0x5 SLOAD PUSH1 0x40 DUP1 MLOAD PUSH4 0x2B5A6BB PUSH1 0xE5 SHL DUP2 MSTORE PUSH1 0x4 DUP2 ADD DUP6 SWAP1 MSTORE SWAP1 MLOAD PUSH1 0x0 SWAP3 PUSH1 0x1 PUSH1 0x1 PUSH1 0xA0 SHL SUB AND SWAP2 PUSH4 0x56B4D760 SWAP2 PUSH1 0x24 DUP1 DUP4 ADD SWAP3 PUSH1 0x20 SWAP3 SWAP2 SWAP1 DUP3 SWAP1 SUB ADD DUP2 DUP7 DUP1 EXTCODESIZE ISZERO DUP1 ISZERO PUSH2 0xC2E JUMPI PUSH1 0x0 DUP1 REVERT JUMPDEST POP GAS STATICCALL ISZERO DUP1 ISZERO PUSH2 0xC42 JUMPI RETURNDATASIZE PUSH1 0x0 DUP1 RETURNDATACOPY RETURNDATASIZE PUSH1 0x0 REVERT JUMPDEST POP POP POP POP PUSH1 0x40 MLOAD RETURNDATASIZE PUSH1 0x20 DUP2 LT ISZERO PUSH2 0xC58 JUMPI PUSH1 0x0 DUP1 REVERT JUMPDEST POP MLOAD PUSH1 0x5 SLOAD PUSH1 0x40 DUP1 MLOAD PUSH4 0x2B5A6BB PUSH1 0xE5 SHL DUP2 MSTORE PUSH1 0x4 DUP2 ADD DUP7 SWAP1 MSTORE SWAP1 MLOAD SWAP3 SWAP4 POP PUSH1 0x0 SWAP3 PUSH1 0x1 PUSH1 0x1 PUSH1 0xA0 SHL SUB SWAP1 SWAP3 AND SWAP2 PUSH4 0x56B4D760 SWAP2 PUSH1 0x24 DUP1 DUP3 ADD SWAP3 PUSH1 0x20 SWAP3 SWAP1 SWAP2 SWAP1 DUP3 SWAP1 SUB ADD DUP2 DUP7 DUP1 EXTCODESIZE ISZERO DUP1 ISZERO PUSH2 0xCAC JUMPI PUSH1 0x0 DUP1 REVERT JUMPDEST POP GAS STATICCALL ISZERO DUP1 ISZERO PUSH2 0xCC0 JUMPI RETURNDATASIZE PUSH1 0x0 DUP1 RETURNDATACOPY RETURNDATASIZE PUSH1 0x0 REVERT JUMPDEST POP POP POP POP PUSH1 0x40 MLOAD RETURNDATASIZE PUSH1 0x20 DUP2 LT ISZERO PUSH2 0xCD6 JUMPI PUSH1 0x0 DUP1 REVERT JUMPDEST POP MLOAD PUSH1 0x1 PUSH1 0x1 PUSH1 0xA0 SHL SUB DUP4 DUP2 AND PUSH1 0x0 DUP2 DUP2 MSTORE PUSH1 0x14 PUSH1 0x20 MSTORE PUSH1 0x40 DUP1 DUP3 KECCAK256 DUP1 SLOAD DUP6 DUP8 AND DUP5 MSTORE DUP3 DUP5 KECCAK256 DUP1 SLOAD SWAP3 DUP6 SWAP1 SSTORE DUP5 SWAP1 SSTORE PUSH1 0x5 SLOAD DUP4 MLOAD PUSH4 0x26F7AF4F PUSH1 0xE0 SHL DUP2 MSTORE PUSH1 0x4 DUP2 ADD SWAP7 SWAP1 SWAP7 MSTORE DUP3 DUP3 ADD PUSH1 0x24 DUP8 ADD MSTORE SWAP3 MLOAD SWAP7 SWAP8 POP SWAP6 SWAP1 SWAP5 SWAP2 SWAP1 SWAP2 AND SWAP3 PUSH4 0x26F7AF4F SWAP3 PUSH1 0x44 DUP1 DUP4 ADD SWAP4 SWAP2 SWAP3 DUP3 SWAP1 SUB ADD DUP2 DUP4 DUP8 DUP1 EXTCODESIZE ISZERO DUP1 ISZERO PUSH2 0xD54 JUMPI PUSH1 0x0 DUP1 REVERT JUMPDEST POP GAS CALL ISZERO DUP1 ISZERO PUSH2 0xD68 JUMPI RETURNDATASIZE PUSH1 0x0 DUP1 RETURNDATACOPY RETURNDATASIZE PUSH1 0x0 REVERT JUMPDEST POP POP PUSH1 0x1C DUP1 SLOAD PUSH1 0x1 PUSH1 0x1 PUSH1 0xA0 SHL SUB NOT AND PUSH1 0x1 PUSH1 0x1 PUSH1 0xA0 SHL SUB DUP9 AND OR SWAP1 SSTORE POP PUSH2 0xD92 SWAP1 POP PUSH1 0x1 PUSH2 0x1468 JUMP JUMPDEST POP POP POP POP POP POP POP POP POP POP JUMPDEST JUMP JUMPDEST PUSH1 0x18 SLOAD PUSH1 0x1 PUSH1 0x1 PUSH1 0xA0 SHL SUB AND CALLER EQ DUP1 PUSH2 0xDC2 JUMPI POP PUSH1 0x19 SLOAD PUSH1 0x1 PUSH1 0x1 PUSH1 0xA0 SHL SUB AND CALLER EQ JUMPDEST PUSH2 0xDCB JUMPI PUSH1 0x0 DUP1 REVERT JUMPDEST PUSH1 0x0 DUP1 SLOAD PUSH1 0xFF AND PUSH1 0x1 DUP2 GT ISZERO PUSH2 0xDDD JUMPI INVALID JUMPDEST EQ PUSH2 0xDE7 JUMPI PUSH1 0x0 DUP1 REVERT JUMPDEST PUSH1 0x12 SLOAD PUSH1 0x2 PUSH1 0x0 NOT PUSH2 0x100 PUSH1 0x1 DUP5 AND ISZERO MUL ADD SWAP1 SWAP2 AND DIV ISZERO PUSH2 0xE07 JUMPI PUSH1 0x0 DUP1 REVERT JUMPDEST PUSH2 0xE10 DUP2 PUSH2 0x1488 JUMP JUMPDEST CALLER PUSH1 0x0 DUP2 DUP2 MSTORE PUSH1 0x14 PUSH1 0x20 MSTORE PUSH1 0x40 DUP1 DUP3 KECCAK256 DUP1 SLOAD SWAP1 DUP4 SWAP1 SSTORE PUSH1 0x5 SLOAD DUP3 MLOAD PUSH4 0x26F7AF4F PUSH1 0xE0 SHL DUP2 MSTORE PUSH1 0x4 DUP2 ADD SWAP6 SWAP1 SWAP6 MSTORE PUSH1 0x24 DUP6 ADD DUP3 SWAP1 MSTORE SWAP2 MLOAD SWAP1 SWAP4 PUSH1 0x1 PUSH1 0x1 PUSH1 0xA0 SHL SUB SWAP1 SWAP3 AND SWAP3 PUSH4 0x26F7AF4F SWAP3 PUSH1 0x44 DUP1 DUP3 ADD SWAP4 SWAP2 DUP3 SWAP1 SUB ADD DUP2 DUP4 DUP8 DUP1 EXTCODESIZE ISZERO DUP1 ISZERO PUSH2 0xE76 JUMPI PUSH1 0x0 DUP1 REVERT JUMPDEST POP GAS CALL ISZERO DUP1 ISZERO PUSH2 0xE8A JUMPI RETURNDATASIZE PUSH1 0x0 DUP1 RETURNDATACOPY RETURNDATASIZE PUSH1 0x0 REVERT JUMPDEST POP POP POP POP POP POP JUMP JUMPDEST PUSH1 0x4 DUP1 SLOAD PUSH1 0x40 DUP1 MLOAD PUSH1 0x20 PUSH1 0x2 PUSH1 0x1 DUP6 AND ISZERO PUSH2 0x100 MUL PUSH1 0x0 NOT ADD SWAP1 SWAP5 AND SWAP4 SWAP1 SWAP4 DIV PUSH1 0x1F DUP2 ADD DUP5 SWAP1 DIV DUP5 MUL DUP3 ADD DUP5 ADD SWAP1 SWAP3 MSTORE DUP2 DUP2 MSTORE SWAP3 SWAP2 DUP4 ADD DUP3 DUP3 DUP1 ISZERO PUSH2 0x8B0 JUMPI DUP1 PUSH1 0x1F LT PUSH2 0x885 JUMPI PUSH2 0x100 DUP1 DUP4 SLOAD DIV MUL DUP4 MSTORE SWAP2 PUSH1 0x20 ADD SWAP2 PUSH2 0x8B0 JUMP JUMPDEST PUSH1 0x6 SLOAD DUP2 JUMP JUMPDEST PUSH1 0x3 SLOAD SWAP1 JUMP JUMPDEST PUSH1 0x18 SLOAD PUSH1 0x1 PUSH1 0x1 PUSH1 0xA0 SHL SUB AND DUP2 JUMP JUMPDEST PUSH1 0x2 DUP2 DUP2 SLOAD DUP2 LT PUSH2 0xF15 JUMPI INVALID JUMPDEST PUSH1 0x0 SWAP2 DUP3 MSTORE PUSH1 0x20 SWAP1 SWAP2 KECCAK256 ADD SLOAD SWAP1 POP DUP2 JUMP JUMPDEST PUSH1 0x1E SLOAD PUSH1 0xFF AND DUP2 JUMP JUMPDEST PUSH1 0x19 SLOAD PUSH1 0x1 PUSH1 0x1 PUSH1 0xA0 SHL SUB AND DUP2 JUMP JUMPDEST PUSH1 0x3 SLOAD DUP2 JUMP JUMPDEST PUSH1 0x19 SLOAD PUSH1 0x1 PUSH1 0x1 PUSH1 0xA0 SHL SUB AND CALLER EQ PUSH2 0xF5B JUMPI PUSH1 0x0 DUP1 REVERT JUMPDEST PUSH1 0x1E DUP1 SLOAD PUSH1 0xFF NOT AND PUSH1 0x1 OR SWAP1 SSTORE JUMP JUMPDEST PUSH4 0xBC197C81 PUSH1 0xE0 SHL SWAP9 SWAP8 POP POP POP POP POP POP POP POP JUMP JUMPDEST PUSH1 0x18 SLOAD PUSH1 0x19 SLOAD PUSH1 0x1 PUSH1 0x1 PUSH1 0xA0 SHL SUB SWAP2 DUP3 AND PUSH1 0x0 DUP2 DUP2 MSTORE PUSH1 0x1D PUSH1 0x20 MSTORE PUSH1 0x40 DUP1 DUP3 KECCAK256 SLOAD SWAP4 DUP6 AND DUP1 DUP4 MSTORE SWAP1 DUP3 KECCAK256 SLOAD SWAP2 SLOAD PUSH1 0x1C SLOAD PUSH1 0x1E SLOAD SWAP5 SWAP8 SWAP3 SWAP7 SWAP4 SWAP5 PUSH1 0xFF SWAP3 DUP4 AND SWAP5 SWAP2 SWAP1 SWAP2 AND SWAP3 SWAP2 AND SWAP1 JUMP JUMPDEST PUSH1 0x0 DUP1 SLOAD PUSH1 0xFF AND PUSH1 0x1 DUP2 GT ISZERO PUSH2 0xFD9 JUMPI INVALID JUMPDEST EQ PUSH2 0xFE3 JUMPI PUSH1 0x0 DUP1 REVERT JUMPDEST PUSH1 0x40 MLOAD PUSH32 0x762F260439BB4BE3EF6E4DC2786E2E7BD187D3D80B79057D7A424FE98563E335 SWAP1 PUSH1 0x0 SWAP1 LOG1 PUSH2 0x1014 PUSH2 0x14C6 JUMP JUMPDEST PUSH2 0x101E PUSH1 0x1 PUSH2 0x1468 JUMP JUMPDEST PUSH1 0x40 MLOAD PUSH32 0x1084D47E99647565312E58BBA004B0FC3088C683FA22F3925F1CF5FB09554029 SWAP1 PUSH1 0x0 SWAP1 LOG1 JUMP JUMPDEST PUSH1 0x1C SLOAD PUSH1 0x1 PUSH1 0x1 PUSH1 0xA0 SHL SUB AND DUP2 JUMP JUMPDEST PUSH1 0x1B SLOAD DUP2 JUMP JUMPDEST PUSH1 0x1B SLOAD DUP2 EQ DUP1 PUSH2 0x106F JUMPI POP PUSH1 0x1A SLOAD DUP2 EQ JUMPDEST PUSH2 0x1078 JUMPI PUSH1 0x0 DUP1 REVERT JUMPDEST PUSH1 0x17 SLOAD PUSH1 0x1 PUSH1 0x1 PUSH1 0xA0 SHL SUB AND CALLER EQ DUP1 PUSH2 0x109B JUMPI POP PUSH1 0x18 SLOAD PUSH1 0x1 PUSH1 0x1 PUSH1 0xA0 SHL SUB AND CALLER EQ JUMPDEST DUP1 PUSH2 0x10B0 JUMPI POP PUSH1 0x19 SLOAD PUSH1 0x1 PUSH1 0x1 PUSH1 0xA0 SHL SUB AND CALLER EQ JUMPDEST PUSH2 0x10B9 JUMPI PUSH1 0x0 DUP1 REVERT JUMPDEST PUSH2 0x10C2 DUP2 PUSH2 0x16C5 JUMP JUMPDEST POP JUMP JUMPDEST PUSH1 0x1 PUSH1 0x1 PUSH1 0xA0 SHL SUB DUP6 AND PUSH1 0x0 SWAP1 DUP2 MSTORE PUSH1 0x14 PUSH1 0x20 MSTORE PUSH1 0x40 SWAP1 KECCAK256 DUP4 SWAP1 SSTORE PUSH4 0xF23A6E61 PUSH1 0xE0 SHL SWAP7 SWAP6 POP POP POP POP POP POP JUMP JUMPDEST PUSH1 0x1 PUSH1 0x20 MSTORE PUSH1 0x0 SWAP1 DUP2 MSTORE PUSH1 0x40 SWAP1 KECCAK256 SLOAD PUSH1 0xFF AND DUP2 JUMP JUMPDEST PUSH1 0x10 DUP1 SLOAD PUSH1 0x40 DUP1 MLOAD PUSH1 0x20 PUSH1 0x2 PUSH1 0x1 DUP6 AND ISZERO PUSH2 0x100 MUL PUSH1 0x0 NOT ADD SWAP1 SWAP5 AND SWAP4 SWAP1 SWAP4 DIV PUSH1 0x1F DUP2 ADD DUP5 SWAP1 DIV DUP5 MUL DUP3 ADD DUP5 ADD SWAP1 SWAP3 MSTORE DUP2 DUP2 MSTORE SWAP3 SWAP2 DUP4 ADD DUP3 DUP3 DUP1 ISZERO PUSH2 0x8B0 JUMPI DUP1 PUSH1 0x1F LT PUSH2 0x885 JUMPI PUSH2 0x100 DUP1 DUP4 SLOAD DIV MUL DUP4 MSTORE SWAP2 PUSH1 0x20 ADD SWAP2 PUSH2 0x8B0 JUMP JUMPDEST PUSH1 0x5 SLOAD PUSH1 0x40 DUP1 MLOAD PUSH4 0x985DA03 PUSH1 0xE3 SHL DUP2 MSTORE PUSH1 0x4 DUP2 ADD DUP5 SWAP1 MSTORE SWAP1 MLOAD PUSH1 0x0 SWAP3 DUP4 SWAP3 DUP4 SWAP3 PUSH1 0x1 PUSH1 0x1 PUSH1 0xA0 SHL SUB SWAP1 SWAP3 AND SWAP2 PUSH4 0x4C2ED018 SWAP2 PUSH1 0x24 DUP1 DUP3 ADD SWAP3 PUSH1 0x80 SWAP3 SWAP1 SWAP2 SWAP1 DUP3 SWAP1 SUB ADD DUP2 DUP7 DUP1 EXTCODESIZE ISZERO DUP1 ISZERO PUSH2 0x11B5 JUMPI PUSH1 0x0 DUP1 REVERT JUMPDEST POP GAS STATICCALL ISZERO DUP1 ISZERO PUSH2 0x11C9 JUMPI RETURNDATASIZE PUSH1 0x0 DUP1 RETURNDATACOPY RETURNDATASIZE PUSH1 0x0 REVERT JUMPDEST POP POP POP POP PUSH1 0x40 MLOAD RETURNDATASIZE PUSH1 0x80 DUP2 LT ISZERO PUSH2 0x11DF JUMPI PUSH1 0x0 DUP1 REVERT JUMPDEST POP PUSH1 0x40 DUP1 DUP3 ADD MLOAD PUSH1 0x60 SWAP1 SWAP3 ADD MLOAD PUSH1 0x17 SLOAD SWAP2 MLOAD PUSH4 0x65EAE2DB PUSH1 0xE0 SHL DUP2 MSTORE PUSH1 0x20 PUSH1 0x4 DUP3 ADD SWAP1 DUP2 MSTORE PUSH1 0x10 DUP1 SLOAD PUSH1 0x2 PUSH1 0x0 NOT PUSH1 0x1 DUP4 DUP2 AND ISZERO PUSH2 0x100 MUL SWAP2 SWAP1 SWAP2 ADD SWAP1 SWAP3 AND DIV PUSH1 0x24 DUP6 ADD DUP2 SWAP1 MSTORE SWAP7 SWAP9 POP SWAP4 SWAP7 POP SWAP3 SWAP5 PUSH1 0x1 PUSH1 0x1 PUSH1 0xA0 SHL SUB SWAP1 SWAP5 AND SWAP4 PUSH4 0x65EAE2DB SWAP4 SWAP3 DUP3 SWAP2 PUSH1 0x44 SWAP1 SWAP2 ADD SWAP1 DUP5 SWAP1 DUP1 ISZERO PUSH2 0x1298 JUMPI DUP1 PUSH1 0x1F LT PUSH2 0x126D JUMPI PUSH2 0x100 DUP1 DUP4 SLOAD DIV MUL DUP4 MSTORE SWAP2 PUSH1 0x20 ADD SWAP2 PUSH2 0x1298 JUMP JUMPDEST DUP3 ADD SWAP2 SWAP1 PUSH1 0x0 MSTORE PUSH1 0x20 PUSH1 0x0 KECCAK256 SWAP1 JUMPDEST DUP2 SLOAD DUP2 MSTORE SWAP1 PUSH1 0x1 ADD SWAP1 PUSH1 0x20 ADD DUP1 DUP4 GT PUSH2 0x127B JUMPI DUP3 SWAP1 SUB PUSH1 0x1F AND DUP3 ADD SWAP2 JUMPDEST POP POP SWAP3 POP POP POP PUSH1 0x20 PUSH1 0x40 MLOAD DUP1 DUP4 SUB DUP2 DUP7 DUP1 EXTCODESIZE ISZERO DUP1 ISZERO PUSH2 0x12B6 JUMPI PUSH1 0x0 DUP1 REVERT JUMPDEST POP GAS STATICCALL ISZERO DUP1 ISZERO PUSH2 0x12CA JUMPI RETURNDATASIZE PUSH1 0x0 DUP1 RETURNDATACOPY RETURNDATASIZE PUSH1 0x0 REVERT JUMPDEST POP POP POP POP PUSH1 0x40 MLOAD RETURNDATASIZE PUSH1 0x20 DUP2 LT ISZERO PUSH2 0x12E0 JUMPI PUSH1 0x0 DUP1 REVERT JUMPDEST POP MLOAD PUSH1 0xFF DUP5 DUP2 AND SWAP2 AND EQ ISZERO PUSH2 0x1308 JUMPI PUSH2 0x1305 PUSH1 0xA PUSH2 0x12FF DUP4 PUSH1 0xB PUSH2 0x16E3 JUMP JUMPDEST SWAP1 PUSH2 0x1745 JUMP JUMPDEST SWAP1 POP JUMPDEST PUSH1 0x17 SLOAD PUSH1 0x40 MLOAD PUSH4 0x4EB1B267 PUSH1 0xE1 SHL DUP2 MSTORE PUSH1 0x20 PUSH1 0x4 DUP3 ADD SWAP1 DUP2 MSTORE PUSH1 0x12 DUP1 SLOAD PUSH1 0x2 PUSH1 0x0 NOT PUSH1 0x1 DUP4 AND ISZERO PUSH2 0x100 MUL ADD SWAP1 SWAP2 AND DIV PUSH1 0x24 DUP5 ADD DUP2 SWAP1 MSTORE PUSH1 0x1 PUSH1 0x1 PUSH1 0xA0 SHL SUB SWAP1 SWAP5 AND SWAP4 PUSH4 0x9D6364CE SWAP4 SWAP2 SWAP3 SWAP2 DUP3 SWAP2 PUSH1 0x44 SWAP1 SWAP2 ADD SWAP1 DUP5 SWAP1 DUP1 ISZERO PUSH2 0x13AB JUMPI DUP1 PUSH1 0x1F LT PUSH2 0x1380 JUMPI PUSH2 0x100 DUP1 DUP4 SLOAD DIV MUL DUP4 MSTORE SWAP2 PUSH1 0x20 ADD SWAP2 PUSH2 0x13AB JUMP JUMPDEST DUP3 ADD SWAP2 SWAP1 PUSH1 0x0 MSTORE PUSH1 0x20 PUSH1 0x0 KECCAK256 SWAP1 JUMPDEST DUP2 SLOAD DUP2 MSTORE SWAP1 PUSH1 0x1 ADD SWAP1 PUSH1 0x20 ADD DUP1 DUP4 GT PUSH2 0x138E JUMPI DUP3 SWAP1 SUB PUSH1 0x1F AND DUP3 ADD SWAP2 JUMPDEST POP POP SWAP3 POP POP POP PUSH1 0x20 PUSH1 0x40 MLOAD DUP1 DUP4 SUB DUP2 DUP7 DUP1 EXTCODESIZE ISZERO DUP1 ISZERO PUSH2 0x13C9 JUMPI PUSH1 0x0 DUP1 REVERT JUMPDEST POP GAS STATICCALL ISZERO DUP1 ISZERO PUSH2 0x13DD JUMPI RETURNDATASIZE PUSH1 0x0 DUP1 RETURNDATACOPY RETURNDATASIZE PUSH1 0x0 REVERT JUMPDEST POP POP POP POP PUSH1 0x40 MLOAD RETURNDATASIZE PUSH1 0x20 DUP2 LT ISZERO PUSH2 0x13F3 JUMPI PUSH1 0x0 DUP1 REVERT JUMPDEST POP MLOAD PUSH1 0xFF DUP4 DUP2 AND SWAP2 AND EQ ISZERO PUSH2 0x1415 JUMPI PUSH2 0x1412 PUSH1 0xA PUSH2 0x12FF DUP4 PUSH1 0xB PUSH2 0x16E3 JUMP JUMPDEST SWAP1 POP JUMPDEST PUSH1 0x0 PUSH2 0x1420 DUP7 PUSH2 0x17AF JUMP JUMPDEST SWAP1 POP PUSH1 0x0 PUSH2 0x1434 PUSH1 0x4 PUSH2 0x12FF DUP5 PUSH1 0x5 PUSH2 0x16E3 JUMP JUMPDEST SWAP1 POP PUSH1 0x0 PUSH2 0x1441 DUP9 PUSH2 0x1AA2 JUMP JUMPDEST SWAP1 POP PUSH1 0x0 PUSH2 0x144F DUP4 DUP4 PUSH2 0x1B8B JUMP JUMPDEST SWAP1 POP PUSH2 0x145B DUP6 DUP3 PUSH2 0x16E3 JUMP JUMPDEST SWAP10 SWAP9 POP POP POP POP POP POP POP POP POP JUMP JUMPDEST PUSH1 0x0 DUP1 SLOAD DUP3 SWAP2 SWAP1 PUSH1 0xFF NOT AND PUSH1 0x1 DUP4 DUP2 DUP2 GT ISZERO PUSH2 0x1480 JUMPI INVALID JUMPDEST MUL OR SWAP1 SSTORE POP POP JUMP JUMPDEST PUSH1 0x0 DUP1 SLOAD PUSH1 0xFF AND PUSH1 0x1 DUP2 GT ISZERO PUSH2 0x149A JUMPI INVALID JUMPDEST EQ PUSH2 0x14A4 JUMPI PUSH1 0x0 DUP1 REVERT JUMPDEST PUSH1 0x0 SWAP1 DUP2 MSTORE PUSH1 0x1 PUSH1 0x20 MSTORE PUSH1 0x40 SWAP1 KECCAK256 DUP1 SLOAD PUSH1 0xFF NOT AND SWAP1 SSTORE PUSH1 0x3 DUP1 SLOAD PUSH1 0x0 NOT ADD SWAP1 SSTORE JUMP JUMPDEST PUSH2 0x14CE PUSH2 0x240F JUMP JUMPDEST PUSH1 0x15 SLOAD PUSH2 0x14E3 SWAP1 ADDRESS PUSH4 0x42F2B65 PUSH1 0xE0 SHL PUSH2 0x1BE5 JUMP JUMPDEST SWAP1 POP PUSH1 0x60 PUSH2 0x1593 PUSH1 0x40 MLOAD DUP1 PUSH1 0x60 ADD PUSH1 0x40 MSTORE DUP1 PUSH1 0x32 DUP2 MSTORE PUSH1 0x20 ADD PUSH2 0x24A9 PUSH1 0x32 SWAP2 CODECOPY PUSH1 0x10 DUP1 SLOAD PUSH1 0x40 DUP1 MLOAD PUSH1 0x20 PUSH1 0x2 PUSH1 0x1 DUP6 AND ISZERO PUSH2 0x100 MUL PUSH1 0x0 NOT ADD SWAP1 SWAP5 AND SWAP4 SWAP1 SWAP4 DIV PUSH1 0x1F DUP2 ADD DUP5 SWAP1 DIV DUP5 MUL DUP3 ADD DUP5 ADD SWAP1 SWAP3 MSTORE DUP2 DUP2 MSTORE SWAP3 SWAP2 DUP4 ADD DUP3 DUP3 DUP1 ISZERO PUSH2 0x1589 JUMPI DUP1 PUSH1 0x1F LT PUSH2 0x155E JUMPI PUSH2 0x100 DUP1 DUP4 SLOAD DIV MUL DUP4 MSTORE SWAP2 PUSH1 0x20 ADD SWAP2 PUSH2 0x1589 JUMP JUMPDEST DUP3 ADD SWAP2 SWAP1 PUSH1 0x0 MSTORE PUSH1 0x20 PUSH1 0x0 KECCAK256 SWAP1 JUMPDEST DUP2 SLOAD DUP2 MSTORE SWAP1 PUSH1 0x1 ADD SWAP1 PUSH1 0x20 ADD DUP1 DUP4 GT PUSH2 0x156C JUMPI DUP3 SWAP1 SUB PUSH1 0x1F AND DUP3 ADD SWAP2 JUMPDEST POP POP POP POP POP PUSH2 0x1C0A JUMP JUMPDEST SWAP1 POP PUSH2 0x15BE DUP2 PUSH1 0x40 MLOAD DUP1 PUSH1 0x40 ADD PUSH1 0x40 MSTORE DUP1 PUSH1 0x7 DUP2 MSTORE PUSH1 0x20 ADD PUSH7 0x2661707069643D PUSH1 0xC8 SHL DUP2 MSTORE POP PUSH2 0x1C0A JUMP JUMPDEST PUSH1 0x16 DUP1 SLOAD PUSH1 0x40 DUP1 MLOAD PUSH1 0x20 PUSH1 0x1F PUSH1 0x2 PUSH1 0x0 NOT PUSH2 0x100 PUSH1 0x1 DUP9 AND ISZERO MUL ADD SWAP1 SWAP6 AND SWAP5 SWAP1 SWAP5 DIV SWAP4 DUP5 ADD DUP2 SWAP1 DIV DUP2 MUL DUP3 ADD DUP2 ADD SWAP1 SWAP3 MSTORE DUP3 DUP2 MSTORE SWAP4 SWAP5 POP PUSH2 0x1625 SWAP4 DUP6 SWAP4 SWAP1 SWAP3 SWAP1 SWAP2 DUP4 ADD DUP3 DUP3 DUP1 ISZERO PUSH2 0x1589 JUMPI DUP1 PUSH1 0x1F LT PUSH2 0x155E JUMPI PUSH2 0x100 DUP1 DUP4 SLOAD DIV MUL DUP4 MSTORE SWAP2 PUSH1 0x20 ADD SWAP2 PUSH2 0x1589 JUMP JUMPDEST PUSH1 0x40 DUP1 MLOAD DUP1 DUP3 ADD SWAP1 SWAP2 MSTORE PUSH1 0x3 DUP2 MSTORE PUSH3 0x19D95D PUSH1 0xEA SHL PUSH1 0x20 DUP3 ADD MSTORE SWAP1 SWAP2 POP PUSH2 0x164E SWAP1 DUP4 SWAP1 DUP4 PUSH2 0x1CC5 JUMP JUMPDEST PUSH2 0x16A5 PUSH1 0x40 MLOAD DUP1 PUSH1 0x40 ADD PUSH1 0x40 MSTORE DUP1 PUSH1 0x4 DUP2 MSTORE PUSH1 0x20 ADD PUSH4 0xE0C2E8D PUSH1 0xE3 SHL DUP2 MSTORE POP PUSH1 0x40 MLOAD DUP1 PUSH1 0x40 ADD PUSH1 0x40 MSTORE DUP1 PUSH1 0xE DUP2 MSTORE PUSH1 0x20 ADD PUSH14 0x3BB2B0BA3432B917181736B0B4B7 PUSH1 0x91 SHL DUP2 MSTORE POP DUP5 PUSH2 0x1CC5 SWAP1 SWAP3 SWAP2 SWAP1 PUSH4 0xFFFFFFFF AND JUMP JUMPDEST PUSH1 0x11 SLOAD PUSH1 0xF SLOAD PUSH2 0x16C0 SWAP2 PUSH1 0x1 PUSH1 0x1 PUSH1 0xA0 SHL SUB AND SWAP1 DUP5 SWAP1 PUSH2 0x1CE3 JUMP JUMPDEST POP POP POP JUMP JUMPDEST PUSH1 0x6 SLOAD PUSH2 0x16D0 PUSH2 0xEF3 JUMP JUMPDEST LT PUSH2 0x16DA JUMPI PUSH1 0x0 DUP1 REVERT JUMPDEST PUSH2 0x10C2 DUP2 PUSH2 0x1EB1 JUMP JUMPDEST PUSH1 0x0 DUP3 PUSH2 0x16F2 JUMPI POP PUSH1 0x0 PUSH2 0x173F JUMP JUMPDEST DUP3 DUP3 MUL DUP3 DUP5 DUP3 DUP2 PUSH2 0x16FF JUMPI INVALID JUMPDEST DIV EQ PUSH2 0x173C JUMPI PUSH1 0x40 MLOAD PUSH3 0x461BCD PUSH1 0xE5 SHL DUP2 MSTORE PUSH1 0x4 ADD DUP1 DUP1 PUSH1 0x20 ADD DUP3 DUP2 SUB DUP3 MSTORE PUSH1 0x21 DUP2 MSTORE PUSH1 0x20 ADD DUP1 PUSH2 0x24DB PUSH1 0x21 SWAP2 CODECOPY PUSH1 0x40 ADD SWAP2 POP POP PUSH1 0x40 MLOAD DUP1 SWAP2 SUB SWAP1 REVERT JUMPDEST SWAP1 POP JUMPDEST SWAP3 SWAP2 POP POP JUMP JUMPDEST PUSH1 0x0 DUP1 DUP3 GT PUSH2 0x179B JUMPI PUSH1 0x40 DUP1 MLOAD PUSH3 0x461BCD PUSH1 0xE5 SHL DUP2 MSTORE PUSH1 0x20 PUSH1 0x4 DUP3 ADD MSTORE PUSH1 0x1A PUSH1 0x24 DUP3 ADD MSTORE PUSH32 0x536166654D6174683A206469766973696F6E206279207A65726F000000000000 PUSH1 0x44 DUP3 ADD MSTORE SWAP1 MLOAD SWAP1 DUP2 SWAP1 SUB PUSH1 0x64 ADD SWAP1 REVERT JUMPDEST PUSH1 0x0 DUP3 DUP5 DUP2 PUSH2 0x17A6 JUMPI INVALID JUMPDEST DIV SWAP5 SWAP4 POP POP POP POP JUMP JUMPDEST PUSH1 0x0 DUP1 PUSH1 0x0 DUP1 PUSH1 0x0 DUP1 PUSH1 0x0 PUSH1 0x5 PUSH1 0x0 SWAP1 SLOAD SWAP1 PUSH2 0x100 EXP SWAP1 DIV PUSH1 0x1 PUSH1 0x1 PUSH1 0xA0 SHL SUB AND PUSH1 0x1 PUSH1 0x1 PUSH1 0xA0 SHL SUB AND PUSH4 0x835A4398 DUP10 PUSH1 0x40 MLOAD DUP3 PUSH4 0xFFFFFFFF AND PUSH1 0xE0 SHL DUP2 MSTORE PUSH1 0x4 ADD DUP1 DUP3 DUP2 MSTORE PUSH1 0x20 ADD SWAP2 POP POP PUSH1 0xC0 PUSH1 0x40 MLOAD DUP1 DUP4 SUB DUP2 DUP7 DUP1 EXTCODESIZE ISZERO DUP1 ISZERO PUSH2 0x1813 JUMPI PUSH1 0x0 DUP1 REVERT JUMPDEST POP GAS STATICCALL ISZERO DUP1 ISZERO PUSH2 0x1827 JUMPI RETURNDATASIZE PUSH1 0x0 DUP1 RETURNDATACOPY RETURNDATASIZE PUSH1 0x0 REVERT JUMPDEST POP POP POP POP PUSH1 0x40 MLOAD RETURNDATASIZE PUSH1 0xC0 DUP2 LT ISZERO PUSH2 0x183D JUMPI PUSH1 0x0 DUP1 REVERT JUMPDEST DUP2 ADD SWAP1 DUP1 DUP1 MLOAD SWAP1 PUSH1 0x20 ADD SWAP1 SWAP3 SWAP2 SWAP1 DUP1 MLOAD SWAP1 PUSH1 0x20 ADD SWAP1 SWAP3 SWAP2 SWAP1 DUP1 MLOAD SWAP1 PUSH1 0x20 ADD SWAP1 SWAP3 SWAP2 SWAP1 DUP1 MLOAD SWAP1 PUSH1 0x20 ADD SWAP1 SWAP3 SWAP2 SWAP1 DUP1 MLOAD SWAP1 PUSH1 0x20 ADD SWAP1 SWAP3 SWAP2 SWAP1 DUP1 MLOAD SWAP1 PUSH1 0x20 ADD SWAP1 SWAP3 SWAP2 SWAP1 POP POP POP SWAP6 POP SWAP6 POP SWAP6 POP SWAP6 POP SWAP6 POP SWAP6 POP PUSH1 0x0 PUSH1 0x5 PUSH1 0x0 SWAP1 SLOAD SWAP1 PUSH2 0x100 EXP SWAP1 DIV PUSH1 0x1 PUSH1 0x1 PUSH1 0xA0 SHL SUB AND PUSH1 0x1 PUSH1 0x1 PUSH1 0xA0 SHL SUB AND PUSH4 0x46E6F13D DUP11 PUSH1 0x40 MLOAD DUP3 PUSH4 0xFFFFFFFF AND PUSH1 0xE0 SHL DUP2 MSTORE PUSH1 0x4 ADD DUP1 DUP3 DUP2 MSTORE PUSH1 0x20 ADD SWAP2 POP POP PUSH1 0x0 PUSH1 0x40 MLOAD DUP1 DUP4 SUB DUP2 DUP7 DUP1 EXTCODESIZE ISZERO DUP1 ISZERO PUSH2 0x18E7 JUMPI PUSH1 0x0 DUP1 REVERT JUMPDEST POP GAS STATICCALL ISZERO DUP1 ISZERO PUSH2 0x18FB JUMPI RETURNDATASIZE PUSH1 0x0 DUP1 RETURNDATACOPY RETURNDATASIZE PUSH1 0x0 REVERT JUMPDEST POP POP POP POP PUSH1 0x40 MLOAD RETURNDATASIZE PUSH1 0x0 DUP3 RETURNDATACOPY PUSH1 0x1F RETURNDATASIZE SWAP1 DUP2 ADD PUSH1 0x1F NOT AND DUP3 ADD PUSH1 0x40 MSTORE PUSH1 0x80 DUP2 LT ISZERO PUSH2 0x1924 JUMPI PUSH1 0x0 DUP1 REVERT JUMPDEST DUP2 ADD SWAP1 DUP1 DUP1 MLOAD PUSH1 0x40 MLOAD SWAP4 SWAP3 SWAP2 SWAP1 DUP5 PUSH1 0x1 PUSH1 0x20 SHL DUP3 GT ISZERO PUSH2 0x1943 JUMPI PUSH1 0x0 DUP1 REVERT JUMPDEST SWAP1 DUP4 ADD SWAP1 PUSH1 0x20 DUP3 ADD DUP6 DUP2 GT ISZERO PUSH2 0x1958 JUMPI PUSH1 0x0 DUP1 REVERT JUMPDEST DUP3 MLOAD PUSH1 0x1 PUSH1 0x20 SHL DUP2 GT DUP3 DUP3 ADD DUP9 LT OR ISZERO PUSH2 0x1971 JUMPI PUSH1 0x0 DUP1 REVERT JUMPDEST DUP3 MSTORE POP DUP2 MLOAD PUSH1 0x20 SWAP2 DUP3 ADD SWAP3 SWAP1 SWAP2 ADD SWAP1 DUP1 DUP4 DUP4 PUSH1 0x0 JUMPDEST DUP4 DUP2 LT ISZERO PUSH2 0x199E JUMPI DUP2 DUP2 ADD MLOAD DUP4 DUP3 ADD MSTORE PUSH1 0x20 ADD PUSH2 0x1986 JUMP JUMPDEST POP POP POP POP SWAP1 POP SWAP1 DUP2 ADD SWAP1 PUSH1 0x1F AND DUP1 ISZERO PUSH2 0x19CB JUMPI DUP1 DUP3 SUB DUP1 MLOAD PUSH1 0x1 DUP4 PUSH1 0x20 SUB PUSH2 0x100 EXP SUB NOT AND DUP2 MSTORE PUSH1 0x20 ADD SWAP2 POP JUMPDEST POP PUSH1 0x40 SWAP1 DUP2 MSTORE ADD MLOAD SWAP4 POP POP POP DUP2 ISZERO ISZERO SWAP1 POP PUSH2 0x19F2 JUMPI DUP7 PUSH1 0xFF AND SWAP8 POP POP POP POP POP POP POP POP PUSH2 0x6F2 JUMP JUMPDEST DUP1 PUSH1 0x1 EQ ISZERO PUSH2 0x1A0D JUMPI DUP4 PUSH1 0xFF AND SWAP8 POP POP POP POP POP POP POP POP PUSH2 0x6F2 JUMP JUMPDEST DUP1 PUSH1 0x2 EQ ISZERO PUSH2 0x1A27 JUMPI POP POP PUSH1 0xFF AND SWAP5 POP PUSH2 0x6F2 SWAP4 POP POP POP POP JUMP JUMPDEST DUP1 PUSH1 0x3 EQ ISZERO PUSH2 0x1A42 JUMPI DUP5 PUSH1 0xFF AND SWAP8 POP POP POP POP POP POP POP POP PUSH2 0x6F2 JUMP JUMPDEST DUP1 PUSH1 0x4 EQ ISZERO PUSH2 0x1A5C JUMPI POP PUSH1 0xFF AND SWAP6 POP PUSH2 0x6F2 SWAP5 POP POP POP POP POP JUMP JUMPDEST DUP1 PUSH1 0x5 EQ ISZERO PUSH2 0x1A77 JUMPI DUP4 PUSH1 0xFF AND SWAP8 POP POP POP POP POP POP POP POP PUSH2 0x6F2 JUMP JUMPDEST DUP1 PUSH1 0x6 EQ ISZERO PUSH2 0x1A91 JUMPI POP POP PUSH1 0xFF AND SWAP5 POP PUSH2 0x6F2 SWAP4 POP POP POP POP JUMP JUMPDEST POP POP PUSH1 0xFF SWAP1 SWAP4 AND SWAP7 SWAP6 POP POP POP POP POP POP JUMP JUMPDEST PUSH1 0x0 DUP1 PUSH1 0x0 DUP1 PUSH1 0x0 PUSH1 0x5 PUSH1 0x0 SWAP1 SLOAD SWAP1 PUSH2 0x100 EXP SWAP1 DIV PUSH1 0x1 PUSH1 0x1 PUSH1 0xA0 SHL SUB AND PUSH1 0x1 PUSH1 0x1 PUSH1 0xA0 SHL SUB AND PUSH4 0x8423B077 DUP8 PUSH1 0x40 MLOAD DUP3 PUSH4 0xFFFFFFFF AND PUSH1 0xE0 SHL DUP2 MSTORE PUSH1 0x4 ADD DUP1 DUP3 DUP2 MSTORE PUSH1 0x20 ADD SWAP2 POP POP PUSH1 0x80 PUSH1 0x40 MLOAD DUP1 DUP4 SUB DUP2 DUP7 DUP1 EXTCODESIZE ISZERO DUP1 ISZERO PUSH2 0x1B03 JUMPI PUSH1 0x0 DUP1 REVERT JUMPDEST POP GAS STATICCALL ISZERO DUP1 ISZERO PUSH2 0x1B17 JUMPI RETURNDATASIZE PUSH1 0x0 DUP1 RETURNDATACOPY RETURNDATASIZE PUSH1 0x0 REVERT JUMPDEST POP POP POP POP PUSH1 0x40 MLOAD RETURNDATASIZE PUSH1 0x80 DUP2 LT ISZERO PUSH2 0x1B2D JUMPI PUSH1 0x0 DUP1 REVERT JUMPDEST POP DUP1 MLOAD PUSH1 0x20 DUP3 ADD MLOAD PUSH1 0x40 DUP4 ADD MLOAD PUSH1 0x60 SWAP1 SWAP4 ADD MLOAD SWAP2 SWAP7 POP SWAP5 POP SWAP1 SWAP3 POP SWAP1 POP PUSH1 0xFF DUP1 DUP6 AND SWAP1 DUP5 AND DUP2 LT ISZERO PUSH2 0x1B5F JUMPI POP PUSH1 0xFF DUP4 AND JUMPDEST DUP1 DUP4 PUSH1 0xFF AND GT ISZERO PUSH2 0x1B70 JUMPI POP PUSH1 0xFF DUP3 AND JUMPDEST DUP1 DUP3 PUSH1 0xFF AND GT ISZERO PUSH2 0x1B81 JUMPI POP PUSH1 0xFF DUP2 AND JUMPDEST SWAP7 SWAP6 POP POP POP POP POP POP JUMP JUMPDEST PUSH1 0x0 DUP3 DUP3 ADD DUP4 DUP2 LT ISZERO PUSH2 0x173C JUMPI PUSH1 0x40 DUP1 MLOAD PUSH3 0x461BCD PUSH1 0xE5 SHL DUP2 MSTORE PUSH1 0x20 PUSH1 0x4 DUP3 ADD MSTORE PUSH1 0x1B PUSH1 0x24 DUP3 ADD MSTORE PUSH32 0x536166654D6174683A206164646974696F6E206F766572666C6F770000000000 PUSH1 0x44 DUP3 ADD MSTORE SWAP1 MLOAD SWAP1 DUP2 SWAP1 SUB PUSH1 0x64 ADD SWAP1 REVERT JUMPDEST PUSH2 0x1BED PUSH2 0x240F JUMP JUMPDEST PUSH2 0x1BF5 PUSH2 0x240F JUMP JUMPDEST PUSH2 0x1C01 DUP2 DUP7 DUP7 DUP7 PUSH2 0x1F35 JUMP JUMPDEST SWAP6 SWAP5 POP POP POP POP POP JUMP JUMPDEST PUSH1 0x60 DUP3 DUP3 PUSH1 0x40 MLOAD PUSH1 0x20 ADD DUP1 DUP4 DUP1 MLOAD SWAP1 PUSH1 0x20 ADD SWAP1 DUP1 DUP4 DUP4 JUMPDEST PUSH1 0x20 DUP4 LT PUSH2 0x1C40 JUMPI DUP1 MLOAD DUP3 MSTORE PUSH1 0x1F NOT SWAP1 SWAP3 ADD SWAP2 PUSH1 0x20 SWAP2 DUP3 ADD SWAP2 ADD PUSH2 0x1C21 JUMP JUMPDEST MLOAD DUP2 MLOAD PUSH1 0x20 SWAP4 DUP5 SUB PUSH2 0x100 EXP PUSH1 0x0 NOT ADD DUP1 NOT SWAP1 SWAP3 AND SWAP2 AND OR SWAP1 MSTORE DUP6 MLOAD SWAP2 SWAP1 SWAP4 ADD SWAP3 DUP6 ADD SWAP2 POP DUP1 DUP4 DUP4 JUMPDEST PUSH1 0x20 DUP4 LT PUSH2 0x1C88 JUMPI DUP1 MLOAD DUP3 MSTORE PUSH1 0x1F NOT SWAP1 SWAP3 ADD SWAP2 PUSH1 0x20 SWAP2 DUP3 ADD SWAP2 ADD PUSH2 0x1C69 JUMP JUMPDEST PUSH1 0x1 DUP4 PUSH1 0x20 SUB PUSH2 0x100 EXP SUB DUP1 NOT DUP3 MLOAD AND DUP2 DUP5 MLOAD AND DUP1 DUP3 OR DUP6 MSTORE POP POP POP POP POP POP SWAP1 POP ADD SWAP3 POP POP POP PUSH1 0x40 MLOAD PUSH1 0x20 DUP2 DUP4 SUB SUB DUP2 MSTORE SWAP1 PUSH1 0x40 MSTORE SWAP1 POP SWAP3 SWAP2 POP POP JUMP JUMPDEST PUSH1 0x80 DUP4 ADD MLOAD PUSH2 0x1CD4 SWAP1 DUP4 PUSH2 0x1F72 JUMP JUMPDEST PUSH1 0x80 DUP4 ADD MLOAD PUSH2 0x16C0 SWAP1 DUP3 PUSH2 0x1F72 JUMP JUMPDEST PUSH1 0xB SLOAD PUSH1 0x40 DUP1 MLOAD ADDRESS PUSH1 0x60 SWAP1 DUP2 SHL PUSH1 0x20 DUP1 DUP5 ADD SWAP2 SWAP1 SWAP2 MSTORE PUSH1 0x34 DUP1 DUP5 ADD DUP7 SWAP1 MSTORE DUP5 MLOAD DUP1 DUP6 SUB SWAP1 SWAP2 ADD DUP2 MSTORE PUSH1 0x54 SWAP1 SWAP4 ADD DUP5 MSTORE DUP3 MLOAD SWAP3 DUP2 ADD SWAP3 SWAP1 SWAP3 KECCAK256 SWAP1 DUP7 ADD SWAP4 SWAP1 SWAP4 MSTORE PUSH1 0x0 DUP4 DUP2 MSTORE PUSH1 0xC SWAP1 SWAP2 MSTORE DUP2 DUP2 KECCAK256 DUP1 SLOAD PUSH1 0x1 PUSH1 0x1 PUSH1 0xA0 SHL SUB NOT AND PUSH1 0x1 PUSH1 0x1 PUSH1 0xA0 SHL SUB DUP9 AND OR SWAP1 SSTORE SWAP1 MLOAD DUP3 SWAP2 PUSH32 0xB5E6E01E79F91267DC17B4E6314D5D4D03593D2CEEE0FBB452B750BD70EA5AF9 SWAP2 LOG2 PUSH1 0x9 SLOAD PUSH1 0x1 PUSH1 0x1 PUSH1 0xA0 SHL SUB AND PUSH4 0x4000AEA0 DUP6 DUP5 PUSH2 0x1D8B DUP8 PUSH2 0x1F89 JUMP JUMPDEST PUSH1 0x40 MLOAD DUP5 PUSH4 0xFFFFFFFF AND PUSH1 0xE0 SHL DUP2 MSTORE PUSH1 0x4 ADD DUP1 DUP5 PUSH1 0x1 PUSH1 0x1 PUSH1 0xA0 SHL SUB AND DUP2 MSTORE PUSH1 0x20 ADD DUP4 DUP2 MSTORE PUSH1 0x20 ADD DUP1 PUSH1 0x20 ADD DUP3 DUP2 SUB DUP3 MSTORE DUP4 DUP2 DUP2 MLOAD DUP2 MSTORE PUSH1 0x20 ADD SWAP2 POP DUP1 MLOAD SWAP1 PUSH1 0x20 ADD SWAP1 DUP1 DUP4 DUP4 PUSH1 0x0 JUMPDEST DUP4 DUP2 LT ISZERO PUSH2 0x1DEC JUMPI DUP2 DUP2 ADD MLOAD DUP4 DUP3 ADD MSTORE PUSH1 0x20 ADD PUSH2 0x1DD4 JUMP JUMPDEST POP POP POP POP SWAP1 POP SWAP1 DUP2 ADD SWAP1 PUSH1 0x1F AND DUP1 ISZERO PUSH2 0x1E19 JUMPI DUP1 DUP3 SUB DUP1 MLOAD PUSH1 0x1 DUP4 PUSH1 0x20 SUB PUSH2 0x100 EXP SUB NOT AND DUP2 MSTORE PUSH1 0x20 ADD SWAP2 POP JUMPDEST POP SWAP5 POP POP POP POP POP PUSH1 0x20 PUSH1 0x40 MLOAD DUP1 DUP4 SUB DUP2 PUSH1 0x0 DUP8 DUP1 EXTCODESIZE ISZERO DUP1 ISZERO PUSH2 0x1E3A JUMPI PUSH1 0x0 DUP1 REVERT JUMPDEST POP GAS CALL ISZERO DUP1 ISZERO PUSH2 0x1E4E JUMPI RETURNDATASIZE PUSH1 0x0 DUP1 RETURNDATACOPY RETURNDATASIZE PUSH1 0x0 REVERT JUMPDEST POP POP POP POP PUSH1 0x40 MLOAD RETURNDATASIZE PUSH1 0x20 DUP2 LT ISZERO PUSH2 0x1E64 JUMPI PUSH1 0x0 DUP1 REVERT JUMPDEST POP MLOAD PUSH2 0x1EA1 JUMPI PUSH1 0x40 MLOAD PUSH3 0x461BCD PUSH1 0xE5 SHL DUP2 MSTORE PUSH1 0x4 ADD DUP1 DUP1 PUSH1 0x20 ADD DUP3 DUP2 SUB DUP3 MSTORE PUSH1 0x23 DUP2 MSTORE PUSH1 0x20 ADD DUP1 PUSH2 0x2486 PUSH1 0x23 SWAP2 CODECOPY PUSH1 0x40 ADD SWAP2 POP POP PUSH1 0x40 MLOAD DUP1 SWAP2 SUB SWAP1 REVERT JUMPDEST PUSH1 0xB DUP1 SLOAD PUSH1 0x1 ADD SWAP1 SSTORE SWAP4 SWAP3 POP POP POP JUMP JUMPDEST PUSH1 0x0 DUP1 SLOAD PUSH1 0xFF AND PUSH1 0x1 DUP2 GT ISZERO PUSH2 0x1EC3 JUMPI INVALID JUMPDEST EQ PUSH2 0x1ECD JUMPI PUSH1 0x0 DUP1 REVERT JUMPDEST PUSH2 0x1ED5 PUSH2 0x2444 JUMP JUMPDEST PUSH1 0x1 DUP1 DUP3 MSTORE PUSH1 0x0 DUP4 DUP2 MSTORE PUSH1 0x20 DUP3 SWAP1 MSTORE PUSH1 0x40 DUP2 KECCAK256 SWAP3 MLOAD DUP4 SLOAD PUSH1 0xFF NOT AND SWAP1 ISZERO ISZERO OR SWAP1 SWAP3 SSTORE PUSH1 0x2 DUP1 SLOAD DUP1 DUP4 ADD DUP3 SSTORE SWAP3 MSTORE PUSH32 0x405787FA12A823E0F2B7631CC41B3BA8828B3321CA811111FA75CD3AA3BB5ACE SWAP1 SWAP2 ADD SWAP2 SWAP1 SWAP2 SSTORE PUSH1 0x3 DUP1 SLOAD SWAP1 SWAP2 ADD SWAP1 SSTORE JUMP JUMPDEST PUSH2 0x1F3D PUSH2 0x240F JUMP JUMPDEST PUSH2 0x1F4D DUP6 PUSH1 0x80 ADD MLOAD PUSH2 0x100 PUSH2 0x20AD JUMP JUMPDEST POP POP SWAP2 DUP4 MSTORE PUSH1 0x1 PUSH1 0x1 PUSH1 0xA0 SHL SUB AND PUSH1 0x20 DUP4 ADD MSTORE PUSH1 0x1 PUSH1 0x1 PUSH1 0xE0 SHL SUB NOT AND PUSH1 0x40 DUP3 ADD MSTORE SWAP1 JUMP JUMPDEST PUSH2 0x1F7F DUP3 PUSH1 0x3 DUP4 MLOAD PUSH2 0x20E7 JUMP JUMPDEST PUSH2 0x16C0 DUP3 DUP3 PUSH2 0x21BB JUMP JUMPDEST PUSH1 0x60 PUSH4 0x40429946 PUSH1 0xE0 SHL PUSH1 0x0 DUP1 DUP5 PUSH1 0x0 ADD MLOAD DUP6 PUSH1 0x20 ADD MLOAD DUP7 PUSH1 0x40 ADD MLOAD DUP8 PUSH1 0x60 ADD MLOAD PUSH1 0x1 DUP10 PUSH1 0x80 ADD MLOAD PUSH1 0x0 ADD MLOAD PUSH1 0x40 MLOAD PUSH1 0x24 ADD DUP1 DUP10 PUSH1 0x1 PUSH1 0x1 PUSH1 0xA0 SHL SUB AND DUP2 MSTORE PUSH1 0x20 ADD DUP9 DUP2 MSTORE PUSH1 0x20 ADD DUP8 DUP2 MSTORE PUSH1 0x20 ADD DUP7 PUSH1 0x1 PUSH1 0x1 PUSH1 0xA0 SHL SUB AND DUP2 MSTORE PUSH1 0x20 ADD DUP6 PUSH1 0x1 PUSH1 0x1 PUSH1 0xE0 SHL SUB NOT AND DUP2 MSTORE PUSH1 0x20 ADD DUP5 DUP2 MSTORE PUSH1 0x20 ADD DUP4 DUP2 MSTORE PUSH1 0x20 ADD DUP1 PUSH1 0x20 ADD DUP3 DUP2 SUB DUP3 MSTORE DUP4 DUP2 DUP2 MLOAD DUP2 MSTORE PUSH1 0x20 ADD SWAP2 POP DUP1 MLOAD SWAP1 PUSH1 0x20 ADD SWAP1 DUP1 DUP4 DUP4 PUSH1 0x0 JUMPDEST DUP4 DUP2 LT ISZERO PUSH2 0x203B JUMPI DUP2 DUP2 ADD MLOAD DUP4 DUP3 ADD MSTORE PUSH1 0x20 ADD PUSH2 0x2023 JUMP JUMPDEST POP POP POP POP SWAP1 POP SWAP1 DUP2 ADD SWAP1 PUSH1 0x1F AND DUP1 ISZERO PUSH2 0x2068 JUMPI DUP1 DUP3 SUB DUP1 MLOAD PUSH1 0x1 DUP4 PUSH1 0x20 SUB PUSH2 0x100 EXP SUB NOT AND DUP2 MSTORE PUSH1 0x20 ADD SWAP2 POP JUMPDEST POP PUSH1 0x40 DUP1 MLOAD PUSH1 0x1F NOT DUP2 DUP5 SUB ADD DUP2 MSTORE SWAP2 SWAP1 MSTORE PUSH1 0x20 DUP2 ADD DUP1 MLOAD PUSH1 0x1 PUSH1 0x1 PUSH1 0xE0 SHL SUB AND PUSH1 0x1 PUSH1 0x1 PUSH1 0xE0 SHL SUB NOT SWAP1 SWAP14 AND SWAP13 SWAP1 SWAP13 OR SWAP1 SWAP12 MSTORE POP SWAP9 SWAP10 POP POP POP POP POP POP POP POP POP POP SWAP2 SWAP1 POP JUMP JUMPDEST PUSH2 0x20B5 PUSH2 0x2456 JUMP JUMPDEST PUSH1 0x20 DUP3 MOD ISZERO PUSH2 0x20CA JUMPI PUSH1 0x20 DUP3 MOD PUSH1 0x20 SUB DUP3 ADD SWAP2 POP JUMPDEST POP PUSH1 0x20 DUP3 DUP2 ADD DUP3 SWAP1 MSTORE PUSH1 0x40 DUP1 MLOAD DUP1 DUP6 MSTORE PUSH1 0x0 DUP2 MSTORE SWAP1 SWAP3 ADD ADD SWAP1 MSTORE SWAP1 JUMP JUMPDEST PUSH1 0x17 DUP2 GT PUSH2 0x2108 JUMPI PUSH2 0x2102 DUP4 PUSH1 0xE0 PUSH1 0x5 DUP6 SWAP1 SHL AND DUP4 OR PUSH2 0x21D5 JUMP JUMPDEST POP PUSH2 0x16C0 JUMP JUMPDEST PUSH1 0xFF DUP2 GT PUSH2 0x2132 JUMPI PUSH2 0x2125 DUP4 PUSH1 0x18 PUSH2 0x1FE0 PUSH1 0x5 DUP7 SWAP1 SHL AND OR PUSH2 0x21D5 JUMP JUMPDEST POP PUSH2 0x2102 DUP4 DUP3 PUSH1 0x1 PUSH2 0x21ED JUMP JUMPDEST PUSH2 0xFFFF DUP2 GT PUSH2 0x215D JUMPI PUSH2 0x2150 DUP4 PUSH1 0x19 PUSH2 0x1FE0 PUSH1 0x5 DUP7 SWAP1 SHL AND OR PUSH2 0x21D5 JUMP JUMPDEST POP PUSH2 0x2102 DUP4 DUP3 PUSH1 0x2 PUSH2 0x21ED JUMP JUMPDEST PUSH4 0xFFFFFFFF DUP2 GT PUSH2 0x218A JUMPI PUSH2 0x217D DUP4 PUSH1 0x1A PUSH2 0x1FE0 PUSH1 0x5 DUP7 SWAP1 SHL AND OR PUSH2 0x21D5 JUMP JUMPDEST POP PUSH2 0x2102 DUP4 DUP3 PUSH1 0x4 PUSH2 0x21ED JUMP JUMPDEST PUSH8 0xFFFFFFFFFFFFFFFF DUP2 GT PUSH2 0x16C0 JUMPI PUSH2 0x21AE DUP4 PUSH1 0x1B PUSH2 0x1FE0 PUSH1 0x5 DUP7 SWAP1 SHL AND OR PUSH2 0x21D5 JUMP JUMPDEST POP PUSH2 0x7BC DUP4 DUP3 PUSH1 0x8 PUSH2 0x21ED JUMP JUMPDEST PUSH2 0x21C3 PUSH2 0x2456 JUMP JUMPDEST PUSH2 0x173C DUP4 DUP5 PUSH1 0x0 ADD MLOAD MLOAD DUP5 DUP6 MLOAD PUSH2 0x220E JUMP JUMPDEST PUSH2 0x21DD PUSH2 0x2456 JUMP JUMPDEST PUSH2 0x173C DUP4 DUP5 PUSH1 0x0 ADD MLOAD MLOAD DUP5 PUSH2 0x22BA JUMP JUMPDEST PUSH2 0x21F5 PUSH2 0x2456 JUMP JUMPDEST PUSH2 0x2206 DUP5 DUP6 PUSH1 0x0 ADD MLOAD MLOAD DUP6 DUP6 PUSH2 0x2305 JUMP JUMPDEST SWAP5 SWAP4 POP POP POP POP JUMP JUMPDEST PUSH2 0x2216 PUSH2 0x2456 JUMP JUMPDEST DUP3 MLOAD DUP3 GT ISZERO PUSH2 0x2224 JUMPI PUSH1 0x0 DUP1 REVERT JUMPDEST DUP5 PUSH1 0x20 ADD MLOAD DUP3 DUP6 ADD GT ISZERO PUSH2 0x224E JUMPI PUSH2 0x224E DUP6 PUSH2 0x2246 DUP8 PUSH1 0x20 ADD MLOAD DUP8 DUP7 ADD PUSH2 0x2363 JUMP JUMPDEST PUSH1 0x2 MUL PUSH2 0x237A JUMP JUMPDEST PUSH1 0x0 DUP1 DUP7 MLOAD DUP1 MLOAD DUP8 PUSH1 0x20 DUP4 ADD ADD SWAP4 POP DUP1 DUP9 DUP8 ADD GT ISZERO PUSH2 0x226D JUMPI DUP8 DUP7 ADD DUP3 MSTORE JUMPDEST POP POP POP PUSH1 0x20 DUP5 ADD JUMPDEST PUSH1 0x20 DUP5 LT PUSH2 0x2294 JUMPI DUP1 MLOAD DUP3 MSTORE PUSH1 0x1F NOT SWAP1 SWAP4 ADD SWAP3 PUSH1 0x20 SWAP2 DUP3 ADD SWAP2 ADD PUSH2 0x2275 JUMP JUMPDEST MLOAD DUP2 MLOAD PUSH1 0x0 NOT PUSH1 0x20 DUP7 SWAP1 SUB PUSH2 0x100 EXP ADD SWAP1 DUP2 AND SWAP1 NOT SWAP2 SWAP1 SWAP2 AND OR SWAP1 MSTORE POP DUP4 SWAP5 SWAP4 POP POP POP POP JUMP JUMPDEST PUSH2 0x22C2 PUSH2 0x2456 JUMP JUMPDEST DUP4 PUSH1 0x20 ADD MLOAD DUP4 LT PUSH2 0x22DE JUMPI PUSH2 0x22DE DUP5 DUP6 PUSH1 0x20 ADD MLOAD PUSH1 0x2 MUL PUSH2 0x237A JUMP JUMPDEST DUP4 MLOAD DUP1 MLOAD PUSH1 0x20 DUP6 DUP4 ADD ADD DUP5 DUP2 MSTORE8 POP DUP1 DUP6 EQ ISZERO PUSH2 0x22FB JUMPI PUSH1 0x1 DUP2 ADD DUP3 MSTORE JUMPDEST POP SWAP4 SWAP5 SWAP4 POP POP POP POP JUMP JUMPDEST PUSH2 0x230D PUSH2 0x2456 JUMP JUMPDEST DUP5 PUSH1 0x20 ADD MLOAD DUP5 DUP4 ADD GT ISZERO PUSH2 0x232A JUMPI PUSH2 0x232A DUP6 DUP6 DUP5 ADD PUSH1 0x2 MUL PUSH2 0x237A JUMP JUMPDEST PUSH1 0x0 PUSH1 0x1 DUP4 PUSH2 0x100 EXP SUB SWAP1 POP DUP6 MLOAD DUP4 DUP7 DUP3 ADD ADD DUP6 DUP4 NOT DUP3 MLOAD AND OR DUP2 MSTORE POP DUP1 MLOAD DUP5 DUP8 ADD GT ISZERO PUSH2 0x2358 JUMPI DUP4 DUP7 ADD DUP2 MSTORE JUMPDEST POP SWAP5 SWAP6 SWAP5 POP POP POP POP POP JUMP JUMPDEST PUSH1 0x0 DUP2 DUP4 GT ISZERO PUSH2 0x2374 JUMPI POP DUP2 PUSH2 0x173F JUMP JUMPDEST POP SWAP2 SWAP1 POP JUMP JUMPDEST DUP2 MLOAD PUSH2 0x2386 DUP4 DUP4 PUSH2 0x20AD JUMP JUMPDEST POP PUSH2 0x7BC DUP4 DUP3 PUSH2 0x21BB JUMP JUMPDEST DUP3 DUP1 SLOAD PUSH1 0x1 DUP2 PUSH1 0x1 AND ISZERO PUSH2 0x100 MUL SUB AND PUSH1 0x2 SWAP1 DIV SWAP1 PUSH1 0x0 MSTORE PUSH1 0x20 PUSH1 0x0 KECCAK256 SWAP1 PUSH1 0x1F ADD PUSH1 0x20 SWAP1 DIV DUP2 ADD SWAP3 DUP3 PUSH1 0x1F LT PUSH2 0x23D2 JUMPI DUP1 MLOAD PUSH1 0xFF NOT AND DUP4 DUP1 ADD OR DUP6 SSTORE PUSH2 0x23FF JUMP JUMPDEST DUP3 DUP1 ADD PUSH1 0x1 ADD DUP6 SSTORE DUP3 ISZERO PUSH2 0x23FF JUMPI SWAP2 DUP3 ADD JUMPDEST DUP3 DUP2 GT ISZERO PUSH2 0x23FF JUMPI DUP3 MLOAD DUP3 SSTORE SWAP2 PUSH1 0x20 ADD SWAP2 SWAP1 PUSH1 0x1 ADD SWAP1 PUSH2 0x23E4 JUMP JUMPDEST POP PUSH2 0x240B SWAP3 SWAP2 POP PUSH2 0x2470 JUMP JUMPDEST POP SWAP1 JUMP JUMPDEST PUSH1 0x40 DUP1 MLOAD PUSH1 0xA0 DUP2 ADD DUP3 MSTORE PUSH1 0x0 DUP1 DUP3 MSTORE PUSH1 0x20 DUP3 ADD DUP2 SWAP1 MSTORE SWAP2 DUP2 ADD DUP3 SWAP1 MSTORE PUSH1 0x60 DUP2 ADD SWAP2 SWAP1 SWAP2 MSTORE PUSH1 0x80 DUP2 ADD PUSH2 0x243F PUSH2 0x2456 JUMP JUMPDEST SWAP1 MSTORE SWAP1 JUMP JUMPDEST PUSH1 0x40 DUP1 MLOAD PUSH1 0x20 DUP2 ADD SWAP1 SWAP2 MSTORE PUSH1 0x0 DUP2 MSTORE SWAP1 JUMP JUMPDEST PUSH1 0x40 MLOAD DUP1 PUSH1 0x40 ADD PUSH1 0x40 MSTORE DUP1 PUSH1 0x60 DUP2 MSTORE PUSH1 0x20 ADD PUSH1 0x0 DUP2 MSTORE POP SWAP1 JUMP JUMPDEST JUMPDEST DUP1 DUP3 GT ISZERO PUSH2 0x240B JUMPI PUSH1 0x0 DUP2 SSTORE PUSH1 0x1 ADD PUSH2 0x2471 JUMP INVALID PUSH22 0x6E61626C6520746F207472616E73666572416E644361 PUSH13 0x6C20746F206F7261636C656874 PUSH21 0x703A2F2F6170692E6F70656E776561746865726D61 PUSH17 0x2E6F72672F646174612F322E352F776561 PUSH21 0x6865723F69643D536166654D6174683A206D756C74 PUSH10 0x706C69636174696F6E20 PUSH16 0x766572666C6F77536F75726365206D75 PUSH20 0x7420626520746865206F7261636C65206F662074 PUSH9 0x652072657175657374 LOG2 PUSH5 0x6970667358 0x22 SLT KECCAK256 0xF8 PUSH17 0x221686CB7DB655D5374B9F60ACC24FEA08 0xB5 PUSH18 0x1C01912F80933AAA34AE2364736F6C634300 MOD 0xC STOP CALLER LOG2 PUSH5 0x6970667358 0x22 SLT KECCAK256 0x5E 0x4C SWAP13 0xAF CALLDATALOAD 0xC0 POP MULMOD EQ 0xE8 0xC8 0xD 0x4E PUSH6 0x386E4F05481C SAR EXTCODECOPY 0xF8 0xCA CREATE DUP4 0xCF JUMP 0xA6 0xBE SDIV DIFFICULTY PUSH5 0x736F6C6343 STOP MOD 0xC STOP CALLER ",
  "sha1": "e2e266a3e5dca3ccb91405b28935718c19a6ac44",
  "source": "// SPDX-License-Identifier: UNLICENSED\npragma solidity ^0.6.0;\n\nimport \"./WeatherWars.sol\";\nimport \"alphachainio/chainlink-contracts@1.1.3/contracts/src/v0.6/VRFConsumerBase.sol\";\nimport \"OpenZeppelin/openzeppelin-contracts@3.4.0/contracts/math/SafeMath.sol\";\n\ncontract WeatherWarsFactory is VRFConsumerBase {\n    WeatherWars[] public games;\n\n    uint8 private constant MAX_CITIES = 24;\n\n    uint8 private constant MAX_WEATHERS = 7;\n\n    uint256 private _fee;\n\n    bytes32 internal _keyHash;\n\n    string private _nextCity;\n\n    uint256 constant SEED = 13563;\n\n    address private _linkTokenAddress;\n\n    address public oracle;\n\n    string private _weatherApiKey;\n\n    bytes32 public jobId;\n\n    mapping(string => uint8) public weatherMapping;\n\n    mapping(uint8 => bool) private weatherMapIds;\n\n    mapping(string => uint8) public cities;\n\n    string[] private _openWeatherCityIds;\n\n    mapping(uint8 => bool) private _cityIds;\n\n    address private _cryptoChampionsAddress;\n\n    event GameCreated(string gameName, string city);\n\n    event CreatingGame(string city);\n\n    constructor(\n        address oracleAddress,\n        address vrfCoordinateAdddress,\n        address linkTokenAddress,\n        uint256 feeInLink,\n        bytes32 keyHash,\n        string memory weatherApiKey,\n        bytes32 oracleJobId,\n        address cryptoChampionsAddress\n    ) public VRFConsumerBase(vrfCoordinateAdddress, linkTokenAddress) {\n        _fee = feeInLink;\n        _keyHash = keyHash;\n        _linkTokenAddress = linkTokenAddress;\n        _weatherApiKey = weatherApiKey;\n        oracle = oracleAddress;\n        jobId = oracleJobId;\n        _cryptoChampionsAddress = cryptoChampionsAddress;\n    }\n\n    function init() external {\n        requestNextCity();\n    }\n\n    function addWeatherMapping(string calldata weather, uint8 id) external {\n        require(!weatherMapIds[id]); // dev: Weather ID already taken\n        require(id >= 0 && id < MAX_WEATHERS); // dev: Weather ID is invalid.\n        weatherMapping[weather] = id;\n        weatherMapIds[id] = true;\n    }\n\n    function addCityMapping(string calldata openWeatherCityId, uint8 cityId) external {\n        require(!_cityIds[cityId]); // dev: City already taken\n        require(cityId >= 0 && cityId < MAX_CITIES); // dev: City ID is invalid.\n        cities[openWeatherCityId] = cityId;\n        _cityIds[cityId] = true;\n        _openWeatherCityIds.push(openWeatherCityId);\n    }\n\n    function createWeatherWars(\n        uint256 _buyinAmount,\n        uint256 initiatorHeroId,\n        address opponent,\n        uint256 opponentHeroId\n    ) external returns (bytes32) {\n        WeatherWars newGame =\n            new WeatherWars(\n                oracle,\n                _linkTokenAddress,\n                _fee,\n                \"weather-wars\",\n                _cryptoChampionsAddress,\n                _buyinAmount,\n                _nextCity,\n                jobId,\n                _weatherApiKey,\n                address(this)\n            );\n        newGame.setPlayerInformation(msg.sender, initiatorHeroId, opponent, opponentHeroId);\n        games.push(newGame);\n        requestNextCity();\n    }\n\n    function requestNextCity() internal {\n        require(LINK.balanceOf(address(this)) >= _fee);\n        requestRandomness(_keyHash, _fee, SEED);\n    }\n\n    function fulfillRandomness(bytes32 requestId, uint256 randomNum) internal override {\n        uint256 cityIdx = randomNum % MAX_CITIES;\n        _nextCity = _openWeatherCityIds[cityIdx];\n    }\n\n    function getNumGames() external returns (uint256) {\n        return games.length;\n    }\n}\n",
  "sourcePath": "contracts/minigames/games/weatherWars/WeatherWarsFactory.sol",
  "type": "contract"
}