{
  "abi": [
    {
      "inputs": [
        {
          "internalType": "address",
          "name": "oracle",
          "type": "address"
        },
        {
          "internalType": "address",
          "name": "linkTokenAddress",
          "type": "address"
        },
        {
          "internalType": "uint256",
          "name": "fee",
          "type": "uint256"
        },
        {
          "internalType": "string",
          "name": "_gameName",
          "type": "string"
        },
        {
          "internalType": "address",
          "name": "_cryptoChampionsContractAddress",
          "type": "address"
        },
        {
          "internalType": "uint256",
          "name": "_buyinAmount",
          "type": "uint256"
        },
        {
          "internalType": "string",
          "name": "_city",
          "type": "string"
        },
        {
          "internalType": "bytes32",
          "name": "jobId",
          "type": "bytes32"
        },
        {
          "internalType": "string",
          "name": "apiKey",
          "type": "string"
        },
        {
          "internalType": "address",
          "name": "weatherWarsFactoryAddress",
          "type": "address"
        }
      ],
      "stateMutability": "nonpayable",
      "type": "constructor"
    },
    {
      "anonymous": false,
      "inputs": [
        {
          "indexed": true,
          "internalType": "bytes32",
          "name": "id",
          "type": "bytes32"
        }
      ],
      "name": "ChainlinkCancelled",
      "type": "event"
    },
    {
      "anonymous": false,
      "inputs": [
        {
          "indexed": true,
          "internalType": "bytes32",
          "name": "id",
          "type": "bytes32"
        }
      ],
      "name": "ChainlinkFulfilled",
      "type": "event"
    },
    {
      "anonymous": false,
      "inputs": [
        {
          "indexed": true,
          "internalType": "bytes32",
          "name": "id",
          "type": "bytes32"
        }
      ],
      "name": "ChainlinkRequested",
      "type": "event"
    },
    {
      "anonymous": false,
      "inputs": [],
      "name": "GameEnded",
      "type": "event"
    },
    {
      "anonymous": false,
      "inputs": [],
      "name": "GameStarted",
      "type": "event"
    },
    {
      "anonymous": false,
      "inputs": [],
      "name": "MaxPlayersReached",
      "type": "event"
    },
    {
      "inputs": [
        {
          "internalType": "address",
          "name": "",
          "type": "address"
        }
      ],
      "name": "balances",
      "outputs": [
        {
          "internalType": "uint256",
          "name": "",
          "type": "uint256"
        }
      ],
      "stateMutability": "view",
      "type": "function"
    },
    {
      "inputs": [],
      "name": "buyinAmount",
      "outputs": [
        {
          "internalType": "uint256",
          "name": "",
          "type": "uint256"
        }
      ],
      "stateMutability": "view",
      "type": "function"
    },
    {
      "inputs": [],
      "name": "city",
      "outputs": [
        {
          "internalType": "string",
          "name": "",
          "type": "string"
        }
      ],
      "stateMutability": "view",
      "type": "function"
    },
    {
      "inputs": [],
      "name": "cityWeather",
      "outputs": [
        {
          "internalType": "string",
          "name": "",
          "type": "string"
        }
      ],
      "stateMutability": "view",
      "type": "function"
    },
    {
      "inputs": [],
      "name": "cryptoChampions",
      "outputs": [
        {
          "internalType": "contract ICryptoChampions",
          "name": "",
          "type": "address"
        }
      ],
      "stateMutability": "view",
      "type": "function"
    },
    {
      "inputs": [],
      "name": "currentPhase",
      "outputs": [
        {
          "internalType": "enum Minigame.MinigamePhase",
          "name": "",
          "type": "uint8"
        }
      ],
      "stateMutability": "view",
      "type": "function"
    },
    {
      "inputs": [],
      "name": "determineWinner",
      "outputs": [],
      "stateMutability": "nonpayable",
      "type": "function"
    },
    {
      "inputs": [
        {
          "internalType": "bytes32",
          "name": "_requestId",
          "type": "bytes32"
        },
        {
          "internalType": "bytes32",
          "name": "_weather",
          "type": "bytes32"
        }
      ],
      "name": "fulfill",
      "outputs": [],
      "stateMutability": "nonpayable",
      "type": "function"
    },
    {
      "inputs": [],
      "name": "gameName",
      "outputs": [
        {
          "internalType": "string",
          "name": "",
          "type": "string"
        }
      ],
      "stateMutability": "view",
      "type": "function"
    },
    {
      "inputs": [],
      "name": "getMetaInformation",
      "outputs": [
        {
          "internalType": "address",
          "name": "",
          "type": "address"
        },
        {
          "internalType": "address",
          "name": "",
          "type": "address"
        },
        {
          "internalType": "uint256",
          "name": "",
          "type": "uint256"
        },
        {
          "internalType": "uint256",
          "name": "",
          "type": "uint256"
        },
        {
          "internalType": "enum Minigame.MinigamePhase",
          "name": "",
          "type": "uint8"
        },
        {
          "internalType": "address",
          "name": "",
          "type": "address"
        },
        {
          "internalType": "bool",
          "name": "",
          "type": "bool"
        },
        {
          "internalType": "uint256",
          "name": "",
          "type": "uint256"
        }
      ],
      "stateMutability": "view",
      "type": "function"
    },
    {
      "inputs": [],
      "name": "getNumPlayers",
      "outputs": [
        {
          "internalType": "uint256",
          "name": "",
          "type": "uint256"
        }
      ],
      "stateMutability": "view",
      "type": "function"
    },
    {
      "inputs": [
        {
          "internalType": "uint256",
          "name": "",
          "type": "uint256"
        }
      ],
      "name": "heroIds",
      "outputs": [
        {
          "internalType": "uint256",
          "name": "",
          "type": "uint256"
        }
      ],
      "stateMutability": "view",
      "type": "function"
    },
    {
      "inputs": [],
      "name": "initiator",
      "outputs": [
        {
          "internalType": "address",
          "name": "",
          "type": "address"
        }
      ],
      "stateMutability": "view",
      "type": "function"
    },
    {
      "inputs": [],
      "name": "initiatorHeroId",
      "outputs": [
        {
          "internalType": "uint256",
          "name": "",
          "type": "uint256"
        }
      ],
      "stateMutability": "view",
      "type": "function"
    },
    {
      "inputs": [],
      "name": "isDuelAccepted",
      "outputs": [
        {
          "internalType": "bool",
          "name": "",
          "type": "bool"
        }
      ],
      "stateMutability": "view",
      "type": "function"
    },
    {
      "inputs": [
        {
          "internalType": "uint256",
          "name": "heroId",
          "type": "uint256"
        }
      ],
      "name": "joinGame",
      "outputs": [],
      "stateMutability": "nonpayable",
      "type": "function"
    },
    {
      "inputs": [
        {
          "internalType": "uint256",
          "name": "heroId",
          "type": "uint256"
        }
      ],
      "name": "leaveGame",
      "outputs": [],
      "stateMutability": "nonpayable",
      "type": "function"
    },
    {
      "inputs": [],
      "name": "maxPlayers",
      "outputs": [
        {
          "internalType": "uint256",
          "name": "",
          "type": "uint256"
        }
      ],
      "stateMutability": "view",
      "type": "function"
    },
    {
      "inputs": [],
      "name": "numPlayers",
      "outputs": [
        {
          "internalType": "uint256",
          "name": "",
          "type": "uint256"
        }
      ],
      "stateMutability": "view",
      "type": "function"
    },
    {
      "inputs": [
        {
          "internalType": "address",
          "name": "operator",
          "type": "address"
        },
        {
          "internalType": "address",
          "name": "from",
          "type": "address"
        },
        {
          "internalType": "uint256[]",
          "name": "ids",
          "type": "uint256[]"
        },
        {
          "internalType": "uint256[]",
          "name": "values",
          "type": "uint256[]"
        },
        {
          "internalType": "bytes",
          "name": "data",
          "type": "bytes"
        }
      ],
      "name": "onERC1155BatchReceived",
      "outputs": [
        {
          "internalType": "bytes4",
          "name": "",
          "type": "bytes4"
        }
      ],
      "stateMutability": "nonpayable",
      "type": "function"
    },
    {
      "inputs": [
        {
          "internalType": "address",
          "name": "operator",
          "type": "address"
        },
        {
          "internalType": "address",
          "name": "from",
          "type": "address"
        },
        {
          "internalType": "uint256",
          "name": "id",
          "type": "uint256"
        },
        {
          "internalType": "uint256",
          "name": "value",
          "type": "uint256"
        },
        {
          "internalType": "bytes",
          "name": "data",
          "type": "bytes"
        }
      ],
      "name": "onERC1155Received",
      "outputs": [
        {
          "internalType": "bytes4",
          "name": "",
          "type": "bytes4"
        }
      ],
      "stateMutability": "nonpayable",
      "type": "function"
    },
    {
      "inputs": [],
      "name": "opponent",
      "outputs": [
        {
          "internalType": "address",
          "name": "",
          "type": "address"
        }
      ],
      "stateMutability": "view",
      "type": "function"
    },
    {
      "inputs": [],
      "name": "opponentHeroId",
      "outputs": [
        {
          "internalType": "uint256",
          "name": "",
          "type": "uint256"
        }
      ],
      "stateMutability": "view",
      "type": "function"
    },
    {
      "inputs": [
        {
          "internalType": "address",
          "name": "",
          "type": "address"
        }
      ],
      "name": "playerHero",
      "outputs": [
        {
          "internalType": "uint256",
          "name": "",
          "type": "uint256"
        }
      ],
      "stateMutability": "view",
      "type": "function"
    },
    {
      "inputs": [
        {
          "internalType": "uint256",
          "name": "",
          "type": "uint256"
        }
      ],
      "name": "players",
      "outputs": [
        {
          "internalType": "bool",
          "name": "isInGame",
          "type": "bool"
        }
      ],
      "stateMutability": "view",
      "type": "function"
    },
    {
      "inputs": [
        {
          "internalType": "address",
          "name": "duelInitiator",
          "type": "address"
        },
        {
          "internalType": "uint256",
          "name": "duelInitiatorHeroId",
          "type": "uint256"
        },
        {
          "internalType": "address",
          "name": "duelOpponent",
          "type": "address"
        },
        {
          "internalType": "uint256",
          "name": "duelOpponentHeroId",
          "type": "uint256"
        }
      ],
      "name": "setPlayerInformation",
      "outputs": [],
      "stateMutability": "nonpayable",
      "type": "function"
    },
    {
      "inputs": [],
      "name": "startGame",
      "outputs": [],
      "stateMutability": "nonpayable",
      "type": "function"
    },
    {
      "inputs": [
        {
          "internalType": "bytes4",
          "name": "interfaceId",
          "type": "bytes4"
        }
      ],
      "name": "supportsInterface",
      "outputs": [
        {
          "internalType": "bool",
          "name": "",
          "type": "bool"
        }
      ],
      "stateMutability": "view",
      "type": "function"
    },
    {
      "inputs": [],
      "name": "winner",
      "outputs": [
        {
          "internalType": "address",
          "name": "",
          "type": "address"
        }
      ],
      "stateMutability": "view",
      "type": "function"
    }
  ],
  "bytecode": "60806040526001600b553480156200001657600080fd5b5060405162002aab38038062002aab83398181016040526101408110156200003d57600080fd5b8151602083015160408085015160608601805192519496939591949391820192846401000000008211156200007157600080fd5b9083019060208201858111156200008757600080fd5b8251640100000000811182820188101715620000a257600080fd5b82525081516020918201929091019080838360005b83811015620000d1578181015183820152602001620000b7565b50505050905090810190601f168015620000ff5780820380516001836020036101000a031916815260200191505b506040818152602083015190830151606090930180519195939492939291846401000000008211156200013157600080fd5b9083019060208201858111156200014757600080fd5b82516401000000008111828201881017156200016257600080fd5b82525081516020918201929091019080838360005b838110156200019157818101518382015260200162000177565b50505050905090810190601f168015620001bf5780820380516001836020036101000a031916815260200191505b50604081815260208301519201805192949193919284640100000000821115620001e857600080fd5b908301906020820185811115620001fe57600080fd5b82516401000000008111828201881017156200021957600080fd5b82525081516020918201929091019080838360005b83811015620002485781810151838201526020016200022e565b50505050905090810190601f168015620002765780820380516001836020036101000a031916815260200191505b5060408181526020928301516004805460026001821615610100026000190190911604601f81018690048602850186019093528284529095509193509091830182828015620003095780601f10620002dd5761010080835404028352916020019162000309565b820191906000526020600020905b815481529060010190602001808311620002eb57829003601f168201915b5050505050600287828181600490805190602001906200032b929190620004a0565b506000805460ff19169055600580546001600160a01b0319166001600160a01b03929092169190911790555050600655506200036e6301ffc9a760e01b6200041b565b62000380630271189760e51b6200041b565b600e80546001600160a01b03808c166001600160a01b031992831617909255600f8a905560118054928d16929091169190911790558351620003ca906010906020870190620004a0565b50601385905560158390558151620003ea906016906020850190620004a0565b50601780546001600160a01b0319166001600160a01b0392909216919091179055506200053c975050505050505050565b6001600160e01b031980821614156200047b576040805162461bcd60e51b815260206004820152601c60248201527f4552433136353a20696e76616c696420696e7465726661636520696400000000604482015290519081900360640190fd5b6001600160e01b0319166000908152600d60205260409020805460ff19166001179055565b828054600181600116156101000203166002900490600052602060002090601f016020900481019282601f10620004e357805160ff191683800117855562000513565b8280016001018555821562000513579182015b8281111562000513578251825591602001919060010190620004f6565b506200052192915062000525565b5090565b5b8082111562000521576000815560010162000526565b61255f806200054c6000396000f3fe608060405234801561001057600080fd5b50600436106101cf5760003560e01c806355c9e92611610104578063bd8d3c0c116100a2578063efaa55a011610071578063efaa55a0146105f3578063f23a6e6114610610578063f71d96cb146106a3578063fd0160fe146106c0576101cf565b8063bd8d3c0c14610564578063d65ab5f2146105db578063dfbf53ae146105e3578063ed9d3b88146105eb576101cf565b80636eb78263116100de5780636eb782631461040857806393694f671461041057806397b2f55614610418578063bc197c8114610420576101cf565b806355c9e926146103db5780635c39fcc1146103e3578063614a4e44146103eb576101cf565b80631fcc8bb21161017157806333b16d931161014b57806333b16d93146103a65780633feef58a146103ae578063473bc223146103cb5780634c2412a2146103d3576101cf565b80631fcc8bb21461037057806327e235e31461037857806327f99a271461039e576101cf565b8063055ad42e116101ad578063055ad42e146102585780630c48d94014610281578063106e2c57146102bb57806314c4175114610338576101cf565b806301ffc9a7146101d4578063042f2b651461020f578063053e4fb614610234575b600080fd5b6101fb600480360360208110156101ea57600080fd5b50356001600160e01b0319166106c8565b604080519115158252519081900360200190f35b6102326004803603604081101561022557600080fd5b50803590602001356106eb565b005b61023c6107b6565b604080516001600160a01b039092168252519081900360200190f35b6102606107c5565b6040518082600181111561027057fe5b815260200191505060405180910390f35b6102326004803603608081101561029757600080fd5b506001600160a01b03813581169160208101359160408201351690606001356107ce565b6102c361081e565b6040805160208082528351818301528351919283929083019185019080838360005b838110156102fd5781810151838201526020016102e5565b50505050905090810190601f16801561032a5780820380516001836020036101000a031916815260200191505b509250505060405180910390f35b61035e6004803603602081101561034e57600080fd5b50356001600160a01b03166108ac565b60408051918252519081900360200190f35b61035e6108be565b61035e6004803603602081101561038e57600080fd5b50356001600160a01b03166108c4565b61035e6108d6565b6102326108dc565b610232600480360360208110156103c457600080fd5b5035610d93565b6102c3610e86565b61035e610ee1565b61035e610ee7565b61023c610eed565b61035e6004803603602081101561040157600080fd5b5035610efc565b6101fb610f1a565b61023c610f23565b61035e610f32565b610547600480360360a081101561043657600080fd5b6001600160a01b038235811692602081013590911691810190606081016040820135600160201b81111561046957600080fd5b82018360208201111561047b57600080fd5b803590602001918460208302840111600160201b8311171561049c57600080fd5b919390929091602081019035600160201b8111156104b957600080fd5b8201836020820111156104cb57600080fd5b803590602001918460208302840111600160201b831117156104ec57600080fd5b919390929091602081019035600160201b81111561050957600080fd5b82018360208201111561051b57600080fd5b803590602001918460018302840111600160201b8311171561053c57600080fd5b509092509050610f38565b604080516001600160e01b03199092168252519081900360200190f35b61056c610f4c565b60405180896001600160a01b03168152602001886001600160a01b031681526020018781526020018681526020018560018111156105a657fe5b8152602001846001600160a01b0316815260200183151581526020018281526020019850505050505050505060405180910390f35b610232610f98565b61023c61101a565b61035e611029565b6102326004803603602081101561060957600080fd5b503561102f565b610547600480360360a081101561062657600080fd5b6001600160a01b03823581169260208101359091169160408201359160608101359181019060a081016080820135600160201b81111561066557600080fd5b82018360208201111561067757600080fd5b803590602001918460018302840111600160201b8311171561069857600080fd5b509092509050611096565b6101fb600480360360208110156106b957600080fd5b50356110f8565b6102c361110d565b6001600160e01b031981166000908152600d602052604090205460ff165b919050565b6000828152600c602052604090205482906001600160a01b031633146107425760405162461bcd60e51b81526004018080602001828103825260288152602001806125026028913960400191505060405180910390fd5b6000818152600c602052604080822080546001600160a01b03191690555182917f7cc135e0cebb02c3480ae5d74d377283180a2601f8f644edf7987b009316c63a91a260408051602080820185905282518083038201815291830190925280516107b0926012920190612397565b50505050565b6005546001600160a01b031681565b60005460ff1681565b601880546001600160a01b03199081166001600160a01b0396871617918290556019805490911693861693909317835584166000908152601d602052604080822094909455915490931681522055565b6012805460408051602060026001851615610100026000190190941693909304601f810184900484028201840190925281815292918301828280156108a45780601f10610879576101008083540402835291602001916108a4565b820191906000526020600020905b81548152906001019060200180831161088757829003601f168201915b505050505081565b601d6020526000908152604090205481565b60135481565b60146020526000908152604090205481565b601a5481565b60026108e6610ee7565b146108f057600080fd5b3360009081526014602052604090205461090957600080fd5b600160005460ff16600181111561091c57fe5b1461092657600080fd5b6012546002600019610100600184161502019091160461094557600080fd5b601e5460ff1661095457600080fd5b6000600260008154811061096457fe5b906000526020600020015490506000600260018154811061098157fe5b90600052602060002001549050600061099983611168565b905060006109a683611168565b905080821415610bb357600554604080516302b5a6bb60e51b81526004810187905290516000926001600160a01b0316916356b4d760916024808301926020929190829003018186803b1580156109fc57600080fd5b505afa158015610a10573d6000803e3d6000fd5b505050506040513d6020811015610a2657600080fd5b5051600554604080516302b5a6bb60e51b81526004810188905290519293506000926001600160a01b03909216916356b4d76091602480820192602092909190829003018186803b158015610a7a57600080fd5b505afa158015610a8e573d6000803e3d6000fd5b505050506040513d6020811015610aa457600080fd5b50516001600160a01b038381166000818152601460205260408082208054858716845282842080549285905584905560055483516326f7af4f60e01b8152600481019690965260248601829052925196975095909491909116926326f7af4f92604480830193919282900301818387803b158015610b2157600080fd5b505af1158015610b35573d6000803e3d6000fd5b5050600554604080516326f7af4f60e01b81526001600160a01b0388811660048301526024820187905291519190921693506326f7af4f9250604480830192600092919082900301818387803b158015610b8e57600080fd5b505af1158015610ba2573d6000803e3d6000fd5b505050505050505050505050610d91565b60008082841015610bc8575083905084610bd6565b82841115610bd65750849050835b600554604080516302b5a6bb60e51b81526004810185905290516000926001600160a01b0316916356b4d760916024808301926020929190829003018186803b158015610c2257600080fd5b505afa158015610c36573d6000803e3d6000fd5b505050506040513d6020811015610c4c57600080fd5b5051600554604080516302b5a6bb60e51b81526004810186905290519293506000926001600160a01b03909216916356b4d76091602480820192602092909190829003018186803b158015610ca057600080fd5b505afa158015610cb4573d6000803e3d6000fd5b505050506040513d6020811015610cca57600080fd5b50516001600160a01b038381166000818152601460205260408082208054858716845282842080549285905584905560055483516326f7af4f60e01b815260048101969096528282016024870152925196975095909491909116926326f7af4f92604480830193919282900301818387803b158015610d4857600080fd5b505af1158015610d5c573d6000803e3d6000fd5b5050601c80546001600160a01b0319166001600160a01b03881617905550610d869050600161146e565b505050505050505050505b565b6018546001600160a01b0316331480610db657506019546001600160a01b031633145b610dbf57600080fd5b6000805460ff166001811115610dd157fe5b14610ddb57600080fd5b6012546002600019610100600184161502019091160415610dfb57600080fd5b610e048161148e565b3360008181526014602052604080822080549083905560055482516326f7af4f60e01b8152600481019590955260248501829052915190936001600160a01b03909216926326f7af4f926044808201939182900301818387803b158015610e6a57600080fd5b505af1158015610e7e573d6000803e3d6000fd5b505050505050565b6004805460408051602060026001851615610100026000190190941693909304601f810184900484028201840190925281815292918301828280156108a45780601f10610879576101008083540402835291602001916108a4565b60065481565b60035490565b6018546001600160a01b031681565b60028181548110610f0957fe5b600091825260209091200154905081565b601e5460ff1681565b6019546001600160a01b031681565b60035481565b63bc197c8160e01b98975050505050505050565b6018546019546001600160a01b039182166000818152601d602052604080822054938516808352908220549154601c54601e5460135495989397949560ff938416959290921693921691565b6000805460ff166001811115610faa57fe5b14610fb457600080fd5b6040517f762f260439bb4be3ef6e4dc2786e2e7bd187d3d80b79057d7a424fe98563e33590600090a1610fe56114cc565b610fef600161146e565b6040517f1084d47e99647565312e58bba004b0fc3088c683fa22f3925f1cf5fb0955402990600090a1565b601c546001600160a01b031681565b601b5481565b601b548114806110405750601a5481145b61104957600080fd5b6017546001600160a01b031633148061106c57506018546001600160a01b031633145b8061108157506019546001600160a01b031633145b61108a57600080fd5b611093816116cb565b50565b600060135484146110a657600080fd5b6019546001600160a01b03878116911614156110ca57601e805460ff191660011790555b506001600160a01b038516600090815260146020526040902083905563f23a6e6160e01b9695505050505050565b60016020526000908152604090205460ff1681565b6010805460408051602060026001851615610100026000190190941693909304601f810184900484028201840190925281815292918301828280156108a45780601f10610879576101008083540402835291602001916108a4565b60055460408051630985da0360e31b8152600481018490529051600092839283926001600160a01b0390921691634c2ed01891602480820192608092909190829003018186803b1580156111bb57600080fd5b505afa1580156111cf573d6000803e3d6000fd5b505050506040513d60808110156111e557600080fd5b5060408082015160609092015160175491516365eae2db60e01b81526020600482019081526010805460026000196001838116156101000291909101909216046024850181905296985093965092946001600160a01b03909416936365eae2db939282916044909101908490801561129e5780601f106112735761010080835404028352916020019161129e565b820191906000526020600020905b81548152906001019060200180831161128157829003601f168201915b50509250505060206040518083038186803b1580156112bc57600080fd5b505afa1580156112d0573d6000803e3d6000fd5b505050506040513d60208110156112e657600080fd5b505160ff8481169116141561130e5761130b600a61130583600b6116e9565b9061174b565b90505b601754604051634eb1b26760e11b81526020600482019081526012805460026000196001831615610100020190911604602484018190526001600160a01b0390941693639d6364ce939192918291604490910190849080156113b15780601f10611386576101008083540402835291602001916113b1565b820191906000526020600020905b81548152906001019060200180831161139457829003601f168201915b50509250505060206040518083038186803b1580156113cf57600080fd5b505afa1580156113e3573d6000803e3d6000fd5b505050506040513d60208110156113f957600080fd5b505160ff8381169116141561141b57611418600a61130583600b6116e9565b90505b6000611426866117b5565b9050600061143a60046113058460056116e9565b9050600061144788611aa8565b905060006114558383611b91565b905061146185826116e9565b9998505050505050505050565b6000805482919060ff19166001838181111561148657fe5b021790555050565b6000805460ff1660018111156114a057fe5b146114aa57600080fd5b6000908152600160205260409020805460ff1916905560038054600019019055565b6114d4612415565b6015546114e9903063042f2b6560e01b611beb565b905060606115996040518060600160405280603281526020016124af603291396010805460408051602060026001851615610100026000190190941693909304601f8101849004840282018401909252818152929183018282801561158f5780601f106115645761010080835404028352916020019161158f565b820191906000526020600020905b81548152906001019060200180831161157257829003601f168201915b5050505050611c10565b90506115c481604051806040016040528060078152602001662661707069643d60c81b815250611c10565b60168054604080516020601f6002600019610100600188161502019095169490940493840181900481028201810190925282815293945061162b9385939092909183018282801561158f5780601f106115645761010080835404028352916020019161158f565b60408051808201909152600381526219d95d60ea1b602082015290915061165490839083611ccb565b6116ab604051806040016040528060048152602001630e0c2e8d60e31b8152506040518060400160405280600e81526020016d3bb2b0ba3432b917181736b0b4b760911b81525084611ccb9092919063ffffffff16565b601154600f546116c6916001600160a01b0316908490611ce9565b505050565b6006546116d6610ee7565b106116e057600080fd5b61109381611eb7565b6000826116f857506000611745565b8282028284828161170557fe5b04146117425760405162461bcd60e51b81526004018080602001828103825260218152602001806124e16021913960400191505060405180910390fd5b90505b92915050565b60008082116117a1576040805162461bcd60e51b815260206004820152601a60248201527f536166654d6174683a206469766973696f6e206279207a65726f000000000000604482015290519081900360640190fd5b60008284816117ac57fe5b04949350505050565b6000806000806000806000600560009054906101000a90046001600160a01b03166001600160a01b031663835a4398896040518263ffffffff1660e01b81526004018082815260200191505060c06040518083038186803b15801561181957600080fd5b505afa15801561182d573d6000803e3d6000fd5b505050506040513d60c081101561184357600080fd5b810190808051906020019092919080519060200190929190805190602001909291908051906020019092919080519060200190929190805190602001909291905050509550955095509550955095506000600560009054906101000a90046001600160a01b03166001600160a01b03166346e6f13d8a6040518263ffffffff1660e01b81526004018082815260200191505060006040518083038186803b1580156118ed57600080fd5b505afa158015611901573d6000803e3d6000fd5b505050506040513d6000823e601f3d908101601f19168201604052608081101561192a57600080fd5b8101908080516040519392919084600160201b82111561194957600080fd5b90830190602082018581111561195e57600080fd5b8251600160201b81118282018810171561197757600080fd5b82525081516020918201929091019080838360005b838110156119a457818101518382015260200161198c565b50505050905090810190601f1680156119d15780820380516001836020036101000a031916815260200191505b50604090815201519350505081151590506119f8578660ff169750505050505050506106e6565b8060011415611a13578360ff169750505050505050506106e6565b8060021415611a2d57505060ff1694506106e69350505050565b8060031415611a48578460ff169750505050505050506106e6565b8060041415611a62575060ff1695506106e6945050505050565b8060051415611a7d578360ff169750505050505050506106e6565b8060061415611a9757505060ff1694506106e69350505050565b505060ff9093169695505050505050565b6000806000806000600560009054906101000a90046001600160a01b03166001600160a01b0316638423b077876040518263ffffffff1660e01b81526004018082815260200191505060806040518083038186803b158015611b0957600080fd5b505afa158015611b1d573d6000803e3d6000fd5b505050506040513d6080811015611b3357600080fd5b508051602082015160408301516060909301519196509450909250905060ff808516908416811015611b65575060ff83165b808360ff161115611b76575060ff82165b808260ff161115611b87575060ff81165b9695505050505050565b600082820183811015611742576040805162461bcd60e51b815260206004820152601b60248201527f536166654d6174683a206164646974696f6e206f766572666c6f770000000000604482015290519081900360640190fd5b611bf3612415565b611bfb612415565b611c0781868686611f3b565b95945050505050565b606082826040516020018083805190602001908083835b60208310611c465780518252601f199092019160209182019101611c27565b51815160209384036101000a600019018019909216911617905285519190930192850191508083835b60208310611c8e5780518252601f199092019160209182019101611c6f565b6001836020036101000a03801982511681845116808217855250505050505090500192505050604051602081830303815290604052905092915050565b6080830151611cda9083611f78565b60808301516116c69082611f78565b600b546040805130606090811b60208084019190915260348084018690528451808503909101815260549093018452825192810192909220908601939093526000838152600c90915281812080546001600160a01b0319166001600160a01b038816179055905182917fb5e6e01e79f91267dc17b4e6314d5d4d03593d2ceee0fbb452b750bd70ea5af991a26009546001600160a01b0316634000aea08584611d9187611f8f565b6040518463ffffffff1660e01b815260040180846001600160a01b0316815260200183815260200180602001828103825283818151815260200191508051906020019080838360005b83811015611df2578181015183820152602001611dda565b50505050905090810190601f168015611e1f5780820380516001836020036101000a031916815260200191505b50945050505050602060405180830381600087803b158015611e4057600080fd5b505af1158015611e54573d6000803e3d6000fd5b505050506040513d6020811015611e6a57600080fd5b5051611ea75760405162461bcd60e51b815260040180806020018281038252602381526020018061248c6023913960400191505060405180910390fd5b600b805460010190559392505050565b6000805460ff166001811115611ec957fe5b14611ed357600080fd5b611edb61244a565b600180825260008381526020829052604081209251835460ff19169015151790925560028054808301825592527f405787fa12a823e0f2b7631cc41b3ba8828b3321ca811111fa75cd3aa3bb5ace90910191909155600380549091019055565b611f43612415565b611f5385608001516101006120b3565b50509183526001600160a01b031660208301526001600160e01b031916604082015290565b611f8582600383516120ed565b6116c682826121c1565b6060634042994660e01b6000808460000151856020015186604001518760600151600189608001516000015160405160240180896001600160a01b03168152602001888152602001878152602001866001600160a01b03168152602001856001600160e01b031916815260200184815260200183815260200180602001828103825283818151815260200191508051906020019080838360005b83811015612041578181015183820152602001612029565b50505050905090810190601f16801561206e5780820380516001836020036101000a031916815260200191505b5060408051601f198184030181529190526020810180516001600160e01b03166001600160e01b0319909d169c909c17909b5250989950505050505050505050919050565b6120bb61245c565b60208206156120d05760208206602003820191505b506020828101829052604080518085526000815290920101905290565b6017811161210e576121088360e0600585901b1683176121db565b506116c6565b60ff81116121385761212b836018611fe0600586901b16176121db565b50612108838260016121f3565b61ffff811161216357612156836019611fe0600586901b16176121db565b50612108838260026121f3565b63ffffffff81116121905761218383601a611fe0600586901b16176121db565b50612108838260046121f3565b67ffffffffffffffff81116116c6576121b483601b611fe0600586901b16176121db565b506107b0838260086121f3565b6121c961245c565b61174283846000015151848551612214565b6121e361245c565b61174283846000015151846122c0565b6121fb61245c565b61220c84856000015151858561230b565b949350505050565b61221c61245c565b825182111561222a57600080fd5b84602001518285011115612254576122548561224c8760200151878601612369565b600202612380565b6000808651805187602083010193508088870111156122735787860182525b505050602084015b6020841061229a5780518252601f19909301926020918201910161227b565b51815160001960208690036101000a019081169019919091161790525083949350505050565b6122c861245c565b836020015183106122e4576122e4848560200151600202612380565b835180516020858301018481535080851415612301576001810182525b5093949350505050565b61231361245c565b846020015184830111156123305761233085858401600202612380565b60006001836101000a03905085518386820101858319825116178152508051848701111561235e5783860181525b509495945050505050565b60008183111561237a575081611745565b50919050565b815161238c83836120b3565b506107b083826121c1565b828054600181600116156101000203166002900490600052602060002090601f016020900481019282601f106123d857805160ff1916838001178555612405565b82800160010185558215612405579182015b828111156124055782518255916020019190600101906123ea565b50612411929150612476565b5090565b6040805160a08101825260008082526020820181905291810182905260608101919091526080810161244561245c565b905290565b60408051602081019091526000815290565b604051806040016040528060608152602001600081525090565b5b80821115612411576000815560010161247756fe756e61626c6520746f207472616e73666572416e6443616c6c20746f206f7261636c65687474703a2f2f6170692e6f70656e776561746865726d61702e6f72672f646174612f322e352f776561746865723f69643d536166654d6174683a206d756c7469706c69636174696f6e206f766572666c6f77536f75726365206d75737420626520746865206f7261636c65206f66207468652072657175657374a264697066735822122087fc40a6cb3cda3100970e471505c98aff57fefb01d34477fa457f37613604f064736f6c634300060c0033",
  "bytecodeSha1": "5baaeb6fd9332e319b15dbcd0d872a460f707609",
  "compiler": {
    "evm_version": "istanbul",
    "optimizer": {
      "enabled": true,
      "runs": 200
    },
    "version": "0.6.12+commit.27d51765"
  },
  "contractName": "WeatherWars",
  "language": "Solidity",
  "natspec": {
    "kind": "dev",
    "methods": {
      "getNumPlayers()": {
        "notice": "Gets the number of players in the game"
      },
      "joinGame(uint256)": {
        "notice": "Joins a game",
        "params": {
          "heroId": "The id of the joining player's hero"
        }
      },
      "leaveGame(uint256)": {
        "notice": "Leaves a game",
        "params": {
          "heroId": "The id of the leaving player's hero"
        }
      },
      "onERC1155BatchReceived(address,address,uint256[],uint256[],bytes)": {
        "details": "Handles the receipt of a multiple ERC1155 token types. This function is called at the end of a `safeBatchTransferFrom` after the balances have been updated. To accept the transfer(s), this must return `bytes4(keccak256(\"onERC1155BatchReceived(address,address,uint256[],uint256[],bytes)\"))` (i.e. 0xbc197c81, or its own function selector).",
        "params": {
          "data": "Additional data with no specified format",
          "from": "The address which previously owned the token",
          "ids": "An array containing ids of each token being transferred (order and length must match values array)",
          "operator": "The address which initiated the batch transfer (i.e. msg.sender)",
          "values": "An array containing amounts of each token being transferred (order and length must match ids array)"
        },
        "returns": {
          "_0": "`bytes4(keccak256(\"onERC1155BatchReceived(address,address,uint256[],uint256[],bytes)\"))` if transfer is allowed"
        }
      },
      "onERC1155Received(address,address,uint256,uint256,bytes)": {
        "details": "Handles the receipt of a single ERC1155 token type. This function is called at the end of a `safeTransferFrom` after the balance has been updated. To accept the transfer, this must return `bytes4(keccak256(\"onERC1155Received(address,address,uint256,uint256,bytes)\"))` (i.e. 0xf23a6e61, or its own function selector).",
        "params": {
          "data": "Additional data with no specified format",
          "from": "The address which previously owned the token",
          "id": "The ID of the token being transferred",
          "operator": "The address which initiated the transfer (i.e. msg.sender)",
          "value": "The amount of tokens being transferred"
        },
        "returns": {
          "_0": "`bytes4(keccak256(\"onERC1155Received(address,address,uint256,uint256,bytes)\"))` if transfer is allowed"
        }
      },
      "startGame()": {
        "notice": "Starts a new game and closes it when it's finished"
      },
      "supportsInterface(bytes4)": {
        "details": "See {IERC165-supportsInterface}. Time complexity O(1), guaranteed to always use less than 30 000 gas."
      }
    },
    "version": 1
  },
  "opcodes": "PUSH1 0x80 PUSH1 0x40 MSTORE CALLVALUE DUP1 ISZERO PUSH2 0x10 JUMPI PUSH1 0x0 DUP1 REVERT JUMPDEST POP PUSH1 0x4 CALLDATASIZE LT PUSH2 0x1CF JUMPI PUSH1 0x0 CALLDATALOAD PUSH1 0xE0 SHR DUP1 PUSH4 0x55C9E926 GT PUSH2 0x104 JUMPI DUP1 PUSH4 0xBD8D3C0C GT PUSH2 0xA2 JUMPI DUP1 PUSH4 0xEFAA55A0 GT PUSH2 0x71 JUMPI DUP1 PUSH4 0xEFAA55A0 EQ PUSH2 0x5F3 JUMPI DUP1 PUSH4 0xF23A6E61 EQ PUSH2 0x610 JUMPI DUP1 PUSH4 0xF71D96CB EQ PUSH2 0x6A3 JUMPI DUP1 PUSH4 0xFD0160FE EQ PUSH2 0x6C0 JUMPI PUSH2 0x1CF JUMP JUMPDEST DUP1 PUSH4 0xBD8D3C0C EQ PUSH2 0x564 JUMPI DUP1 PUSH4 0xD65AB5F2 EQ PUSH2 0x5DB JUMPI DUP1 PUSH4 0xDFBF53AE EQ PUSH2 0x5E3 JUMPI DUP1 PUSH4 0xED9D3B88 EQ PUSH2 0x5EB JUMPI PUSH2 0x1CF JUMP JUMPDEST DUP1 PUSH4 0x6EB78263 GT PUSH2 0xDE JUMPI DUP1 PUSH4 0x6EB78263 EQ PUSH2 0x408 JUMPI DUP1 PUSH4 0x93694F67 EQ PUSH2 0x410 JUMPI DUP1 PUSH4 0x97B2F556 EQ PUSH2 0x418 JUMPI DUP1 PUSH4 0xBC197C81 EQ PUSH2 0x420 JUMPI PUSH2 0x1CF JUMP JUMPDEST DUP1 PUSH4 0x55C9E926 EQ PUSH2 0x3DB JUMPI DUP1 PUSH4 0x5C39FCC1 EQ PUSH2 0x3E3 JUMPI DUP1 PUSH4 0x614A4E44 EQ PUSH2 0x3EB JUMPI PUSH2 0x1CF JUMP JUMPDEST DUP1 PUSH4 0x1FCC8BB2 GT PUSH2 0x171 JUMPI DUP1 PUSH4 0x33B16D93 GT PUSH2 0x14B JUMPI DUP1 PUSH4 0x33B16D93 EQ PUSH2 0x3A6 JUMPI DUP1 PUSH4 0x3FEEF58A EQ PUSH2 0x3AE JUMPI DUP1 PUSH4 0x473BC223 EQ PUSH2 0x3CB JUMPI DUP1 PUSH4 0x4C2412A2 EQ PUSH2 0x3D3 JUMPI PUSH2 0x1CF JUMP JUMPDEST DUP1 PUSH4 0x1FCC8BB2 EQ PUSH2 0x370 JUMPI DUP1 PUSH4 0x27E235E3 EQ PUSH2 0x378 JUMPI DUP1 PUSH4 0x27F99A27 EQ PUSH2 0x39E JUMPI PUSH2 0x1CF JUMP JUMPDEST DUP1 PUSH4 0x55AD42E GT PUSH2 0x1AD JUMPI DUP1 PUSH4 0x55AD42E EQ PUSH2 0x258 JUMPI DUP1 PUSH4 0xC48D940 EQ PUSH2 0x281 JUMPI DUP1 PUSH4 0x106E2C57 EQ PUSH2 0x2BB JUMPI DUP1 PUSH4 0x14C41751 EQ PUSH2 0x338 JUMPI PUSH2 0x1CF JUMP JUMPDEST DUP1 PUSH4 0x1FFC9A7 EQ PUSH2 0x1D4 JUMPI DUP1 PUSH4 0x42F2B65 EQ PUSH2 0x20F JUMPI DUP1 PUSH4 0x53E4FB6 EQ PUSH2 0x234 JUMPI JUMPDEST PUSH1 0x0 DUP1 REVERT JUMPDEST PUSH2 0x1FB PUSH1 0x4 DUP1 CALLDATASIZE SUB PUSH1 0x20 DUP2 LT ISZERO PUSH2 0x1EA JUMPI PUSH1 0x0 DUP1 REVERT JUMPDEST POP CALLDATALOAD PUSH1 0x1 PUSH1 0x1 PUSH1 0xE0 SHL SUB NOT AND PUSH2 0x6C8 JUMP JUMPDEST PUSH1 0x40 DUP1 MLOAD SWAP2 ISZERO ISZERO DUP3 MSTORE MLOAD SWAP1 DUP2 SWAP1 SUB PUSH1 0x20 ADD SWAP1 RETURN JUMPDEST PUSH2 0x232 PUSH1 0x4 DUP1 CALLDATASIZE SUB PUSH1 0x40 DUP2 LT ISZERO PUSH2 0x225 JUMPI PUSH1 0x0 DUP1 REVERT JUMPDEST POP DUP1 CALLDATALOAD SWAP1 PUSH1 0x20 ADD CALLDATALOAD PUSH2 0x6EB JUMP JUMPDEST STOP JUMPDEST PUSH2 0x23C PUSH2 0x7B6 JUMP JUMPDEST PUSH1 0x40 DUP1 MLOAD PUSH1 0x1 PUSH1 0x1 PUSH1 0xA0 SHL SUB SWAP1 SWAP3 AND DUP3 MSTORE MLOAD SWAP1 DUP2 SWAP1 SUB PUSH1 0x20 ADD SWAP1 RETURN JUMPDEST PUSH2 0x260 PUSH2 0x7C5 JUMP JUMPDEST PUSH1 0x40 MLOAD DUP1 DUP3 PUSH1 0x1 DUP2 GT ISZERO PUSH2 0x270 JUMPI INVALID JUMPDEST DUP2 MSTORE PUSH1 0x20 ADD SWAP2 POP POP PUSH1 0x40 MLOAD DUP1 SWAP2 SUB SWAP1 RETURN JUMPDEST PUSH2 0x232 PUSH1 0x4 DUP1 CALLDATASIZE SUB PUSH1 0x80 DUP2 LT ISZERO PUSH2 0x297 JUMPI PUSH1 0x0 DUP1 REVERT JUMPDEST POP PUSH1 0x1 PUSH1 0x1 PUSH1 0xA0 SHL SUB DUP2 CALLDATALOAD DUP2 AND SWAP2 PUSH1 0x20 DUP2 ADD CALLDATALOAD SWAP2 PUSH1 0x40 DUP3 ADD CALLDATALOAD AND SWAP1 PUSH1 0x60 ADD CALLDATALOAD PUSH2 0x7CE JUMP JUMPDEST PUSH2 0x2C3 PUSH2 0x81E JUMP JUMPDEST PUSH1 0x40 DUP1 MLOAD PUSH1 0x20 DUP1 DUP3 MSTORE DUP4 MLOAD DUP2 DUP4 ADD MSTORE DUP4 MLOAD SWAP2 SWAP3 DUP4 SWAP3 SWAP1 DUP4 ADD SWAP2 DUP6 ADD SWAP1 DUP1 DUP4 DUP4 PUSH1 0x0 JUMPDEST DUP4 DUP2 LT ISZERO PUSH2 0x2FD JUMPI DUP2 DUP2 ADD MLOAD DUP4 DUP3 ADD MSTORE PUSH1 0x20 ADD PUSH2 0x2E5 JUMP JUMPDEST POP POP POP POP SWAP1 POP SWAP1 DUP2 ADD SWAP1 PUSH1 0x1F AND DUP1 ISZERO PUSH2 0x32A JUMPI DUP1 DUP3 SUB DUP1 MLOAD PUSH1 0x1 DUP4 PUSH1 0x20 SUB PUSH2 0x100 EXP SUB NOT AND DUP2 MSTORE PUSH1 0x20 ADD SWAP2 POP JUMPDEST POP SWAP3 POP POP POP PUSH1 0x40 MLOAD DUP1 SWAP2 SUB SWAP1 RETURN JUMPDEST PUSH2 0x35E PUSH1 0x4 DUP1 CALLDATASIZE SUB PUSH1 0x20 DUP2 LT ISZERO PUSH2 0x34E JUMPI PUSH1 0x0 DUP1 REVERT JUMPDEST POP CALLDATALOAD PUSH1 0x1 PUSH1 0x1 PUSH1 0xA0 SHL SUB AND PUSH2 0x8AC JUMP JUMPDEST PUSH1 0x40 DUP1 MLOAD SWAP2 DUP3 MSTORE MLOAD SWAP1 DUP2 SWAP1 SUB PUSH1 0x20 ADD SWAP1 RETURN JUMPDEST PUSH2 0x35E PUSH2 0x8BE JUMP JUMPDEST PUSH2 0x35E PUSH1 0x4 DUP1 CALLDATASIZE SUB PUSH1 0x20 DUP2 LT ISZERO PUSH2 0x38E JUMPI PUSH1 0x0 DUP1 REVERT JUMPDEST POP CALLDATALOAD PUSH1 0x1 PUSH1 0x1 PUSH1 0xA0 SHL SUB AND PUSH2 0x8C4 JUMP JUMPDEST PUSH2 0x35E PUSH2 0x8D6 JUMP JUMPDEST PUSH2 0x232 PUSH2 0x8DC JUMP JUMPDEST PUSH2 0x232 PUSH1 0x4 DUP1 CALLDATASIZE SUB PUSH1 0x20 DUP2 LT ISZERO PUSH2 0x3C4 JUMPI PUSH1 0x0 DUP1 REVERT JUMPDEST POP CALLDATALOAD PUSH2 0xD93 JUMP JUMPDEST PUSH2 0x2C3 PUSH2 0xE86 JUMP JUMPDEST PUSH2 0x35E PUSH2 0xEE1 JUMP JUMPDEST PUSH2 0x35E PUSH2 0xEE7 JUMP JUMPDEST PUSH2 0x23C PUSH2 0xEED JUMP JUMPDEST PUSH2 0x35E PUSH1 0x4 DUP1 CALLDATASIZE SUB PUSH1 0x20 DUP2 LT ISZERO PUSH2 0x401 JUMPI PUSH1 0x0 DUP1 REVERT JUMPDEST POP CALLDATALOAD PUSH2 0xEFC JUMP JUMPDEST PUSH2 0x1FB PUSH2 0xF1A JUMP JUMPDEST PUSH2 0x23C PUSH2 0xF23 JUMP JUMPDEST PUSH2 0x35E PUSH2 0xF32 JUMP JUMPDEST PUSH2 0x547 PUSH1 0x4 DUP1 CALLDATASIZE SUB PUSH1 0xA0 DUP2 LT ISZERO PUSH2 0x436 JUMPI PUSH1 0x0 DUP1 REVERT JUMPDEST PUSH1 0x1 PUSH1 0x1 PUSH1 0xA0 SHL SUB DUP3 CALLDATALOAD DUP2 AND SWAP3 PUSH1 0x20 DUP2 ADD CALLDATALOAD SWAP1 SWAP2 AND SWAP2 DUP2 ADD SWAP1 PUSH1 0x60 DUP2 ADD PUSH1 0x40 DUP3 ADD CALLDATALOAD PUSH1 0x1 PUSH1 0x20 SHL DUP2 GT ISZERO PUSH2 0x469 JUMPI PUSH1 0x0 DUP1 REVERT JUMPDEST DUP3 ADD DUP4 PUSH1 0x20 DUP3 ADD GT ISZERO PUSH2 0x47B JUMPI PUSH1 0x0 DUP1 REVERT JUMPDEST DUP1 CALLDATALOAD SWAP1 PUSH1 0x20 ADD SWAP2 DUP5 PUSH1 0x20 DUP4 MUL DUP5 ADD GT PUSH1 0x1 PUSH1 0x20 SHL DUP4 GT OR ISZERO PUSH2 0x49C JUMPI PUSH1 0x0 DUP1 REVERT JUMPDEST SWAP2 SWAP4 SWAP1 SWAP3 SWAP1 SWAP2 PUSH1 0x20 DUP2 ADD SWAP1 CALLDATALOAD PUSH1 0x1 PUSH1 0x20 SHL DUP2 GT ISZERO PUSH2 0x4B9 JUMPI PUSH1 0x0 DUP1 REVERT JUMPDEST DUP3 ADD DUP4 PUSH1 0x20 DUP3 ADD GT ISZERO PUSH2 0x4CB JUMPI PUSH1 0x0 DUP1 REVERT JUMPDEST DUP1 CALLDATALOAD SWAP1 PUSH1 0x20 ADD SWAP2 DUP5 PUSH1 0x20 DUP4 MUL DUP5 ADD GT PUSH1 0x1 PUSH1 0x20 SHL DUP4 GT OR ISZERO PUSH2 0x4EC JUMPI PUSH1 0x0 DUP1 REVERT JUMPDEST SWAP2 SWAP4 SWAP1 SWAP3 SWAP1 SWAP2 PUSH1 0x20 DUP2 ADD SWAP1 CALLDATALOAD PUSH1 0x1 PUSH1 0x20 SHL DUP2 GT ISZERO PUSH2 0x509 JUMPI PUSH1 0x0 DUP1 REVERT JUMPDEST DUP3 ADD DUP4 PUSH1 0x20 DUP3 ADD GT ISZERO PUSH2 0x51B JUMPI PUSH1 0x0 DUP1 REVERT JUMPDEST DUP1 CALLDATALOAD SWAP1 PUSH1 0x20 ADD SWAP2 DUP5 PUSH1 0x1 DUP4 MUL DUP5 ADD GT PUSH1 0x1 PUSH1 0x20 SHL DUP4 GT OR ISZERO PUSH2 0x53C JUMPI PUSH1 0x0 DUP1 REVERT JUMPDEST POP SWAP1 SWAP3 POP SWAP1 POP PUSH2 0xF38 JUMP JUMPDEST PUSH1 0x40 DUP1 MLOAD PUSH1 0x1 PUSH1 0x1 PUSH1 0xE0 SHL SUB NOT SWAP1 SWAP3 AND DUP3 MSTORE MLOAD SWAP1 DUP2 SWAP1 SUB PUSH1 0x20 ADD SWAP1 RETURN JUMPDEST PUSH2 0x56C PUSH2 0xF4C JUMP JUMPDEST PUSH1 0x40 MLOAD DUP1 DUP10 PUSH1 0x1 PUSH1 0x1 PUSH1 0xA0 SHL SUB AND DUP2 MSTORE PUSH1 0x20 ADD DUP9 PUSH1 0x1 PUSH1 0x1 PUSH1 0xA0 SHL SUB AND DUP2 MSTORE PUSH1 0x20 ADD DUP8 DUP2 MSTORE PUSH1 0x20 ADD DUP7 DUP2 MSTORE PUSH1 0x20 ADD DUP6 PUSH1 0x1 DUP2 GT ISZERO PUSH2 0x5A6 JUMPI INVALID JUMPDEST DUP2 MSTORE PUSH1 0x20 ADD DUP5 PUSH1 0x1 PUSH1 0x1 PUSH1 0xA0 SHL SUB AND DUP2 MSTORE PUSH1 0x20 ADD DUP4 ISZERO ISZERO DUP2 MSTORE PUSH1 0x20 ADD DUP3 DUP2 MSTORE PUSH1 0x20 ADD SWAP9 POP POP POP POP POP POP POP POP POP PUSH1 0x40 MLOAD DUP1 SWAP2 SUB SWAP1 RETURN JUMPDEST PUSH2 0x232 PUSH2 0xF98 JUMP JUMPDEST PUSH2 0x23C PUSH2 0x101A JUMP JUMPDEST PUSH2 0x35E PUSH2 0x1029 JUMP JUMPDEST PUSH2 0x232 PUSH1 0x4 DUP1 CALLDATASIZE SUB PUSH1 0x20 DUP2 LT ISZERO PUSH2 0x609 JUMPI PUSH1 0x0 DUP1 REVERT JUMPDEST POP CALLDATALOAD PUSH2 0x102F JUMP JUMPDEST PUSH2 0x547 PUSH1 0x4 DUP1 CALLDATASIZE SUB PUSH1 0xA0 DUP2 LT ISZERO PUSH2 0x626 JUMPI PUSH1 0x0 DUP1 REVERT JUMPDEST PUSH1 0x1 PUSH1 0x1 PUSH1 0xA0 SHL SUB DUP3 CALLDATALOAD DUP2 AND SWAP3 PUSH1 0x20 DUP2 ADD CALLDATALOAD SWAP1 SWAP2 AND SWAP2 PUSH1 0x40 DUP3 ADD CALLDATALOAD SWAP2 PUSH1 0x60 DUP2 ADD CALLDATALOAD SWAP2 DUP2 ADD SWAP1 PUSH1 0xA0 DUP2 ADD PUSH1 0x80 DUP3 ADD CALLDATALOAD PUSH1 0x1 PUSH1 0x20 SHL DUP2 GT ISZERO PUSH2 0x665 JUMPI PUSH1 0x0 DUP1 REVERT JUMPDEST DUP3 ADD DUP4 PUSH1 0x20 DUP3 ADD GT ISZERO PUSH2 0x677 JUMPI PUSH1 0x0 DUP1 REVERT JUMPDEST DUP1 CALLDATALOAD SWAP1 PUSH1 0x20 ADD SWAP2 DUP5 PUSH1 0x1 DUP4 MUL DUP5 ADD GT PUSH1 0x1 PUSH1 0x20 SHL DUP4 GT OR ISZERO PUSH2 0x698 JUMPI PUSH1 0x0 DUP1 REVERT JUMPDEST POP SWAP1 SWAP3 POP SWAP1 POP PUSH2 0x1096 JUMP JUMPDEST PUSH2 0x1FB PUSH1 0x4 DUP1 CALLDATASIZE SUB PUSH1 0x20 DUP2 LT ISZERO PUSH2 0x6B9 JUMPI PUSH1 0x0 DUP1 REVERT JUMPDEST POP CALLDATALOAD PUSH2 0x10F8 JUMP JUMPDEST PUSH2 0x2C3 PUSH2 0x110D JUMP JUMPDEST PUSH1 0x1 PUSH1 0x1 PUSH1 0xE0 SHL SUB NOT DUP2 AND PUSH1 0x0 SWAP1 DUP2 MSTORE PUSH1 0xD PUSH1 0x20 MSTORE PUSH1 0x40 SWAP1 KECCAK256 SLOAD PUSH1 0xFF AND JUMPDEST SWAP2 SWAP1 POP JUMP JUMPDEST PUSH1 0x0 DUP3 DUP2 MSTORE PUSH1 0xC PUSH1 0x20 MSTORE PUSH1 0x40 SWAP1 KECCAK256 SLOAD DUP3 SWAP1 PUSH1 0x1 PUSH1 0x1 PUSH1 0xA0 SHL SUB AND CALLER EQ PUSH2 0x742 JUMPI PUSH1 0x40 MLOAD PUSH3 0x461BCD PUSH1 0xE5 SHL DUP2 MSTORE PUSH1 0x4 ADD DUP1 DUP1 PUSH1 0x20 ADD DUP3 DUP2 SUB DUP3 MSTORE PUSH1 0x28 DUP2 MSTORE PUSH1 0x20 ADD DUP1 PUSH2 0x2502 PUSH1 0x28 SWAP2 CODECOPY PUSH1 0x40 ADD SWAP2 POP POP PUSH1 0x40 MLOAD DUP1 SWAP2 SUB SWAP1 REVERT JUMPDEST PUSH1 0x0 DUP2 DUP2 MSTORE PUSH1 0xC PUSH1 0x20 MSTORE PUSH1 0x40 DUP1 DUP3 KECCAK256 DUP1 SLOAD PUSH1 0x1 PUSH1 0x1 PUSH1 0xA0 SHL SUB NOT AND SWAP1 SSTORE MLOAD DUP3 SWAP2 PUSH32 0x7CC135E0CEBB02C3480AE5D74D377283180A2601F8F644EDF7987B009316C63A SWAP2 LOG2 PUSH1 0x40 DUP1 MLOAD PUSH1 0x20 DUP1 DUP3 ADD DUP6 SWAP1 MSTORE DUP3 MLOAD DUP1 DUP4 SUB DUP3 ADD DUP2 MSTORE SWAP2 DUP4 ADD SWAP1 SWAP3 MSTORE DUP1 MLOAD PUSH2 0x7B0 SWAP3 PUSH1 0x12 SWAP3 ADD SWAP1 PUSH2 0x2397 JUMP JUMPDEST POP POP POP POP JUMP JUMPDEST PUSH1 0x5 SLOAD PUSH1 0x1 PUSH1 0x1 PUSH1 0xA0 SHL SUB AND DUP2 JUMP JUMPDEST PUSH1 0x0 SLOAD PUSH1 0xFF AND DUP2 JUMP JUMPDEST PUSH1 0x18 DUP1 SLOAD PUSH1 0x1 PUSH1 0x1 PUSH1 0xA0 SHL SUB NOT SWAP1 DUP2 AND PUSH1 0x1 PUSH1 0x1 PUSH1 0xA0 SHL SUB SWAP7 DUP8 AND OR SWAP2 DUP3 SWAP1 SSTORE PUSH1 0x19 DUP1 SLOAD SWAP1 SWAP2 AND SWAP4 DUP7 AND SWAP4 SWAP1 SWAP4 OR DUP4 SSTORE DUP5 AND PUSH1 0x0 SWAP1 DUP2 MSTORE PUSH1 0x1D PUSH1 0x20 MSTORE PUSH1 0x40 DUP1 DUP3 KECCAK256 SWAP5 SWAP1 SWAP5 SSTORE SWAP2 SLOAD SWAP1 SWAP4 AND DUP2 MSTORE KECCAK256 SSTORE JUMP JUMPDEST PUSH1 0x12 DUP1 SLOAD PUSH1 0x40 DUP1 MLOAD PUSH1 0x20 PUSH1 0x2 PUSH1 0x1 DUP6 AND ISZERO PUSH2 0x100 MUL PUSH1 0x0 NOT ADD SWAP1 SWAP5 AND SWAP4 SWAP1 SWAP4 DIV PUSH1 0x1F DUP2 ADD DUP5 SWAP1 DIV DUP5 MUL DUP3 ADD DUP5 ADD SWAP1 SWAP3 MSTORE DUP2 DUP2 MSTORE SWAP3 SWAP2 DUP4 ADD DUP3 DUP3 DUP1 ISZERO PUSH2 0x8A4 JUMPI DUP1 PUSH1 0x1F LT PUSH2 0x879 JUMPI PUSH2 0x100 DUP1 DUP4 SLOAD DIV MUL DUP4 MSTORE SWAP2 PUSH1 0x20 ADD SWAP2 PUSH2 0x8A4 JUMP JUMPDEST DUP3 ADD SWAP2 SWAP1 PUSH1 0x0 MSTORE PUSH1 0x20 PUSH1 0x0 KECCAK256 SWAP1 JUMPDEST DUP2 SLOAD DUP2 MSTORE SWAP1 PUSH1 0x1 ADD SWAP1 PUSH1 0x20 ADD DUP1 DUP4 GT PUSH2 0x887 JUMPI DUP3 SWAP1 SUB PUSH1 0x1F AND DUP3 ADD SWAP2 JUMPDEST POP POP POP POP POP DUP2 JUMP JUMPDEST PUSH1 0x1D PUSH1 0x20 MSTORE PUSH1 0x0 SWAP1 DUP2 MSTORE PUSH1 0x40 SWAP1 KECCAK256 SLOAD DUP2 JUMP JUMPDEST PUSH1 0x13 SLOAD DUP2 JUMP JUMPDEST PUSH1 0x14 PUSH1 0x20 MSTORE PUSH1 0x0 SWAP1 DUP2 MSTORE PUSH1 0x40 SWAP1 KECCAK256 SLOAD DUP2 JUMP JUMPDEST PUSH1 0x1A SLOAD DUP2 JUMP JUMPDEST PUSH1 0x2 PUSH2 0x8E6 PUSH2 0xEE7 JUMP JUMPDEST EQ PUSH2 0x8F0 JUMPI PUSH1 0x0 DUP1 REVERT JUMPDEST CALLER PUSH1 0x0 SWAP1 DUP2 MSTORE PUSH1 0x14 PUSH1 0x20 MSTORE PUSH1 0x40 SWAP1 KECCAK256 SLOAD PUSH2 0x909 JUMPI PUSH1 0x0 DUP1 REVERT JUMPDEST PUSH1 0x1 PUSH1 0x0 SLOAD PUSH1 0xFF AND PUSH1 0x1 DUP2 GT ISZERO PUSH2 0x91C JUMPI INVALID JUMPDEST EQ PUSH2 0x926 JUMPI PUSH1 0x0 DUP1 REVERT JUMPDEST PUSH1 0x12 SLOAD PUSH1 0x2 PUSH1 0x0 NOT PUSH2 0x100 PUSH1 0x1 DUP5 AND ISZERO MUL ADD SWAP1 SWAP2 AND DIV PUSH2 0x945 JUMPI PUSH1 0x0 DUP1 REVERT JUMPDEST PUSH1 0x1E SLOAD PUSH1 0xFF AND PUSH2 0x954 JUMPI PUSH1 0x0 DUP1 REVERT JUMPDEST PUSH1 0x0 PUSH1 0x2 PUSH1 0x0 DUP2 SLOAD DUP2 LT PUSH2 0x964 JUMPI INVALID JUMPDEST SWAP1 PUSH1 0x0 MSTORE PUSH1 0x20 PUSH1 0x0 KECCAK256 ADD SLOAD SWAP1 POP PUSH1 0x0 PUSH1 0x2 PUSH1 0x1 DUP2 SLOAD DUP2 LT PUSH2 0x981 JUMPI INVALID JUMPDEST SWAP1 PUSH1 0x0 MSTORE PUSH1 0x20 PUSH1 0x0 KECCAK256 ADD SLOAD SWAP1 POP PUSH1 0x0 PUSH2 0x999 DUP4 PUSH2 0x1168 JUMP JUMPDEST SWAP1 POP PUSH1 0x0 PUSH2 0x9A6 DUP4 PUSH2 0x1168 JUMP JUMPDEST SWAP1 POP DUP1 DUP3 EQ ISZERO PUSH2 0xBB3 JUMPI PUSH1 0x5 SLOAD PUSH1 0x40 DUP1 MLOAD PUSH4 0x2B5A6BB PUSH1 0xE5 SHL DUP2 MSTORE PUSH1 0x4 DUP2 ADD DUP8 SWAP1 MSTORE SWAP1 MLOAD PUSH1 0x0 SWAP3 PUSH1 0x1 PUSH1 0x1 PUSH1 0xA0 SHL SUB AND SWAP2 PUSH4 0x56B4D760 SWAP2 PUSH1 0x24 DUP1 DUP4 ADD SWAP3 PUSH1 0x20 SWAP3 SWAP2 SWAP1 DUP3 SWAP1 SUB ADD DUP2 DUP7 DUP1 EXTCODESIZE ISZERO DUP1 ISZERO PUSH2 0x9FC JUMPI PUSH1 0x0 DUP1 REVERT JUMPDEST POP GAS STATICCALL ISZERO DUP1 ISZERO PUSH2 0xA10 JUMPI RETURNDATASIZE PUSH1 0x0 DUP1 RETURNDATACOPY RETURNDATASIZE PUSH1 0x0 REVERT JUMPDEST POP POP POP POP PUSH1 0x40 MLOAD RETURNDATASIZE PUSH1 0x20 DUP2 LT ISZERO PUSH2 0xA26 JUMPI PUSH1 0x0 DUP1 REVERT JUMPDEST POP MLOAD PUSH1 0x5 SLOAD PUSH1 0x40 DUP1 MLOAD PUSH4 0x2B5A6BB PUSH1 0xE5 SHL DUP2 MSTORE PUSH1 0x4 DUP2 ADD DUP9 SWAP1 MSTORE SWAP1 MLOAD SWAP3 SWAP4 POP PUSH1 0x0 SWAP3 PUSH1 0x1 PUSH1 0x1 PUSH1 0xA0 SHL SUB SWAP1 SWAP3 AND SWAP2 PUSH4 0x56B4D760 SWAP2 PUSH1 0x24 DUP1 DUP3 ADD SWAP3 PUSH1 0x20 SWAP3 SWAP1 SWAP2 SWAP1 DUP3 SWAP1 SUB ADD DUP2 DUP7 DUP1 EXTCODESIZE ISZERO DUP1 ISZERO PUSH2 0xA7A JUMPI PUSH1 0x0 DUP1 REVERT JUMPDEST POP GAS STATICCALL ISZERO DUP1 ISZERO PUSH2 0xA8E JUMPI RETURNDATASIZE PUSH1 0x0 DUP1 RETURNDATACOPY RETURNDATASIZE PUSH1 0x0 REVERT JUMPDEST POP POP POP POP PUSH1 0x40 MLOAD RETURNDATASIZE PUSH1 0x20 DUP2 LT ISZERO PUSH2 0xAA4 JUMPI PUSH1 0x0 DUP1 REVERT JUMPDEST POP MLOAD PUSH1 0x1 PUSH1 0x1 PUSH1 0xA0 SHL SUB DUP4 DUP2 AND PUSH1 0x0 DUP2 DUP2 MSTORE PUSH1 0x14 PUSH1 0x20 MSTORE PUSH1 0x40 DUP1 DUP3 KECCAK256 DUP1 SLOAD DUP6 DUP8 AND DUP5 MSTORE DUP3 DUP5 KECCAK256 DUP1 SLOAD SWAP3 DUP6 SWAP1 SSTORE DUP5 SWAP1 SSTORE PUSH1 0x5 SLOAD DUP4 MLOAD PUSH4 0x26F7AF4F PUSH1 0xE0 SHL DUP2 MSTORE PUSH1 0x4 DUP2 ADD SWAP7 SWAP1 SWAP7 MSTORE PUSH1 0x24 DUP7 ADD DUP3 SWAP1 MSTORE SWAP3 MLOAD SWAP7 SWAP8 POP SWAP6 SWAP1 SWAP5 SWAP2 SWAP1 SWAP2 AND SWAP3 PUSH4 0x26F7AF4F SWAP3 PUSH1 0x44 DUP1 DUP4 ADD SWAP4 SWAP2 SWAP3 DUP3 SWAP1 SUB ADD DUP2 DUP4 DUP8 DUP1 EXTCODESIZE ISZERO DUP1 ISZERO PUSH2 0xB21 JUMPI PUSH1 0x0 DUP1 REVERT JUMPDEST POP GAS CALL ISZERO DUP1 ISZERO PUSH2 0xB35 JUMPI RETURNDATASIZE PUSH1 0x0 DUP1 RETURNDATACOPY RETURNDATASIZE PUSH1 0x0 REVERT JUMPDEST POP POP PUSH1 0x5 SLOAD PUSH1 0x40 DUP1 MLOAD PUSH4 0x26F7AF4F PUSH1 0xE0 SHL DUP2 MSTORE PUSH1 0x1 PUSH1 0x1 PUSH1 0xA0 SHL SUB DUP9 DUP2 AND PUSH1 0x4 DUP4 ADD MSTORE PUSH1 0x24 DUP3 ADD DUP8 SWAP1 MSTORE SWAP2 MLOAD SWAP2 SWAP1 SWAP3 AND SWAP4 POP PUSH4 0x26F7AF4F SWAP3 POP PUSH1 0x44 DUP1 DUP4 ADD SWAP3 PUSH1 0x0 SWAP3 SWAP2 SWAP1 DUP3 SWAP1 SUB ADD DUP2 DUP4 DUP8 DUP1 EXTCODESIZE ISZERO DUP1 ISZERO PUSH2 0xB8E JUMPI PUSH1 0x0 DUP1 REVERT JUMPDEST POP GAS CALL ISZERO DUP1 ISZERO PUSH2 0xBA2 JUMPI RETURNDATASIZE PUSH1 0x0 DUP1 RETURNDATACOPY RETURNDATASIZE PUSH1 0x0 REVERT JUMPDEST POP POP POP POP POP POP POP POP POP POP POP POP PUSH2 0xD91 JUMP JUMPDEST PUSH1 0x0 DUP1 DUP3 DUP5 LT ISZERO PUSH2 0xBC8 JUMPI POP DUP4 SWAP1 POP DUP5 PUSH2 0xBD6 JUMP JUMPDEST DUP3 DUP5 GT ISZERO PUSH2 0xBD6 JUMPI POP DUP5 SWAP1 POP DUP4 JUMPDEST PUSH1 0x5 SLOAD PUSH1 0x40 DUP1 MLOAD PUSH4 0x2B5A6BB PUSH1 0xE5 SHL DUP2 MSTORE PUSH1 0x4 DUP2 ADD DUP6 SWAP1 MSTORE SWAP1 MLOAD PUSH1 0x0 SWAP3 PUSH1 0x1 PUSH1 0x1 PUSH1 0xA0 SHL SUB AND SWAP2 PUSH4 0x56B4D760 SWAP2 PUSH1 0x24 DUP1 DUP4 ADD SWAP3 PUSH1 0x20 SWAP3 SWAP2 SWAP1 DUP3 SWAP1 SUB ADD DUP2 DUP7 DUP1 EXTCODESIZE ISZERO DUP1 ISZERO PUSH2 0xC22 JUMPI PUSH1 0x0 DUP1 REVERT JUMPDEST POP GAS STATICCALL ISZERO DUP1 ISZERO PUSH2 0xC36 JUMPI RETURNDATASIZE PUSH1 0x0 DUP1 RETURNDATACOPY RETURNDATASIZE PUSH1 0x0 REVERT JUMPDEST POP POP POP POP PUSH1 0x40 MLOAD RETURNDATASIZE PUSH1 0x20 DUP2 LT ISZERO PUSH2 0xC4C JUMPI PUSH1 0x0 DUP1 REVERT JUMPDEST POP MLOAD PUSH1 0x5 SLOAD PUSH1 0x40 DUP1 MLOAD PUSH4 0x2B5A6BB PUSH1 0xE5 SHL DUP2 MSTORE PUSH1 0x4 DUP2 ADD DUP7 SWAP1 MSTORE SWAP1 MLOAD SWAP3 SWAP4 POP PUSH1 0x0 SWAP3 PUSH1 0x1 PUSH1 0x1 PUSH1 0xA0 SHL SUB SWAP1 SWAP3 AND SWAP2 PUSH4 0x56B4D760 SWAP2 PUSH1 0x24 DUP1 DUP3 ADD SWAP3 PUSH1 0x20 SWAP3 SWAP1 SWAP2 SWAP1 DUP3 SWAP1 SUB ADD DUP2 DUP7 DUP1 EXTCODESIZE ISZERO DUP1 ISZERO PUSH2 0xCA0 JUMPI PUSH1 0x0 DUP1 REVERT JUMPDEST POP GAS STATICCALL ISZERO DUP1 ISZERO PUSH2 0xCB4 JUMPI RETURNDATASIZE PUSH1 0x0 DUP1 RETURNDATACOPY RETURNDATASIZE PUSH1 0x0 REVERT JUMPDEST POP POP POP POP PUSH1 0x40 MLOAD RETURNDATASIZE PUSH1 0x20 DUP2 LT ISZERO PUSH2 0xCCA JUMPI PUSH1 0x0 DUP1 REVERT JUMPDEST POP MLOAD PUSH1 0x1 PUSH1 0x1 PUSH1 0xA0 SHL SUB DUP4 DUP2 AND PUSH1 0x0 DUP2 DUP2 MSTORE PUSH1 0x14 PUSH1 0x20 MSTORE PUSH1 0x40 DUP1 DUP3 KECCAK256 DUP1 SLOAD DUP6 DUP8 AND DUP5 MSTORE DUP3 DUP5 KECCAK256 DUP1 SLOAD SWAP3 DUP6 SWAP1 SSTORE DUP5 SWAP1 SSTORE PUSH1 0x5 SLOAD DUP4 MLOAD PUSH4 0x26F7AF4F PUSH1 0xE0 SHL DUP2 MSTORE PUSH1 0x4 DUP2 ADD SWAP7 SWAP1 SWAP7 MSTORE DUP3 DUP3 ADD PUSH1 0x24 DUP8 ADD MSTORE SWAP3 MLOAD SWAP7 SWAP8 POP SWAP6 SWAP1 SWAP5 SWAP2 SWAP1 SWAP2 AND SWAP3 PUSH4 0x26F7AF4F SWAP3 PUSH1 0x44 DUP1 DUP4 ADD SWAP4 SWAP2 SWAP3 DUP3 SWAP1 SUB ADD DUP2 DUP4 DUP8 DUP1 EXTCODESIZE ISZERO DUP1 ISZERO PUSH2 0xD48 JUMPI PUSH1 0x0 DUP1 REVERT JUMPDEST POP GAS CALL ISZERO DUP1 ISZERO PUSH2 0xD5C JUMPI RETURNDATASIZE PUSH1 0x0 DUP1 RETURNDATACOPY RETURNDATASIZE PUSH1 0x0 REVERT JUMPDEST POP POP PUSH1 0x1C DUP1 SLOAD PUSH1 0x1 PUSH1 0x1 PUSH1 0xA0 SHL SUB NOT AND PUSH1 0x1 PUSH1 0x1 PUSH1 0xA0 SHL SUB DUP9 AND OR SWAP1 SSTORE POP PUSH2 0xD86 SWAP1 POP PUSH1 0x1 PUSH2 0x146E JUMP JUMPDEST POP POP POP POP POP POP POP POP POP POP JUMPDEST JUMP JUMPDEST PUSH1 0x18 SLOAD PUSH1 0x1 PUSH1 0x1 PUSH1 0xA0 SHL SUB AND CALLER EQ DUP1 PUSH2 0xDB6 JUMPI POP PUSH1 0x19 SLOAD PUSH1 0x1 PUSH1 0x1 PUSH1 0xA0 SHL SUB AND CALLER EQ JUMPDEST PUSH2 0xDBF JUMPI PUSH1 0x0 DUP1 REVERT JUMPDEST PUSH1 0x0 DUP1 SLOAD PUSH1 0xFF AND PUSH1 0x1 DUP2 GT ISZERO PUSH2 0xDD1 JUMPI INVALID JUMPDEST EQ PUSH2 0xDDB JUMPI PUSH1 0x0 DUP1 REVERT JUMPDEST PUSH1 0x12 SLOAD PUSH1 0x2 PUSH1 0x0 NOT PUSH2 0x100 PUSH1 0x1 DUP5 AND ISZERO MUL ADD SWAP1 SWAP2 AND DIV ISZERO PUSH2 0xDFB JUMPI PUSH1 0x0 DUP1 REVERT JUMPDEST PUSH2 0xE04 DUP2 PUSH2 0x148E JUMP JUMPDEST CALLER PUSH1 0x0 DUP2 DUP2 MSTORE PUSH1 0x14 PUSH1 0x20 MSTORE PUSH1 0x40 DUP1 DUP3 KECCAK256 DUP1 SLOAD SWAP1 DUP4 SWAP1 SSTORE PUSH1 0x5 SLOAD DUP3 MLOAD PUSH4 0x26F7AF4F PUSH1 0xE0 SHL DUP2 MSTORE PUSH1 0x4 DUP2 ADD SWAP6 SWAP1 SWAP6 MSTORE PUSH1 0x24 DUP6 ADD DUP3 SWAP1 MSTORE SWAP2 MLOAD SWAP1 SWAP4 PUSH1 0x1 PUSH1 0x1 PUSH1 0xA0 SHL SUB SWAP1 SWAP3 AND SWAP3 PUSH4 0x26F7AF4F SWAP3 PUSH1 0x44 DUP1 DUP3 ADD SWAP4 SWAP2 DUP3 SWAP1 SUB ADD DUP2 DUP4 DUP8 DUP1 EXTCODESIZE ISZERO DUP1 ISZERO PUSH2 0xE6A JUMPI PUSH1 0x0 DUP1 REVERT JUMPDEST POP GAS CALL ISZERO DUP1 ISZERO PUSH2 0xE7E JUMPI RETURNDATASIZE PUSH1 0x0 DUP1 RETURNDATACOPY RETURNDATASIZE PUSH1 0x0 REVERT JUMPDEST POP POP POP POP POP POP JUMP JUMPDEST PUSH1 0x4 DUP1 SLOAD PUSH1 0x40 DUP1 MLOAD PUSH1 0x20 PUSH1 0x2 PUSH1 0x1 DUP6 AND ISZERO PUSH2 0x100 MUL PUSH1 0x0 NOT ADD SWAP1 SWAP5 AND SWAP4 SWAP1 SWAP4 DIV PUSH1 0x1F DUP2 ADD DUP5 SWAP1 DIV DUP5 MUL DUP3 ADD DUP5 ADD SWAP1 SWAP3 MSTORE DUP2 DUP2 MSTORE SWAP3 SWAP2 DUP4 ADD DUP3 DUP3 DUP1 ISZERO PUSH2 0x8A4 JUMPI DUP1 PUSH1 0x1F LT PUSH2 0x879 JUMPI PUSH2 0x100 DUP1 DUP4 SLOAD DIV MUL DUP4 MSTORE SWAP2 PUSH1 0x20 ADD SWAP2 PUSH2 0x8A4 JUMP JUMPDEST PUSH1 0x6 SLOAD DUP2 JUMP JUMPDEST PUSH1 0x3 SLOAD SWAP1 JUMP JUMPDEST PUSH1 0x18 SLOAD PUSH1 0x1 PUSH1 0x1 PUSH1 0xA0 SHL SUB AND DUP2 JUMP JUMPDEST PUSH1 0x2 DUP2 DUP2 SLOAD DUP2 LT PUSH2 0xF09 JUMPI INVALID JUMPDEST PUSH1 0x0 SWAP2 DUP3 MSTORE PUSH1 0x20 SWAP1 SWAP2 KECCAK256 ADD SLOAD SWAP1 POP DUP2 JUMP JUMPDEST PUSH1 0x1E SLOAD PUSH1 0xFF AND DUP2 JUMP JUMPDEST PUSH1 0x19 SLOAD PUSH1 0x1 PUSH1 0x1 PUSH1 0xA0 SHL SUB AND DUP2 JUMP JUMPDEST PUSH1 0x3 SLOAD DUP2 JUMP JUMPDEST PUSH4 0xBC197C81 PUSH1 0xE0 SHL SWAP9 SWAP8 POP POP POP POP POP POP POP POP JUMP JUMPDEST PUSH1 0x18 SLOAD PUSH1 0x19 SLOAD PUSH1 0x1 PUSH1 0x1 PUSH1 0xA0 SHL SUB SWAP2 DUP3 AND PUSH1 0x0 DUP2 DUP2 MSTORE PUSH1 0x1D PUSH1 0x20 MSTORE PUSH1 0x40 DUP1 DUP3 KECCAK256 SLOAD SWAP4 DUP6 AND DUP1 DUP4 MSTORE SWAP1 DUP3 KECCAK256 SLOAD SWAP2 SLOAD PUSH1 0x1C SLOAD PUSH1 0x1E SLOAD PUSH1 0x13 SLOAD SWAP6 SWAP9 SWAP4 SWAP8 SWAP5 SWAP6 PUSH1 0xFF SWAP4 DUP5 AND SWAP6 SWAP3 SWAP1 SWAP3 AND SWAP4 SWAP3 AND SWAP2 JUMP JUMPDEST PUSH1 0x0 DUP1 SLOAD PUSH1 0xFF AND PUSH1 0x1 DUP2 GT ISZERO PUSH2 0xFAA JUMPI INVALID JUMPDEST EQ PUSH2 0xFB4 JUMPI PUSH1 0x0 DUP1 REVERT JUMPDEST PUSH1 0x40 MLOAD PUSH32 0x762F260439BB4BE3EF6E4DC2786E2E7BD187D3D80B79057D7A424FE98563E335 SWAP1 PUSH1 0x0 SWAP1 LOG1 PUSH2 0xFE5 PUSH2 0x14CC JUMP JUMPDEST PUSH2 0xFEF PUSH1 0x1 PUSH2 0x146E JUMP JUMPDEST PUSH1 0x40 MLOAD PUSH32 0x1084D47E99647565312E58BBA004B0FC3088C683FA22F3925F1CF5FB09554029 SWAP1 PUSH1 0x0 SWAP1 LOG1 JUMP JUMPDEST PUSH1 0x1C SLOAD PUSH1 0x1 PUSH1 0x1 PUSH1 0xA0 SHL SUB AND DUP2 JUMP JUMPDEST PUSH1 0x1B SLOAD DUP2 JUMP JUMPDEST PUSH1 0x1B SLOAD DUP2 EQ DUP1 PUSH2 0x1040 JUMPI POP PUSH1 0x1A SLOAD DUP2 EQ JUMPDEST PUSH2 0x1049 JUMPI PUSH1 0x0 DUP1 REVERT JUMPDEST PUSH1 0x17 SLOAD PUSH1 0x1 PUSH1 0x1 PUSH1 0xA0 SHL SUB AND CALLER EQ DUP1 PUSH2 0x106C JUMPI POP PUSH1 0x18 SLOAD PUSH1 0x1 PUSH1 0x1 PUSH1 0xA0 SHL SUB AND CALLER EQ JUMPDEST DUP1 PUSH2 0x1081 JUMPI POP PUSH1 0x19 SLOAD PUSH1 0x1 PUSH1 0x1 PUSH1 0xA0 SHL SUB AND CALLER EQ JUMPDEST PUSH2 0x108A JUMPI PUSH1 0x0 DUP1 REVERT JUMPDEST PUSH2 0x1093 DUP2 PUSH2 0x16CB JUMP JUMPDEST POP JUMP JUMPDEST PUSH1 0x0 PUSH1 0x13 SLOAD DUP5 EQ PUSH2 0x10A6 JUMPI PUSH1 0x0 DUP1 REVERT JUMPDEST PUSH1 0x19 SLOAD PUSH1 0x1 PUSH1 0x1 PUSH1 0xA0 SHL SUB DUP8 DUP2 AND SWAP2 AND EQ ISZERO PUSH2 0x10CA JUMPI PUSH1 0x1E DUP1 SLOAD PUSH1 0xFF NOT AND PUSH1 0x1 OR SWAP1 SSTORE JUMPDEST POP PUSH1 0x1 PUSH1 0x1 PUSH1 0xA0 SHL SUB DUP6 AND PUSH1 0x0 SWAP1 DUP2 MSTORE PUSH1 0x14 PUSH1 0x20 MSTORE PUSH1 0x40 SWAP1 KECCAK256 DUP4 SWAP1 SSTORE PUSH4 0xF23A6E61 PUSH1 0xE0 SHL SWAP7 SWAP6 POP POP POP POP POP POP JUMP JUMPDEST PUSH1 0x1 PUSH1 0x20 MSTORE PUSH1 0x0 SWAP1 DUP2 MSTORE PUSH1 0x40 SWAP1 KECCAK256 SLOAD PUSH1 0xFF AND DUP2 JUMP JUMPDEST PUSH1 0x10 DUP1 SLOAD PUSH1 0x40 DUP1 MLOAD PUSH1 0x20 PUSH1 0x2 PUSH1 0x1 DUP6 AND ISZERO PUSH2 0x100 MUL PUSH1 0x0 NOT ADD SWAP1 SWAP5 AND SWAP4 SWAP1 SWAP4 DIV PUSH1 0x1F DUP2 ADD DUP5 SWAP1 DIV DUP5 MUL DUP3 ADD DUP5 ADD SWAP1 SWAP3 MSTORE DUP2 DUP2 MSTORE SWAP3 SWAP2 DUP4 ADD DUP3 DUP3 DUP1 ISZERO PUSH2 0x8A4 JUMPI DUP1 PUSH1 0x1F LT PUSH2 0x879 JUMPI PUSH2 0x100 DUP1 DUP4 SLOAD DIV MUL DUP4 MSTORE SWAP2 PUSH1 0x20 ADD SWAP2 PUSH2 0x8A4 JUMP JUMPDEST PUSH1 0x5 SLOAD PUSH1 0x40 DUP1 MLOAD PUSH4 0x985DA03 PUSH1 0xE3 SHL DUP2 MSTORE PUSH1 0x4 DUP2 ADD DUP5 SWAP1 MSTORE SWAP1 MLOAD PUSH1 0x0 SWAP3 DUP4 SWAP3 DUP4 SWAP3 PUSH1 0x1 PUSH1 0x1 PUSH1 0xA0 SHL SUB SWAP1 SWAP3 AND SWAP2 PUSH4 0x4C2ED018 SWAP2 PUSH1 0x24 DUP1 DUP3 ADD SWAP3 PUSH1 0x80 SWAP3 SWAP1 SWAP2 SWAP1 DUP3 SWAP1 SUB ADD DUP2 DUP7 DUP1 EXTCODESIZE ISZERO DUP1 ISZERO PUSH2 0x11BB JUMPI PUSH1 0x0 DUP1 REVERT JUMPDEST POP GAS STATICCALL ISZERO DUP1 ISZERO PUSH2 0x11CF JUMPI RETURNDATASIZE PUSH1 0x0 DUP1 RETURNDATACOPY RETURNDATASIZE PUSH1 0x0 REVERT JUMPDEST POP POP POP POP PUSH1 0x40 MLOAD RETURNDATASIZE PUSH1 0x80 DUP2 LT ISZERO PUSH2 0x11E5 JUMPI PUSH1 0x0 DUP1 REVERT JUMPDEST POP PUSH1 0x40 DUP1 DUP3 ADD MLOAD PUSH1 0x60 SWAP1 SWAP3 ADD MLOAD PUSH1 0x17 SLOAD SWAP2 MLOAD PUSH4 0x65EAE2DB PUSH1 0xE0 SHL DUP2 MSTORE PUSH1 0x20 PUSH1 0x4 DUP3 ADD SWAP1 DUP2 MSTORE PUSH1 0x10 DUP1 SLOAD PUSH1 0x2 PUSH1 0x0 NOT PUSH1 0x1 DUP4 DUP2 AND ISZERO PUSH2 0x100 MUL SWAP2 SWAP1 SWAP2 ADD SWAP1 SWAP3 AND DIV PUSH1 0x24 DUP6 ADD DUP2 SWAP1 MSTORE SWAP7 SWAP9 POP SWAP4 SWAP7 POP SWAP3 SWAP5 PUSH1 0x1 PUSH1 0x1 PUSH1 0xA0 SHL SUB SWAP1 SWAP5 AND SWAP4 PUSH4 0x65EAE2DB SWAP4 SWAP3 DUP3 SWAP2 PUSH1 0x44 SWAP1 SWAP2 ADD SWAP1 DUP5 SWAP1 DUP1 ISZERO PUSH2 0x129E JUMPI DUP1 PUSH1 0x1F LT PUSH2 0x1273 JUMPI PUSH2 0x100 DUP1 DUP4 SLOAD DIV MUL DUP4 MSTORE SWAP2 PUSH1 0x20 ADD SWAP2 PUSH2 0x129E JUMP JUMPDEST DUP3 ADD SWAP2 SWAP1 PUSH1 0x0 MSTORE PUSH1 0x20 PUSH1 0x0 KECCAK256 SWAP1 JUMPDEST DUP2 SLOAD DUP2 MSTORE SWAP1 PUSH1 0x1 ADD SWAP1 PUSH1 0x20 ADD DUP1 DUP4 GT PUSH2 0x1281 JUMPI DUP3 SWAP1 SUB PUSH1 0x1F AND DUP3 ADD SWAP2 JUMPDEST POP POP SWAP3 POP POP POP PUSH1 0x20 PUSH1 0x40 MLOAD DUP1 DUP4 SUB DUP2 DUP7 DUP1 EXTCODESIZE ISZERO DUP1 ISZERO PUSH2 0x12BC JUMPI PUSH1 0x0 DUP1 REVERT JUMPDEST POP GAS STATICCALL ISZERO DUP1 ISZERO PUSH2 0x12D0 JUMPI RETURNDATASIZE PUSH1 0x0 DUP1 RETURNDATACOPY RETURNDATASIZE PUSH1 0x0 REVERT JUMPDEST POP POP POP POP PUSH1 0x40 MLOAD RETURNDATASIZE PUSH1 0x20 DUP2 LT ISZERO PUSH2 0x12E6 JUMPI PUSH1 0x0 DUP1 REVERT JUMPDEST POP MLOAD PUSH1 0xFF DUP5 DUP2 AND SWAP2 AND EQ ISZERO PUSH2 0x130E JUMPI PUSH2 0x130B PUSH1 0xA PUSH2 0x1305 DUP4 PUSH1 0xB PUSH2 0x16E9 JUMP JUMPDEST SWAP1 PUSH2 0x174B JUMP JUMPDEST SWAP1 POP JUMPDEST PUSH1 0x17 SLOAD PUSH1 0x40 MLOAD PUSH4 0x4EB1B267 PUSH1 0xE1 SHL DUP2 MSTORE PUSH1 0x20 PUSH1 0x4 DUP3 ADD SWAP1 DUP2 MSTORE PUSH1 0x12 DUP1 SLOAD PUSH1 0x2 PUSH1 0x0 NOT PUSH1 0x1 DUP4 AND ISZERO PUSH2 0x100 MUL ADD SWAP1 SWAP2 AND DIV PUSH1 0x24 DUP5 ADD DUP2 SWAP1 MSTORE PUSH1 0x1 PUSH1 0x1 PUSH1 0xA0 SHL SUB SWAP1 SWAP5 AND SWAP4 PUSH4 0x9D6364CE SWAP4 SWAP2 SWAP3 SWAP2 DUP3 SWAP2 PUSH1 0x44 SWAP1 SWAP2 ADD SWAP1 DUP5 SWAP1 DUP1 ISZERO PUSH2 0x13B1 JUMPI DUP1 PUSH1 0x1F LT PUSH2 0x1386 JUMPI PUSH2 0x100 DUP1 DUP4 SLOAD DIV MUL DUP4 MSTORE SWAP2 PUSH1 0x20 ADD SWAP2 PUSH2 0x13B1 JUMP JUMPDEST DUP3 ADD SWAP2 SWAP1 PUSH1 0x0 MSTORE PUSH1 0x20 PUSH1 0x0 KECCAK256 SWAP1 JUMPDEST DUP2 SLOAD DUP2 MSTORE SWAP1 PUSH1 0x1 ADD SWAP1 PUSH1 0x20 ADD DUP1 DUP4 GT PUSH2 0x1394 JUMPI DUP3 SWAP1 SUB PUSH1 0x1F AND DUP3 ADD SWAP2 JUMPDEST POP POP SWAP3 POP POP POP PUSH1 0x20 PUSH1 0x40 MLOAD DUP1 DUP4 SUB DUP2 DUP7 DUP1 EXTCODESIZE ISZERO DUP1 ISZERO PUSH2 0x13CF JUMPI PUSH1 0x0 DUP1 REVERT JUMPDEST POP GAS STATICCALL ISZERO DUP1 ISZERO PUSH2 0x13E3 JUMPI RETURNDATASIZE PUSH1 0x0 DUP1 RETURNDATACOPY RETURNDATASIZE PUSH1 0x0 REVERT JUMPDEST POP POP POP POP PUSH1 0x40 MLOAD RETURNDATASIZE PUSH1 0x20 DUP2 LT ISZERO PUSH2 0x13F9 JUMPI PUSH1 0x0 DUP1 REVERT JUMPDEST POP MLOAD PUSH1 0xFF DUP4 DUP2 AND SWAP2 AND EQ ISZERO PUSH2 0x141B JUMPI PUSH2 0x1418 PUSH1 0xA PUSH2 0x1305 DUP4 PUSH1 0xB PUSH2 0x16E9 JUMP JUMPDEST SWAP1 POP JUMPDEST PUSH1 0x0 PUSH2 0x1426 DUP7 PUSH2 0x17B5 JUMP JUMPDEST SWAP1 POP PUSH1 0x0 PUSH2 0x143A PUSH1 0x4 PUSH2 0x1305 DUP5 PUSH1 0x5 PUSH2 0x16E9 JUMP JUMPDEST SWAP1 POP PUSH1 0x0 PUSH2 0x1447 DUP9 PUSH2 0x1AA8 JUMP JUMPDEST SWAP1 POP PUSH1 0x0 PUSH2 0x1455 DUP4 DUP4 PUSH2 0x1B91 JUMP JUMPDEST SWAP1 POP PUSH2 0x1461 DUP6 DUP3 PUSH2 0x16E9 JUMP JUMPDEST SWAP10 SWAP9 POP POP POP POP POP POP POP POP POP JUMP JUMPDEST PUSH1 0x0 DUP1 SLOAD DUP3 SWAP2 SWAP1 PUSH1 0xFF NOT AND PUSH1 0x1 DUP4 DUP2 DUP2 GT ISZERO PUSH2 0x1486 JUMPI INVALID JUMPDEST MUL OR SWAP1 SSTORE POP POP JUMP JUMPDEST PUSH1 0x0 DUP1 SLOAD PUSH1 0xFF AND PUSH1 0x1 DUP2 GT ISZERO PUSH2 0x14A0 JUMPI INVALID JUMPDEST EQ PUSH2 0x14AA JUMPI PUSH1 0x0 DUP1 REVERT JUMPDEST PUSH1 0x0 SWAP1 DUP2 MSTORE PUSH1 0x1 PUSH1 0x20 MSTORE PUSH1 0x40 SWAP1 KECCAK256 DUP1 SLOAD PUSH1 0xFF NOT AND SWAP1 SSTORE PUSH1 0x3 DUP1 SLOAD PUSH1 0x0 NOT ADD SWAP1 SSTORE JUMP JUMPDEST PUSH2 0x14D4 PUSH2 0x2415 JUMP JUMPDEST PUSH1 0x15 SLOAD PUSH2 0x14E9 SWAP1 ADDRESS PUSH4 0x42F2B65 PUSH1 0xE0 SHL PUSH2 0x1BEB JUMP JUMPDEST SWAP1 POP PUSH1 0x60 PUSH2 0x1599 PUSH1 0x40 MLOAD DUP1 PUSH1 0x60 ADD PUSH1 0x40 MSTORE DUP1 PUSH1 0x32 DUP2 MSTORE PUSH1 0x20 ADD PUSH2 0x24AF PUSH1 0x32 SWAP2 CODECOPY PUSH1 0x10 DUP1 SLOAD PUSH1 0x40 DUP1 MLOAD PUSH1 0x20 PUSH1 0x2 PUSH1 0x1 DUP6 AND ISZERO PUSH2 0x100 MUL PUSH1 0x0 NOT ADD SWAP1 SWAP5 AND SWAP4 SWAP1 SWAP4 DIV PUSH1 0x1F DUP2 ADD DUP5 SWAP1 DIV DUP5 MUL DUP3 ADD DUP5 ADD SWAP1 SWAP3 MSTORE DUP2 DUP2 MSTORE SWAP3 SWAP2 DUP4 ADD DUP3 DUP3 DUP1 ISZERO PUSH2 0x158F JUMPI DUP1 PUSH1 0x1F LT PUSH2 0x1564 JUMPI PUSH2 0x100 DUP1 DUP4 SLOAD DIV MUL DUP4 MSTORE SWAP2 PUSH1 0x20 ADD SWAP2 PUSH2 0x158F JUMP JUMPDEST DUP3 ADD SWAP2 SWAP1 PUSH1 0x0 MSTORE PUSH1 0x20 PUSH1 0x0 KECCAK256 SWAP1 JUMPDEST DUP2 SLOAD DUP2 MSTORE SWAP1 PUSH1 0x1 ADD SWAP1 PUSH1 0x20 ADD DUP1 DUP4 GT PUSH2 0x1572 JUMPI DUP3 SWAP1 SUB PUSH1 0x1F AND DUP3 ADD SWAP2 JUMPDEST POP POP POP POP POP PUSH2 0x1C10 JUMP JUMPDEST SWAP1 POP PUSH2 0x15C4 DUP2 PUSH1 0x40 MLOAD DUP1 PUSH1 0x40 ADD PUSH1 0x40 MSTORE DUP1 PUSH1 0x7 DUP2 MSTORE PUSH1 0x20 ADD PUSH7 0x2661707069643D PUSH1 0xC8 SHL DUP2 MSTORE POP PUSH2 0x1C10 JUMP JUMPDEST PUSH1 0x16 DUP1 SLOAD PUSH1 0x40 DUP1 MLOAD PUSH1 0x20 PUSH1 0x1F PUSH1 0x2 PUSH1 0x0 NOT PUSH2 0x100 PUSH1 0x1 DUP9 AND ISZERO MUL ADD SWAP1 SWAP6 AND SWAP5 SWAP1 SWAP5 DIV SWAP4 DUP5 ADD DUP2 SWAP1 DIV DUP2 MUL DUP3 ADD DUP2 ADD SWAP1 SWAP3 MSTORE DUP3 DUP2 MSTORE SWAP4 SWAP5 POP PUSH2 0x162B SWAP4 DUP6 SWAP4 SWAP1 SWAP3 SWAP1 SWAP2 DUP4 ADD DUP3 DUP3 DUP1 ISZERO PUSH2 0x158F JUMPI DUP1 PUSH1 0x1F LT PUSH2 0x1564 JUMPI PUSH2 0x100 DUP1 DUP4 SLOAD DIV MUL DUP4 MSTORE SWAP2 PUSH1 0x20 ADD SWAP2 PUSH2 0x158F JUMP JUMPDEST PUSH1 0x40 DUP1 MLOAD DUP1 DUP3 ADD SWAP1 SWAP2 MSTORE PUSH1 0x3 DUP2 MSTORE PUSH3 0x19D95D PUSH1 0xEA SHL PUSH1 0x20 DUP3 ADD MSTORE SWAP1 SWAP2 POP PUSH2 0x1654 SWAP1 DUP4 SWAP1 DUP4 PUSH2 0x1CCB JUMP JUMPDEST PUSH2 0x16AB PUSH1 0x40 MLOAD DUP1 PUSH1 0x40 ADD PUSH1 0x40 MSTORE DUP1 PUSH1 0x4 DUP2 MSTORE PUSH1 0x20 ADD PUSH4 0xE0C2E8D PUSH1 0xE3 SHL DUP2 MSTORE POP PUSH1 0x40 MLOAD DUP1 PUSH1 0x40 ADD PUSH1 0x40 MSTORE DUP1 PUSH1 0xE DUP2 MSTORE PUSH1 0x20 ADD PUSH14 0x3BB2B0BA3432B917181736B0B4B7 PUSH1 0x91 SHL DUP2 MSTORE POP DUP5 PUSH2 0x1CCB SWAP1 SWAP3 SWAP2 SWAP1 PUSH4 0xFFFFFFFF AND JUMP JUMPDEST PUSH1 0x11 SLOAD PUSH1 0xF SLOAD PUSH2 0x16C6 SWAP2 PUSH1 0x1 PUSH1 0x1 PUSH1 0xA0 SHL SUB AND SWAP1 DUP5 SWAP1 PUSH2 0x1CE9 JUMP JUMPDEST POP POP POP JUMP JUMPDEST PUSH1 0x6 SLOAD PUSH2 0x16D6 PUSH2 0xEE7 JUMP JUMPDEST LT PUSH2 0x16E0 JUMPI PUSH1 0x0 DUP1 REVERT JUMPDEST PUSH2 0x1093 DUP2 PUSH2 0x1EB7 JUMP JUMPDEST PUSH1 0x0 DUP3 PUSH2 0x16F8 JUMPI POP PUSH1 0x0 PUSH2 0x1745 JUMP JUMPDEST DUP3 DUP3 MUL DUP3 DUP5 DUP3 DUP2 PUSH2 0x1705 JUMPI INVALID JUMPDEST DIV EQ PUSH2 0x1742 JUMPI PUSH1 0x40 MLOAD PUSH3 0x461BCD PUSH1 0xE5 SHL DUP2 MSTORE PUSH1 0x4 ADD DUP1 DUP1 PUSH1 0x20 ADD DUP3 DUP2 SUB DUP3 MSTORE PUSH1 0x21 DUP2 MSTORE PUSH1 0x20 ADD DUP1 PUSH2 0x24E1 PUSH1 0x21 SWAP2 CODECOPY PUSH1 0x40 ADD SWAP2 POP POP PUSH1 0x40 MLOAD DUP1 SWAP2 SUB SWAP1 REVERT JUMPDEST SWAP1 POP JUMPDEST SWAP3 SWAP2 POP POP JUMP JUMPDEST PUSH1 0x0 DUP1 DUP3 GT PUSH2 0x17A1 JUMPI PUSH1 0x40 DUP1 MLOAD PUSH3 0x461BCD PUSH1 0xE5 SHL DUP2 MSTORE PUSH1 0x20 PUSH1 0x4 DUP3 ADD MSTORE PUSH1 0x1A PUSH1 0x24 DUP3 ADD MSTORE PUSH32 0x536166654D6174683A206469766973696F6E206279207A65726F000000000000 PUSH1 0x44 DUP3 ADD MSTORE SWAP1 MLOAD SWAP1 DUP2 SWAP1 SUB PUSH1 0x64 ADD SWAP1 REVERT JUMPDEST PUSH1 0x0 DUP3 DUP5 DUP2 PUSH2 0x17AC JUMPI INVALID JUMPDEST DIV SWAP5 SWAP4 POP POP POP POP JUMP JUMPDEST PUSH1 0x0 DUP1 PUSH1 0x0 DUP1 PUSH1 0x0 DUP1 PUSH1 0x0 PUSH1 0x5 PUSH1 0x0 SWAP1 SLOAD SWAP1 PUSH2 0x100 EXP SWAP1 DIV PUSH1 0x1 PUSH1 0x1 PUSH1 0xA0 SHL SUB AND PUSH1 0x1 PUSH1 0x1 PUSH1 0xA0 SHL SUB AND PUSH4 0x835A4398 DUP10 PUSH1 0x40 MLOAD DUP3 PUSH4 0xFFFFFFFF AND PUSH1 0xE0 SHL DUP2 MSTORE PUSH1 0x4 ADD DUP1 DUP3 DUP2 MSTORE PUSH1 0x20 ADD SWAP2 POP POP PUSH1 0xC0 PUSH1 0x40 MLOAD DUP1 DUP4 SUB DUP2 DUP7 DUP1 EXTCODESIZE ISZERO DUP1 ISZERO PUSH2 0x1819 JUMPI PUSH1 0x0 DUP1 REVERT JUMPDEST POP GAS STATICCALL ISZERO DUP1 ISZERO PUSH2 0x182D JUMPI RETURNDATASIZE PUSH1 0x0 DUP1 RETURNDATACOPY RETURNDATASIZE PUSH1 0x0 REVERT JUMPDEST POP POP POP POP PUSH1 0x40 MLOAD RETURNDATASIZE PUSH1 0xC0 DUP2 LT ISZERO PUSH2 0x1843 JUMPI PUSH1 0x0 DUP1 REVERT JUMPDEST DUP2 ADD SWAP1 DUP1 DUP1 MLOAD SWAP1 PUSH1 0x20 ADD SWAP1 SWAP3 SWAP2 SWAP1 DUP1 MLOAD SWAP1 PUSH1 0x20 ADD SWAP1 SWAP3 SWAP2 SWAP1 DUP1 MLOAD SWAP1 PUSH1 0x20 ADD SWAP1 SWAP3 SWAP2 SWAP1 DUP1 MLOAD SWAP1 PUSH1 0x20 ADD SWAP1 SWAP3 SWAP2 SWAP1 DUP1 MLOAD SWAP1 PUSH1 0x20 ADD SWAP1 SWAP3 SWAP2 SWAP1 DUP1 MLOAD SWAP1 PUSH1 0x20 ADD SWAP1 SWAP3 SWAP2 SWAP1 POP POP POP SWAP6 POP SWAP6 POP SWAP6 POP SWAP6 POP SWAP6 POP SWAP6 POP PUSH1 0x0 PUSH1 0x5 PUSH1 0x0 SWAP1 SLOAD SWAP1 PUSH2 0x100 EXP SWAP1 DIV PUSH1 0x1 PUSH1 0x1 PUSH1 0xA0 SHL SUB AND PUSH1 0x1 PUSH1 0x1 PUSH1 0xA0 SHL SUB AND PUSH4 0x46E6F13D DUP11 PUSH1 0x40 MLOAD DUP3 PUSH4 0xFFFFFFFF AND PUSH1 0xE0 SHL DUP2 MSTORE PUSH1 0x4 ADD DUP1 DUP3 DUP2 MSTORE PUSH1 0x20 ADD SWAP2 POP POP PUSH1 0x0 PUSH1 0x40 MLOAD DUP1 DUP4 SUB DUP2 DUP7 DUP1 EXTCODESIZE ISZERO DUP1 ISZERO PUSH2 0x18ED JUMPI PUSH1 0x0 DUP1 REVERT JUMPDEST POP GAS STATICCALL ISZERO DUP1 ISZERO PUSH2 0x1901 JUMPI RETURNDATASIZE PUSH1 0x0 DUP1 RETURNDATACOPY RETURNDATASIZE PUSH1 0x0 REVERT JUMPDEST POP POP POP POP PUSH1 0x40 MLOAD RETURNDATASIZE PUSH1 0x0 DUP3 RETURNDATACOPY PUSH1 0x1F RETURNDATASIZE SWAP1 DUP2 ADD PUSH1 0x1F NOT AND DUP3 ADD PUSH1 0x40 MSTORE PUSH1 0x80 DUP2 LT ISZERO PUSH2 0x192A JUMPI PUSH1 0x0 DUP1 REVERT JUMPDEST DUP2 ADD SWAP1 DUP1 DUP1 MLOAD PUSH1 0x40 MLOAD SWAP4 SWAP3 SWAP2 SWAP1 DUP5 PUSH1 0x1 PUSH1 0x20 SHL DUP3 GT ISZERO PUSH2 0x1949 JUMPI PUSH1 0x0 DUP1 REVERT JUMPDEST SWAP1 DUP4 ADD SWAP1 PUSH1 0x20 DUP3 ADD DUP6 DUP2 GT ISZERO PUSH2 0x195E JUMPI PUSH1 0x0 DUP1 REVERT JUMPDEST DUP3 MLOAD PUSH1 0x1 PUSH1 0x20 SHL DUP2 GT DUP3 DUP3 ADD DUP9 LT OR ISZERO PUSH2 0x1977 JUMPI PUSH1 0x0 DUP1 REVERT JUMPDEST DUP3 MSTORE POP DUP2 MLOAD PUSH1 0x20 SWAP2 DUP3 ADD SWAP3 SWAP1 SWAP2 ADD SWAP1 DUP1 DUP4 DUP4 PUSH1 0x0 JUMPDEST DUP4 DUP2 LT ISZERO PUSH2 0x19A4 JUMPI DUP2 DUP2 ADD MLOAD DUP4 DUP3 ADD MSTORE PUSH1 0x20 ADD PUSH2 0x198C JUMP JUMPDEST POP POP POP POP SWAP1 POP SWAP1 DUP2 ADD SWAP1 PUSH1 0x1F AND DUP1 ISZERO PUSH2 0x19D1 JUMPI DUP1 DUP3 SUB DUP1 MLOAD PUSH1 0x1 DUP4 PUSH1 0x20 SUB PUSH2 0x100 EXP SUB NOT AND DUP2 MSTORE PUSH1 0x20 ADD SWAP2 POP JUMPDEST POP PUSH1 0x40 SWAP1 DUP2 MSTORE ADD MLOAD SWAP4 POP POP POP DUP2 ISZERO ISZERO SWAP1 POP PUSH2 0x19F8 JUMPI DUP7 PUSH1 0xFF AND SWAP8 POP POP POP POP POP POP POP POP PUSH2 0x6E6 JUMP JUMPDEST DUP1 PUSH1 0x1 EQ ISZERO PUSH2 0x1A13 JUMPI DUP4 PUSH1 0xFF AND SWAP8 POP POP POP POP POP POP POP POP PUSH2 0x6E6 JUMP JUMPDEST DUP1 PUSH1 0x2 EQ ISZERO PUSH2 0x1A2D JUMPI POP POP PUSH1 0xFF AND SWAP5 POP PUSH2 0x6E6 SWAP4 POP POP POP POP JUMP JUMPDEST DUP1 PUSH1 0x3 EQ ISZERO PUSH2 0x1A48 JUMPI DUP5 PUSH1 0xFF AND SWAP8 POP POP POP POP POP POP POP POP PUSH2 0x6E6 JUMP JUMPDEST DUP1 PUSH1 0x4 EQ ISZERO PUSH2 0x1A62 JUMPI POP PUSH1 0xFF AND SWAP6 POP PUSH2 0x6E6 SWAP5 POP POP POP POP POP JUMP JUMPDEST DUP1 PUSH1 0x5 EQ ISZERO PUSH2 0x1A7D JUMPI DUP4 PUSH1 0xFF AND SWAP8 POP POP POP POP POP POP POP POP PUSH2 0x6E6 JUMP JUMPDEST DUP1 PUSH1 0x6 EQ ISZERO PUSH2 0x1A97 JUMPI POP POP PUSH1 0xFF AND SWAP5 POP PUSH2 0x6E6 SWAP4 POP POP POP POP JUMP JUMPDEST POP POP PUSH1 0xFF SWAP1 SWAP4 AND SWAP7 SWAP6 POP POP POP POP POP POP JUMP JUMPDEST PUSH1 0x0 DUP1 PUSH1 0x0 DUP1 PUSH1 0x0 PUSH1 0x5 PUSH1 0x0 SWAP1 SLOAD SWAP1 PUSH2 0x100 EXP SWAP1 DIV PUSH1 0x1 PUSH1 0x1 PUSH1 0xA0 SHL SUB AND PUSH1 0x1 PUSH1 0x1 PUSH1 0xA0 SHL SUB AND PUSH4 0x8423B077 DUP8 PUSH1 0x40 MLOAD DUP3 PUSH4 0xFFFFFFFF AND PUSH1 0xE0 SHL DUP2 MSTORE PUSH1 0x4 ADD DUP1 DUP3 DUP2 MSTORE PUSH1 0x20 ADD SWAP2 POP POP PUSH1 0x80 PUSH1 0x40 MLOAD DUP1 DUP4 SUB DUP2 DUP7 DUP1 EXTCODESIZE ISZERO DUP1 ISZERO PUSH2 0x1B09 JUMPI PUSH1 0x0 DUP1 REVERT JUMPDEST POP GAS STATICCALL ISZERO DUP1 ISZERO PUSH2 0x1B1D JUMPI RETURNDATASIZE PUSH1 0x0 DUP1 RETURNDATACOPY RETURNDATASIZE PUSH1 0x0 REVERT JUMPDEST POP POP POP POP PUSH1 0x40 MLOAD RETURNDATASIZE PUSH1 0x80 DUP2 LT ISZERO PUSH2 0x1B33 JUMPI PUSH1 0x0 DUP1 REVERT JUMPDEST POP DUP1 MLOAD PUSH1 0x20 DUP3 ADD MLOAD PUSH1 0x40 DUP4 ADD MLOAD PUSH1 0x60 SWAP1 SWAP4 ADD MLOAD SWAP2 SWAP7 POP SWAP5 POP SWAP1 SWAP3 POP SWAP1 POP PUSH1 0xFF DUP1 DUP6 AND SWAP1 DUP5 AND DUP2 LT ISZERO PUSH2 0x1B65 JUMPI POP PUSH1 0xFF DUP4 AND JUMPDEST DUP1 DUP4 PUSH1 0xFF AND GT ISZERO PUSH2 0x1B76 JUMPI POP PUSH1 0xFF DUP3 AND JUMPDEST DUP1 DUP3 PUSH1 0xFF AND GT ISZERO PUSH2 0x1B87 JUMPI POP PUSH1 0xFF DUP2 AND JUMPDEST SWAP7 SWAP6 POP POP POP POP POP POP JUMP JUMPDEST PUSH1 0x0 DUP3 DUP3 ADD DUP4 DUP2 LT ISZERO PUSH2 0x1742 JUMPI PUSH1 0x40 DUP1 MLOAD PUSH3 0x461BCD PUSH1 0xE5 SHL DUP2 MSTORE PUSH1 0x20 PUSH1 0x4 DUP3 ADD MSTORE PUSH1 0x1B PUSH1 0x24 DUP3 ADD MSTORE PUSH32 0x536166654D6174683A206164646974696F6E206F766572666C6F770000000000 PUSH1 0x44 DUP3 ADD MSTORE SWAP1 MLOAD SWAP1 DUP2 SWAP1 SUB PUSH1 0x64 ADD SWAP1 REVERT JUMPDEST PUSH2 0x1BF3 PUSH2 0x2415 JUMP JUMPDEST PUSH2 0x1BFB PUSH2 0x2415 JUMP JUMPDEST PUSH2 0x1C07 DUP2 DUP7 DUP7 DUP7 PUSH2 0x1F3B JUMP JUMPDEST SWAP6 SWAP5 POP POP POP POP POP JUMP JUMPDEST PUSH1 0x60 DUP3 DUP3 PUSH1 0x40 MLOAD PUSH1 0x20 ADD DUP1 DUP4 DUP1 MLOAD SWAP1 PUSH1 0x20 ADD SWAP1 DUP1 DUP4 DUP4 JUMPDEST PUSH1 0x20 DUP4 LT PUSH2 0x1C46 JUMPI DUP1 MLOAD DUP3 MSTORE PUSH1 0x1F NOT SWAP1 SWAP3 ADD SWAP2 PUSH1 0x20 SWAP2 DUP3 ADD SWAP2 ADD PUSH2 0x1C27 JUMP JUMPDEST MLOAD DUP2 MLOAD PUSH1 0x20 SWAP4 DUP5 SUB PUSH2 0x100 EXP PUSH1 0x0 NOT ADD DUP1 NOT SWAP1 SWAP3 AND SWAP2 AND OR SWAP1 MSTORE DUP6 MLOAD SWAP2 SWAP1 SWAP4 ADD SWAP3 DUP6 ADD SWAP2 POP DUP1 DUP4 DUP4 JUMPDEST PUSH1 0x20 DUP4 LT PUSH2 0x1C8E JUMPI DUP1 MLOAD DUP3 MSTORE PUSH1 0x1F NOT SWAP1 SWAP3 ADD SWAP2 PUSH1 0x20 SWAP2 DUP3 ADD SWAP2 ADD PUSH2 0x1C6F JUMP JUMPDEST PUSH1 0x1 DUP4 PUSH1 0x20 SUB PUSH2 0x100 EXP SUB DUP1 NOT DUP3 MLOAD AND DUP2 DUP5 MLOAD AND DUP1 DUP3 OR DUP6 MSTORE POP POP POP POP POP POP SWAP1 POP ADD SWAP3 POP POP POP PUSH1 0x40 MLOAD PUSH1 0x20 DUP2 DUP4 SUB SUB DUP2 MSTORE SWAP1 PUSH1 0x40 MSTORE SWAP1 POP SWAP3 SWAP2 POP POP JUMP JUMPDEST PUSH1 0x80 DUP4 ADD MLOAD PUSH2 0x1CDA SWAP1 DUP4 PUSH2 0x1F78 JUMP JUMPDEST PUSH1 0x80 DUP4 ADD MLOAD PUSH2 0x16C6 SWAP1 DUP3 PUSH2 0x1F78 JUMP JUMPDEST PUSH1 0xB SLOAD PUSH1 0x40 DUP1 MLOAD ADDRESS PUSH1 0x60 SWAP1 DUP2 SHL PUSH1 0x20 DUP1 DUP5 ADD SWAP2 SWAP1 SWAP2 MSTORE PUSH1 0x34 DUP1 DUP5 ADD DUP7 SWAP1 MSTORE DUP5 MLOAD DUP1 DUP6 SUB SWAP1 SWAP2 ADD DUP2 MSTORE PUSH1 0x54 SWAP1 SWAP4 ADD DUP5 MSTORE DUP3 MLOAD SWAP3 DUP2 ADD SWAP3 SWAP1 SWAP3 KECCAK256 SWAP1 DUP7 ADD SWAP4 SWAP1 SWAP4 MSTORE PUSH1 0x0 DUP4 DUP2 MSTORE PUSH1 0xC SWAP1 SWAP2 MSTORE DUP2 DUP2 KECCAK256 DUP1 SLOAD PUSH1 0x1 PUSH1 0x1 PUSH1 0xA0 SHL SUB NOT AND PUSH1 0x1 PUSH1 0x1 PUSH1 0xA0 SHL SUB DUP9 AND OR SWAP1 SSTORE SWAP1 MLOAD DUP3 SWAP2 PUSH32 0xB5E6E01E79F91267DC17B4E6314D5D4D03593D2CEEE0FBB452B750BD70EA5AF9 SWAP2 LOG2 PUSH1 0x9 SLOAD PUSH1 0x1 PUSH1 0x1 PUSH1 0xA0 SHL SUB AND PUSH4 0x4000AEA0 DUP6 DUP5 PUSH2 0x1D91 DUP8 PUSH2 0x1F8F JUMP JUMPDEST PUSH1 0x40 MLOAD DUP5 PUSH4 0xFFFFFFFF AND PUSH1 0xE0 SHL DUP2 MSTORE PUSH1 0x4 ADD DUP1 DUP5 PUSH1 0x1 PUSH1 0x1 PUSH1 0xA0 SHL SUB AND DUP2 MSTORE PUSH1 0x20 ADD DUP4 DUP2 MSTORE PUSH1 0x20 ADD DUP1 PUSH1 0x20 ADD DUP3 DUP2 SUB DUP3 MSTORE DUP4 DUP2 DUP2 MLOAD DUP2 MSTORE PUSH1 0x20 ADD SWAP2 POP DUP1 MLOAD SWAP1 PUSH1 0x20 ADD SWAP1 DUP1 DUP4 DUP4 PUSH1 0x0 JUMPDEST DUP4 DUP2 LT ISZERO PUSH2 0x1DF2 JUMPI DUP2 DUP2 ADD MLOAD DUP4 DUP3 ADD MSTORE PUSH1 0x20 ADD PUSH2 0x1DDA JUMP JUMPDEST POP POP POP POP SWAP1 POP SWAP1 DUP2 ADD SWAP1 PUSH1 0x1F AND DUP1 ISZERO PUSH2 0x1E1F JUMPI DUP1 DUP3 SUB DUP1 MLOAD PUSH1 0x1 DUP4 PUSH1 0x20 SUB PUSH2 0x100 EXP SUB NOT AND DUP2 MSTORE PUSH1 0x20 ADD SWAP2 POP JUMPDEST POP SWAP5 POP POP POP POP POP PUSH1 0x20 PUSH1 0x40 MLOAD DUP1 DUP4 SUB DUP2 PUSH1 0x0 DUP8 DUP1 EXTCODESIZE ISZERO DUP1 ISZERO PUSH2 0x1E40 JUMPI PUSH1 0x0 DUP1 REVERT JUMPDEST POP GAS CALL ISZERO DUP1 ISZERO PUSH2 0x1E54 JUMPI RETURNDATASIZE PUSH1 0x0 DUP1 RETURNDATACOPY RETURNDATASIZE PUSH1 0x0 REVERT JUMPDEST POP POP POP POP PUSH1 0x40 MLOAD RETURNDATASIZE PUSH1 0x20 DUP2 LT ISZERO PUSH2 0x1E6A JUMPI PUSH1 0x0 DUP1 REVERT JUMPDEST POP MLOAD PUSH2 0x1EA7 JUMPI PUSH1 0x40 MLOAD PUSH3 0x461BCD PUSH1 0xE5 SHL DUP2 MSTORE PUSH1 0x4 ADD DUP1 DUP1 PUSH1 0x20 ADD DUP3 DUP2 SUB DUP3 MSTORE PUSH1 0x23 DUP2 MSTORE PUSH1 0x20 ADD DUP1 PUSH2 0x248C PUSH1 0x23 SWAP2 CODECOPY PUSH1 0x40 ADD SWAP2 POP POP PUSH1 0x40 MLOAD DUP1 SWAP2 SUB SWAP1 REVERT JUMPDEST PUSH1 0xB DUP1 SLOAD PUSH1 0x1 ADD SWAP1 SSTORE SWAP4 SWAP3 POP POP POP JUMP JUMPDEST PUSH1 0x0 DUP1 SLOAD PUSH1 0xFF AND PUSH1 0x1 DUP2 GT ISZERO PUSH2 0x1EC9 JUMPI INVALID JUMPDEST EQ PUSH2 0x1ED3 JUMPI PUSH1 0x0 DUP1 REVERT JUMPDEST PUSH2 0x1EDB PUSH2 0x244A JUMP JUMPDEST PUSH1 0x1 DUP1 DUP3 MSTORE PUSH1 0x0 DUP4 DUP2 MSTORE PUSH1 0x20 DUP3 SWAP1 MSTORE PUSH1 0x40 DUP2 KECCAK256 SWAP3 MLOAD DUP4 SLOAD PUSH1 0xFF NOT AND SWAP1 ISZERO ISZERO OR SWAP1 SWAP3 SSTORE PUSH1 0x2 DUP1 SLOAD DUP1 DUP4 ADD DUP3 SSTORE SWAP3 MSTORE PUSH32 0x405787FA12A823E0F2B7631CC41B3BA8828B3321CA811111FA75CD3AA3BB5ACE SWAP1 SWAP2 ADD SWAP2 SWAP1 SWAP2 SSTORE PUSH1 0x3 DUP1 SLOAD SWAP1 SWAP2 ADD SWAP1 SSTORE JUMP JUMPDEST PUSH2 0x1F43 PUSH2 0x2415 JUMP JUMPDEST PUSH2 0x1F53 DUP6 PUSH1 0x80 ADD MLOAD PUSH2 0x100 PUSH2 0x20B3 JUMP JUMPDEST POP POP SWAP2 DUP4 MSTORE PUSH1 0x1 PUSH1 0x1 PUSH1 0xA0 SHL SUB AND PUSH1 0x20 DUP4 ADD MSTORE PUSH1 0x1 PUSH1 0x1 PUSH1 0xE0 SHL SUB NOT AND PUSH1 0x40 DUP3 ADD MSTORE SWAP1 JUMP JUMPDEST PUSH2 0x1F85 DUP3 PUSH1 0x3 DUP4 MLOAD PUSH2 0x20ED JUMP JUMPDEST PUSH2 0x16C6 DUP3 DUP3 PUSH2 0x21C1 JUMP JUMPDEST PUSH1 0x60 PUSH4 0x40429946 PUSH1 0xE0 SHL PUSH1 0x0 DUP1 DUP5 PUSH1 0x0 ADD MLOAD DUP6 PUSH1 0x20 ADD MLOAD DUP7 PUSH1 0x40 ADD MLOAD DUP8 PUSH1 0x60 ADD MLOAD PUSH1 0x1 DUP10 PUSH1 0x80 ADD MLOAD PUSH1 0x0 ADD MLOAD PUSH1 0x40 MLOAD PUSH1 0x24 ADD DUP1 DUP10 PUSH1 0x1 PUSH1 0x1 PUSH1 0xA0 SHL SUB AND DUP2 MSTORE PUSH1 0x20 ADD DUP9 DUP2 MSTORE PUSH1 0x20 ADD DUP8 DUP2 MSTORE PUSH1 0x20 ADD DUP7 PUSH1 0x1 PUSH1 0x1 PUSH1 0xA0 SHL SUB AND DUP2 MSTORE PUSH1 0x20 ADD DUP6 PUSH1 0x1 PUSH1 0x1 PUSH1 0xE0 SHL SUB NOT AND DUP2 MSTORE PUSH1 0x20 ADD DUP5 DUP2 MSTORE PUSH1 0x20 ADD DUP4 DUP2 MSTORE PUSH1 0x20 ADD DUP1 PUSH1 0x20 ADD DUP3 DUP2 SUB DUP3 MSTORE DUP4 DUP2 DUP2 MLOAD DUP2 MSTORE PUSH1 0x20 ADD SWAP2 POP DUP1 MLOAD SWAP1 PUSH1 0x20 ADD SWAP1 DUP1 DUP4 DUP4 PUSH1 0x0 JUMPDEST DUP4 DUP2 LT ISZERO PUSH2 0x2041 JUMPI DUP2 DUP2 ADD MLOAD DUP4 DUP3 ADD MSTORE PUSH1 0x20 ADD PUSH2 0x2029 JUMP JUMPDEST POP POP POP POP SWAP1 POP SWAP1 DUP2 ADD SWAP1 PUSH1 0x1F AND DUP1 ISZERO PUSH2 0x206E JUMPI DUP1 DUP3 SUB DUP1 MLOAD PUSH1 0x1 DUP4 PUSH1 0x20 SUB PUSH2 0x100 EXP SUB NOT AND DUP2 MSTORE PUSH1 0x20 ADD SWAP2 POP JUMPDEST POP PUSH1 0x40 DUP1 MLOAD PUSH1 0x1F NOT DUP2 DUP5 SUB ADD DUP2 MSTORE SWAP2 SWAP1 MSTORE PUSH1 0x20 DUP2 ADD DUP1 MLOAD PUSH1 0x1 PUSH1 0x1 PUSH1 0xE0 SHL SUB AND PUSH1 0x1 PUSH1 0x1 PUSH1 0xE0 SHL SUB NOT SWAP1 SWAP14 AND SWAP13 SWAP1 SWAP13 OR SWAP1 SWAP12 MSTORE POP SWAP9 SWAP10 POP POP POP POP POP POP POP POP POP POP SWAP2 SWAP1 POP JUMP JUMPDEST PUSH2 0x20BB PUSH2 0x245C JUMP JUMPDEST PUSH1 0x20 DUP3 MOD ISZERO PUSH2 0x20D0 JUMPI PUSH1 0x20 DUP3 MOD PUSH1 0x20 SUB DUP3 ADD SWAP2 POP JUMPDEST POP PUSH1 0x20 DUP3 DUP2 ADD DUP3 SWAP1 MSTORE PUSH1 0x40 DUP1 MLOAD DUP1 DUP6 MSTORE PUSH1 0x0 DUP2 MSTORE SWAP1 SWAP3 ADD ADD SWAP1 MSTORE SWAP1 JUMP JUMPDEST PUSH1 0x17 DUP2 GT PUSH2 0x210E JUMPI PUSH2 0x2108 DUP4 PUSH1 0xE0 PUSH1 0x5 DUP6 SWAP1 SHL AND DUP4 OR PUSH2 0x21DB JUMP JUMPDEST POP PUSH2 0x16C6 JUMP JUMPDEST PUSH1 0xFF DUP2 GT PUSH2 0x2138 JUMPI PUSH2 0x212B DUP4 PUSH1 0x18 PUSH2 0x1FE0 PUSH1 0x5 DUP7 SWAP1 SHL AND OR PUSH2 0x21DB JUMP JUMPDEST POP PUSH2 0x2108 DUP4 DUP3 PUSH1 0x1 PUSH2 0x21F3 JUMP JUMPDEST PUSH2 0xFFFF DUP2 GT PUSH2 0x2163 JUMPI PUSH2 0x2156 DUP4 PUSH1 0x19 PUSH2 0x1FE0 PUSH1 0x5 DUP7 SWAP1 SHL AND OR PUSH2 0x21DB JUMP JUMPDEST POP PUSH2 0x2108 DUP4 DUP3 PUSH1 0x2 PUSH2 0x21F3 JUMP JUMPDEST PUSH4 0xFFFFFFFF DUP2 GT PUSH2 0x2190 JUMPI PUSH2 0x2183 DUP4 PUSH1 0x1A PUSH2 0x1FE0 PUSH1 0x5 DUP7 SWAP1 SHL AND OR PUSH2 0x21DB JUMP JUMPDEST POP PUSH2 0x2108 DUP4 DUP3 PUSH1 0x4 PUSH2 0x21F3 JUMP JUMPDEST PUSH8 0xFFFFFFFFFFFFFFFF DUP2 GT PUSH2 0x16C6 JUMPI PUSH2 0x21B4 DUP4 PUSH1 0x1B PUSH2 0x1FE0 PUSH1 0x5 DUP7 SWAP1 SHL AND OR PUSH2 0x21DB JUMP JUMPDEST POP PUSH2 0x7B0 DUP4 DUP3 PUSH1 0x8 PUSH2 0x21F3 JUMP JUMPDEST PUSH2 0x21C9 PUSH2 0x245C JUMP JUMPDEST PUSH2 0x1742 DUP4 DUP5 PUSH1 0x0 ADD MLOAD MLOAD DUP5 DUP6 MLOAD PUSH2 0x2214 JUMP JUMPDEST PUSH2 0x21E3 PUSH2 0x245C JUMP JUMPDEST PUSH2 0x1742 DUP4 DUP5 PUSH1 0x0 ADD MLOAD MLOAD DUP5 PUSH2 0x22C0 JUMP JUMPDEST PUSH2 0x21FB PUSH2 0x245C JUMP JUMPDEST PUSH2 0x220C DUP5 DUP6 PUSH1 0x0 ADD MLOAD MLOAD DUP6 DUP6 PUSH2 0x230B JUMP JUMPDEST SWAP5 SWAP4 POP POP POP POP JUMP JUMPDEST PUSH2 0x221C PUSH2 0x245C JUMP JUMPDEST DUP3 MLOAD DUP3 GT ISZERO PUSH2 0x222A JUMPI PUSH1 0x0 DUP1 REVERT JUMPDEST DUP5 PUSH1 0x20 ADD MLOAD DUP3 DUP6 ADD GT ISZERO PUSH2 0x2254 JUMPI PUSH2 0x2254 DUP6 PUSH2 0x224C DUP8 PUSH1 0x20 ADD MLOAD DUP8 DUP7 ADD PUSH2 0x2369 JUMP JUMPDEST PUSH1 0x2 MUL PUSH2 0x2380 JUMP JUMPDEST PUSH1 0x0 DUP1 DUP7 MLOAD DUP1 MLOAD DUP8 PUSH1 0x20 DUP4 ADD ADD SWAP4 POP DUP1 DUP9 DUP8 ADD GT ISZERO PUSH2 0x2273 JUMPI DUP8 DUP7 ADD DUP3 MSTORE JUMPDEST POP POP POP PUSH1 0x20 DUP5 ADD JUMPDEST PUSH1 0x20 DUP5 LT PUSH2 0x229A JUMPI DUP1 MLOAD DUP3 MSTORE PUSH1 0x1F NOT SWAP1 SWAP4 ADD SWAP3 PUSH1 0x20 SWAP2 DUP3 ADD SWAP2 ADD PUSH2 0x227B JUMP JUMPDEST MLOAD DUP2 MLOAD PUSH1 0x0 NOT PUSH1 0x20 DUP7 SWAP1 SUB PUSH2 0x100 EXP ADD SWAP1 DUP2 AND SWAP1 NOT SWAP2 SWAP1 SWAP2 AND OR SWAP1 MSTORE POP DUP4 SWAP5 SWAP4 POP POP POP POP JUMP JUMPDEST PUSH2 0x22C8 PUSH2 0x245C JUMP JUMPDEST DUP4 PUSH1 0x20 ADD MLOAD DUP4 LT PUSH2 0x22E4 JUMPI PUSH2 0x22E4 DUP5 DUP6 PUSH1 0x20 ADD MLOAD PUSH1 0x2 MUL PUSH2 0x2380 JUMP JUMPDEST DUP4 MLOAD DUP1 MLOAD PUSH1 0x20 DUP6 DUP4 ADD ADD DUP5 DUP2 MSTORE8 POP DUP1 DUP6 EQ ISZERO PUSH2 0x2301 JUMPI PUSH1 0x1 DUP2 ADD DUP3 MSTORE JUMPDEST POP SWAP4 SWAP5 SWAP4 POP POP POP POP JUMP JUMPDEST PUSH2 0x2313 PUSH2 0x245C JUMP JUMPDEST DUP5 PUSH1 0x20 ADD MLOAD DUP5 DUP4 ADD GT ISZERO PUSH2 0x2330 JUMPI PUSH2 0x2330 DUP6 DUP6 DUP5 ADD PUSH1 0x2 MUL PUSH2 0x2380 JUMP JUMPDEST PUSH1 0x0 PUSH1 0x1 DUP4 PUSH2 0x100 EXP SUB SWAP1 POP DUP6 MLOAD DUP4 DUP7 DUP3 ADD ADD DUP6 DUP4 NOT DUP3 MLOAD AND OR DUP2 MSTORE POP DUP1 MLOAD DUP5 DUP8 ADD GT ISZERO PUSH2 0x235E JUMPI DUP4 DUP7 ADD DUP2 MSTORE JUMPDEST POP SWAP5 SWAP6 SWAP5 POP POP POP POP POP JUMP JUMPDEST PUSH1 0x0 DUP2 DUP4 GT ISZERO PUSH2 0x237A JUMPI POP DUP2 PUSH2 0x1745 JUMP JUMPDEST POP SWAP2 SWAP1 POP JUMP JUMPDEST DUP2 MLOAD PUSH2 0x238C DUP4 DUP4 PUSH2 0x20B3 JUMP JUMPDEST POP PUSH2 0x7B0 DUP4 DUP3 PUSH2 0x21C1 JUMP JUMPDEST DUP3 DUP1 SLOAD PUSH1 0x1 DUP2 PUSH1 0x1 AND ISZERO PUSH2 0x100 MUL SUB AND PUSH1 0x2 SWAP1 DIV SWAP1 PUSH1 0x0 MSTORE PUSH1 0x20 PUSH1 0x0 KECCAK256 SWAP1 PUSH1 0x1F ADD PUSH1 0x20 SWAP1 DIV DUP2 ADD SWAP3 DUP3 PUSH1 0x1F LT PUSH2 0x23D8 JUMPI DUP1 MLOAD PUSH1 0xFF NOT AND DUP4 DUP1 ADD OR DUP6 SSTORE PUSH2 0x2405 JUMP JUMPDEST DUP3 DUP1 ADD PUSH1 0x1 ADD DUP6 SSTORE DUP3 ISZERO PUSH2 0x2405 JUMPI SWAP2 DUP3 ADD JUMPDEST DUP3 DUP2 GT ISZERO PUSH2 0x2405 JUMPI DUP3 MLOAD DUP3 SSTORE SWAP2 PUSH1 0x20 ADD SWAP2 SWAP1 PUSH1 0x1 ADD SWAP1 PUSH2 0x23EA JUMP JUMPDEST POP PUSH2 0x2411 SWAP3 SWAP2 POP PUSH2 0x2476 JUMP JUMPDEST POP SWAP1 JUMP JUMPDEST PUSH1 0x40 DUP1 MLOAD PUSH1 0xA0 DUP2 ADD DUP3 MSTORE PUSH1 0x0 DUP1 DUP3 MSTORE PUSH1 0x20 DUP3 ADD DUP2 SWAP1 MSTORE SWAP2 DUP2 ADD DUP3 SWAP1 MSTORE PUSH1 0x60 DUP2 ADD SWAP2 SWAP1 SWAP2 MSTORE PUSH1 0x80 DUP2 ADD PUSH2 0x2445 PUSH2 0x245C JUMP JUMPDEST SWAP1 MSTORE SWAP1 JUMP JUMPDEST PUSH1 0x40 DUP1 MLOAD PUSH1 0x20 DUP2 ADD SWAP1 SWAP2 MSTORE PUSH1 0x0 DUP2 MSTORE SWAP1 JUMP JUMPDEST PUSH1 0x40 MLOAD DUP1 PUSH1 0x40 ADD PUSH1 0x40 MSTORE DUP1 PUSH1 0x60 DUP2 MSTORE PUSH1 0x20 ADD PUSH1 0x0 DUP2 MSTORE POP SWAP1 JUMP JUMPDEST JUMPDEST DUP1 DUP3 GT ISZERO PUSH2 0x2411 JUMPI PUSH1 0x0 DUP2 SSTORE PUSH1 0x1 ADD PUSH2 0x2477 JUMP INVALID PUSH22 0x6E61626C6520746F207472616E73666572416E644361 PUSH13 0x6C20746F206F7261636C656874 PUSH21 0x703A2F2F6170692E6F70656E776561746865726D61 PUSH17 0x2E6F72672F646174612F322E352F776561 PUSH21 0x6865723F69643D536166654D6174683A206D756C74 PUSH10 0x706C69636174696F6E20 PUSH16 0x766572666C6F77536F75726365206D75 PUSH20 0x7420626520746865206F7261636C65206F662074 PUSH9 0x652072657175657374 LOG2 PUSH5 0x6970667358 0x22 SLT KECCAK256 DUP8 0xFC BLOCKHASH 0xA6 0xCB EXTCODECOPY 0xDA BALANCE STOP SWAP8 0xE SELFBALANCE ISZERO SDIV 0xC9 DUP11 SELFDESTRUCT JUMPI INVALID 0xFB ADD 0xD3 DIFFICULTY PUSH24 0xFA457F37613604F064736F6C634300060C00330000000000 ",
  "sha1": "9bb4aa842f95536878c14926a1b4d2ef63e702ee",
  "source": "// SPDX-License-Identifier: UNLICENSED\npragma solidity ^0.6.0;\n\nimport \"../../CappedMinigame.sol\";\nimport \"alphachainio/chainlink-contracts@1.1.3/contracts/src/v0.6/ChainlinkClient.sol\";\nimport \"OpenZeppelin/openzeppelin-contracts@3.4.0/contracts/token/ERC1155/ERC1155Receiver.sol\";\nimport \"OpenZeppelin/openzeppelin-contracts@3.4.0/contracts/math/SafeMath.sol\";\nimport \"./WeatherWarsFactory.sol\";\n\ncontract WeatherWars is CappedMinigame, ChainlinkClient, ERC1155Receiver {\n    using SafeMath for uint8;\n\n    uint256 private constant MAX_PLAYERS = 2;\n\n    address private _linkTokenAddress;\n\n    uint256 private _fee;\n\n    string public city;\n\n    address private _oracle;\n\n    string public cityWeather;\n\n    // The amount of ether required to join the game\n    uint256 public buyinAmount;\n\n    // The mapping from hero id to the player's balance\n    mapping(address => uint256) public balances;\n\n    // The job ID to make a GET call and retrieve a bytes32 result\n    bytes32 private _jobId;\n\n    // API key to make call to get weather\n    string private _apiKey;\n\n    WeatherWarsFactory private _weatherWarsFactory;\n\n    address public initiator;\n\n    address public opponent;\n\n    uint256 public initiatorHeroId;\n\n    uint256 public opponentHeroId;\n\n    address public winner;\n\n    mapping(address => uint256) public playerHero;\n\n    bool public isDuelAccepted;\n\n    constructor(\n        address oracle,\n        address linkTokenAddress,\n        uint256 fee,\n        string memory _gameName,\n        address _cryptoChampionsContractAddress,\n        uint256 _buyinAmount,\n        string memory _city,\n        bytes32 jobId,\n        string memory apiKey,\n        address weatherWarsFactoryAddress\n    ) public CappedMinigame(gameName, MAX_PLAYERS, _cryptoChampionsContractAddress) {\n        // setPublicChainlinkToken();\n        _linkTokenAddress = linkTokenAddress;\n        _fee = fee;\n        _oracle = oracle;\n        city = _city;\n        buyinAmount = _buyinAmount;\n        _jobId = jobId;\n        _apiKey = apiKey;\n        _weatherWarsFactory = WeatherWarsFactory(weatherWarsFactoryAddress);\n    }\n\n    function setPlayerInformation(\n        address duelInitiator,\n        uint256 duelInitiatorHeroId,\n        address duelOpponent,\n        uint256 duelOpponentHeroId\n    ) external {\n        initiator = duelInitiator;\n        opponent = duelOpponent;\n        playerHero[initiator] = duelInitiatorHeroId;\n        playerHero[opponent] = duelOpponentHeroId;\n    }\n\n    function play() internal override {\n        Chainlink.Request memory request = buildChainlinkRequest(_jobId, address(this), this.fulfill.selector);\n\n        // Build URL\n        string memory reqUrlWithCity = concatenate(\"http://api.openweathermap.org/data/2.5/weather?id=\", city);\n        reqUrlWithCity = concatenate(reqUrlWithCity, \"&appid=\");\n        reqUrlWithCity = concatenate(reqUrlWithCity, _apiKey);\n\n        // Send Request\n        request.add(\"get\", reqUrlWithCity);\n        request.add(\"path\", \"weather.0.main\");\n        sendChainlinkRequestTo(_oracle, request, _fee);\n    }\n\n    // TODO:  Move to it's own library\n    function concatenate(string memory a, string memory b) internal pure returns (string memory) {\n        return string(abi.encodePacked(a, b));\n    }\n\n    function fulfill(bytes32 _requestId, bytes32 _weather) public recordChainlinkFulfillment(_requestId) {\n        cityWeather = string(abi.encodePacked(_weather));\n    }\n\n    function joinGame(uint256 heroId) public override {\n        require(heroId == opponentHeroId || heroId == initiatorHeroId); // dev: Invalid hero id\n        require(msg.sender == address(_weatherWarsFactory) || msg.sender == initiator || msg.sender == opponent); // dev: Address not part of the game\n        super.joinGame(heroId);\n    }\n\n    function leaveGame(uint256 heroId) public override {\n        require(msg.sender == initiator || msg.sender == opponent); // dev: Address not part of the game\n        require(currentPhase == MinigamePhase.OPEN); // dev: Game already closed\n        require(bytes(cityWeather).length == 0); // dev: City weather data already fetched\n\n        super.leaveGame(heroId);\n        uint256 addressBalance = balances[msg.sender];\n        balances[msg.sender] = 0;\n        cryptoChampions.transferInGameTokens(msg.sender, addressBalance);\n    }\n\n    function determineWinner() external {\n        require(super.getNumPlayers() == MAX_PLAYERS); // dev: Weather Wars can only have two players\n        require(balances[msg.sender] > 0); // dev: Only a player who has bought in may determine a winner\n        require(currentPhase == MinigamePhase.CLOSED); // dev: Game not yet over\n        require(bytes(cityWeather).length != 0); // dev: City weather data has not been fetched yet\n        require(isDuelAccepted); // dev:  Opponent has not accepted the duel\n\n        uint256 heroOne = heroIds[0];\n        uint256 heroTwo = heroIds[1];\n        uint256 heroOneScore = getHeroScore(heroOne);\n        uint256 heroTwoScore = getHeroScore(heroTwo);\n\n        // Handle Draw\n        if (heroOneScore == heroTwoScore) {\n            address playerOne = cryptoChampions.getHeroOwner(heroOne);\n            address playerTwo = cryptoChampions.getHeroOwner(heroTwo);\n            uint256 balancePlayerOne = balances[playerOne];\n            uint256 balancePlayerTwo = balances[playerTwo];\n            balances[playerOne] = 0;\n            balances[playerTwo] = 0;\n            cryptoChampions.transferInGameTokens(playerOne, balancePlayerOne);\n            cryptoChampions.transferInGameTokens(playerTwo, balancePlayerTwo);\n            return;\n        }\n\n        // Handle winner and loser\n        uint256 winnerHeroId;\n        uint256 loserHeroId;\n        if (heroOneScore < heroTwoScore) {\n            winnerHeroId = heroTwo;\n            loserHeroId = heroOne;\n        } else if (heroOneScore > heroTwoScore) {\n            winnerHeroId = heroOne;\n            loserHeroId = heroTwo;\n        }\n        address winnerAddress = cryptoChampions.getHeroOwner(winnerHeroId);\n        address loserAddress = cryptoChampions.getHeroOwner(loserHeroId);\n        uint256 winnerBalance = balances[winnerAddress];\n        uint256 loserBalance = balances[loserAddress];\n        balances[winnerAddress] = 0;\n        balances[loserAddress] = 0;\n        cryptoChampions.transferInGameTokens(winnerAddress, winnerBalance + loserBalance);\n        winner = winnerAddress;\n        setPhase(MinigamePhase.CLOSED);\n    }\n\n    function getHeroScore(uint256 heroId) internal returns (uint256) {\n        (, , uint8 hometown, uint8 weather) = cryptoChampions.getHeroLore(heroId);\n        uint256 score = 1;\n        if (hometown == _weatherWarsFactory.cities(city)) {\n            score = score.mul(11).div(10); // Multiply by 1.1\n        }\n        if (weather == _weatherWarsFactory.weatherMapping(cityWeather)) {\n            score = score.mul(11).div(10); // Multiply by 1.1\n        }\n        uint256 classStatScore = getClassStatScore(heroId);\n        uint256 weightedClassStatScore = classStatScore.mul(5).div(4); // Multiple by 1.25\n        uint256 highestNonClassStat = getHighestNonClassStat(heroId);\n        uint256 adjustedStatScore = weightedClassStatScore.add(highestNonClassStat);\n        score = score.mul(adjustedStatScore);\n        return score;\n    }\n\n    function getHighestNonClassStat(uint256 heroId) private returns (uint256) {\n        (uint8 traitOne, uint8 traitTwo, uint8 skillOne, uint8 skillTwo) = cryptoChampions.getHeroTraitsSkills(heroId);\n        uint256 highest = traitOne;\n        if (traitTwo > highest) {\n            highest = traitTwo;\n        }\n        if (skillOne > highest) {\n            highest = skillOne;\n        }\n        if (skillTwo > highest) {\n            highest = skillTwo;\n        }\n        return highest;\n    }\n\n    function getClassStatScore(uint256 heroId) private returns (uint256) {\n        (uint8 strength, uint8 dexterity, uint8 constitution, uint8 intelligence, uint8 wisdom, uint8 charisma) =\n            cryptoChampions.getHeroStats(heroId);\n        (, , uint256 classId, ) = cryptoChampions.getHeroVisuals(heroId);\n        // Warrior\n        if (classId == 0) {\n            return strength;\n        }\n        // Mage\n        if (classId == 1) {\n            return intelligence;\n        }\n        // Druid\n        if (classId == 2) {\n            return wisdom;\n        }\n        // Paladin\n        if (classId == 3) {\n            return constitution;\n        }\n        // Bard\n        if (classId == 4) {\n            return charisma;\n        }\n        if (classId == 5) {\n            return intelligence;\n        }\n        if (classId == 6) {\n            return wisdom;\n        }\n        // Rogue\n        return dexterity;\n    }\n\n    function onERC1155Received(\n        address operator,\n        address from,\n        uint256 id,\n        uint256 value,\n        bytes calldata data\n    ) external override returns (bytes4) {\n        require(value == buyinAmount); // dev: Must send the exact buyin amount\n        if (from == opponent) {\n            isDuelAccepted = true;\n        }\n        balances[from] = value;\n        return this.onERC1155Received.selector;\n    }\n\n    function onERC1155BatchReceived(\n        address operator,\n        address from,\n        uint256[] calldata ids,\n        uint256[] calldata values,\n        bytes calldata data\n    ) external override returns (bytes4) {\n        return this.onERC1155BatchReceived.selector;\n    }\n\n    function getMetaInformation()\n        external\n        view\n        returns (\n            address,\n            address,\n            uint256,\n            uint256,\n            MinigamePhase,\n            address,\n            bool,\n            uint256\n        )\n    {\n        return (\n            initiator,\n            opponent,\n            playerHero[initiator],\n            playerHero[opponent],\n            currentPhase,\n            winner,\n            isDuelAccepted,\n            buyinAmount\n        );\n    }\n}\n",
  "sourcePath": "contracts/minigames/games/weatherWars/WeatherWars.sol",
  "type": "contract"
}