{"bytecode":"60076103c0818152663631373333333160c81b6103e05260c0908152610400828152660d0d8dcc4d8d4d60ca1b6104205260e0526104408281526606870706e6672760cb1b610460526101005261048082815266068626c686266760cb1b6104a052610120526104c0828152663531323835383160c81b6104e05261014052610500828152663533393138313160c81b6105205261016052610540828152663533393139353960c81b6105605261018052610580828152660d4e0c0e4e0d0d60ca1b6105a0526101a0526105c0828152663335333035393760c81b6105e0526101c052610600828152663334333539303760c81b610620526101e05260066106408181526503939333830360d41b61066052610200526106808181526503336303633360d41b6106a052610220526106c0838152663236343337343360c81b6106e05261024052610700908152650d4c8d0e0e4d60d21b610720526102605261074082815266064726a60626a760cb1b6107605261028052610780828152663239363838313560c81b6107a0526102a0526107c0828152660c8dcd4e4dce4d60ca1b6107e0526102c05261080082815266191b1b999b991960c91b610820526102e052610840828152663138353031343760c81b6108605261030052610880828152663132373533333960c81b6108a052610320526108c082815266189b9c9b19199b60c91b6108e05261034052610900828152663138333538343760c81b610920526103605261094082815266189c1c18191a9960c91b61096052610380526109c0604052610980918252663231353831373760c81b6109a0526103a0919091526200027190600490601862000409565b503480156200027f57600080fd5b5060405162000dc538038062000dc5833981810160405260e0811015620002a557600080fd5b815160208301516040808501516060860151608087015160a088018051945196989597939692959194929382019284640100000000821115620002e757600080fd5b908301906020820185811115620002fd57600080fd5b82516401000000008111828201881017156200031857600080fd5b82525081516020918201929091019080838360005b83811015620003475781810151838201526020016200032d565b50505050905090810190601f168015620003755780820380516001836020036101000a031916815260200191505b506040526020908101516001600160601b031960608a811b821660a05289901b1660805260028790556003869055601d80546001600160a01b0319166001600160a01b038a161790558451909350620003d59250601f9185019062000460565b50601e80546001600160a01b0319166001600160a01b03989098169790971790965550505060209290925550620005649050565b82601881019282156200044e579160200282015b828111156200044e57825180516200043d91849160209091019062000460565b50916020019190600101906200041d565b506200045c929150620004e1565b5090565b828054600181600116156101000203166002900490600052602060002090601f016020900481019282601f10620004a357805160ff1916838001178555620004d3565b82800160010185558215620004d3579182015b82811115620004d3578251825591602001919060010190620004b6565b506200045c92915062000502565b808211156200045c576000620004f8828262000519565b50600101620004e1565b5b808211156200045c576000815560010162000503565b50805460018160011615610100020316600290046000825580601f1062000541575062000561565b601f01602090049060005260206000209081019062000561919062000502565b50565b60805160601c60a05160601c61082d62000598600039806102b5528061040e5250806103df52806105bb525061082d6000f3fe608060405234801561001057600080fd5b50600436106100935760003560e01c80639e317f12116100665780639e317f121461018f578063a0745f14146101ac578063c2939d9714610229578063dc6cfe1014610231578063e1c7392a1461025a57610093565b8063117a5b90146100985780631308b581146100d15780637dc0d1d01461016257806394985ddd1461016a575b600080fd5b6100b5600480360360208110156100ae57600080fd5b5035610262565b604080516001600160a01b039092168252519081900360200190f35b610150600480360360608110156100e757600080fd5b81019060208101813564010000000081111561010257600080fd5b82018360208201111561011457600080fd5b8035906020019184600183028401116401000000008311171561013657600080fd5b9193509150803590602001356001600160a01b0316610289565b60408051918252519081900360200190f35b6100b561029b565b61018d6004803603604081101561018057600080fd5b50803590602001356102aa565b005b610150600480360360208110156101a557600080fd5b5035610335565b6101b4610347565b6040805160208082528351818301528351919283929083019185019080838360005b838110156101ee5781810151838201526020016101d6565b50505050905090810190601f16801561021b5780820380516001836020036101000a031916815260200191505b509250505060405180910390f35b6101506103d5565b6101506004803603606081101561024757600080fd5b50803590602081013590604001356103db565b61018d61058e565b6001818154811061026f57fe5b6000918252602090912001546001600160a01b0316905081565b6000610293610598565b949350505050565b601e546001600160a01b031681565b336001600160a01b037f00000000000000000000000000000000000000000000000000000000000000001614610327576040805162461bcd60e51b815260206004820152601f60248201527f4f6e6c7920565246436f6f7264696e61746f722063616e2066756c66696c6c00604482015290519081900360640190fd5b610331828261064c565b5050565b60006020819052908152604090205481565b601c805460408051602060026001851615610100026000190190941693909304601f810184900484028201840190925281815292918301828280156103cd5780601f106103a2576101008083540402835291602001916103cd565b820191906000526020600020905b8154815290600101906020018083116103b057829003601f168201915b505050505081565b60205481565b60007f00000000000000000000000000000000000000000000000000000000000000006001600160a01b0316634000aea07f000000000000000000000000000000000000000000000000000000000000000085878660405160200180838152602001828152602001925050506040516020818303038152906040526040518463ffffffff1660e01b815260040180846001600160a01b0316815260200183815260200180602001828103825283818151815260200191508051906020019080838360005b838110156104b757818101518382015260200161049f565b50505050905090810190601f1680156104e45780820380516001836020036101000a031916815260200191505b50945050505050602060405180830381600087803b15801561050557600080fd5b505af1158015610519573d6000803e3d6000fd5b505050506040513d602081101561052f57600080fd5b505060008481526020819052604081205461054f90869085903090610689565b60008681526020819052604090205490915061056c9060016106d0565b6000868152602081905260409020556105858582610731565b95945050505050565b610596610598565b565b600254604080516370a0823160e01b815230600482015290516001600160a01b037f000000000000000000000000000000000000000000000000000000000000000016916370a08231916024808301926020929190829003018186803b15801561060157600080fd5b505afa158015610615573d6000803e3d6000fd5b505050506040513d602081101561062b57600080fd5b5051101561063857600080fd5b6106496003546002546134fb6103db565b50565b60006018820690506004816018811061066157fe5b01805461068391601c916002600019610100600184161502019091160461075d565b50505050565b60408051602080820196909652808201949094526001600160a01b039290921660608401526080808401919091528151808403909101815260a09092019052805191012090565b60008282018381101561072a576040805162461bcd60e51b815260206004820152601b60248201527f536166654d6174683a206164646974696f6e206f766572666c6f770000000000604482015290519081900360640190fd5b9392505050565b604080516020808201949094528082019290925280518083038201815260609092019052805191012090565b828054600181600116156101000203166002900490600052602060002090601f016020900481019282601f1061079657805485556107d2565b828001600101855582156107d257600052602060002091601f016020900482015b828111156107d25782548255916001019190600101906107b7565b506107de9291506107e2565b5090565b5b808211156107de57600081556001016107e356fea26469706673582212205a6ccaa55f89c956636da5973ff0cc5fc19dad6a04e64061bb75ea849ea9bf1164736f6c634300060c0033","bytecodeSha1":"c7d668fce0f82cfe31094c32277ee33d7b36748d","type":"contract","abi":[{"inputs":[{"internalType":"address","name":"oracleAddress","type":"address"},{"internalType":"address","name":"vrfCoordinateAdddress","type":"address"},{"internalType":"address","name":"linkTokenAddress","type":"address"},{"internalType":"uint256","name":"feeInLink","type":"uint256"},{"internalType":"bytes32","name":"keyHash","type":"bytes32"},{"internalType":"string","name":"weatherApiKey","type":"string"},{"internalType":"bytes32","name":"oracleJobId","type":"bytes32"}],"stateMutability":"nonpayable","type":"constructor","name":"constructor"},{"anonymous":false,"inputs":[{"indexed":false,"internalType":"string","name":"city","type":"string"}],"name":"CreatingGame","type":"event"},{"anonymous":false,"inputs":[{"indexed":false,"internalType":"string","name":"gameName","type":"string"},{"indexed":false,"internalType":"string","name":"city","type":"string"}],"name":"GameCreated","type":"event"},{"inputs":[],"name":"_nextCity","outputs":[{"internalType":"string","name":"","type":"string"}],"stateMutability":"view","type":"function"},{"inputs":[{"internalType":"string","name":"_gameName","type":"string"},{"internalType":"uint256","name":"_buyinAmount","type":"uint256"},{"internalType":"address","name":"cryptoChampionsContractAddress","type":"address"}],"name":"createWeatherWars","outputs":[{"internalType":"bytes32","name":"","type":"bytes32"}],"stateMutability":"nonpayable","type":"function"},{"inputs":[{"internalType":"uint256","name":"","type":"uint256"}],"name":"games","outputs":[{"internalType":"contract WeatherWars","name":"","type":"address"}],"stateMutability":"view","type":"function"},{"inputs":[],"name":"init","outputs":[],"stateMutability":"nonpayable","type":"function"},{"inputs":[],"name":"jobId","outputs":[{"internalType":"bytes32","name":"","type":"bytes32"}],"stateMutability":"view","type":"function"},{"inputs":[{"internalType":"bytes32","name":"","type":"bytes32"}],"name":"nonces","outputs":[{"internalType":"uint256","name":"","type":"uint256"}],"stateMutability":"view","type":"function"},{"inputs":[],"name":"oracle","outputs":[{"internalType":"address","name":"","type":"address"}],"stateMutability":"view","type":"function"},{"inputs":[{"internalType":"bytes32","name":"requestId","type":"bytes32"},{"internalType":"uint256","name":"randomness","type":"uint256"}],"name":"rawFulfillRandomness","outputs":[],"stateMutability":"nonpayable","type":"function"},{"inputs":[{"internalType":"bytes32","name":"_keyHash","type":"bytes32"},{"internalType":"uint256","name":"_fee","type":"uint256"},{"internalType":"uint256","name":"_seed","type":"uint256"}],"name":"requestRandomness","outputs":[{"internalType":"bytes32","name":"requestId","type":"bytes32"}],"stateMutability":"nonpayable","type":"function"}],"compiler":{"version":"0.6.12+commit.27d51765","evm_version":"istanbul","optimizer":{"enabled":true,"runs":200}},"contractName":"WeatherWarsFactory","language":"Solidity","natspec":{"methods":{"requestRandomness(bytes32,uint256,uint256)":{"notice":"requestRandomness initiates a request for VRF output given _seed","details":"See \"SECURITY CONSIDERATIONS\" above for more information on _seed.The fulfillRandomness method receives the output, once it's providedby the Oracle, and verified by the vrfCoordinator.The _keyHash must already be registered with the VRFCoordinator, andthe _fee must exceed the fee specified during registration of the_keyHash.The returned requestId can be used to distinguish responses to *concurrent requests. It is passed as the first argument tofulfillRandomness.","params":{"_fee":"The amount of LINK to send with the request","_keyHash":"ID of public key against which randomness is generated","_seed":"seed mixed into the input of the VRF"},"returns":{"requestId":"unique ID for this request"}}},"kind":"dev","version":1},"opcodes":"PUSH1 0x80 PUSH1 0x40 MSTORE CALLVALUE DUP1 ISZERO PUSH2 0x10 JUMPI PUSH1 0x0 DUP1 REVERT JUMPDEST POP PUSH1 0x4 CALLDATASIZE LT PUSH2 0x93 JUMPI PUSH1 0x0 CALLDATALOAD PUSH1 0xE0 SHR DUP1 PUSH4 0x9E317F12 GT PUSH2 0x66 JUMPI DUP1 PUSH4 0x9E317F12 EQ PUSH2 0x18F JUMPI DUP1 PUSH4 0xA0745F14 EQ PUSH2 0x1AC JUMPI DUP1 PUSH4 0xC2939D97 EQ PUSH2 0x229 JUMPI DUP1 PUSH4 0xDC6CFE10 EQ PUSH2 0x231 JUMPI DUP1 PUSH4 0xE1C7392A EQ PUSH2 0x25A JUMPI PUSH2 0x93 JUMP JUMPDEST DUP1 PUSH4 0x117A5B90 EQ PUSH2 0x98 JUMPI DUP1 PUSH4 0x1308B581 EQ PUSH2 0xD1 JUMPI DUP1 PUSH4 0x7DC0D1D0 EQ PUSH2 0x162 JUMPI DUP1 PUSH4 0x94985DDD EQ PUSH2 0x16A JUMPI JUMPDEST PUSH1 0x0 DUP1 REVERT JUMPDEST PUSH2 0xB5 PUSH1 0x4 DUP1 CALLDATASIZE SUB PUSH1 0x20 DUP2 LT ISZERO PUSH2 0xAE JUMPI PUSH1 0x0 DUP1 REVERT JUMPDEST POP CALLDATALOAD PUSH2 0x262 JUMP JUMPDEST PUSH1 0x40 DUP1 MLOAD PUSH1 0x1 PUSH1 0x1 PUSH1 0xA0 SHL SUB SWAP1 SWAP3 AND DUP3 MSTORE MLOAD SWAP1 DUP2 SWAP1 SUB PUSH1 0x20 ADD SWAP1 RETURN JUMPDEST PUSH2 0x150 PUSH1 0x4 DUP1 CALLDATASIZE SUB PUSH1 0x60 DUP2 LT ISZERO PUSH2 0xE7 JUMPI PUSH1 0x0 DUP1 REVERT JUMPDEST DUP2 ADD SWAP1 PUSH1 0x20 DUP2 ADD DUP2 CALLDATALOAD PUSH5 0x100000000 DUP2 GT ISZERO PUSH2 0x102 JUMPI PUSH1 0x0 DUP1 REVERT JUMPDEST DUP3 ADD DUP4 PUSH1 0x20 DUP3 ADD GT ISZERO PUSH2 0x114 JUMPI PUSH1 0x0 DUP1 REVERT JUMPDEST DUP1 CALLDATALOAD SWAP1 PUSH1 0x20 ADD SWAP2 DUP5 PUSH1 0x1 DUP4 MUL DUP5 ADD GT PUSH5 0x100000000 DUP4 GT OR ISZERO PUSH2 0x136 JUMPI PUSH1 0x0 DUP1 REVERT JUMPDEST SWAP2 SWAP4 POP SWAP2 POP DUP1 CALLDATALOAD SWAP1 PUSH1 0x20 ADD CALLDATALOAD PUSH1 0x1 PUSH1 0x1 PUSH1 0xA0 SHL SUB AND PUSH2 0x289 JUMP JUMPDEST PUSH1 0x40 DUP1 MLOAD SWAP2 DUP3 MSTORE MLOAD SWAP1 DUP2 SWAP1 SUB PUSH1 0x20 ADD SWAP1 RETURN JUMPDEST PUSH2 0xB5 PUSH2 0x29B JUMP JUMPDEST PUSH2 0x18D PUSH1 0x4 DUP1 CALLDATASIZE SUB PUSH1 0x40 DUP2 LT ISZERO PUSH2 0x180 JUMPI PUSH1 0x0 DUP1 REVERT JUMPDEST POP DUP1 CALLDATALOAD SWAP1 PUSH1 0x20 ADD CALLDATALOAD PUSH2 0x2AA JUMP JUMPDEST STOP JUMPDEST PUSH2 0x150 PUSH1 0x4 DUP1 CALLDATASIZE SUB PUSH1 0x20 DUP2 LT ISZERO PUSH2 0x1A5 JUMPI PUSH1 0x0 DUP1 REVERT JUMPDEST POP CALLDATALOAD PUSH2 0x335 JUMP JUMPDEST PUSH2 0x1B4 PUSH2 0x347 JUMP JUMPDEST PUSH1 0x40 DUP1 MLOAD PUSH1 0x20 DUP1 DUP3 MSTORE DUP4 MLOAD DUP2 DUP4 ADD MSTORE DUP4 MLOAD SWAP2 SWAP3 DUP4 SWAP3 SWAP1 DUP4 ADD SWAP2 DUP6 ADD SWAP1 DUP1 DUP4 DUP4 PUSH1 0x0 JUMPDEST DUP4 DUP2 LT ISZERO PUSH2 0x1EE JUMPI DUP2 DUP2 ADD MLOAD DUP4 DUP3 ADD MSTORE PUSH1 0x20 ADD PUSH2 0x1D6 JUMP JUMPDEST POP POP POP POP SWAP1 POP SWAP1 DUP2 ADD SWAP1 PUSH1 0x1F AND DUP1 ISZERO PUSH2 0x21B JUMPI DUP1 DUP3 SUB DUP1 MLOAD PUSH1 0x1 DUP4 PUSH1 0x20 SUB PUSH2 0x100 EXP SUB NOT AND DUP2 MSTORE PUSH1 0x20 ADD SWAP2 POP JUMPDEST POP SWAP3 POP POP POP PUSH1 0x40 MLOAD DUP1 SWAP2 SUB SWAP1 RETURN JUMPDEST PUSH2 0x150 PUSH2 0x3D5 JUMP JUMPDEST PUSH2 0x150 PUSH1 0x4 DUP1 CALLDATASIZE SUB PUSH1 0x60 DUP2 LT ISZERO PUSH2 0x247 JUMPI PUSH1 0x0 DUP1 REVERT JUMPDEST POP DUP1 CALLDATALOAD SWAP1 PUSH1 0x20 DUP2 ADD CALLDATALOAD SWAP1 PUSH1 0x40 ADD CALLDATALOAD PUSH2 0x3DB JUMP JUMPDEST PUSH2 0x18D PUSH2 0x58E JUMP JUMPDEST PUSH1 0x1 DUP2 DUP2 SLOAD DUP2 LT PUSH2 0x26F JUMPI INVALID JUMPDEST PUSH1 0x0 SWAP2 DUP3 MSTORE PUSH1 0x20 SWAP1 SWAP2 KECCAK256 ADD SLOAD PUSH1 0x1 PUSH1 0x1 PUSH1 0xA0 SHL SUB AND SWAP1 POP DUP2 JUMP JUMPDEST PUSH1 0x0 PUSH2 0x293 PUSH2 0x598 JUMP JUMPDEST SWAP5 SWAP4 POP POP POP POP JUMP JUMPDEST PUSH1 0x1E SLOAD PUSH1 0x1 PUSH1 0x1 PUSH1 0xA0 SHL SUB AND DUP2 JUMP JUMPDEST CALLER PUSH1 0x1 PUSH1 0x1 PUSH1 0xA0 SHL SUB PUSH32 0x0 AND EQ PUSH2 0x327 JUMPI PUSH1 0x40 DUP1 MLOAD PUSH3 0x461BCD PUSH1 0xE5 SHL DUP2 MSTORE PUSH1 0x20 PUSH1 0x4 DUP3 ADD MSTORE PUSH1 0x1F PUSH1 0x24 DUP3 ADD MSTORE PUSH32 0x4F6E6C7920565246436F6F7264696E61746F722063616E2066756C66696C6C00 PUSH1 0x44 DUP3 ADD MSTORE SWAP1 MLOAD SWAP1 DUP2 SWAP1 SUB PUSH1 0x64 ADD SWAP1 REVERT JUMPDEST PUSH2 0x331 DUP3 DUP3 PUSH2 0x64C JUMP JUMPDEST POP POP JUMP JUMPDEST PUSH1 0x0 PUSH1 0x20 DUP2 SWAP1 MSTORE SWAP1 DUP2 MSTORE PUSH1 0x40 SWAP1 KECCAK256 SLOAD DUP2 JUMP JUMPDEST PUSH1 0x1C DUP1 SLOAD PUSH1 0x40 DUP1 MLOAD PUSH1 0x20 PUSH1 0x2 PUSH1 0x1 DUP6 AND ISZERO PUSH2 0x100 MUL PUSH1 0x0 NOT ADD SWAP1 SWAP5 AND SWAP4 SWAP1 SWAP4 DIV PUSH1 0x1F DUP2 ADD DUP5 SWAP1 DIV DUP5 MUL DUP3 ADD DUP5 ADD SWAP1 SWAP3 MSTORE DUP2 DUP2 MSTORE SWAP3 SWAP2 DUP4 ADD DUP3 DUP3 DUP1 ISZERO PUSH2 0x3CD JUMPI DUP1 PUSH1 0x1F LT PUSH2 0x3A2 JUMPI PUSH2 0x100 DUP1 DUP4 SLOAD DIV MUL DUP4 MSTORE SWAP2 PUSH1 0x20 ADD SWAP2 PUSH2 0x3CD JUMP JUMPDEST DUP3 ADD SWAP2 SWAP1 PUSH1 0x0 MSTORE PUSH1 0x20 PUSH1 0x0 KECCAK256 SWAP1 JUMPDEST DUP2 SLOAD DUP2 MSTORE SWAP1 PUSH1 0x1 ADD SWAP1 PUSH1 0x20 ADD DUP1 DUP4 GT PUSH2 0x3B0 JUMPI DUP3 SWAP1 SUB PUSH1 0x1F AND DUP3 ADD SWAP2 JUMPDEST POP POP POP POP POP DUP2 JUMP JUMPDEST PUSH1 0x20 SLOAD DUP2 JUMP JUMPDEST PUSH1 0x0 PUSH32 0x0 PUSH1 0x1 PUSH1 0x1 PUSH1 0xA0 SHL SUB AND PUSH4 0x4000AEA0 PUSH32 0x0 DUP6 DUP8 DUP7 PUSH1 0x40 MLOAD PUSH1 0x20 ADD DUP1 DUP4 DUP2 MSTORE PUSH1 0x20 ADD DUP3 DUP2 MSTORE PUSH1 0x20 ADD SWAP3 POP POP POP PUSH1 0x40 MLOAD PUSH1 0x20 DUP2 DUP4 SUB SUB DUP2 MSTORE SWAP1 PUSH1 0x40 MSTORE PUSH1 0x40 MLOAD DUP5 PUSH4 0xFFFFFFFF AND PUSH1 0xE0 SHL DUP2 MSTORE PUSH1 0x4 ADD DUP1 DUP5 PUSH1 0x1 PUSH1 0x1 PUSH1 0xA0 SHL SUB AND DUP2 MSTORE PUSH1 0x20 ADD DUP4 DUP2 MSTORE PUSH1 0x20 ADD DUP1 PUSH1 0x20 ADD DUP3 DUP2 SUB DUP3 MSTORE DUP4 DUP2 DUP2 MLOAD DUP2 MSTORE PUSH1 0x20 ADD SWAP2 POP DUP1 MLOAD SWAP1 PUSH1 0x20 ADD SWAP1 DUP1 DUP4 DUP4 PUSH1 0x0 JUMPDEST DUP4 DUP2 LT ISZERO PUSH2 0x4B7 JUMPI DUP2 DUP2 ADD MLOAD DUP4 DUP3 ADD MSTORE PUSH1 0x20 ADD PUSH2 0x49F JUMP JUMPDEST POP POP POP POP SWAP1 POP SWAP1 DUP2 ADD SWAP1 PUSH1 0x1F AND DUP1 ISZERO PUSH2 0x4E4 JUMPI DUP1 DUP3 SUB DUP1 MLOAD PUSH1 0x1 DUP4 PUSH1 0x20 SUB PUSH2 0x100 EXP SUB NOT AND DUP2 MSTORE PUSH1 0x20 ADD SWAP2 POP JUMPDEST POP SWAP5 POP POP POP POP POP PUSH1 0x20 PUSH1 0x40 MLOAD DUP1 DUP4 SUB DUP2 PUSH1 0x0 DUP8 DUP1 EXTCODESIZE ISZERO DUP1 ISZERO PUSH2 0x505 JUMPI PUSH1 0x0 DUP1 REVERT JUMPDEST POP GAS CALL ISZERO DUP1 ISZERO PUSH2 0x519 JUMPI RETURNDATASIZE PUSH1 0x0 DUP1 RETURNDATACOPY RETURNDATASIZE PUSH1 0x0 REVERT JUMPDEST POP POP POP POP PUSH1 0x40 MLOAD RETURNDATASIZE PUSH1 0x20 DUP2 LT ISZERO PUSH2 0x52F JUMPI PUSH1 0x0 DUP1 REVERT JUMPDEST POP POP PUSH1 0x0 DUP5 DUP2 MSTORE PUSH1 0x20 DUP2 SWAP1 MSTORE PUSH1 0x40 DUP2 KECCAK256 SLOAD PUSH2 0x54F SWAP1 DUP7 SWAP1 DUP6 SWAP1 ADDRESS SWAP1 PUSH2 0x689 JUMP JUMPDEST PUSH1 0x0 DUP7 DUP2 MSTORE PUSH1 0x20 DUP2 SWAP1 MSTORE PUSH1 0x40 SWAP1 KECCAK256 SLOAD SWAP1 SWAP2 POP PUSH2 0x56C SWAP1 PUSH1 0x1 PUSH2 0x6D0 JUMP JUMPDEST PUSH1 0x0 DUP7 DUP2 MSTORE PUSH1 0x20 DUP2 SWAP1 MSTORE PUSH1 0x40 SWAP1 KECCAK256 SSTORE PUSH2 0x585 DUP6 DUP3 PUSH2 0x731 JUMP JUMPDEST SWAP6 SWAP5 POP POP POP POP POP JUMP JUMPDEST PUSH2 0x596 PUSH2 0x598 JUMP JUMPDEST JUMP JUMPDEST PUSH1 0x2 SLOAD PUSH1 0x40 DUP1 MLOAD PUSH4 0x70A08231 PUSH1 0xE0 SHL DUP2 MSTORE ADDRESS PUSH1 0x4 DUP3 ADD MSTORE SWAP1 MLOAD PUSH1 0x1 PUSH1 0x1 PUSH1 0xA0 SHL SUB PUSH32 0x0 AND SWAP2 PUSH4 0x70A08231 SWAP2 PUSH1 0x24 DUP1 DUP4 ADD SWAP3 PUSH1 0x20 SWAP3 SWAP2 SWAP1 DUP3 SWAP1 SUB ADD DUP2 DUP7 DUP1 EXTCODESIZE ISZERO DUP1 ISZERO PUSH2 0x601 JUMPI PUSH1 0x0 DUP1 REVERT JUMPDEST POP GAS STATICCALL ISZERO DUP1 ISZERO PUSH2 0x615 JUMPI RETURNDATASIZE PUSH1 0x0 DUP1 RETURNDATACOPY RETURNDATASIZE PUSH1 0x0 REVERT JUMPDEST POP POP POP POP PUSH1 0x40 MLOAD RETURNDATASIZE PUSH1 0x20 DUP2 LT ISZERO PUSH2 0x62B JUMPI PUSH1 0x0 DUP1 REVERT JUMPDEST POP MLOAD LT ISZERO PUSH2 0x638 JUMPI PUSH1 0x0 DUP1 REVERT JUMPDEST PUSH2 0x649 PUSH1 0x3 SLOAD PUSH1 0x2 SLOAD PUSH2 0x34FB PUSH2 0x3DB JUMP JUMPDEST POP JUMP JUMPDEST PUSH1 0x0 PUSH1 0x18 DUP3 MOD SWAP1 POP PUSH1 0x4 DUP2 PUSH1 0x18 DUP2 LT PUSH2 0x661 JUMPI INVALID JUMPDEST ADD DUP1 SLOAD PUSH2 0x683 SWAP2 PUSH1 0x1C SWAP2 PUSH1 0x2 PUSH1 0x0 NOT PUSH2 0x100 PUSH1 0x1 DUP5 AND ISZERO MUL ADD SWAP1 SWAP2 AND DIV PUSH2 0x75D JUMP JUMPDEST POP POP POP POP JUMP JUMPDEST PUSH1 0x40 DUP1 MLOAD PUSH1 0x20 DUP1 DUP3 ADD SWAP7 SWAP1 SWAP7 MSTORE DUP1 DUP3 ADD SWAP5 SWAP1 SWAP5 MSTORE PUSH1 0x1 PUSH1 0x1 PUSH1 0xA0 SHL SUB SWAP3 SWAP1 SWAP3 AND PUSH1 0x60 DUP5 ADD MSTORE PUSH1 0x80 DUP1 DUP5 ADD SWAP2 SWAP1 SWAP2 MSTORE DUP2 MLOAD DUP1 DUP5 SUB SWAP1 SWAP2 ADD DUP2 MSTORE PUSH1 0xA0 SWAP1 SWAP3 ADD SWAP1 MSTORE DUP1 MLOAD SWAP2 ADD KECCAK256 SWAP1 JUMP JUMPDEST PUSH1 0x0 DUP3 DUP3 ADD DUP4 DUP2 LT ISZERO PUSH2 0x72A JUMPI PUSH1 0x40 DUP1 MLOAD PUSH3 0x461BCD PUSH1 0xE5 SHL DUP2 MSTORE PUSH1 0x20 PUSH1 0x4 DUP3 ADD MSTORE PUSH1 0x1B PUSH1 0x24 DUP3 ADD MSTORE PUSH32 0x536166654D6174683A206164646974696F6E206F766572666C6F770000000000 PUSH1 0x44 DUP3 ADD MSTORE SWAP1 MLOAD SWAP1 DUP2 SWAP1 SUB PUSH1 0x64 ADD SWAP1 REVERT JUMPDEST SWAP4 SWAP3 POP POP POP JUMP JUMPDEST PUSH1 0x40 DUP1 MLOAD PUSH1 0x20 DUP1 DUP3 ADD SWAP5 SWAP1 SWAP5 MSTORE DUP1 DUP3 ADD SWAP3 SWAP1 SWAP3 MSTORE DUP1 MLOAD DUP1 DUP4 SUB DUP3 ADD DUP2 MSTORE PUSH1 0x60 SWAP1 SWAP3 ADD SWAP1 MSTORE DUP1 MLOAD SWAP2 ADD KECCAK256 SWAP1 JUMP JUMPDEST DUP3 DUP1 SLOAD PUSH1 0x1 DUP2 PUSH1 0x1 AND ISZERO PUSH2 0x100 MUL SUB AND PUSH1 0x2 SWAP1 DIV SWAP1 PUSH1 0x0 MSTORE PUSH1 0x20 PUSH1 0x0 KECCAK256 SWAP1 PUSH1 0x1F ADD PUSH1 0x20 SWAP1 DIV DUP2 ADD SWAP3 DUP3 PUSH1 0x1F LT PUSH2 0x796 JUMPI DUP1 SLOAD DUP6 SSTORE PUSH2 0x7D2 JUMP JUMPDEST DUP3 DUP1 ADD PUSH1 0x1 ADD DUP6 SSTORE DUP3 ISZERO PUSH2 0x7D2 JUMPI PUSH1 0x0 MSTORE PUSH1 0x20 PUSH1 0x0 KECCAK256 SWAP2 PUSH1 0x1F ADD PUSH1 0x20 SWAP1 DIV DUP3 ADD JUMPDEST DUP3 DUP2 GT ISZERO PUSH2 0x7D2 JUMPI DUP3 SLOAD DUP3 SSTORE SWAP2 PUSH1 0x1 ADD SWAP2 SWAP1 PUSH1 0x1 ADD SWAP1 PUSH2 0x7B7 JUMP JUMPDEST POP PUSH2 0x7DE SWAP3 SWAP2 POP PUSH2 0x7E2 JUMP JUMPDEST POP SWAP1 JUMP JUMPDEST JUMPDEST DUP1 DUP3 GT ISZERO PUSH2 0x7DE JUMPI PUSH1 0x0 DUP2 SSTORE PUSH1 0x1 ADD PUSH2 0x7E3 JUMP INVALID LOG2 PUSH5 0x6970667358 0x22 SLT KECCAK256 GAS PUSH13 0xCAA55F89C956636DA5973FF0CC 0x5F 0xC1 SWAP14 0xAD PUSH11 0x4E64061BB75EA849EA9BF GT PUSH5 0x736F6C6343 STOP MOD 0xC STOP CALLER ","sha1":"eb89608e30adf436a7239bf71fc384f54f1a75d6","source":"// SPDX-License-Identifier: UNLICENSED\npragma solidity ^0.6.0;\n\nimport \"./WeatherWars.sol\";\nimport \"alphachainio/chainlink-contracts@1.1.3/contracts/src/v0.6/VRFConsumerBase.sol\";\nimport \"OpenZeppelin/openzeppelin-contracts@3.4.0/contracts/math/SafeMath.sol\";\n\ncontract WeatherWarsFactory is VRFConsumerBase {\n    WeatherWars[] public games;\n\n    uint256 private _fee;\n\n    bytes32 internal _keyHash;\n\n    // City IDs based off open weather api docs\n    string[24] cities = [\n        \"6173331\",\n        \"4671654\",\n        \"4887398\",\n        \"4164138\",\n        \"5128581\",\n        \"5391811\",\n        \"5391959\",\n        \"5809844\",\n        \"3530597\",\n        \"3435907\",\n        \"993800\",\n        \"360630\",\n        \"2643743\",\n        \"524894\",\n        \"2950158\",\n        \"2968815\",\n        \"2759794\",\n        \"2673722\",\n        \"1850147\",\n        \"1275339\",\n        \"1796236\",\n        \"1835847\",\n        \"1880252\",\n        \"2158177\"\n    ];\n\n    string public _nextCity;\n\n    uint256 constant SEED = 13563;\n\n    address private _linkTokenAddress;\n\n    address public oracle;\n\n    string private _weatherApiKey;\n\n    bytes32 public jobId;\n\n    event GameCreated(string gameName, string city);\n\n    event CreatingGame(string city);\n\n    constructor(\n        address oracleAddress,\n        address vrfCoordinateAdddress,\n        address linkTokenAddress,\n        uint256 feeInLink,\n        bytes32 keyHash,\n        string memory weatherApiKey,\n        bytes32 oracleJobId\n    ) public VRFConsumerBase(vrfCoordinateAdddress, linkTokenAddress) {\n        _fee = feeInLink;\n        _keyHash = keyHash;\n        _linkTokenAddress = linkTokenAddress;\n        _weatherApiKey = weatherApiKey;\n        oracle = oracleAddress;\n        jobId = oracleJobId;\n    }\n\n    function init() external {\n        requestNextCity();\n    }\n\n    function createWeatherWars(\n        string calldata _gameName,\n        uint256 _buyinAmount,\n        address cryptoChampionsContractAddress\n    ) external returns (bytes32) {\n        requestNextCity();\n    }\n\n    function requestNextCity() internal {\n        require(LINK.balanceOf(address(this)) >= _fee);\n        requestRandomness(_keyHash, _fee, SEED);\n    }\n\n    function fulfillRandomness(bytes32 requestId, uint256 randomNum) internal override {\n        uint256 cityIdx = randomNum % cities.length;\n        _nextCity = cities[cityIdx];\n    }\n}\n","sourcePath":"contracts/minigames/games/weatherWars/WeatherWarsFactory.sol","deployment":{"address":"0x2F9412Db5D00240f5a728216ab320D0E1A74B398","chainid":"42","blockHeight":24165753}}