{"abi":[{"inputs":[],"stateMutability":"nonpayable","type":"constructor","name":"constructor"},{"anonymous":false,"inputs":[{"indexed":true,"internalType":"address","name":"account","type":"address"},{"indexed":true,"internalType":"address","name":"operator","type":"address"},{"indexed":false,"internalType":"bool","name":"approved","type":"bool"}],"name":"ApprovalForAll","type":"event"},{"anonymous":false,"inputs":[{"indexed":false,"internalType":"uint256","name":"elderId","type":"uint256"},{"indexed":false,"internalType":"address","name":"owner","type":"address"}],"name":"ElderSpiritMinted","type":"event"},{"anonymous":false,"inputs":[],"name":"ElderSpiritsBurned","type":"event"},{"anonymous":false,"inputs":[{"indexed":false,"internalType":"uint256","name":"heroId","type":"uint256"}],"name":"HeroBurned","type":"event"},{"anonymous":false,"inputs":[{"indexed":false,"internalType":"uint256","name":"heroId","type":"uint256"},{"indexed":false,"internalType":"address","name":"owner","type":"address"}],"name":"HeroMinted","type":"event"},{"anonymous":false,"inputs":[{"indexed":true,"internalType":"bytes32","name":"role","type":"bytes32"},{"indexed":true,"internalType":"bytes32","name":"previousAdminRole","type":"bytes32"},{"indexed":true,"internalType":"bytes32","name":"newAdminRole","type":"bytes32"}],"name":"RoleAdminChanged","type":"event"},{"anonymous":false,"inputs":[{"indexed":true,"internalType":"bytes32","name":"role","type":"bytes32"},{"indexed":true,"internalType":"address","name":"account","type":"address"},{"indexed":true,"internalType":"address","name":"sender","type":"address"}],"name":"RoleGranted","type":"event"},{"anonymous":false,"inputs":[{"indexed":true,"internalType":"bytes32","name":"role","type":"bytes32"},{"indexed":true,"internalType":"address","name":"account","type":"address"},{"indexed":true,"internalType":"address","name":"sender","type":"address"}],"name":"RoleRevoked","type":"event"},{"anonymous":false,"inputs":[{"indexed":true,"internalType":"address","name":"operator","type":"address"},{"indexed":true,"internalType":"address","name":"from","type":"address"},{"indexed":true,"internalType":"address","name":"to","type":"address"},{"indexed":false,"internalType":"uint256[]","name":"ids","type":"uint256[]"},{"indexed":false,"internalType":"uint256[]","name":"values","type":"uint256[]"}],"name":"TransferBatch","type":"event"},{"anonymous":false,"inputs":[{"indexed":true,"internalType":"address","name":"operator","type":"address"},{"indexed":true,"internalType":"address","name":"from","type":"address"},{"indexed":true,"internalType":"address","name":"to","type":"address"},{"indexed":false,"internalType":"uint256","name":"id","type":"uint256"},{"indexed":false,"internalType":"uint256","name":"value","type":"uint256"}],"name":"TransferSingle","type":"event"},{"anonymous":false,"inputs":[{"indexed":false,"internalType":"string","name":"value","type":"string"},{"indexed":true,"internalType":"uint256","name":"id","type":"uint256"}],"name":"URI","type":"event"},{"inputs":[],"name":"DEFAULT_ADMIN_ROLE","outputs":[{"internalType":"bytes32","name":"","type":"bytes32"}],"stateMutability":"view","type":"function"},{"inputs":[],"name":"MAX_NUMBER_OF_ELDERS","outputs":[{"internalType":"uint256","name":"","type":"uint256"}],"stateMutability":"view","type":"function"},{"inputs":[{"internalType":"address","name":"account","type":"address"},{"internalType":"uint256","name":"id","type":"uint256"}],"name":"balanceOf","outputs":[{"internalType":"uint256","name":"","type":"uint256"}],"stateMutability":"view","type":"function"},{"inputs":[{"internalType":"address[]","name":"accounts","type":"address[]"},{"internalType":"uint256[]","name":"ids","type":"uint256[]"}],"name":"balanceOfBatch","outputs":[{"internalType":"uint256[]","name":"","type":"uint256[]"}],"stateMutability":"view","type":"function"},{"inputs":[],"name":"burnElders","outputs":[],"stateMutability":"nonpayable","type":"function"},{"inputs":[{"internalType":"uint256","name":"heroId","type":"uint256"}],"name":"burnHero","outputs":[],"stateMutability":"nonpayable","type":"function"},{"inputs":[{"internalType":"string","name":"tokenTicker","type":"string"},{"internalType":"address","name":"feedAddress","type":"address"}],"name":"createAffinity","outputs":[],"stateMutability":"nonpayable","type":"function"},{"inputs":[],"name":"currentPhase","outputs":[{"internalType":"enum CryptoChampions.Phase","name":"","type":"uint8"}],"stateMutability":"view","type":"function"},{"inputs":[],"name":"currentRound","outputs":[{"internalType":"uint256","name":"","type":"uint256"}],"stateMutability":"view","type":"function"},{"inputs":[{"internalType":"string","name":"winningAffinity","type":"string"}],"name":"disburseRewards","outputs":[],"stateMutability":"nonpayable","type":"function"},{"inputs":[],"name":"elderMintPrice","outputs":[{"internalType":"uint256","name":"","type":"uint256"}],"stateMutability":"view","type":"function"},{"inputs":[],"name":"eldersInGame","outputs":[{"internalType":"uint256","name":"","type":"uint256"}],"stateMutability":"view","type":"function"},{"inputs":[{"internalType":"uint256","name":"elderId","type":"uint256"}],"name":"getElderOwner","outputs":[{"internalType":"address","name":"","type":"address"}],"stateMutability":"view","type":"function"},{"inputs":[{"internalType":"uint256","name":"round","type":"uint256"},{"internalType":"uint256","name":"elderId","type":"uint256"}],"name":"getElderSpawnsAmount","outputs":[{"internalType":"uint256","name":"","type":"uint256"}],"stateMutability":"view","type":"function"},{"inputs":[{"internalType":"uint256","name":"elderId","type":"uint256"}],"name":"getElderSpirit","outputs":[{"internalType":"bool","name":"","type":"bool"},{"internalType":"uint256","name":"","type":"uint256"},{"internalType":"uint256","name":"","type":"uint256"},{"internalType":"string","name":"","type":"string"},{"internalType":"int256","name":"","type":"int256"}],"stateMutability":"view","type":"function"},{"inputs":[{"internalType":"uint256","name":"round","type":"uint256"},{"internalType":"uint256","name":"elderId","type":"uint256"}],"name":"getHeroMintPrice","outputs":[{"internalType":"uint256","name":"","type":"uint256"}],"stateMutability":"view","type":"function"},{"inputs":[{"internalType":"uint256","name":"heroId","type":"uint256"}],"name":"getHeroOwner","outputs":[{"internalType":"address","name":"","type":"address"}],"stateMutability":"view","type":"function"},{"inputs":[{"internalType":"bytes32","name":"role","type":"bytes32"}],"name":"getRoleAdmin","outputs":[{"internalType":"bytes32","name":"","type":"bytes32"}],"stateMutability":"view","type":"function"},{"inputs":[{"internalType":"bytes32","name":"role","type":"bytes32"},{"internalType":"uint256","name":"index","type":"uint256"}],"name":"getRoleMember","outputs":[{"internalType":"address","name":"","type":"address"}],"stateMutability":"view","type":"function"},{"inputs":[{"internalType":"bytes32","name":"role","type":"bytes32"}],"name":"getRoleMemberCount","outputs":[{"internalType":"uint256","name":"","type":"uint256"}],"stateMutability":"view","type":"function"},{"inputs":[{"internalType":"bytes32","name":"role","type":"bytes32"},{"internalType":"address","name":"account","type":"address"}],"name":"grantRole","outputs":[],"stateMutability":"nonpayable","type":"function"},{"inputs":[{"internalType":"bytes32","name":"role","type":"bytes32"},{"internalType":"address","name":"account","type":"address"}],"name":"hasRole","outputs":[{"internalType":"bool","name":"","type":"bool"}],"stateMutability":"view","type":"function"},{"inputs":[],"name":"heroesMinted","outputs":[{"internalType":"uint256","name":"","type":"uint256"}],"stateMutability":"view","type":"function"},{"inputs":[{"internalType":"address","name":"account","type":"address"},{"internalType":"address","name":"operator","type":"address"}],"name":"isApprovedForAll","outputs":[{"internalType":"bool","name":"","type":"bool"}],"stateMutability":"view","type":"function"},{"inputs":[{"internalType":"uint256","name":"raceId","type":"uint256"},{"internalType":"uint256","name":"classId","type":"uint256"},{"internalType":"string","name":"affinity","type":"string"}],"name":"mintElderSpirit","outputs":[{"internalType":"uint256","name":"","type":"uint256"}],"stateMutability":"payable","type":"function"},{"inputs":[{"internalType":"uint256","name":"elderId","type":"uint256"},{"internalType":"string","name":"heroName","type":"string"}],"name":"mintHero","outputs":[{"internalType":"uint256","name":"","type":"uint256"}],"stateMutability":"payable","type":"function"},{"inputs":[{"internalType":"bytes32","name":"role","type":"bytes32"},{"internalType":"address","name":"account","type":"address"}],"name":"renounceRole","outputs":[],"stateMutability":"nonpayable","type":"function"},{"inputs":[{"internalType":"bytes32","name":"role","type":"bytes32"},{"internalType":"address","name":"account","type":"address"}],"name":"revokeRole","outputs":[],"stateMutability":"nonpayable","type":"function"},{"inputs":[{"internalType":"address","name":"from","type":"address"},{"internalType":"address","name":"to","type":"address"},{"internalType":"uint256[]","name":"ids","type":"uint256[]"},{"internalType":"uint256[]","name":"amounts","type":"uint256[]"},{"internalType":"bytes","name":"data","type":"bytes"}],"name":"safeBatchTransferFrom","outputs":[],"stateMutability":"nonpayable","type":"function"},{"inputs":[{"internalType":"address","name":"from","type":"address"},{"internalType":"address","name":"to","type":"address"},{"internalType":"uint256","name":"id","type":"uint256"},{"internalType":"uint256","name":"amount","type":"uint256"},{"internalType":"bytes","name":"data","type":"bytes"}],"name":"safeTransferFrom","outputs":[],"stateMutability":"nonpayable","type":"function"},{"inputs":[{"internalType":"address","name":"operator","type":"address"},{"internalType":"bool","name":"approved","type":"bool"}],"name":"setApprovalForAll","outputs":[],"stateMutability":"nonpayable","type":"function"},{"inputs":[{"internalType":"uint256","name":"price","type":"uint256"}],"name":"setElderMintPrice","outputs":[],"stateMutability":"nonpayable","type":"function"},{"inputs":[{"internalType":"enum CryptoChampions.Phase","name":"phase","type":"uint8"}],"name":"setPhase","outputs":[],"stateMutability":"nonpayable","type":"function"},{"inputs":[{"internalType":"bytes4","name":"interfaceId","type":"bytes4"}],"name":"supportsInterface","outputs":[{"internalType":"bool","name":"","type":"bool"}],"stateMutability":"view","type":"function"},{"inputs":[{"internalType":"uint256","name":"","type":"uint256"}],"name":"uri","outputs":[{"internalType":"string","name":"","type":"string"}],"stateMutability":"view","type":"function"}],"bytecode":"6080604052600060065560006009553480156200001b57600080fd5b5060408051808201909152600381526275726960e81b6020820152620000486301ffc9a760e01b62000114565b62000053816200019c565b62000065636cdb3d1360e11b62000114565b620000776303a24d0760e21b62000114565b506200009360008051602062003c6683398151915280620001b5565b620000bd60008051602062003c4683398151915260008051602062003c66833981519152620001b5565b620000d860008051602062003c668339815191523362000207565b620000f360008051602062003c468339815191523362000213565b6703c2c9106e218000600d556000600e556005805460ff1916905562000452565b6001600160e01b0319808216141562000174576040805162461bcd60e51b815260206004820152601c60248201527f4552433136353a20696e76616c696420696e7465726661636520696400000000604482015290519081900360640190fd5b6001600160e01b0319166000908152600160208190526040909120805460ff19169091179055565b8051620001b1906004906020840190620003b6565b5050565b600082815260208190526040808220600201549051839285917fbd79b86ffe0ab8e8776151514217cd7cacd52c909f66475c3af44e129f0b00ff9190a460009182526020829052604090912060020155565b620001b1828262000277565b6000828152602081905260409020600201546200023a9062000234620002f0565b620002f4565b620002075760405162461bcd60e51b815260040180806020018281038252602f81526020018062003c17602f913960400191505060405180910390fd5b6000828152602081815260409091206200029c918390620023f662000321821b17901c565b15620001b157620002ac620002f0565b6001600160a01b0316816001600160a01b0316837f2f8788117e7eff1d82e926ec794901d17c78024a50270940304540a733656f0d60405160405180910390a45050565b3390565b6000828152602081815260408220620003189184906200240b62000338821b17901c565b90505b92915050565b600062000318836001600160a01b0384166200034f565b600062000318836001600160a01b0384166200039e565b60006200035d83836200039e565b62000395575081546001818101845560008481526020808220909301849055845484825282860190935260409020919091556200031b565b5060006200031b565b60009081526001919091016020526040902054151590565b828054600181600116156101000203166002900490600052602060002090601f016020900481019282601f10620003f957805160ff191683800117855562000429565b8280016001018555821562000429579182015b82811115620004295782518255916020019190600101906200040c565b50620004379291506200043b565b5090565b5b808211156200043757600081556001016200043c565b6137b580620004626000396000f3fe6080604052600436106102035760003560e01c806379935fe011610118578063bf61211f116100a0578063d547741f1161006f578063d547741f14610c62578063e3e9838214610c9b578063e985e9c514610cc5578063f242432a14610d00578063f32c497414610dd657610203565b8063bf61211f14610be1578063c03afb5914610bf6578063ca15c87314610c23578063caab7ef814610c4d57610203565b806391d14854116100e757806391d1485414610abf5780639d5b82c014610af8578063a217fddf14610b7c578063a22cb46514610b91578063a4aeec5314610bcc57610203565b806379935fe014610a505780638a19c8bc14610a655780639010d07c14610a7a57806390ded47e14610aaa57610203565b80632eb2c2d61161019b578063498e82191161016a578063498e8219146107bb5780634e1273f41461083057806356b4d760146109b057806359ca19d3146109f657806372eda5bb14610a2657610203565b80632eb2c2d6146105005780632efb8874146106ce5780632f2ff15d1461074957806336568abe1461078257610203565b80630fbea841116101d75780630fbea8411461037057806321c2f72a146103ea578063248a9ca3146104aa57806327e50b18146104d457610203565b8062fdd58e1461020857806301ffc9a714610253578063055ad42e1461029b5780630e89341c146102d1575b600080fd5b34801561021457600080fd5b506102416004803603604081101561022b57600080fd5b506001600160a01b038135169060200135610e06565b60408051918252519081900360200190f35b34801561025f57600080fd5b506102876004803603602081101561027657600080fd5b50356001600160e01b031916610e78565b604080519115158252519081900360200190f35b3480156102a757600080fd5b506102b0610e9b565b604051808260018111156102c057fe5b815260200191505060405180910390f35b3480156102dd57600080fd5b506102fb600480360360208110156102f457600080fd5b5035610ea4565b6040805160208082528351818301528351919283929083019185019080838360005b8381101561033557818101518382015260200161031d565b50505050905090810190601f1680156103625780820380516001836020036101000a031916815260200191505b509250505060405180910390f35b6102416004803603606081101561038657600080fd5b813591602081013591810190606081016040820135600160201b8111156103ac57600080fd5b8201836020820111156103be57600080fd5b803590602001918460018302840111600160201b831117156103df57600080fd5b509092509050610f3c565b3480156103f657600080fd5b506104146004803603602081101561040d57600080fd5b5035611200565b60405180861515815260200185815260200184815260200180602001838152602001828103825284818151815260200191508051906020019080838360005b8381101561046b578181015183820152602001610453565b50505050905090810190601f1680156104985780820380516001836020036101000a031916815260200191505b50965050505050505060405180910390f35b3480156104b657600080fd5b50610241600480360360208110156104cd57600080fd5b503561132e565b3480156104e057600080fd5b506104fe600480360360208110156104f757600080fd5b5035611343565b005b34801561050c57600080fd5b506104fe600480360360a081101561052357600080fd5b6001600160a01b038235811692602081013590911691810190606081016040820135600160201b81111561055657600080fd5b82018360208201111561056857600080fd5b803590602001918460208302840111600160201b8311171561058957600080fd5b9190808060200260200160405190810160405280939291908181526020018383602002808284376000920191909152509295949360208101935035915050600160201b8111156105d857600080fd5b8201836020820111156105ea57600080fd5b803590602001918460208302840111600160201b8311171561060b57600080fd5b9190808060200260200160405190810160405280939291908181526020018383602002808284376000920191909152509295949360208101935035915050600160201b81111561065a57600080fd5b82018360208201111561066c57600080fd5b803590602001918460018302840111600160201b8311171561068d57600080fd5b91908080601f0160208091040260200160405190810160405280939291908181526020018383808284376000920191909152509295506114b8945050505050565b3480156106da57600080fd5b506104fe600480360360208110156106f157600080fd5b810190602081018135600160201b81111561070b57600080fd5b82018360208201111561071d57600080fd5b803590602001918460018302840111600160201b8311171561073e57600080fd5b5090925090506117bb565b34801561075557600080fd5b506104fe6004803603604081101561076c57600080fd5b50803590602001356001600160a01b03166117d6565b34801561078e57600080fd5b506104fe600480360360408110156107a557600080fd5b50803590602001356001600160a01b031661183e565b610241600480360360408110156107d157600080fd5b81359190810190604081016020820135600160201b8111156107f257600080fd5b82018360208201111561080457600080fd5b803590602001918460018302840111600160201b8311171561082557600080fd5b50909250905061189f565b34801561083c57600080fd5b506109606004803603604081101561085357600080fd5b810190602081018135600160201b81111561086d57600080fd5b82018360208201111561087f57600080fd5b803590602001918460208302840111600160201b831117156108a057600080fd5b9190808060200260200160405190810160405280939291908181526020018383602002808284376000920191909152509295949360208101935035915050600160201b8111156108ef57600080fd5b82018360208201111561090157600080fd5b803590602001918460208302840111600160201b8311171561092257600080fd5b919080806020026020016040519081016040528093929190818152602001838360200280828437600092019190915250929550611cb7945050505050565b60408051602080825283518183015283519192839290830191858101910280838360005b8381101561099c578181015183820152602001610984565b505050509050019250505060405180910390f35b3480156109bc57600080fd5b506109da600480360360208110156109d357600080fd5b5035611da3565b604080516001600160a01b039092168252519081900360200190f35b348015610a0257600080fd5b5061024160048036036040811015610a1957600080fd5b5080359060200135611def565b348015610a3257600080fd5b506109da60048036036020811015610a4957600080fd5b5035611e3a565b348015610a5c57600080fd5b50610241611e95565b348015610a7157600080fd5b50610241611e9b565b348015610a8657600080fd5b506109da60048036036040811015610a9d57600080fd5b5080359060200135611ea1565b348015610ab657600080fd5b50610241611ec0565b348015610acb57600080fd5b5061028760048036036040811015610ae257600080fd5b50803590602001356001600160a01b0316611ec5565b348015610b0457600080fd5b506104fe60048036036040811015610b1b57600080fd5b810190602081018135600160201b811115610b3557600080fd5b820183602082011115610b4757600080fd5b803590602001918460018302840111600160201b83111715610b6857600080fd5b9193509150356001600160a01b0316611edd565b348015610b8857600080fd5b50610241611f41565b348015610b9d57600080fd5b506104fe60048036036040811015610bb457600080fd5b506001600160a01b0381351690602001351515611f46565b348015610bd857600080fd5b506104fe612035565b348015610bed57600080fd5b506102416120cb565b348015610c0257600080fd5b506104fe60048036036020811015610c1957600080fd5b503560ff166120d1565b348015610c2f57600080fd5b5061024160048036036020811015610c4657600080fd5b5035612108565b348015610c5957600080fd5b5061024161211f565b348015610c6e57600080fd5b506104fe60048036036040811015610c8557600080fd5b50803590602001356001600160a01b0316612125565b348015610ca757600080fd5b506104fe60048036036020811015610cbe57600080fd5b503561217e565b348015610cd157600080fd5b5061028760048036036040811015610ce857600080fd5b506001600160a01b038135811691602001351661219a565b348015610d0c57600080fd5b506104fe600480360360a0811015610d2357600080fd5b6001600160a01b03823581169260208101359091169160408201359160608101359181019060a081016080820135600160201b811115610d6257600080fd5b820183602082011115610d7457600080fd5b803590602001918460018302840111600160201b83111715610d9557600080fd5b91908080601f0160208091040260200160405190810160405280939291908181526020018383808284376000920191909152509295506121c8945050505050565b348015610de257600080fd5b5061024160048036036040811015610df957600080fd5b5080359060200135612393565b60006001600160a01b038316610e4d5760405162461bcd60e51b815260040180806020018281038252602b815260200180613529602b913960400191505060405180910390fd5b5060008181526002602090815260408083206001600160a01b03861684529091529020545b92915050565b6001600160e01b0319811660009081526001602052604090205460ff165b919050565b60055460ff1681565b60048054604080516020601f6002600019610100600188161502019095169490940493840181900481028201810190925282815260609390929091830182828015610f305780601f10610f0557610100808354040283529160200191610f30565b820191906000526020600020905b815481529060010190602001808311610f1357829003601f168201915b50505050509050919050565b6000600760065410610f4d57600080fd5b600d54341015610f5c57600080fd5b60006001600160a01b0316600f84846040518083838082843791909101948552505060405192839003602001909220546001600160a01b031692909214159150610fa7905057600080fd5b600654600090610fb8906001612420565b6000818152600760205260409020549091506001600160a01b031615610fda57fe5b60008181526008602052604090205460ff1615610ff357fe5b6000600f8585604051808383808284379190910194855250506040805193849003602001842054633fabe5a360e21b855290516001600160a01b039091169363feaf968c93506004808201935060a09291829003018186803b15801561105857600080fd5b505afa15801561106c573d6000803e3d6000fd5b505050506040513d60a081101561108257600080fd5b506020015190506110916132cd565b60018152602080820189905260408083018990528051601f88018390048302810183019091528681529087908790819084018382808284376000920191909152505050506060820152608081018290526111046110ec61247a565b8460016040518060200160405280600081525061247f565b61110c61247a565b600084815260076020908152604080832080546001600160a01b0319166001600160a01b03959095169490941790935560088152908290208351815460ff19169015151781558382015160018201559183015160028301556060830151805184939261117f9260038501929101906132fe565b506080919091015160049091015560065461119b906001612420565b600655600d546111aa90612587565b7f3560f0337e62819199860ba21b425b8bde9a01fa6e514dd58ab6edf7daf1d1f1836111d461247a565b604080519283526001600160a01b0390911660208301528051918290030190a150909695505050505050565b6000806000606060008560008111801561121b575060078111155b61122457600080fd5b61122c6132cd565b600088815260086020908152604091829020825160a081018452815460ff1615158152600180830154828501526002808401548387015260038401805487516101009482161594909402600019011691909104601f8101869004860283018601909652858252919492936060860193919291908301828280156112f05780601f106112c5576101008083540402835291602001916112f0565b820191906000526020600020905b8154815290600101906020018083116112d357829003601f168201915b50505091835250506004919091015460209182015281519082015160408301516060840151608090940151929c919b50995091975095509350505050565b60009081526020819052604090206002015490565b6007811161135057600080fd5b6000818152600b602052604090205460ff1661136b57600080fd5b61137361247a565b6000828152600a60205260409020546001600160a01b0390811691161461139957600080fd5b6000818152600a60205260409020546113bd906001600160a01b03168260016125f8565b6000818152600b602090815260408083206002810154600191820154808652600c8552838620828752909452919093205490926113fa919061272b565b6000828152600c60209081526040808320868452825280832093909355858252600a815282822080546001600160a01b0319169055600b808252838320805460ff1916815560018101849055600281018490556003810184905560048101849055845180840195869052848152938890529152905161147f92600590920191906132fe565b506040805184815290517f76126f33d318abe88f8b82c5136b7e5a52091ab897679a40f612d7590adfc9979181900360200190a1505050565b81518351146114f85760405162461bcd60e51b81526004018080602001828103825260288152602001806137086028913960400191505060405180910390fd5b6001600160a01b03841661153d5760405162461bcd60e51b81526004018080602001828103825260258152602001806135d16025913960400191505060405180910390fd5b61154561247a565b6001600160a01b0316856001600160a01b0316148061157057506115708561156b61247a565b61219a565b6115ab5760405162461bcd60e51b81526004018080602001828103825260328152602001806135f66032913960400191505060405180910390fd5b60006115b561247a565b90506115c5818787878787612788565b60005b84518110156116cb5760008582815181106115df57fe5b6020026020010151905060008583815181106115f757fe5b60200260200101519050611664816040518060600160405280602a815260200161366b602a91396002600086815260200190815260200160002060008d6001600160a01b03166001600160a01b03168152602001908152602001600020546128a39092919063ffffffff16565b60008381526002602090815260408083206001600160a01b038e811685529252808320939093558a168152205461169b9082612420565b60009283526002602090815260408085206001600160a01b038c16865290915290922091909155506001016115c8565b50846001600160a01b0316866001600160a01b0316826001600160a01b03167f4a39dc06d4c0dbc64b70af90fd698a233a518aa5d07e595d983b8c0526c8f7fb8787604051808060200180602001838103835285818151815260200191508051906020019060200280838360005b83811015611751578181015183820152602001611739565b50505050905001838103825284818151815260200191508051906020019060200280838360005b83811015611790578181015183820152602001611778565b5050505090500194505050505060405180910390a46117b381878787878761293a565b505050505050565b6117d2600080516020613628833981519152612bb0565b5050565b6000828152602081905260409020600201546117f9906117f461247a565b611ec5565b6118345760405162461bcd60e51b815260040180806020018281038252602f8152602001806134fa602f913960400191505060405180910390fd5b6117d28282612bc3565b61184661247a565b6001600160a01b0316816001600160a01b0316146118955760405162461bcd60e51b815260040180806020018281038252602f815260200180613751602f913960400191505060405180910390fd5b6117d28282612c2c565b6000836000811180156118b3575060078111155b6118bc57600080fd5b60008581526008602052604090205460ff166118d757600080fd5b6118e085612c95565b6118e957600080fd5b60006118f7600e5487612393565b90508034101561190657600080fd5b60006007611920600160095461242090919063ffffffff16565b016000818152600a60205260409020549091506001600160a01b03161561194357fe5b6000818152600b602052604090205460ff161561195c57fe5b61196461337c565b60018152604080516020601f8901819004810282018101909252878152908890889081908401838280828437600092018290525060c08601949094525050600e5460208085019190915260408085018c90528b84526008808352818520600180820154606089015260028083015460808a0152968f905291845260030180548351601f9382161561010002600019019091169690960491820184900484028601840190925280855290925090830182828015611a615780601f10611a3657610100808354040283529160200191611a61565b820191906000526020600020905b815481529060010190602001808311611a4457829003601f168201915b50505050508160a00181905250611a91611a7961247a565b8360016040518060200160405280600081525061247f565b611a9961247a565b6000838152600a6020908152604080832080546001600160a01b0319166001600160a01b039590951694909417909355600b8152908290208351815460ff1916901515178155838201516001820155918301516002830155606083015160038301556080830151600483015560a08301518051849392611b209260058501929101906132fe565b5060c08201518051611b3c9160068401916020909101906132fe565b5050600954611b4d91506001612420565b600955600e546000908152600c602090815260408083208b8452909152902054611b78906001612420565b600e546000908152600c602090815260408083208c8452909152812091909155611bae600a611ba8866008612d6a565b90612dc3565b60008a8152600760205260408082205490519293506001600160a01b031691829084908381818185875af1925050503d8060008114611c09576040519150601f19603f3d011682016040523d82523d6000602084013e611c0e565b606091505b5050905080611c55576040805162461bcd60e51b815260206004820152600e60248201526d14185e5b595b9d0819985a5b195960921b604482015290519081900360640190fd5b611c5e86612587565b7ff34a510082f5a02e39555458564800fc1fe73bfd8d3aa07cbf063fe662e7657e85611c8861247a565b604080519283526001600160a01b0390911660208301528051918290030190a150929998505050505050505050565b60608151835114611cf95760405162461bcd60e51b81526004018080602001828103825260298152602001806136df6029913960400191505060405180910390fd5b6060835167ffffffffffffffff81118015611d1357600080fd5b50604051908082528060200260200182016040528015611d3d578160200160208202803683370190505b50905060005b8451811015611d9b57611d7c858281518110611d5b57fe5b6020026020010151858381518110611d6f57fe5b6020026020010151610e06565b828281518110611d8857fe5b6020908102919091010152600101611d43565b509392505050565b600060078211611db257600080fd5b6000828152600a60205260409020546001600160a01b0316611dd357600080fd5b506000908152600a60205260409020546001600160a01b031690565b600081600081118015611e03575060078111155b611e0c57600080fd5b600e54841115611e1b57600080fd5b50506000918252600c6020908152604080842092845291905290205490565b600081600081118015611e4e575060078111155b611e5757600080fd5b6000838152600760205260409020546001600160a01b0316611e7857600080fd5b50506000908152600760205260409020546001600160a01b031690565b600d5481565b600e5481565b6000828152602081905260408120611eb99083612e2a565b9392505050565b600781565b6000828152602081905260408120611eb9908361240b565b611ef4600080516020613628833981519152612bb0565b80600f8484604051808383808284379190910194855250506040519283900360200190922080546001600160a01b03949094166001600160a01b0319909416939093179092555050505050565b600081565b816001600160a01b0316611f5861247a565b6001600160a01b03161415611f9e5760405162461bcd60e51b81526004018080602001828103825260298152602001806136b66029913960400191505060405180910390fd5b8060036000611fab61247a565b6001600160a01b03908116825260208083019390935260409182016000908120918716808252919093529120805460ff191692151592909217909155611fef61247a565b6001600160a01b03167f17307eab39ab6107e8899845ad3d59bd9653f200f220920489ca2b5937696c318360405180821515815260200191505060405180910390a35050565b61204c600080516020613628833981519152612bb0565b60006006541161205b57600080fd5b60015b6007811161208e5760008181526008602052604090205460ff16156120865761208681612e36565b60010161205e565b50600e5461209d906001612420565b600e556040517f0143b2c36fac98f86168603d28d499bde9ce0367d41e111cef9f2ecbc9eeabfc90600090a1565b60065481565b6120e8600080516020613628833981519152612bb0565b6005805482919060ff19166001838181111561210057fe5b021790555050565b6000818152602081905260408120610e7290612f18565b60095481565b600082815260208190526040902060020154612143906117f461247a565b6118955760405162461bcd60e51b81526004018080602001828103825260308152602001806135a16030913960400191505060405180910390fd5b612195600080516020613628833981519152612bb0565b600d55565b6001600160a01b03918216600090815260036020908152604080832093909416825291909152205460ff1690565b6001600160a01b03841661220d5760405162461bcd60e51b81526004018080602001828103825260258152602001806135d16025913960400191505060405180910390fd5b61221561247a565b6001600160a01b0316856001600160a01b0316148061223b575061223b8561156b61247a565b6122765760405162461bcd60e51b81526004018080602001828103825260298152602001806135786029913960400191505060405180910390fd5b600061228061247a565b90506122a081878761229188612f23565b61229a88612f23565b87612788565b6122e7836040518060600160405280602a815260200161366b602a913960008781526002602090815260408083206001600160a01b038d16845290915290205491906128a3565b60008581526002602090815260408083206001600160a01b038b8116855292528083209390935587168152205461231e9084612420565b60008581526002602090815260408083206001600160a01b03808b168086529184529382902094909455805188815291820187905280518a8416938616927fc3d58168c5ae7397731d063d5bbf3d657854427343f4c083240f7aacaa2d0f6292908290030190a46117b3818787878787612f67565b6000600e548311156123a457600080fd5b6000821180156123b5575060078211155b6123be57600080fd5b6000838152600c602090815260408083208584529091528120546123e3906001612420565b90506123ee816130d8565b949350505050565b6000611eb9836001600160a01b038416613122565b6000611eb9836001600160a01b03841661316c565b600082820183811015611eb9576040805162461bcd60e51b815260206004820152601b60248201527f536166654d6174683a206164646974696f6e206f766572666c6f770000000000604482015290519081900360640190fd5b335b90565b6001600160a01b0384166124c45760405162461bcd60e51b81526004018080602001828103825260218152602001806137306021913960400191505060405180910390fd5b60006124ce61247a565b90506124e08160008761229188612f23565b60008481526002602090815260408083206001600160a01b038916845290915290205461250d9084612420565b60008581526002602090815260408083206001600160a01b03808b16808652918452828520959095558151898152928301889052815190948616927fc3d58168c5ae7397731d063d5bbf3d657854427343f4c083240f7aacaa2d0f6292908290030190a461258081600087878787612f67565b5050505050565b6000612593348361272b565b11156125f5576000336125a6348461272b565b604051600081818185875af1925050503d80600081146125e2576040519150601f19603f3d011682016040523d82523d6000602084013e6125e7565b606091505b50509050806117d257600080fd5b50565b6001600160a01b03831661263d5760405162461bcd60e51b81526004018080602001828103825260238152602001806136486023913960400191505060405180910390fd5b600061264761247a565b90506126778185600061265987612f23565b61266287612f23565b60405180602001604052806000815250612788565b6126be826040518060600160405280602481526020016135546024913960008681526002602090815260408083206001600160a01b038b16845290915290205491906128a3565b60008481526002602090815260408083206001600160a01b03808a16808652918452828520959095558151888152928301879052815193949093908616927fc3d58168c5ae7397731d063d5bbf3d657854427343f4c083240f7aacaa2d0f6292908290030190a450505050565b600082821115612782576040805162461bcd60e51b815260206004820152601e60248201527f536166654d6174683a207375627472616374696f6e206f766572666c6f770000604482015290519081900360640190fd5b50900390565b6127968686868686866117b3565b60005b835181101561289a5760008482815181106127b057fe5b60200260200101511180156127d9575060078482815181106127ce57fe5b602002602001015111155b1561282a5784600760008684815181106127ef57fe5b6020026020010151815260200190815260200160002060006101000a8154816001600160a01b0302191690836001600160a01b031602179055505b600784828151811061283857fe5b602002602001015111156128925784600a600086848151811061285757fe5b6020026020010151815260200190815260200160002060006101000a8154816001600160a01b0302191690836001600160a01b031602179055505b600101612799565b50505050505050565b600081848411156129325760405162461bcd60e51b81526004018080602001828103825283818151815260200191508051906020019080838360005b838110156128f75781810151838201526020016128df565b50505050905090810190601f1680156129245780820380516001836020036101000a031916815260200191505b509250505060405180910390fd5b505050900390565b61294c846001600160a01b0316613184565b156117b357836001600160a01b031663bc197c8187878686866040518663ffffffff1660e01b815260040180866001600160a01b03168152602001856001600160a01b03168152602001806020018060200180602001848103845287818151815260200191508051906020019060200280838360005b838110156129da5781810151838201526020016129c2565b50505050905001848103835286818151815260200191508051906020019060200280838360005b83811015612a19578181015183820152602001612a01565b50505050905001848103825285818151815260200191508051906020019080838360005b83811015612a55578181015183820152602001612a3d565b50505050905090810190601f168015612a825780820380516001836020036101000a031916815260200191505b5098505050505050505050602060405180830381600087803b158015612aa757600080fd5b505af1925050508015612acc57506040513d6020811015612ac757600080fd5b505160015b612b6157612ad86133d6565b80612ae35750612b2a565b60405162461bcd60e51b81526020600482018181528351602484015283518493919283926044019190850190808383600083156128f75781810151838201526020016128df565b60405162461bcd60e51b815260040180806020018281038252603481526020018061347c6034913960400191505060405180910390fd5b6001600160e01b0319811663bc197c8160e01b1461289a5760405162461bcd60e51b81526004018080602001828103825260288152602001806134d26028913960400191505060405180910390fd5b612bba8133611ec5565b6125f557600080fd5b6000828152602081905260409020612bdb90826123f6565b156117d257612be861247a565b6001600160a01b0316816001600160a01b0316837f2f8788117e7eff1d82e926ec794901d17c78024a50270940304540a733656f0d60405160405180910390a45050565b6000828152602081905260409020612c44908261318a565b156117d257612c5161247a565b6001600160a01b0316816001600160a01b0316837ff6391f5c32d9c69d2a47ea670b442974b53935d1edc7fd64eb21e047a839171b60405160405180910390a45050565b600e546000908152600c6020908152604080832084845290915281205460041115612cc257506001610e96565b600e546000908152600c6020908152604080832085845290915290205460015b6006548111612d3757600e546000908152600c60209081526040808320848452909152902054821115612d2f57600e546000908152600c6020908152604080832084845290915290205491505b600101612ce2565b50612d43816002612d6a565b600e546000908152600c602090815260408083208784529091529020541115915050919050565b600082612d7957506000610e72565b82820282848281612d8657fe5b0414611eb95760405162461bcd60e51b81526004018080602001828103825260218152602001806136956021913960400191505060405180910390fd5b6000808211612e19576040805162461bcd60e51b815260206004820152601a60248201527f536166654d6174683a206469766973696f6e206279207a65726f000000000000604482015290519081900360640190fd5b818381612e2257fe5b049392505050565b6000611eb9838361319f565b80600081118015612e48575060078111155b612e5157600080fd5b60008281526008602052604090205460ff16612e6c57600080fd5b600082815260076020526040902054612e90906001600160a01b03168360016125f8565b600654612e9e90600161272b565b600655600082815260076020908152604080832080546001600160a01b03191690556008808352818420805460ff1916815560018101859055600281018590558251808501938490528581529487905292529151612f0292600390920191906132fe565b5050600090815260086020526040812060040155565b6000610e7282613203565b604080516001808252818301909252606091829190602080830190803683370190505090508281600081518110612f5657fe5b602090810291909101015292915050565b612f79846001600160a01b0316613184565b156117b357836001600160a01b031663f23a6e6187878686866040518663ffffffff1660e01b815260040180866001600160a01b03168152602001856001600160a01b0316815260200184815260200183815260200180602001828103825283818151815260200191508051906020019080838360005b83811015613008578181015183820152602001612ff0565b50505050905090810190601f1680156130355780820380516001836020036101000a031916815260200191505b509650505050505050602060405180830381600087803b15801561305857600080fd5b505af192505050801561307d57506040513d602081101561307857600080fd5b505160015b61308957612ad86133d6565b6001600160e01b0319811663f23a6e6160e01b1461289a5760405162461bcd60e51b81526004018080602001828103825260288152602001806134d26028913960400191505060405180910390fd5b60008060016130ff6064611ba860026130f988670de0b6b3a7640000612d6a565b90612d6a565b91506123ee61311b600a611ba884670de0b6b3a7640000612d6a565b8390612420565b600061312e838361316c565b61316457508154600181810184556000848152602080822090930184905584548482528286019093526040902091909155610e72565b506000610e72565b60009081526001919091016020526040902054151590565b3b151590565b6000611eb9836001600160a01b038416613207565b815460009082106131e15760405162461bcd60e51b81526004018080602001828103825260228152602001806134b06022913960400191505060405180910390fd5b8260000182815481106131f057fe5b9060005260206000200154905092915050565b5490565b600081815260018301602052604081205480156132c3578354600019808301919081019060009087908390811061323a57fe5b906000526020600020015490508087600001848154811061325757fe5b60009182526020808320909101929092558281526001898101909252604090209084019055865487908061328757fe5b60019003818190600052602060002001600090559055866001016000878152602001908152602001600020600090556001945050505050610e72565b6000915050610e72565b6040518060a00160405280600015158152602001600081526020016000815260200160608152602001600081525090565b828054600181600116156101000203166002900490600052602060002090601f016020900481019282601f1061333f57805160ff191683800117855561336c565b8280016001018555821561336c579182015b8281111561336c578251825591602001919060010190613351565b506133789291506133bb565b5090565b6040518060e001604052806000151581526020016000815260200160008152602001600081526020016000815260200160608152602001606081525090565b5b8082111561337857600081556001016133bc565b60e01c90565b600060443d10156133e65761247c565b600481823e6308c379a06133fa82516133d0565b146134045761247c565b6040513d600319016004823e80513d67ffffffffffffffff8160248401118184111715613434575050505061247c565b8284019250825191508082111561344e575050505061247c565b503d830160208284010111156134665750505061247c565b601f01601f191681016020016040529150509056fe455243313135353a207472616e7366657220746f206e6f6e2045524331313535526563656976657220696d706c656d656e746572456e756d657261626c655365743a20696e646578206f7574206f6620626f756e6473455243313135353a204552433131353552656365697665722072656a656374656420746f6b656e73416363657373436f6e74726f6c3a2073656e646572206d75737420626520616e2061646d696e20746f206772616e74455243313135353a2062616c616e636520717565727920666f7220746865207a65726f2061646472657373455243313135353a206275726e20616d6f756e7420657863656564732062616c616e6365455243313135353a2063616c6c6572206973206e6f74206f776e6572206e6f7220617070726f766564416363657373436f6e74726f6c3a2073656e646572206d75737420626520616e2061646d696e20746f207265766f6b65455243313135353a207472616e7366657220746f20746865207a65726f2061646472657373455243313135353a207472616e736665722063616c6c6572206973206e6f74206f776e6572206e6f7220617070726f7665642172861495e7b85edac73e3cd5fbb42dd675baadf627720e687bcfdaca025096455243313135353a206275726e2066726f6d20746865207a65726f2061646472657373455243313135353a20696e73756666696369656e742062616c616e636520666f72207472616e73666572536166654d6174683a206d756c7469706c69636174696f6e206f766572666c6f77455243313135353a2073657474696e6720617070726f76616c2073746174757320666f722073656c66455243313135353a206163636f756e747320616e6420696473206c656e677468206d69736d61746368455243313135353a2069647320616e6420616d6f756e7473206c656e677468206d69736d61746368455243313135353a206d696e7420746f20746865207a65726f2061646472657373416363657373436f6e74726f6c3a2063616e206f6e6c792072656e6f756e636520726f6c657320666f722073656c66a2646970667358221220e5e2bf832983461e37e131576c947a0273e2cb90a8c8bd45dce154ac2f26fdd064736f6c634300060c0033416363657373436f6e74726f6c3a2073656e646572206d75737420626520616e2061646d696e20746f206772616e742172861495e7b85edac73e3cd5fbb42dd675baadf627720e687bcfdaca0250969f4e1c871d5fdd0aee1cd182666698a4492b24c6832aac230d07b11046af5a89","bytecodeSha1":"da39a3ee5e6b4b0d3255bfef95601890afd80709","compiler":{"evm_version":"istanbul","optimizer":{"enabled":true,"runs":200},"version":"0.6.12+commit.27d51765"},"contractName":"CryptoChampions","language":"Solidity","natspec":{"author":"Oozyx","kind":"dev","methods":{"balanceOf(address,uint256)":{"details":"See {IERC1155-balanceOf}. Requirements: - `account` cannot be the zero address."},"balanceOfBatch(address[],uint256[])":{"details":"See {IERC1155-balanceOfBatch}. Requirements: - `accounts` and `ids` must have the same length."},"burnElders()":{"notice":"Burns all the elder spirits in game"},"burnHero(uint256)":{"details":"This will only be able to be called from the owner of the hero","notice":"Burns the hero for a refund","params":{"heroId":"The hero id to burn"}},"createAffinity(string,address)":{"details":"This will be called by a priviledged address. It will allow to create new affinities. May need to add a remove affinity function as well.","notice":"Creates a new token affinity","params":{"feedAddress":"The price feed address","tokenTicker":"The token ticker of the affinity"}},"disburseRewards(string)":{"details":"This will be called from a priviledged address","notice":"Disburses the rewards evenly among the heroes of the winning affinity","params":{"winningAffinity":"The winning affinity token ticker"}},"getElderOwner(uint256)":{"notice":"Gets the elder owner for the given elder id","params":{"elderId":"The elder id"},"returns":{"_0":"The owner of the elder"}},"getElderSpawnsAmount(uint256,uint256)":{"notice":"Gets the amount of heroes spawn from the elder with the specified id during the specified round","params":{"elderId":"The elder id","round":"The round the elder was created"},"returns":{"_0":"The amount of heroes spawned from the elder"}},"getElderSpirit(uint256)":{"notice":"Fetches the data of a single elder spirit","params":{"elderId":"The id of the elder being searched for"},"returns":{"_0":"The elder's attributes in the following order (valid, raceId, classId, affinity)"}},"getHeroMintPrice(uint256,uint256)":{"notice":"Gets the minting price of a hero based on specified elder spirit","params":{"elderId":"The elder id for which the hero will be based on","round":"The round of the hero to be minted"},"returns":{"_0":"The hero mint price"}},"getHeroOwner(uint256)":{"notice":"Get the hero owner for the given hero id","params":{"heroId":"The hero id"},"returns":{"_0":"The owner address"}},"getRoleAdmin(bytes32)":{"details":"Returns the admin role that controls `role`. See {grantRole} and {revokeRole}. To change a role's admin, use {_setRoleAdmin}."},"getRoleMember(bytes32,uint256)":{"details":"Returns one of the accounts that have `role`. `index` must be a value between 0 and {getRoleMemberCount}, non-inclusive. Role bearers are not sorted in any particular way, and their ordering may change at any point. WARNING: When using {getRoleMember} and {getRoleMemberCount}, make sure you perform all queries on the same block. See the following https://forum.openzeppelin.com/t/iterating-over-elements-on-enumerableset-in-openzeppelin-contracts/2296[forum post] for more information."},"getRoleMemberCount(bytes32)":{"details":"Returns the number of accounts that have `role`. Can be used together with {getRoleMember} to enumerate all bearers of a role."},"grantRole(bytes32,address)":{"details":"Grants `role` to `account`. If `account` had not been already granted `role`, emits a {RoleGranted} event. Requirements: - the caller must have ``role``'s admin role."},"hasRole(bytes32,address)":{"details":"Returns `true` if `account` has been granted `role`."},"isApprovedForAll(address,address)":{"details":"See {IERC1155-isApprovedForAll}."},"mintElderSpirit(uint256,uint256,string)":{"details":"For now only race, class, and token (affinity) are needed. This will change. The race and class ids will probably be public constants defined in the crypto champions contract, this is subject to change.","notice":"Mints an elder spirit","params":{"affinity":"The affinity of the minted hero","classId":"The class id","raceId":"The race id"},"returns":{"_0":"The elder spirit id"}},"mintHero(uint256,string)":{"notice":"Mints a hero based on an elder spirit","params":{"elderId":"The id of the elder spirit this hero is based on"},"returns":{"_0":"The hero id"}},"renounceRole(bytes32,address)":{"details":"Revokes `role` from the calling account. Roles are often managed via {grantRole} and {revokeRole}: this function's purpose is to provide a mechanism for accounts to lose their privileges if they are compromised (such as when a trusted device is misplaced). If the calling account had been granted `role`, emits a {RoleRevoked} event. Requirements: - the caller must be `account`."},"revokeRole(bytes32,address)":{"details":"Revokes `role` from `account`. If `account` had been granted `role`, emits a {RoleRevoked} event. Requirements: - the caller must have ``role``'s admin role."},"safeBatchTransferFrom(address,address,uint256[],uint256[],bytes)":{"details":"See {IERC1155-safeBatchTransferFrom}."},"safeTransferFrom(address,address,uint256,uint256,bytes)":{"details":"See {IERC1155-safeTransferFrom}."},"setApprovalForAll(address,bool)":{"details":"See {IERC1155-setApprovalForAll}."},"setElderMintPrice(uint256)":{"details":"Can only be called by an admin address","notice":"Sets the elder mint price","params":{"price":"The new elder mint price"}},"setPhase(uint8)":{"notice":"Sets the contract's phase","params":{"phase":"The phase the contract should be set to"}},"supportsInterface(bytes4)":{"details":"See {IERC165-supportsInterface}. Time complexity O(1), guaranteed to always use less than 30 000 gas."},"uri(uint256)":{"details":"See {IERC1155MetadataURI-uri}. This implementation returns the same URI for *all* token types. It relies on the token type ID substitution mechanism https://eips.ethereum.org/EIPS/eip-1155#metadata[defined in the EIP]. Clients calling this function must replace the `\\{id\\}` substring with the actual token type ID."}},"notice":"This is the crypto champions class","title":"Crypto Champions Interface","version":1},"opcodes":"PUSH1 0x80 PUSH1 0x40 MSTORE PUSH1 0x4 CALLDATASIZE LT PUSH2 0x203 JUMPI PUSH1 0x0 CALLDATALOAD PUSH1 0xE0 SHR DUP1 PUSH4 0x79935FE0 GT PUSH2 0x118 JUMPI DUP1 PUSH4 0xBF61211F GT PUSH2 0xA0 JUMPI DUP1 PUSH4 0xD547741F GT PUSH2 0x6F JUMPI DUP1 PUSH4 0xD547741F EQ PUSH2 0xC62 JUMPI DUP1 PUSH4 0xE3E98382 EQ PUSH2 0xC9B JUMPI DUP1 PUSH4 0xE985E9C5 EQ PUSH2 0xCC5 JUMPI DUP1 PUSH4 0xF242432A EQ PUSH2 0xD00 JUMPI DUP1 PUSH4 0xF32C4974 EQ PUSH2 0xDD6 JUMPI PUSH2 0x203 JUMP JUMPDEST DUP1 PUSH4 0xBF61211F EQ PUSH2 0xBE1 JUMPI DUP1 PUSH4 0xC03AFB59 EQ PUSH2 0xBF6 JUMPI DUP1 PUSH4 0xCA15C873 EQ PUSH2 0xC23 JUMPI DUP1 PUSH4 0xCAAB7EF8 EQ PUSH2 0xC4D JUMPI PUSH2 0x203 JUMP JUMPDEST DUP1 PUSH4 0x91D14854 GT PUSH2 0xE7 JUMPI DUP1 PUSH4 0x91D14854 EQ PUSH2 0xABF JUMPI DUP1 PUSH4 0x9D5B82C0 EQ PUSH2 0xAF8 JUMPI DUP1 PUSH4 0xA217FDDF EQ PUSH2 0xB7C JUMPI DUP1 PUSH4 0xA22CB465 EQ PUSH2 0xB91 JUMPI DUP1 PUSH4 0xA4AEEC53 EQ PUSH2 0xBCC JUMPI PUSH2 0x203 JUMP JUMPDEST DUP1 PUSH4 0x79935FE0 EQ PUSH2 0xA50 JUMPI DUP1 PUSH4 0x8A19C8BC EQ PUSH2 0xA65 JUMPI DUP1 PUSH4 0x9010D07C EQ PUSH2 0xA7A JUMPI DUP1 PUSH4 0x90DED47E EQ PUSH2 0xAAA JUMPI PUSH2 0x203 JUMP JUMPDEST DUP1 PUSH4 0x2EB2C2D6 GT PUSH2 0x19B JUMPI DUP1 PUSH4 0x498E8219 GT PUSH2 0x16A JUMPI DUP1 PUSH4 0x498E8219 EQ PUSH2 0x7BB JUMPI DUP1 PUSH4 0x4E1273F4 EQ PUSH2 0x830 JUMPI DUP1 PUSH4 0x56B4D760 EQ PUSH2 0x9B0 JUMPI DUP1 PUSH4 0x59CA19D3 EQ PUSH2 0x9F6 JUMPI DUP1 PUSH4 0x72EDA5BB EQ PUSH2 0xA26 JUMPI PUSH2 0x203 JUMP JUMPDEST DUP1 PUSH4 0x2EB2C2D6 EQ PUSH2 0x500 JUMPI DUP1 PUSH4 0x2EFB8874 EQ PUSH2 0x6CE JUMPI DUP1 PUSH4 0x2F2FF15D EQ PUSH2 0x749 JUMPI DUP1 PUSH4 0x36568ABE EQ PUSH2 0x782 JUMPI PUSH2 0x203 JUMP JUMPDEST DUP1 PUSH4 0xFBEA841 GT PUSH2 0x1D7 JUMPI DUP1 PUSH4 0xFBEA841 EQ PUSH2 0x370 JUMPI DUP1 PUSH4 0x21C2F72A EQ PUSH2 0x3EA JUMPI DUP1 PUSH4 0x248A9CA3 EQ PUSH2 0x4AA JUMPI DUP1 PUSH4 0x27E50B18 EQ PUSH2 0x4D4 JUMPI PUSH2 0x203 JUMP JUMPDEST DUP1 PUSH3 0xFDD58E EQ PUSH2 0x208 JUMPI DUP1 PUSH4 0x1FFC9A7 EQ PUSH2 0x253 JUMPI DUP1 PUSH4 0x55AD42E EQ PUSH2 0x29B JUMPI DUP1 PUSH4 0xE89341C EQ PUSH2 0x2D1 JUMPI JUMPDEST PUSH1 0x0 DUP1 REVERT JUMPDEST CALLVALUE DUP1 ISZERO PUSH2 0x214 JUMPI PUSH1 0x0 DUP1 REVERT JUMPDEST POP PUSH2 0x241 PUSH1 0x4 DUP1 CALLDATASIZE SUB PUSH1 0x40 DUP2 LT ISZERO PUSH2 0x22B JUMPI PUSH1 0x0 DUP1 REVERT JUMPDEST POP PUSH1 0x1 PUSH1 0x1 PUSH1 0xA0 SHL SUB DUP2 CALLDATALOAD AND SWAP1 PUSH1 0x20 ADD CALLDATALOAD PUSH2 0xE06 JUMP JUMPDEST PUSH1 0x40 DUP1 MLOAD SWAP2 DUP3 MSTORE MLOAD SWAP1 DUP2 SWAP1 SUB PUSH1 0x20 ADD SWAP1 RETURN JUMPDEST CALLVALUE DUP1 ISZERO PUSH2 0x25F JUMPI PUSH1 0x0 DUP1 REVERT JUMPDEST POP PUSH2 0x287 PUSH1 0x4 DUP1 CALLDATASIZE SUB PUSH1 0x20 DUP2 LT ISZERO PUSH2 0x276 JUMPI PUSH1 0x0 DUP1 REVERT JUMPDEST POP CALLDATALOAD PUSH1 0x1 PUSH1 0x1 PUSH1 0xE0 SHL SUB NOT AND PUSH2 0xE78 JUMP JUMPDEST PUSH1 0x40 DUP1 MLOAD SWAP2 ISZERO ISZERO DUP3 MSTORE MLOAD SWAP1 DUP2 SWAP1 SUB PUSH1 0x20 ADD SWAP1 RETURN JUMPDEST CALLVALUE DUP1 ISZERO PUSH2 0x2A7 JUMPI PUSH1 0x0 DUP1 REVERT JUMPDEST POP PUSH2 0x2B0 PUSH2 0xE9B JUMP JUMPDEST PUSH1 0x40 MLOAD DUP1 DUP3 PUSH1 0x1 DUP2 GT ISZERO PUSH2 0x2C0 JUMPI INVALID JUMPDEST DUP2 MSTORE PUSH1 0x20 ADD SWAP2 POP POP PUSH1 0x40 MLOAD DUP1 SWAP2 SUB SWAP1 RETURN JUMPDEST CALLVALUE DUP1 ISZERO PUSH2 0x2DD JUMPI PUSH1 0x0 DUP1 REVERT JUMPDEST POP PUSH2 0x2FB PUSH1 0x4 DUP1 CALLDATASIZE SUB PUSH1 0x20 DUP2 LT ISZERO PUSH2 0x2F4 JUMPI PUSH1 0x0 DUP1 REVERT JUMPDEST POP CALLDATALOAD PUSH2 0xEA4 JUMP JUMPDEST PUSH1 0x40 DUP1 MLOAD PUSH1 0x20 DUP1 DUP3 MSTORE DUP4 MLOAD DUP2 DUP4 ADD MSTORE DUP4 MLOAD SWAP2 SWAP3 DUP4 SWAP3 SWAP1 DUP4 ADD SWAP2 DUP6 ADD SWAP1 DUP1 DUP4 DUP4 PUSH1 0x0 JUMPDEST DUP4 DUP2 LT ISZERO PUSH2 0x335 JUMPI DUP2 DUP2 ADD MLOAD DUP4 DUP3 ADD MSTORE PUSH1 0x20 ADD PUSH2 0x31D JUMP JUMPDEST POP POP POP POP SWAP1 POP SWAP1 DUP2 ADD SWAP1 PUSH1 0x1F AND DUP1 ISZERO PUSH2 0x362 JUMPI DUP1 DUP3 SUB DUP1 MLOAD PUSH1 0x1 DUP4 PUSH1 0x20 SUB PUSH2 0x100 EXP SUB NOT AND DUP2 MSTORE PUSH1 0x20 ADD SWAP2 POP JUMPDEST POP SWAP3 POP POP POP PUSH1 0x40 MLOAD DUP1 SWAP2 SUB SWAP1 RETURN JUMPDEST PUSH2 0x241 PUSH1 0x4 DUP1 CALLDATASIZE SUB PUSH1 0x60 DUP2 LT ISZERO PUSH2 0x386 JUMPI PUSH1 0x0 DUP1 REVERT JUMPDEST DUP2 CALLDATALOAD SWAP2 PUSH1 0x20 DUP2 ADD CALLDATALOAD SWAP2 DUP2 ADD SWAP1 PUSH1 0x60 DUP2 ADD PUSH1 0x40 DUP3 ADD CALLDATALOAD PUSH1 0x1 PUSH1 0x20 SHL DUP2 GT ISZERO PUSH2 0x3AC JUMPI PUSH1 0x0 DUP1 REVERT JUMPDEST DUP3 ADD DUP4 PUSH1 0x20 DUP3 ADD GT ISZERO PUSH2 0x3BE JUMPI PUSH1 0x0 DUP1 REVERT JUMPDEST DUP1 CALLDATALOAD SWAP1 PUSH1 0x20 ADD SWAP2 DUP5 PUSH1 0x1 DUP4 MUL DUP5 ADD GT PUSH1 0x1 PUSH1 0x20 SHL DUP4 GT OR ISZERO PUSH2 0x3DF JUMPI PUSH1 0x0 DUP1 REVERT JUMPDEST POP SWAP1 SWAP3 POP SWAP1 POP PUSH2 0xF3C JUMP JUMPDEST CALLVALUE DUP1 ISZERO PUSH2 0x3F6 JUMPI PUSH1 0x0 DUP1 REVERT JUMPDEST POP PUSH2 0x414 PUSH1 0x4 DUP1 CALLDATASIZE SUB PUSH1 0x20 DUP2 LT ISZERO PUSH2 0x40D JUMPI PUSH1 0x0 DUP1 REVERT JUMPDEST POP CALLDATALOAD PUSH2 0x1200 JUMP JUMPDEST PUSH1 0x40 MLOAD DUP1 DUP7 ISZERO ISZERO DUP2 MSTORE PUSH1 0x20 ADD DUP6 DUP2 MSTORE PUSH1 0x20 ADD DUP5 DUP2 MSTORE PUSH1 0x20 ADD DUP1 PUSH1 0x20 ADD DUP4 DUP2 MSTORE PUSH1 0x20 ADD DUP3 DUP2 SUB DUP3 MSTORE DUP5 DUP2 DUP2 MLOAD DUP2 MSTORE PUSH1 0x20 ADD SWAP2 POP DUP1 MLOAD SWAP1 PUSH1 0x20 ADD SWAP1 DUP1 DUP4 DUP4 PUSH1 0x0 JUMPDEST DUP4 DUP2 LT ISZERO PUSH2 0x46B JUMPI DUP2 DUP2 ADD MLOAD DUP4 DUP3 ADD MSTORE PUSH1 0x20 ADD PUSH2 0x453 JUMP JUMPDEST POP POP POP POP SWAP1 POP SWAP1 DUP2 ADD SWAP1 PUSH1 0x1F AND DUP1 ISZERO PUSH2 0x498 JUMPI DUP1 DUP3 SUB DUP1 MLOAD PUSH1 0x1 DUP4 PUSH1 0x20 SUB PUSH2 0x100 EXP SUB NOT AND DUP2 MSTORE PUSH1 0x20 ADD SWAP2 POP JUMPDEST POP SWAP7 POP POP POP POP POP POP POP PUSH1 0x40 MLOAD DUP1 SWAP2 SUB SWAP1 RETURN JUMPDEST CALLVALUE DUP1 ISZERO PUSH2 0x4B6 JUMPI PUSH1 0x0 DUP1 REVERT JUMPDEST POP PUSH2 0x241 PUSH1 0x4 DUP1 CALLDATASIZE SUB PUSH1 0x20 DUP2 LT ISZERO PUSH2 0x4CD JUMPI PUSH1 0x0 DUP1 REVERT JUMPDEST POP CALLDATALOAD PUSH2 0x132E JUMP JUMPDEST CALLVALUE DUP1 ISZERO PUSH2 0x4E0 JUMPI PUSH1 0x0 DUP1 REVERT JUMPDEST POP PUSH2 0x4FE PUSH1 0x4 DUP1 CALLDATASIZE SUB PUSH1 0x20 DUP2 LT ISZERO PUSH2 0x4F7 JUMPI PUSH1 0x0 DUP1 REVERT JUMPDEST POP CALLDATALOAD PUSH2 0x1343 JUMP JUMPDEST STOP JUMPDEST CALLVALUE DUP1 ISZERO PUSH2 0x50C JUMPI PUSH1 0x0 DUP1 REVERT JUMPDEST POP PUSH2 0x4FE PUSH1 0x4 DUP1 CALLDATASIZE SUB PUSH1 0xA0 DUP2 LT ISZERO PUSH2 0x523 JUMPI PUSH1 0x0 DUP1 REVERT JUMPDEST PUSH1 0x1 PUSH1 0x1 PUSH1 0xA0 SHL SUB DUP3 CALLDATALOAD DUP2 AND SWAP3 PUSH1 0x20 DUP2 ADD CALLDATALOAD SWAP1 SWAP2 AND SWAP2 DUP2 ADD SWAP1 PUSH1 0x60 DUP2 ADD PUSH1 0x40 DUP3 ADD CALLDATALOAD PUSH1 0x1 PUSH1 0x20 SHL DUP2 GT ISZERO PUSH2 0x556 JUMPI PUSH1 0x0 DUP1 REVERT JUMPDEST DUP3 ADD DUP4 PUSH1 0x20 DUP3 ADD GT ISZERO PUSH2 0x568 JUMPI PUSH1 0x0 DUP1 REVERT JUMPDEST DUP1 CALLDATALOAD SWAP1 PUSH1 0x20 ADD SWAP2 DUP5 PUSH1 0x20 DUP4 MUL DUP5 ADD GT PUSH1 0x1 PUSH1 0x20 SHL DUP4 GT OR ISZERO PUSH2 0x589 JUMPI PUSH1 0x0 DUP1 REVERT JUMPDEST SWAP2 SWAP1 DUP1 DUP1 PUSH1 0x20 MUL PUSH1 0x20 ADD PUSH1 0x40 MLOAD SWAP1 DUP2 ADD PUSH1 0x40 MSTORE DUP1 SWAP4 SWAP3 SWAP2 SWAP1 DUP2 DUP2 MSTORE PUSH1 0x20 ADD DUP4 DUP4 PUSH1 0x20 MUL DUP1 DUP3 DUP5 CALLDATACOPY PUSH1 0x0 SWAP3 ADD SWAP2 SWAP1 SWAP2 MSTORE POP SWAP3 SWAP6 SWAP5 SWAP4 PUSH1 0x20 DUP2 ADD SWAP4 POP CALLDATALOAD SWAP2 POP POP PUSH1 0x1 PUSH1 0x20 SHL DUP2 GT ISZERO PUSH2 0x5D8 JUMPI PUSH1 0x0 DUP1 REVERT JUMPDEST DUP3 ADD DUP4 PUSH1 0x20 DUP3 ADD GT ISZERO PUSH2 0x5EA JUMPI PUSH1 0x0 DUP1 REVERT JUMPDEST DUP1 CALLDATALOAD SWAP1 PUSH1 0x20 ADD SWAP2 DUP5 PUSH1 0x20 DUP4 MUL DUP5 ADD GT PUSH1 0x1 PUSH1 0x20 SHL DUP4 GT OR ISZERO PUSH2 0x60B JUMPI PUSH1 0x0 DUP1 REVERT JUMPDEST SWAP2 SWAP1 DUP1 DUP1 PUSH1 0x20 MUL PUSH1 0x20 ADD PUSH1 0x40 MLOAD SWAP1 DUP2 ADD PUSH1 0x40 MSTORE DUP1 SWAP4 SWAP3 SWAP2 SWAP1 DUP2 DUP2 MSTORE PUSH1 0x20 ADD DUP4 DUP4 PUSH1 0x20 MUL DUP1 DUP3 DUP5 CALLDATACOPY PUSH1 0x0 SWAP3 ADD SWAP2 SWAP1 SWAP2 MSTORE POP SWAP3 SWAP6 SWAP5 SWAP4 PUSH1 0x20 DUP2 ADD SWAP4 POP CALLDATALOAD SWAP2 POP POP PUSH1 0x1 PUSH1 0x20 SHL DUP2 GT ISZERO PUSH2 0x65A JUMPI PUSH1 0x0 DUP1 REVERT JUMPDEST DUP3 ADD DUP4 PUSH1 0x20 DUP3 ADD GT ISZERO PUSH2 0x66C JUMPI PUSH1 0x0 DUP1 REVERT JUMPDEST DUP1 CALLDATALOAD SWAP1 PUSH1 0x20 ADD SWAP2 DUP5 PUSH1 0x1 DUP4 MUL DUP5 ADD GT PUSH1 0x1 PUSH1 0x20 SHL DUP4 GT OR ISZERO PUSH2 0x68D JUMPI PUSH1 0x0 DUP1 REVERT JUMPDEST SWAP2 SWAP1 DUP1 DUP1 PUSH1 0x1F ADD PUSH1 0x20 DUP1 SWAP2 DIV MUL PUSH1 0x20 ADD PUSH1 0x40 MLOAD SWAP1 DUP2 ADD PUSH1 0x40 MSTORE DUP1 SWAP4 SWAP3 SWAP2 SWAP1 DUP2 DUP2 MSTORE PUSH1 0x20 ADD DUP4 DUP4 DUP1 DUP3 DUP5 CALLDATACOPY PUSH1 0x0 SWAP3 ADD SWAP2 SWAP1 SWAP2 MSTORE POP SWAP3 SWAP6 POP PUSH2 0x14B8 SWAP5 POP POP POP POP POP JUMP JUMPDEST CALLVALUE DUP1 ISZERO PUSH2 0x6DA JUMPI PUSH1 0x0 DUP1 REVERT JUMPDEST POP PUSH2 0x4FE PUSH1 0x4 DUP1 CALLDATASIZE SUB PUSH1 0x20 DUP2 LT ISZERO PUSH2 0x6F1 JUMPI PUSH1 0x0 DUP1 REVERT JUMPDEST DUP2 ADD SWAP1 PUSH1 0x20 DUP2 ADD DUP2 CALLDATALOAD PUSH1 0x1 PUSH1 0x20 SHL DUP2 GT ISZERO PUSH2 0x70B JUMPI PUSH1 0x0 DUP1 REVERT JUMPDEST DUP3 ADD DUP4 PUSH1 0x20 DUP3 ADD GT ISZERO PUSH2 0x71D JUMPI PUSH1 0x0 DUP1 REVERT JUMPDEST DUP1 CALLDATALOAD SWAP1 PUSH1 0x20 ADD SWAP2 DUP5 PUSH1 0x1 DUP4 MUL DUP5 ADD GT PUSH1 0x1 PUSH1 0x20 SHL DUP4 GT OR ISZERO PUSH2 0x73E JUMPI PUSH1 0x0 DUP1 REVERT JUMPDEST POP SWAP1 SWAP3 POP SWAP1 POP PUSH2 0x17BB JUMP JUMPDEST CALLVALUE DUP1 ISZERO PUSH2 0x755 JUMPI PUSH1 0x0 DUP1 REVERT JUMPDEST POP PUSH2 0x4FE PUSH1 0x4 DUP1 CALLDATASIZE SUB PUSH1 0x40 DUP2 LT ISZERO PUSH2 0x76C JUMPI PUSH1 0x0 DUP1 REVERT JUMPDEST POP DUP1 CALLDATALOAD SWAP1 PUSH1 0x20 ADD CALLDATALOAD PUSH1 0x1 PUSH1 0x1 PUSH1 0xA0 SHL SUB AND PUSH2 0x17D6 JUMP JUMPDEST CALLVALUE DUP1 ISZERO PUSH2 0x78E JUMPI PUSH1 0x0 DUP1 REVERT JUMPDEST POP PUSH2 0x4FE PUSH1 0x4 DUP1 CALLDATASIZE SUB PUSH1 0x40 DUP2 LT ISZERO PUSH2 0x7A5 JUMPI PUSH1 0x0 DUP1 REVERT JUMPDEST POP DUP1 CALLDATALOAD SWAP1 PUSH1 0x20 ADD CALLDATALOAD PUSH1 0x1 PUSH1 0x1 PUSH1 0xA0 SHL SUB AND PUSH2 0x183E JUMP JUMPDEST PUSH2 0x241 PUSH1 0x4 DUP1 CALLDATASIZE SUB PUSH1 0x40 DUP2 LT ISZERO PUSH2 0x7D1 JUMPI PUSH1 0x0 DUP1 REVERT JUMPDEST DUP2 CALLDATALOAD SWAP2 SWAP1 DUP2 ADD SWAP1 PUSH1 0x40 DUP2 ADD PUSH1 0x20 DUP3 ADD CALLDATALOAD PUSH1 0x1 PUSH1 0x20 SHL DUP2 GT ISZERO PUSH2 0x7F2 JUMPI PUSH1 0x0 DUP1 REVERT JUMPDEST DUP3 ADD DUP4 PUSH1 0x20 DUP3 ADD GT ISZERO PUSH2 0x804 JUMPI PUSH1 0x0 DUP1 REVERT JUMPDEST DUP1 CALLDATALOAD SWAP1 PUSH1 0x20 ADD SWAP2 DUP5 PUSH1 0x1 DUP4 MUL DUP5 ADD GT PUSH1 0x1 PUSH1 0x20 SHL DUP4 GT OR ISZERO PUSH2 0x825 JUMPI PUSH1 0x0 DUP1 REVERT JUMPDEST POP SWAP1 SWAP3 POP SWAP1 POP PUSH2 0x189F JUMP JUMPDEST CALLVALUE DUP1 ISZERO PUSH2 0x83C JUMPI PUSH1 0x0 DUP1 REVERT JUMPDEST POP PUSH2 0x960 PUSH1 0x4 DUP1 CALLDATASIZE SUB PUSH1 0x40 DUP2 LT ISZERO PUSH2 0x853 JUMPI PUSH1 0x0 DUP1 REVERT JUMPDEST DUP2 ADD SWAP1 PUSH1 0x20 DUP2 ADD DUP2 CALLDATALOAD PUSH1 0x1 PUSH1 0x20 SHL DUP2 GT ISZERO PUSH2 0x86D JUMPI PUSH1 0x0 DUP1 REVERT JUMPDEST DUP3 ADD DUP4 PUSH1 0x20 DUP3 ADD GT ISZERO PUSH2 0x87F JUMPI PUSH1 0x0 DUP1 REVERT JUMPDEST DUP1 CALLDATALOAD SWAP1 PUSH1 0x20 ADD SWAP2 DUP5 PUSH1 0x20 DUP4 MUL DUP5 ADD GT PUSH1 0x1 PUSH1 0x20 SHL DUP4 GT OR ISZERO PUSH2 0x8A0 JUMPI PUSH1 0x0 DUP1 REVERT JUMPDEST SWAP2 SWAP1 DUP1 DUP1 PUSH1 0x20 MUL PUSH1 0x20 ADD PUSH1 0x40 MLOAD SWAP1 DUP2 ADD PUSH1 0x40 MSTORE DUP1 SWAP4 SWAP3 SWAP2 SWAP1 DUP2 DUP2 MSTORE PUSH1 0x20 ADD DUP4 DUP4 PUSH1 0x20 MUL DUP1 DUP3 DUP5 CALLDATACOPY PUSH1 0x0 SWAP3 ADD SWAP2 SWAP1 SWAP2 MSTORE POP SWAP3 SWAP6 SWAP5 SWAP4 PUSH1 0x20 DUP2 ADD SWAP4 POP CALLDATALOAD SWAP2 POP POP PUSH1 0x1 PUSH1 0x20 SHL DUP2 GT ISZERO PUSH2 0x8EF JUMPI PUSH1 0x0 DUP1 REVERT JUMPDEST DUP3 ADD DUP4 PUSH1 0x20 DUP3 ADD GT ISZERO PUSH2 0x901 JUMPI PUSH1 0x0 DUP1 REVERT JUMPDEST DUP1 CALLDATALOAD SWAP1 PUSH1 0x20 ADD SWAP2 DUP5 PUSH1 0x20 DUP4 MUL DUP5 ADD GT PUSH1 0x1 PUSH1 0x20 SHL DUP4 GT OR ISZERO PUSH2 0x922 JUMPI PUSH1 0x0 DUP1 REVERT JUMPDEST SWAP2 SWAP1 DUP1 DUP1 PUSH1 0x20 MUL PUSH1 0x20 ADD PUSH1 0x40 MLOAD SWAP1 DUP2 ADD PUSH1 0x40 MSTORE DUP1 SWAP4 SWAP3 SWAP2 SWAP1 DUP2 DUP2 MSTORE PUSH1 0x20 ADD DUP4 DUP4 PUSH1 0x20 MUL DUP1 DUP3 DUP5 CALLDATACOPY PUSH1 0x0 SWAP3 ADD SWAP2 SWAP1 SWAP2 MSTORE POP SWAP3 SWAP6 POP PUSH2 0x1CB7 SWAP5 POP POP POP POP POP JUMP JUMPDEST PUSH1 0x40 DUP1 MLOAD PUSH1 0x20 DUP1 DUP3 MSTORE DUP4 MLOAD DUP2 DUP4 ADD MSTORE DUP4 MLOAD SWAP2 SWAP3 DUP4 SWAP3 SWAP1 DUP4 ADD SWAP2 DUP6 DUP2 ADD SWAP2 MUL DUP1 DUP4 DUP4 PUSH1 0x0 JUMPDEST DUP4 DUP2 LT ISZERO PUSH2 0x99C JUMPI DUP2 DUP2 ADD MLOAD DUP4 DUP3 ADD MSTORE PUSH1 0x20 ADD PUSH2 0x984 JUMP JUMPDEST POP POP POP POP SWAP1 POP ADD SWAP3 POP POP POP PUSH1 0x40 MLOAD DUP1 SWAP2 SUB SWAP1 RETURN JUMPDEST CALLVALUE DUP1 ISZERO PUSH2 0x9BC JUMPI PUSH1 0x0 DUP1 REVERT JUMPDEST POP PUSH2 0x9DA PUSH1 0x4 DUP1 CALLDATASIZE SUB PUSH1 0x20 DUP2 LT ISZERO PUSH2 0x9D3 JUMPI PUSH1 0x0 DUP1 REVERT JUMPDEST POP CALLDATALOAD PUSH2 0x1DA3 JUMP JUMPDEST PUSH1 0x40 DUP1 MLOAD PUSH1 0x1 PUSH1 0x1 PUSH1 0xA0 SHL SUB SWAP1 SWAP3 AND DUP3 MSTORE MLOAD SWAP1 DUP2 SWAP1 SUB PUSH1 0x20 ADD SWAP1 RETURN JUMPDEST CALLVALUE DUP1 ISZERO PUSH2 0xA02 JUMPI PUSH1 0x0 DUP1 REVERT JUMPDEST POP PUSH2 0x241 PUSH1 0x4 DUP1 CALLDATASIZE SUB PUSH1 0x40 DUP2 LT ISZERO PUSH2 0xA19 JUMPI PUSH1 0x0 DUP1 REVERT JUMPDEST POP DUP1 CALLDATALOAD SWAP1 PUSH1 0x20 ADD CALLDATALOAD PUSH2 0x1DEF JUMP JUMPDEST CALLVALUE DUP1 ISZERO PUSH2 0xA32 JUMPI PUSH1 0x0 DUP1 REVERT JUMPDEST POP PUSH2 0x9DA PUSH1 0x4 DUP1 CALLDATASIZE SUB PUSH1 0x20 DUP2 LT ISZERO PUSH2 0xA49 JUMPI PUSH1 0x0 DUP1 REVERT JUMPDEST POP CALLDATALOAD PUSH2 0x1E3A JUMP JUMPDEST CALLVALUE DUP1 ISZERO PUSH2 0xA5C JUMPI PUSH1 0x0 DUP1 REVERT JUMPDEST POP PUSH2 0x241 PUSH2 0x1E95 JUMP JUMPDEST CALLVALUE DUP1 ISZERO PUSH2 0xA71 JUMPI PUSH1 0x0 DUP1 REVERT JUMPDEST POP PUSH2 0x241 PUSH2 0x1E9B JUMP JUMPDEST CALLVALUE DUP1 ISZERO PUSH2 0xA86 JUMPI PUSH1 0x0 DUP1 REVERT JUMPDEST POP PUSH2 0x9DA PUSH1 0x4 DUP1 CALLDATASIZE SUB PUSH1 0x40 DUP2 LT ISZERO PUSH2 0xA9D JUMPI PUSH1 0x0 DUP1 REVERT JUMPDEST POP DUP1 CALLDATALOAD SWAP1 PUSH1 0x20 ADD CALLDATALOAD PUSH2 0x1EA1 JUMP JUMPDEST CALLVALUE DUP1 ISZERO PUSH2 0xAB6 JUMPI PUSH1 0x0 DUP1 REVERT JUMPDEST POP PUSH2 0x241 PUSH2 0x1EC0 JUMP JUMPDEST CALLVALUE DUP1 ISZERO PUSH2 0xACB JUMPI PUSH1 0x0 DUP1 REVERT JUMPDEST POP PUSH2 0x287 PUSH1 0x4 DUP1 CALLDATASIZE SUB PUSH1 0x40 DUP2 LT ISZERO PUSH2 0xAE2 JUMPI PUSH1 0x0 DUP1 REVERT JUMPDEST POP DUP1 CALLDATALOAD SWAP1 PUSH1 0x20 ADD CALLDATALOAD PUSH1 0x1 PUSH1 0x1 PUSH1 0xA0 SHL SUB AND PUSH2 0x1EC5 JUMP JUMPDEST CALLVALUE DUP1 ISZERO PUSH2 0xB04 JUMPI PUSH1 0x0 DUP1 REVERT JUMPDEST POP PUSH2 0x4FE PUSH1 0x4 DUP1 CALLDATASIZE SUB PUSH1 0x40 DUP2 LT ISZERO PUSH2 0xB1B JUMPI PUSH1 0x0 DUP1 REVERT JUMPDEST DUP2 ADD SWAP1 PUSH1 0x20 DUP2 ADD DUP2 CALLDATALOAD PUSH1 0x1 PUSH1 0x20 SHL DUP2 GT ISZERO PUSH2 0xB35 JUMPI PUSH1 0x0 DUP1 REVERT JUMPDEST DUP3 ADD DUP4 PUSH1 0x20 DUP3 ADD GT ISZERO PUSH2 0xB47 JUMPI PUSH1 0x0 DUP1 REVERT JUMPDEST DUP1 CALLDATALOAD SWAP1 PUSH1 0x20 ADD SWAP2 DUP5 PUSH1 0x1 DUP4 MUL DUP5 ADD GT PUSH1 0x1 PUSH1 0x20 SHL DUP4 GT OR ISZERO PUSH2 0xB68 JUMPI PUSH1 0x0 DUP1 REVERT JUMPDEST SWAP2 SWAP4 POP SWAP2 POP CALLDATALOAD PUSH1 0x1 PUSH1 0x1 PUSH1 0xA0 SHL SUB AND PUSH2 0x1EDD JUMP JUMPDEST CALLVALUE DUP1 ISZERO PUSH2 0xB88 JUMPI PUSH1 0x0 DUP1 REVERT JUMPDEST POP PUSH2 0x241 PUSH2 0x1F41 JUMP JUMPDEST CALLVALUE DUP1 ISZERO PUSH2 0xB9D JUMPI PUSH1 0x0 DUP1 REVERT JUMPDEST POP PUSH2 0x4FE PUSH1 0x4 DUP1 CALLDATASIZE SUB PUSH1 0x40 DUP2 LT ISZERO PUSH2 0xBB4 JUMPI PUSH1 0x0 DUP1 REVERT JUMPDEST POP PUSH1 0x1 PUSH1 0x1 PUSH1 0xA0 SHL SUB DUP2 CALLDATALOAD AND SWAP1 PUSH1 0x20 ADD CALLDATALOAD ISZERO ISZERO PUSH2 0x1F46 JUMP JUMPDEST CALLVALUE DUP1 ISZERO PUSH2 0xBD8 JUMPI PUSH1 0x0 DUP1 REVERT JUMPDEST POP PUSH2 0x4FE PUSH2 0x2035 JUMP JUMPDEST CALLVALUE DUP1 ISZERO PUSH2 0xBED JUMPI PUSH1 0x0 DUP1 REVERT JUMPDEST POP PUSH2 0x241 PUSH2 0x20CB JUMP JUMPDEST CALLVALUE DUP1 ISZERO PUSH2 0xC02 JUMPI PUSH1 0x0 DUP1 REVERT JUMPDEST POP PUSH2 0x4FE PUSH1 0x4 DUP1 CALLDATASIZE SUB PUSH1 0x20 DUP2 LT ISZERO PUSH2 0xC19 JUMPI PUSH1 0x0 DUP1 REVERT JUMPDEST POP CALLDATALOAD PUSH1 0xFF AND PUSH2 0x20D1 JUMP JUMPDEST CALLVALUE DUP1 ISZERO PUSH2 0xC2F JUMPI PUSH1 0x0 DUP1 REVERT JUMPDEST POP PUSH2 0x241 PUSH1 0x4 DUP1 CALLDATASIZE SUB PUSH1 0x20 DUP2 LT ISZERO PUSH2 0xC46 JUMPI PUSH1 0x0 DUP1 REVERT JUMPDEST POP CALLDATALOAD PUSH2 0x2108 JUMP JUMPDEST CALLVALUE DUP1 ISZERO PUSH2 0xC59 JUMPI PUSH1 0x0 DUP1 REVERT JUMPDEST POP PUSH2 0x241 PUSH2 0x211F JUMP JUMPDEST CALLVALUE DUP1 ISZERO PUSH2 0xC6E JUMPI PUSH1 0x0 DUP1 REVERT JUMPDEST POP PUSH2 0x4FE PUSH1 0x4 DUP1 CALLDATASIZE SUB PUSH1 0x40 DUP2 LT ISZERO PUSH2 0xC85 JUMPI PUSH1 0x0 DUP1 REVERT JUMPDEST POP DUP1 CALLDATALOAD SWAP1 PUSH1 0x20 ADD CALLDATALOAD PUSH1 0x1 PUSH1 0x1 PUSH1 0xA0 SHL SUB AND PUSH2 0x2125 JUMP JUMPDEST CALLVALUE DUP1 ISZERO PUSH2 0xCA7 JUMPI PUSH1 0x0 DUP1 REVERT JUMPDEST POP PUSH2 0x4FE PUSH1 0x4 DUP1 CALLDATASIZE SUB PUSH1 0x20 DUP2 LT ISZERO PUSH2 0xCBE JUMPI PUSH1 0x0 DUP1 REVERT JUMPDEST POP CALLDATALOAD PUSH2 0x217E JUMP JUMPDEST CALLVALUE DUP1 ISZERO PUSH2 0xCD1 JUMPI PUSH1 0x0 DUP1 REVERT JUMPDEST POP PUSH2 0x287 PUSH1 0x4 DUP1 CALLDATASIZE SUB PUSH1 0x40 DUP2 LT ISZERO PUSH2 0xCE8 JUMPI PUSH1 0x0 DUP1 REVERT JUMPDEST POP PUSH1 0x1 PUSH1 0x1 PUSH1 0xA0 SHL SUB DUP2 CALLDATALOAD DUP2 AND SWAP2 PUSH1 0x20 ADD CALLDATALOAD AND PUSH2 0x219A JUMP JUMPDEST CALLVALUE DUP1 ISZERO PUSH2 0xD0C JUMPI PUSH1 0x0 DUP1 REVERT JUMPDEST POP PUSH2 0x4FE PUSH1 0x4 DUP1 CALLDATASIZE SUB PUSH1 0xA0 DUP2 LT ISZERO PUSH2 0xD23 JUMPI PUSH1 0x0 DUP1 REVERT JUMPDEST PUSH1 0x1 PUSH1 0x1 PUSH1 0xA0 SHL SUB DUP3 CALLDATALOAD DUP2 AND SWAP3 PUSH1 0x20 DUP2 ADD CALLDATALOAD SWAP1 SWAP2 AND SWAP2 PUSH1 0x40 DUP3 ADD CALLDATALOAD SWAP2 PUSH1 0x60 DUP2 ADD CALLDATALOAD SWAP2 DUP2 ADD SWAP1 PUSH1 0xA0 DUP2 ADD PUSH1 0x80 DUP3 ADD CALLDATALOAD PUSH1 0x1 PUSH1 0x20 SHL DUP2 GT ISZERO PUSH2 0xD62 JUMPI PUSH1 0x0 DUP1 REVERT JUMPDEST DUP3 ADD DUP4 PUSH1 0x20 DUP3 ADD GT ISZERO PUSH2 0xD74 JUMPI PUSH1 0x0 DUP1 REVERT JUMPDEST DUP1 CALLDATALOAD SWAP1 PUSH1 0x20 ADD SWAP2 DUP5 PUSH1 0x1 DUP4 MUL DUP5 ADD GT PUSH1 0x1 PUSH1 0x20 SHL DUP4 GT OR ISZERO PUSH2 0xD95 JUMPI PUSH1 0x0 DUP1 REVERT JUMPDEST SWAP2 SWAP1 DUP1 DUP1 PUSH1 0x1F ADD PUSH1 0x20 DUP1 SWAP2 DIV MUL PUSH1 0x20 ADD PUSH1 0x40 MLOAD SWAP1 DUP2 ADD PUSH1 0x40 MSTORE DUP1 SWAP4 SWAP3 SWAP2 SWAP1 DUP2 DUP2 MSTORE PUSH1 0x20 ADD DUP4 DUP4 DUP1 DUP3 DUP5 CALLDATACOPY PUSH1 0x0 SWAP3 ADD SWAP2 SWAP1 SWAP2 MSTORE POP SWAP3 SWAP6 POP PUSH2 0x21C8 SWAP5 POP POP POP POP POP JUMP JUMPDEST CALLVALUE DUP1 ISZERO PUSH2 0xDE2 JUMPI PUSH1 0x0 DUP1 REVERT JUMPDEST POP PUSH2 0x241 PUSH1 0x4 DUP1 CALLDATASIZE SUB PUSH1 0x40 DUP2 LT ISZERO PUSH2 0xDF9 JUMPI PUSH1 0x0 DUP1 REVERT JUMPDEST POP DUP1 CALLDATALOAD SWAP1 PUSH1 0x20 ADD CALLDATALOAD PUSH2 0x2393 JUMP JUMPDEST PUSH1 0x0 PUSH1 0x1 PUSH1 0x1 PUSH1 0xA0 SHL SUB DUP4 AND PUSH2 0xE4D JUMPI PUSH1 0x40 MLOAD PUSH3 0x461BCD PUSH1 0xE5 SHL DUP2 MSTORE PUSH1 0x4 ADD DUP1 DUP1 PUSH1 0x20 ADD DUP3 DUP2 SUB DUP3 MSTORE PUSH1 0x2B DUP2 MSTORE PUSH1 0x20 ADD DUP1 PUSH2 0x3529 PUSH1 0x2B SWAP2 CODECOPY PUSH1 0x40 ADD SWAP2 POP POP PUSH1 0x40 MLOAD DUP1 SWAP2 SUB SWAP1 REVERT JUMPDEST POP PUSH1 0x0 DUP2 DUP2 MSTORE PUSH1 0x2 PUSH1 0x20 SWAP1 DUP2 MSTORE PUSH1 0x40 DUP1 DUP4 KECCAK256 PUSH1 0x1 PUSH1 0x1 PUSH1 0xA0 SHL SUB DUP7 AND DUP5 MSTORE SWAP1 SWAP2 MSTORE SWAP1 KECCAK256 SLOAD JUMPDEST SWAP3 SWAP2 POP POP JUMP JUMPDEST PUSH1 0x1 PUSH1 0x1 PUSH1 0xE0 SHL SUB NOT DUP2 AND PUSH1 0x0 SWAP1 DUP2 MSTORE PUSH1 0x1 PUSH1 0x20 MSTORE PUSH1 0x40 SWAP1 KECCAK256 SLOAD PUSH1 0xFF AND JUMPDEST SWAP2 SWAP1 POP JUMP JUMPDEST PUSH1 0x5 SLOAD PUSH1 0xFF AND DUP2 JUMP JUMPDEST PUSH1 0x4 DUP1 SLOAD PUSH1 0x40 DUP1 MLOAD PUSH1 0x20 PUSH1 0x1F PUSH1 0x2 PUSH1 0x0 NOT PUSH2 0x100 PUSH1 0x1 DUP9 AND ISZERO MUL ADD SWAP1 SWAP6 AND SWAP5 SWAP1 SWAP5 DIV SWAP4 DUP5 ADD DUP2 SWAP1 DIV DUP2 MUL DUP3 ADD DUP2 ADD SWAP1 SWAP3 MSTORE DUP3 DUP2 MSTORE PUSH1 0x60 SWAP4 SWAP1 SWAP3 SWAP1 SWAP2 DUP4 ADD DUP3 DUP3 DUP1 ISZERO PUSH2 0xF30 JUMPI DUP1 PUSH1 0x1F LT PUSH2 0xF05 JUMPI PUSH2 0x100 DUP1 DUP4 SLOAD DIV MUL DUP4 MSTORE SWAP2 PUSH1 0x20 ADD SWAP2 PUSH2 0xF30 JUMP JUMPDEST DUP3 ADD SWAP2 SWAP1 PUSH1 0x0 MSTORE PUSH1 0x20 PUSH1 0x0 KECCAK256 SWAP1 JUMPDEST DUP2 SLOAD DUP2 MSTORE SWAP1 PUSH1 0x1 ADD SWAP1 PUSH1 0x20 ADD DUP1 DUP4 GT PUSH2 0xF13 JUMPI DUP3 SWAP1 SUB PUSH1 0x1F AND DUP3 ADD SWAP2 JUMPDEST POP POP POP POP POP SWAP1 POP SWAP2 SWAP1 POP JUMP JUMPDEST PUSH1 0x0 PUSH1 0x7 PUSH1 0x6 SLOAD LT PUSH2 0xF4D JUMPI PUSH1 0x0 DUP1 REVERT JUMPDEST PUSH1 0xD SLOAD CALLVALUE LT ISZERO PUSH2 0xF5C JUMPI PUSH1 0x0 DUP1 REVERT JUMPDEST PUSH1 0x0 PUSH1 0x1 PUSH1 0x1 PUSH1 0xA0 SHL SUB AND PUSH1 0xF DUP5 DUP5 PUSH1 0x40 MLOAD DUP1 DUP4 DUP4 DUP1 DUP3 DUP5 CALLDATACOPY SWAP2 SWAP1 SWAP2 ADD SWAP5 DUP6 MSTORE POP POP PUSH1 0x40 MLOAD SWAP3 DUP4 SWAP1 SUB PUSH1 0x20 ADD SWAP1 SWAP3 KECCAK256 SLOAD PUSH1 0x1 PUSH1 0x1 PUSH1 0xA0 SHL SUB AND SWAP3 SWAP1 SWAP3 EQ ISZERO SWAP2 POP PUSH2 0xFA7 SWAP1 POP JUMPI PUSH1 0x0 DUP1 REVERT JUMPDEST PUSH1 0x6 SLOAD PUSH1 0x0 SWAP1 PUSH2 0xFB8 SWAP1 PUSH1 0x1 PUSH2 0x2420 JUMP JUMPDEST PUSH1 0x0 DUP2 DUP2 MSTORE PUSH1 0x7 PUSH1 0x20 MSTORE PUSH1 0x40 SWAP1 KECCAK256 SLOAD SWAP1 SWAP2 POP PUSH1 0x1 PUSH1 0x1 PUSH1 0xA0 SHL SUB AND ISZERO PUSH2 0xFDA JUMPI INVALID JUMPDEST PUSH1 0x0 DUP2 DUP2 MSTORE PUSH1 0x8 PUSH1 0x20 MSTORE PUSH1 0x40 SWAP1 KECCAK256 SLOAD PUSH1 0xFF AND ISZERO PUSH2 0xFF3 JUMPI INVALID JUMPDEST PUSH1 0x0 PUSH1 0xF DUP6 DUP6 PUSH1 0x40 MLOAD DUP1 DUP4 DUP4 DUP1 DUP3 DUP5 CALLDATACOPY SWAP2 SWAP1 SWAP2 ADD SWAP5 DUP6 MSTORE POP POP PUSH1 0x40 DUP1 MLOAD SWAP4 DUP5 SWAP1 SUB PUSH1 0x20 ADD DUP5 KECCAK256 SLOAD PUSH4 0x3FABE5A3 PUSH1 0xE2 SHL DUP6 MSTORE SWAP1 MLOAD PUSH1 0x1 PUSH1 0x1 PUSH1 0xA0 SHL SUB SWAP1 SWAP2 AND SWAP4 PUSH4 0xFEAF968C SWAP4 POP PUSH1 0x4 DUP1 DUP3 ADD SWAP4 POP PUSH1 0xA0 SWAP3 SWAP2 DUP3 SWAP1 SUB ADD DUP2 DUP7 DUP1 EXTCODESIZE ISZERO DUP1 ISZERO PUSH2 0x1058 JUMPI PUSH1 0x0 DUP1 REVERT JUMPDEST POP GAS STATICCALL ISZERO DUP1 ISZERO PUSH2 0x106C JUMPI RETURNDATASIZE PUSH1 0x0 DUP1 RETURNDATACOPY RETURNDATASIZE PUSH1 0x0 REVERT JUMPDEST POP POP POP POP PUSH1 0x40 MLOAD RETURNDATASIZE PUSH1 0xA0 DUP2 LT ISZERO PUSH2 0x1082 JUMPI PUSH1 0x0 DUP1 REVERT JUMPDEST POP PUSH1 0x20 ADD MLOAD SWAP1 POP PUSH2 0x1091 PUSH2 0x32CD JUMP JUMPDEST PUSH1 0x1 DUP2 MSTORE PUSH1 0x20 DUP1 DUP3 ADD DUP10 SWAP1 MSTORE PUSH1 0x40 DUP1 DUP4 ADD DUP10 SWAP1 MSTORE DUP1 MLOAD PUSH1 0x1F DUP9 ADD DUP4 SWAP1 DIV DUP4 MUL DUP2 ADD DUP4 ADD SWAP1 SWAP2 MSTORE DUP7 DUP2 MSTORE SWAP1 DUP8 SWAP1 DUP8 SWAP1 DUP2 SWAP1 DUP5 ADD DUP4 DUP3 DUP1 DUP3 DUP5 CALLDATACOPY PUSH1 0x0 SWAP3 ADD SWAP2 SWAP1 SWAP2 MSTORE POP POP POP POP PUSH1 0x60 DUP3 ADD MSTORE PUSH1 0x80 DUP2 ADD DUP3 SWAP1 MSTORE PUSH2 0x1104 PUSH2 0x10EC PUSH2 0x247A JUMP JUMPDEST DUP5 PUSH1 0x1 PUSH1 0x40 MLOAD DUP1 PUSH1 0x20 ADD PUSH1 0x40 MSTORE DUP1 PUSH1 0x0 DUP2 MSTORE POP PUSH2 0x247F JUMP JUMPDEST PUSH2 0x110C PUSH2 0x247A JUMP JUMPDEST PUSH1 0x0 DUP5 DUP2 MSTORE PUSH1 0x7 PUSH1 0x20 SWAP1 DUP2 MSTORE PUSH1 0x40 DUP1 DUP4 KECCAK256 DUP1 SLOAD PUSH1 0x1 PUSH1 0x1 PUSH1 0xA0 SHL SUB NOT AND PUSH1 0x1 PUSH1 0x1 PUSH1 0xA0 SHL SUB SWAP6 SWAP1 SWAP6 AND SWAP5 SWAP1 SWAP5 OR SWAP1 SWAP4 SSTORE PUSH1 0x8 DUP2 MSTORE SWAP1 DUP3 SWAP1 KECCAK256 DUP4 MLOAD DUP2 SLOAD PUSH1 0xFF NOT AND SWAP1 ISZERO ISZERO OR DUP2 SSTORE DUP4 DUP3 ADD MLOAD PUSH1 0x1 DUP3 ADD SSTORE SWAP2 DUP4 ADD MLOAD PUSH1 0x2 DUP4 ADD SSTORE PUSH1 0x60 DUP4 ADD MLOAD DUP1 MLOAD DUP5 SWAP4 SWAP3 PUSH2 0x117F SWAP3 PUSH1 0x3 DUP6 ADD SWAP3 SWAP2 ADD SWAP1 PUSH2 0x32FE JUMP JUMPDEST POP PUSH1 0x80 SWAP2 SWAP1 SWAP2 ADD MLOAD PUSH1 0x4 SWAP1 SWAP2 ADD SSTORE PUSH1 0x6 SLOAD PUSH2 0x119B SWAP1 PUSH1 0x1 PUSH2 0x2420 JUMP JUMPDEST PUSH1 0x6 SSTORE PUSH1 0xD SLOAD PUSH2 0x11AA SWAP1 PUSH2 0x2587 JUMP JUMPDEST PUSH32 0x3560F0337E62819199860BA21B425B8BDE9A01FA6E514DD58AB6EDF7DAF1D1F1 DUP4 PUSH2 0x11D4 PUSH2 0x247A JUMP JUMPDEST PUSH1 0x40 DUP1 MLOAD SWAP3 DUP4 MSTORE PUSH1 0x1 PUSH1 0x1 PUSH1 0xA0 SHL SUB SWAP1 SWAP2 AND PUSH1 0x20 DUP4 ADD MSTORE DUP1 MLOAD SWAP2 DUP3 SWAP1 SUB ADD SWAP1 LOG1 POP SWAP1 SWAP7 SWAP6 POP POP POP POP POP POP JUMP JUMPDEST PUSH1 0x0 DUP1 PUSH1 0x0 PUSH1 0x60 PUSH1 0x0 DUP6 PUSH1 0x0 DUP2 GT DUP1 ISZERO PUSH2 0x121B JUMPI POP PUSH1 0x7 DUP2 GT ISZERO JUMPDEST PUSH2 0x1224 JUMPI PUSH1 0x0 DUP1 REVERT JUMPDEST PUSH2 0x122C PUSH2 0x32CD JUMP JUMPDEST PUSH1 0x0 DUP9 DUP2 MSTORE PUSH1 0x8 PUSH1 0x20 SWAP1 DUP2 MSTORE PUSH1 0x40 SWAP2 DUP3 SWAP1 KECCAK256 DUP3 MLOAD PUSH1 0xA0 DUP2 ADD DUP5 MSTORE DUP2 SLOAD PUSH1 0xFF AND ISZERO ISZERO DUP2 MSTORE PUSH1 0x1 DUP1 DUP4 ADD SLOAD DUP3 DUP6 ADD MSTORE PUSH1 0x2 DUP1 DUP5 ADD SLOAD DUP4 DUP8 ADD MSTORE PUSH1 0x3 DUP5 ADD DUP1 SLOAD DUP8 MLOAD PUSH2 0x100 SWAP5 DUP3 AND ISZERO SWAP5 SWAP1 SWAP5 MUL PUSH1 0x0 NOT ADD AND SWAP2 SWAP1 SWAP2 DIV PUSH1 0x1F DUP2 ADD DUP7 SWAP1 DIV DUP7 MUL DUP4 ADD DUP7 ADD SWAP1 SWAP7 MSTORE DUP6 DUP3 MSTORE SWAP2 SWAP5 SWAP3 SWAP4 PUSH1 0x60 DUP7 ADD SWAP4 SWAP2 SWAP3 SWAP2 SWAP1 DUP4 ADD DUP3 DUP3 DUP1 ISZERO PUSH2 0x12F0 JUMPI DUP1 PUSH1 0x1F LT PUSH2 0x12C5 JUMPI PUSH2 0x100 DUP1 DUP4 SLOAD DIV MUL DUP4 MSTORE SWAP2 PUSH1 0x20 ADD SWAP2 PUSH2 0x12F0 JUMP JUMPDEST DUP3 ADD SWAP2 SWAP1 PUSH1 0x0 MSTORE PUSH1 0x20 PUSH1 0x0 KECCAK256 SWAP1 JUMPDEST DUP2 SLOAD DUP2 MSTORE SWAP1 PUSH1 0x1 ADD SWAP1 PUSH1 0x20 ADD DUP1 DUP4 GT PUSH2 0x12D3 JUMPI DUP3 SWAP1 SUB PUSH1 0x1F AND DUP3 ADD SWAP2 JUMPDEST POP POP POP SWAP2 DUP4 MSTORE POP POP PUSH1 0x4 SWAP2 SWAP1 SWAP2 ADD SLOAD PUSH1 0x20 SWAP2 DUP3 ADD MSTORE DUP2 MLOAD SWAP1 DUP3 ADD MLOAD PUSH1 0x40 DUP4 ADD MLOAD PUSH1 0x60 DUP5 ADD MLOAD PUSH1 0x80 SWAP1 SWAP5 ADD MLOAD SWAP3 SWAP13 SWAP2 SWAP12 POP SWAP10 POP SWAP2 SWAP8 POP SWAP6 POP SWAP4 POP POP POP POP JUMP JUMPDEST PUSH1 0x0 SWAP1 DUP2 MSTORE PUSH1 0x20 DUP2 SWAP1 MSTORE PUSH1 0x40 SWAP1 KECCAK256 PUSH1 0x2 ADD SLOAD SWAP1 JUMP JUMPDEST PUSH1 0x7 DUP2 GT PUSH2 0x1350 JUMPI PUSH1 0x0 DUP1 REVERT JUMPDEST PUSH1 0x0 DUP2 DUP2 MSTORE PUSH1 0xB PUSH1 0x20 MSTORE PUSH1 0x40 SWAP1 KECCAK256 SLOAD PUSH1 0xFF AND PUSH2 0x136B JUMPI PUSH1 0x0 DUP1 REVERT JUMPDEST PUSH2 0x1373 PUSH2 0x247A JUMP JUMPDEST PUSH1 0x0 DUP3 DUP2 MSTORE PUSH1 0xA PUSH1 0x20 MSTORE PUSH1 0x40 SWAP1 KECCAK256 SLOAD PUSH1 0x1 PUSH1 0x1 PUSH1 0xA0 SHL SUB SWAP1 DUP2 AND SWAP2 AND EQ PUSH2 0x1399 JUMPI PUSH1 0x0 DUP1 REVERT JUMPDEST PUSH1 0x0 DUP2 DUP2 MSTORE PUSH1 0xA PUSH1 0x20 MSTORE PUSH1 0x40 SWAP1 KECCAK256 SLOAD PUSH2 0x13BD SWAP1 PUSH1 0x1 PUSH1 0x1 PUSH1 0xA0 SHL SUB AND DUP3 PUSH1 0x1 PUSH2 0x25F8 JUMP JUMPDEST PUSH1 0x0 DUP2 DUP2 MSTORE PUSH1 0xB PUSH1 0x20 SWAP1 DUP2 MSTORE PUSH1 0x40 DUP1 DUP4 KECCAK256 PUSH1 0x2 DUP2 ADD SLOAD PUSH1 0x1 SWAP2 DUP3 ADD SLOAD DUP1 DUP7 MSTORE PUSH1 0xC DUP6 MSTORE DUP4 DUP7 KECCAK256 DUP3 DUP8 MSTORE SWAP1 SWAP5 MSTORE SWAP2 SWAP1 SWAP4 KECCAK256 SLOAD SWAP1 SWAP3 PUSH2 0x13FA SWAP2 SWAP1 PUSH2 0x272B JUMP JUMPDEST PUSH1 0x0 DUP3 DUP2 MSTORE PUSH1 0xC PUSH1 0x20 SWAP1 DUP2 MSTORE PUSH1 0x40 DUP1 DUP4 KECCAK256 DUP7 DUP5 MSTORE DUP3 MSTORE DUP1 DUP4 KECCAK256 SWAP4 SWAP1 SWAP4 SSTORE DUP6 DUP3 MSTORE PUSH1 0xA DUP2 MSTORE DUP3 DUP3 KECCAK256 DUP1 SLOAD PUSH1 0x1 PUSH1 0x1 PUSH1 0xA0 SHL SUB NOT AND SWAP1 SSTORE PUSH1 0xB DUP1 DUP3 MSTORE DUP4 DUP4 KECCAK256 DUP1 SLOAD PUSH1 0xFF NOT AND DUP2 SSTORE PUSH1 0x1 DUP2 ADD DUP5 SWAP1 SSTORE PUSH1 0x2 DUP2 ADD DUP5 SWAP1 SSTORE PUSH1 0x3 DUP2 ADD DUP5 SWAP1 SSTORE PUSH1 0x4 DUP2 ADD DUP5 SWAP1 SSTORE DUP5 MLOAD DUP1 DUP5 ADD SWAP6 DUP7 SWAP1 MSTORE DUP5 DUP2 MSTORE SWAP4 DUP9 SWAP1 MSTORE SWAP2 MSTORE SWAP1 MLOAD PUSH2 0x147F SWAP3 PUSH1 0x5 SWAP1 SWAP3 ADD SWAP2 SWAP1 PUSH2 0x32FE JUMP JUMPDEST POP PUSH1 0x40 DUP1 MLOAD DUP5 DUP2 MSTORE SWAP1 MLOAD PUSH32 0x76126F33D318ABE88F8B82C5136B7E5A52091AB897679A40F612D7590ADFC997 SWAP2 DUP2 SWAP1 SUB PUSH1 0x20 ADD SWAP1 LOG1 POP POP POP JUMP JUMPDEST DUP2 MLOAD DUP4 MLOAD EQ PUSH2 0x14F8 JUMPI PUSH1 0x40 MLOAD PUSH3 0x461BCD PUSH1 0xE5 SHL DUP2 MSTORE PUSH1 0x4 ADD DUP1 DUP1 PUSH1 0x20 ADD DUP3 DUP2 SUB DUP3 MSTORE PUSH1 0x28 DUP2 MSTORE PUSH1 0x20 ADD DUP1 PUSH2 0x3708 PUSH1 0x28 SWAP2 CODECOPY PUSH1 0x40 ADD SWAP2 POP POP PUSH1 0x40 MLOAD DUP1 SWAP2 SUB SWAP1 REVERT JUMPDEST PUSH1 0x1 PUSH1 0x1 PUSH1 0xA0 SHL SUB DUP5 AND PUSH2 0x153D JUMPI PUSH1 0x40 MLOAD PUSH3 0x461BCD PUSH1 0xE5 SHL DUP2 MSTORE PUSH1 0x4 ADD DUP1 DUP1 PUSH1 0x20 ADD DUP3 DUP2 SUB DUP3 MSTORE PUSH1 0x25 DUP2 MSTORE PUSH1 0x20 ADD DUP1 PUSH2 0x35D1 PUSH1 0x25 SWAP2 CODECOPY PUSH1 0x40 ADD SWAP2 POP POP PUSH1 0x40 MLOAD DUP1 SWAP2 SUB SWAP1 REVERT JUMPDEST PUSH2 0x1545 PUSH2 0x247A JUMP JUMPDEST PUSH1 0x1 PUSH1 0x1 PUSH1 0xA0 SHL SUB AND DUP6 PUSH1 0x1 PUSH1 0x1 PUSH1 0xA0 SHL SUB AND EQ DUP1 PUSH2 0x1570 JUMPI POP PUSH2 0x1570 DUP6 PUSH2 0x156B PUSH2 0x247A JUMP JUMPDEST PUSH2 0x219A JUMP JUMPDEST PUSH2 0x15AB JUMPI PUSH1 0x40 MLOAD PUSH3 0x461BCD PUSH1 0xE5 SHL DUP2 MSTORE PUSH1 0x4 ADD DUP1 DUP1 PUSH1 0x20 ADD DUP3 DUP2 SUB DUP3 MSTORE PUSH1 0x32 DUP2 MSTORE PUSH1 0x20 ADD DUP1 PUSH2 0x35F6 PUSH1 0x32 SWAP2 CODECOPY PUSH1 0x40 ADD SWAP2 POP POP PUSH1 0x40 MLOAD DUP1 SWAP2 SUB SWAP1 REVERT JUMPDEST PUSH1 0x0 PUSH2 0x15B5 PUSH2 0x247A JUMP JUMPDEST SWAP1 POP PUSH2 0x15C5 DUP2 DUP8 DUP8 DUP8 DUP8 DUP8 PUSH2 0x2788 JUMP JUMPDEST PUSH1 0x0 JUMPDEST DUP5 MLOAD DUP2 LT ISZERO PUSH2 0x16CB JUMPI PUSH1 0x0 DUP6 DUP3 DUP2 MLOAD DUP2 LT PUSH2 0x15DF JUMPI INVALID JUMPDEST PUSH1 0x20 MUL PUSH1 0x20 ADD ADD MLOAD SWAP1 POP PUSH1 0x0 DUP6 DUP4 DUP2 MLOAD DUP2 LT PUSH2 0x15F7 JUMPI INVALID JUMPDEST PUSH1 0x20 MUL PUSH1 0x20 ADD ADD MLOAD SWAP1 POP PUSH2 0x1664 DUP2 PUSH1 0x40 MLOAD DUP1 PUSH1 0x60 ADD PUSH1 0x40 MSTORE DUP1 PUSH1 0x2A DUP2 MSTORE PUSH1 0x20 ADD PUSH2 0x366B PUSH1 0x2A SWAP2 CODECOPY PUSH1 0x2 PUSH1 0x0 DUP7 DUP2 MSTORE PUSH1 0x20 ADD SWAP1 DUP2 MSTORE PUSH1 0x20 ADD PUSH1 0x0 KECCAK256 PUSH1 0x0 DUP14 PUSH1 0x1 PUSH1 0x1 PUSH1 0xA0 SHL SUB AND PUSH1 0x1 PUSH1 0x1 PUSH1 0xA0 SHL SUB AND DUP2 MSTORE PUSH1 0x20 ADD SWAP1 DUP2 MSTORE PUSH1 0x20 ADD PUSH1 0x0 KECCAK256 SLOAD PUSH2 0x28A3 SWAP1 SWAP3 SWAP2 SWAP1 PUSH4 0xFFFFFFFF AND JUMP JUMPDEST PUSH1 0x0 DUP4 DUP2 MSTORE PUSH1 0x2 PUSH1 0x20 SWAP1 DUP2 MSTORE PUSH1 0x40 DUP1 DUP4 KECCAK256 PUSH1 0x1 PUSH1 0x1 PUSH1 0xA0 SHL SUB DUP15 DUP2 AND DUP6 MSTORE SWAP3 MSTORE DUP1 DUP4 KECCAK256 SWAP4 SWAP1 SWAP4 SSTORE DUP11 AND DUP2 MSTORE KECCAK256 SLOAD PUSH2 0x169B SWAP1 DUP3 PUSH2 0x2420 JUMP JUMPDEST PUSH1 0x0 SWAP3 DUP4 MSTORE PUSH1 0x2 PUSH1 0x20 SWAP1 DUP2 MSTORE PUSH1 0x40 DUP1 DUP6 KECCAK256 PUSH1 0x1 PUSH1 0x1 PUSH1 0xA0 SHL SUB DUP13 AND DUP7 MSTORE SWAP1 SWAP2 MSTORE SWAP1 SWAP3 KECCAK256 SWAP2 SWAP1 SWAP2 SSTORE POP PUSH1 0x1 ADD PUSH2 0x15C8 JUMP JUMPDEST POP DUP5 PUSH1 0x1 PUSH1 0x1 PUSH1 0xA0 SHL SUB AND DUP7 PUSH1 0x1 PUSH1 0x1 PUSH1 0xA0 SHL SUB AND DUP3 PUSH1 0x1 PUSH1 0x1 PUSH1 0xA0 SHL SUB AND PUSH32 0x4A39DC06D4C0DBC64B70AF90FD698A233A518AA5D07E595D983B8C0526C8F7FB DUP8 DUP8 PUSH1 0x40 MLOAD DUP1 DUP1 PUSH1 0x20 ADD DUP1 PUSH1 0x20 ADD DUP4 DUP2 SUB DUP4 MSTORE DUP6 DUP2 DUP2 MLOAD DUP2 MSTORE PUSH1 0x20 ADD SWAP2 POP DUP1 MLOAD SWAP1 PUSH1 0x20 ADD SWAP1 PUSH1 0x20 MUL DUP1 DUP4 DUP4 PUSH1 0x0 JUMPDEST DUP4 DUP2 LT ISZERO PUSH2 0x1751 JUMPI DUP2 DUP2 ADD MLOAD DUP4 DUP3 ADD MSTORE PUSH1 0x20 ADD PUSH2 0x1739 JUMP JUMPDEST POP POP POP POP SWAP1 POP ADD DUP4 DUP2 SUB DUP3 MSTORE DUP5 DUP2 DUP2 MLOAD DUP2 MSTORE PUSH1 0x20 ADD SWAP2 POP DUP1 MLOAD SWAP1 PUSH1 0x20 ADD SWAP1 PUSH1 0x20 MUL DUP1 DUP4 DUP4 PUSH1 0x0 JUMPDEST DUP4 DUP2 LT ISZERO PUSH2 0x1790 JUMPI DUP2 DUP2 ADD MLOAD DUP4 DUP3 ADD MSTORE PUSH1 0x20 ADD PUSH2 0x1778 JUMP JUMPDEST POP POP POP POP SWAP1 POP ADD SWAP5 POP POP POP POP POP PUSH1 0x40 MLOAD DUP1 SWAP2 SUB SWAP1 LOG4 PUSH2 0x17B3 DUP2 DUP8 DUP8 DUP8 DUP8 DUP8 PUSH2 0x293A JUMP JUMPDEST POP POP POP POP POP POP JUMP JUMPDEST PUSH2 0x17D2 PUSH1 0x0 DUP1 MLOAD PUSH1 0x20 PUSH2 0x3628 DUP4 CODECOPY DUP2 MLOAD SWAP2 MSTORE PUSH2 0x2BB0 JUMP JUMPDEST POP POP JUMP JUMPDEST PUSH1 0x0 DUP3 DUP2 MSTORE PUSH1 0x20 DUP2 SWAP1 MSTORE PUSH1 0x40 SWAP1 KECCAK256 PUSH1 0x2 ADD SLOAD PUSH2 0x17F9 SWAP1 PUSH2 0x17F4 PUSH2 0x247A JUMP JUMPDEST PUSH2 0x1EC5 JUMP JUMPDEST PUSH2 0x1834 JUMPI PUSH1 0x40 MLOAD PUSH3 0x461BCD PUSH1 0xE5 SHL DUP2 MSTORE PUSH1 0x4 ADD DUP1 DUP1 PUSH1 0x20 ADD DUP3 DUP2 SUB DUP3 MSTORE PUSH1 0x2F DUP2 MSTORE PUSH1 0x20 ADD DUP1 PUSH2 0x34FA PUSH1 0x2F SWAP2 CODECOPY PUSH1 0x40 ADD SWAP2 POP POP PUSH1 0x40 MLOAD DUP1 SWAP2 SUB SWAP1 REVERT JUMPDEST PUSH2 0x17D2 DUP3 DUP3 PUSH2 0x2BC3 JUMP JUMPDEST PUSH2 0x1846 PUSH2 0x247A JUMP JUMPDEST PUSH1 0x1 PUSH1 0x1 PUSH1 0xA0 SHL SUB AND DUP2 PUSH1 0x1 PUSH1 0x1 PUSH1 0xA0 SHL SUB AND EQ PUSH2 0x1895 JUMPI PUSH1 0x40 MLOAD PUSH3 0x461BCD PUSH1 0xE5 SHL DUP2 MSTORE PUSH1 0x4 ADD DUP1 DUP1 PUSH1 0x20 ADD DUP3 DUP2 SUB DUP3 MSTORE PUSH1 0x2F DUP2 MSTORE PUSH1 0x20 ADD DUP1 PUSH2 0x3751 PUSH1 0x2F SWAP2 CODECOPY PUSH1 0x40 ADD SWAP2 POP POP PUSH1 0x40 MLOAD DUP1 SWAP2 SUB SWAP1 REVERT JUMPDEST PUSH2 0x17D2 DUP3 DUP3 PUSH2 0x2C2C JUMP JUMPDEST PUSH1 0x0 DUP4 PUSH1 0x0 DUP2 GT DUP1 ISZERO PUSH2 0x18B3 JUMPI POP PUSH1 0x7 DUP2 GT ISZERO JUMPDEST PUSH2 0x18BC JUMPI PUSH1 0x0 DUP1 REVERT JUMPDEST PUSH1 0x0 DUP6 DUP2 MSTORE PUSH1 0x8 PUSH1 0x20 MSTORE PUSH1 0x40 SWAP1 KECCAK256 SLOAD PUSH1 0xFF AND PUSH2 0x18D7 JUMPI PUSH1 0x0 DUP1 REVERT JUMPDEST PUSH2 0x18E0 DUP6 PUSH2 0x2C95 JUMP JUMPDEST PUSH2 0x18E9 JUMPI PUSH1 0x0 DUP1 REVERT JUMPDEST PUSH1 0x0 PUSH2 0x18F7 PUSH1 0xE SLOAD DUP8 PUSH2 0x2393 JUMP JUMPDEST SWAP1 POP DUP1 CALLVALUE LT ISZERO PUSH2 0x1906 JUMPI PUSH1 0x0 DUP1 REVERT JUMPDEST PUSH1 0x0 PUSH1 0x7 PUSH2 0x1920 PUSH1 0x1 PUSH1 0x9 SLOAD PUSH2 0x2420 SWAP1 SWAP2 SWAP1 PUSH4 0xFFFFFFFF AND JUMP JUMPDEST ADD PUSH1 0x0 DUP2 DUP2 MSTORE PUSH1 0xA PUSH1 0x20 MSTORE PUSH1 0x40 SWAP1 KECCAK256 SLOAD SWAP1 SWAP2 POP PUSH1 0x1 PUSH1 0x1 PUSH1 0xA0 SHL SUB AND ISZERO PUSH2 0x1943 JUMPI INVALID JUMPDEST PUSH1 0x0 DUP2 DUP2 MSTORE PUSH1 0xB PUSH1 0x20 MSTORE PUSH1 0x40 SWAP1 KECCAK256 SLOAD PUSH1 0xFF AND ISZERO PUSH2 0x195C JUMPI INVALID JUMPDEST PUSH2 0x1964 PUSH2 0x337C JUMP JUMPDEST PUSH1 0x1 DUP2 MSTORE PUSH1 0x40 DUP1 MLOAD PUSH1 0x20 PUSH1 0x1F DUP10 ADD DUP2 SWAP1 DIV DUP2 MUL DUP3 ADD DUP2 ADD SWAP1 SWAP3 MSTORE DUP8 DUP2 MSTORE SWAP1 DUP9 SWAP1 DUP9 SWAP1 DUP2 SWAP1 DUP5 ADD DUP4 DUP3 DUP1 DUP3 DUP5 CALLDATACOPY PUSH1 0x0 SWAP3 ADD DUP3 SWAP1 MSTORE POP PUSH1 0xC0 DUP7 ADD SWAP5 SWAP1 SWAP5 MSTORE POP POP PUSH1 0xE SLOAD PUSH1 0x20 DUP1 DUP6 ADD SWAP2 SWAP1 SWAP2 MSTORE PUSH1 0x40 DUP1 DUP6 ADD DUP13 SWAP1 MSTORE DUP12 DUP5 MSTORE PUSH1 0x8 DUP1 DUP4 MSTORE DUP2 DUP6 KECCAK256 PUSH1 0x1 DUP1 DUP3 ADD SLOAD PUSH1 0x60 DUP10 ADD MSTORE PUSH1 0x2 DUP1 DUP4 ADD SLOAD PUSH1 0x80 DUP11 ADD MSTORE SWAP7 DUP16 SWAP1 MSTORE SWAP2 DUP5 MSTORE PUSH1 0x3 ADD DUP1 SLOAD DUP4 MLOAD PUSH1 0x1F SWAP4 DUP3 AND ISZERO PUSH2 0x100 MUL PUSH1 0x0 NOT ADD SWAP1 SWAP2 AND SWAP7 SWAP1 SWAP7 DIV SWAP2 DUP3 ADD DUP5 SWAP1 DIV DUP5 MUL DUP7 ADD DUP5 ADD SWAP1 SWAP3 MSTORE DUP1 DUP6 MSTORE SWAP1 SWAP3 POP SWAP1 DUP4 ADD DUP3 DUP3 DUP1 ISZERO PUSH2 0x1A61 JUMPI DUP1 PUSH1 0x1F LT PUSH2 0x1A36 JUMPI PUSH2 0x100 DUP1 DUP4 SLOAD DIV MUL DUP4 MSTORE SWAP2 PUSH1 0x20 ADD SWAP2 PUSH2 0x1A61 JUMP JUMPDEST DUP3 ADD SWAP2 SWAP1 PUSH1 0x0 MSTORE PUSH1 0x20 PUSH1 0x0 KECCAK256 SWAP1 JUMPDEST DUP2 SLOAD DUP2 MSTORE SWAP1 PUSH1 0x1 ADD SWAP1 PUSH1 0x20 ADD DUP1 DUP4 GT PUSH2 0x1A44 JUMPI DUP3 SWAP1 SUB PUSH1 0x1F AND DUP3 ADD SWAP2 JUMPDEST POP POP POP POP POP DUP2 PUSH1 0xA0 ADD DUP2 SWAP1 MSTORE POP PUSH2 0x1A91 PUSH2 0x1A79 PUSH2 0x247A JUMP JUMPDEST DUP4 PUSH1 0x1 PUSH1 0x40 MLOAD DUP1 PUSH1 0x20 ADD PUSH1 0x40 MSTORE DUP1 PUSH1 0x0 DUP2 MSTORE POP PUSH2 0x247F JUMP JUMPDEST PUSH2 0x1A99 PUSH2 0x247A JUMP JUMPDEST PUSH1 0x0 DUP4 DUP2 MSTORE PUSH1 0xA PUSH1 0x20 SWAP1 DUP2 MSTORE PUSH1 0x40 DUP1 DUP4 KECCAK256 DUP1 SLOAD PUSH1 0x1 PUSH1 0x1 PUSH1 0xA0 SHL SUB NOT AND PUSH1 0x1 PUSH1 0x1 PUSH1 0xA0 SHL SUB SWAP6 SWAP1 SWAP6 AND SWAP5 SWAP1 SWAP5 OR SWAP1 SWAP4 SSTORE PUSH1 0xB DUP2 MSTORE SWAP1 DUP3 SWAP1 KECCAK256 DUP4 MLOAD DUP2 SLOAD PUSH1 0xFF NOT AND SWAP1 ISZERO ISZERO OR DUP2 SSTORE DUP4 DUP3 ADD MLOAD PUSH1 0x1 DUP3 ADD SSTORE SWAP2 DUP4 ADD MLOAD PUSH1 0x2 DUP4 ADD SSTORE PUSH1 0x60 DUP4 ADD MLOAD PUSH1 0x3 DUP4 ADD SSTORE PUSH1 0x80 DUP4 ADD MLOAD PUSH1 0x4 DUP4 ADD SSTORE PUSH1 0xA0 DUP4 ADD MLOAD DUP1 MLOAD DUP5 SWAP4 SWAP3 PUSH2 0x1B20 SWAP3 PUSH1 0x5 DUP6 ADD SWAP3 SWAP2 ADD SWAP1 PUSH2 0x32FE JUMP JUMPDEST POP PUSH1 0xC0 DUP3 ADD MLOAD DUP1 MLOAD PUSH2 0x1B3C SWAP2 PUSH1 0x6 DUP5 ADD SWAP2 PUSH1 0x20 SWAP1 SWAP2 ADD SWAP1 PUSH2 0x32FE JUMP JUMPDEST POP POP PUSH1 0x9 SLOAD PUSH2 0x1B4D SWAP2 POP PUSH1 0x1 PUSH2 0x2420 JUMP JUMPDEST PUSH1 0x9 SSTORE PUSH1 0xE SLOAD PUSH1 0x0 SWAP1 DUP2 MSTORE PUSH1 0xC PUSH1 0x20 SWAP1 DUP2 MSTORE PUSH1 0x40 DUP1 DUP4 KECCAK256 DUP12 DUP5 MSTORE SWAP1 SWAP2 MSTORE SWAP1 KECCAK256 SLOAD PUSH2 0x1B78 SWAP1 PUSH1 0x1 PUSH2 0x2420 JUMP JUMPDEST PUSH1 0xE SLOAD PUSH1 0x0 SWAP1 DUP2 MSTORE PUSH1 0xC PUSH1 0x20 SWAP1 DUP2 MSTORE PUSH1 0x40 DUP1 DUP4 KECCAK256 DUP13 DUP5 MSTORE SWAP1 SWAP2 MSTORE DUP2 KECCAK256 SWAP2 SWAP1 SWAP2 SSTORE PUSH2 0x1BAE PUSH1 0xA PUSH2 0x1BA8 DUP7 PUSH1 0x8 PUSH2 0x2D6A JUMP JUMPDEST SWAP1 PUSH2 0x2DC3 JUMP JUMPDEST PUSH1 0x0 DUP11 DUP2 MSTORE PUSH1 0x7 PUSH1 0x20 MSTORE PUSH1 0x40 DUP1 DUP3 KECCAK256 SLOAD SWAP1 MLOAD SWAP3 SWAP4 POP PUSH1 0x1 PUSH1 0x1 PUSH1 0xA0 SHL SUB AND SWAP2 DUP3 SWAP1 DUP5 SWAP1 DUP4 DUP2 DUP2 DUP2 DUP6 DUP8 GAS CALL SWAP3 POP POP POP RETURNDATASIZE DUP1 PUSH1 0x0 DUP2 EQ PUSH2 0x1C09 JUMPI PUSH1 0x40 MLOAD SWAP2 POP PUSH1 0x1F NOT PUSH1 0x3F RETURNDATASIZE ADD AND DUP3 ADD PUSH1 0x40 MSTORE RETURNDATASIZE DUP3 MSTORE RETURNDATASIZE PUSH1 0x0 PUSH1 0x20 DUP5 ADD RETURNDATACOPY PUSH2 0x1C0E JUMP JUMPDEST PUSH1 0x60 SWAP2 POP JUMPDEST POP POP SWAP1 POP DUP1 PUSH2 0x1C55 JUMPI PUSH1 0x40 DUP1 MLOAD PUSH3 0x461BCD PUSH1 0xE5 SHL DUP2 MSTORE PUSH1 0x20 PUSH1 0x4 DUP3 ADD MSTORE PUSH1 0xE PUSH1 0x24 DUP3 ADD MSTORE PUSH14 0x14185E5B595B9D0819985A5B1959 PUSH1 0x92 SHL PUSH1 0x44 DUP3 ADD MSTORE SWAP1 MLOAD SWAP1 DUP2 SWAP1 SUB PUSH1 0x64 ADD SWAP1 REVERT JUMPDEST PUSH2 0x1C5E DUP7 PUSH2 0x2587 JUMP JUMPDEST PUSH32 0xF34A510082F5A02E39555458564800FC1FE73BFD8D3AA07CBF063FE662E7657E DUP6 PUSH2 0x1C88 PUSH2 0x247A JUMP JUMPDEST PUSH1 0x40 DUP1 MLOAD SWAP3 DUP4 MSTORE PUSH1 0x1 PUSH1 0x1 PUSH1 0xA0 SHL SUB SWAP1 SWAP2 AND PUSH1 0x20 DUP4 ADD MSTORE DUP1 MLOAD SWAP2 DUP3 SWAP1 SUB ADD SWAP1 LOG1 POP SWAP3 SWAP10 SWAP9 POP POP POP POP POP POP POP POP POP JUMP JUMPDEST PUSH1 0x60 DUP2 MLOAD DUP4 MLOAD EQ PUSH2 0x1CF9 JUMPI PUSH1 0x40 MLOAD PUSH3 0x461BCD PUSH1 0xE5 SHL DUP2 MSTORE PUSH1 0x4 ADD DUP1 DUP1 PUSH1 0x20 ADD DUP3 DUP2 SUB DUP3 MSTORE PUSH1 0x29 DUP2 MSTORE PUSH1 0x20 ADD DUP1 PUSH2 0x36DF PUSH1 0x29 SWAP2 CODECOPY PUSH1 0x40 ADD SWAP2 POP POP PUSH1 0x40 MLOAD DUP1 SWAP2 SUB SWAP1 REVERT JUMPDEST PUSH1 0x60 DUP4 MLOAD PUSH8 0xFFFFFFFFFFFFFFFF DUP2 GT DUP1 ISZERO PUSH2 0x1D13 JUMPI PUSH1 0x0 DUP1 REVERT JUMPDEST POP PUSH1 0x40 MLOAD SWAP1 DUP1 DUP3 MSTORE DUP1 PUSH1 0x20 MUL PUSH1 0x20 ADD DUP3 ADD PUSH1 0x40 MSTORE DUP1 ISZERO PUSH2 0x1D3D JUMPI DUP2 PUSH1 0x20 ADD PUSH1 0x20 DUP3 MUL DUP1 CALLDATASIZE DUP4 CALLDATACOPY ADD SWAP1 POP JUMPDEST POP SWAP1 POP PUSH1 0x0 JUMPDEST DUP5 MLOAD DUP2 LT ISZERO PUSH2 0x1D9B JUMPI PUSH2 0x1D7C DUP6 DUP3 DUP2 MLOAD DUP2 LT PUSH2 0x1D5B JUMPI INVALID JUMPDEST PUSH1 0x20 MUL PUSH1 0x20 ADD ADD MLOAD DUP6 DUP4 DUP2 MLOAD DUP2 LT PUSH2 0x1D6F JUMPI INVALID JUMPDEST PUSH1 0x20 MUL PUSH1 0x20 ADD ADD MLOAD PUSH2 0xE06 JUMP JUMPDEST DUP3 DUP3 DUP2 MLOAD DUP2 LT PUSH2 0x1D88 JUMPI INVALID JUMPDEST PUSH1 0x20 SWAP1 DUP2 MUL SWAP2 SWAP1 SWAP2 ADD ADD MSTORE PUSH1 0x1 ADD PUSH2 0x1D43 JUMP JUMPDEST POP SWAP4 SWAP3 POP POP POP JUMP JUMPDEST PUSH1 0x0 PUSH1 0x7 DUP3 GT PUSH2 0x1DB2 JUMPI PUSH1 0x0 DUP1 REVERT JUMPDEST PUSH1 0x0 DUP3 DUP2 MSTORE PUSH1 0xA PUSH1 0x20 MSTORE PUSH1 0x40 SWAP1 KECCAK256 SLOAD PUSH1 0x1 PUSH1 0x1 PUSH1 0xA0 SHL SUB AND PUSH2 0x1DD3 JUMPI PUSH1 0x0 DUP1 REVERT JUMPDEST POP PUSH1 0x0 SWAP1 DUP2 MSTORE PUSH1 0xA PUSH1 0x20 MSTORE PUSH1 0x40 SWAP1 KECCAK256 SLOAD PUSH1 0x1 PUSH1 0x1 PUSH1 0xA0 SHL SUB AND SWAP1 JUMP JUMPDEST PUSH1 0x0 DUP2 PUSH1 0x0 DUP2 GT DUP1 ISZERO PUSH2 0x1E03 JUMPI POP PUSH1 0x7 DUP2 GT ISZERO JUMPDEST PUSH2 0x1E0C JUMPI PUSH1 0x0 DUP1 REVERT JUMPDEST PUSH1 0xE SLOAD DUP5 GT ISZERO PUSH2 0x1E1B JUMPI PUSH1 0x0 DUP1 REVERT JUMPDEST POP POP PUSH1 0x0 SWAP2 DUP3 MSTORE PUSH1 0xC PUSH1 0x20 SWAP1 DUP2 MSTORE PUSH1 0x40 DUP1 DUP5 KECCAK256 SWAP3 DUP5 MSTORE SWAP2 SWAP1 MSTORE SWAP1 KECCAK256 SLOAD SWAP1 JUMP JUMPDEST PUSH1 0x0 DUP2 PUSH1 0x0 DUP2 GT DUP1 ISZERO PUSH2 0x1E4E JUMPI POP PUSH1 0x7 DUP2 GT ISZERO JUMPDEST PUSH2 0x1E57 JUMPI PUSH1 0x0 DUP1 REVERT JUMPDEST PUSH1 0x0 DUP4 DUP2 MSTORE PUSH1 0x7 PUSH1 0x20 MSTORE PUSH1 0x40 SWAP1 KECCAK256 SLOAD PUSH1 0x1 PUSH1 0x1 PUSH1 0xA0 SHL SUB AND PUSH2 0x1E78 JUMPI PUSH1 0x0 DUP1 REVERT JUMPDEST POP POP PUSH1 0x0 SWAP1 DUP2 MSTORE PUSH1 0x7 PUSH1 0x20 MSTORE PUSH1 0x40 SWAP1 KECCAK256 SLOAD PUSH1 0x1 PUSH1 0x1 PUSH1 0xA0 SHL SUB AND SWAP1 JUMP JUMPDEST PUSH1 0xD SLOAD DUP2 JUMP JUMPDEST PUSH1 0xE SLOAD DUP2 JUMP JUMPDEST PUSH1 0x0 DUP3 DUP2 MSTORE PUSH1 0x20 DUP2 SWAP1 MSTORE PUSH1 0x40 DUP2 KECCAK256 PUSH2 0x1EB9 SWAP1 DUP4 PUSH2 0x2E2A JUMP JUMPDEST SWAP4 SWAP3 POP POP POP JUMP JUMPDEST PUSH1 0x7 DUP2 JUMP JUMPDEST PUSH1 0x0 DUP3 DUP2 MSTORE PUSH1 0x20 DUP2 SWAP1 MSTORE PUSH1 0x40 DUP2 KECCAK256 PUSH2 0x1EB9 SWAP1 DUP4 PUSH2 0x240B JUMP JUMPDEST PUSH2 0x1EF4 PUSH1 0x0 DUP1 MLOAD PUSH1 0x20 PUSH2 0x3628 DUP4 CODECOPY DUP2 MLOAD SWAP2 MSTORE PUSH2 0x2BB0 JUMP JUMPDEST DUP1 PUSH1 0xF DUP5 DUP5 PUSH1 0x40 MLOAD DUP1 DUP4 DUP4 DUP1 DUP3 DUP5 CALLDATACOPY SWAP2 SWAP1 SWAP2 ADD SWAP5 DUP6 MSTORE POP POP PUSH1 0x40 MLOAD SWAP3 DUP4 SWAP1 SUB PUSH1 0x20 ADD SWAP1 SWAP3 KECCAK256 DUP1 SLOAD PUSH1 0x1 PUSH1 0x1 PUSH1 0xA0 SHL SUB SWAP5 SWAP1 SWAP5 AND PUSH1 0x1 PUSH1 0x1 PUSH1 0xA0 SHL SUB NOT SWAP1 SWAP5 AND SWAP4 SWAP1 SWAP4 OR SWAP1 SWAP3 SSTORE POP POP POP POP POP JUMP JUMPDEST PUSH1 0x0 DUP2 JUMP JUMPDEST DUP2 PUSH1 0x1 PUSH1 0x1 PUSH1 0xA0 SHL SUB AND PUSH2 0x1F58 PUSH2 0x247A JUMP JUMPDEST PUSH1 0x1 PUSH1 0x1 PUSH1 0xA0 SHL SUB AND EQ ISZERO PUSH2 0x1F9E JUMPI PUSH1 0x40 MLOAD PUSH3 0x461BCD PUSH1 0xE5 SHL DUP2 MSTORE PUSH1 0x4 ADD DUP1 DUP1 PUSH1 0x20 ADD DUP3 DUP2 SUB DUP3 MSTORE PUSH1 0x29 DUP2 MSTORE PUSH1 0x20 ADD DUP1 PUSH2 0x36B6 PUSH1 0x29 SWAP2 CODECOPY PUSH1 0x40 ADD SWAP2 POP POP PUSH1 0x40 MLOAD DUP1 SWAP2 SUB SWAP1 REVERT JUMPDEST DUP1 PUSH1 0x3 PUSH1 0x0 PUSH2 0x1FAB PUSH2 0x247A JUMP JUMPDEST PUSH1 0x1 PUSH1 0x1 PUSH1 0xA0 SHL SUB SWAP1 DUP2 AND DUP3 MSTORE PUSH1 0x20 DUP1 DUP4 ADD SWAP4 SWAP1 SWAP4 MSTORE PUSH1 0x40 SWAP2 DUP3 ADD PUSH1 0x0 SWAP1 DUP2 KECCAK256 SWAP2 DUP8 AND DUP1 DUP3 MSTORE SWAP2 SWAP1 SWAP4 MSTORE SWAP2 KECCAK256 DUP1 SLOAD PUSH1 0xFF NOT AND SWAP3 ISZERO ISZERO SWAP3 SWAP1 SWAP3 OR SWAP1 SWAP2 SSTORE PUSH2 0x1FEF PUSH2 0x247A JUMP JUMPDEST PUSH1 0x1 PUSH1 0x1 PUSH1 0xA0 SHL SUB AND PUSH32 0x17307EAB39AB6107E8899845AD3D59BD9653F200F220920489CA2B5937696C31 DUP4 PUSH1 0x40 MLOAD DUP1 DUP3 ISZERO ISZERO DUP2 MSTORE PUSH1 0x20 ADD SWAP2 POP POP PUSH1 0x40 MLOAD DUP1 SWAP2 SUB SWAP1 LOG3 POP POP JUMP JUMPDEST PUSH2 0x204C PUSH1 0x0 DUP1 MLOAD PUSH1 0x20 PUSH2 0x3628 DUP4 CODECOPY DUP2 MLOAD SWAP2 MSTORE PUSH2 0x2BB0 JUMP JUMPDEST PUSH1 0x0 PUSH1 0x6 SLOAD GT PUSH2 0x205B JUMPI PUSH1 0x0 DUP1 REVERT JUMPDEST PUSH1 0x1 JUMPDEST PUSH1 0x7 DUP2 GT PUSH2 0x208E JUMPI PUSH1 0x0 DUP2 DUP2 MSTORE PUSH1 0x8 PUSH1 0x20 MSTORE PUSH1 0x40 SWAP1 KECCAK256 SLOAD PUSH1 0xFF AND ISZERO PUSH2 0x2086 JUMPI PUSH2 0x2086 DUP2 PUSH2 0x2E36 JUMP JUMPDEST PUSH1 0x1 ADD PUSH2 0x205E JUMP JUMPDEST POP PUSH1 0xE SLOAD PUSH2 0x209D SWAP1 PUSH1 0x1 PUSH2 0x2420 JUMP JUMPDEST PUSH1 0xE SSTORE PUSH1 0x40 MLOAD PUSH32 0x143B2C36FAC98F86168603D28D499BDE9CE0367D41E111CEF9F2ECBC9EEABFC SWAP1 PUSH1 0x0 SWAP1 LOG1 JUMP JUMPDEST PUSH1 0x6 SLOAD DUP2 JUMP JUMPDEST PUSH2 0x20E8 PUSH1 0x0 DUP1 MLOAD PUSH1 0x20 PUSH2 0x3628 DUP4 CODECOPY DUP2 MLOAD SWAP2 MSTORE PUSH2 0x2BB0 JUMP JUMPDEST PUSH1 0x5 DUP1 SLOAD DUP3 SWAP2 SWAP1 PUSH1 0xFF NOT AND PUSH1 0x1 DUP4 DUP2 DUP2 GT ISZERO PUSH2 0x2100 JUMPI INVALID JUMPDEST MUL OR SWAP1 SSTORE POP POP JUMP JUMPDEST PUSH1 0x0 DUP2 DUP2 MSTORE PUSH1 0x20 DUP2 SWAP1 MSTORE PUSH1 0x40 DUP2 KECCAK256 PUSH2 0xE72 SWAP1 PUSH2 0x2F18 JUMP JUMPDEST PUSH1 0x9 SLOAD DUP2 JUMP JUMPDEST PUSH1 0x0 DUP3 DUP2 MSTORE PUSH1 0x20 DUP2 SWAP1 MSTORE PUSH1 0x40 SWAP1 KECCAK256 PUSH1 0x2 ADD SLOAD PUSH2 0x2143 SWAP1 PUSH2 0x17F4 PUSH2 0x247A JUMP JUMPDEST PUSH2 0x1895 JUMPI PUSH1 0x40 MLOAD PUSH3 0x461BCD PUSH1 0xE5 SHL DUP2 MSTORE PUSH1 0x4 ADD DUP1 DUP1 PUSH1 0x20 ADD DUP3 DUP2 SUB DUP3 MSTORE PUSH1 0x30 DUP2 MSTORE PUSH1 0x20 ADD DUP1 PUSH2 0x35A1 PUSH1 0x30 SWAP2 CODECOPY PUSH1 0x40 ADD SWAP2 POP POP PUSH1 0x40 MLOAD DUP1 SWAP2 SUB SWAP1 REVERT JUMPDEST PUSH2 0x2195 PUSH1 0x0 DUP1 MLOAD PUSH1 0x20 PUSH2 0x3628 DUP4 CODECOPY DUP2 MLOAD SWAP2 MSTORE PUSH2 0x2BB0 JUMP JUMPDEST PUSH1 0xD SSTORE JUMP JUMPDEST PUSH1 0x1 PUSH1 0x1 PUSH1 0xA0 SHL SUB SWAP2 DUP3 AND PUSH1 0x0 SWAP1 DUP2 MSTORE PUSH1 0x3 PUSH1 0x20 SWAP1 DUP2 MSTORE PUSH1 0x40 DUP1 DUP4 KECCAK256 SWAP4 SWAP1 SWAP5 AND DUP3 MSTORE SWAP2 SWAP1 SWAP2 MSTORE KECCAK256 SLOAD PUSH1 0xFF AND SWAP1 JUMP JUMPDEST PUSH1 0x1 PUSH1 0x1 PUSH1 0xA0 SHL SUB DUP5 AND PUSH2 0x220D JUMPI PUSH1 0x40 MLOAD PUSH3 0x461BCD PUSH1 0xE5 SHL DUP2 MSTORE PUSH1 0x4 ADD DUP1 DUP1 PUSH1 0x20 ADD DUP3 DUP2 SUB DUP3 MSTORE PUSH1 0x25 DUP2 MSTORE PUSH1 0x20 ADD DUP1 PUSH2 0x35D1 PUSH1 0x25 SWAP2 CODECOPY PUSH1 0x40 ADD SWAP2 POP POP PUSH1 0x40 MLOAD DUP1 SWAP2 SUB SWAP1 REVERT JUMPDEST PUSH2 0x2215 PUSH2 0x247A JUMP JUMPDEST PUSH1 0x1 PUSH1 0x1 PUSH1 0xA0 SHL SUB AND DUP6 PUSH1 0x1 PUSH1 0x1 PUSH1 0xA0 SHL SUB AND EQ DUP1 PUSH2 0x223B JUMPI POP PUSH2 0x223B DUP6 PUSH2 0x156B PUSH2 0x247A JUMP JUMPDEST PUSH2 0x2276 JUMPI PUSH1 0x40 MLOAD PUSH3 0x461BCD PUSH1 0xE5 SHL DUP2 MSTORE PUSH1 0x4 ADD DUP1 DUP1 PUSH1 0x20 ADD DUP3 DUP2 SUB DUP3 MSTORE PUSH1 0x29 DUP2 MSTORE PUSH1 0x20 ADD DUP1 PUSH2 0x3578 PUSH1 0x29 SWAP2 CODECOPY PUSH1 0x40 ADD SWAP2 POP POP PUSH1 0x40 MLOAD DUP1 SWAP2 SUB SWAP1 REVERT JUMPDEST PUSH1 0x0 PUSH2 0x2280 PUSH2 0x247A JUMP JUMPDEST SWAP1 POP PUSH2 0x22A0 DUP2 DUP8 DUP8 PUSH2 0x2291 DUP9 PUSH2 0x2F23 JUMP JUMPDEST PUSH2 0x229A DUP9 PUSH2 0x2F23 JUMP JUMPDEST DUP8 PUSH2 0x2788 JUMP JUMPDEST PUSH2 0x22E7 DUP4 PUSH1 0x40 MLOAD DUP1 PUSH1 0x60 ADD PUSH1 0x40 MSTORE DUP1 PUSH1 0x2A DUP2 MSTORE PUSH1 0x20 ADD PUSH2 0x366B PUSH1 0x2A SWAP2 CODECOPY PUSH1 0x0 DUP8 DUP2 MSTORE PUSH1 0x2 PUSH1 0x20 SWAP1 DUP2 MSTORE PUSH1 0x40 DUP1 DUP4 KECCAK256 PUSH1 0x1 PUSH1 0x1 PUSH1 0xA0 SHL SUB DUP14 AND DUP5 MSTORE SWAP1 SWAP2 MSTORE SWAP1 KECCAK256 SLOAD SWAP2 SWAP1 PUSH2 0x28A3 JUMP JUMPDEST PUSH1 0x0 DUP6 DUP2 MSTORE PUSH1 0x2 PUSH1 0x20 SWAP1 DUP2 MSTORE PUSH1 0x40 DUP1 DUP4 KECCAK256 PUSH1 0x1 PUSH1 0x1 PUSH1 0xA0 SHL SUB DUP12 DUP2 AND DUP6 MSTORE SWAP3 MSTORE DUP1 DUP4 KECCAK256 SWAP4 SWAP1 SWAP4 SSTORE DUP8 AND DUP2 MSTORE KECCAK256 SLOAD PUSH2 0x231E SWAP1 DUP5 PUSH2 0x2420 JUMP JUMPDEST PUSH1 0x0 DUP6 DUP2 MSTORE PUSH1 0x2 PUSH1 0x20 SWAP1 DUP2 MSTORE PUSH1 0x40 DUP1 DUP4 KECCAK256 PUSH1 0x1 PUSH1 0x1 PUSH1 0xA0 SHL SUB DUP1 DUP12 AND DUP1 DUP7 MSTORE SWAP2 DUP5 MSTORE SWAP4 DUP3 SWAP1 KECCAK256 SWAP5 SWAP1 SWAP5 SSTORE DUP1 MLOAD DUP9 DUP2 MSTORE SWAP2 DUP3 ADD DUP8 SWAP1 MSTORE DUP1 MLOAD DUP11 DUP5 AND SWAP4 DUP7 AND SWAP3 PUSH32 0xC3D58168C5AE7397731D063D5BBF3D657854427343F4C083240F7AACAA2D0F62 SWAP3 SWAP1 DUP3 SWAP1 SUB ADD SWAP1 LOG4 PUSH2 0x17B3 DUP2 DUP8 DUP8 DUP8 DUP8 DUP8 PUSH2 0x2F67 JUMP JUMPDEST PUSH1 0x0 PUSH1 0xE SLOAD DUP4 GT ISZERO PUSH2 0x23A4 JUMPI PUSH1 0x0 DUP1 REVERT JUMPDEST PUSH1 0x0 DUP3 GT DUP1 ISZERO PUSH2 0x23B5 JUMPI POP PUSH1 0x7 DUP3 GT ISZERO JUMPDEST PUSH2 0x23BE JUMPI PUSH1 0x0 DUP1 REVERT JUMPDEST PUSH1 0x0 DUP4 DUP2 MSTORE PUSH1 0xC PUSH1 0x20 SWAP1 DUP2 MSTORE PUSH1 0x40 DUP1 DUP4 KECCAK256 DUP6 DUP5 MSTORE SWAP1 SWAP2 MSTORE DUP2 KECCAK256 SLOAD PUSH2 0x23E3 SWAP1 PUSH1 0x1 PUSH2 0x2420 JUMP JUMPDEST SWAP1 POP PUSH2 0x23EE DUP2 PUSH2 0x30D8 JUMP JUMPDEST SWAP5 SWAP4 POP POP POP POP JUMP JUMPDEST PUSH1 0x0 PUSH2 0x1EB9 DUP4 PUSH1 0x1 PUSH1 0x1 PUSH1 0xA0 SHL SUB DUP5 AND PUSH2 0x3122 JUMP JUMPDEST PUSH1 0x0 PUSH2 0x1EB9 DUP4 PUSH1 0x1 PUSH1 0x1 PUSH1 0xA0 SHL SUB DUP5 AND PUSH2 0x316C JUMP JUMPDEST PUSH1 0x0 DUP3 DUP3 ADD DUP4 DUP2 LT ISZERO PUSH2 0x1EB9 JUMPI PUSH1 0x40 DUP1 MLOAD PUSH3 0x461BCD PUSH1 0xE5 SHL DUP2 MSTORE PUSH1 0x20 PUSH1 0x4 DUP3 ADD MSTORE PUSH1 0x1B PUSH1 0x24 DUP3 ADD MSTORE PUSH32 0x536166654D6174683A206164646974696F6E206F766572666C6F770000000000 PUSH1 0x44 DUP3 ADD MSTORE SWAP1 MLOAD SWAP1 DUP2 SWAP1 SUB PUSH1 0x64 ADD SWAP1 REVERT JUMPDEST CALLER JUMPDEST SWAP1 JUMP JUMPDEST PUSH1 0x1 PUSH1 0x1 PUSH1 0xA0 SHL SUB DUP5 AND PUSH2 0x24C4 JUMPI PUSH1 0x40 MLOAD PUSH3 0x461BCD PUSH1 0xE5 SHL DUP2 MSTORE PUSH1 0x4 ADD DUP1 DUP1 PUSH1 0x20 ADD DUP3 DUP2 SUB DUP3 MSTORE PUSH1 0x21 DUP2 MSTORE PUSH1 0x20 ADD DUP1 PUSH2 0x3730 PUSH1 0x21 SWAP2 CODECOPY PUSH1 0x40 ADD SWAP2 POP POP PUSH1 0x40 MLOAD DUP1 SWAP2 SUB SWAP1 REVERT JUMPDEST PUSH1 0x0 PUSH2 0x24CE PUSH2 0x247A JUMP JUMPDEST SWAP1 POP PUSH2 0x24E0 DUP2 PUSH1 0x0 DUP8 PUSH2 0x2291 DUP9 PUSH2 0x2F23 JUMP JUMPDEST PUSH1 0x0 DUP5 DUP2 MSTORE PUSH1 0x2 PUSH1 0x20 SWAP1 DUP2 MSTORE PUSH1 0x40 DUP1 DUP4 KECCAK256 PUSH1 0x1 PUSH1 0x1 PUSH1 0xA0 SHL SUB DUP10 AND DUP5 MSTORE SWAP1 SWAP2 MSTORE SWAP1 KECCAK256 SLOAD PUSH2 0x250D SWAP1 DUP5 PUSH2 0x2420 JUMP JUMPDEST PUSH1 0x0 DUP6 DUP2 MSTORE PUSH1 0x2 PUSH1 0x20 SWAP1 DUP2 MSTORE PUSH1 0x40 DUP1 DUP4 KECCAK256 PUSH1 0x1 PUSH1 0x1 PUSH1 0xA0 SHL SUB DUP1 DUP12 AND DUP1 DUP7 MSTORE SWAP2 DUP5 MSTORE DUP3 DUP6 KECCAK256 SWAP6 SWAP1 SWAP6 SSTORE DUP2 MLOAD DUP10 DUP2 MSTORE SWAP3 DUP4 ADD DUP9 SWAP1 MSTORE DUP2 MLOAD SWAP1 SWAP5 DUP7 AND SWAP3 PUSH32 0xC3D58168C5AE7397731D063D5BBF3D657854427343F4C083240F7AACAA2D0F62 SWAP3 SWAP1 DUP3 SWAP1 SUB ADD SWAP1 LOG4 PUSH2 0x2580 DUP2 PUSH1 0x0 DUP8 DUP8 DUP8 DUP8 PUSH2 0x2F67 JUMP JUMPDEST POP POP POP POP POP JUMP JUMPDEST PUSH1 0x0 PUSH2 0x2593 CALLVALUE DUP4 PUSH2 0x272B JUMP JUMPDEST GT ISZERO PUSH2 0x25F5 JUMPI PUSH1 0x0 CALLER PUSH2 0x25A6 CALLVALUE DUP5 PUSH2 0x272B JUMP JUMPDEST PUSH1 0x40 MLOAD PUSH1 0x0 DUP2 DUP2 DUP2 DUP6 DUP8 GAS CALL SWAP3 POP POP POP RETURNDATASIZE DUP1 PUSH1 0x0 DUP2 EQ PUSH2 0x25E2 JUMPI PUSH1 0x40 MLOAD SWAP2 POP PUSH1 0x1F NOT PUSH1 0x3F RETURNDATASIZE ADD AND DUP3 ADD PUSH1 0x40 MSTORE RETURNDATASIZE DUP3 MSTORE RETURNDATASIZE PUSH1 0x0 PUSH1 0x20 DUP5 ADD RETURNDATACOPY PUSH2 0x25E7 JUMP JUMPDEST PUSH1 0x60 SWAP2 POP JUMPDEST POP POP SWAP1 POP DUP1 PUSH2 0x17D2 JUMPI PUSH1 0x0 DUP1 REVERT JUMPDEST POP JUMP JUMPDEST PUSH1 0x1 PUSH1 0x1 PUSH1 0xA0 SHL SUB DUP4 AND PUSH2 0x263D JUMPI PUSH1 0x40 MLOAD PUSH3 0x461BCD PUSH1 0xE5 SHL DUP2 MSTORE PUSH1 0x4 ADD DUP1 DUP1 PUSH1 0x20 ADD DUP3 DUP2 SUB DUP3 MSTORE PUSH1 0x23 DUP2 MSTORE PUSH1 0x20 ADD DUP1 PUSH2 0x3648 PUSH1 0x23 SWAP2 CODECOPY PUSH1 0x40 ADD SWAP2 POP POP PUSH1 0x40 MLOAD DUP1 SWAP2 SUB SWAP1 REVERT JUMPDEST PUSH1 0x0 PUSH2 0x2647 PUSH2 0x247A JUMP JUMPDEST SWAP1 POP PUSH2 0x2677 DUP2 DUP6 PUSH1 0x0 PUSH2 0x2659 DUP8 PUSH2 0x2F23 JUMP JUMPDEST PUSH2 0x2662 DUP8 PUSH2 0x2F23 JUMP JUMPDEST PUSH1 0x40 MLOAD DUP1 PUSH1 0x20 ADD PUSH1 0x40 MSTORE DUP1 PUSH1 0x0 DUP2 MSTORE POP PUSH2 0x2788 JUMP JUMPDEST PUSH2 0x26BE DUP3 PUSH1 0x40 MLOAD DUP1 PUSH1 0x60 ADD PUSH1 0x40 MSTORE DUP1 PUSH1 0x24 DUP2 MSTORE PUSH1 0x20 ADD PUSH2 0x3554 PUSH1 0x24 SWAP2 CODECOPY PUSH1 0x0 DUP7 DUP2 MSTORE PUSH1 0x2 PUSH1 0x20 SWAP1 DUP2 MSTORE PUSH1 0x40 DUP1 DUP4 KECCAK256 PUSH1 0x1 PUSH1 0x1 PUSH1 0xA0 SHL SUB DUP12 AND DUP5 MSTORE SWAP1 SWAP2 MSTORE SWAP1 KECCAK256 SLOAD SWAP2 SWAP1 PUSH2 0x28A3 JUMP JUMPDEST PUSH1 0x0 DUP5 DUP2 MSTORE PUSH1 0x2 PUSH1 0x20 SWAP1 DUP2 MSTORE PUSH1 0x40 DUP1 DUP4 KECCAK256 PUSH1 0x1 PUSH1 0x1 PUSH1 0xA0 SHL SUB DUP1 DUP11 AND DUP1 DUP7 MSTORE SWAP2 DUP5 MSTORE DUP3 DUP6 KECCAK256 SWAP6 SWAP1 SWAP6 SSTORE DUP2 MLOAD DUP9 DUP2 MSTORE SWAP3 DUP4 ADD DUP8 SWAP1 MSTORE DUP2 MLOAD SWAP4 SWAP5 SWAP1 SWAP4 SWAP1 DUP7 AND SWAP3 PUSH32 0xC3D58168C5AE7397731D063D5BBF3D657854427343F4C083240F7AACAA2D0F62 SWAP3 SWAP1 DUP3 SWAP1 SUB ADD SWAP1 LOG4 POP POP POP POP JUMP JUMPDEST PUSH1 0x0 DUP3 DUP3 GT ISZERO PUSH2 0x2782 JUMPI PUSH1 0x40 DUP1 MLOAD PUSH3 0x461BCD PUSH1 0xE5 SHL DUP2 MSTORE PUSH1 0x20 PUSH1 0x4 DUP3 ADD MSTORE PUSH1 0x1E PUSH1 0x24 DUP3 ADD MSTORE PUSH32 0x536166654D6174683A207375627472616374696F6E206F766572666C6F770000 PUSH1 0x44 DUP3 ADD MSTORE SWAP1 MLOAD SWAP1 DUP2 SWAP1 SUB PUSH1 0x64 ADD SWAP1 REVERT JUMPDEST POP SWAP1 SUB SWAP1 JUMP JUMPDEST PUSH2 0x2796 DUP7 DUP7 DUP7 DUP7 DUP7 DUP7 PUSH2 0x17B3 JUMP JUMPDEST PUSH1 0x0 JUMPDEST DUP4 MLOAD DUP2 LT ISZERO PUSH2 0x289A JUMPI PUSH1 0x0 DUP5 DUP3 DUP2 MLOAD DUP2 LT PUSH2 0x27B0 JUMPI INVALID JUMPDEST PUSH1 0x20 MUL PUSH1 0x20 ADD ADD MLOAD GT DUP1 ISZERO PUSH2 0x27D9 JUMPI POP PUSH1 0x7 DUP5 DUP3 DUP2 MLOAD DUP2 LT PUSH2 0x27CE JUMPI INVALID JUMPDEST PUSH1 0x20 MUL PUSH1 0x20 ADD ADD MLOAD GT ISZERO JUMPDEST ISZERO PUSH2 0x282A JUMPI DUP5 PUSH1 0x7 PUSH1 0x0 DUP7 DUP5 DUP2 MLOAD DUP2 LT PUSH2 0x27EF JUMPI INVALID JUMPDEST PUSH1 0x20 MUL PUSH1 0x20 ADD ADD MLOAD DUP2 MSTORE PUSH1 0x20 ADD SWAP1 DUP2 MSTORE PUSH1 0x20 ADD PUSH1 0x0 KECCAK256 PUSH1 0x0 PUSH2 0x100 EXP DUP2 SLOAD DUP2 PUSH1 0x1 PUSH1 0x1 PUSH1 0xA0 SHL SUB MUL NOT AND SWAP1 DUP4 PUSH1 0x1 PUSH1 0x1 PUSH1 0xA0 SHL SUB AND MUL OR SWAP1 SSTORE POP JUMPDEST PUSH1 0x7 DUP5 DUP3 DUP2 MLOAD DUP2 LT PUSH2 0x2838 JUMPI INVALID JUMPDEST PUSH1 0x20 MUL PUSH1 0x20 ADD ADD MLOAD GT ISZERO PUSH2 0x2892 JUMPI DUP5 PUSH1 0xA PUSH1 0x0 DUP7 DUP5 DUP2 MLOAD DUP2 LT PUSH2 0x2857 JUMPI INVALID JUMPDEST PUSH1 0x20 MUL PUSH1 0x20 ADD ADD MLOAD DUP2 MSTORE PUSH1 0x20 ADD SWAP1 DUP2 MSTORE PUSH1 0x20 ADD PUSH1 0x0 KECCAK256 PUSH1 0x0 PUSH2 0x100 EXP DUP2 SLOAD DUP2 PUSH1 0x1 PUSH1 0x1 PUSH1 0xA0 SHL SUB MUL NOT AND SWAP1 DUP4 PUSH1 0x1 PUSH1 0x1 PUSH1 0xA0 SHL SUB AND MUL OR SWAP1 SSTORE POP JUMPDEST PUSH1 0x1 ADD PUSH2 0x2799 JUMP JUMPDEST POP POP POP POP POP POP POP JUMP JUMPDEST PUSH1 0x0 DUP2 DUP5 DUP5 GT ISZERO PUSH2 0x2932 JUMPI PUSH1 0x40 MLOAD PUSH3 0x461BCD PUSH1 0xE5 SHL DUP2 MSTORE PUSH1 0x4 ADD DUP1 DUP1 PUSH1 0x20 ADD DUP3 DUP2 SUB DUP3 MSTORE DUP4 DUP2 DUP2 MLOAD DUP2 MSTORE PUSH1 0x20 ADD SWAP2 POP DUP1 MLOAD SWAP1 PUSH1 0x20 ADD SWAP1 DUP1 DUP4 DUP4 PUSH1 0x0 JUMPDEST DUP4 DUP2 LT ISZERO PUSH2 0x28F7 JUMPI DUP2 DUP2 ADD MLOAD DUP4 DUP3 ADD MSTORE PUSH1 0x20 ADD PUSH2 0x28DF JUMP JUMPDEST POP POP POP POP SWAP1 POP SWAP1 DUP2 ADD SWAP1 PUSH1 0x1F AND DUP1 ISZERO PUSH2 0x2924 JUMPI DUP1 DUP3 SUB DUP1 MLOAD PUSH1 0x1 DUP4 PUSH1 0x20 SUB PUSH2 0x100 EXP SUB NOT AND DUP2 MSTORE PUSH1 0x20 ADD SWAP2 POP JUMPDEST POP SWAP3 POP POP POP PUSH1 0x40 MLOAD DUP1 SWAP2 SUB SWAP1 REVERT JUMPDEST POP POP POP SWAP1 SUB SWAP1 JUMP JUMPDEST PUSH2 0x294C DUP5 PUSH1 0x1 PUSH1 0x1 PUSH1 0xA0 SHL SUB AND PUSH2 0x3184 JUMP JUMPDEST ISZERO PUSH2 0x17B3 JUMPI DUP4 PUSH1 0x1 PUSH1 0x1 PUSH1 0xA0 SHL SUB AND PUSH4 0xBC197C81 DUP8 DUP8 DUP7 DUP7 DUP7 PUSH1 0x40 MLOAD DUP7 PUSH4 0xFFFFFFFF AND PUSH1 0xE0 SHL DUP2 MSTORE PUSH1 0x4 ADD DUP1 DUP7 PUSH1 0x1 PUSH1 0x1 PUSH1 0xA0 SHL SUB AND DUP2 MSTORE PUSH1 0x20 ADD DUP6 PUSH1 0x1 PUSH1 0x1 PUSH1 0xA0 SHL SUB AND DUP2 MSTORE PUSH1 0x20 ADD DUP1 PUSH1 0x20 ADD DUP1 PUSH1 0x20 ADD DUP1 PUSH1 0x20 ADD DUP5 DUP2 SUB DUP5 MSTORE DUP8 DUP2 DUP2 MLOAD DUP2 MSTORE PUSH1 0x20 ADD SWAP2 POP DUP1 MLOAD SWAP1 PUSH1 0x20 ADD SWAP1 PUSH1 0x20 MUL DUP1 DUP4 DUP4 PUSH1 0x0 JUMPDEST DUP4 DUP2 LT ISZERO PUSH2 0x29DA JUMPI DUP2 DUP2 ADD MLOAD DUP4 DUP3 ADD MSTORE PUSH1 0x20 ADD PUSH2 0x29C2 JUMP JUMPDEST POP POP POP POP SWAP1 POP ADD DUP5 DUP2 SUB DUP4 MSTORE DUP7 DUP2 DUP2 MLOAD DUP2 MSTORE PUSH1 0x20 ADD SWAP2 POP DUP1 MLOAD SWAP1 PUSH1 0x20 ADD SWAP1 PUSH1 0x20 MUL DUP1 DUP4 DUP4 PUSH1 0x0 JUMPDEST DUP4 DUP2 LT ISZERO PUSH2 0x2A19 JUMPI DUP2 DUP2 ADD MLOAD DUP4 DUP3 ADD MSTORE PUSH1 0x20 ADD PUSH2 0x2A01 JUMP JUMPDEST POP POP POP POP SWAP1 POP ADD DUP5 DUP2 SUB DUP3 MSTORE DUP6 DUP2 DUP2 MLOAD DUP2 MSTORE PUSH1 0x20 ADD SWAP2 POP DUP1 MLOAD SWAP1 PUSH1 0x20 ADD SWAP1 DUP1 DUP4 DUP4 PUSH1 0x0 JUMPDEST DUP4 DUP2 LT ISZERO PUSH2 0x2A55 JUMPI DUP2 DUP2 ADD MLOAD DUP4 DUP3 ADD MSTORE PUSH1 0x20 ADD PUSH2 0x2A3D JUMP JUMPDEST POP POP POP POP SWAP1 POP SWAP1 DUP2 ADD SWAP1 PUSH1 0x1F AND DUP1 ISZERO PUSH2 0x2A82 JUMPI DUP1 DUP3 SUB DUP1 MLOAD PUSH1 0x1 DUP4 PUSH1 0x20 SUB PUSH2 0x100 EXP SUB NOT AND DUP2 MSTORE PUSH1 0x20 ADD SWAP2 POP JUMPDEST POP SWAP9 POP POP POP POP POP POP POP POP POP PUSH1 0x20 PUSH1 0x40 MLOAD DUP1 DUP4 SUB DUP2 PUSH1 0x0 DUP8 DUP1 EXTCODESIZE ISZERO DUP1 ISZERO PUSH2 0x2AA7 JUMPI PUSH1 0x0 DUP1 REVERT JUMPDEST POP GAS CALL SWAP3 POP POP POP DUP1 ISZERO PUSH2 0x2ACC JUMPI POP PUSH1 0x40 MLOAD RETURNDATASIZE PUSH1 0x20 DUP2 LT ISZERO PUSH2 0x2AC7 JUMPI PUSH1 0x0 DUP1 REVERT JUMPDEST POP MLOAD PUSH1 0x1 JUMPDEST PUSH2 0x2B61 JUMPI PUSH2 0x2AD8 PUSH2 0x33D6 JUMP JUMPDEST DUP1 PUSH2 0x2AE3 JUMPI POP PUSH2 0x2B2A JUMP JUMPDEST PUSH1 0x40 MLOAD PUSH3 0x461BCD PUSH1 0xE5 SHL DUP2 MSTORE PUSH1 0x20 PUSH1 0x4 DUP3 ADD DUP2 DUP2 MSTORE DUP4 MLOAD PUSH1 0x24 DUP5 ADD MSTORE DUP4 MLOAD DUP5 SWAP4 SWAP2 SWAP3 DUP4 SWAP3 PUSH1 0x44 ADD SWAP2 SWAP1 DUP6 ADD SWAP1 DUP1 DUP4 DUP4 PUSH1 0x0 DUP4 ISZERO PUSH2 0x28F7 JUMPI DUP2 DUP2 ADD MLOAD DUP4 DUP3 ADD MSTORE PUSH1 0x20 ADD PUSH2 0x28DF JUMP JUMPDEST PUSH1 0x40 MLOAD PUSH3 0x461BCD PUSH1 0xE5 SHL DUP2 MSTORE PUSH1 0x4 ADD DUP1 DUP1 PUSH1 0x20 ADD DUP3 DUP2 SUB DUP3 MSTORE PUSH1 0x34 DUP2 MSTORE PUSH1 0x20 ADD DUP1 PUSH2 0x347C PUSH1 0x34 SWAP2 CODECOPY PUSH1 0x40 ADD SWAP2 POP POP PUSH1 0x40 MLOAD DUP1 SWAP2 SUB SWAP1 REVERT JUMPDEST PUSH1 0x1 PUSH1 0x1 PUSH1 0xE0 SHL SUB NOT DUP2 AND PUSH4 0xBC197C81 PUSH1 0xE0 SHL EQ PUSH2 0x289A JUMPI PUSH1 0x40 MLOAD PUSH3 0x461BCD PUSH1 0xE5 SHL DUP2 MSTORE PUSH1 0x4 ADD DUP1 DUP1 PUSH1 0x20 ADD DUP3 DUP2 SUB DUP3 MSTORE PUSH1 0x28 DUP2 MSTORE PUSH1 0x20 ADD DUP1 PUSH2 0x34D2 PUSH1 0x28 SWAP2 CODECOPY PUSH1 0x40 ADD SWAP2 POP POP PUSH1 0x40 MLOAD DUP1 SWAP2 SUB SWAP1 REVERT JUMPDEST PUSH2 0x2BBA DUP2 CALLER PUSH2 0x1EC5 JUMP JUMPDEST PUSH2 0x25F5 JUMPI PUSH1 0x0 DUP1 REVERT JUMPDEST PUSH1 0x0 DUP3 DUP2 MSTORE PUSH1 0x20 DUP2 SWAP1 MSTORE PUSH1 0x40 SWAP1 KECCAK256 PUSH2 0x2BDB SWAP1 DUP3 PUSH2 0x23F6 JUMP JUMPDEST ISZERO PUSH2 0x17D2 JUMPI PUSH2 0x2BE8 PUSH2 0x247A JUMP JUMPDEST PUSH1 0x1 PUSH1 0x1 PUSH1 0xA0 SHL SUB AND DUP2 PUSH1 0x1 PUSH1 0x1 PUSH1 0xA0 SHL SUB AND DUP4 PUSH32 0x2F8788117E7EFF1D82E926EC794901D17C78024A50270940304540A733656F0D PUSH1 0x40 MLOAD PUSH1 0x40 MLOAD DUP1 SWAP2 SUB SWAP1 LOG4 POP POP JUMP JUMPDEST PUSH1 0x0 DUP3 DUP2 MSTORE PUSH1 0x20 DUP2 SWAP1 MSTORE PUSH1 0x40 SWAP1 KECCAK256 PUSH2 0x2C44 SWAP1 DUP3 PUSH2 0x318A JUMP JUMPDEST ISZERO PUSH2 0x17D2 JUMPI PUSH2 0x2C51 PUSH2 0x247A JUMP JUMPDEST PUSH1 0x1 PUSH1 0x1 PUSH1 0xA0 SHL SUB AND DUP2 PUSH1 0x1 PUSH1 0x1 PUSH1 0xA0 SHL SUB AND DUP4 PUSH32 0xF6391F5C32D9C69D2A47EA670B442974B53935D1EDC7FD64EB21E047A839171B PUSH1 0x40 MLOAD PUSH1 0x40 MLOAD DUP1 SWAP2 SUB SWAP1 LOG4 POP POP JUMP JUMPDEST PUSH1 0xE SLOAD PUSH1 0x0 SWAP1 DUP2 MSTORE PUSH1 0xC PUSH1 0x20 SWAP1 DUP2 MSTORE PUSH1 0x40 DUP1 DUP4 KECCAK256 DUP5 DUP5 MSTORE SWAP1 SWAP2 MSTORE DUP2 KECCAK256 SLOAD PUSH1 0x4 GT ISZERO PUSH2 0x2CC2 JUMPI POP PUSH1 0x1 PUSH2 0xE96 JUMP JUMPDEST PUSH1 0xE SLOAD PUSH1 0x0 SWAP1 DUP2 MSTORE PUSH1 0xC PUSH1 0x20 SWAP1 DUP2 MSTORE PUSH1 0x40 DUP1 DUP4 KECCAK256 DUP6 DUP5 MSTORE SWAP1 SWAP2 MSTORE SWAP1 KECCAK256 SLOAD PUSH1 0x1 JUMPDEST PUSH1 0x6 SLOAD DUP2 GT PUSH2 0x2D37 JUMPI PUSH1 0xE SLOAD PUSH1 0x0 SWAP1 DUP2 MSTORE PUSH1 0xC PUSH1 0x20 SWAP1 DUP2 MSTORE PUSH1 0x40 DUP1 DUP4 KECCAK256 DUP5 DUP5 MSTORE SWAP1 SWAP2 MSTORE SWAP1 KECCAK256 SLOAD DUP3 GT ISZERO PUSH2 0x2D2F JUMPI PUSH1 0xE SLOAD PUSH1 0x0 SWAP1 DUP2 MSTORE PUSH1 0xC PUSH1 0x20 SWAP1 DUP2 MSTORE PUSH1 0x40 DUP1 DUP4 KECCAK256 DUP5 DUP5 MSTORE SWAP1 SWAP2 MSTORE SWAP1 KECCAK256 SLOAD SWAP2 POP JUMPDEST PUSH1 0x1 ADD PUSH2 0x2CE2 JUMP JUMPDEST POP PUSH2 0x2D43 DUP2 PUSH1 0x2 PUSH2 0x2D6A JUMP JUMPDEST PUSH1 0xE SLOAD PUSH1 0x0 SWAP1 DUP2 MSTORE PUSH1 0xC PUSH1 0x20 SWAP1 DUP2 MSTORE PUSH1 0x40 DUP1 DUP4 KECCAK256 DUP8 DUP5 MSTORE SWAP1 SWAP2 MSTORE SWAP1 KECCAK256 SLOAD GT ISZERO SWAP2 POP POP SWAP2 SWAP1 POP JUMP JUMPDEST PUSH1 0x0 DUP3 PUSH2 0x2D79 JUMPI POP PUSH1 0x0 PUSH2 0xE72 JUMP JUMPDEST DUP3 DUP3 MUL DUP3 DUP5 DUP3 DUP2 PUSH2 0x2D86 JUMPI INVALID JUMPDEST DIV EQ PUSH2 0x1EB9 JUMPI PUSH1 0x40 MLOAD PUSH3 0x461BCD PUSH1 0xE5 SHL DUP2 MSTORE PUSH1 0x4 ADD DUP1 DUP1 PUSH1 0x20 ADD DUP3 DUP2 SUB DUP3 MSTORE PUSH1 0x21 DUP2 MSTORE PUSH1 0x20 ADD DUP1 PUSH2 0x3695 PUSH1 0x21 SWAP2 CODECOPY PUSH1 0x40 ADD SWAP2 POP POP PUSH1 0x40 MLOAD DUP1 SWAP2 SUB SWAP1 REVERT JUMPDEST PUSH1 0x0 DUP1 DUP3 GT PUSH2 0x2E19 JUMPI PUSH1 0x40 DUP1 MLOAD PUSH3 0x461BCD PUSH1 0xE5 SHL DUP2 MSTORE PUSH1 0x20 PUSH1 0x4 DUP3 ADD MSTORE PUSH1 0x1A PUSH1 0x24 DUP3 ADD MSTORE PUSH32 0x536166654D6174683A206469766973696F6E206279207A65726F000000000000 PUSH1 0x44 DUP3 ADD MSTORE SWAP1 MLOAD SWAP1 DUP2 SWAP1 SUB PUSH1 0x64 ADD SWAP1 REVERT JUMPDEST DUP2 DUP4 DUP2 PUSH2 0x2E22 JUMPI INVALID JUMPDEST DIV SWAP4 SWAP3 POP POP POP JUMP JUMPDEST PUSH1 0x0 PUSH2 0x1EB9 DUP4 DUP4 PUSH2 0x319F JUMP JUMPDEST DUP1 PUSH1 0x0 DUP2 GT DUP1 ISZERO PUSH2 0x2E48 JUMPI POP PUSH1 0x7 DUP2 GT ISZERO JUMPDEST PUSH2 0x2E51 JUMPI PUSH1 0x0 DUP1 REVERT JUMPDEST PUSH1 0x0 DUP3 DUP2 MSTORE PUSH1 0x8 PUSH1 0x20 MSTORE PUSH1 0x40 SWAP1 KECCAK256 SLOAD PUSH1 0xFF AND PUSH2 0x2E6C JUMPI PUSH1 0x0 DUP1 REVERT JUMPDEST PUSH1 0x0 DUP3 DUP2 MSTORE PUSH1 0x7 PUSH1 0x20 MSTORE PUSH1 0x40 SWAP1 KECCAK256 SLOAD PUSH2 0x2E90 SWAP1 PUSH1 0x1 PUSH1 0x1 PUSH1 0xA0 SHL SUB AND DUP4 PUSH1 0x1 PUSH2 0x25F8 JUMP JUMPDEST PUSH1 0x6 SLOAD PUSH2 0x2E9E SWAP1 PUSH1 0x1 PUSH2 0x272B JUMP JUMPDEST PUSH1 0x6 SSTORE PUSH1 0x0 DUP3 DUP2 MSTORE PUSH1 0x7 PUSH1 0x20 SWAP1 DUP2 MSTORE PUSH1 0x40 DUP1 DUP4 KECCAK256 DUP1 SLOAD PUSH1 0x1 PUSH1 0x1 PUSH1 0xA0 SHL SUB NOT AND SWAP1 SSTORE PUSH1 0x8 DUP1 DUP4 MSTORE DUP2 DUP5 KECCAK256 DUP1 SLOAD PUSH1 0xFF NOT AND DUP2 SSTORE PUSH1 0x1 DUP2 ADD DUP6 SWAP1 SSTORE PUSH1 0x2 DUP2 ADD DUP6 SWAP1 SSTORE DUP3 MLOAD DUP1 DUP6 ADD SWAP4 DUP5 SWAP1 MSTORE DUP6 DUP2 MSTORE SWAP5 DUP8 SWAP1 MSTORE SWAP3 MSTORE SWAP2 MLOAD PUSH2 0x2F02 SWAP3 PUSH1 0x3 SWAP1 SWAP3 ADD SWAP2 SWAP1 PUSH2 0x32FE JUMP JUMPDEST POP POP PUSH1 0x0 SWAP1 DUP2 MSTORE PUSH1 0x8 PUSH1 0x20 MSTORE PUSH1 0x40 DUP2 KECCAK256 PUSH1 0x4 ADD SSTORE JUMP JUMPDEST PUSH1 0x0 PUSH2 0xE72 DUP3 PUSH2 0x3203 JUMP JUMPDEST PUSH1 0x40 DUP1 MLOAD PUSH1 0x1 DUP1 DUP3 MSTORE DUP2 DUP4 ADD SWAP1 SWAP3 MSTORE PUSH1 0x60 SWAP2 DUP3 SWAP2 SWAP1 PUSH1 0x20 DUP1 DUP4 ADD SWAP1 DUP1 CALLDATASIZE DUP4 CALLDATACOPY ADD SWAP1 POP POP SWAP1 POP DUP3 DUP2 PUSH1 0x0 DUP2 MLOAD DUP2 LT PUSH2 0x2F56 JUMPI INVALID JUMPDEST PUSH1 0x20 SWAP1 DUP2 MUL SWAP2 SWAP1 SWAP2 ADD ADD MSTORE SWAP3 SWAP2 POP POP JUMP JUMPDEST PUSH2 0x2F79 DUP5 PUSH1 0x1 PUSH1 0x1 PUSH1 0xA0 SHL SUB AND PUSH2 0x3184 JUMP JUMPDEST ISZERO PUSH2 0x17B3 JUMPI DUP4 PUSH1 0x1 PUSH1 0x1 PUSH1 0xA0 SHL SUB AND PUSH4 0xF23A6E61 DUP8 DUP8 DUP7 DUP7 DUP7 PUSH1 0x40 MLOAD DUP7 PUSH4 0xFFFFFFFF AND PUSH1 0xE0 SHL DUP2 MSTORE PUSH1 0x4 ADD DUP1 DUP7 PUSH1 0x1 PUSH1 0x1 PUSH1 0xA0 SHL SUB AND DUP2 MSTORE PUSH1 0x20 ADD DUP6 PUSH1 0x1 PUSH1 0x1 PUSH1 0xA0 SHL SUB AND DUP2 MSTORE PUSH1 0x20 ADD DUP5 DUP2 MSTORE PUSH1 0x20 ADD DUP4 DUP2 MSTORE PUSH1 0x20 ADD DUP1 PUSH1 0x20 ADD DUP3 DUP2 SUB DUP3 MSTORE DUP4 DUP2 DUP2 MLOAD DUP2 MSTORE PUSH1 0x20 ADD SWAP2 POP DUP1 MLOAD SWAP1 PUSH1 0x20 ADD SWAP1 DUP1 DUP4 DUP4 PUSH1 0x0 JUMPDEST DUP4 DUP2 LT ISZERO PUSH2 0x3008 JUMPI DUP2 DUP2 ADD MLOAD DUP4 DUP3 ADD MSTORE PUSH1 0x20 ADD PUSH2 0x2FF0 JUMP JUMPDEST POP POP POP POP SWAP1 POP SWAP1 DUP2 ADD SWAP1 PUSH1 0x1F AND DUP1 ISZERO PUSH2 0x3035 JUMPI DUP1 DUP3 SUB DUP1 MLOAD PUSH1 0x1 DUP4 PUSH1 0x20 SUB PUSH2 0x100 EXP SUB NOT AND DUP2 MSTORE PUSH1 0x20 ADD SWAP2 POP JUMPDEST POP SWAP7 POP POP POP POP POP POP POP PUSH1 0x20 PUSH1 0x40 MLOAD DUP1 DUP4 SUB DUP2 PUSH1 0x0 DUP8 DUP1 EXTCODESIZE ISZERO DUP1 ISZERO PUSH2 0x3058 JUMPI PUSH1 0x0 DUP1 REVERT JUMPDEST POP GAS CALL SWAP3 POP POP POP DUP1 ISZERO PUSH2 0x307D JUMPI POP PUSH1 0x40 MLOAD RETURNDATASIZE PUSH1 0x20 DUP2 LT ISZERO PUSH2 0x3078 JUMPI PUSH1 0x0 DUP1 REVERT JUMPDEST POP MLOAD PUSH1 0x1 JUMPDEST PUSH2 0x3089 JUMPI PUSH2 0x2AD8 PUSH2 0x33D6 JUMP JUMPDEST PUSH1 0x1 PUSH1 0x1 PUSH1 0xE0 SHL SUB NOT DUP2 AND PUSH4 0xF23A6E61 PUSH1 0xE0 SHL EQ PUSH2 0x289A JUMPI PUSH1 0x40 MLOAD PUSH3 0x461BCD PUSH1 0xE5 SHL DUP2 MSTORE PUSH1 0x4 ADD DUP1 DUP1 PUSH1 0x20 ADD DUP3 DUP2 SUB DUP3 MSTORE PUSH1 0x28 DUP2 MSTORE PUSH1 0x20 ADD DUP1 PUSH2 0x34D2 PUSH1 0x28 SWAP2 CODECOPY PUSH1 0x40 ADD SWAP2 POP POP PUSH1 0x40 MLOAD DUP1 SWAP2 SUB SWAP1 REVERT JUMPDEST PUSH1 0x0 DUP1 PUSH1 0x1 PUSH2 0x30FF PUSH1 0x64 PUSH2 0x1BA8 PUSH1 0x2 PUSH2 0x30F9 DUP9 PUSH8 0xDE0B6B3A7640000 PUSH2 0x2D6A JUMP JUMPDEST SWAP1 PUSH2 0x2D6A JUMP JUMPDEST SWAP2 POP PUSH2 0x23EE PUSH2 0x311B PUSH1 0xA PUSH2 0x1BA8 DUP5 PUSH8 0xDE0B6B3A7640000 PUSH2 0x2D6A JUMP JUMPDEST DUP4 SWAP1 PUSH2 0x2420 JUMP JUMPDEST PUSH1 0x0 PUSH2 0x312E DUP4 DUP4 PUSH2 0x316C JUMP JUMPDEST PUSH2 0x3164 JUMPI POP DUP2 SLOAD PUSH1 0x1 DUP2 DUP2 ADD DUP5 SSTORE PUSH1 0x0 DUP5 DUP2 MSTORE PUSH1 0x20 DUP1 DUP3 KECCAK256 SWAP1 SWAP4 ADD DUP5 SWAP1 SSTORE DUP5 SLOAD DUP5 DUP3 MSTORE DUP3 DUP7 ADD SWAP1 SWAP4 MSTORE PUSH1 0x40 SWAP1 KECCAK256 SWAP2 SWAP1 SWAP2 SSTORE PUSH2 0xE72 JUMP JUMPDEST POP PUSH1 0x0 PUSH2 0xE72 JUMP JUMPDEST PUSH1 0x0 SWAP1 DUP2 MSTORE PUSH1 0x1 SWAP2 SWAP1 SWAP2 ADD PUSH1 0x20 MSTORE PUSH1 0x40 SWAP1 KECCAK256 SLOAD ISZERO ISZERO SWAP1 JUMP JUMPDEST EXTCODESIZE ISZERO ISZERO SWAP1 JUMP JUMPDEST PUSH1 0x0 PUSH2 0x1EB9 DUP4 PUSH1 0x1 PUSH1 0x1 PUSH1 0xA0 SHL SUB DUP5 AND PUSH2 0x3207 JUMP JUMPDEST DUP2 SLOAD PUSH1 0x0 SWAP1 DUP3 LT PUSH2 0x31E1 JUMPI PUSH1 0x40 MLOAD PUSH3 0x461BCD PUSH1 0xE5 SHL DUP2 MSTORE PUSH1 0x4 ADD DUP1 DUP1 PUSH1 0x20 ADD DUP3 DUP2 SUB DUP3 MSTORE PUSH1 0x22 DUP2 MSTORE PUSH1 0x20 ADD DUP1 PUSH2 0x34B0 PUSH1 0x22 SWAP2 CODECOPY PUSH1 0x40 ADD SWAP2 POP POP PUSH1 0x40 MLOAD DUP1 SWAP2 SUB SWAP1 REVERT JUMPDEST DUP3 PUSH1 0x0 ADD DUP3 DUP2 SLOAD DUP2 LT PUSH2 0x31F0 JUMPI INVALID JUMPDEST SWAP1 PUSH1 0x0 MSTORE PUSH1 0x20 PUSH1 0x0 KECCAK256 ADD SLOAD SWAP1 POP SWAP3 SWAP2 POP POP JUMP JUMPDEST SLOAD SWAP1 JUMP JUMPDEST PUSH1 0x0 DUP2 DUP2 MSTORE PUSH1 0x1 DUP4 ADD PUSH1 0x20 MSTORE PUSH1 0x40 DUP2 KECCAK256 SLOAD DUP1 ISZERO PUSH2 0x32C3 JUMPI DUP4 SLOAD PUSH1 0x0 NOT DUP1 DUP4 ADD SWAP2 SWAP1 DUP2 ADD SWAP1 PUSH1 0x0 SWAP1 DUP8 SWAP1 DUP4 SWAP1 DUP2 LT PUSH2 0x323A JUMPI INVALID JUMPDEST SWAP1 PUSH1 0x0 MSTORE PUSH1 0x20 PUSH1 0x0 KECCAK256 ADD SLOAD SWAP1 POP DUP1 DUP8 PUSH1 0x0 ADD DUP5 DUP2 SLOAD DUP2 LT PUSH2 0x3257 JUMPI INVALID JUMPDEST PUSH1 0x0 SWAP2 DUP3 MSTORE PUSH1 0x20 DUP1 DUP4 KECCAK256 SWAP1 SWAP2 ADD SWAP3 SWAP1 SWAP3 SSTORE DUP3 DUP2 MSTORE PUSH1 0x1 DUP10 DUP2 ADD SWAP1 SWAP3 MSTORE PUSH1 0x40 SWAP1 KECCAK256 SWAP1 DUP5 ADD SWAP1 SSTORE DUP7 SLOAD DUP8 SWAP1 DUP1 PUSH2 0x3287 JUMPI INVALID JUMPDEST PUSH1 0x1 SWAP1 SUB DUP2 DUP2 SWAP1 PUSH1 0x0 MSTORE PUSH1 0x20 PUSH1 0x0 KECCAK256 ADD PUSH1 0x0 SWAP1 SSTORE SWAP1 SSTORE DUP7 PUSH1 0x1 ADD PUSH1 0x0 DUP8 DUP2 MSTORE PUSH1 0x20 ADD SWAP1 DUP2 MSTORE PUSH1 0x20 ADD PUSH1 0x0 KECCAK256 PUSH1 0x0 SWAP1 SSTORE PUSH1 0x1 SWAP5 POP POP POP POP POP PUSH2 0xE72 JUMP JUMPDEST PUSH1 0x0 SWAP2 POP POP PUSH2 0xE72 JUMP JUMPDEST PUSH1 0x40 MLOAD DUP1 PUSH1 0xA0 ADD PUSH1 0x40 MSTORE DUP1 PUSH1 0x0 ISZERO ISZERO DUP2 MSTORE PUSH1 0x20 ADD PUSH1 0x0 DUP2 MSTORE PUSH1 0x20 ADD PUSH1 0x0 DUP2 MSTORE PUSH1 0x20 ADD PUSH1 0x60 DUP2 MSTORE PUSH1 0x20 ADD PUSH1 0x0 DUP2 MSTORE POP SWAP1 JUMP JUMPDEST DUP3 DUP1 SLOAD PUSH1 0x1 DUP2 PUSH1 0x1 AND ISZERO PUSH2 0x100 MUL SUB AND PUSH1 0x2 SWAP1 DIV SWAP1 PUSH1 0x0 MSTORE PUSH1 0x20 PUSH1 0x0 KECCAK256 SWAP1 PUSH1 0x1F ADD PUSH1 0x20 SWAP1 DIV DUP2 ADD SWAP3 DUP3 PUSH1 0x1F LT PUSH2 0x333F JUMPI DUP1 MLOAD PUSH1 0xFF NOT AND DUP4 DUP1 ADD OR DUP6 SSTORE PUSH2 0x336C JUMP JUMPDEST DUP3 DUP1 ADD PUSH1 0x1 ADD DUP6 SSTORE DUP3 ISZERO PUSH2 0x336C JUMPI SWAP2 DUP3 ADD JUMPDEST DUP3 DUP2 GT ISZERO PUSH2 0x336C JUMPI DUP3 MLOAD DUP3 SSTORE SWAP2 PUSH1 0x20 ADD SWAP2 SWAP1 PUSH1 0x1 ADD SWAP1 PUSH2 0x3351 JUMP JUMPDEST POP PUSH2 0x3378 SWAP3 SWAP2 POP PUSH2 0x33BB JUMP JUMPDEST POP SWAP1 JUMP JUMPDEST PUSH1 0x40 MLOAD DUP1 PUSH1 0xE0 ADD PUSH1 0x40 MSTORE DUP1 PUSH1 0x0 ISZERO ISZERO DUP2 MSTORE PUSH1 0x20 ADD PUSH1 0x0 DUP2 MSTORE PUSH1 0x20 ADD PUSH1 0x0 DUP2 MSTORE PUSH1 0x20 ADD PUSH1 0x0 DUP2 MSTORE PUSH1 0x20 ADD PUSH1 0x0 DUP2 MSTORE PUSH1 0x20 ADD PUSH1 0x60 DUP2 MSTORE PUSH1 0x20 ADD PUSH1 0x60 DUP2 MSTORE POP SWAP1 JUMP JUMPDEST JUMPDEST DUP1 DUP3 GT ISZERO PUSH2 0x3378 JUMPI PUSH1 0x0 DUP2 SSTORE PUSH1 0x1 ADD PUSH2 0x33BC JUMP JUMPDEST PUSH1 0xE0 SHR SWAP1 JUMP JUMPDEST PUSH1 0x0 PUSH1 0x44 RETURNDATASIZE LT ISZERO PUSH2 0x33E6 JUMPI PUSH2 0x247C JUMP JUMPDEST PUSH1 0x4 DUP2 DUP3 RETURNDATACOPY PUSH4 0x8C379A0 PUSH2 0x33FA DUP3 MLOAD PUSH2 0x33D0 JUMP JUMPDEST EQ PUSH2 0x3404 JUMPI PUSH2 0x247C JUMP JUMPDEST PUSH1 0x40 MLOAD RETURNDATASIZE PUSH1 0x3 NOT ADD PUSH1 0x4 DUP3 RETURNDATACOPY DUP1 MLOAD RETURNDATASIZE PUSH8 0xFFFFFFFFFFFFFFFF DUP2 PUSH1 0x24 DUP5 ADD GT DUP2 DUP5 GT OR ISZERO PUSH2 0x3434 JUMPI POP POP POP POP PUSH2 0x247C JUMP JUMPDEST DUP3 DUP5 ADD SWAP3 POP DUP3 MLOAD SWAP2 POP DUP1 DUP3 GT ISZERO PUSH2 0x344E JUMPI POP POP POP POP PUSH2 0x247C JUMP JUMPDEST POP RETURNDATASIZE DUP4 ADD PUSH1 0x20 DUP3 DUP5 ADD ADD GT ISZERO PUSH2 0x3466 JUMPI POP POP POP PUSH2 0x247C JUMP JUMPDEST PUSH1 0x1F ADD PUSH1 0x1F NOT AND DUP2 ADD PUSH1 0x20 ADD PUSH1 0x40 MSTORE SWAP2 POP POP SWAP1 JUMP INVALID GASLIMIT MSTORE NUMBER BALANCE BALANCE CALLDATALOAD CALLDATALOAD GASPRICE KECCAK256 PUSH21 0x72616E7366657220746F206E6F6E20455243313135 CALLDATALOAD MSTORE PUSH6 0x636569766572 KECCAK256 PUSH10 0x6D706C656D656E746572 GASLIMIT PUSH15 0x756D657261626C655365743A20696E PUSH5 0x6578206F75 PUSH21 0x206F6620626F756E6473455243313135353A204552 NUMBER BALANCE BALANCE CALLDATALOAD CALLDATALOAD MSTORE PUSH6 0x636569766572 KECCAK256 PUSH19 0x656A656374656420746F6B656E734163636573 PUSH20 0x436F6E74726F6C3A2073656E646572206D757374 KECCAK256 PUSH3 0x652061 PUSH15 0x2061646D696E20746F206772616E74 GASLIMIT MSTORE NUMBER BALANCE BALANCE CALLDATALOAD CALLDATALOAD GASPRICE KECCAK256 PUSH3 0x616C61 PUSH15 0x636520717565727920666F72207468 PUSH6 0x207A65726F20 PUSH2 0x6464 PUSH19 0x657373455243313135353A206275726E20616D PUSH16 0x756E7420657863656564732062616C61 PUSH15 0x6365455243313135353A2063616C6C PUSH6 0x72206973206E PUSH16 0x74206F776E6572206E6F722061707072 PUSH16 0x766564416363657373436F6E74726F6C GASPRICE KECCAK256 PUSH20 0x656E646572206D75737420626520616E2061646D PUSH10 0x6E20746F207265766F6B PUSH6 0x455243313135 CALLDATALOAD GASPRICE KECCAK256 PUSH21 0x72616E7366657220746F20746865207A65726F2061 PUSH5 0x6472657373 GASLIMIT MSTORE NUMBER BALANCE BALANCE CALLDATALOAD CALLDATALOAD GASPRICE KECCAK256 PUSH21 0x72616E736665722063616C6C6572206973206E6F74 KECCAK256 PUSH16 0x776E6572206E6F7220617070726F7665 PUSH5 0x2172861495 0xE7 0xB8 0x5E 0xDA 0xC7 RETURNDATACOPY EXTCODECOPY 0xD5 0xFB 0xB4 0x2D 0xD6 PUSH22 0xBAADF627720E687BCFDACA025096455243313135353A KECCAK256 PUSH3 0x75726E KECCAK256 PUSH7 0x726F6D20746865 KECCAK256 PUSH27 0x65726F2061646472657373455243313135353A20696E7375666669 PUSH4 0x69656E74 KECCAK256 PUSH3 0x616C61 PUSH15 0x636520666F72207472616E73666572 MSTORE8 PUSH2 0x6665 0x4D PUSH2 0x7468 GASPRICE KECCAK256 PUSH14 0x756C7469706C69636174696F6E20 PUSH16 0x766572666C6F77455243313135353A20 PUSH20 0x657474696E6720617070726F76616C2073746174 PUSH22 0x7320666F722073656C66455243313135353A20616363 PUSH16 0x756E747320616E6420696473206C656E PUSH8 0x7468206D69736D61 PUSH21 0x6368455243313135353A2069647320616E6420616D PUSH16 0x756E7473206C656E677468206D69736D PUSH2 0x7463 PUSH9 0x455243313135353A20 PUSH14 0x696E7420746F20746865207A6572 PUSH16 0x2061646472657373416363657373436F PUSH15 0x74726F6C3A2063616E206F6E6C7920 PUSH19 0x656E6F756E636520726F6C657320666F722073 PUSH6 0x6C66A2646970 PUSH7 0x7358221220E5E2 0xBF DUP4 0x29 DUP4 CHAINID 0x1E CALLDATACOPY 0xE1 BALANCE JUMPI PUSH13 0x947A0273E2CB90A8C8BD45DCE1 SLOAD 0xAC 0x2F 0x26 REVERT 0xD0 PUSH5 0x736F6C6343 STOP MOD 0xC STOP CALLER ","sha1":"b8ca0ae7bcf07777bb9db984449596196a6c8bc5","source":"// SPDX-License-Identifier: UNLICENSED\npragma solidity ^0.6.0;\n\nimport \"../interfaces/ICryptoChampions.sol\";\n\nimport \"alphachainio/chainlink-contracts@1.1.3/contracts/src/v0.6/interfaces/AggregatorV3Interface.sol\";\nimport \"OpenZeppelin/openzeppelin-contracts@3.4.0/contracts/access/AccessControl.sol\";\nimport \"OpenZeppelin/openzeppelin-contracts@3.4.0/contracts/math/SafeMath.sol\";\nimport \"OpenZeppelin/openzeppelin-contracts@3.4.0/contracts/token/ERC1155/ERC1155.sol\";\n\n/// @title Crypto Champions Interface\n/// @author Oozyx\n/// @notice This is the crypto champions class\ncontract CryptoChampions is ICryptoChampions, AccessControl, ERC1155 {\n    using SafeMath for uint256;\n\n    // Possible phases the contract can be in.  Phase one is when users can mint elder spirits and two is when they can mint heros.\n    enum Phase { ONE, TWO }\n\n    // The current phase the contract is in.\n    Phase public currentPhase;\n\n    // The owner role is used to globally govern the contract\n    bytes32 internal constant ROLE_OWNER = keccak256(\"ROLE_OWNER\");\n\n    // The admin role is used for administrator duties and reports to the owner\n    bytes32 internal constant ROLE_ADMIN = keccak256(\"ROLE_ADMIN\");\n\n    // Reserved id for the in game currency\n    uint256 internal constant IN_GAME_CURRENCY_ID = 0;\n\n    // Constants used to determine fee proportions.\n    // Usage: fee.mul(proportion).div(10)\n    uint8 internal constant HERO_MINT_ROYALTY_PROPORTION = 8;\n\n    // The max amount of elders that can be minted\n    uint256 public constant MAX_NUMBER_OF_ELDERS = 7;\n\n    // The amount of elders minted\n    // This amount cannot be greater than MAX_NUMBER_OF_ELDERS\n    uint256 public eldersInGame = 0;\n\n    // The mapping of elder id to elder owner, ids can only be in the range of [1, MAX_NUMBER OF ELDERS]\n    mapping(uint256 => address) internal _elderOwners;\n\n    // The mapping of elder id to the elder spirit\n    mapping(uint256 => ElderSpirit) internal _elderSpirits;\n\n    // The amount of heros minted\n    uint256 public heroesMinted = 0;\n\n    // The mapping of hero id to owner, ids can only be in the range of\n    // [1 + MAX_NUMBER_OF_ELDERS, ]\n    mapping(uint256 => address) internal _heroOwners;\n\n    // The mapping of hero id to the hero\n    mapping(uint256 => Hero) internal _heroes;\n\n    // The mapping of the round played to the elder spawns mapping\n    mapping(uint256 => mapping(uint256 => uint256)) internal _roundElderSpawns;\n\n    // The mint price for elders and heroes\n    uint256 public elderMintPrice;\n\n    // The current round index\n    uint256 public currentRound;\n\n    // The mapping of affinities (token ticker) to price feed address\n    mapping(string => address) internal _affinities;\n\n    /// @notice Triggered when an elder spirit gets minted\n    /// @param elderId The elder id belonging to the minted elder\n    /// @param owner The address of the owner\n    event ElderSpiritMinted(uint256 elderId, address owner);\n\n    /// @notice Triggered when a hero gets minted\n    /// @param heroId The hero id belonging to the hero that was minted\n    /// @param owner The address of the owner\n    event HeroMinted(uint256 heroId, address owner);\n\n    /// @notice Triggered when the elder spirits have been burned\n    event ElderSpiritsBurned();\n\n    /// @notice Triggered when a hero has been burned\n    /// @param heroId The hero id of the hero that was burned\n    event HeroBurned(uint256 heroId);\n\n    // Initializes a new CryptoChampions contract\n    // TODO: need to provide the proper uri\n    constructor() public ERC1155(\"uri\") {\n        // Set up administrative roles\n        _setRoleAdmin(ROLE_OWNER, ROLE_OWNER);\n        _setRoleAdmin(ROLE_ADMIN, ROLE_OWNER);\n\n        // Set up the deployer as the owner and give admin rights\n        _setupRole(ROLE_OWNER, msg.sender);\n        grantRole(ROLE_ADMIN, msg.sender);\n\n        // Set initial elder mint price\n        elderMintPrice = 0.271 ether;\n\n        // Set the initial round to 0\n        currentRound = 0;\n\n        // Set initial phase to phase one\n        currentPhase = Phase.ONE;\n    }\n\n    modifier isValidElderSpiritId(uint256 elderId) {\n        require(elderId > IN_GAME_CURRENCY_ID && elderId <= MAX_NUMBER_OF_ELDERS); // dev: Given id is not valid.\n        _;\n    }\n\n    // Restrict to only admins\n    modifier onlyAdmin {\n        _hasRole(ROLE_ADMIN);\n        _;\n    }\n\n    /// @notice Sets the contract's phase\n    /// @param phase The phase the contract should be set to\n    function setPhase(Phase phase) external onlyAdmin {\n        currentPhase = phase;\n    }\n\n    /// @notice Check if msg.sender has the role\n    /// @param role The role to verify\n    function _hasRole(bytes32 role) internal view {\n        require(hasRole(role, msg.sender)); // dev: Access denied.\n    }\n\n    /// @notice Creates a new token affinity\n    /// @dev This will be called by a priviledged address. It will allow to create new affinities. May need to add a\n    /// remove affinity function as well.\n    /// @param tokenTicker The token ticker of the affinity\n    /// @param feedAddress The price feed address\n    function createAffinity(string calldata tokenTicker, address feedAddress) external override onlyAdmin {\n        _affinities[tokenTicker] = feedAddress;\n    }\n\n    /// @notice Sets the elder mint price\n    /// @dev Can only be called by an admin address\n    /// @param price The new elder mint price\n    function setElderMintPrice(uint256 price) external override onlyAdmin {\n        elderMintPrice = price;\n    }\n\n    /// @notice Mints an elder spirit\n    /// @dev For now only race, class, and token (affinity) are needed. This will change. The race and class ids will\n    /// probably be public constants defined in the crypto champions contract, this is subject to change.\n    /// @param raceId The race id\n    /// @param classId The class id\n    /// @param affinity The affinity of the minted hero\n    /// @return The elder spirit id\n    function mintElderSpirit(\n        uint256 raceId,\n        uint256 classId,\n        string calldata affinity\n    ) external payable override returns (uint256) {\n        require(eldersInGame < MAX_NUMBER_OF_ELDERS); // dev: Max number of elders already minted.\n        require(msg.value >= elderMintPrice); // dev: Insufficient payment.\n        require(_affinities[affinity] != address(0)); // dev: Affinity does not exist.\n\n        // Generate the elderId and make sure it doesn't already exists\n        uint256 elderId = eldersInGame.add(1);\n        assert(_elderOwners[elderId] == address(0)); // dev: Elder with id already has owner.\n        assert(_elderSpirits[elderId].valid == false); // dev: Elder spirit with id has already been generated.\n\n        // Get the price data of affinity\n        int256 affinityPrice;\n        (, affinityPrice, , , ) = AggregatorV3Interface(_affinities[affinity]).latestRoundData();\n\n        // Create the elder spirit\n        ElderSpirit memory elder;\n        elder.valid = true;\n        elder.raceId = raceId;\n        elder.classId = classId;\n        elder.affinity = affinity;\n        elder.affinityPrice = affinityPrice;\n\n        // Mint the NFT\n        _mint(_msgSender(), elderId, 1, \"\"); // TODO: give the URI\n\n        // Assign the elder id with the owner and its spirit\n        _elderOwners[elderId] = _msgSender();\n        _elderSpirits[elderId] = elder;\n\n        // Increment elders minted\n        eldersInGame = eldersInGame.add(1);\n\n        // Refund if user sent too much\n        _refundSender(elderMintPrice);\n\n        emit ElderSpiritMinted(elderId, _msgSender());\n\n        return elderId;\n    }\n\n    /// @notice Gets the elder owner for the given elder id\n    /// @param elderId The elder id\n    /// @return The owner of the elder\n    function getElderOwner(uint256 elderId) public view override isValidElderSpiritId(elderId) returns (address) {\n        require(_elderOwners[elderId] != address(0)); // dev: Given elder id has not been minted.\n\n        return _elderOwners[elderId];\n    }\n\n    /// @notice Mints a hero based on an elder spirit\n    /// @param elderId The id of the elder spirit this hero is based on\n    /// @return The hero id\n    function mintHero(uint256 elderId, string calldata heroName)\n        external\n        payable\n        override\n        isValidElderSpiritId(elderId)\n        returns (uint256)\n    {\n        require(_elderSpirits[elderId].valid); // dev: Elder with id doesn't exists or not valid.\n\n        require(_canMintHero(elderId)); // dev: Can't mint hero. Too mnay heroes minted for elder.\n\n        uint256 mintPrice = getHeroMintPrice(currentRound, elderId);\n        require(msg.value >= mintPrice); // dev: Insufficient payment.\n\n        // Generate the hero id\n        uint256 heroId = heroesMinted.add(1) + MAX_NUMBER_OF_ELDERS;\n        assert(_heroOwners[heroId] == address(0)); // dev: Hero with id already has an owner.\n        assert(_heroes[heroId].valid == false); // dev: Hero with id has already been generated.\n\n        // Create the hero\n        Hero memory hero;\n        hero.valid = true;\n        hero.name = heroName;\n        hero.roundMinted = currentRound;\n        hero.elderId = elderId;\n        hero.raceId = _elderSpirits[elderId].raceId;\n        hero.classId = _elderSpirits[elderId].classId;\n        hero.affinity = _elderSpirits[elderId].affinity;\n\n        // Mint the NFT\n        _mint(_msgSender(), heroId, 1, \"\"); // TODO: give the URI\n\n        // Assign the hero id with the owner and with the hero\n        _heroOwners[heroId] = _msgSender();\n        _heroes[heroId] = hero;\n\n        // Increment the heroes minted and the elder spawns\n        heroesMinted = heroesMinted.add(1);\n        _roundElderSpawns[currentRound][elderId] = _roundElderSpawns[currentRound][elderId].add(1);\n\n        // Disburse royalties\n        uint256 royaltyFee = mintPrice.mul(HERO_MINT_ROYALTY_PROPORTION).div(10);\n        address seedOwner = _elderOwners[elderId];\n        (bool success, ) = seedOwner.call{ value: royaltyFee }(\"\");\n        require(success, \"Payment failed\");\n        // Remaining 20% kept for contract/Treum\n\n        // Refund if user sent too much\n        _refundSender(mintPrice);\n\n        emit HeroMinted(heroId, _msgSender());\n\n        return heroId;\n    }\n\n    /// @notice Checks to see if a hero can be minted for a given elder\n    /// @dev (n < 4) || (n <= 2 * m)\n    ///     n is number of champions already minted for elder\n    ///     m is number of champions already minted for elder with least amount of champions\n    /// @param elderId The elder id\n    /// @return True if hero can be minted, false otherwise\n    function _canMintHero(uint256 elderId) internal view returns (bool) {\n        // Verify first condition\n        if (_roundElderSpawns[currentRound][elderId] < 4) {\n            return true;\n        }\n\n        // Find the elder with the least amount of heroes minted\n        uint256 smallestElderAmount = _roundElderSpawns[currentRound][elderId];\n        for (uint256 i = 1; i <= eldersInGame; ++i) {\n            if (_roundElderSpawns[currentRound][i] < smallestElderAmount) {\n                smallestElderAmount = _roundElderSpawns[currentRound][i];\n            }\n        }\n\n        return _roundElderSpawns[currentRound][elderId] <= smallestElderAmount.mul(2);\n    }\n\n    /// @notice Get the hero owner for the given hero id\n    /// @param heroId The hero id\n    /// @return The owner address\n    function getHeroOwner(uint256 heroId) public view override returns (address) {\n        require(heroId > MAX_NUMBER_OF_ELDERS); // dev: Given hero id is not valid.\n        require(_heroOwners[heroId] != address(0)); // dev: Given hero id has not been minted.\n\n        return _heroOwners[heroId];\n    }\n\n    /// @notice Disburses the rewards evenly among the heroes of the winning affinity\n    /// @dev This will be called from a priviledged address\n    /// @param winningAffinity The winning affinity token ticker\n    function disburseRewards(string calldata winningAffinity) external override onlyAdmin {}\n\n    /// @notice Burns all the elder spirits in game\n    function burnElders() external override onlyAdmin {\n        require(eldersInGame > 0); // dev: No elders have been minted.\n        for (uint256 i = 1; i <= MAX_NUMBER_OF_ELDERS; ++i) {\n            if (_elderSpirits[i].valid) {\n                _burnElder(i);\n            }\n        }\n\n        // Increment the round\n        currentRound = currentRound.add(1);\n\n        emit ElderSpiritsBurned();\n    }\n\n    /// @notice Burns the elder spirit\n    /// @dev This will only be able to be called by the contract\n    /// @param elderId The elder id\n    function _burnElder(uint256 elderId) internal isValidElderSpiritId(elderId) {\n        require(_elderSpirits[elderId].valid); // dev: Cannot burn elder that does not exist.\n\n        // TODO: need to make sure _elderOwners[elderId] can never be address(0).\n        //     Check recipient before every token send so that we never send to address(0).\n        _burn(_elderOwners[elderId], elderId, 1);\n\n        // Reset elder values for elder id\n        eldersInGame = eldersInGame.sub(1);\n        _elderOwners[elderId] = address(0);\n        _elderSpirits[elderId].valid = false;\n        _elderSpirits[elderId].raceId = 0;\n        _elderSpirits[elderId].classId = 0;\n        _elderSpirits[elderId].affinity = \"\";\n        _elderSpirits[elderId].affinityPrice = 0;\n    }\n\n    /// @notice Burns the hero for a refund\n    /// @dev This will only be able to be called from the owner of the hero\n    /// @param heroId The hero id to burn\n    function burnHero(uint256 heroId) external override {\n        require(heroId > MAX_NUMBER_OF_ELDERS); // dev: Cannot burn with invalid hero id.\n        require(_heroes[heroId].valid); // dev: Cannot burn hero that does not exist.\n        require(_heroOwners[heroId] == _msgSender()); // dev: Cannot burn hero that is not yours.\n\n        _burn(_heroOwners[heroId], heroId, 1);\n\n        // Decrement the amount of spawns for the hero's elder\n        uint256 elderId = _heroes[heroId].elderId;\n        uint256 heroRound = _heroes[heroId].roundMinted;\n        _roundElderSpawns[heroRound][elderId] = _roundElderSpawns[heroRound][elderId].sub(1);\n\n        // Reset hero values for hero id\n        _heroOwners[heroId] = address(0);\n        _heroes[heroId].valid = false;\n        _heroes[heroId].roundMinted = 0;\n        _heroes[heroId].elderId = 0;\n        _heroes[heroId].raceId = 0;\n        _heroes[heroId].classId = 0;\n        _heroes[heroId].affinity = \"\";\n\n        emit HeroBurned(heroId);\n    }\n\n    /// @notice Gets the minting price of a hero based on specified elder spirit\n    /// @param round The round of the hero to be minted\n    /// @param elderId The elder id for which the hero will be based on\n    /// @return The hero mint price\n    function getHeroMintPrice(uint256 round, uint256 elderId) public view override returns (uint256) {\n        require(round <= currentRound); // dev: Cannot get price round has not started.\n        require(elderId > IN_GAME_CURRENCY_ID && elderId <= MAX_NUMBER_OF_ELDERS); // dev: Elder id is not valid.\n\n        uint256 heroAmount = _roundElderSpawns[round][elderId].add(1);\n\n        return _priceFormula(heroAmount);\n    }\n\n    /// @notice The bounding curve function that calculates price for the new supply\n    /// @dev price = 0.02*(heroes minted) + 0.1\n    /// @param newSupply The new supply after a burn or mint\n    /// @return The calculated price\n    function _priceFormula(uint256 newSupply) internal pure returns (uint256) {\n        uint256 price;\n        uint256 base = 1;\n        price = newSupply.mul(10**18).mul(2).div(100);\n        price = price.add(base.mul(10**18).div(10));\n\n        return price;\n    }\n\n    function _beforeTokenTransfer(\n        address operator,\n        address from,\n        address to,\n        uint256[] memory ids,\n        uint256[] memory amounts,\n        bytes memory data\n    ) internal virtual override {\n        super._beforeTokenTransfer(operator, from, to, ids, amounts, data);\n\n        for (uint256 i = 0; i < ids.length; i++) {\n            // If token is an elder spirit, update owners so can send them royalties\n            if (ids[i] > IN_GAME_CURRENCY_ID && ids[i] <= MAX_NUMBER_OF_ELDERS) {\n                _elderOwners[ids[i]] = payable(to);\n            }\n            if (ids[i] > MAX_NUMBER_OF_ELDERS) {\n                _heroOwners[ids[i]] = to;\n            }\n        }\n    }\n\n    /// @notice Gets the amount of heroes spawn from the elder with the specified id during the specified round\n    /// @param round The round the elder was created\n    /// @param elderId The elder id\n    /// @return The amount of heroes spawned from the elder\n    function getElderSpawnsAmount(uint256 round, uint256 elderId)\n        public\n        view\n        override\n        isValidElderSpiritId(elderId)\n        returns (uint256)\n    {\n        require(round <= currentRound); // dev: Invalid round.\n        return _roundElderSpawns[round][elderId];\n    }\n\n    /// @notice Refunds the sender if they sent too much\n    /// @param cost The cost\n    function _refundSender(uint256 cost) internal {\n        if (msg.value.sub(cost) > 0) {\n            (bool success, ) = msg.sender.call{ value: msg.value.sub(cost) }(\"\");\n            require(success); // dev: Refund failed.\n        }\n    }\n\n    /// @notice Fetches the data of a single elder spirit\n    /// @param elderId The id of the elder being searched for\n    /// @return The elder's attributes in the following order (valid, raceId, classId, affinity)\n    function getElderSpirit(uint256 elderId)\n        external\n        view\n        override\n        isValidElderSpiritId(elderId)\n        returns (\n            bool,\n            uint256,\n            uint256,\n            string memory,\n            int256\n        )\n    {\n        ElderSpirit memory elderSpirit = _elderSpirits[elderId];\n        return (\n            elderSpirit.valid,\n            elderSpirit.raceId,\n            elderSpirit.classId,\n            elderSpirit.affinity,\n            elderSpirit.affinityPrice\n        );\n    }\n}\n","sourcePath":"contracts/CryptoChampions.sol","type":"contract","deployment":{"address":"0xac1fb34ceb22ffE2DdE00a2851fB1f175c79C6f4","chainid":"42","blockHeight":24074793}}