{"abi":[{"inputs":[{"internalType":"address","name":"champz","type":"address"}],"stateMutability":"nonpayable","type":"constructor","name":"constructor"},{"inputs":[{"internalType":"uint256","name":"champzId","type":"uint256"}],"name":"fulfillChampzMintRaw","outputs":[],"stateMutability":"nonpayable","type":"function"},{"inputs":[{"internalType":"uint256","name":"heroId","type":"uint256"}],"name":"getHeroLore","outputs":[{"internalType":"uint8","name":"","type":"uint8"},{"internalType":"uint8","name":"","type":"uint8"},{"internalType":"uint8","name":"","type":"uint8"},{"internalType":"uint8","name":"","type":"uint8"}],"stateMutability":"view","type":"function"},{"inputs":[{"internalType":"uint8","name":"raceId","type":"uint8"},{"internalType":"uint8","name":"classId","type":"uint8"}],"name":"mintChampz","outputs":[],"stateMutability":"nonpayable","type":"function"},{"inputs":[{"internalType":"uint256","name":"champzId","type":"uint256"},{"internalType":"uint8","name":"raceId","type":"uint8"},{"internalType":"uint8","name":"classId","type":"uint8"}],"name":"registerChampz","outputs":[],"stateMutability":"nonpayable","type":"function"}],"bytecode":"608060405234801561001057600080fd5b50604051610c63380380610c638339818101604052602081101561003357600080fd5b5051600080546001600160a01b039092166001600160a01b0319909216919091179055610bfe806100656000396000f3fe608060405234801561001057600080fd5b506004361061004c5760003560e01c80634c2ed018146100515780635430f78d1461009c57806373a715c0146100cc578063b2faef2a146100f4575b600080fd5b61006e6004803603602081101561006757600080fd5b5035610111565b6040805160ff9586168152938516602085015291841683830152909216606082015290519081900360800190f35b6100ca600480360360608110156100b257600080fd5b5080359060ff6020820135811691604001351661014f565b005b6100ca600480360360408110156100e257600080fd5b5060ff8135811691602001351661023b565b6100ca6004803603602081101561010a57600080fd5b503561028b565b60009081526001602052604090206006015460ff600160381b8204811692600160401b8304821692600160481b8104831692600160501b9091041690565b60008381526001602052604090205460ff161561016b57600080fd5b60005460408051632c3a652360e21b81526004810186905290516001600160a01b039092169163b0e9948c91602480820192602092909190829003018186803b1580156101b757600080fd5b505afa1580156101cb573d6000803e3d6000fd5b505050506040513d60208110156101e157600080fd5b50516101ec57600080fd5b6000838152600160208190526040909120805460ff199081169092178155600601805490911660ff8481169190911761ff00191661010091841691909102179055610236836102ae565b505050565b6000610246336102b7565b6000908152600160208190526040909120805460ff199081169092178155600601805490911660ff9485161761ff001916610100939094169290920292909217905550565b6000546001600160a01b031633146102a257600080fd5b6102ab816102ae565b50565b6102ab8161033a565b60008054604080516318e5ae7160e11b81526001600160a01b038581166004830152915191909216916331cb5ce291602480830192602092919082900301818787803b15801561030657600080fd5b505af115801561031a573d6000803e3d6000fd5b505050506040513d602081101561033057600080fd5b505190505b919050565b6000805460408051632c3a652360e21b81526004810185905290516001600160a01b039092169163b0e9948c91602480820192602092909190829003018186803b15801561038757600080fd5b505afa15801561039b573d6000803e3d6000fd5b505050506040513d60208110156103b157600080fd5b50516000838152600160205260408120600601805460ff60581b1916600160581b1790559091506103e36002836109dc565b6000858152600160205260409020600601805460ff909316620100000262ff00001990931692909217909155905061041c6004826109dc565b6000858152600160205260409020600601805460ff90931663010000000263ff000000199093169290921790915590506104576004826109dc565b6000858152600160205260409020600601805460ff909316650100000000000265ff0000000000199093169290921790915590506104966009826109dc565b6000858152600160205260409020600601805460ff909316600160381b0267ff00000000000000199093169290921790915590506104d5601e826109dc565b6000858152600160205260409020600601805460ff909316600160401b0268ff0000000000000000199093169290921790915590506105156018826109dc565b6000858152600160205260409020600601805460ff909316600160481b0269ff000000000000000000199093169290921790915590506105566007826109dc565b6000858152600160205260409020600601805460ff60501b1916600160501b60ff94851602179081905590925061059c9161059691610100900416610a0d565b826109dc565b6000858152600160205260409020600601805460ff60601b1916600160601b60ff948516810291909117918290559193506105dc92919004166009610a57565b6000848152600160205260409020600601805460ff60601b1916600160601b60ff9384160217908190556106199161059691610100900416610ab8565b6000858152600160205260409020600601805460ff60681b1916600160681b60ff9485168102919091179182905591935061065992919004166009610a57565b6000848152600160205260409020600601805460ff92909216600160681b0260ff60681b19909216919091179055610692601f826109dc565b6000858152600160205260409020600601805460ff60701b1916600160701b60ff948516810291909117918290559193506106d292919004166009610a57565b6000848152600160205260409020600601805460ff92909216600160701b0260ff60701b1990921691909117905561070b6010826109dc565b6000858152600160205260409020600601805460ff60781b1916600160781b60ff9485168102919091179182905591935061074b92919004166002610a57565b6000848152600160205260409020600601805460ff92909216600160781b0260ff60781b199092169190911790556107846010826109dc565b6000858152600160205260409020600601805460ff60801b1916600160801b60ff948516810291909117918290559193506107c492919004166002610a57565b6000848152600160205260409020600601805460ff92909216600160801b0260ff60801b199092169190911790556107fd6010826109dc565b6000858152600160205260409020600601805460ff60881b1916600160881b60ff9485168102919091179182905591935061083d92919004166002610a57565b6000848152600160205260409020600601805460ff92909216600160881b0260ff60881b199092169190911790556108766010826109dc565b6000858152600160205260409020600601805460ff60901b1916600160901b60ff948516810291909117918290559193506108b692919004166002610a57565b6000848152600160205260409020600601805460ff92909216600160901b0260ff60901b199092169190911790556108ef6010826109dc565b6000858152600160205260409020600601805460ff60981b1916600160981b60ff9485168102919091179182905591935061092f92919004166002610a57565b6000848152600160205260409020600601805460ff92909216600160981b0260ff60981b199092169190911790556109686010826109dc565b6000858152600160205260409020600601805460ff60a01b1916600160a01b60ff948516810291909117918290559193506109a892919004166002610a57565b600093845260016020526040909320600601805460ff94909416600160a01b0260ff60a01b19909416939093179092555050565b6000806109f760016109f18560ff8816610afa565b90610a57565b610a0284600a610b61565b915091509250929050565b600060ff8216610a1f57506029610335565b8160ff1660011480610a3457508160ff166005145b80610a4257508160ff166006145b15610a4f57506015610335565b50601f610335565b600082820183811015610ab1576040805162461bcd60e51b815260206004820152601b60248201527f536166654d6174683a206164646974696f6e206f766572666c6f770000000000604482015290519081900360640190fd5b9392505050565b600060ff8216610aca57506015610335565b8160ff1660011480610adf57508160ff166005145b80610aed57508160ff166006145b15610a4f57506029610335565b6000808211610b50576040805162461bcd60e51b815260206004820152601860248201527f536166654d6174683a206d6f64756c6f206279207a65726f0000000000000000604482015290519081900360640190fd5b818381610b5957fe5b069392505050565b6000808211610bb7576040805162461bcd60e51b815260206004820152601a60248201527f536166654d6174683a206469766973696f6e206279207a65726f000000000000604482015290519081900360640190fd5b818381610bc057fe5b04939250505056fea2646970667358221220463e1a6f1187dd2996090160d7c39a750b271fa2e4cc259dcaacc766d626ffbc64736f6c634300060c0033","bytecodeSha1":"f485a161178e09a12c45d35cc23b13c4752cbfe7","compiler":{"evm_version":"istanbul","optimizer":{"enabled":true,"runs":200},"version":"0.6.12+commit.27d51765"},"contractName":"ChampzCaller","language":"Solidity","natspec":{"kind":"dev","methods":{"getHeroLore(uint256)":{"notice":"Hero getter function","params":{"heroId":"The hero id"},"returns":{"_0":"alignment, background, hometown, weather"}}},"version":1},"opcodes":"PUSH1 0x80 PUSH1 0x40 MSTORE CALLVALUE DUP1 ISZERO PUSH2 0x10 JUMPI PUSH1 0x0 DUP1 REVERT JUMPDEST POP PUSH1 0x4 CALLDATASIZE LT PUSH2 0x4C JUMPI PUSH1 0x0 CALLDATALOAD PUSH1 0xE0 SHR DUP1 PUSH4 0x4C2ED018 EQ PUSH2 0x51 JUMPI DUP1 PUSH4 0x5430F78D EQ PUSH2 0x9C JUMPI DUP1 PUSH4 0x73A715C0 EQ PUSH2 0xCC JUMPI DUP1 PUSH4 0xB2FAEF2A EQ PUSH2 0xF4 JUMPI JUMPDEST PUSH1 0x0 DUP1 REVERT JUMPDEST PUSH2 0x6E PUSH1 0x4 DUP1 CALLDATASIZE SUB PUSH1 0x20 DUP2 LT ISZERO PUSH2 0x67 JUMPI PUSH1 0x0 DUP1 REVERT JUMPDEST POP CALLDATALOAD PUSH2 0x111 JUMP JUMPDEST PUSH1 0x40 DUP1 MLOAD PUSH1 0xFF SWAP6 DUP7 AND DUP2 MSTORE SWAP4 DUP6 AND PUSH1 0x20 DUP6 ADD MSTORE SWAP2 DUP5 AND DUP4 DUP4 ADD MSTORE SWAP1 SWAP3 AND PUSH1 0x60 DUP3 ADD MSTORE SWAP1 MLOAD SWAP1 DUP2 SWAP1 SUB PUSH1 0x80 ADD SWAP1 RETURN JUMPDEST PUSH2 0xCA PUSH1 0x4 DUP1 CALLDATASIZE SUB PUSH1 0x60 DUP2 LT ISZERO PUSH2 0xB2 JUMPI PUSH1 0x0 DUP1 REVERT JUMPDEST POP DUP1 CALLDATALOAD SWAP1 PUSH1 0xFF PUSH1 0x20 DUP3 ADD CALLDATALOAD DUP2 AND SWAP2 PUSH1 0x40 ADD CALLDATALOAD AND PUSH2 0x14F JUMP JUMPDEST STOP JUMPDEST PUSH2 0xCA PUSH1 0x4 DUP1 CALLDATASIZE SUB PUSH1 0x40 DUP2 LT ISZERO PUSH2 0xE2 JUMPI PUSH1 0x0 DUP1 REVERT JUMPDEST POP PUSH1 0xFF DUP2 CALLDATALOAD DUP2 AND SWAP2 PUSH1 0x20 ADD CALLDATALOAD AND PUSH2 0x23B JUMP JUMPDEST PUSH2 0xCA PUSH1 0x4 DUP1 CALLDATASIZE SUB PUSH1 0x20 DUP2 LT ISZERO PUSH2 0x10A JUMPI PUSH1 0x0 DUP1 REVERT JUMPDEST POP CALLDATALOAD PUSH2 0x28B JUMP JUMPDEST PUSH1 0x0 SWAP1 DUP2 MSTORE PUSH1 0x1 PUSH1 0x20 MSTORE PUSH1 0x40 SWAP1 KECCAK256 PUSH1 0x6 ADD SLOAD PUSH1 0xFF PUSH1 0x1 PUSH1 0x38 SHL DUP3 DIV DUP2 AND SWAP3 PUSH1 0x1 PUSH1 0x40 SHL DUP4 DIV DUP3 AND SWAP3 PUSH1 0x1 PUSH1 0x48 SHL DUP2 DIV DUP4 AND SWAP3 PUSH1 0x1 PUSH1 0x50 SHL SWAP1 SWAP2 DIV AND SWAP1 JUMP JUMPDEST PUSH1 0x0 DUP4 DUP2 MSTORE PUSH1 0x1 PUSH1 0x20 MSTORE PUSH1 0x40 SWAP1 KECCAK256 SLOAD PUSH1 0xFF AND ISZERO PUSH2 0x16B JUMPI PUSH1 0x0 DUP1 REVERT JUMPDEST PUSH1 0x0 SLOAD PUSH1 0x40 DUP1 MLOAD PUSH4 0x2C3A6523 PUSH1 0xE2 SHL DUP2 MSTORE PUSH1 0x4 DUP2 ADD DUP7 SWAP1 MSTORE SWAP1 MLOAD PUSH1 0x1 PUSH1 0x1 PUSH1 0xA0 SHL SUB SWAP1 SWAP3 AND SWAP2 PUSH4 0xB0E9948C SWAP2 PUSH1 0x24 DUP1 DUP3 ADD SWAP3 PUSH1 0x20 SWAP3 SWAP1 SWAP2 SWAP1 DUP3 SWAP1 SUB ADD DUP2 DUP7 DUP1 EXTCODESIZE ISZERO DUP1 ISZERO PUSH2 0x1B7 JUMPI PUSH1 0x0 DUP1 REVERT JUMPDEST POP GAS STATICCALL ISZERO DUP1 ISZERO PUSH2 0x1CB JUMPI RETURNDATASIZE PUSH1 0x0 DUP1 RETURNDATACOPY RETURNDATASIZE PUSH1 0x0 REVERT JUMPDEST POP POP POP POP PUSH1 0x40 MLOAD RETURNDATASIZE PUSH1 0x20 DUP2 LT ISZERO PUSH2 0x1E1 JUMPI PUSH1 0x0 DUP1 REVERT JUMPDEST POP MLOAD PUSH2 0x1EC JUMPI PUSH1 0x0 DUP1 REVERT JUMPDEST PUSH1 0x0 DUP4 DUP2 MSTORE PUSH1 0x1 PUSH1 0x20 DUP2 SWAP1 MSTORE PUSH1 0x40 SWAP1 SWAP2 KECCAK256 DUP1 SLOAD PUSH1 0xFF NOT SWAP1 DUP2 AND SWAP1 SWAP3 OR DUP2 SSTORE PUSH1 0x6 ADD DUP1 SLOAD SWAP1 SWAP2 AND PUSH1 0xFF DUP5 DUP2 AND SWAP2 SWAP1 SWAP2 OR PUSH2 0xFF00 NOT AND PUSH2 0x100 SWAP2 DUP5 AND SWAP2 SWAP1 SWAP2 MUL OR SWAP1 SSTORE PUSH2 0x236 DUP4 PUSH2 0x2AE JUMP JUMPDEST POP POP POP JUMP JUMPDEST PUSH1 0x0 PUSH2 0x246 CALLER PUSH2 0x2B7 JUMP JUMPDEST PUSH1 0x0 SWAP1 DUP2 MSTORE PUSH1 0x1 PUSH1 0x20 DUP2 SWAP1 MSTORE PUSH1 0x40 SWAP1 SWAP2 KECCAK256 DUP1 SLOAD PUSH1 0xFF NOT SWAP1 DUP2 AND SWAP1 SWAP3 OR DUP2 SSTORE PUSH1 0x6 ADD DUP1 SLOAD SWAP1 SWAP2 AND PUSH1 0xFF SWAP5 DUP6 AND OR PUSH2 0xFF00 NOT AND PUSH2 0x100 SWAP4 SWAP1 SWAP5 AND SWAP3 SWAP1 SWAP3 MUL SWAP3 SWAP1 SWAP3 OR SWAP1 SSTORE POP JUMP JUMPDEST PUSH1 0x0 SLOAD PUSH1 0x1 PUSH1 0x1 PUSH1 0xA0 SHL SUB AND CALLER EQ PUSH2 0x2A2 JUMPI PUSH1 0x0 DUP1 REVERT JUMPDEST PUSH2 0x2AB DUP2 PUSH2 0x2AE JUMP JUMPDEST POP JUMP JUMPDEST PUSH2 0x2AB DUP2 PUSH2 0x33A JUMP JUMPDEST PUSH1 0x0 DUP1 SLOAD PUSH1 0x40 DUP1 MLOAD PUSH4 0x18E5AE71 PUSH1 0xE1 SHL DUP2 MSTORE PUSH1 0x1 PUSH1 0x1 PUSH1 0xA0 SHL SUB DUP6 DUP2 AND PUSH1 0x4 DUP4 ADD MSTORE SWAP2 MLOAD SWAP2 SWAP1 SWAP3 AND SWAP2 PUSH4 0x31CB5CE2 SWAP2 PUSH1 0x24 DUP1 DUP4 ADD SWAP3 PUSH1 0x20 SWAP3 SWAP2 SWAP1 DUP3 SWAP1 SUB ADD DUP2 DUP8 DUP8 DUP1 EXTCODESIZE ISZERO DUP1 ISZERO PUSH2 0x306 JUMPI PUSH1 0x0 DUP1 REVERT JUMPDEST POP GAS CALL ISZERO DUP1 ISZERO PUSH2 0x31A JUMPI RETURNDATASIZE PUSH1 0x0 DUP1 RETURNDATACOPY RETURNDATASIZE PUSH1 0x0 REVERT JUMPDEST POP POP POP POP PUSH1 0x40 MLOAD RETURNDATASIZE PUSH1 0x20 DUP2 LT ISZERO PUSH2 0x330 JUMPI PUSH1 0x0 DUP1 REVERT JUMPDEST POP MLOAD SWAP1 POP JUMPDEST SWAP2 SWAP1 POP JUMP JUMPDEST PUSH1 0x0 DUP1 SLOAD PUSH1 0x40 DUP1 MLOAD PUSH4 0x2C3A6523 PUSH1 0xE2 SHL DUP2 MSTORE PUSH1 0x4 DUP2 ADD DUP6 SWAP1 MSTORE SWAP1 MLOAD PUSH1 0x1 PUSH1 0x1 PUSH1 0xA0 SHL SUB SWAP1 SWAP3 AND SWAP2 PUSH4 0xB0E9948C SWAP2 PUSH1 0x24 DUP1 DUP3 ADD SWAP3 PUSH1 0x20 SWAP3 SWAP1 SWAP2 SWAP1 DUP3 SWAP1 SUB ADD DUP2 DUP7 DUP1 EXTCODESIZE ISZERO DUP1 ISZERO PUSH2 0x387 JUMPI PUSH1 0x0 DUP1 REVERT JUMPDEST POP GAS STATICCALL ISZERO DUP1 ISZERO PUSH2 0x39B JUMPI RETURNDATASIZE PUSH1 0x0 DUP1 RETURNDATACOPY RETURNDATASIZE PUSH1 0x0 REVERT JUMPDEST POP POP POP POP PUSH1 0x40 MLOAD RETURNDATASIZE PUSH1 0x20 DUP2 LT ISZERO PUSH2 0x3B1 JUMPI PUSH1 0x0 DUP1 REVERT JUMPDEST POP MLOAD PUSH1 0x0 DUP4 DUP2 MSTORE PUSH1 0x1 PUSH1 0x20 MSTORE PUSH1 0x40 DUP2 KECCAK256 PUSH1 0x6 ADD DUP1 SLOAD PUSH1 0xFF PUSH1 0x58 SHL NOT AND PUSH1 0x1 PUSH1 0x58 SHL OR SWAP1 SSTORE SWAP1 SWAP2 POP PUSH2 0x3E3 PUSH1 0x2 DUP4 PUSH2 0x9DC JUMP JUMPDEST PUSH1 0x0 DUP6 DUP2 MSTORE PUSH1 0x1 PUSH1 0x20 MSTORE PUSH1 0x40 SWAP1 KECCAK256 PUSH1 0x6 ADD DUP1 SLOAD PUSH1 0xFF SWAP1 SWAP4 AND PUSH3 0x10000 MUL PUSH3 0xFF0000 NOT SWAP1 SWAP4 AND SWAP3 SWAP1 SWAP3 OR SWAP1 SWAP2 SSTORE SWAP1 POP PUSH2 0x41C PUSH1 0x4 DUP3 PUSH2 0x9DC JUMP JUMPDEST PUSH1 0x0 DUP6 DUP2 MSTORE PUSH1 0x1 PUSH1 0x20 MSTORE PUSH1 0x40 SWAP1 KECCAK256 PUSH1 0x6 ADD DUP1 SLOAD PUSH1 0xFF SWAP1 SWAP4 AND PUSH4 0x1000000 MUL PUSH4 0xFF000000 NOT SWAP1 SWAP4 AND SWAP3 SWAP1 SWAP3 OR SWAP1 SWAP2 SSTORE SWAP1 POP PUSH2 0x457 PUSH1 0x4 DUP3 PUSH2 0x9DC JUMP JUMPDEST PUSH1 0x0 DUP6 DUP2 MSTORE PUSH1 0x1 PUSH1 0x20 MSTORE PUSH1 0x40 SWAP1 KECCAK256 PUSH1 0x6 ADD DUP1 SLOAD PUSH1 0xFF SWAP1 SWAP4 AND PUSH6 0x10000000000 MUL PUSH6 0xFF0000000000 NOT SWAP1 SWAP4 AND SWAP3 SWAP1 SWAP3 OR SWAP1 SWAP2 SSTORE SWAP1 POP PUSH2 0x496 PUSH1 0x9 DUP3 PUSH2 0x9DC JUMP JUMPDEST PUSH1 0x0 DUP6 DUP2 MSTORE PUSH1 0x1 PUSH1 0x20 MSTORE PUSH1 0x40 SWAP1 KECCAK256 PUSH1 0x6 ADD DUP1 SLOAD PUSH1 0xFF SWAP1 SWAP4 AND PUSH1 0x1 PUSH1 0x38 SHL MUL PUSH8 0xFF00000000000000 NOT SWAP1 SWAP4 AND SWAP3 SWAP1 SWAP3 OR SWAP1 SWAP2 SSTORE SWAP1 POP PUSH2 0x4D5 PUSH1 0x1E DUP3 PUSH2 0x9DC JUMP JUMPDEST PUSH1 0x0 DUP6 DUP2 MSTORE PUSH1 0x1 PUSH1 0x20 MSTORE PUSH1 0x40 SWAP1 KECCAK256 PUSH1 0x6 ADD DUP1 SLOAD PUSH1 0xFF SWAP1 SWAP4 AND PUSH1 0x1 PUSH1 0x40 SHL MUL PUSH9 0xFF0000000000000000 NOT SWAP1 SWAP4 AND SWAP3 SWAP1 SWAP3 OR SWAP1 SWAP2 SSTORE SWAP1 POP PUSH2 0x515 PUSH1 0x18 DUP3 PUSH2 0x9DC JUMP JUMPDEST PUSH1 0x0 DUP6 DUP2 MSTORE PUSH1 0x1 PUSH1 0x20 MSTORE PUSH1 0x40 SWAP1 KECCAK256 PUSH1 0x6 ADD DUP1 SLOAD PUSH1 0xFF SWAP1 SWAP4 AND PUSH1 0x1 PUSH1 0x48 SHL MUL PUSH10 0xFF000000000000000000 NOT SWAP1 SWAP4 AND SWAP3 SWAP1 SWAP3 OR SWAP1 SWAP2 SSTORE SWAP1 POP PUSH2 0x556 PUSH1 0x7 DUP3 PUSH2 0x9DC JUMP JUMPDEST PUSH1 0x0 DUP6 DUP2 MSTORE PUSH1 0x1 PUSH1 0x20 MSTORE PUSH1 0x40 SWAP1 KECCAK256 PUSH1 0x6 ADD DUP1 SLOAD PUSH1 0xFF PUSH1 0x50 SHL NOT AND PUSH1 0x1 PUSH1 0x50 SHL PUSH1 0xFF SWAP5 DUP6 AND MUL OR SWAP1 DUP2 SWAP1 SSTORE SWAP1 SWAP3 POP PUSH2 0x59C SWAP2 PUSH2 0x596 SWAP2 PUSH2 0x100 SWAP1 DIV AND PUSH2 0xA0D JUMP JUMPDEST DUP3 PUSH2 0x9DC JUMP JUMPDEST PUSH1 0x0 DUP6 DUP2 MSTORE PUSH1 0x1 PUSH1 0x20 MSTORE PUSH1 0x40 SWAP1 KECCAK256 PUSH1 0x6 ADD DUP1 SLOAD PUSH1 0xFF PUSH1 0x60 SHL NOT AND PUSH1 0x1 PUSH1 0x60 SHL PUSH1 0xFF SWAP5 DUP6 AND DUP2 MUL SWAP2 SWAP1 SWAP2 OR SWAP2 DUP3 SWAP1 SSTORE SWAP2 SWAP4 POP PUSH2 0x5DC SWAP3 SWAP2 SWAP1 DIV AND PUSH1 0x9 PUSH2 0xA57 JUMP JUMPDEST PUSH1 0x0 DUP5 DUP2 MSTORE PUSH1 0x1 PUSH1 0x20 MSTORE PUSH1 0x40 SWAP1 KECCAK256 PUSH1 0x6 ADD DUP1 SLOAD PUSH1 0xFF PUSH1 0x60 SHL NOT AND PUSH1 0x1 PUSH1 0x60 SHL PUSH1 0xFF SWAP4 DUP5 AND MUL OR SWAP1 DUP2 SWAP1 SSTORE PUSH2 0x619 SWAP2 PUSH2 0x596 SWAP2 PUSH2 0x100 SWAP1 DIV AND PUSH2 0xAB8 JUMP JUMPDEST PUSH1 0x0 DUP6 DUP2 MSTORE PUSH1 0x1 PUSH1 0x20 MSTORE PUSH1 0x40 SWAP1 KECCAK256 PUSH1 0x6 ADD DUP1 SLOAD PUSH1 0xFF PUSH1 0x68 SHL NOT AND PUSH1 0x1 PUSH1 0x68 SHL PUSH1 0xFF SWAP5 DUP6 AND DUP2 MUL SWAP2 SWAP1 SWAP2 OR SWAP2 DUP3 SWAP1 SSTORE SWAP2 SWAP4 POP PUSH2 0x659 SWAP3 SWAP2 SWAP1 DIV AND PUSH1 0x9 PUSH2 0xA57 JUMP JUMPDEST PUSH1 0x0 DUP5 DUP2 MSTORE PUSH1 0x1 PUSH1 0x20 MSTORE PUSH1 0x40 SWAP1 KECCAK256 PUSH1 0x6 ADD DUP1 SLOAD PUSH1 0xFF SWAP3 SWAP1 SWAP3 AND PUSH1 0x1 PUSH1 0x68 SHL MUL PUSH1 0xFF PUSH1 0x68 SHL NOT SWAP1 SWAP3 AND SWAP2 SWAP1 SWAP2 OR SWAP1 SSTORE PUSH2 0x692 PUSH1 0x1F DUP3 PUSH2 0x9DC JUMP JUMPDEST PUSH1 0x0 DUP6 DUP2 MSTORE PUSH1 0x1 PUSH1 0x20 MSTORE PUSH1 0x40 SWAP1 KECCAK256 PUSH1 0x6 ADD DUP1 SLOAD PUSH1 0xFF PUSH1 0x70 SHL NOT AND PUSH1 0x1 PUSH1 0x70 SHL PUSH1 0xFF SWAP5 DUP6 AND DUP2 MUL SWAP2 SWAP1 SWAP2 OR SWAP2 DUP3 SWAP1 SSTORE SWAP2 SWAP4 POP PUSH2 0x6D2 SWAP3 SWAP2 SWAP1 DIV AND PUSH1 0x9 PUSH2 0xA57 JUMP JUMPDEST PUSH1 0x0 DUP5 DUP2 MSTORE PUSH1 0x1 PUSH1 0x20 MSTORE PUSH1 0x40 SWAP1 KECCAK256 PUSH1 0x6 ADD DUP1 SLOAD PUSH1 0xFF SWAP3 SWAP1 SWAP3 AND PUSH1 0x1 PUSH1 0x70 SHL MUL PUSH1 0xFF PUSH1 0x70 SHL NOT SWAP1 SWAP3 AND SWAP2 SWAP1 SWAP2 OR SWAP1 SSTORE PUSH2 0x70B PUSH1 0x10 DUP3 PUSH2 0x9DC JUMP JUMPDEST PUSH1 0x0 DUP6 DUP2 MSTORE PUSH1 0x1 PUSH1 0x20 MSTORE PUSH1 0x40 SWAP1 KECCAK256 PUSH1 0x6 ADD DUP1 SLOAD PUSH1 0xFF PUSH1 0x78 SHL NOT AND PUSH1 0x1 PUSH1 0x78 SHL PUSH1 0xFF SWAP5 DUP6 AND DUP2 MUL SWAP2 SWAP1 SWAP2 OR SWAP2 DUP3 SWAP1 SSTORE SWAP2 SWAP4 POP PUSH2 0x74B SWAP3 SWAP2 SWAP1 DIV AND PUSH1 0x2 PUSH2 0xA57 JUMP JUMPDEST PUSH1 0x0 DUP5 DUP2 MSTORE PUSH1 0x1 PUSH1 0x20 MSTORE PUSH1 0x40 SWAP1 KECCAK256 PUSH1 0x6 ADD DUP1 SLOAD PUSH1 0xFF SWAP3 SWAP1 SWAP3 AND PUSH1 0x1 PUSH1 0x78 SHL MUL PUSH1 0xFF PUSH1 0x78 SHL NOT SWAP1 SWAP3 AND SWAP2 SWAP1 SWAP2 OR SWAP1 SSTORE PUSH2 0x784 PUSH1 0x10 DUP3 PUSH2 0x9DC JUMP JUMPDEST PUSH1 0x0 DUP6 DUP2 MSTORE PUSH1 0x1 PUSH1 0x20 MSTORE PUSH1 0x40 SWAP1 KECCAK256 PUSH1 0x6 ADD DUP1 SLOAD PUSH1 0xFF PUSH1 0x80 SHL NOT AND PUSH1 0x1 PUSH1 0x80 SHL PUSH1 0xFF SWAP5 DUP6 AND DUP2 MUL SWAP2 SWAP1 SWAP2 OR SWAP2 DUP3 SWAP1 SSTORE SWAP2 SWAP4 POP PUSH2 0x7C4 SWAP3 SWAP2 SWAP1 DIV AND PUSH1 0x2 PUSH2 0xA57 JUMP JUMPDEST PUSH1 0x0 DUP5 DUP2 MSTORE PUSH1 0x1 PUSH1 0x20 MSTORE PUSH1 0x40 SWAP1 KECCAK256 PUSH1 0x6 ADD DUP1 SLOAD PUSH1 0xFF SWAP3 SWAP1 SWAP3 AND PUSH1 0x1 PUSH1 0x80 SHL MUL PUSH1 0xFF PUSH1 0x80 SHL NOT SWAP1 SWAP3 AND SWAP2 SWAP1 SWAP2 OR SWAP1 SSTORE PUSH2 0x7FD PUSH1 0x10 DUP3 PUSH2 0x9DC JUMP JUMPDEST PUSH1 0x0 DUP6 DUP2 MSTORE PUSH1 0x1 PUSH1 0x20 MSTORE PUSH1 0x40 SWAP1 KECCAK256 PUSH1 0x6 ADD DUP1 SLOAD PUSH1 0xFF PUSH1 0x88 SHL NOT AND PUSH1 0x1 PUSH1 0x88 SHL PUSH1 0xFF SWAP5 DUP6 AND DUP2 MUL SWAP2 SWAP1 SWAP2 OR SWAP2 DUP3 SWAP1 SSTORE SWAP2 SWAP4 POP PUSH2 0x83D SWAP3 SWAP2 SWAP1 DIV AND PUSH1 0x2 PUSH2 0xA57 JUMP JUMPDEST PUSH1 0x0 DUP5 DUP2 MSTORE PUSH1 0x1 PUSH1 0x20 MSTORE PUSH1 0x40 SWAP1 KECCAK256 PUSH1 0x6 ADD DUP1 SLOAD PUSH1 0xFF SWAP3 SWAP1 SWAP3 AND PUSH1 0x1 PUSH1 0x88 SHL MUL PUSH1 0xFF PUSH1 0x88 SHL NOT SWAP1 SWAP3 AND SWAP2 SWAP1 SWAP2 OR SWAP1 SSTORE PUSH2 0x876 PUSH1 0x10 DUP3 PUSH2 0x9DC JUMP JUMPDEST PUSH1 0x0 DUP6 DUP2 MSTORE PUSH1 0x1 PUSH1 0x20 MSTORE PUSH1 0x40 SWAP1 KECCAK256 PUSH1 0x6 ADD DUP1 SLOAD PUSH1 0xFF PUSH1 0x90 SHL NOT AND PUSH1 0x1 PUSH1 0x90 SHL PUSH1 0xFF SWAP5 DUP6 AND DUP2 MUL SWAP2 SWAP1 SWAP2 OR SWAP2 DUP3 SWAP1 SSTORE SWAP2 SWAP4 POP PUSH2 0x8B6 SWAP3 SWAP2 SWAP1 DIV AND PUSH1 0x2 PUSH2 0xA57 JUMP JUMPDEST PUSH1 0x0 DUP5 DUP2 MSTORE PUSH1 0x1 PUSH1 0x20 MSTORE PUSH1 0x40 SWAP1 KECCAK256 PUSH1 0x6 ADD DUP1 SLOAD PUSH1 0xFF SWAP3 SWAP1 SWAP3 AND PUSH1 0x1 PUSH1 0x90 SHL MUL PUSH1 0xFF PUSH1 0x90 SHL NOT SWAP1 SWAP3 AND SWAP2 SWAP1 SWAP2 OR SWAP1 SSTORE PUSH2 0x8EF PUSH1 0x10 DUP3 PUSH2 0x9DC JUMP JUMPDEST PUSH1 0x0 DUP6 DUP2 MSTORE PUSH1 0x1 PUSH1 0x20 MSTORE PUSH1 0x40 SWAP1 KECCAK256 PUSH1 0x6 ADD DUP1 SLOAD PUSH1 0xFF PUSH1 0x98 SHL NOT AND PUSH1 0x1 PUSH1 0x98 SHL PUSH1 0xFF SWAP5 DUP6 AND DUP2 MUL SWAP2 SWAP1 SWAP2 OR SWAP2 DUP3 SWAP1 SSTORE SWAP2 SWAP4 POP PUSH2 0x92F SWAP3 SWAP2 SWAP1 DIV AND PUSH1 0x2 PUSH2 0xA57 JUMP JUMPDEST PUSH1 0x0 DUP5 DUP2 MSTORE PUSH1 0x1 PUSH1 0x20 MSTORE PUSH1 0x40 SWAP1 KECCAK256 PUSH1 0x6 ADD DUP1 SLOAD PUSH1 0xFF SWAP3 SWAP1 SWAP3 AND PUSH1 0x1 PUSH1 0x98 SHL MUL PUSH1 0xFF PUSH1 0x98 SHL NOT SWAP1 SWAP3 AND SWAP2 SWAP1 SWAP2 OR SWAP1 SSTORE PUSH2 0x968 PUSH1 0x10 DUP3 PUSH2 0x9DC JUMP JUMPDEST PUSH1 0x0 DUP6 DUP2 MSTORE PUSH1 0x1 PUSH1 0x20 MSTORE PUSH1 0x40 SWAP1 KECCAK256 PUSH1 0x6 ADD DUP1 SLOAD PUSH1 0xFF PUSH1 0xA0 SHL NOT AND PUSH1 0x1 PUSH1 0xA0 SHL PUSH1 0xFF SWAP5 DUP6 AND DUP2 MUL SWAP2 SWAP1 SWAP2 OR SWAP2 DUP3 SWAP1 SSTORE SWAP2 SWAP4 POP PUSH2 0x9A8 SWAP3 SWAP2 SWAP1 DIV AND PUSH1 0x2 PUSH2 0xA57 JUMP JUMPDEST PUSH1 0x0 SWAP4 DUP5 MSTORE PUSH1 0x1 PUSH1 0x20 MSTORE PUSH1 0x40 SWAP1 SWAP4 KECCAK256 PUSH1 0x6 ADD DUP1 SLOAD PUSH1 0xFF SWAP5 SWAP1 SWAP5 AND PUSH1 0x1 PUSH1 0xA0 SHL MUL PUSH1 0xFF PUSH1 0xA0 SHL NOT SWAP1 SWAP5 AND SWAP4 SWAP1 SWAP4 OR SWAP1 SWAP3 SSTORE POP POP JUMP JUMPDEST PUSH1 0x0 DUP1 PUSH2 0x9F7 PUSH1 0x1 PUSH2 0x9F1 DUP6 PUSH1 0xFF DUP9 AND PUSH2 0xAFA JUMP JUMPDEST SWAP1 PUSH2 0xA57 JUMP JUMPDEST PUSH2 0xA02 DUP5 PUSH1 0xA PUSH2 0xB61 JUMP JUMPDEST SWAP2 POP SWAP2 POP SWAP3 POP SWAP3 SWAP1 POP JUMP JUMPDEST PUSH1 0x0 PUSH1 0xFF DUP3 AND PUSH2 0xA1F JUMPI POP PUSH1 0x29 PUSH2 0x335 JUMP JUMPDEST DUP2 PUSH1 0xFF AND PUSH1 0x1 EQ DUP1 PUSH2 0xA34 JUMPI POP DUP2 PUSH1 0xFF AND PUSH1 0x5 EQ JUMPDEST DUP1 PUSH2 0xA42 JUMPI POP DUP2 PUSH1 0xFF AND PUSH1 0x6 EQ JUMPDEST ISZERO PUSH2 0xA4F JUMPI POP PUSH1 0x15 PUSH2 0x335 JUMP JUMPDEST POP PUSH1 0x1F PUSH2 0x335 JUMP JUMPDEST PUSH1 0x0 DUP3 DUP3 ADD DUP4 DUP2 LT ISZERO PUSH2 0xAB1 JUMPI PUSH1 0x40 DUP1 MLOAD PUSH3 0x461BCD PUSH1 0xE5 SHL DUP2 MSTORE PUSH1 0x20 PUSH1 0x4 DUP3 ADD MSTORE PUSH1 0x1B PUSH1 0x24 DUP3 ADD MSTORE PUSH32 0x536166654D6174683A206164646974696F6E206F766572666C6F770000000000 PUSH1 0x44 DUP3 ADD MSTORE SWAP1 MLOAD SWAP1 DUP2 SWAP1 SUB PUSH1 0x64 ADD SWAP1 REVERT JUMPDEST SWAP4 SWAP3 POP POP POP JUMP JUMPDEST PUSH1 0x0 PUSH1 0xFF DUP3 AND PUSH2 0xACA JUMPI POP PUSH1 0x15 PUSH2 0x335 JUMP JUMPDEST DUP2 PUSH1 0xFF AND PUSH1 0x1 EQ DUP1 PUSH2 0xADF JUMPI POP DUP2 PUSH1 0xFF AND PUSH1 0x5 EQ JUMPDEST DUP1 PUSH2 0xAED JUMPI POP DUP2 PUSH1 0xFF AND PUSH1 0x6 EQ JUMPDEST ISZERO PUSH2 0xA4F JUMPI POP PUSH1 0x29 PUSH2 0x335 JUMP JUMPDEST PUSH1 0x0 DUP1 DUP3 GT PUSH2 0xB50 JUMPI PUSH1 0x40 DUP1 MLOAD PUSH3 0x461BCD PUSH1 0xE5 SHL DUP2 MSTORE PUSH1 0x20 PUSH1 0x4 DUP3 ADD MSTORE PUSH1 0x18 PUSH1 0x24 DUP3 ADD MSTORE PUSH32 0x536166654D6174683A206D6F64756C6F206279207A65726F0000000000000000 PUSH1 0x44 DUP3 ADD MSTORE SWAP1 MLOAD SWAP1 DUP2 SWAP1 SUB PUSH1 0x64 ADD SWAP1 REVERT JUMPDEST DUP2 DUP4 DUP2 PUSH2 0xB59 JUMPI INVALID JUMPDEST MOD SWAP4 SWAP3 POP POP POP JUMP JUMPDEST PUSH1 0x0 DUP1 DUP3 GT PUSH2 0xBB7 JUMPI PUSH1 0x40 DUP1 MLOAD PUSH3 0x461BCD PUSH1 0xE5 SHL DUP2 MSTORE PUSH1 0x20 PUSH1 0x4 DUP3 ADD MSTORE PUSH1 0x1A PUSH1 0x24 DUP3 ADD MSTORE PUSH32 0x536166654D6174683A206469766973696F6E206279207A65726F000000000000 PUSH1 0x44 DUP3 ADD MSTORE SWAP1 MLOAD SWAP1 DUP2 SWAP1 SUB PUSH1 0x64 ADD SWAP1 REVERT JUMPDEST DUP2 DUP4 DUP2 PUSH2 0xBC0 JUMPI INVALID JUMPDEST DIV SWAP4 SWAP3 POP POP POP JUMP INVALID LOG2 PUSH5 0x6970667358 0x22 SLT KECCAK256 CHAINID RETURNDATACOPY BYTE PUSH16 0x1187DD2996090160D7C39A750B271FA2 0xE4 0xCC 0x25 SWAP14 0xCA 0xAC 0xC7 PUSH7 0xD626FFBC64736F PUSH13 0x634300060C0033000000000000 ","sha1":"82d451296eff8e501d5b8761d156fb3c11b5b35b","source":"// SPDX-License-Identifier: UNLICENSED\npragma solidity ^0.6.0;\n\nimport \"./Champz.sol\";\nimport \"./ChampzPlatform.sol\";\nimport \"../interfaces/ICryptoChampions.sol\";\n\nimport \"OpenZeppelin/openzeppelin-contracts@3.4.0/contracts/math/SafeMath.sol\";\n\ncontract ChampzCaller is ChampzPlatform {\n    using SafeMath for uint8;\n    using SafeMath for uint256;\n\n    mapping(uint256 => Hero) internal _heroes;\n\n    constructor(address champz) public ChampzPlatform(champz) {}\n\n    function mintChampz(uint8 raceId, uint8 classId) external {\n        uint256 champzId = _mintChampz(msg.sender);\n        _heroes[champzId].valid = true;\n        _heroes[champzId].raceId = raceId;\n        _heroes[champzId].classId = classId;\n    }\n\n    function registerChampz(\n        uint256 champzId,\n        uint8 raceId,\n        uint8 classId\n    ) external {\n        require(!_heroes[champzId].valid);\n        require(CHAMPZ.getChampzRandomNumber(champzId) != 0);\n        _heroes[champzId].valid = true;\n        _heroes[champzId].raceId = raceId;\n        _heroes[champzId].classId = classId;\n        _registerChampz(champzId);\n    }\n\n    function _registerChampz(uint256 champzId) internal override {\n        trainHero(champzId);\n    }\n\n    function fulfillChampzMint(uint256 champzId) internal override {\n        trainHero(champzId);\n    }\n\n    /// @notice Sets the hero attributes\n    /// @param champzId The is associated with the Champz NFT\n    function trainHero(uint256 champzId) internal {\n        uint256 randomNumber = CHAMPZ.getChampzRandomNumber(champzId);\n        uint256 newRandomNumber;\n\n        _heroes[champzId].level = 1; // 1 by default\n        (_heroes[champzId].appearance, newRandomNumber) = _rollDice(2, randomNumber); // 1 out of 2\n\n        (_heroes[champzId].trait1, newRandomNumber) = _rollDice(4, newRandomNumber); // 1 out of 4\n        (_heroes[champzId].skill1, newRandomNumber) = _rollDice(4, newRandomNumber); // 1 out of 4\n\n        (_heroes[champzId].alignment, newRandomNumber) = _rollDice(9, newRandomNumber); // 1 out of 9\n        (_heroes[champzId].background, newRandomNumber) = _rollDice(30, newRandomNumber); // 1 out of 30\n        (_heroes[champzId].hometown, newRandomNumber) = _rollDice(24, newRandomNumber); // 1 out of 24\n        (_heroes[champzId].weather, newRandomNumber) = _rollDice(7, newRandomNumber); // 1 ouf of 7\n\n        (_heroes[champzId].hp, newRandomNumber) = _rollDice(_getHpRoll(_heroes[champzId].classId), newRandomNumber); // Roll 10-30\n        _heroes[champzId].hp = uint8(_heroes[champzId].hp.add(9));\n        (_heroes[champzId].mana, newRandomNumber) = _rollDice(_getManaRoll(_heroes[champzId].classId), newRandomNumber); // Roll 10-30\n        _heroes[champzId].mana = uint8(_heroes[champzId].mana.add(9));\n        (_heroes[champzId].stamina, newRandomNumber) = _rollDice(31, newRandomNumber); // Roll 10-40\n        _heroes[champzId].stamina = uint8(_heroes[champzId].stamina.add(9));\n\n        (_heroes[champzId].strength, newRandomNumber) = _rollDice(16, newRandomNumber); // Roll 3-18\n        _heroes[champzId].strength = uint8(_heroes[champzId].strength.add(2));\n        (_heroes[champzId].dexterity, newRandomNumber) = _rollDice(16, newRandomNumber); // Roll 3-18\n        _heroes[champzId].dexterity = uint8(_heroes[champzId].dexterity.add(2));\n        (_heroes[champzId].constitution, newRandomNumber) = _rollDice(16, newRandomNumber); // Roll 3-18\n        _heroes[champzId].constitution = uint8(_heroes[champzId].constitution.add(2));\n        (_heroes[champzId].intelligence, newRandomNumber) = _rollDice(16, newRandomNumber); // Roll 3-18\n        _heroes[champzId].intelligence = uint8(_heroes[champzId].intelligence.add(2));\n        (_heroes[champzId].wisdom, newRandomNumber) = _rollDice(16, newRandomNumber); // Roll 3-18\n        _heroes[champzId].wisdom = uint8(_heroes[champzId].wisdom.add(2));\n        (_heroes[champzId].charisma, newRandomNumber) = _rollDice(16, newRandomNumber); // Roll 3-18\n        _heroes[champzId].charisma = uint8(_heroes[champzId].charisma.add(2));\n    }\n\n    /// @notice Gets the roll value for the hp attribute of a hero\n    /// @param class The hero's class id\n    /// @return The roll value for hp\n    function _getHpRoll(uint8 class) internal pure returns (uint8) {\n        // Warrior\n        if (class == 0) {\n            return 41;\n        }\n        // Mage, Necromancer, Priest\n        else if (class == 1 || class == 5 || class == 6) {\n            return 21;\n        }\n        // Druid, Paladin, Bard, Rogue\n        else {\n            return 31;\n        }\n    }\n\n    /// @notice Gets the roll value for the mana attribute of a hero\n    /// @param class The hero's class id\n    /// @return The roll value for mana\n    function _getManaRoll(uint8 class) internal pure returns (uint8) {\n        // Warrior\n        if (class == 0) {\n            return 21;\n        }\n        // Mage, Necromancer, Priest\n        else if (class == 1 || class == 5 || class == 6) {\n            return 41;\n        }\n        // Druid, Paladin, Bard, Rogue\n        else {\n            return 31;\n        }\n    }\n\n    /// @notice Simulates rolling dice\n    /// @param maxNumber The max number of the dice (e.g. regular die is 6)\n    /// @param randomNumber The random number\n    /// @return The result of the dice roll and a new random number to use for another dice roll\n    function _rollDice(uint8 maxNumber, uint256 randomNumber) internal pure returns (uint8, uint256) {\n        return (uint8(randomNumber.mod(maxNumber).add(1)), randomNumber.div(10));\n    }\n\n    /// @notice Hero getter function\n    /// @param heroId The hero id\n    /// @return alignment, background, hometown, weather\n    function getHeroLore(uint256 heroId)\n        external\n        view\n        returns (\n            uint8, // alignment\n            uint8, // background\n            uint8, // hometown\n            uint8 // weather\n        )\n    {\n        return (\n            _heroes[heroId].alignment,\n            _heroes[heroId].background,\n            _heroes[heroId].hometown,\n            _heroes[heroId].weather\n        );\n    }\n}\n","sourcePath":"contracts/ChampzCaller.sol","type":"contract","deployment":{"address":"0x128cC63c0cAF4d393535b22410A4Ac105BaF6Ec0","chainid":"4","blockHeight":8469157}}