{"abi":[{"inputs":[{"internalType":"bytes32","name":"keyhash","type":"bytes32"},{"internalType":"address","name":"vrfCoordinator","type":"address"},{"internalType":"address","name":"linkToken","type":"address"},{"internalType":"address","name":"minigameFactoryRegistry","type":"address"}],"stateMutability":"nonpayable","type":"constructor","name":"constructor"},{"anonymous":false,"inputs":[{"indexed":true,"internalType":"address","name":"account","type":"address"},{"indexed":true,"internalType":"address","name":"operator","type":"address"},{"indexed":false,"internalType":"bool","name":"approved","type":"bool"}],"name":"ApprovalForAll","type":"event"},{"anonymous":false,"inputs":[{"indexed":false,"internalType":"uint256","name":"elderId","type":"uint256"},{"indexed":false,"internalType":"address","name":"owner","type":"address"}],"name":"ElderSpiritMinted","type":"event"},{"anonymous":false,"inputs":[],"name":"ElderSpiritsBurned","type":"event"},{"anonymous":false,"inputs":[{"indexed":false,"internalType":"uint256","name":"heroId","type":"uint256"},{"indexed":false,"internalType":"address","name":"owner","type":"address"}],"name":"HeroMinted","type":"event"},{"anonymous":false,"inputs":[{"indexed":true,"internalType":"bytes32","name":"role","type":"bytes32"},{"indexed":true,"internalType":"bytes32","name":"previousAdminRole","type":"bytes32"},{"indexed":true,"internalType":"bytes32","name":"newAdminRole","type":"bytes32"}],"name":"RoleAdminChanged","type":"event"},{"anonymous":false,"inputs":[{"indexed":true,"internalType":"bytes32","name":"role","type":"bytes32"},{"indexed":true,"internalType":"address","name":"account","type":"address"},{"indexed":true,"internalType":"address","name":"sender","type":"address"}],"name":"RoleGranted","type":"event"},{"anonymous":false,"inputs":[{"indexed":true,"internalType":"bytes32","name":"role","type":"bytes32"},{"indexed":true,"internalType":"address","name":"account","type":"address"},{"indexed":true,"internalType":"address","name":"sender","type":"address"}],"name":"RoleRevoked","type":"event"},{"anonymous":false,"inputs":[{"indexed":true,"internalType":"address","name":"operator","type":"address"},{"indexed":true,"internalType":"address","name":"from","type":"address"},{"indexed":true,"internalType":"address","name":"to","type":"address"},{"indexed":false,"internalType":"uint256[]","name":"ids","type":"uint256[]"},{"indexed":false,"internalType":"uint256[]","name":"values","type":"uint256[]"}],"name":"TransferBatch","type":"event"},{"anonymous":false,"inputs":[{"indexed":true,"internalType":"address","name":"operator","type":"address"},{"indexed":true,"internalType":"address","name":"from","type":"address"},{"indexed":true,"internalType":"address","name":"to","type":"address"},{"indexed":false,"internalType":"uint256","name":"id","type":"uint256"},{"indexed":false,"internalType":"uint256","name":"value","type":"uint256"}],"name":"TransferSingle","type":"event"},{"anonymous":false,"inputs":[{"indexed":false,"internalType":"string","name":"value","type":"string"},{"indexed":true,"internalType":"uint256","name":"id","type":"uint256"}],"name":"URI","type":"event"},{"inputs":[],"name":"DEFAULT_ADMIN_ROLE","outputs":[{"internalType":"bytes32","name":"","type":"bytes32"}],"stateMutability":"view","type":"function"},{"inputs":[],"name":"MAX_NUMBER_OF_ELDERS","outputs":[{"internalType":"uint256","name":"","type":"uint256"}],"stateMutability":"view","type":"function"},{"inputs":[{"internalType":"uint256","name":"","type":"uint256"}],"name":"affinities","outputs":[{"internalType":"string","name":"","type":"string"}],"stateMutability":"view","type":"function"},{"inputs":[{"internalType":"address","name":"account","type":"address"},{"internalType":"uint256","name":"id","type":"uint256"}],"name":"balanceOf","outputs":[{"internalType":"uint256","name":"","type":"uint256"}],"stateMutability":"view","type":"function"},{"inputs":[{"internalType":"address[]","name":"accounts","type":"address[]"},{"internalType":"uint256[]","name":"ids","type":"uint256[]"}],"name":"balanceOfBatch","outputs":[{"internalType":"uint256[]","name":"","type":"uint256[]"}],"stateMutability":"view","type":"function"},{"inputs":[{"internalType":"uint256","name":"heroId","type":"uint256"}],"name":"claimReward","outputs":[],"stateMutability":"nonpayable","type":"function"},{"inputs":[{"internalType":"string","name":"tokenTicker","type":"string"},{"internalType":"address","name":"feedAddress","type":"address"}],"name":"createAffinity","outputs":[],"stateMutability":"nonpayable","type":"function"},{"inputs":[],"name":"currentPhase","outputs":[{"internalType":"enum CryptoChampions.Phase","name":"","type":"uint8"}],"stateMutability":"view","type":"function"},{"inputs":[],"name":"currentPhaseStartTime","outputs":[{"internalType":"uint256","name":"","type":"uint256"}],"stateMutability":"view","type":"function"},{"inputs":[],"name":"currentRound","outputs":[{"internalType":"uint256","name":"","type":"uint256"}],"stateMutability":"view","type":"function"},{"inputs":[{"internalType":"string","name":"winningAffinity","type":"string"}],"name":"declareRoundWinner","outputs":[],"stateMutability":"nonpayable","type":"function"},{"inputs":[{"internalType":"address","name":"from","type":"address"},{"internalType":"address","name":"to","type":"address"},{"internalType":"uint256","name":"amount","type":"uint256"}],"name":"delegatedTransferInGameTokens","outputs":[],"stateMutability":"nonpayable","type":"function"},{"inputs":[],"name":"devFund","outputs":[{"internalType":"uint256","name":"","type":"uint256"}],"stateMutability":"view","type":"function"},{"inputs":[],"name":"elderMintPrice","outputs":[{"internalType":"uint256","name":"","type":"uint256"}],"stateMutability":"view","type":"function"},{"inputs":[],"name":"eldersInGame","outputs":[{"internalType":"uint256","name":"","type":"uint256"}],"stateMutability":"view","type":"function"},{"inputs":[{"internalType":"string","name":"affinity","type":"string"}],"name":"getAffinityFeedAddress","outputs":[{"internalType":"address","name":"","type":"address"}],"stateMutability":"view","type":"function"},{"inputs":[{"internalType":"uint256","name":"elderId","type":"uint256"}],"name":"getElderOwner","outputs":[{"internalType":"address","name":"","type":"address"}],"stateMutability":"view","type":"function"},{"inputs":[{"internalType":"uint256","name":"round","type":"uint256"},{"internalType":"uint256","name":"elderId","type":"uint256"}],"name":"getElderSpawnsAmount","outputs":[{"internalType":"uint256","name":"","type":"uint256"}],"stateMutability":"view","type":"function"},{"inputs":[{"internalType":"uint256","name":"elderId","type":"uint256"}],"name":"getElderSpirit","outputs":[{"internalType":"bool","name":"","type":"bool"},{"internalType":"uint256","name":"","type":"uint256"},{"internalType":"uint256","name":"","type":"uint256"},{"internalType":"string","name":"","type":"string"},{"internalType":"int256","name":"","type":"int256"}],"stateMutability":"view","type":"function"},{"inputs":[{"internalType":"uint256","name":"heroId","type":"uint256"}],"name":"getHeroGameData","outputs":[{"internalType":"bool","name":"","type":"bool"},{"internalType":"string","name":"","type":"string"},{"internalType":"int256","name":"","type":"int256"},{"internalType":"uint256","name":"","type":"uint256"},{"internalType":"uint256","name":"","type":"uint256"}],"stateMutability":"view","type":"function"},{"inputs":[{"internalType":"uint256","name":"heroId","type":"uint256"}],"name":"getHeroLore","outputs":[{"internalType":"uint8","name":"","type":"uint8"},{"internalType":"uint8","name":"","type":"uint8"},{"internalType":"uint8","name":"","type":"uint8"},{"internalType":"uint8","name":"","type":"uint8"}],"stateMutability":"view","type":"function"},{"inputs":[{"internalType":"uint256","name":"round","type":"uint256"},{"internalType":"uint256","name":"elderId","type":"uint256"}],"name":"getHeroMintPrice","outputs":[{"internalType":"uint256","name":"","type":"uint256"}],"stateMutability":"view","type":"function"},{"inputs":[{"internalType":"uint256","name":"heroId","type":"uint256"}],"name":"getHeroOwner","outputs":[{"internalType":"address","name":"","type":"address"}],"stateMutability":"view","type":"function"},{"inputs":[{"internalType":"uint256","name":"heroId","type":"uint256"}],"name":"getHeroStats","outputs":[{"internalType":"uint8","name":"","type":"uint8"},{"internalType":"uint8","name":"","type":"uint8"},{"internalType":"uint8","name":"","type":"uint8"},{"internalType":"uint8","name":"","type":"uint8"},{"internalType":"uint8","name":"","type":"uint8"},{"internalType":"uint8","name":"","type":"uint8"}],"stateMutability":"view","type":"function"},{"inputs":[{"internalType":"uint256","name":"heroId","type":"uint256"}],"name":"getHeroTraitsSkills","outputs":[{"internalType":"uint8","name":"","type":"uint8"},{"internalType":"uint8","name":"","type":"uint8"},{"internalType":"uint8","name":"","type":"uint8"},{"internalType":"uint8","name":"","type":"uint8"}],"stateMutability":"view","type":"function"},{"inputs":[{"internalType":"uint256","name":"heroId","type":"uint256"}],"name":"getHeroVisuals","outputs":[{"internalType":"string","name":"","type":"string"},{"internalType":"uint256","name":"","type":"uint256"},{"internalType":"uint256","name":"","type":"uint256"},{"internalType":"uint8","name":"","type":"uint8"}],"stateMutability":"view","type":"function"},{"inputs":[{"internalType":"uint256","name":"heroId","type":"uint256"}],"name":"getHeroVitals","outputs":[{"internalType":"uint8","name":"","type":"uint8"},{"internalType":"uint8","name":"","type":"uint8"},{"internalType":"uint8","name":"","type":"uint8"},{"internalType":"uint8","name":"","type":"uint8"}],"stateMutability":"view","type":"function"},{"inputs":[],"name":"getNumEldersInGame","outputs":[{"internalType":"uint256","name":"","type":"uint256"}],"stateMutability":"view","type":"function"},{"inputs":[{"internalType":"bytes32","name":"role","type":"bytes32"}],"name":"getRoleAdmin","outputs":[{"internalType":"bytes32","name":"","type":"bytes32"}],"stateMutability":"view","type":"function"},{"inputs":[{"internalType":"bytes32","name":"role","type":"bytes32"},{"internalType":"uint256","name":"index","type":"uint256"}],"name":"getRoleMember","outputs":[{"internalType":"address","name":"","type":"address"}],"stateMutability":"view","type":"function"},{"inputs":[{"internalType":"bytes32","name":"role","type":"bytes32"}],"name":"getRoleMemberCount","outputs":[{"internalType":"uint256","name":"","type":"uint256"}],"stateMutability":"view","type":"function"},{"inputs":[{"internalType":"bytes32","name":"role","type":"bytes32"},{"internalType":"address","name":"account","type":"address"}],"name":"grantRole","outputs":[],"stateMutability":"nonpayable","type":"function"},{"inputs":[{"internalType":"bytes32","name":"role","type":"bytes32"},{"internalType":"address","name":"account","type":"address"}],"name":"hasRole","outputs":[{"internalType":"bool","name":"","type":"bool"}],"stateMutability":"view","type":"function"},{"inputs":[{"internalType":"uint256","name":"heroId","type":"uint256"}],"name":"hasRoundReward","outputs":[{"internalType":"bool","name":"","type":"bool"}],"stateMutability":"view","type":"function"},{"inputs":[],"name":"heroesMinted","outputs":[{"internalType":"uint256","name":"","type":"uint256"}],"stateMutability":"view","type":"function"},{"inputs":[{"internalType":"address","name":"account","type":"address"},{"internalType":"address","name":"operator","type":"address"}],"name":"isApprovedForAll","outputs":[{"internalType":"bool","name":"","type":"bool"}],"stateMutability":"view","type":"function"},{"inputs":[{"internalType":"uint256","name":"raceId","type":"uint256"},{"internalType":"uint256","name":"classId","type":"uint256"},{"internalType":"string","name":"affinity","type":"string"}],"name":"mintElderSpirit","outputs":[{"internalType":"uint256","name":"","type":"uint256"}],"stateMutability":"payable","type":"function"},{"inputs":[{"internalType":"uint256","name":"elderId","type":"uint256"},{"internalType":"string","name":"heroName","type":"string"}],"name":"mintHero","outputs":[{"internalType":"uint256","name":"","type":"uint256"}],"stateMutability":"payable","type":"function"},{"inputs":[{"internalType":"bytes32","name":"requestId","type":"bytes32"},{"internalType":"uint256","name":"randomness","type":"uint256"}],"name":"rawFulfillRandomness","outputs":[],"stateMutability":"nonpayable","type":"function"},{"inputs":[],"name":"refreshPhase","outputs":[],"stateMutability":"nonpayable","type":"function"},{"inputs":[{"internalType":"bytes32","name":"role","type":"bytes32"},{"internalType":"address","name":"account","type":"address"}],"name":"renounceRole","outputs":[],"stateMutability":"nonpayable","type":"function"},{"inputs":[{"internalType":"bytes32","name":"role","type":"bytes32"},{"internalType":"address","name":"account","type":"address"}],"name":"revokeRole","outputs":[],"stateMutability":"nonpayable","type":"function"},{"inputs":[],"name":"rewardsPoolAmount","outputs":[{"internalType":"uint256","name":"","type":"uint256"}],"stateMutability":"view","type":"function"},{"inputs":[{"internalType":"address","name":"from","type":"address"},{"internalType":"address","name":"to","type":"address"},{"internalType":"uint256[]","name":"ids","type":"uint256[]"},{"internalType":"uint256[]","name":"amounts","type":"uint256[]"},{"internalType":"bytes","name":"data","type":"bytes"}],"name":"safeBatchTransferFrom","outputs":[],"stateMutability":"nonpayable","type":"function"},{"inputs":[{"internalType":"address","name":"from","type":"address"},{"internalType":"address","name":"to","type":"address"},{"internalType":"uint256","name":"id","type":"uint256"},{"internalType":"uint256","name":"amount","type":"uint256"},{"internalType":"bytes","name":"data","type":"bytes"}],"name":"safeTransferFrom","outputs":[],"stateMutability":"nonpayable","type":"function"},{"inputs":[{"internalType":"uint256","name":"numDays","type":"uint256"}],"name":"setActionPhaseDuration","outputs":[],"stateMutability":"nonpayable","type":"function"},{"inputs":[{"internalType":"address","name":"operator","type":"address"},{"internalType":"bool","name":"approved","type":"bool"}],"name":"setApprovalForAll","outputs":[],"stateMutability":"nonpayable","type":"function"},{"inputs":[{"internalType":"uint256","name":"price","type":"uint256"}],"name":"setElderMintPrice","outputs":[],"stateMutability":"nonpayable","type":"function"},{"inputs":[{"internalType":"enum CryptoChampions.Phase","name":"phase","type":"uint8"}],"name":"setPhase","outputs":[],"stateMutability":"nonpayable","type":"function"},{"inputs":[{"internalType":"uint256","name":"numDays","type":"uint256"}],"name":"setSetupPhaseDuration","outputs":[],"stateMutability":"nonpayable","type":"function"},{"inputs":[{"internalType":"bytes4","name":"interfaceId","type":"bytes4"}],"name":"supportsInterface","outputs":[{"internalType":"bool","name":"","type":"bool"}],"stateMutability":"view","type":"function"},{"inputs":[{"internalType":"address","name":"to","type":"address"},{"internalType":"uint256","name":"amount","type":"uint256"}],"name":"transferInGameTokens","outputs":[],"stateMutability":"nonpayable","type":"function"},{"inputs":[{"internalType":"uint256","name":"","type":"uint256"}],"name":"uri","outputs":[{"internalType":"string","name":"","type":"string"}],"stateMutability":"view","type":"function"},{"inputs":[{"internalType":"uint256","name":"","type":"uint256"}],"name":"winningAffinitiesByRound","outputs":[{"internalType":"string","name":"","type":"string"}],"stateMutability":"view","type":"function"}],"bytecode":"60c06040526000600a556000600b556000600c556000600d5560006010553480156200002a57600080fd5b506040516200618f3803806200618f833981810160405260808110156200005057600080fd5b5080516020808301516040808501516060909501518151808301909252600382526275726960e81b9382019390935292939092909190839083906200009c6301ffc9a760e01b620001ff565b620000a78162000287565b620000b9636cdb3d1360e11b620001ff565b620000cb6303a24d0760e21b620001ff565b506001600160601b0319606092831b811660a052911b16608052620001006000805160206200616f83398151915280620002a0565b6200012a6000805160206200614f8339815191526000805160206200616f833981519152620002a0565b620001657fae0c232b87105e0a8134f8b92146dcd1d99373d32394be9d70f700f90b3a3db36000805160206200616f833981519152620002a0565b620001806000805160206200616f83398151915233620002f2565b6200019b6000805160206200614f83398151915233620002fe565b6703c2c9106e21800060145560006015556006805460ff1916905542600955601893909355505067016345785d8a00006019556202a3006007819055600855601e80546001600160a01b0319166001600160a01b039092169190911790556200053d565b6001600160e01b031980821614156200025f576040805162461bcd60e51b815260206004820152601c60248201527f4552433136353a20696e76616c696420696e7465726661636520696400000000604482015290519081900360640190fd5b6001600160e01b0319166000908152600160208190526040909120805460ff19169091179055565b80516200029c906004906020840190620004a1565b5050565b600082815260208190526040808220600201549051839285917fbd79b86ffe0ab8e8776151514217cd7cacd52c909f66475c3af44e129f0b00ff9190a460009182526020829052604090912060020155565b6200029c828262000362565b60008281526020819052604090206002015462000325906200031f620003db565b620003df565b620002f25760405162461bcd60e51b815260040180806020018281038252602f81526020018062006120602f913960400191505060405180910390fd5b60008281526020818152604090912062000387918390620038bd6200040c821b17901c565b156200029c5762000397620003db565b6001600160a01b0316816001600160a01b0316837f2f8788117e7eff1d82e926ec794901d17c78024a50270940304540a733656f0d60405160405180910390a45050565b3390565b600082815260208181526040822062000403918490620038d262000423821b17901c565b90505b92915050565b600062000403836001600160a01b0384166200043a565b600062000403836001600160a01b03841662000489565b600062000448838362000489565b620004805750815460018181018455600084815260208082209093018490558454848252828601909352604090209190915562000406565b50600062000406565b60009081526001919091016020526040902054151590565b828054600181600116156101000203166002900490600052602060002090601f016020900481019282601f10620004e457805160ff191683800117855562000514565b8280016001018555821562000514579182015b8281111562000514578251825591602001919060010190620004f7565b506200052292915062000526565b5090565b5b8082111562000522576000815560010162000527565b60805160601c60a05160601c615baf6200057160003980612f6a528061471c52508061409152806146ed5250615baf6000f3fe6080604052600436106103345760003560e01c8063835a4398116101ab578063b9280067116100f7578063d547741f11610095578063e5b0a9931161006f578063e5b0a99314611266578063e985e9c514611290578063f242432a146112cb578063f32c4974146113a157610334565b8063d547741f146111ee578063d6303cce14611227578063e3e983821461123c57610334565b8063ca15c873116100d1578063ca15c8731461115b578063caab7ef814611185578063d124f1451461119a578063d326bb6a146111c457610334565b8063b9280067146110d6578063bf61211f14611119578063c03afb591461112e57610334565b806394985ddd116101645780639ff1103f1161013e5780639ff1103f14611047578063a217fddf1461105c578063a22cb46514611071578063ae169a50146110ac57610334565b806394985ddd14610f185780639d5b82c014610f485780639e31500814610fcc57610334565b8063835a439814610df45780638423b07714610e5b5780638a19c8bc14610e855780639010d07c14610e9a57806390ded47e14610eca57806391d1485414610edf57610334565b80632f2ff15d116102855780634c52b2a91161022357806359ca19d3116101fd57806359ca19d314610d5b5780636de5135314610d8b57806372eda5bb14610db557806379935fe014610ddf57610334565b80634c52b2a914610b9c5780634e1273f414610bb157806356b4d76014610d3157610334565b806346e6f13d1161025f57806346e6f13d146109eb57806348772d7914610aa5578063498e821914610afd5780634c2ed01814610b7257610334565b80632f2ff15d1461096457806336568abe1461099d5780634390d2a8146109d657610334565b806321c2f72a116102f257806326d4d15a116102cc57806326d4d15a1461064457806326f7af4f146106db5780632eb2c2d6146107165780632ee1f0a0146108e457610334565b806321c2f72a1461053057806323a2884b146105f0578063248a9ca31461061a57610334565b8062fdd58e14610339578063010a768e1461038457806301ffc9a714610399578063055ad42e146103e15780630e89341c146104175780630fbea841146104b6575b600080fd5b34801561034557600080fd5b506103726004803603604081101561035c57600080fd5b506001600160a01b0381351690602001356113d1565b60408051918252519081900360200190f35b34801561039057600080fd5b50610372611443565b3480156103a557600080fd5b506103cd600480360360208110156103bc57600080fd5b50356001600160e01b031916611449565b604080519115158252519081900360200190f35b3480156103ed57600080fd5b506103f661146c565b6040518082600181111561040657fe5b815260200191505060405180910390f35b34801561042357600080fd5b506104416004803603602081101561043a57600080fd5b5035611475565b6040805160208082528351818301528351919283929083019185019080838360005b8381101561047b578181015183820152602001610463565b50505050905090810190601f1680156104a85780820380516001836020036101000a031916815260200191505b509250505060405180910390f35b610372600480360360608110156104cc57600080fd5b813591602081013591810190606081016040820135600160201b8111156104f257600080fd5b82018360208201111561050457600080fd5b803590602001918460018302840111600160201b8311171561052557600080fd5b50909250905061150d565b34801561053c57600080fd5b5061055a6004803603602081101561055357600080fd5b5035611801565b60405180861515815260200185815260200184815260200180602001838152602001828103825284818151815260200191508051906020019080838360005b838110156105b1578181015183820152602001610599565b50505050905090810190601f1680156105de5780820380516001836020036101000a031916815260200191505b50965050505050505060405180910390f35b3480156105fc57600080fd5b506103cd6004803603602081101561061357600080fd5b503561192f565b34801561062657600080fd5b506103726004803603602081101561063d57600080fd5b5035611cc6565b34801561065057600080fd5b506106bf6004803603602081101561066757600080fd5b810190602081018135600160201b81111561068157600080fd5b82018360208201111561069357600080fd5b803590602001918460018302840111600160201b831117156106b457600080fd5b509092509050611cdb565b604080516001600160a01b039092168252519081900360200190f35b3480156106e757600080fd5b50610714600480360360408110156106fe57600080fd5b506001600160a01b038135169060200135611d15565b005b34801561072257600080fd5b50610714600480360360a081101561073957600080fd5b6001600160a01b038235811692602081013590911691810190606081016040820135600160201b81111561076c57600080fd5b82018360208201111561077e57600080fd5b803590602001918460208302840111600160201b8311171561079f57600080fd5b9190808060200260200160405190810160405280939291908181526020018383602002808284376000920191909152509295949360208101935035915050600160201b8111156107ee57600080fd5b82018360208201111561080057600080fd5b803590602001918460208302840111600160201b8311171561082157600080fd5b9190808060200260200160405190810160405280939291908181526020018383602002808284376000920191909152509295949360208101935035915050600160201b81111561087057600080fd5b82018360208201111561088257600080fd5b803590602001918460018302840111600160201b831117156108a357600080fd5b91908080601f016020809104026020016040519081016040528093929190818152602001838380828437600092019190915250929550611d2a945050505050565b3480156108f057600080fd5b5061090e6004803603602081101561090757600080fd5b503561202d565b6040518086151581526020018060200185815260200184815260200183815260200182810382528681815181526020019150805190602001908083836000838110156105b1578181015183820152602001610599565b34801561097057600080fd5b506107146004803603604081101561098757600080fd5b50803590602001356001600160a01b031661212f565b3480156109a957600080fd5b50610714600480360360408110156109c057600080fd5b50803590602001356001600160a01b031661219b565b3480156109e257600080fd5b506103726121fc565b3480156109f757600080fd5b50610a1560048036036020811015610a0e57600080fd5b5035612202565b60405180806020018581526020018481526020018360ff168152602001828103825286818151815260200191508051906020019080838360005b83811015610a67578181015183820152602001610a4f565b50505050905090810190601f168015610a945780820380516001836020036101000a031916815260200191505b509550505050505060405180910390f35b348015610ab157600080fd5b50610acf60048036036020811015610ac857600080fd5b50356122ff565b6040805160ff9586168152938516602085015291841683830152909216606082015290519081900360800190f35b61037260048036036040811015610b1357600080fd5b81359190810190604081016020820135600160201b811115610b3457600080fd5b820183602082011115610b4657600080fd5b803590602001918460018302840111600160201b83111715610b6757600080fd5b509092509050612371565b348015610b7e57600080fd5b50610acf60048036036020811015610b9557600080fd5b5035612b0b565b348015610ba857600080fd5b50610372612b7f565b348015610bbd57600080fd5b50610ce160048036036040811015610bd457600080fd5b810190602081018135600160201b811115610bee57600080fd5b820183602082011115610c0057600080fd5b803590602001918460208302840111600160201b83111715610c2157600080fd5b9190808060200260200160405190810160405280939291908181526020018383602002808284376000920191909152509295949360208101935035915050600160201b811115610c7057600080fd5b820183602082011115610c8257600080fd5b803590602001918460208302840111600160201b83111715610ca357600080fd5b919080806020026020016040519081016040528093929190818152602001838360200280828437600092019190915250929550612b86945050505050565b60408051602080825283518183015283519192839290830191858101910280838360005b83811015610d1d578181015183820152602001610d05565b505050509050019250505060405180910390f35b348015610d3d57600080fd5b506106bf60048036036020811015610d5457600080fd5b5035612c72565b348015610d6757600080fd5b5061037260048036036040811015610d7e57600080fd5b5080359060200135612cdb565b348015610d9757600080fd5b5061044160048036036020811015610dae57600080fd5b5035612d26565b348015610dc157600080fd5b506106bf60048036036020811015610dd857600080fd5b5035612dc1565b348015610deb57600080fd5b50610372612e1c565b348015610e0057600080fd5b50610e1e60048036036020811015610e1757600080fd5b5035612e22565b6040805160ff978816815295871660208701529386168585015291851660608501528416608084015290921660a082015290519081900360c00190f35b348015610e6757600080fd5b50610acf60048036036020811015610e7e57600080fd5b5035612eae565b348015610e9157600080fd5b50610372612f1d565b348015610ea657600080fd5b506106bf60048036036040811015610ebd57600080fd5b5080359060200135612f23565b348015610ed657600080fd5b50610372612f42565b348015610eeb57600080fd5b506103cd60048036036040811015610f0257600080fd5b50803590602001356001600160a01b0316612f47565b348015610f2457600080fd5b5061071460048036036040811015610f3b57600080fd5b5080359060200135612f5f565b348015610f5457600080fd5b5061071460048036036040811015610f6b57600080fd5b810190602081018135600160201b811115610f8557600080fd5b820183602082011115610f9757600080fd5b803590602001918460018302840111600160201b83111715610fb857600080fd5b9193509150356001600160a01b0316612fe6565b348015610fd857600080fd5b5061071460048036036020811015610fef57600080fd5b810190602081018135600160201b81111561100957600080fd5b82018360208201111561101b57600080fd5b803590602001918460018302840111600160201b8311171561103c57600080fd5b509092509050613088565b34801561105357600080fd5b506107146130eb565b34801561106857600080fd5b5061037261315a565b34801561107d57600080fd5b506107146004803603604081101561109457600080fd5b506001600160a01b038135169060200135151561315f565b3480156110b857600080fd5b50610714600480360360208110156110cf57600080fd5b503561324e565b3480156110e257600080fd5b50610714600480360360608110156110f957600080fd5b506001600160a01b038135811691602081013590911690604001356134c5565b34801561112557600080fd5b506103726134d5565b34801561113a57600080fd5b506107146004803603602081101561115157600080fd5b503560ff166134db565b34801561116757600080fd5b506103726004803603602081101561117e57600080fd5b5035613512565b34801561119157600080fd5b50610372613529565b3480156111a657600080fd5b50610714600480360360208110156111bd57600080fd5b503561352f565b3480156111d057600080fd5b50610714600480360360208110156111e757600080fd5b5035613550565b3480156111fa57600080fd5b506107146004803603604081101561121157600080fd5b50803590602001356001600160a01b0316613571565b34801561123357600080fd5b506103726135ca565b34801561124857600080fd5b506107146004803603602081101561125f57600080fd5b50356135d0565b34801561127257600080fd5b506104416004803603602081101561128957600080fd5b50356135ec565b34801561129c57600080fd5b506103cd600480360360408110156112b357600080fd5b506001600160a01b038135811691602001351661365f565b3480156112d757600080fd5b50610714600480360360a08110156112ee57600080fd5b6001600160a01b03823581169260208101359091169160408201359160608101359181019060a081016080820135600160201b81111561132d57600080fd5b82018360208201111561133f57600080fd5b803590602001918460018302840111600160201b8311171561136057600080fd5b91908080601f01602080910402602001604051908101604052809392919081815260200183838082843760009201919091525092955061368d945050505050565b3480156113ad57600080fd5b50610372600480360360408110156113c457600080fd5b5080359060200135613858565b60006001600160a01b0383166114185760405162461bcd60e51b815260040180806020018281038252602b815260200180615923602b913960400191505060405180910390fd5b5060008181526002602090815260408083206001600160a01b03861684529091529020545b92915050565b60095481565b6001600160e01b0319811660009081526001602052604090205460ff165b919050565b60065460ff1681565b60048054604080516020601f60026000196101006001881615020190951694909404938401819004810282018101909252828152606093909290918301828280156115015780601f106114d657610100808354040283529160200191611501565b820191906000526020600020905b8154815290600101906020018083116114e457829003601f168201915b50505050509050919050565b6000808060065460ff16600181111561152257fe5b1461152c57600080fd5b6007600d541061153b57600080fd5b60145434101561154a57600080fd5b60006001600160a01b0316601685856040518083838082843791909101948552505060405192839003602001909220546001600160a01b031692909214159150611595905057600080fd5b600d546000906115a69060016138e7565b6000818152600e60205260409020549091506001600160a01b0316156115c857fe5b6000818152600f602052604090205460ff16156115e157fe5b600060168686604051808383808284379190910194855250506040805193849003602001842054633fabe5a360e21b855290516001600160a01b039091169363feaf968c93506004808201935060a09291829003018186803b15801561164657600080fd5b505afa15801561165a573d6000803e3d6000fd5b505050506040513d60a081101561167057600080fd5b5060200151905061167f6155bb565b6001815260208082018a905260408083018a90528051601f89018390048302810183019091528781529088908890819084018382808284376000920191909152505050506060820152608081018290526116f26116da613941565b84600160405180602001604052806000815250613945565b6116fa613941565b6000848152600e6020908152604080832080546001600160a01b0319166001600160a01b039590951694909417909355600f8152908290208351815460ff19169015151781558382015160018201559183015160028301556060830151805184939261176d9260038501929101906155ec565b5060809190910151600490910155600d546117899060016138e7565b600d5560145461179890613a4d565b601454600b546117a7916138e7565b600b557f3560f0337e62819199860ba21b425b8bde9a01fa6e514dd58ab6edf7daf1d1f1836117d4613941565b604080519283526001600160a01b0390911660208301528051918290030190a15090979650505050505050565b6000806000606060008560008111801561181c575060078111155b61182557600080fd5b61182d6155bb565b6000888152600f6020908152604091829020825160a081018452815460ff1615158152600180830154828501526002808401548387015260038401805487516101009482161594909402600019011691909104601f8101869004860283018601909652858252919492936060860193919291908301828280156118f15780601f106118c6576101008083540402835291602001916118f1565b820191906000526020600020905b8154815290600101906020018083116118d457829003601f168201915b50505091835250506004919091015460209182015281519082015160408301516060840151608090940151929c919b50995091975095509350505050565b600061193961566a565b600083815260126020908152604091829020825161036081018452815460ff1615158152600180830180548651600261010094831615949094026000190190911692909204601f81018690048602830186019096528582529194929385810193919291908301828280156119ee5780601f106119c3576101008083540402835291602001916119ee565b820191906000526020600020905b8154815290600101906020018083116119d157829003601f168201915b5050509183525050600282810180546040805160206001841615610100026000190190931694909404601f81018390048302850183019091528084529381019390830182828015611a805780601f10611a5557610100808354040283529160200191611a80565b820191906000526020600020905b815481529060010190602001808311611a6357829003601f168201915b505050918352505060038201546020808301919091526004830154604080840191909152600584015460608085019190915260068501546080850152600785015460a085015260089094015460ff80821660c0860152610100808304821660e0870152620100008304821681870152630100000083048216610120870152600160201b830482166101408701526501000000000083048216610160870152600160301b83048216610180870152600160381b830482166101a0870152600160401b830482166101c0870152600160481b830482166101e0870152600160501b83048216610200870152600160581b83048216610220870152600160601b83048216610240870152600160681b83048216610260870152600160701b83048216610280870152600160781b830482166102a0870152600160801b830482166102c0870152600160881b830482166102e0870152600160901b90920416610300909401939093526015546000908152601c835281902080548251600260018316159096026000190190911694909404601f81018490048402850184019092528184529495509293919290830182828015611c795780601f10611c4e57610100808354040283529160200191611c79565b820191906000526020600020905b815481529060010190602001808311611c5c57829003601f168201915b5050506000878152601d602090815260408083206015548452909152902054929350505060ff16158015611cbe57508080519060200120826040015180519060200120145b949350505050565b60009081526020819052604090206002015490565b6000601683836040518083838082843791909101948552505060405192839003602001909220546001600160a01b03169250505092915050565b6060611d2533846000858561368d565b505050565b8151835114611d6a5760405162461bcd60e51b8152600401808060200182810382526028815260200180615b026028913960400191505060405180910390fd5b6001600160a01b038416611daf5760405162461bcd60e51b81526004018080602001828103825260258152602001806159cb6025913960400191505060405180910390fd5b611db7613941565b6001600160a01b0316856001600160a01b03161480611de25750611de285611ddd613941565b61365f565b611e1d5760405162461bcd60e51b81526004018080602001828103825260328152602001806159f06032913960400191505060405180910390fd5b6000611e27613941565b9050611e37818787878787613abb565b60005b8451811015611f3d576000858281518110611e5157fe5b602002602001015190506000858381518110611e6957fe5b60200260200101519050611ed6816040518060600160405280602a8152602001615a65602a91396002600086815260200190815260200160002060008d6001600160a01b03166001600160a01b0316815260200190815260200160002054613bd69092919063ffffffff16565b60008381526002602090815260408083206001600160a01b038e811685529252808320939093558a1681522054611f0d90826138e7565b60009283526002602090815260408085206001600160a01b038c1686529091529092209190915550600101611e3a565b50846001600160a01b0316866001600160a01b0316826001600160a01b03167f4a39dc06d4c0dbc64b70af90fd698a233a518aa5d07e595d983b8c0526c8f7fb8787604051808060200180602001838103835285818151815260200191508051906020019060200280838360005b83811015611fc3578181015183820152602001611fab565b50505050905001838103825284818151815260200191508051906020019060200280838360005b83811015612002578181015183820152602001611fea565b5050505090500194505050505060405180910390a4612025818787878787613c6d565b505050505050565b600060606000806000856007811161204457600080fd5b60008181526012602052604090205460ff1661205f57600080fd5b60008781526012602090815260409182902080546003820154600483015460058401546002948501805488516101006001831615026000190190911696909604601f810188900488028701880190985287865260ff9094169693959294919390928691908301828280156121145780601f106120e957610100808354040283529160200191612114565b820191906000526020600020905b8154815290600101906020018083116120f757829003601f168201915b50505050509350955095509550955095505091939590929450565b6000828152602081905260409020600201546121529061214d613941565b612f47565b61218d5760405162461bcd60e51b815260040180806020018281038252602f8152602001806158f4602f913960400191505060405180910390fd5b6121978282613ee3565b5050565b6121a3613941565b6001600160a01b0316816001600160a01b0316146121f25760405162461bcd60e51b815260040180806020018281038252602f815260200180615b4b602f913960400191505060405180910390fd5b6121978282613f4c565b600b5481565b60606000806000846007811161221757600080fd5b60008181526012602052604090205460ff1661223257600080fd5b600086815260126020908152604091829020600681015460078201546008830154600193840180548751600261010097831615979097026000190190911695909504601f8101879004870286018701909752868552959294919360ff9091169290918691908301828280156122e85780601f106122bd576101008083540402835291602001916122e8565b820191906000526020600020905b8154815290600101906020018083116122cb57829003601f168201915b505050505093509450945094509450509193509193565b600080600080846007811161231357600080fd5b60008181526012602052604090205460ff1661232e57600080fd5b505050600092835250506012602052604090206008015460ff600160481b8204811692600160501b8304821692600160581b8104831692600160601b9091041690565b600083600081118015612385575060078111155b61238e57600080fd5b60018060065460ff1660018111156123a257fe5b146123ac57600080fd5b6000868152600f602052604090205460ff166123c757600080fd5b6123d086613fb5565b6123d957600080fd5b60006123e760155488613858565b9050803410156123f657600080fd5b6000600761241060016010546138e790919063ffffffff16565b016000818152601160205260409020549091506001600160a01b03161561243357fe5b60008181526012602052604090205460ff161561244c57fe5b61245461566a565b60018152604080516020601f8a01819004810282018101909252888152908990899081908401838280828437600081840152601f19601f820116905080830192505050505050508160200181905250601554816080018181525050888160a0018181525050600f60008a8152602001908152602001600020600101548160c0018181525050600f60008a8152602001908152602001600020600201548160e0018181525050600f60008a81526020019081526020016000206003018054600181600116156101000203166002900480601f0160208091040260200160405190810160405280929190818152602001828054600181600116156101000203166002900480156125a35780601f10612578576101008083540402835291602001916125a3565b820191906000526020600020905b81548152906001019060200180831161258657829003601f168201915b50505050506040828101919091526000838152601260209081529190208251815460ff191690151517815581830151805184936125e79260018501929101906155ec565b50604082015180516126039160028401916020909101906155ec565b50606082015181600301556080820151816004015560a0820151816005015560c0820151816006015560e082015181600701556101008201518160080160006101000a81548160ff021916908360ff1602179055506101208201518160080160016101000a81548160ff021916908360ff1602179055506101408201518160080160026101000a81548160ff021916908360ff1602179055506101608201518160080160036101000a81548160ff021916908360ff1602179055506101808201518160080160046101000a81548160ff021916908360ff1602179055506101a08201518160080160056101000a81548160ff021916908360ff1602179055506101c08201518160080160066101000a81548160ff021916908360ff1602179055506101e08201518160080160076101000a81548160ff021916908360ff1602179055506102008201518160080160086101000a81548160ff021916908360ff1602179055506102208201518160080160096101000a81548160ff021916908360ff16021790555061024082015181600801600a6101000a81548160ff021916908360ff16021790555061026082015181600801600b6101000a81548160ff021916908360ff16021790555061028082015181600801600c6101000a81548160ff021916908360ff1602179055506102a082015181600801600d6101000a81548160ff021916908360ff1602179055506102c082015181600801600e6101000a81548160ff021916908360ff1602179055506102e082015181600801600f6101000a81548160ff021916908360ff1602179055506103008201518160080160106101000a81548160ff021916908360ff1602179055506103208201518160080160116101000a81548160ff021916908360ff1602179055506103408201518160080160126101000a81548160ff021916908360ff16021790555090505060006128ca8361408a565b6000818152601a6020526040902084905590506128e86116da613941565b6129146128f3613941565b6000681b1ae4d6e2ef50000060405180602001604052806000815250613945565b61291c613941565b600084815260116020526040902080546001600160a01b0319166001600160a01b03929092169190911790556010546129569060016138e7565b60105560155460009081526013602090815260408083208d84529091529020546129819060016138e7565b60155460009081526013602090815260408083208e84529091528120919091556129b760646129b1876019614142565b9061419b565b60008c8152600e60205260408082205490519293506001600160a01b031691829084908381818185875af1925050503d8060008114612a12576040519150601f19603f3d011682016040523d82523d6000602084013e612a17565b606091505b5050905080612a5e576040805162461bcd60e51b815260206004820152600e60248201526d14185e5b595b9d0819985a5b195960921b604482015290519081900360640190fd5b6000612a7060646129b18a6019614142565b600b54909150612a8090826138e7565b600b55612aa3612a9a82612a948b88614202565b90614202565b600a54906138e7565b600a55612aaf88613a4d565b7ff34a510082f5a02e39555458564800fc1fe73bfd8d3aa07cbf063fe662e7657e87612ad9613941565b604080519283526001600160a01b0390911660208301528051918290030190a150949c9b505050505050505050505050565b6000806000808460078111612b1f57600080fd5b60008181526012602052604090205460ff16612b3a57600080fd5b505050600092835250506012602052604090206008015460ff650100000000008204811692600160301b8304821692600160381b8104831692600160401b9091041690565b600d545b90565b60608151835114612bc85760405162461bcd60e51b8152600401808060200182810382526029815260200180615ad96029913960400191505060405180910390fd5b6060835167ffffffffffffffff81118015612be257600080fd5b50604051908082528060200260200182016040528015612c0c578160200160208202803683370190505b50905060005b8451811015612c6a57612c4b858281518110612c2a57fe5b6020026020010151858381518110612c3e57fe5b60200260200101516113d1565b828281518110612c5757fe5b6020908102919091010152600101612c12565b509392505050565b60008160078111612c8257600080fd5b60008181526012602052604090205460ff16612c9d57600080fd5b6000838152601160205260409020546001600160a01b0316612cbe57600080fd5b50506000908152601160205260409020546001600160a01b031690565b600081600081118015612cef575060078111155b612cf857600080fd5b601554841115612d0757600080fd5b5050600091825260136020908152604080842092845291905290205490565b601c6020908152600091825260409182902080548351601f600260001961010060018616150201909316929092049182018490048402810184019094528084529091830182828015612db95780601f10612d8e57610100808354040283529160200191612db9565b820191906000526020600020905b815481529060010190602001808311612d9c57829003601f168201915b505050505081565b600081600081118015612dd5575060078111155b612dde57600080fd5b6000838152600e60205260409020546001600160a01b0316612dff57600080fd5b50506000908152600e60205260409020546001600160a01b031690565b60145481565b6000806000806000808660078111612e3957600080fd5b60008181526012602052604090205460ff16612e5457600080fd5b5050506000948552505060126020525050604090206008015460ff600160681b8204811692600160701b8304821692600160781b8104831692600160801b8204811692600160881b8304821692600160901b900490911690565b6000806000808460078111612ec257600080fd5b60008181526012602052604090205460ff16612edd57600080fd5b505050600092835250506012602052604090206008015460ff610100820481169262010000830482169263010000008104831692600160201b9091041690565b60155481565b6000828152602081905260408120612f3b908361425f565b9392505050565b600781565b6000828152602081905260408120612f3b90836138d2565b336001600160a01b037f00000000000000000000000000000000000000000000000000000000000000001614612fdc576040805162461bcd60e51b815260206004820152601f60248201527f4f6e6c7920565246436f6f7264696e61746f722063616e2066756c66696c6c00604482015290519081900360640190fd5b612197828261426b565b612ffd600080516020615a22833981519152614285565b8060168484604051808383808284379190910194855250506040519283900360200190922080546001600160a01b03949094166001600160a01b031990941693909317909255505060178054600181018255600091909152613082907fc624b66cc0138b8fabc209247f72d758e1cf3343756d543badbf24212bed8c15018484615747565b50505050565b60018060065460ff16600181111561309c57fe5b146130a657600080fd5b6130cf7fae0c232b87105e0a8134f8b92146dcd1d99373d32394be9d70f700f90b3a3db3614285565b6015546000908152601c60205260409020613082908484615747565b60008060065460ff1660018111156130ff57fe5b1480156131125750600754600954014210155b156131245761311f614298565b613157565b600160065460ff16600181111561313757fe5b14801561314a5750600854600954014210155b1561315757613157614298565b50565b600081565b816001600160a01b0316613171613941565b6001600160a01b031614156131b75760405162461bcd60e51b8152600401808060200182810382526029815260200180615ab06029913960400191505060405180910390fd5b80600360006131c4613941565b6001600160a01b03908116825260208083019390935260409182016000908120918716808252919093529120805460ff191692151592909217909155613208613941565b6001600160a01b03167f17307eab39ab6107e8899845ad3d59bd9653f200f220920489ca2b5937696c318360405180821515815260200191505060405180910390a35050565b60008060065460ff16600181111561326257fe5b1461326c57600080fd5b816007811161327a57600080fd5b60008181526012602052604090205460ff1661329557600080fd5b601554600084815260126020526040902060040154146132b457600080fd5b601c6000601554815260200190815260200160002060405180828054600181600116156101000203166002900480156133245780601f10613302576101008083540402835291820191613324565b820191906000526020600020905b815481529060010190602001808311613310575b505091505060405180910390206012600085815260200190815260200160002060020160405180828054600181600116156101000203166002900480156133a25780601f106133805761010080835404028352918201916133a2565b820191906000526020600020905b81548152906001019060200180831161338e575b50509150506040518091039020146133b957600080fd5b6000838152601d60209081526040808320601554845290915290205460ff16156133e257600080fd5b60008381526011602052604080822054600c5491516001600160a01b0390911691908381818185875af1925050503d806000811461343c576040519150601f19603f3d011682016040523d82523d6000602084013e613441565b606091505b5050905080613488576040805162461bcd60e51b815260206004820152600e60248201526d14185e5b595b9d0819985a5b195960921b604482015290519081900360640190fd5b600c54600a5461349791614202565b600a555050506000908152601d6020908152604080832060155484529091529020805460ff19166001179055565b606061308284846000858561368d565b600d5481565b6134f2600080516020615a22833981519152614285565b6006805482919060ff19166001838181111561350a57fe5b021790555050565b600081815260208190526040812061143d90614462565b60105481565b613546600080516020615a22833981519152614285565b6201518002600855565b613567600080516020615a22833981519152614285565b6201518002600755565b60008281526020819052604090206002015461358f9061214d613941565b6121f25760405162461bcd60e51b815260040180806020018281038252603081526020018061599b6030913960400191505060405180910390fd5b600a5481565b6135e7600080516020615a22833981519152614285565b601455565b601781815481106135f957fe5b600091825260209182902001805460408051601f6002600019610100600187161502019094169390930492830185900485028101850190915281815293509091830182828015612db95780601f10612d8e57610100808354040283529160200191612db9565b6001600160a01b03918216600090815260036020908152604080832093909416825291909152205460ff1690565b6001600160a01b0384166136d25760405162461bcd60e51b81526004018080602001828103825260258152602001806159cb6025913960400191505060405180910390fd5b6136da613941565b6001600160a01b0316856001600160a01b03161480613700575061370085611ddd613941565b61373b5760405162461bcd60e51b81526004018080602001828103825260298152602001806159726029913960400191505060405180910390fd5b6000613745613941565b90506137658187876137568861446d565b61375f8861446d565b87613abb565b6137ac836040518060600160405280602a8152602001615a65602a913960008781526002602090815260408083206001600160a01b038d1684529091529020549190613bd6565b60008581526002602090815260408083206001600160a01b038b811685529252808320939093558716815220546137e390846138e7565b60008581526002602090815260408083206001600160a01b03808b168086529184529382902094909455805188815291820187905280518a8416938616927fc3d58168c5ae7397731d063d5bbf3d657854427343f4c083240f7aacaa2d0f6292908290030190a46120258187878787876144b1565b60008160008111801561386c575060078111155b61387557600080fd5b60155484111561388457600080fd5b60008481526013602090815260408083208684529091528120546138a99060016138e7565b90506138b481614622565b95945050505050565b6000612f3b836001600160a01b03841661466c565b6000612f3b836001600160a01b0384166146b6565b600082820183811015612f3b576040805162461bcd60e51b815260206004820152601b60248201527f536166654d6174683a206164646974696f6e206f766572666c6f770000000000604482015290519081900360640190fd5b3390565b6001600160a01b03841661398a5760405162461bcd60e51b8152600401808060200182810382526021815260200180615b2a6021913960400191505060405180910390fd5b6000613994613941565b90506139a6816000876137568861446d565b60008481526002602090815260408083206001600160a01b03891684529091529020546139d390846138e7565b60008581526002602090815260408083206001600160a01b03808b16808652918452828520959095558151898152928301889052815190948616927fc3d58168c5ae7397731d063d5bbf3d657854427343f4c083240f7aacaa2d0f6292908290030190a4613a46816000878787876144b1565b5050505050565b6000613a593483614202565b111561315757600033613a6c3484614202565b604051600081818185875af1925050503d8060008114613aa8576040519150601f19603f3d011682016040523d82523d6000602084013e613aad565b606091505b505090508061219757600080fd5b613ac9868686868686612025565b60005b8351811015613bcd576000848281518110613ae357fe5b6020026020010151118015613b0c57506007848281518110613b0157fe5b602002602001015111155b15613b5d5784600e6000868481518110613b2257fe5b6020026020010151815260200190815260200160002060006101000a8154816001600160a01b0302191690836001600160a01b031602179055505b6007848281518110613b6b57fe5b60200260200101511115613bc5578460116000868481518110613b8a57fe5b6020026020010151815260200190815260200160002060006101000a8154816001600160a01b0302191690836001600160a01b031602179055505b600101613acc565b50505050505050565b60008184841115613c655760405162461bcd60e51b81526004018080602001828103825283818151815260200191508051906020019080838360005b83811015613c2a578181015183820152602001613c12565b50505050905090810190601f168015613c575780820380516001836020036101000a031916815260200191505b509250505060405180910390fd5b505050900390565b613c7f846001600160a01b03166146ce565b1561202557836001600160a01b031663bc197c8187878686866040518663ffffffff1660e01b815260040180866001600160a01b03168152602001856001600160a01b03168152602001806020018060200180602001848103845287818151815260200191508051906020019060200280838360005b83811015613d0d578181015183820152602001613cf5565b50505050905001848103835286818151815260200191508051906020019060200280838360005b83811015613d4c578181015183820152602001613d34565b50505050905001848103825285818151815260200191508051906020019080838360005b83811015613d88578181015183820152602001613d70565b50505050905090810190601f168015613db55780820380516001836020036101000a031916815260200191505b5098505050505050505050602060405180830381600087803b158015613dda57600080fd5b505af1925050508015613dff57506040513d6020811015613dfa57600080fd5b505160015b613e9457613e0b6157d0565b80613e165750613e5d565b60405162461bcd60e51b8152602060048201818152835160248401528351849391928392604401919085019080838360008315613c2a578181015183820152602001613c12565b60405162461bcd60e51b81526004018080602001828103825260348152602001806158766034913960400191505060405180910390fd5b6001600160e01b0319811663bc197c8160e01b14613bcd5760405162461bcd60e51b81526004018080602001828103825260288152602001806158cc6028913960400191505060405180910390fd5b6000828152602081905260409020613efb90826138bd565b1561219757613f08613941565b6001600160a01b0316816001600160a01b0316837f2f8788117e7eff1d82e926ec794901d17c78024a50270940304540a733656f0d60405160405180910390a45050565b6000828152602081905260409020613f6490826146d4565b1561219757613f71613941565b6001600160a01b0316816001600160a01b0316837ff6391f5c32d9c69d2a47ea670b442974b53935d1edc7fd64eb21e047a839171b60405160405180910390a45050565b601554600090815260136020908152604080832084845290915281205460041115613fe257506001611467565b601554600090815260136020908152604080832085845290915290205460015b600d54811161405757601554600090815260136020908152604080832084845290915290205482111561404f57601554600090815260136020908152604080832084845290915290205491505b600101614002565b50614063816002614142565b60155460009081526013602090815260408083208784529091529020541115915050919050565b60006019547f00000000000000000000000000000000000000000000000000000000000000006001600160a01b03166370a08231306040518263ffffffff1660e01b815260040180826001600160a01b0316815260200191505060206040518083038186803b1580156140fc57600080fd5b505afa158015614110573d6000803e3d6000fd5b505050506040513d602081101561412657600080fd5b5051101561413357600080fd5b61143d601854601954846146e9565b6000826141515750600061143d565b8282028284828161415e57fe5b0414612f3b5760405162461bcd60e51b8152600401808060200182810382526021815260200180615a8f6021913960400191505060405180910390fd5b60008082116141f1576040805162461bcd60e51b815260206004820152601a60248201527f536166654d6174683a206469766973696f6e206279207a65726f000000000000604482015290519081900360640190fd5b8183816141fa57fe5b049392505050565b600082821115614259576040805162461bcd60e51b815260206004820152601e60248201527f536166654d6174683a207375627472616374696f6e206f766572666c6f770000604482015290519081900360640190fd5b50900390565b6000612f3b8383614893565b6000828152601b60205260409020819055612197826148f7565b61428f8133612f47565b61315757600080fd5b600060065460ff1660018111156142ab57fe5b14156142de576000600a819055600c556015546142c99060016138e7565b6015556006805460ff1916600117905561445c565b600160065460ff1660018111156142f157fe5b141561445c576142ff614fcb565b60015b600d54811161444857601c60006015548152602001908152602001600020604051808280546001816001161561010002031660029004801561437b5780601f1061435957610100808354040283529182019161437b565b820191906000526020600020905b815481529060010190602001808311614367575b50509150506040518091039020600f600083815260200190815260200160002060030160405180828054600181600116156101000203166002900480156143f95780601f106143d75761010080835404028352918201916143f9565b820191906000526020600020905b8154815290600101906020018083116143e5575b50509150506040518091039020141561444057600061441a60155483612cdb565b11156144405761443861442f60155483612cdb565b600a549061419b565b600c55614448565b600101614302565b6144506151b8565b506006805460ff191690555b42600955565b600061143d82615217565b6040805160018082528183019092526060918291906020808301908036833701905050905082816000815181106144a057fe5b602090810291909101015292915050565b6144c3846001600160a01b03166146ce565b1561202557836001600160a01b031663f23a6e6187878686866040518663ffffffff1660e01b815260040180866001600160a01b03168152602001856001600160a01b0316815260200184815260200183815260200180602001828103825283818151815260200191508051906020019080838360005b8381101561455257818101518382015260200161453a565b50505050905090810190601f16801561457f5780820380516001836020036101000a031916815260200191505b509650505050505050602060405180830381600087803b1580156145a257600080fd5b505af19250505080156145c757506040513d60208110156145c257600080fd5b505160015b6145d357613e0b6157d0565b6001600160e01b0319811663f23a6e6160e01b14613bcd5760405162461bcd60e51b81526004018080602001828103825260288152602001806158cc6028913960400191505060405180910390fd5b600080600161464960646129b1600261464388670de0b6b3a7640000614142565b90614142565b9150611cbe614665600a6129b184670de0b6b3a7640000614142565b83906138e7565b600061467883836146b6565b6146ae5750815460018181018455600084815260208082209093018490558454848252828601909352604090209190915561143d565b50600061143d565b60009081526001919091016020526040902054151590565b3b151590565b6000612f3b836001600160a01b03841661521b565b60007f00000000000000000000000000000000000000000000000000000000000000006001600160a01b0316634000aea07f000000000000000000000000000000000000000000000000000000000000000085878660405160200180838152602001828152602001925050506040516020818303038152906040526040518463ffffffff1660e01b815260040180846001600160a01b0316815260200183815260200180602001828103825283818151815260200191508051906020019080838360005b838110156147c55781810151838201526020016147ad565b50505050905090810190601f1680156147f25780820380516001836020036101000a031916815260200191505b50945050505050602060405180830381600087803b15801561481357600080fd5b505af1158015614827573d6000803e3d6000fd5b505050506040513d602081101561483d57600080fd5b505060008481526005602052604081205461485d908690859030906152e1565b60008681526005602052604090205490915061487a9060016138e7565b6000868152600560205260409020556138b48582615328565b815460009082106148d55760405162461bcd60e51b81526004018080602001828103825260228152602001806158aa6022913960400191505060405180910390fd5b8260000182815481106148e457fe5b9060005260206000200154905092915050565b6000818152601a60205260409020546007811161491357600080fd5b60008181526012602052604090205460ff1661492e57600080fd5b6000828152601a6020908152604080832054601b8352818420548185526012909352908320600801805469ff0000000000000000001916600160481b17905591614979600283615354565b6000858152601260205260409020600801805460ff191660ff939093169290921790915590506149aa600482615354565b6000858152601260205260409020600801805460ff9093166101000261ff00199093169290921790915590506149e1600482615354565b6000858152601260205260409020600801805460ff909316620100000262ff000019909316929092179091559050614a1a600482615354565b6000858152601260205260409020600801805460ff90931663010000000263ff00000019909316929092179091559050614a55600482615354565b6000858152601260205260409020600801805460ff909316600160201b0264ff0000000019909316929092179091559050614a91600982615354565b6000858152601260205260409020600801805460ff909316650100000000000265ff000000000019909316929092179091559050614ad0601e82615354565b6000858152601260205260409020600801805460ff909316600160301b0266ff00000000000019909316929092179091559050614b0e601882615354565b6000858152601260205260409020600801805460ff909316600160381b0267ff0000000000000019909316929092179091559050614b4d600782615354565b6000858152601260205260409020600801805460ff909316600160401b0268ff000000000000000019909316929092179091559050614b8d601582615354565b6000858152601260205260409020600801805460ff60501b1916600160501b60ff94851681029190911791829055919350614bcd929190041660096138e7565b6000848152601260205260409020600801805460ff92909216600160501b0260ff60501b19909216919091179055614c06601582615354565b6000858152601260205260409020600801805460ff60581b1916600160581b60ff94851681029190911791829055919350614c46929190041660096138e7565b6000848152601260205260409020600801805460ff92909216600160581b0260ff60581b19909216919091179055614c7f601f82615354565b6000858152601260205260409020600801805460ff60601b1916600160601b60ff94851681029190911791829055919350614cbf929190041660096138e7565b6000848152601260205260409020600801805460ff92909216600160601b0260ff60601b19909216919091179055614cf8601082615354565b6000858152601260205260409020600801805460ff60681b1916600160681b60ff94851681029190911791829055919350614d38929190041660026138e7565b6000848152601260205260409020600801805460ff92909216600160681b0260ff60681b19909216919091179055614d71601082615354565b6000858152601260205260409020600801805460ff60701b1916600160701b60ff94851681029190911791829055919350614db1929190041660026138e7565b6000848152601260205260409020600801805460ff92909216600160701b0260ff60701b19909216919091179055614dea601082615354565b6000858152601260205260409020600801805460ff60781b1916600160781b60ff94851681029190911791829055919350614e2a929190041660026138e7565b6000848152601260205260409020600801805460ff92909216600160781b0260ff60781b19909216919091179055614e63601082615354565b6000858152601260205260409020600801805460ff60801b1916600160801b60ff94851681029190911791829055919350614ea3929190041660026138e7565b6000848152601260205260409020600801805460ff92909216600160801b0260ff60801b19909216919091179055614edc601082615354565b6000858152601260205260409020600801805460ff60881b1916600160881b60ff94851681029190911791829055919350614f1c929190041660026138e7565b6000848152601260205260409020600801805460ff92909216600160881b0260ff60881b19909216919091179055614f55601082615354565b6000858152601260205260409020600801805460ff60901b1916600160901b60ff94851681029190911791829055919350614f95929190041660026138e7565b600093845260126020526040909320600801805460ff94909416600160901b0260ff60901b199094169390931790925550505050565b601e54604080518082018252600a81526950524943455f5741525360b01b60208083019182529251636cadcd7960e11b8152600481019384528251602482015282516000956001600160a01b03169463d95b9af2949390928392604490910191908083838b5b83811015615049578181015183820152602001615031565b50505050905090810190601f1680156150765780820380516001836020036101000a031916815260200191505b5092505050602060405180830381600087803b15801561509557600080fd5b505af11580156150a9573d6000803e3d6000fd5b505050506040513d60208110156150bf57600080fd5b5051604080516372d7f66560e11b8152306004820152905191925082916000916001600160a01b0384169163e5afecca9160248082019260209290919082900301818787803b15801561511157600080fd5b505af1158015615125573d6000803e3d6000fd5b505050506040513d602081101561513b57600080fd5b505190506151697fae0c232b87105e0a8134f8b92146dcd1d99373d32394be9d70f700f90b3a3db38261212f565b806001600160a01b031663d65ab5f26040518163ffffffff1660e01b8152600401600060405180830381600087803b1580156151a457600080fd5b505af1158015613bcd573d6000803e3d6000fd5b60015b600781116151eb576000818152600f602052604090205460ff16156151e3576151e381615385565b6001016151bb565b506040517f0143b2c36fac98f86168603d28d499bde9ce0367d41e111cef9f2ecbc9eeabfc90600090a1565b5490565b600081815260018301602052604081205480156152d7578354600019808301919081019060009087908390811061524e57fe5b906000526020600020015490508087600001848154811061526b57fe5b60009182526020808320909101929092558281526001898101909252604090209084019055865487908061529b57fe5b6001900381819060005260206000200160009055905586600101600087815260200190815260200160002060009055600194505050505061143d565b600091505061143d565b60408051602080820196909652808201949094526001600160a01b039290921660608401526080808401919091528151808403909101815260a09092019052805191012090565b604080516020808201949094528082019290925280518083038201815260609092019052805191012090565b60008061536f60016153698560ff8816615421565b906138e7565b61537a84600a61419b565b915091509250929050565b80600081118015615397575060078111155b6153a057600080fd5b6000828152600f602052604090205460ff166153bb57600080fd5b6000828152600e60205260409020546153df906001600160a01b0316836001615488565b600d546153ed906001614202565b600d55506000908152600e6020908152604080832080546001600160a01b0319169055600f9091529020805460ff19169055565b6000808211615477576040805162461bcd60e51b815260206004820152601860248201527f536166654d6174683a206d6f64756c6f206279207a65726f0000000000000000604482015290519081900360640190fd5b81838161548057fe5b069392505050565b6001600160a01b0383166154cd5760405162461bcd60e51b8152600401808060200182810382526023815260200180615a426023913960400191505060405180910390fd5b60006154d7613941565b9050615507818560006154e98761446d565b6154f28761446d565b60405180602001604052806000815250613abb565b61554e8260405180606001604052806024815260200161594e6024913960008681526002602090815260408083206001600160a01b038b1684529091529020549190613bd6565b60008481526002602090815260408083206001600160a01b03808a16808652918452828520959095558151888152928301879052815193949093908616927fc3d58168c5ae7397731d063d5bbf3d657854427343f4c083240f7aacaa2d0f6292908290030190a450505050565b6040518060a00160405280600015158152602001600081526020016000815260200160608152602001600081525090565b828054600181600116156101000203166002900490600052602060002090601f016020900481019282601f1061562d57805160ff191683800117855561565a565b8280016001018555821561565a579182015b8281111561565a57825182559160200191906001019061563f565b506156669291506157b5565b5090565b604080516103608101825260008082526060602083018190529282018390529181018290526080810182905260a0810182905260c0810182905260e08101829052610100810182905261012081018290526101408101829052610160810182905261018081018290526101a081018290526101c081018290526101e08101829052610200810182905261022081018290526102408101829052610260810182905261028081018290526102a081018290526102c081018290526102e081018290526103008101829052610320810182905261034081019190915290565b828054600181600116156101000203166002900490600052602060002090601f016020900481019282601f106157885782800160ff1982351617855561565a565b8280016001018555821561565a579182015b8281111561565a57823582559160200191906001019061579a565b5b8082111561566657600081556001016157b6565b60e01c90565b600060443d10156157e057612b83565b600481823e6308c379a06157f482516157ca565b146157fe57612b83565b6040513d600319016004823e80513d67ffffffffffffffff816024840111818411171561582e5750505050612b83565b828401925082519150808211156158485750505050612b83565b503d8301602082840101111561586057505050612b83565b601f01601f191681016020016040529150509056fe455243313135353a207472616e7366657220746f206e6f6e2045524331313535526563656976657220696d706c656d656e746572456e756d657261626c655365743a20696e646578206f7574206f6620626f756e6473455243313135353a204552433131353552656365697665722072656a656374656420746f6b656e73416363657373436f6e74726f6c3a2073656e646572206d75737420626520616e2061646d696e20746f206772616e74455243313135353a2062616c616e636520717565727920666f7220746865207a65726f2061646472657373455243313135353a206275726e20616d6f756e7420657863656564732062616c616e6365455243313135353a2063616c6c6572206973206e6f74206f776e6572206e6f7220617070726f766564416363657373436f6e74726f6c3a2073656e646572206d75737420626520616e2061646d696e20746f207265766f6b65455243313135353a207472616e7366657220746f20746865207a65726f2061646472657373455243313135353a207472616e736665722063616c6c6572206973206e6f74206f776e6572206e6f7220617070726f7665642172861495e7b85edac73e3cd5fbb42dd675baadf627720e687bcfdaca025096455243313135353a206275726e2066726f6d20746865207a65726f2061646472657373455243313135353a20696e73756666696369656e742062616c616e636520666f72207472616e73666572536166654d6174683a206d756c7469706c69636174696f6e206f766572666c6f77455243313135353a2073657474696e6720617070726f76616c2073746174757320666f722073656c66455243313135353a206163636f756e747320616e6420696473206c656e677468206d69736d61746368455243313135353a2069647320616e6420616d6f756e7473206c656e677468206d69736d61746368455243313135353a206d696e7420746f20746865207a65726f2061646472657373416363657373436f6e74726f6c3a2063616e206f6e6c792072656e6f756e636520726f6c657320666f722073656c66a2646970667358221220fd9696f64a56d923f4e7eb9d4930e954cb4d0ecc2c8311367ee22f4abeae970764736f6c634300060c0033416363657373436f6e74726f6c3a2073656e646572206d75737420626520616e2061646d696e20746f206772616e742172861495e7b85edac73e3cd5fbb42dd675baadf627720e687bcfdaca0250969f4e1c871d5fdd0aee1cd182666698a4492b24c6832aac230d07b11046af5a89","bytecodeSha1":"40f6ba5ef29f7c2759d2eb3347754addfa32f247","compiler":{"evm_version":"istanbul","optimizer":{"enabled":true,"runs":200},"version":"0.6.12+commit.27d51765"},"contractName":"CryptoChampions","language":"Solidity","natspec":{"author":"Oozyx","kind":"dev","methods":{"balanceOf(address,uint256)":{"details":"See {IERC1155-balanceOf}. Requirements: - `account` cannot be the zero address."},"balanceOfBatch(address[],uint256[])":{"details":"See {IERC1155-balanceOfBatch}. Requirements: - `accounts` and `ids` must have the same length."},"claimReward(uint256)":{"details":"Can only claim once and only for the round the hero was minted","notice":"Claims the rewards for the hero if eligible","params":{"heroId":"The hero id"}},"createAffinity(string,address)":{"details":"This will be called by a priviledged address. It will allow to create new affinities. May need to add a remove affinity function as well.","notice":"Creates a new token affinity","params":{"feedAddress":"The price feed address","tokenTicker":"The token ticker of the affinity"}},"declareRoundWinner(string)":{"details":"This can only be called by a game admin contract","notice":"Declares a winning affinity for a round","params":{"winningAffinity":"The affinity that won the game"}},"delegatedTransferInGameTokens(address,address,uint256)":{"notice":"Transfers in game currency tokens from one address to another.","params":{"amount":"The amount to transfer","from":"The sending address.  Note that the sender must be authorized to transfer funds if the sender is different from the from address.","to":"The receiving address"}},"getAffinityFeedAddress(string)":{"notice":"Fetches the feed address for a given affinity","params":{"affinity":"The affinity being searched for"},"returns":{"_0":"The address of the affinity's feed address"}},"getElderOwner(uint256)":{"notice":"Gets the elder owner for the given elder id","params":{"elderId":"The elder id"},"returns":{"_0":"The owner of the elder"}},"getElderSpawnsAmount(uint256,uint256)":{"notice":"Gets the amount of heroes spawn from the elder with the specified id during the specified round","params":{"elderId":"The elder id","round":"The round the elder was created"},"returns":{"_0":"The amount of heroes spawned from the elder"}},"getElderSpirit(uint256)":{"notice":"Fetches the data of a single elder spirit","params":{"elderId":"The id of the elder being searched for"},"returns":{"_0":"The elder's attributes in the following order (valid, raceId, classId, affinity)"}},"getHeroGameData(uint256)":{"notice":"Hero getter function","params":{"heroId":"The hero id"},"returns":{"_0":"valid, affinity, affinity price, round minted, elder id"}},"getHeroLore(uint256)":{"notice":"Hero getter function","params":{"heroId":"The hero id"},"returns":{"_0":"alignment, background, hometown, weather"}},"getHeroMintPrice(uint256,uint256)":{"notice":"Gets the minting price of a hero based on specified elder spirit","params":{"elderId":"The elder id for which the hero will be based on","round":"The round of the hero to be minted"},"returns":{"_0":"The hero mint price"}},"getHeroOwner(uint256)":{"notice":"Get the hero owner for the given hero id","params":{"heroId":"The hero id"},"returns":{"_0":"The owner address"}},"getHeroStats(uint256)":{"notice":"Hero getter function","params":{"heroId":"The hero id"},"returns":{"_0":"stamina, strength, dexterity, constitution, intelligence, wisdom, charisma"}},"getHeroTraitsSkills(uint256)":{"notice":"Hero getter function","params":{"heroId":"The hero id"},"returns":{"_0":"trait 1, trait 2, skill 1, skill 2"}},"getHeroVisuals(uint256)":{"notice":"Hero getter function","params":{"heroId":"The hero id"},"returns":{"_0":"name, race id, class id, appearance"}},"getHeroVitals(uint256)":{"notice":"Hero getter function","params":{"heroId":"The hero id"},"returns":{"_0":"level, hp, mana"}},"getNumEldersInGame()":{"notice":"Fetches the number of elders currently in the game","returns":{"_0":"The current number of elders in the game"}},"getRoleAdmin(bytes32)":{"details":"Returns the admin role that controls `role`. See {grantRole} and {revokeRole}. To change a role's admin, use {_setRoleAdmin}."},"getRoleMember(bytes32,uint256)":{"details":"Returns one of the accounts that have `role`. `index` must be a value between 0 and {getRoleMemberCount}, non-inclusive. Role bearers are not sorted in any particular way, and their ordering may change at any point. WARNING: When using {getRoleMember} and {getRoleMemberCount}, make sure you perform all queries on the same block. See the following https://forum.openzeppelin.com/t/iterating-over-elements-on-enumerableset-in-openzeppelin-contracts/2296[forum post] for more information."},"getRoleMemberCount(bytes32)":{"details":"Returns the number of accounts that have `role`. Can be used together with {getRoleMember} to enumerate all bearers of a role."},"grantRole(bytes32,address)":{"details":"Grants `role` to `account`. If `account` had not been already granted `role`, emits a {RoleGranted} event. Requirements: - the caller must have ``role``'s admin role."},"hasRole(bytes32,address)":{"details":"Returns `true` if `account` has been granted `role`."},"hasRoundReward(uint256)":{"notice":"Returns whether or not hero has reward for the round","params":{"heroId":"The id of the hero being searched for"}},"isApprovedForAll(address,address)":{"details":"See {IERC1155-isApprovedForAll}."},"mintElderSpirit(uint256,uint256,string)":{"details":"For now only race, class, and token (affinity) are needed. This will change. The race and class ids will probably be public constants defined in the crypto champions contract, this is subject to change.","notice":"Mints an elder spirit","params":{"affinity":"The affinity of the minted hero","classId":"The class id","raceId":"The race id"},"returns":{"_0":"The elder spirit id"}},"mintHero(uint256,string)":{"notice":"Mints a hero based on an elder spirit","params":{"elderId":"The id of the elder spirit this hero is based on"},"returns":{"_0":"The hero id"}},"refreshPhase()":{"notice":"Transitions to next phase if the condition is met and rewards caller for a successful phase transition"},"renounceRole(bytes32,address)":{"details":"Revokes `role` from the calling account. Roles are often managed via {grantRole} and {revokeRole}: this function's purpose is to provide a mechanism for accounts to lose their privileges if they are compromised (such as when a trusted device is misplaced). If the calling account had been granted `role`, emits a {RoleRevoked} event. Requirements: - the caller must be `account`."},"revokeRole(bytes32,address)":{"details":"Revokes `role` from `account`. If `account` had been granted `role`, emits a {RoleRevoked} event. Requirements: - the caller must have ``role``'s admin role."},"safeBatchTransferFrom(address,address,uint256[],uint256[],bytes)":{"details":"See {IERC1155-safeBatchTransferFrom}."},"safeTransferFrom(address,address,uint256,uint256,bytes)":{"details":"See {IERC1155-safeTransferFrom}."},"setActionPhaseDuration(uint256)":{"notice":"Sets the duration of the action phase","params":{"numDays":"Number of days for the action phase"}},"setApprovalForAll(address,bool)":{"details":"See {IERC1155-setApprovalForAll}."},"setElderMintPrice(uint256)":{"details":"Can only be called by an admin address","notice":"Sets the elder mint price","params":{"price":"The new elder mint price"}},"setPhase(uint8)":{"details":"May delete function and keep only the refresh phase function","notice":"Sets the contract's phase","params":{"phase":"The phase the contract should be set to"}},"setSetupPhaseDuration(uint256)":{"notice":"Sets the duration of the setup phase","params":{"numDays":"Number of days for the setup phase duration"}},"supportsInterface(bytes4)":{"details":"See {IERC165-supportsInterface}. Time complexity O(1), guaranteed to always use less than 30 000 gas."},"transferInGameTokens(address,uint256)":{"notice":"Transfers in game currency tokens from one address to another","params":{"amount":"The amount to transfer","to":"The receiving address"}},"uri(uint256)":{"details":"See {IERC1155MetadataURI-uri}. This implementation returns the same URI for *all* token types. It relies on the token type ID substitution mechanism https://eips.ethereum.org/EIPS/eip-1155#metadata[defined in the EIP]. Clients calling this function must replace the `\\{id\\}` substring with the actual token type ID."}},"notice":"This is the crypto champions class","title":"Crypto Champions Interface","version":1},"opcodes":"PUSH1 0x80 PUSH1 0x40 MSTORE PUSH1 0x4 CALLDATASIZE LT PUSH2 0x334 JUMPI PUSH1 0x0 CALLDATALOAD PUSH1 0xE0 SHR DUP1 PUSH4 0x835A4398 GT PUSH2 0x1AB JUMPI DUP1 PUSH4 0xB9280067 GT PUSH2 0xF7 JUMPI DUP1 PUSH4 0xD547741F GT PUSH2 0x95 JUMPI DUP1 PUSH4 0xE5B0A993 GT PUSH2 0x6F JUMPI DUP1 PUSH4 0xE5B0A993 EQ PUSH2 0x1266 JUMPI DUP1 PUSH4 0xE985E9C5 EQ PUSH2 0x1290 JUMPI DUP1 PUSH4 0xF242432A EQ PUSH2 0x12CB JUMPI DUP1 PUSH4 0xF32C4974 EQ PUSH2 0x13A1 JUMPI PUSH2 0x334 JUMP JUMPDEST DUP1 PUSH4 0xD547741F EQ PUSH2 0x11EE JUMPI DUP1 PUSH4 0xD6303CCE EQ PUSH2 0x1227 JUMPI DUP1 PUSH4 0xE3E98382 EQ PUSH2 0x123C JUMPI PUSH2 0x334 JUMP JUMPDEST DUP1 PUSH4 0xCA15C873 GT PUSH2 0xD1 JUMPI DUP1 PUSH4 0xCA15C873 EQ PUSH2 0x115B JUMPI DUP1 PUSH4 0xCAAB7EF8 EQ PUSH2 0x1185 JUMPI DUP1 PUSH4 0xD124F145 EQ PUSH2 0x119A JUMPI DUP1 PUSH4 0xD326BB6A EQ PUSH2 0x11C4 JUMPI PUSH2 0x334 JUMP JUMPDEST DUP1 PUSH4 0xB9280067 EQ PUSH2 0x10D6 JUMPI DUP1 PUSH4 0xBF61211F EQ PUSH2 0x1119 JUMPI DUP1 PUSH4 0xC03AFB59 EQ PUSH2 0x112E JUMPI PUSH2 0x334 JUMP JUMPDEST DUP1 PUSH4 0x94985DDD GT PUSH2 0x164 JUMPI DUP1 PUSH4 0x9FF1103F GT PUSH2 0x13E JUMPI DUP1 PUSH4 0x9FF1103F EQ PUSH2 0x1047 JUMPI DUP1 PUSH4 0xA217FDDF EQ PUSH2 0x105C JUMPI DUP1 PUSH4 0xA22CB465 EQ PUSH2 0x1071 JUMPI DUP1 PUSH4 0xAE169A50 EQ PUSH2 0x10AC JUMPI PUSH2 0x334 JUMP JUMPDEST DUP1 PUSH4 0x94985DDD EQ PUSH2 0xF18 JUMPI DUP1 PUSH4 0x9D5B82C0 EQ PUSH2 0xF48 JUMPI DUP1 PUSH4 0x9E315008 EQ PUSH2 0xFCC JUMPI PUSH2 0x334 JUMP JUMPDEST DUP1 PUSH4 0x835A4398 EQ PUSH2 0xDF4 JUMPI DUP1 PUSH4 0x8423B077 EQ PUSH2 0xE5B JUMPI DUP1 PUSH4 0x8A19C8BC EQ PUSH2 0xE85 JUMPI DUP1 PUSH4 0x9010D07C EQ PUSH2 0xE9A JUMPI DUP1 PUSH4 0x90DED47E EQ PUSH2 0xECA JUMPI DUP1 PUSH4 0x91D14854 EQ PUSH2 0xEDF JUMPI PUSH2 0x334 JUMP JUMPDEST DUP1 PUSH4 0x2F2FF15D GT PUSH2 0x285 JUMPI DUP1 PUSH4 0x4C52B2A9 GT PUSH2 0x223 JUMPI DUP1 PUSH4 0x59CA19D3 GT PUSH2 0x1FD JUMPI DUP1 PUSH4 0x59CA19D3 EQ PUSH2 0xD5B JUMPI DUP1 PUSH4 0x6DE51353 EQ PUSH2 0xD8B JUMPI DUP1 PUSH4 0x72EDA5BB EQ PUSH2 0xDB5 JUMPI DUP1 PUSH4 0x79935FE0 EQ PUSH2 0xDDF JUMPI PUSH2 0x334 JUMP JUMPDEST DUP1 PUSH4 0x4C52B2A9 EQ PUSH2 0xB9C JUMPI DUP1 PUSH4 0x4E1273F4 EQ PUSH2 0xBB1 JUMPI DUP1 PUSH4 0x56B4D760 EQ PUSH2 0xD31 JUMPI PUSH2 0x334 JUMP JUMPDEST DUP1 PUSH4 0x46E6F13D GT PUSH2 0x25F JUMPI DUP1 PUSH4 0x46E6F13D EQ PUSH2 0x9EB JUMPI DUP1 PUSH4 0x48772D79 EQ PUSH2 0xAA5 JUMPI DUP1 PUSH4 0x498E8219 EQ PUSH2 0xAFD JUMPI DUP1 PUSH4 0x4C2ED018 EQ PUSH2 0xB72 JUMPI PUSH2 0x334 JUMP JUMPDEST DUP1 PUSH4 0x2F2FF15D EQ PUSH2 0x964 JUMPI DUP1 PUSH4 0x36568ABE EQ PUSH2 0x99D JUMPI DUP1 PUSH4 0x4390D2A8 EQ PUSH2 0x9D6 JUMPI PUSH2 0x334 JUMP JUMPDEST DUP1 PUSH4 0x21C2F72A GT PUSH2 0x2F2 JUMPI DUP1 PUSH4 0x26D4D15A GT PUSH2 0x2CC JUMPI DUP1 PUSH4 0x26D4D15A EQ PUSH2 0x644 JUMPI DUP1 PUSH4 0x26F7AF4F EQ PUSH2 0x6DB JUMPI DUP1 PUSH4 0x2EB2C2D6 EQ PUSH2 0x716 JUMPI DUP1 PUSH4 0x2EE1F0A0 EQ PUSH2 0x8E4 JUMPI PUSH2 0x334 JUMP JUMPDEST DUP1 PUSH4 0x21C2F72A EQ PUSH2 0x530 JUMPI DUP1 PUSH4 0x23A2884B EQ PUSH2 0x5F0 JUMPI DUP1 PUSH4 0x248A9CA3 EQ PUSH2 0x61A JUMPI PUSH2 0x334 JUMP JUMPDEST DUP1 PUSH3 0xFDD58E EQ PUSH2 0x339 JUMPI DUP1 PUSH4 0x10A768E EQ PUSH2 0x384 JUMPI DUP1 PUSH4 0x1FFC9A7 EQ PUSH2 0x399 JUMPI DUP1 PUSH4 0x55AD42E EQ PUSH2 0x3E1 JUMPI DUP1 PUSH4 0xE89341C EQ PUSH2 0x417 JUMPI DUP1 PUSH4 0xFBEA841 EQ PUSH2 0x4B6 JUMPI JUMPDEST PUSH1 0x0 DUP1 REVERT JUMPDEST CALLVALUE DUP1 ISZERO PUSH2 0x345 JUMPI PUSH1 0x0 DUP1 REVERT JUMPDEST POP PUSH2 0x372 PUSH1 0x4 DUP1 CALLDATASIZE SUB PUSH1 0x40 DUP2 LT ISZERO PUSH2 0x35C JUMPI PUSH1 0x0 DUP1 REVERT JUMPDEST POP PUSH1 0x1 PUSH1 0x1 PUSH1 0xA0 SHL SUB DUP2 CALLDATALOAD AND SWAP1 PUSH1 0x20 ADD CALLDATALOAD PUSH2 0x13D1 JUMP JUMPDEST PUSH1 0x40 DUP1 MLOAD SWAP2 DUP3 MSTORE MLOAD SWAP1 DUP2 SWAP1 SUB PUSH1 0x20 ADD SWAP1 RETURN JUMPDEST CALLVALUE DUP1 ISZERO PUSH2 0x390 JUMPI PUSH1 0x0 DUP1 REVERT JUMPDEST POP PUSH2 0x372 PUSH2 0x1443 JUMP JUMPDEST CALLVALUE DUP1 ISZERO PUSH2 0x3A5 JUMPI PUSH1 0x0 DUP1 REVERT JUMPDEST POP PUSH2 0x3CD PUSH1 0x4 DUP1 CALLDATASIZE SUB PUSH1 0x20 DUP2 LT ISZERO PUSH2 0x3BC JUMPI PUSH1 0x0 DUP1 REVERT JUMPDEST POP CALLDATALOAD PUSH1 0x1 PUSH1 0x1 PUSH1 0xE0 SHL SUB NOT AND PUSH2 0x1449 JUMP JUMPDEST PUSH1 0x40 DUP1 MLOAD SWAP2 ISZERO ISZERO DUP3 MSTORE MLOAD SWAP1 DUP2 SWAP1 SUB PUSH1 0x20 ADD SWAP1 RETURN JUMPDEST CALLVALUE DUP1 ISZERO PUSH2 0x3ED JUMPI PUSH1 0x0 DUP1 REVERT JUMPDEST POP PUSH2 0x3F6 PUSH2 0x146C JUMP JUMPDEST PUSH1 0x40 MLOAD DUP1 DUP3 PUSH1 0x1 DUP2 GT ISZERO PUSH2 0x406 JUMPI INVALID JUMPDEST DUP2 MSTORE PUSH1 0x20 ADD SWAP2 POP POP PUSH1 0x40 MLOAD DUP1 SWAP2 SUB SWAP1 RETURN JUMPDEST CALLVALUE DUP1 ISZERO PUSH2 0x423 JUMPI PUSH1 0x0 DUP1 REVERT JUMPDEST POP PUSH2 0x441 PUSH1 0x4 DUP1 CALLDATASIZE SUB PUSH1 0x20 DUP2 LT ISZERO PUSH2 0x43A JUMPI PUSH1 0x0 DUP1 REVERT JUMPDEST POP CALLDATALOAD PUSH2 0x1475 JUMP JUMPDEST PUSH1 0x40 DUP1 MLOAD PUSH1 0x20 DUP1 DUP3 MSTORE DUP4 MLOAD DUP2 DUP4 ADD MSTORE DUP4 MLOAD SWAP2 SWAP3 DUP4 SWAP3 SWAP1 DUP4 ADD SWAP2 DUP6 ADD SWAP1 DUP1 DUP4 DUP4 PUSH1 0x0 JUMPDEST DUP4 DUP2 LT ISZERO PUSH2 0x47B JUMPI DUP2 DUP2 ADD MLOAD DUP4 DUP3 ADD MSTORE PUSH1 0x20 ADD PUSH2 0x463 JUMP JUMPDEST POP POP POP POP SWAP1 POP SWAP1 DUP2 ADD SWAP1 PUSH1 0x1F AND DUP1 ISZERO PUSH2 0x4A8 JUMPI DUP1 DUP3 SUB DUP1 MLOAD PUSH1 0x1 DUP4 PUSH1 0x20 SUB PUSH2 0x100 EXP SUB NOT AND DUP2 MSTORE PUSH1 0x20 ADD SWAP2 POP JUMPDEST POP SWAP3 POP POP POP PUSH1 0x40 MLOAD DUP1 SWAP2 SUB SWAP1 RETURN JUMPDEST PUSH2 0x372 PUSH1 0x4 DUP1 CALLDATASIZE SUB PUSH1 0x60 DUP2 LT ISZERO PUSH2 0x4CC JUMPI PUSH1 0x0 DUP1 REVERT JUMPDEST DUP2 CALLDATALOAD SWAP2 PUSH1 0x20 DUP2 ADD CALLDATALOAD SWAP2 DUP2 ADD SWAP1 PUSH1 0x60 DUP2 ADD PUSH1 0x40 DUP3 ADD CALLDATALOAD PUSH1 0x1 PUSH1 0x20 SHL DUP2 GT ISZERO PUSH2 0x4F2 JUMPI PUSH1 0x0 DUP1 REVERT JUMPDEST DUP3 ADD DUP4 PUSH1 0x20 DUP3 ADD GT ISZERO PUSH2 0x504 JUMPI PUSH1 0x0 DUP1 REVERT JUMPDEST DUP1 CALLDATALOAD SWAP1 PUSH1 0x20 ADD SWAP2 DUP5 PUSH1 0x1 DUP4 MUL DUP5 ADD GT PUSH1 0x1 PUSH1 0x20 SHL DUP4 GT OR ISZERO PUSH2 0x525 JUMPI PUSH1 0x0 DUP1 REVERT JUMPDEST POP SWAP1 SWAP3 POP SWAP1 POP PUSH2 0x150D JUMP JUMPDEST CALLVALUE DUP1 ISZERO PUSH2 0x53C JUMPI PUSH1 0x0 DUP1 REVERT JUMPDEST POP PUSH2 0x55A PUSH1 0x4 DUP1 CALLDATASIZE SUB PUSH1 0x20 DUP2 LT ISZERO PUSH2 0x553 JUMPI PUSH1 0x0 DUP1 REVERT JUMPDEST POP CALLDATALOAD PUSH2 0x1801 JUMP JUMPDEST PUSH1 0x40 MLOAD DUP1 DUP7 ISZERO ISZERO DUP2 MSTORE PUSH1 0x20 ADD DUP6 DUP2 MSTORE PUSH1 0x20 ADD DUP5 DUP2 MSTORE PUSH1 0x20 ADD DUP1 PUSH1 0x20 ADD DUP4 DUP2 MSTORE PUSH1 0x20 ADD DUP3 DUP2 SUB DUP3 MSTORE DUP5 DUP2 DUP2 MLOAD DUP2 MSTORE PUSH1 0x20 ADD SWAP2 POP DUP1 MLOAD SWAP1 PUSH1 0x20 ADD SWAP1 DUP1 DUP4 DUP4 PUSH1 0x0 JUMPDEST DUP4 DUP2 LT ISZERO PUSH2 0x5B1 JUMPI DUP2 DUP2 ADD MLOAD DUP4 DUP3 ADD MSTORE PUSH1 0x20 ADD PUSH2 0x599 JUMP JUMPDEST POP POP POP POP SWAP1 POP SWAP1 DUP2 ADD SWAP1 PUSH1 0x1F AND DUP1 ISZERO PUSH2 0x5DE JUMPI DUP1 DUP3 SUB DUP1 MLOAD PUSH1 0x1 DUP4 PUSH1 0x20 SUB PUSH2 0x100 EXP SUB NOT AND DUP2 MSTORE PUSH1 0x20 ADD SWAP2 POP JUMPDEST POP SWAP7 POP POP POP POP POP POP POP PUSH1 0x40 MLOAD DUP1 SWAP2 SUB SWAP1 RETURN JUMPDEST CALLVALUE DUP1 ISZERO PUSH2 0x5FC JUMPI PUSH1 0x0 DUP1 REVERT JUMPDEST POP PUSH2 0x3CD PUSH1 0x4 DUP1 CALLDATASIZE SUB PUSH1 0x20 DUP2 LT ISZERO PUSH2 0x613 JUMPI PUSH1 0x0 DUP1 REVERT JUMPDEST POP CALLDATALOAD PUSH2 0x192F JUMP JUMPDEST CALLVALUE DUP1 ISZERO PUSH2 0x626 JUMPI PUSH1 0x0 DUP1 REVERT JUMPDEST POP PUSH2 0x372 PUSH1 0x4 DUP1 CALLDATASIZE SUB PUSH1 0x20 DUP2 LT ISZERO PUSH2 0x63D JUMPI PUSH1 0x0 DUP1 REVERT JUMPDEST POP CALLDATALOAD PUSH2 0x1CC6 JUMP JUMPDEST CALLVALUE DUP1 ISZERO PUSH2 0x650 JUMPI PUSH1 0x0 DUP1 REVERT JUMPDEST POP PUSH2 0x6BF PUSH1 0x4 DUP1 CALLDATASIZE SUB PUSH1 0x20 DUP2 LT ISZERO PUSH2 0x667 JUMPI PUSH1 0x0 DUP1 REVERT JUMPDEST DUP2 ADD SWAP1 PUSH1 0x20 DUP2 ADD DUP2 CALLDATALOAD PUSH1 0x1 PUSH1 0x20 SHL DUP2 GT ISZERO PUSH2 0x681 JUMPI PUSH1 0x0 DUP1 REVERT JUMPDEST DUP3 ADD DUP4 PUSH1 0x20 DUP3 ADD GT ISZERO PUSH2 0x693 JUMPI PUSH1 0x0 DUP1 REVERT JUMPDEST DUP1 CALLDATALOAD SWAP1 PUSH1 0x20 ADD SWAP2 DUP5 PUSH1 0x1 DUP4 MUL DUP5 ADD GT PUSH1 0x1 PUSH1 0x20 SHL DUP4 GT OR ISZERO PUSH2 0x6B4 JUMPI PUSH1 0x0 DUP1 REVERT JUMPDEST POP SWAP1 SWAP3 POP SWAP1 POP PUSH2 0x1CDB JUMP JUMPDEST PUSH1 0x40 DUP1 MLOAD PUSH1 0x1 PUSH1 0x1 PUSH1 0xA0 SHL SUB SWAP1 SWAP3 AND DUP3 MSTORE MLOAD SWAP1 DUP2 SWAP1 SUB PUSH1 0x20 ADD SWAP1 RETURN JUMPDEST CALLVALUE DUP1 ISZERO PUSH2 0x6E7 JUMPI PUSH1 0x0 DUP1 REVERT JUMPDEST POP PUSH2 0x714 PUSH1 0x4 DUP1 CALLDATASIZE SUB PUSH1 0x40 DUP2 LT ISZERO PUSH2 0x6FE JUMPI PUSH1 0x0 DUP1 REVERT JUMPDEST POP PUSH1 0x1 PUSH1 0x1 PUSH1 0xA0 SHL SUB DUP2 CALLDATALOAD AND SWAP1 PUSH1 0x20 ADD CALLDATALOAD PUSH2 0x1D15 JUMP JUMPDEST STOP JUMPDEST CALLVALUE DUP1 ISZERO PUSH2 0x722 JUMPI PUSH1 0x0 DUP1 REVERT JUMPDEST POP PUSH2 0x714 PUSH1 0x4 DUP1 CALLDATASIZE SUB PUSH1 0xA0 DUP2 LT ISZERO PUSH2 0x739 JUMPI PUSH1 0x0 DUP1 REVERT JUMPDEST PUSH1 0x1 PUSH1 0x1 PUSH1 0xA0 SHL SUB DUP3 CALLDATALOAD DUP2 AND SWAP3 PUSH1 0x20 DUP2 ADD CALLDATALOAD SWAP1 SWAP2 AND SWAP2 DUP2 ADD SWAP1 PUSH1 0x60 DUP2 ADD PUSH1 0x40 DUP3 ADD CALLDATALOAD PUSH1 0x1 PUSH1 0x20 SHL DUP2 GT ISZERO PUSH2 0x76C JUMPI PUSH1 0x0 DUP1 REVERT JUMPDEST DUP3 ADD DUP4 PUSH1 0x20 DUP3 ADD GT ISZERO PUSH2 0x77E JUMPI PUSH1 0x0 DUP1 REVERT JUMPDEST DUP1 CALLDATALOAD SWAP1 PUSH1 0x20 ADD SWAP2 DUP5 PUSH1 0x20 DUP4 MUL DUP5 ADD GT PUSH1 0x1 PUSH1 0x20 SHL DUP4 GT OR ISZERO PUSH2 0x79F JUMPI PUSH1 0x0 DUP1 REVERT JUMPDEST SWAP2 SWAP1 DUP1 DUP1 PUSH1 0x20 MUL PUSH1 0x20 ADD PUSH1 0x40 MLOAD SWAP1 DUP2 ADD PUSH1 0x40 MSTORE DUP1 SWAP4 SWAP3 SWAP2 SWAP1 DUP2 DUP2 MSTORE PUSH1 0x20 ADD DUP4 DUP4 PUSH1 0x20 MUL DUP1 DUP3 DUP5 CALLDATACOPY PUSH1 0x0 SWAP3 ADD SWAP2 SWAP1 SWAP2 MSTORE POP SWAP3 SWAP6 SWAP5 SWAP4 PUSH1 0x20 DUP2 ADD SWAP4 POP CALLDATALOAD SWAP2 POP POP PUSH1 0x1 PUSH1 0x20 SHL DUP2 GT ISZERO PUSH2 0x7EE JUMPI PUSH1 0x0 DUP1 REVERT JUMPDEST DUP3 ADD DUP4 PUSH1 0x20 DUP3 ADD GT ISZERO PUSH2 0x800 JUMPI PUSH1 0x0 DUP1 REVERT JUMPDEST DUP1 CALLDATALOAD SWAP1 PUSH1 0x20 ADD SWAP2 DUP5 PUSH1 0x20 DUP4 MUL DUP5 ADD GT PUSH1 0x1 PUSH1 0x20 SHL DUP4 GT OR ISZERO PUSH2 0x821 JUMPI PUSH1 0x0 DUP1 REVERT JUMPDEST SWAP2 SWAP1 DUP1 DUP1 PUSH1 0x20 MUL PUSH1 0x20 ADD PUSH1 0x40 MLOAD SWAP1 DUP2 ADD PUSH1 0x40 MSTORE DUP1 SWAP4 SWAP3 SWAP2 SWAP1 DUP2 DUP2 MSTORE PUSH1 0x20 ADD DUP4 DUP4 PUSH1 0x20 MUL DUP1 DUP3 DUP5 CALLDATACOPY PUSH1 0x0 SWAP3 ADD SWAP2 SWAP1 SWAP2 MSTORE POP SWAP3 SWAP6 SWAP5 SWAP4 PUSH1 0x20 DUP2 ADD SWAP4 POP CALLDATALOAD SWAP2 POP POP PUSH1 0x1 PUSH1 0x20 SHL DUP2 GT ISZERO PUSH2 0x870 JUMPI PUSH1 0x0 DUP1 REVERT JUMPDEST DUP3 ADD DUP4 PUSH1 0x20 DUP3 ADD GT ISZERO PUSH2 0x882 JUMPI PUSH1 0x0 DUP1 REVERT JUMPDEST DUP1 CALLDATALOAD SWAP1 PUSH1 0x20 ADD SWAP2 DUP5 PUSH1 0x1 DUP4 MUL DUP5 ADD GT PUSH1 0x1 PUSH1 0x20 SHL DUP4 GT OR ISZERO PUSH2 0x8A3 JUMPI PUSH1 0x0 DUP1 REVERT JUMPDEST SWAP2 SWAP1 DUP1 DUP1 PUSH1 0x1F ADD PUSH1 0x20 DUP1 SWAP2 DIV MUL PUSH1 0x20 ADD PUSH1 0x40 MLOAD SWAP1 DUP2 ADD PUSH1 0x40 MSTORE DUP1 SWAP4 SWAP3 SWAP2 SWAP1 DUP2 DUP2 MSTORE PUSH1 0x20 ADD DUP4 DUP4 DUP1 DUP3 DUP5 CALLDATACOPY PUSH1 0x0 SWAP3 ADD SWAP2 SWAP1 SWAP2 MSTORE POP SWAP3 SWAP6 POP PUSH2 0x1D2A SWAP5 POP POP POP POP POP JUMP JUMPDEST CALLVALUE DUP1 ISZERO PUSH2 0x8F0 JUMPI PUSH1 0x0 DUP1 REVERT JUMPDEST POP PUSH2 0x90E PUSH1 0x4 DUP1 CALLDATASIZE SUB PUSH1 0x20 DUP2 LT ISZERO PUSH2 0x907 JUMPI PUSH1 0x0 DUP1 REVERT JUMPDEST POP CALLDATALOAD PUSH2 0x202D JUMP JUMPDEST PUSH1 0x40 MLOAD DUP1 DUP7 ISZERO ISZERO DUP2 MSTORE PUSH1 0x20 ADD DUP1 PUSH1 0x20 ADD DUP6 DUP2 MSTORE PUSH1 0x20 ADD DUP5 DUP2 MSTORE PUSH1 0x20 ADD DUP4 DUP2 MSTORE PUSH1 0x20 ADD DUP3 DUP2 SUB DUP3 MSTORE DUP7 DUP2 DUP2 MLOAD DUP2 MSTORE PUSH1 0x20 ADD SWAP2 POP DUP1 MLOAD SWAP1 PUSH1 0x20 ADD SWAP1 DUP1 DUP4 DUP4 PUSH1 0x0 DUP4 DUP2 LT ISZERO PUSH2 0x5B1 JUMPI DUP2 DUP2 ADD MLOAD DUP4 DUP3 ADD MSTORE PUSH1 0x20 ADD PUSH2 0x599 JUMP JUMPDEST CALLVALUE DUP1 ISZERO PUSH2 0x970 JUMPI PUSH1 0x0 DUP1 REVERT JUMPDEST POP PUSH2 0x714 PUSH1 0x4 DUP1 CALLDATASIZE SUB PUSH1 0x40 DUP2 LT ISZERO PUSH2 0x987 JUMPI PUSH1 0x0 DUP1 REVERT JUMPDEST POP DUP1 CALLDATALOAD SWAP1 PUSH1 0x20 ADD CALLDATALOAD PUSH1 0x1 PUSH1 0x1 PUSH1 0xA0 SHL SUB AND PUSH2 0x212F JUMP JUMPDEST CALLVALUE DUP1 ISZERO PUSH2 0x9A9 JUMPI PUSH1 0x0 DUP1 REVERT JUMPDEST POP PUSH2 0x714 PUSH1 0x4 DUP1 CALLDATASIZE SUB PUSH1 0x40 DUP2 LT ISZERO PUSH2 0x9C0 JUMPI PUSH1 0x0 DUP1 REVERT JUMPDEST POP DUP1 CALLDATALOAD SWAP1 PUSH1 0x20 ADD CALLDATALOAD PUSH1 0x1 PUSH1 0x1 PUSH1 0xA0 SHL SUB AND PUSH2 0x219B JUMP JUMPDEST CALLVALUE DUP1 ISZERO PUSH2 0x9E2 JUMPI PUSH1 0x0 DUP1 REVERT JUMPDEST POP PUSH2 0x372 PUSH2 0x21FC JUMP JUMPDEST CALLVALUE DUP1 ISZERO PUSH2 0x9F7 JUMPI PUSH1 0x0 DUP1 REVERT JUMPDEST POP PUSH2 0xA15 PUSH1 0x4 DUP1 CALLDATASIZE SUB PUSH1 0x20 DUP2 LT ISZERO PUSH2 0xA0E JUMPI PUSH1 0x0 DUP1 REVERT JUMPDEST POP CALLDATALOAD PUSH2 0x2202 JUMP JUMPDEST PUSH1 0x40 MLOAD DUP1 DUP1 PUSH1 0x20 ADD DUP6 DUP2 MSTORE PUSH1 0x20 ADD DUP5 DUP2 MSTORE PUSH1 0x20 ADD DUP4 PUSH1 0xFF AND DUP2 MSTORE PUSH1 0x20 ADD DUP3 DUP2 SUB DUP3 MSTORE DUP7 DUP2 DUP2 MLOAD DUP2 MSTORE PUSH1 0x20 ADD SWAP2 POP DUP1 MLOAD SWAP1 PUSH1 0x20 ADD SWAP1 DUP1 DUP4 DUP4 PUSH1 0x0 JUMPDEST DUP4 DUP2 LT ISZERO PUSH2 0xA67 JUMPI DUP2 DUP2 ADD MLOAD DUP4 DUP3 ADD MSTORE PUSH1 0x20 ADD PUSH2 0xA4F JUMP JUMPDEST POP POP POP POP SWAP1 POP SWAP1 DUP2 ADD SWAP1 PUSH1 0x1F AND DUP1 ISZERO PUSH2 0xA94 JUMPI DUP1 DUP3 SUB DUP1 MLOAD PUSH1 0x1 DUP4 PUSH1 0x20 SUB PUSH2 0x100 EXP SUB NOT AND DUP2 MSTORE PUSH1 0x20 ADD SWAP2 POP JUMPDEST POP SWAP6 POP POP POP POP POP POP PUSH1 0x40 MLOAD DUP1 SWAP2 SUB SWAP1 RETURN JUMPDEST CALLVALUE DUP1 ISZERO PUSH2 0xAB1 JUMPI PUSH1 0x0 DUP1 REVERT JUMPDEST POP PUSH2 0xACF PUSH1 0x4 DUP1 CALLDATASIZE SUB PUSH1 0x20 DUP2 LT ISZERO PUSH2 0xAC8 JUMPI PUSH1 0x0 DUP1 REVERT JUMPDEST POP CALLDATALOAD PUSH2 0x22FF JUMP JUMPDEST PUSH1 0x40 DUP1 MLOAD PUSH1 0xFF SWAP6 DUP7 AND DUP2 MSTORE SWAP4 DUP6 AND PUSH1 0x20 DUP6 ADD MSTORE SWAP2 DUP5 AND DUP4 DUP4 ADD MSTORE SWAP1 SWAP3 AND PUSH1 0x60 DUP3 ADD MSTORE SWAP1 MLOAD SWAP1 DUP2 SWAP1 SUB PUSH1 0x80 ADD SWAP1 RETURN JUMPDEST PUSH2 0x372 PUSH1 0x4 DUP1 CALLDATASIZE SUB PUSH1 0x40 DUP2 LT ISZERO PUSH2 0xB13 JUMPI PUSH1 0x0 DUP1 REVERT JUMPDEST DUP2 CALLDATALOAD SWAP2 SWAP1 DUP2 ADD SWAP1 PUSH1 0x40 DUP2 ADD PUSH1 0x20 DUP3 ADD CALLDATALOAD PUSH1 0x1 PUSH1 0x20 SHL DUP2 GT ISZERO PUSH2 0xB34 JUMPI PUSH1 0x0 DUP1 REVERT JUMPDEST DUP3 ADD DUP4 PUSH1 0x20 DUP3 ADD GT ISZERO PUSH2 0xB46 JUMPI PUSH1 0x0 DUP1 REVERT JUMPDEST DUP1 CALLDATALOAD SWAP1 PUSH1 0x20 ADD SWAP2 DUP5 PUSH1 0x1 DUP4 MUL DUP5 ADD GT PUSH1 0x1 PUSH1 0x20 SHL DUP4 GT OR ISZERO PUSH2 0xB67 JUMPI PUSH1 0x0 DUP1 REVERT JUMPDEST POP SWAP1 SWAP3 POP SWAP1 POP PUSH2 0x2371 JUMP JUMPDEST CALLVALUE DUP1 ISZERO PUSH2 0xB7E JUMPI PUSH1 0x0 DUP1 REVERT JUMPDEST POP PUSH2 0xACF PUSH1 0x4 DUP1 CALLDATASIZE SUB PUSH1 0x20 DUP2 LT ISZERO PUSH2 0xB95 JUMPI PUSH1 0x0 DUP1 REVERT JUMPDEST POP CALLDATALOAD PUSH2 0x2B0B JUMP JUMPDEST CALLVALUE DUP1 ISZERO PUSH2 0xBA8 JUMPI PUSH1 0x0 DUP1 REVERT JUMPDEST POP PUSH2 0x372 PUSH2 0x2B7F JUMP JUMPDEST CALLVALUE DUP1 ISZERO PUSH2 0xBBD JUMPI PUSH1 0x0 DUP1 REVERT JUMPDEST POP PUSH2 0xCE1 PUSH1 0x4 DUP1 CALLDATASIZE SUB PUSH1 0x40 DUP2 LT ISZERO PUSH2 0xBD4 JUMPI PUSH1 0x0 DUP1 REVERT JUMPDEST DUP2 ADD SWAP1 PUSH1 0x20 DUP2 ADD DUP2 CALLDATALOAD PUSH1 0x1 PUSH1 0x20 SHL DUP2 GT ISZERO PUSH2 0xBEE JUMPI PUSH1 0x0 DUP1 REVERT JUMPDEST DUP3 ADD DUP4 PUSH1 0x20 DUP3 ADD GT ISZERO PUSH2 0xC00 JUMPI PUSH1 0x0 DUP1 REVERT JUMPDEST DUP1 CALLDATALOAD SWAP1 PUSH1 0x20 ADD SWAP2 DUP5 PUSH1 0x20 DUP4 MUL DUP5 ADD GT PUSH1 0x1 PUSH1 0x20 SHL DUP4 GT OR ISZERO PUSH2 0xC21 JUMPI PUSH1 0x0 DUP1 REVERT JUMPDEST SWAP2 SWAP1 DUP1 DUP1 PUSH1 0x20 MUL PUSH1 0x20 ADD PUSH1 0x40 MLOAD SWAP1 DUP2 ADD PUSH1 0x40 MSTORE DUP1 SWAP4 SWAP3 SWAP2 SWAP1 DUP2 DUP2 MSTORE PUSH1 0x20 ADD DUP4 DUP4 PUSH1 0x20 MUL DUP1 DUP3 DUP5 CALLDATACOPY PUSH1 0x0 SWAP3 ADD SWAP2 SWAP1 SWAP2 MSTORE POP SWAP3 SWAP6 SWAP5 SWAP4 PUSH1 0x20 DUP2 ADD SWAP4 POP CALLDATALOAD SWAP2 POP POP PUSH1 0x1 PUSH1 0x20 SHL DUP2 GT ISZERO PUSH2 0xC70 JUMPI PUSH1 0x0 DUP1 REVERT JUMPDEST DUP3 ADD DUP4 PUSH1 0x20 DUP3 ADD GT ISZERO PUSH2 0xC82 JUMPI PUSH1 0x0 DUP1 REVERT JUMPDEST DUP1 CALLDATALOAD SWAP1 PUSH1 0x20 ADD SWAP2 DUP5 PUSH1 0x20 DUP4 MUL DUP5 ADD GT PUSH1 0x1 PUSH1 0x20 SHL DUP4 GT OR ISZERO PUSH2 0xCA3 JUMPI PUSH1 0x0 DUP1 REVERT JUMPDEST SWAP2 SWAP1 DUP1 DUP1 PUSH1 0x20 MUL PUSH1 0x20 ADD PUSH1 0x40 MLOAD SWAP1 DUP2 ADD PUSH1 0x40 MSTORE DUP1 SWAP4 SWAP3 SWAP2 SWAP1 DUP2 DUP2 MSTORE PUSH1 0x20 ADD DUP4 DUP4 PUSH1 0x20 MUL DUP1 DUP3 DUP5 CALLDATACOPY PUSH1 0x0 SWAP3 ADD SWAP2 SWAP1 SWAP2 MSTORE POP SWAP3 SWAP6 POP PUSH2 0x2B86 SWAP5 POP POP POP POP POP JUMP JUMPDEST PUSH1 0x40 DUP1 MLOAD PUSH1 0x20 DUP1 DUP3 MSTORE DUP4 MLOAD DUP2 DUP4 ADD MSTORE DUP4 MLOAD SWAP2 SWAP3 DUP4 SWAP3 SWAP1 DUP4 ADD SWAP2 DUP6 DUP2 ADD SWAP2 MUL DUP1 DUP4 DUP4 PUSH1 0x0 JUMPDEST DUP4 DUP2 LT ISZERO PUSH2 0xD1D JUMPI DUP2 DUP2 ADD MLOAD DUP4 DUP3 ADD MSTORE PUSH1 0x20 ADD PUSH2 0xD05 JUMP JUMPDEST POP POP POP POP SWAP1 POP ADD SWAP3 POP POP POP PUSH1 0x40 MLOAD DUP1 SWAP2 SUB SWAP1 RETURN JUMPDEST CALLVALUE DUP1 ISZERO PUSH2 0xD3D JUMPI PUSH1 0x0 DUP1 REVERT JUMPDEST POP PUSH2 0x6BF PUSH1 0x4 DUP1 CALLDATASIZE SUB PUSH1 0x20 DUP2 LT ISZERO PUSH2 0xD54 JUMPI PUSH1 0x0 DUP1 REVERT JUMPDEST POP CALLDATALOAD PUSH2 0x2C72 JUMP JUMPDEST CALLVALUE DUP1 ISZERO PUSH2 0xD67 JUMPI PUSH1 0x0 DUP1 REVERT JUMPDEST POP PUSH2 0x372 PUSH1 0x4 DUP1 CALLDATASIZE SUB PUSH1 0x40 DUP2 LT ISZERO PUSH2 0xD7E JUMPI PUSH1 0x0 DUP1 REVERT JUMPDEST POP DUP1 CALLDATALOAD SWAP1 PUSH1 0x20 ADD CALLDATALOAD PUSH2 0x2CDB JUMP JUMPDEST CALLVALUE DUP1 ISZERO PUSH2 0xD97 JUMPI PUSH1 0x0 DUP1 REVERT JUMPDEST POP PUSH2 0x441 PUSH1 0x4 DUP1 CALLDATASIZE SUB PUSH1 0x20 DUP2 LT ISZERO PUSH2 0xDAE JUMPI PUSH1 0x0 DUP1 REVERT JUMPDEST POP CALLDATALOAD PUSH2 0x2D26 JUMP JUMPDEST CALLVALUE DUP1 ISZERO PUSH2 0xDC1 JUMPI PUSH1 0x0 DUP1 REVERT JUMPDEST POP PUSH2 0x6BF PUSH1 0x4 DUP1 CALLDATASIZE SUB PUSH1 0x20 DUP2 LT ISZERO PUSH2 0xDD8 JUMPI PUSH1 0x0 DUP1 REVERT JUMPDEST POP CALLDATALOAD PUSH2 0x2DC1 JUMP JUMPDEST CALLVALUE DUP1 ISZERO PUSH2 0xDEB JUMPI PUSH1 0x0 DUP1 REVERT JUMPDEST POP PUSH2 0x372 PUSH2 0x2E1C JUMP JUMPDEST CALLVALUE DUP1 ISZERO PUSH2 0xE00 JUMPI PUSH1 0x0 DUP1 REVERT JUMPDEST POP PUSH2 0xE1E PUSH1 0x4 DUP1 CALLDATASIZE SUB PUSH1 0x20 DUP2 LT ISZERO PUSH2 0xE17 JUMPI PUSH1 0x0 DUP1 REVERT JUMPDEST POP CALLDATALOAD PUSH2 0x2E22 JUMP JUMPDEST PUSH1 0x40 DUP1 MLOAD PUSH1 0xFF SWAP8 DUP9 AND DUP2 MSTORE SWAP6 DUP8 AND PUSH1 0x20 DUP8 ADD MSTORE SWAP4 DUP7 AND DUP6 DUP6 ADD MSTORE SWAP2 DUP6 AND PUSH1 0x60 DUP6 ADD MSTORE DUP5 AND PUSH1 0x80 DUP5 ADD MSTORE SWAP1 SWAP3 AND PUSH1 0xA0 DUP3 ADD MSTORE SWAP1 MLOAD SWAP1 DUP2 SWAP1 SUB PUSH1 0xC0 ADD SWAP1 RETURN JUMPDEST CALLVALUE DUP1 ISZERO PUSH2 0xE67 JUMPI PUSH1 0x0 DUP1 REVERT JUMPDEST POP PUSH2 0xACF PUSH1 0x4 DUP1 CALLDATASIZE SUB PUSH1 0x20 DUP2 LT ISZERO PUSH2 0xE7E JUMPI PUSH1 0x0 DUP1 REVERT JUMPDEST POP CALLDATALOAD PUSH2 0x2EAE JUMP JUMPDEST CALLVALUE DUP1 ISZERO PUSH2 0xE91 JUMPI PUSH1 0x0 DUP1 REVERT JUMPDEST POP PUSH2 0x372 PUSH2 0x2F1D JUMP JUMPDEST CALLVALUE DUP1 ISZERO PUSH2 0xEA6 JUMPI PUSH1 0x0 DUP1 REVERT JUMPDEST POP PUSH2 0x6BF PUSH1 0x4 DUP1 CALLDATASIZE SUB PUSH1 0x40 DUP2 LT ISZERO PUSH2 0xEBD JUMPI PUSH1 0x0 DUP1 REVERT JUMPDEST POP DUP1 CALLDATALOAD SWAP1 PUSH1 0x20 ADD CALLDATALOAD PUSH2 0x2F23 JUMP JUMPDEST CALLVALUE DUP1 ISZERO PUSH2 0xED6 JUMPI PUSH1 0x0 DUP1 REVERT JUMPDEST POP PUSH2 0x372 PUSH2 0x2F42 JUMP JUMPDEST CALLVALUE DUP1 ISZERO PUSH2 0xEEB JUMPI PUSH1 0x0 DUP1 REVERT JUMPDEST POP PUSH2 0x3CD PUSH1 0x4 DUP1 CALLDATASIZE SUB PUSH1 0x40 DUP2 LT ISZERO PUSH2 0xF02 JUMPI PUSH1 0x0 DUP1 REVERT JUMPDEST POP DUP1 CALLDATALOAD SWAP1 PUSH1 0x20 ADD CALLDATALOAD PUSH1 0x1 PUSH1 0x1 PUSH1 0xA0 SHL SUB AND PUSH2 0x2F47 JUMP JUMPDEST CALLVALUE DUP1 ISZERO PUSH2 0xF24 JUMPI PUSH1 0x0 DUP1 REVERT JUMPDEST POP PUSH2 0x714 PUSH1 0x4 DUP1 CALLDATASIZE SUB PUSH1 0x40 DUP2 LT ISZERO PUSH2 0xF3B JUMPI PUSH1 0x0 DUP1 REVERT JUMPDEST POP DUP1 CALLDATALOAD SWAP1 PUSH1 0x20 ADD CALLDATALOAD PUSH2 0x2F5F JUMP JUMPDEST CALLVALUE DUP1 ISZERO PUSH2 0xF54 JUMPI PUSH1 0x0 DUP1 REVERT JUMPDEST POP PUSH2 0x714 PUSH1 0x4 DUP1 CALLDATASIZE SUB PUSH1 0x40 DUP2 LT ISZERO PUSH2 0xF6B JUMPI PUSH1 0x0 DUP1 REVERT JUMPDEST DUP2 ADD SWAP1 PUSH1 0x20 DUP2 ADD DUP2 CALLDATALOAD PUSH1 0x1 PUSH1 0x20 SHL DUP2 GT ISZERO PUSH2 0xF85 JUMPI PUSH1 0x0 DUP1 REVERT JUMPDEST DUP3 ADD DUP4 PUSH1 0x20 DUP3 ADD GT ISZERO PUSH2 0xF97 JUMPI PUSH1 0x0 DUP1 REVERT JUMPDEST DUP1 CALLDATALOAD SWAP1 PUSH1 0x20 ADD SWAP2 DUP5 PUSH1 0x1 DUP4 MUL DUP5 ADD GT PUSH1 0x1 PUSH1 0x20 SHL DUP4 GT OR ISZERO PUSH2 0xFB8 JUMPI PUSH1 0x0 DUP1 REVERT JUMPDEST SWAP2 SWAP4 POP SWAP2 POP CALLDATALOAD PUSH1 0x1 PUSH1 0x1 PUSH1 0xA0 SHL SUB AND PUSH2 0x2FE6 JUMP JUMPDEST CALLVALUE DUP1 ISZERO PUSH2 0xFD8 JUMPI PUSH1 0x0 DUP1 REVERT JUMPDEST POP PUSH2 0x714 PUSH1 0x4 DUP1 CALLDATASIZE SUB PUSH1 0x20 DUP2 LT ISZERO PUSH2 0xFEF JUMPI PUSH1 0x0 DUP1 REVERT JUMPDEST DUP2 ADD SWAP1 PUSH1 0x20 DUP2 ADD DUP2 CALLDATALOAD PUSH1 0x1 PUSH1 0x20 SHL DUP2 GT ISZERO PUSH2 0x1009 JUMPI PUSH1 0x0 DUP1 REVERT JUMPDEST DUP3 ADD DUP4 PUSH1 0x20 DUP3 ADD GT ISZERO PUSH2 0x101B JUMPI PUSH1 0x0 DUP1 REVERT JUMPDEST DUP1 CALLDATALOAD SWAP1 PUSH1 0x20 ADD SWAP2 DUP5 PUSH1 0x1 DUP4 MUL DUP5 ADD GT PUSH1 0x1 PUSH1 0x20 SHL DUP4 GT OR ISZERO PUSH2 0x103C JUMPI PUSH1 0x0 DUP1 REVERT JUMPDEST POP SWAP1 SWAP3 POP SWAP1 POP PUSH2 0x3088 JUMP JUMPDEST CALLVALUE DUP1 ISZERO PUSH2 0x1053 JUMPI PUSH1 0x0 DUP1 REVERT JUMPDEST POP PUSH2 0x714 PUSH2 0x30EB JUMP JUMPDEST CALLVALUE DUP1 ISZERO PUSH2 0x1068 JUMPI PUSH1 0x0 DUP1 REVERT JUMPDEST POP PUSH2 0x372 PUSH2 0x315A JUMP JUMPDEST CALLVALUE DUP1 ISZERO PUSH2 0x107D JUMPI PUSH1 0x0 DUP1 REVERT JUMPDEST POP PUSH2 0x714 PUSH1 0x4 DUP1 CALLDATASIZE SUB PUSH1 0x40 DUP2 LT ISZERO PUSH2 0x1094 JUMPI PUSH1 0x0 DUP1 REVERT JUMPDEST POP PUSH1 0x1 PUSH1 0x1 PUSH1 0xA0 SHL SUB DUP2 CALLDATALOAD AND SWAP1 PUSH1 0x20 ADD CALLDATALOAD ISZERO ISZERO PUSH2 0x315F JUMP JUMPDEST CALLVALUE DUP1 ISZERO PUSH2 0x10B8 JUMPI PUSH1 0x0 DUP1 REVERT JUMPDEST POP PUSH2 0x714 PUSH1 0x4 DUP1 CALLDATASIZE SUB PUSH1 0x20 DUP2 LT ISZERO PUSH2 0x10CF JUMPI PUSH1 0x0 DUP1 REVERT JUMPDEST POP CALLDATALOAD PUSH2 0x324E JUMP JUMPDEST CALLVALUE DUP1 ISZERO PUSH2 0x10E2 JUMPI PUSH1 0x0 DUP1 REVERT JUMPDEST POP PUSH2 0x714 PUSH1 0x4 DUP1 CALLDATASIZE SUB PUSH1 0x60 DUP2 LT ISZERO PUSH2 0x10F9 JUMPI PUSH1 0x0 DUP1 REVERT JUMPDEST POP PUSH1 0x1 PUSH1 0x1 PUSH1 0xA0 SHL SUB DUP2 CALLDATALOAD DUP2 AND SWAP2 PUSH1 0x20 DUP2 ADD CALLDATALOAD SWAP1 SWAP2 AND SWAP1 PUSH1 0x40 ADD CALLDATALOAD PUSH2 0x34C5 JUMP JUMPDEST CALLVALUE DUP1 ISZERO PUSH2 0x1125 JUMPI PUSH1 0x0 DUP1 REVERT JUMPDEST POP PUSH2 0x372 PUSH2 0x34D5 JUMP JUMPDEST CALLVALUE DUP1 ISZERO PUSH2 0x113A JUMPI PUSH1 0x0 DUP1 REVERT JUMPDEST POP PUSH2 0x714 PUSH1 0x4 DUP1 CALLDATASIZE SUB PUSH1 0x20 DUP2 LT ISZERO PUSH2 0x1151 JUMPI PUSH1 0x0 DUP1 REVERT JUMPDEST POP CALLDATALOAD PUSH1 0xFF AND PUSH2 0x34DB JUMP JUMPDEST CALLVALUE DUP1 ISZERO PUSH2 0x1167 JUMPI PUSH1 0x0 DUP1 REVERT JUMPDEST POP PUSH2 0x372 PUSH1 0x4 DUP1 CALLDATASIZE SUB PUSH1 0x20 DUP2 LT ISZERO PUSH2 0x117E JUMPI PUSH1 0x0 DUP1 REVERT JUMPDEST POP CALLDATALOAD PUSH2 0x3512 JUMP JUMPDEST CALLVALUE DUP1 ISZERO PUSH2 0x1191 JUMPI PUSH1 0x0 DUP1 REVERT JUMPDEST POP PUSH2 0x372 PUSH2 0x3529 JUMP JUMPDEST CALLVALUE DUP1 ISZERO PUSH2 0x11A6 JUMPI PUSH1 0x0 DUP1 REVERT JUMPDEST POP PUSH2 0x714 PUSH1 0x4 DUP1 CALLDATASIZE SUB PUSH1 0x20 DUP2 LT ISZERO PUSH2 0x11BD JUMPI PUSH1 0x0 DUP1 REVERT JUMPDEST POP CALLDATALOAD PUSH2 0x352F JUMP JUMPDEST CALLVALUE DUP1 ISZERO PUSH2 0x11D0 JUMPI PUSH1 0x0 DUP1 REVERT JUMPDEST POP PUSH2 0x714 PUSH1 0x4 DUP1 CALLDATASIZE SUB PUSH1 0x20 DUP2 LT ISZERO PUSH2 0x11E7 JUMPI PUSH1 0x0 DUP1 REVERT JUMPDEST POP CALLDATALOAD PUSH2 0x3550 JUMP JUMPDEST CALLVALUE DUP1 ISZERO PUSH2 0x11FA JUMPI PUSH1 0x0 DUP1 REVERT JUMPDEST POP PUSH2 0x714 PUSH1 0x4 DUP1 CALLDATASIZE SUB PUSH1 0x40 DUP2 LT ISZERO PUSH2 0x1211 JUMPI PUSH1 0x0 DUP1 REVERT JUMPDEST POP DUP1 CALLDATALOAD SWAP1 PUSH1 0x20 ADD CALLDATALOAD PUSH1 0x1 PUSH1 0x1 PUSH1 0xA0 SHL SUB AND PUSH2 0x3571 JUMP JUMPDEST CALLVALUE DUP1 ISZERO PUSH2 0x1233 JUMPI PUSH1 0x0 DUP1 REVERT JUMPDEST POP PUSH2 0x372 PUSH2 0x35CA JUMP JUMPDEST CALLVALUE DUP1 ISZERO PUSH2 0x1248 JUMPI PUSH1 0x0 DUP1 REVERT JUMPDEST POP PUSH2 0x714 PUSH1 0x4 DUP1 CALLDATASIZE SUB PUSH1 0x20 DUP2 LT ISZERO PUSH2 0x125F JUMPI PUSH1 0x0 DUP1 REVERT JUMPDEST POP CALLDATALOAD PUSH2 0x35D0 JUMP JUMPDEST CALLVALUE DUP1 ISZERO PUSH2 0x1272 JUMPI PUSH1 0x0 DUP1 REVERT JUMPDEST POP PUSH2 0x441 PUSH1 0x4 DUP1 CALLDATASIZE SUB PUSH1 0x20 DUP2 LT ISZERO PUSH2 0x1289 JUMPI PUSH1 0x0 DUP1 REVERT JUMPDEST POP CALLDATALOAD PUSH2 0x35EC JUMP JUMPDEST CALLVALUE DUP1 ISZERO PUSH2 0x129C JUMPI PUSH1 0x0 DUP1 REVERT JUMPDEST POP PUSH2 0x3CD PUSH1 0x4 DUP1 CALLDATASIZE SUB PUSH1 0x40 DUP2 LT ISZERO PUSH2 0x12B3 JUMPI PUSH1 0x0 DUP1 REVERT JUMPDEST POP PUSH1 0x1 PUSH1 0x1 PUSH1 0xA0 SHL SUB DUP2 CALLDATALOAD DUP2 AND SWAP2 PUSH1 0x20 ADD CALLDATALOAD AND PUSH2 0x365F JUMP JUMPDEST CALLVALUE DUP1 ISZERO PUSH2 0x12D7 JUMPI PUSH1 0x0 DUP1 REVERT JUMPDEST POP PUSH2 0x714 PUSH1 0x4 DUP1 CALLDATASIZE SUB PUSH1 0xA0 DUP2 LT ISZERO PUSH2 0x12EE JUMPI PUSH1 0x0 DUP1 REVERT JUMPDEST PUSH1 0x1 PUSH1 0x1 PUSH1 0xA0 SHL SUB DUP3 CALLDATALOAD DUP2 AND SWAP3 PUSH1 0x20 DUP2 ADD CALLDATALOAD SWAP1 SWAP2 AND SWAP2 PUSH1 0x40 DUP3 ADD CALLDATALOAD SWAP2 PUSH1 0x60 DUP2 ADD CALLDATALOAD SWAP2 DUP2 ADD SWAP1 PUSH1 0xA0 DUP2 ADD PUSH1 0x80 DUP3 ADD CALLDATALOAD PUSH1 0x1 PUSH1 0x20 SHL DUP2 GT ISZERO PUSH2 0x132D JUMPI PUSH1 0x0 DUP1 REVERT JUMPDEST DUP3 ADD DUP4 PUSH1 0x20 DUP3 ADD GT ISZERO PUSH2 0x133F JUMPI PUSH1 0x0 DUP1 REVERT JUMPDEST DUP1 CALLDATALOAD SWAP1 PUSH1 0x20 ADD SWAP2 DUP5 PUSH1 0x1 DUP4 MUL DUP5 ADD GT PUSH1 0x1 PUSH1 0x20 SHL DUP4 GT OR ISZERO PUSH2 0x1360 JUMPI PUSH1 0x0 DUP1 REVERT JUMPDEST SWAP2 SWAP1 DUP1 DUP1 PUSH1 0x1F ADD PUSH1 0x20 DUP1 SWAP2 DIV MUL PUSH1 0x20 ADD PUSH1 0x40 MLOAD SWAP1 DUP2 ADD PUSH1 0x40 MSTORE DUP1 SWAP4 SWAP3 SWAP2 SWAP1 DUP2 DUP2 MSTORE PUSH1 0x20 ADD DUP4 DUP4 DUP1 DUP3 DUP5 CALLDATACOPY PUSH1 0x0 SWAP3 ADD SWAP2 SWAP1 SWAP2 MSTORE POP SWAP3 SWAP6 POP PUSH2 0x368D SWAP5 POP POP POP POP POP JUMP JUMPDEST CALLVALUE DUP1 ISZERO PUSH2 0x13AD JUMPI PUSH1 0x0 DUP1 REVERT JUMPDEST POP PUSH2 0x372 PUSH1 0x4 DUP1 CALLDATASIZE SUB PUSH1 0x40 DUP2 LT ISZERO PUSH2 0x13C4 JUMPI PUSH1 0x0 DUP1 REVERT JUMPDEST POP DUP1 CALLDATALOAD SWAP1 PUSH1 0x20 ADD CALLDATALOAD PUSH2 0x3858 JUMP JUMPDEST PUSH1 0x0 PUSH1 0x1 PUSH1 0x1 PUSH1 0xA0 SHL SUB DUP4 AND PUSH2 0x1418 JUMPI PUSH1 0x40 MLOAD PUSH3 0x461BCD PUSH1 0xE5 SHL DUP2 MSTORE PUSH1 0x4 ADD DUP1 DUP1 PUSH1 0x20 ADD DUP3 DUP2 SUB DUP3 MSTORE PUSH1 0x2B DUP2 MSTORE PUSH1 0x20 ADD DUP1 PUSH2 0x5923 PUSH1 0x2B SWAP2 CODECOPY PUSH1 0x40 ADD SWAP2 POP POP PUSH1 0x40 MLOAD DUP1 SWAP2 SUB SWAP1 REVERT JUMPDEST POP PUSH1 0x0 DUP2 DUP2 MSTORE PUSH1 0x2 PUSH1 0x20 SWAP1 DUP2 MSTORE PUSH1 0x40 DUP1 DUP4 KECCAK256 PUSH1 0x1 PUSH1 0x1 PUSH1 0xA0 SHL SUB DUP7 AND DUP5 MSTORE SWAP1 SWAP2 MSTORE SWAP1 KECCAK256 SLOAD JUMPDEST SWAP3 SWAP2 POP POP JUMP JUMPDEST PUSH1 0x9 SLOAD DUP2 JUMP JUMPDEST PUSH1 0x1 PUSH1 0x1 PUSH1 0xE0 SHL SUB NOT DUP2 AND PUSH1 0x0 SWAP1 DUP2 MSTORE PUSH1 0x1 PUSH1 0x20 MSTORE PUSH1 0x40 SWAP1 KECCAK256 SLOAD PUSH1 0xFF AND JUMPDEST SWAP2 SWAP1 POP JUMP JUMPDEST PUSH1 0x6 SLOAD PUSH1 0xFF AND DUP2 JUMP JUMPDEST PUSH1 0x4 DUP1 SLOAD PUSH1 0x40 DUP1 MLOAD PUSH1 0x20 PUSH1 0x1F PUSH1 0x2 PUSH1 0x0 NOT PUSH2 0x100 PUSH1 0x1 DUP9 AND ISZERO MUL ADD SWAP1 SWAP6 AND SWAP5 SWAP1 SWAP5 DIV SWAP4 DUP5 ADD DUP2 SWAP1 DIV DUP2 MUL DUP3 ADD DUP2 ADD SWAP1 SWAP3 MSTORE DUP3 DUP2 MSTORE PUSH1 0x60 SWAP4 SWAP1 SWAP3 SWAP1 SWAP2 DUP4 ADD DUP3 DUP3 DUP1 ISZERO PUSH2 0x1501 JUMPI DUP1 PUSH1 0x1F LT PUSH2 0x14D6 JUMPI PUSH2 0x100 DUP1 DUP4 SLOAD DIV MUL DUP4 MSTORE SWAP2 PUSH1 0x20 ADD SWAP2 PUSH2 0x1501 JUMP JUMPDEST DUP3 ADD SWAP2 SWAP1 PUSH1 0x0 MSTORE PUSH1 0x20 PUSH1 0x0 KECCAK256 SWAP1 JUMPDEST DUP2 SLOAD DUP2 MSTORE SWAP1 PUSH1 0x1 ADD SWAP1 PUSH1 0x20 ADD DUP1 DUP4 GT PUSH2 0x14E4 JUMPI DUP3 SWAP1 SUB PUSH1 0x1F AND DUP3 ADD SWAP2 JUMPDEST POP POP POP POP POP SWAP1 POP SWAP2 SWAP1 POP JUMP JUMPDEST PUSH1 0x0 DUP1 DUP1 PUSH1 0x6 SLOAD PUSH1 0xFF AND PUSH1 0x1 DUP2 GT ISZERO PUSH2 0x1522 JUMPI INVALID JUMPDEST EQ PUSH2 0x152C JUMPI PUSH1 0x0 DUP1 REVERT JUMPDEST PUSH1 0x7 PUSH1 0xD SLOAD LT PUSH2 0x153B JUMPI PUSH1 0x0 DUP1 REVERT JUMPDEST PUSH1 0x14 SLOAD CALLVALUE LT ISZERO PUSH2 0x154A JUMPI PUSH1 0x0 DUP1 REVERT JUMPDEST PUSH1 0x0 PUSH1 0x1 PUSH1 0x1 PUSH1 0xA0 SHL SUB AND PUSH1 0x16 DUP6 DUP6 PUSH1 0x40 MLOAD DUP1 DUP4 DUP4 DUP1 DUP3 DUP5 CALLDATACOPY SWAP2 SWAP1 SWAP2 ADD SWAP5 DUP6 MSTORE POP POP PUSH1 0x40 MLOAD SWAP3 DUP4 SWAP1 SUB PUSH1 0x20 ADD SWAP1 SWAP3 KECCAK256 SLOAD PUSH1 0x1 PUSH1 0x1 PUSH1 0xA0 SHL SUB AND SWAP3 SWAP1 SWAP3 EQ ISZERO SWAP2 POP PUSH2 0x1595 SWAP1 POP JUMPI PUSH1 0x0 DUP1 REVERT JUMPDEST PUSH1 0xD SLOAD PUSH1 0x0 SWAP1 PUSH2 0x15A6 SWAP1 PUSH1 0x1 PUSH2 0x38E7 JUMP JUMPDEST PUSH1 0x0 DUP2 DUP2 MSTORE PUSH1 0xE PUSH1 0x20 MSTORE PUSH1 0x40 SWAP1 KECCAK256 SLOAD SWAP1 SWAP2 POP PUSH1 0x1 PUSH1 0x1 PUSH1 0xA0 SHL SUB AND ISZERO PUSH2 0x15C8 JUMPI INVALID JUMPDEST PUSH1 0x0 DUP2 DUP2 MSTORE PUSH1 0xF PUSH1 0x20 MSTORE PUSH1 0x40 SWAP1 KECCAK256 SLOAD PUSH1 0xFF AND ISZERO PUSH2 0x15E1 JUMPI INVALID JUMPDEST PUSH1 0x0 PUSH1 0x16 DUP7 DUP7 PUSH1 0x40 MLOAD DUP1 DUP4 DUP4 DUP1 DUP3 DUP5 CALLDATACOPY SWAP2 SWAP1 SWAP2 ADD SWAP5 DUP6 MSTORE POP POP PUSH1 0x40 DUP1 MLOAD SWAP4 DUP5 SWAP1 SUB PUSH1 0x20 ADD DUP5 KECCAK256 SLOAD PUSH4 0x3FABE5A3 PUSH1 0xE2 SHL DUP6 MSTORE SWAP1 MLOAD PUSH1 0x1 PUSH1 0x1 PUSH1 0xA0 SHL SUB SWAP1 SWAP2 AND SWAP4 PUSH4 0xFEAF968C SWAP4 POP PUSH1 0x4 DUP1 DUP3 ADD SWAP4 POP PUSH1 0xA0 SWAP3 SWAP2 DUP3 SWAP1 SUB ADD DUP2 DUP7 DUP1 EXTCODESIZE ISZERO DUP1 ISZERO PUSH2 0x1646 JUMPI PUSH1 0x0 DUP1 REVERT JUMPDEST POP GAS STATICCALL ISZERO DUP1 ISZERO PUSH2 0x165A JUMPI RETURNDATASIZE PUSH1 0x0 DUP1 RETURNDATACOPY RETURNDATASIZE PUSH1 0x0 REVERT JUMPDEST POP POP POP POP PUSH1 0x40 MLOAD RETURNDATASIZE PUSH1 0xA0 DUP2 LT ISZERO PUSH2 0x1670 JUMPI PUSH1 0x0 DUP1 REVERT JUMPDEST POP PUSH1 0x20 ADD MLOAD SWAP1 POP PUSH2 0x167F PUSH2 0x55BB JUMP JUMPDEST PUSH1 0x1 DUP2 MSTORE PUSH1 0x20 DUP1 DUP3 ADD DUP11 SWAP1 MSTORE PUSH1 0x40 DUP1 DUP4 ADD DUP11 SWAP1 MSTORE DUP1 MLOAD PUSH1 0x1F DUP10 ADD DUP4 SWAP1 DIV DUP4 MUL DUP2 ADD DUP4 ADD SWAP1 SWAP2 MSTORE DUP8 DUP2 MSTORE SWAP1 DUP9 SWAP1 DUP9 SWAP1 DUP2 SWAP1 DUP5 ADD DUP4 DUP3 DUP1 DUP3 DUP5 CALLDATACOPY PUSH1 0x0 SWAP3 ADD SWAP2 SWAP1 SWAP2 MSTORE POP POP POP POP PUSH1 0x60 DUP3 ADD MSTORE PUSH1 0x80 DUP2 ADD DUP3 SWAP1 MSTORE PUSH2 0x16F2 PUSH2 0x16DA PUSH2 0x3941 JUMP JUMPDEST DUP5 PUSH1 0x1 PUSH1 0x40 MLOAD DUP1 PUSH1 0x20 ADD PUSH1 0x40 MSTORE DUP1 PUSH1 0x0 DUP2 MSTORE POP PUSH2 0x3945 JUMP JUMPDEST PUSH2 0x16FA PUSH2 0x3941 JUMP JUMPDEST PUSH1 0x0 DUP5 DUP2 MSTORE PUSH1 0xE PUSH1 0x20 SWAP1 DUP2 MSTORE PUSH1 0x40 DUP1 DUP4 KECCAK256 DUP1 SLOAD PUSH1 0x1 PUSH1 0x1 PUSH1 0xA0 SHL SUB NOT AND PUSH1 0x1 PUSH1 0x1 PUSH1 0xA0 SHL SUB SWAP6 SWAP1 SWAP6 AND SWAP5 SWAP1 SWAP5 OR SWAP1 SWAP4 SSTORE PUSH1 0xF DUP2 MSTORE SWAP1 DUP3 SWAP1 KECCAK256 DUP4 MLOAD DUP2 SLOAD PUSH1 0xFF NOT AND SWAP1 ISZERO ISZERO OR DUP2 SSTORE DUP4 DUP3 ADD MLOAD PUSH1 0x1 DUP3 ADD SSTORE SWAP2 DUP4 ADD MLOAD PUSH1 0x2 DUP4 ADD SSTORE PUSH1 0x60 DUP4 ADD MLOAD DUP1 MLOAD DUP5 SWAP4 SWAP3 PUSH2 0x176D SWAP3 PUSH1 0x3 DUP6 ADD SWAP3 SWAP2 ADD SWAP1 PUSH2 0x55EC JUMP JUMPDEST POP PUSH1 0x80 SWAP2 SWAP1 SWAP2 ADD MLOAD PUSH1 0x4 SWAP1 SWAP2 ADD SSTORE PUSH1 0xD SLOAD PUSH2 0x1789 SWAP1 PUSH1 0x1 PUSH2 0x38E7 JUMP JUMPDEST PUSH1 0xD SSTORE PUSH1 0x14 SLOAD PUSH2 0x1798 SWAP1 PUSH2 0x3A4D JUMP JUMPDEST PUSH1 0x14 SLOAD PUSH1 0xB SLOAD PUSH2 0x17A7 SWAP2 PUSH2 0x38E7 JUMP JUMPDEST PUSH1 0xB SSTORE PUSH32 0x3560F0337E62819199860BA21B425B8BDE9A01FA6E514DD58AB6EDF7DAF1D1F1 DUP4 PUSH2 0x17D4 PUSH2 0x3941 JUMP JUMPDEST PUSH1 0x40 DUP1 MLOAD SWAP3 DUP4 MSTORE PUSH1 0x1 PUSH1 0x1 PUSH1 0xA0 SHL SUB SWAP1 SWAP2 AND PUSH1 0x20 DUP4 ADD MSTORE DUP1 MLOAD SWAP2 DUP3 SWAP1 SUB ADD SWAP1 LOG1 POP SWAP1 SWAP8 SWAP7 POP POP POP POP POP POP POP JUMP JUMPDEST PUSH1 0x0 DUP1 PUSH1 0x0 PUSH1 0x60 PUSH1 0x0 DUP6 PUSH1 0x0 DUP2 GT DUP1 ISZERO PUSH2 0x181C JUMPI POP PUSH1 0x7 DUP2 GT ISZERO JUMPDEST PUSH2 0x1825 JUMPI PUSH1 0x0 DUP1 REVERT JUMPDEST PUSH2 0x182D PUSH2 0x55BB JUMP JUMPDEST PUSH1 0x0 DUP9 DUP2 MSTORE PUSH1 0xF PUSH1 0x20 SWAP1 DUP2 MSTORE PUSH1 0x40 SWAP2 DUP3 SWAP1 KECCAK256 DUP3 MLOAD PUSH1 0xA0 DUP2 ADD DUP5 MSTORE DUP2 SLOAD PUSH1 0xFF AND ISZERO ISZERO DUP2 MSTORE PUSH1 0x1 DUP1 DUP4 ADD SLOAD DUP3 DUP6 ADD MSTORE PUSH1 0x2 DUP1 DUP5 ADD SLOAD DUP4 DUP8 ADD MSTORE PUSH1 0x3 DUP5 ADD DUP1 SLOAD DUP8 MLOAD PUSH2 0x100 SWAP5 DUP3 AND ISZERO SWAP5 SWAP1 SWAP5 MUL PUSH1 0x0 NOT ADD AND SWAP2 SWAP1 SWAP2 DIV PUSH1 0x1F DUP2 ADD DUP7 SWAP1 DIV DUP7 MUL DUP4 ADD DUP7 ADD SWAP1 SWAP7 MSTORE DUP6 DUP3 MSTORE SWAP2 SWAP5 SWAP3 SWAP4 PUSH1 0x60 DUP7 ADD SWAP4 SWAP2 SWAP3 SWAP2 SWAP1 DUP4 ADD DUP3 DUP3 DUP1 ISZERO PUSH2 0x18F1 JUMPI DUP1 PUSH1 0x1F LT PUSH2 0x18C6 JUMPI PUSH2 0x100 DUP1 DUP4 SLOAD DIV MUL DUP4 MSTORE SWAP2 PUSH1 0x20 ADD SWAP2 PUSH2 0x18F1 JUMP JUMPDEST DUP3 ADD SWAP2 SWAP1 PUSH1 0x0 MSTORE PUSH1 0x20 PUSH1 0x0 KECCAK256 SWAP1 JUMPDEST DUP2 SLOAD DUP2 MSTORE SWAP1 PUSH1 0x1 ADD SWAP1 PUSH1 0x20 ADD DUP1 DUP4 GT PUSH2 0x18D4 JUMPI DUP3 SWAP1 SUB PUSH1 0x1F AND DUP3 ADD SWAP2 JUMPDEST POP POP POP SWAP2 DUP4 MSTORE POP POP PUSH1 0x4 SWAP2 SWAP1 SWAP2 ADD SLOAD PUSH1 0x20 SWAP2 DUP3 ADD MSTORE DUP2 MLOAD SWAP1 DUP3 ADD MLOAD PUSH1 0x40 DUP4 ADD MLOAD PUSH1 0x60 DUP5 ADD MLOAD PUSH1 0x80 SWAP1 SWAP5 ADD MLOAD SWAP3 SWAP13 SWAP2 SWAP12 POP SWAP10 POP SWAP2 SWAP8 POP SWAP6 POP SWAP4 POP POP POP POP JUMP JUMPDEST PUSH1 0x0 PUSH2 0x1939 PUSH2 0x566A JUMP JUMPDEST PUSH1 0x0 DUP4 DUP2 MSTORE PUSH1 0x12 PUSH1 0x20 SWAP1 DUP2 MSTORE PUSH1 0x40 SWAP2 DUP3 SWAP1 KECCAK256 DUP3 MLOAD PUSH2 0x360 DUP2 ADD DUP5 MSTORE DUP2 SLOAD PUSH1 0xFF AND ISZERO ISZERO DUP2 MSTORE PUSH1 0x1 DUP1 DUP4 ADD DUP1 SLOAD DUP7 MLOAD PUSH1 0x2 PUSH2 0x100 SWAP5 DUP4 AND ISZERO SWAP5 SWAP1 SWAP5 MUL PUSH1 0x0 NOT ADD SWAP1 SWAP2 AND SWAP3 SWAP1 SWAP3 DIV PUSH1 0x1F DUP2 ADD DUP7 SWAP1 DIV DUP7 MUL DUP4 ADD DUP7 ADD SWAP1 SWAP7 MSTORE DUP6 DUP3 MSTORE SWAP2 SWAP5 SWAP3 SWAP4 DUP6 DUP2 ADD SWAP4 SWAP2 SWAP3 SWAP2 SWAP1 DUP4 ADD DUP3 DUP3 DUP1 ISZERO PUSH2 0x19EE JUMPI DUP1 PUSH1 0x1F LT PUSH2 0x19C3 JUMPI PUSH2 0x100 DUP1 DUP4 SLOAD DIV MUL DUP4 MSTORE SWAP2 PUSH1 0x20 ADD SWAP2 PUSH2 0x19EE JUMP JUMPDEST DUP3 ADD SWAP2 SWAP1 PUSH1 0x0 MSTORE PUSH1 0x20 PUSH1 0x0 KECCAK256 SWAP1 JUMPDEST DUP2 SLOAD DUP2 MSTORE SWAP1 PUSH1 0x1 ADD SWAP1 PUSH1 0x20 ADD DUP1 DUP4 GT PUSH2 0x19D1 JUMPI DUP3 SWAP1 SUB PUSH1 0x1F AND DUP3 ADD SWAP2 JUMPDEST POP POP POP SWAP2 DUP4 MSTORE POP POP PUSH1 0x2 DUP3 DUP2 ADD DUP1 SLOAD PUSH1 0x40 DUP1 MLOAD PUSH1 0x20 PUSH1 0x1 DUP5 AND ISZERO PUSH2 0x100 MUL PUSH1 0x0 NOT ADD SWAP1 SWAP4 AND SWAP5 SWAP1 SWAP5 DIV PUSH1 0x1F DUP2 ADD DUP4 SWAP1 DIV DUP4 MUL DUP6 ADD DUP4 ADD SWAP1 SWAP2 MSTORE DUP1 DUP5 MSTORE SWAP4 DUP2 ADD SWAP4 SWAP1 DUP4 ADD DUP3 DUP3 DUP1 ISZERO PUSH2 0x1A80 JUMPI DUP1 PUSH1 0x1F LT PUSH2 0x1A55 JUMPI PUSH2 0x100 DUP1 DUP4 SLOAD DIV MUL DUP4 MSTORE SWAP2 PUSH1 0x20 ADD SWAP2 PUSH2 0x1A80 JUMP JUMPDEST DUP3 ADD SWAP2 SWAP1 PUSH1 0x0 MSTORE PUSH1 0x20 PUSH1 0x0 KECCAK256 SWAP1 JUMPDEST DUP2 SLOAD DUP2 MSTORE SWAP1 PUSH1 0x1 ADD SWAP1 PUSH1 0x20 ADD DUP1 DUP4 GT PUSH2 0x1A63 JUMPI DUP3 SWAP1 SUB PUSH1 0x1F AND DUP3 ADD SWAP2 JUMPDEST POP POP POP SWAP2 DUP4 MSTORE POP POP PUSH1 0x3 DUP3 ADD SLOAD PUSH1 0x20 DUP1 DUP4 ADD SWAP2 SWAP1 SWAP2 MSTORE PUSH1 0x4 DUP4 ADD SLOAD PUSH1 0x40 DUP1 DUP5 ADD SWAP2 SWAP1 SWAP2 MSTORE PUSH1 0x5 DUP5 ADD SLOAD PUSH1 0x60 DUP1 DUP6 ADD SWAP2 SWAP1 SWAP2 MSTORE PUSH1 0x6 DUP6 ADD SLOAD PUSH1 0x80 DUP6 ADD MSTORE PUSH1 0x7 DUP6 ADD SLOAD PUSH1 0xA0 DUP6 ADD MSTORE PUSH1 0x8 SWAP1 SWAP5 ADD SLOAD PUSH1 0xFF DUP1 DUP3 AND PUSH1 0xC0 DUP7 ADD MSTORE PUSH2 0x100 DUP1 DUP4 DIV DUP3 AND PUSH1 0xE0 DUP8 ADD MSTORE PUSH3 0x10000 DUP4 DIV DUP3 AND DUP2 DUP8 ADD MSTORE PUSH4 0x1000000 DUP4 DIV DUP3 AND PUSH2 0x120 DUP8 ADD MSTORE PUSH1 0x1 PUSH1 0x20 SHL DUP4 DIV DUP3 AND PUSH2 0x140 DUP8 ADD MSTORE PUSH6 0x10000000000 DUP4 DIV DUP3 AND PUSH2 0x160 DUP8 ADD MSTORE PUSH1 0x1 PUSH1 0x30 SHL DUP4 DIV DUP3 AND PUSH2 0x180 DUP8 ADD MSTORE PUSH1 0x1 PUSH1 0x38 SHL DUP4 DIV DUP3 AND PUSH2 0x1A0 DUP8 ADD MSTORE PUSH1 0x1 PUSH1 0x40 SHL DUP4 DIV DUP3 AND PUSH2 0x1C0 DUP8 ADD MSTORE PUSH1 0x1 PUSH1 0x48 SHL DUP4 DIV DUP3 AND PUSH2 0x1E0 DUP8 ADD MSTORE PUSH1 0x1 PUSH1 0x50 SHL DUP4 DIV DUP3 AND PUSH2 0x200 DUP8 ADD MSTORE PUSH1 0x1 PUSH1 0x58 SHL DUP4 DIV DUP3 AND PUSH2 0x220 DUP8 ADD MSTORE PUSH1 0x1 PUSH1 0x60 SHL DUP4 DIV DUP3 AND PUSH2 0x240 DUP8 ADD MSTORE PUSH1 0x1 PUSH1 0x68 SHL DUP4 DIV DUP3 AND PUSH2 0x260 DUP8 ADD MSTORE PUSH1 0x1 PUSH1 0x70 SHL DUP4 DIV DUP3 AND PUSH2 0x280 DUP8 ADD MSTORE PUSH1 0x1 PUSH1 0x78 SHL DUP4 DIV DUP3 AND PUSH2 0x2A0 DUP8 ADD MSTORE PUSH1 0x1 PUSH1 0x80 SHL DUP4 DIV DUP3 AND PUSH2 0x2C0 DUP8 ADD MSTORE PUSH1 0x1 PUSH1 0x88 SHL DUP4 DIV DUP3 AND PUSH2 0x2E0 DUP8 ADD MSTORE PUSH1 0x1 PUSH1 0x90 SHL SWAP1 SWAP3 DIV AND PUSH2 0x300 SWAP1 SWAP5 ADD SWAP4 SWAP1 SWAP4 MSTORE PUSH1 0x15 SLOAD PUSH1 0x0 SWAP1 DUP2 MSTORE PUSH1 0x1C DUP4 MSTORE DUP2 SWAP1 KECCAK256 DUP1 SLOAD DUP3 MLOAD PUSH1 0x2 PUSH1 0x1 DUP4 AND ISZERO SWAP1 SWAP7 MUL PUSH1 0x0 NOT ADD SWAP1 SWAP2 AND SWAP5 SWAP1 SWAP5 DIV PUSH1 0x1F DUP2 ADD DUP5 SWAP1 DIV DUP5 MUL DUP6 ADD DUP5 ADD SWAP1 SWAP3 MSTORE DUP2 DUP5 MSTORE SWAP5 SWAP6 POP SWAP3 SWAP4 SWAP2 SWAP3 SWAP1 DUP4 ADD DUP3 DUP3 DUP1 ISZERO PUSH2 0x1C79 JUMPI DUP1 PUSH1 0x1F LT PUSH2 0x1C4E JUMPI PUSH2 0x100 DUP1 DUP4 SLOAD DIV MUL DUP4 MSTORE SWAP2 PUSH1 0x20 ADD SWAP2 PUSH2 0x1C79 JUMP JUMPDEST DUP3 ADD SWAP2 SWAP1 PUSH1 0x0 MSTORE PUSH1 0x20 PUSH1 0x0 KECCAK256 SWAP1 JUMPDEST DUP2 SLOAD DUP2 MSTORE SWAP1 PUSH1 0x1 ADD SWAP1 PUSH1 0x20 ADD DUP1 DUP4 GT PUSH2 0x1C5C JUMPI DUP3 SWAP1 SUB PUSH1 0x1F AND DUP3 ADD SWAP2 JUMPDEST POP POP POP PUSH1 0x0 DUP8 DUP2 MSTORE PUSH1 0x1D PUSH1 0x20 SWAP1 DUP2 MSTORE PUSH1 0x40 DUP1 DUP4 KECCAK256 PUSH1 0x15 SLOAD DUP5 MSTORE SWAP1 SWAP2 MSTORE SWAP1 KECCAK256 SLOAD SWAP3 SWAP4 POP POP POP PUSH1 0xFF AND ISZERO DUP1 ISZERO PUSH2 0x1CBE JUMPI POP DUP1 DUP1 MLOAD SWAP1 PUSH1 0x20 ADD KECCAK256 DUP3 PUSH1 0x40 ADD MLOAD DUP1 MLOAD SWAP1 PUSH1 0x20 ADD KECCAK256 EQ JUMPDEST SWAP5 SWAP4 POP POP POP POP JUMP JUMPDEST PUSH1 0x0 SWAP1 DUP2 MSTORE PUSH1 0x20 DUP2 SWAP1 MSTORE PUSH1 0x40 SWAP1 KECCAK256 PUSH1 0x2 ADD SLOAD SWAP1 JUMP JUMPDEST PUSH1 0x0 PUSH1 0x16 DUP4 DUP4 PUSH1 0x40 MLOAD DUP1 DUP4 DUP4 DUP1 DUP3 DUP5 CALLDATACOPY SWAP2 SWAP1 SWAP2 ADD SWAP5 DUP6 MSTORE POP POP PUSH1 0x40 MLOAD SWAP3 DUP4 SWAP1 SUB PUSH1 0x20 ADD SWAP1 SWAP3 KECCAK256 SLOAD PUSH1 0x1 PUSH1 0x1 PUSH1 0xA0 SHL SUB AND SWAP3 POP POP POP SWAP3 SWAP2 POP POP JUMP JUMPDEST PUSH1 0x60 PUSH2 0x1D25 CALLER DUP5 PUSH1 0x0 DUP6 DUP6 PUSH2 0x368D JUMP JUMPDEST POP POP POP JUMP JUMPDEST DUP2 MLOAD DUP4 MLOAD EQ PUSH2 0x1D6A JUMPI PUSH1 0x40 MLOAD PUSH3 0x461BCD PUSH1 0xE5 SHL DUP2 MSTORE PUSH1 0x4 ADD DUP1 DUP1 PUSH1 0x20 ADD DUP3 DUP2 SUB DUP3 MSTORE PUSH1 0x28 DUP2 MSTORE PUSH1 0x20 ADD DUP1 PUSH2 0x5B02 PUSH1 0x28 SWAP2 CODECOPY PUSH1 0x40 ADD SWAP2 POP POP PUSH1 0x40 MLOAD DUP1 SWAP2 SUB SWAP1 REVERT JUMPDEST PUSH1 0x1 PUSH1 0x1 PUSH1 0xA0 SHL SUB DUP5 AND PUSH2 0x1DAF JUMPI PUSH1 0x40 MLOAD PUSH3 0x461BCD PUSH1 0xE5 SHL DUP2 MSTORE PUSH1 0x4 ADD DUP1 DUP1 PUSH1 0x20 ADD DUP3 DUP2 SUB DUP3 MSTORE PUSH1 0x25 DUP2 MSTORE PUSH1 0x20 ADD DUP1 PUSH2 0x59CB PUSH1 0x25 SWAP2 CODECOPY PUSH1 0x40 ADD SWAP2 POP POP PUSH1 0x40 MLOAD DUP1 SWAP2 SUB SWAP1 REVERT JUMPDEST PUSH2 0x1DB7 PUSH2 0x3941 JUMP JUMPDEST PUSH1 0x1 PUSH1 0x1 PUSH1 0xA0 SHL SUB AND DUP6 PUSH1 0x1 PUSH1 0x1 PUSH1 0xA0 SHL SUB AND EQ DUP1 PUSH2 0x1DE2 JUMPI POP PUSH2 0x1DE2 DUP6 PUSH2 0x1DDD PUSH2 0x3941 JUMP JUMPDEST PUSH2 0x365F JUMP JUMPDEST PUSH2 0x1E1D JUMPI PUSH1 0x40 MLOAD PUSH3 0x461BCD PUSH1 0xE5 SHL DUP2 MSTORE PUSH1 0x4 ADD DUP1 DUP1 PUSH1 0x20 ADD DUP3 DUP2 SUB DUP3 MSTORE PUSH1 0x32 DUP2 MSTORE PUSH1 0x20 ADD DUP1 PUSH2 0x59F0 PUSH1 0x32 SWAP2 CODECOPY PUSH1 0x40 ADD SWAP2 POP POP PUSH1 0x40 MLOAD DUP1 SWAP2 SUB SWAP1 REVERT JUMPDEST PUSH1 0x0 PUSH2 0x1E27 PUSH2 0x3941 JUMP JUMPDEST SWAP1 POP PUSH2 0x1E37 DUP2 DUP8 DUP8 DUP8 DUP8 DUP8 PUSH2 0x3ABB JUMP JUMPDEST PUSH1 0x0 JUMPDEST DUP5 MLOAD DUP2 LT ISZERO PUSH2 0x1F3D JUMPI PUSH1 0x0 DUP6 DUP3 DUP2 MLOAD DUP2 LT PUSH2 0x1E51 JUMPI INVALID JUMPDEST PUSH1 0x20 MUL PUSH1 0x20 ADD ADD MLOAD SWAP1 POP PUSH1 0x0 DUP6 DUP4 DUP2 MLOAD DUP2 LT PUSH2 0x1E69 JUMPI INVALID JUMPDEST PUSH1 0x20 MUL PUSH1 0x20 ADD ADD MLOAD SWAP1 POP PUSH2 0x1ED6 DUP2 PUSH1 0x40 MLOAD DUP1 PUSH1 0x60 ADD PUSH1 0x40 MSTORE DUP1 PUSH1 0x2A DUP2 MSTORE PUSH1 0x20 ADD PUSH2 0x5A65 PUSH1 0x2A SWAP2 CODECOPY PUSH1 0x2 PUSH1 0x0 DUP7 DUP2 MSTORE PUSH1 0x20 ADD SWAP1 DUP2 MSTORE PUSH1 0x20 ADD PUSH1 0x0 KECCAK256 PUSH1 0x0 DUP14 PUSH1 0x1 PUSH1 0x1 PUSH1 0xA0 SHL SUB AND PUSH1 0x1 PUSH1 0x1 PUSH1 0xA0 SHL SUB AND DUP2 MSTORE PUSH1 0x20 ADD SWAP1 DUP2 MSTORE PUSH1 0x20 ADD PUSH1 0x0 KECCAK256 SLOAD PUSH2 0x3BD6 SWAP1 SWAP3 SWAP2 SWAP1 PUSH4 0xFFFFFFFF AND JUMP JUMPDEST PUSH1 0x0 DUP4 DUP2 MSTORE PUSH1 0x2 PUSH1 0x20 SWAP1 DUP2 MSTORE PUSH1 0x40 DUP1 DUP4 KECCAK256 PUSH1 0x1 PUSH1 0x1 PUSH1 0xA0 SHL SUB DUP15 DUP2 AND DUP6 MSTORE SWAP3 MSTORE DUP1 DUP4 KECCAK256 SWAP4 SWAP1 SWAP4 SSTORE DUP11 AND DUP2 MSTORE KECCAK256 SLOAD PUSH2 0x1F0D SWAP1 DUP3 PUSH2 0x38E7 JUMP JUMPDEST PUSH1 0x0 SWAP3 DUP4 MSTORE PUSH1 0x2 PUSH1 0x20 SWAP1 DUP2 MSTORE PUSH1 0x40 DUP1 DUP6 KECCAK256 PUSH1 0x1 PUSH1 0x1 PUSH1 0xA0 SHL SUB DUP13 AND DUP7 MSTORE SWAP1 SWAP2 MSTORE SWAP1 SWAP3 KECCAK256 SWAP2 SWAP1 SWAP2 SSTORE POP PUSH1 0x1 ADD PUSH2 0x1E3A JUMP JUMPDEST POP DUP5 PUSH1 0x1 PUSH1 0x1 PUSH1 0xA0 SHL SUB AND DUP7 PUSH1 0x1 PUSH1 0x1 PUSH1 0xA0 SHL SUB AND DUP3 PUSH1 0x1 PUSH1 0x1 PUSH1 0xA0 SHL SUB AND PUSH32 0x4A39DC06D4C0DBC64B70AF90FD698A233A518AA5D07E595D983B8C0526C8F7FB DUP8 DUP8 PUSH1 0x40 MLOAD DUP1 DUP1 PUSH1 0x20 ADD DUP1 PUSH1 0x20 ADD DUP4 DUP2 SUB DUP4 MSTORE DUP6 DUP2 DUP2 MLOAD DUP2 MSTORE PUSH1 0x20 ADD SWAP2 POP DUP1 MLOAD SWAP1 PUSH1 0x20 ADD SWAP1 PUSH1 0x20 MUL DUP1 DUP4 DUP4 PUSH1 0x0 JUMPDEST DUP4 DUP2 LT ISZERO PUSH2 0x1FC3 JUMPI DUP2 DUP2 ADD MLOAD DUP4 DUP3 ADD MSTORE PUSH1 0x20 ADD PUSH2 0x1FAB JUMP JUMPDEST POP POP POP POP SWAP1 POP ADD DUP4 DUP2 SUB DUP3 MSTORE DUP5 DUP2 DUP2 MLOAD DUP2 MSTORE PUSH1 0x20 ADD SWAP2 POP DUP1 MLOAD SWAP1 PUSH1 0x20 ADD SWAP1 PUSH1 0x20 MUL DUP1 DUP4 DUP4 PUSH1 0x0 JUMPDEST DUP4 DUP2 LT ISZERO PUSH2 0x2002 JUMPI DUP2 DUP2 ADD MLOAD DUP4 DUP3 ADD MSTORE PUSH1 0x20 ADD PUSH2 0x1FEA JUMP JUMPDEST POP POP POP POP SWAP1 POP ADD SWAP5 POP POP POP POP POP PUSH1 0x40 MLOAD DUP1 SWAP2 SUB SWAP1 LOG4 PUSH2 0x2025 DUP2 DUP8 DUP8 DUP8 DUP8 DUP8 PUSH2 0x3C6D JUMP JUMPDEST POP POP POP POP POP POP JUMP JUMPDEST PUSH1 0x0 PUSH1 0x60 PUSH1 0x0 DUP1 PUSH1 0x0 DUP6 PUSH1 0x7 DUP2 GT PUSH2 0x2044 JUMPI PUSH1 0x0 DUP1 REVERT JUMPDEST PUSH1 0x0 DUP2 DUP2 MSTORE PUSH1 0x12 PUSH1 0x20 MSTORE PUSH1 0x40 SWAP1 KECCAK256 SLOAD PUSH1 0xFF AND PUSH2 0x205F JUMPI PUSH1 0x0 DUP1 REVERT JUMPDEST PUSH1 0x0 DUP8 DUP2 MSTORE PUSH1 0x12 PUSH1 0x20 SWAP1 DUP2 MSTORE PUSH1 0x40 SWAP2 DUP3 SWAP1 KECCAK256 DUP1 SLOAD PUSH1 0x3 DUP3 ADD SLOAD PUSH1 0x4 DUP4 ADD SLOAD PUSH1 0x5 DUP5 ADD SLOAD PUSH1 0x2 SWAP5 DUP6 ADD DUP1 SLOAD DUP9 MLOAD PUSH2 0x100 PUSH1 0x1 DUP4 AND ISZERO MUL PUSH1 0x0 NOT ADD SWAP1 SWAP2 AND SWAP7 SWAP1 SWAP7 DIV PUSH1 0x1F DUP2 ADD DUP9 SWAP1 DIV DUP9 MUL DUP8 ADD DUP9 ADD SWAP1 SWAP9 MSTORE DUP8 DUP7 MSTORE PUSH1 0xFF SWAP1 SWAP5 AND SWAP7 SWAP4 SWAP6 SWAP3 SWAP5 SWAP2 SWAP4 SWAP1 SWAP3 DUP7 SWAP2 SWAP1 DUP4 ADD DUP3 DUP3 DUP1 ISZERO PUSH2 0x2114 JUMPI DUP1 PUSH1 0x1F LT PUSH2 0x20E9 JUMPI PUSH2 0x100 DUP1 DUP4 SLOAD DIV MUL DUP4 MSTORE SWAP2 PUSH1 0x20 ADD SWAP2 PUSH2 0x2114 JUMP JUMPDEST DUP3 ADD SWAP2 SWAP1 PUSH1 0x0 MSTORE PUSH1 0x20 PUSH1 0x0 KECCAK256 SWAP1 JUMPDEST DUP2 SLOAD DUP2 MSTORE SWAP1 PUSH1 0x1 ADD SWAP1 PUSH1 0x20 ADD DUP1 DUP4 GT PUSH2 0x20F7 JUMPI DUP3 SWAP1 SUB PUSH1 0x1F AND DUP3 ADD SWAP2 JUMPDEST POP POP POP POP POP SWAP4 POP SWAP6 POP SWAP6 POP SWAP6 POP SWAP6 POP SWAP6 POP POP SWAP2 SWAP4 SWAP6 SWAP1 SWAP3 SWAP5 POP JUMP JUMPDEST PUSH1 0x0 DUP3 DUP2 MSTORE PUSH1 0x20 DUP2 SWAP1 MSTORE PUSH1 0x40 SWAP1 KECCAK256 PUSH1 0x2 ADD SLOAD PUSH2 0x2152 SWAP1 PUSH2 0x214D PUSH2 0x3941 JUMP JUMPDEST PUSH2 0x2F47 JUMP JUMPDEST PUSH2 0x218D JUMPI PUSH1 0x40 MLOAD PUSH3 0x461BCD PUSH1 0xE5 SHL DUP2 MSTORE PUSH1 0x4 ADD DUP1 DUP1 PUSH1 0x20 ADD DUP3 DUP2 SUB DUP3 MSTORE PUSH1 0x2F DUP2 MSTORE PUSH1 0x20 ADD DUP1 PUSH2 0x58F4 PUSH1 0x2F SWAP2 CODECOPY PUSH1 0x40 ADD SWAP2 POP POP PUSH1 0x40 MLOAD DUP1 SWAP2 SUB SWAP1 REVERT JUMPDEST PUSH2 0x2197 DUP3 DUP3 PUSH2 0x3EE3 JUMP JUMPDEST POP POP JUMP JUMPDEST PUSH2 0x21A3 PUSH2 0x3941 JUMP JUMPDEST PUSH1 0x1 PUSH1 0x1 PUSH1 0xA0 SHL SUB AND DUP2 PUSH1 0x1 PUSH1 0x1 PUSH1 0xA0 SHL SUB AND EQ PUSH2 0x21F2 JUMPI PUSH1 0x40 MLOAD PUSH3 0x461BCD PUSH1 0xE5 SHL DUP2 MSTORE PUSH1 0x4 ADD DUP1 DUP1 PUSH1 0x20 ADD DUP3 DUP2 SUB DUP3 MSTORE PUSH1 0x2F DUP2 MSTORE PUSH1 0x20 ADD DUP1 PUSH2 0x5B4B PUSH1 0x2F SWAP2 CODECOPY PUSH1 0x40 ADD SWAP2 POP POP PUSH1 0x40 MLOAD DUP1 SWAP2 SUB SWAP1 REVERT JUMPDEST PUSH2 0x2197 DUP3 DUP3 PUSH2 0x3F4C JUMP JUMPDEST PUSH1 0xB SLOAD DUP2 JUMP JUMPDEST PUSH1 0x60 PUSH1 0x0 DUP1 PUSH1 0x0 DUP5 PUSH1 0x7 DUP2 GT PUSH2 0x2217 JUMPI PUSH1 0x0 DUP1 REVERT JUMPDEST PUSH1 0x0 DUP2 DUP2 MSTORE PUSH1 0x12 PUSH1 0x20 MSTORE PUSH1 0x40 SWAP1 KECCAK256 SLOAD PUSH1 0xFF AND PUSH2 0x2232 JUMPI PUSH1 0x0 DUP1 REVERT JUMPDEST PUSH1 0x0 DUP7 DUP2 MSTORE PUSH1 0x12 PUSH1 0x20 SWAP1 DUP2 MSTORE PUSH1 0x40 SWAP2 DUP3 SWAP1 KECCAK256 PUSH1 0x6 DUP2 ADD SLOAD PUSH1 0x7 DUP3 ADD SLOAD PUSH1 0x8 DUP4 ADD SLOAD PUSH1 0x1 SWAP4 DUP5 ADD DUP1 SLOAD DUP8 MLOAD PUSH1 0x2 PUSH2 0x100 SWAP8 DUP4 AND ISZERO SWAP8 SWAP1 SWAP8 MUL PUSH1 0x0 NOT ADD SWAP1 SWAP2 AND SWAP6 SWAP1 SWAP6 DIV PUSH1 0x1F DUP2 ADD DUP8 SWAP1 DIV DUP8 MUL DUP7 ADD DUP8 ADD SWAP1 SWAP8 MSTORE DUP7 DUP6 MSTORE SWAP6 SWAP3 SWAP5 SWAP2 SWAP4 PUSH1 0xFF SWAP1 SWAP2 AND SWAP3 SWAP1 SWAP2 DUP7 SWAP2 SWAP1 DUP4 ADD DUP3 DUP3 DUP1 ISZERO PUSH2 0x22E8 JUMPI DUP1 PUSH1 0x1F LT PUSH2 0x22BD JUMPI PUSH2 0x100 DUP1 DUP4 SLOAD DIV MUL DUP4 MSTORE SWAP2 PUSH1 0x20 ADD SWAP2 PUSH2 0x22E8 JUMP JUMPDEST DUP3 ADD SWAP2 SWAP1 PUSH1 0x0 MSTORE PUSH1 0x20 PUSH1 0x0 KECCAK256 SWAP1 JUMPDEST DUP2 SLOAD DUP2 MSTORE SWAP1 PUSH1 0x1 ADD SWAP1 PUSH1 0x20 ADD DUP1 DUP4 GT PUSH2 0x22CB JUMPI DUP3 SWAP1 SUB PUSH1 0x1F AND DUP3 ADD SWAP2 JUMPDEST POP POP POP POP POP SWAP4 POP SWAP5 POP SWAP5 POP SWAP5 POP SWAP5 POP POP SWAP2 SWAP4 POP SWAP2 SWAP4 JUMP JUMPDEST PUSH1 0x0 DUP1 PUSH1 0x0 DUP1 DUP5 PUSH1 0x7 DUP2 GT PUSH2 0x2313 JUMPI PUSH1 0x0 DUP1 REVERT JUMPDEST PUSH1 0x0 DUP2 DUP2 MSTORE PUSH1 0x12 PUSH1 0x20 MSTORE PUSH1 0x40 SWAP1 KECCAK256 SLOAD PUSH1 0xFF AND PUSH2 0x232E JUMPI PUSH1 0x0 DUP1 REVERT JUMPDEST POP POP POP PUSH1 0x0 SWAP3 DUP4 MSTORE POP POP PUSH1 0x12 PUSH1 0x20 MSTORE PUSH1 0x40 SWAP1 KECCAK256 PUSH1 0x8 ADD SLOAD PUSH1 0xFF PUSH1 0x1 PUSH1 0x48 SHL DUP3 DIV DUP2 AND SWAP3 PUSH1 0x1 PUSH1 0x50 SHL DUP4 DIV DUP3 AND SWAP3 PUSH1 0x1 PUSH1 0x58 SHL DUP2 DIV DUP4 AND SWAP3 PUSH1 0x1 PUSH1 0x60 SHL SWAP1 SWAP2 DIV AND SWAP1 JUMP JUMPDEST PUSH1 0x0 DUP4 PUSH1 0x0 DUP2 GT DUP1 ISZERO PUSH2 0x2385 JUMPI POP PUSH1 0x7 DUP2 GT ISZERO JUMPDEST PUSH2 0x238E JUMPI PUSH1 0x0 DUP1 REVERT JUMPDEST PUSH1 0x1 DUP1 PUSH1 0x6 SLOAD PUSH1 0xFF AND PUSH1 0x1 DUP2 GT ISZERO PUSH2 0x23A2 JUMPI INVALID JUMPDEST EQ PUSH2 0x23AC JUMPI PUSH1 0x0 DUP1 REVERT JUMPDEST PUSH1 0x0 DUP7 DUP2 MSTORE PUSH1 0xF PUSH1 0x20 MSTORE PUSH1 0x40 SWAP1 KECCAK256 SLOAD PUSH1 0xFF AND PUSH2 0x23C7 JUMPI PUSH1 0x0 DUP1 REVERT JUMPDEST PUSH2 0x23D0 DUP7 PUSH2 0x3FB5 JUMP JUMPDEST PUSH2 0x23D9 JUMPI PUSH1 0x0 DUP1 REVERT JUMPDEST PUSH1 0x0 PUSH2 0x23E7 PUSH1 0x15 SLOAD DUP9 PUSH2 0x3858 JUMP JUMPDEST SWAP1 POP DUP1 CALLVALUE LT ISZERO PUSH2 0x23F6 JUMPI PUSH1 0x0 DUP1 REVERT JUMPDEST PUSH1 0x0 PUSH1 0x7 PUSH2 0x2410 PUSH1 0x1 PUSH1 0x10 SLOAD PUSH2 0x38E7 SWAP1 SWAP2 SWAP1 PUSH4 0xFFFFFFFF AND JUMP JUMPDEST ADD PUSH1 0x0 DUP2 DUP2 MSTORE PUSH1 0x11 PUSH1 0x20 MSTORE PUSH1 0x40 SWAP1 KECCAK256 SLOAD SWAP1 SWAP2 POP PUSH1 0x1 PUSH1 0x1 PUSH1 0xA0 SHL SUB AND ISZERO PUSH2 0x2433 JUMPI INVALID JUMPDEST PUSH1 0x0 DUP2 DUP2 MSTORE PUSH1 0x12 PUSH1 0x20 MSTORE PUSH1 0x40 SWAP1 KECCAK256 SLOAD PUSH1 0xFF AND ISZERO PUSH2 0x244C JUMPI INVALID JUMPDEST PUSH2 0x2454 PUSH2 0x566A JUMP JUMPDEST PUSH1 0x1 DUP2 MSTORE PUSH1 0x40 DUP1 MLOAD PUSH1 0x20 PUSH1 0x1F DUP11 ADD DUP2 SWAP1 DIV DUP2 MUL DUP3 ADD DUP2 ADD SWAP1 SWAP3 MSTORE DUP9 DUP2 MSTORE SWAP1 DUP10 SWAP1 DUP10 SWAP1 DUP2 SWAP1 DUP5 ADD DUP4 DUP3 DUP1 DUP3 DUP5 CALLDATACOPY PUSH1 0x0 DUP2 DUP5 ADD MSTORE PUSH1 0x1F NOT PUSH1 0x1F DUP3 ADD AND SWAP1 POP DUP1 DUP4 ADD SWAP3 POP POP POP POP POP POP POP DUP2 PUSH1 0x20 ADD DUP2 SWAP1 MSTORE POP PUSH1 0x15 SLOAD DUP2 PUSH1 0x80 ADD DUP2 DUP2 MSTORE POP POP DUP9 DUP2 PUSH1 0xA0 ADD DUP2 DUP2 MSTORE POP POP PUSH1 0xF PUSH1 0x0 DUP11 DUP2 MSTORE PUSH1 0x20 ADD SWAP1 DUP2 MSTORE PUSH1 0x20 ADD PUSH1 0x0 KECCAK256 PUSH1 0x1 ADD SLOAD DUP2 PUSH1 0xC0 ADD DUP2 DUP2 MSTORE POP POP PUSH1 0xF PUSH1 0x0 DUP11 DUP2 MSTORE PUSH1 0x20 ADD SWAP1 DUP2 MSTORE PUSH1 0x20 ADD PUSH1 0x0 KECCAK256 PUSH1 0x2 ADD SLOAD DUP2 PUSH1 0xE0 ADD DUP2 DUP2 MSTORE POP POP PUSH1 0xF PUSH1 0x0 DUP11 DUP2 MSTORE PUSH1 0x20 ADD SWAP1 DUP2 MSTORE PUSH1 0x20 ADD PUSH1 0x0 KECCAK256 PUSH1 0x3 ADD DUP1 SLOAD PUSH1 0x1 DUP2 PUSH1 0x1 AND ISZERO PUSH2 0x100 MUL SUB AND PUSH1 0x2 SWAP1 DIV DUP1 PUSH1 0x1F ADD PUSH1 0x20 DUP1 SWAP2 DIV MUL PUSH1 0x20 ADD PUSH1 0x40 MLOAD SWAP1 DUP2 ADD PUSH1 0x40 MSTORE DUP1 SWAP3 SWAP2 SWAP1 DUP2 DUP2 MSTORE PUSH1 0x20 ADD DUP3 DUP1 SLOAD PUSH1 0x1 DUP2 PUSH1 0x1 AND ISZERO PUSH2 0x100 MUL SUB AND PUSH1 0x2 SWAP1 DIV DUP1 ISZERO PUSH2 0x25A3 JUMPI DUP1 PUSH1 0x1F LT PUSH2 0x2578 JUMPI PUSH2 0x100 DUP1 DUP4 SLOAD DIV MUL DUP4 MSTORE SWAP2 PUSH1 0x20 ADD SWAP2 PUSH2 0x25A3 JUMP JUMPDEST DUP3 ADD SWAP2 SWAP1 PUSH1 0x0 MSTORE PUSH1 0x20 PUSH1 0x0 KECCAK256 SWAP1 JUMPDEST DUP2 SLOAD DUP2 MSTORE SWAP1 PUSH1 0x1 ADD SWAP1 PUSH1 0x20 ADD DUP1 DUP4 GT PUSH2 0x2586 JUMPI DUP3 SWAP1 SUB PUSH1 0x1F AND DUP3 ADD SWAP2 JUMPDEST POP POP POP POP POP PUSH1 0x40 DUP3 DUP2 ADD SWAP2 SWAP1 SWAP2 MSTORE PUSH1 0x0 DUP4 DUP2 MSTORE PUSH1 0x12 PUSH1 0x20 SWAP1 DUP2 MSTORE SWAP2 SWAP1 KECCAK256 DUP3 MLOAD DUP2 SLOAD PUSH1 0xFF NOT AND SWAP1 ISZERO ISZERO OR DUP2 SSTORE DUP2 DUP4 ADD MLOAD DUP1 MLOAD DUP5 SWAP4 PUSH2 0x25E7 SWAP3 PUSH1 0x1 DUP6 ADD SWAP3 SWAP2 ADD SWAP1 PUSH2 0x55EC JUMP JUMPDEST POP PUSH1 0x40 DUP3 ADD MLOAD DUP1 MLOAD PUSH2 0x2603 SWAP2 PUSH1 0x2 DUP5 ADD SWAP2 PUSH1 0x20 SWAP1 SWAP2 ADD SWAP1 PUSH2 0x55EC JUMP JUMPDEST POP PUSH1 0x60 DUP3 ADD MLOAD DUP2 PUSH1 0x3 ADD SSTORE PUSH1 0x80 DUP3 ADD MLOAD DUP2 PUSH1 0x4 ADD SSTORE PUSH1 0xA0 DUP3 ADD MLOAD DUP2 PUSH1 0x5 ADD SSTORE PUSH1 0xC0 DUP3 ADD MLOAD DUP2 PUSH1 0x6 ADD SSTORE PUSH1 0xE0 DUP3 ADD MLOAD DUP2 PUSH1 0x7 ADD SSTORE PUSH2 0x100 DUP3 ADD MLOAD DUP2 PUSH1 0x8 ADD PUSH1 0x0 PUSH2 0x100 EXP DUP2 SLOAD DUP2 PUSH1 0xFF MUL NOT AND SWAP1 DUP4 PUSH1 0xFF AND MUL OR SWAP1 SSTORE POP PUSH2 0x120 DUP3 ADD MLOAD DUP2 PUSH1 0x8 ADD PUSH1 0x1 PUSH2 0x100 EXP DUP2 SLOAD DUP2 PUSH1 0xFF MUL NOT AND SWAP1 DUP4 PUSH1 0xFF AND MUL OR SWAP1 SSTORE POP PUSH2 0x140 DUP3 ADD MLOAD DUP2 PUSH1 0x8 ADD PUSH1 0x2 PUSH2 0x100 EXP DUP2 SLOAD DUP2 PUSH1 0xFF MUL NOT AND SWAP1 DUP4 PUSH1 0xFF AND MUL OR SWAP1 SSTORE POP PUSH2 0x160 DUP3 ADD MLOAD DUP2 PUSH1 0x8 ADD PUSH1 0x3 PUSH2 0x100 EXP DUP2 SLOAD DUP2 PUSH1 0xFF MUL NOT AND SWAP1 DUP4 PUSH1 0xFF AND MUL OR SWAP1 SSTORE POP PUSH2 0x180 DUP3 ADD MLOAD DUP2 PUSH1 0x8 ADD PUSH1 0x4 PUSH2 0x100 EXP DUP2 SLOAD DUP2 PUSH1 0xFF MUL NOT AND SWAP1 DUP4 PUSH1 0xFF AND MUL OR SWAP1 SSTORE POP PUSH2 0x1A0 DUP3 ADD MLOAD DUP2 PUSH1 0x8 ADD PUSH1 0x5 PUSH2 0x100 EXP DUP2 SLOAD DUP2 PUSH1 0xFF MUL NOT AND SWAP1 DUP4 PUSH1 0xFF AND MUL OR SWAP1 SSTORE POP PUSH2 0x1C0 DUP3 ADD MLOAD DUP2 PUSH1 0x8 ADD PUSH1 0x6 PUSH2 0x100 EXP DUP2 SLOAD DUP2 PUSH1 0xFF MUL NOT AND SWAP1 DUP4 PUSH1 0xFF AND MUL OR SWAP1 SSTORE POP PUSH2 0x1E0 DUP3 ADD MLOAD DUP2 PUSH1 0x8 ADD PUSH1 0x7 PUSH2 0x100 EXP DUP2 SLOAD DUP2 PUSH1 0xFF MUL NOT AND SWAP1 DUP4 PUSH1 0xFF AND MUL OR SWAP1 SSTORE POP PUSH2 0x200 DUP3 ADD MLOAD DUP2 PUSH1 0x8 ADD PUSH1 0x8 PUSH2 0x100 EXP DUP2 SLOAD DUP2 PUSH1 0xFF MUL NOT AND SWAP1 DUP4 PUSH1 0xFF AND MUL OR SWAP1 SSTORE POP PUSH2 0x220 DUP3 ADD MLOAD DUP2 PUSH1 0x8 ADD PUSH1 0x9 PUSH2 0x100 EXP DUP2 SLOAD DUP2 PUSH1 0xFF MUL NOT AND SWAP1 DUP4 PUSH1 0xFF AND MUL OR SWAP1 SSTORE POP PUSH2 0x240 DUP3 ADD MLOAD DUP2 PUSH1 0x8 ADD PUSH1 0xA PUSH2 0x100 EXP DUP2 SLOAD DUP2 PUSH1 0xFF MUL NOT AND SWAP1 DUP4 PUSH1 0xFF AND MUL OR SWAP1 SSTORE POP PUSH2 0x260 DUP3 ADD MLOAD DUP2 PUSH1 0x8 ADD PUSH1 0xB PUSH2 0x100 EXP DUP2 SLOAD DUP2 PUSH1 0xFF MUL NOT AND SWAP1 DUP4 PUSH1 0xFF AND MUL OR SWAP1 SSTORE POP PUSH2 0x280 DUP3 ADD MLOAD DUP2 PUSH1 0x8 ADD PUSH1 0xC PUSH2 0x100 EXP DUP2 SLOAD DUP2 PUSH1 0xFF MUL NOT AND SWAP1 DUP4 PUSH1 0xFF AND MUL OR SWAP1 SSTORE POP PUSH2 0x2A0 DUP3 ADD MLOAD DUP2 PUSH1 0x8 ADD PUSH1 0xD PUSH2 0x100 EXP DUP2 SLOAD DUP2 PUSH1 0xFF MUL NOT AND SWAP1 DUP4 PUSH1 0xFF AND MUL OR SWAP1 SSTORE POP PUSH2 0x2C0 DUP3 ADD MLOAD DUP2 PUSH1 0x8 ADD PUSH1 0xE PUSH2 0x100 EXP DUP2 SLOAD DUP2 PUSH1 0xFF MUL NOT AND SWAP1 DUP4 PUSH1 0xFF AND MUL OR SWAP1 SSTORE POP PUSH2 0x2E0 DUP3 ADD MLOAD DUP2 PUSH1 0x8 ADD PUSH1 0xF PUSH2 0x100 EXP DUP2 SLOAD DUP2 PUSH1 0xFF MUL NOT AND SWAP1 DUP4 PUSH1 0xFF AND MUL OR SWAP1 SSTORE POP PUSH2 0x300 DUP3 ADD MLOAD DUP2 PUSH1 0x8 ADD PUSH1 0x10 PUSH2 0x100 EXP DUP2 SLOAD DUP2 PUSH1 0xFF MUL NOT AND SWAP1 DUP4 PUSH1 0xFF AND MUL OR SWAP1 SSTORE POP PUSH2 0x320 DUP3 ADD MLOAD DUP2 PUSH1 0x8 ADD PUSH1 0x11 PUSH2 0x100 EXP DUP2 SLOAD DUP2 PUSH1 0xFF MUL NOT AND SWAP1 DUP4 PUSH1 0xFF AND MUL OR SWAP1 SSTORE POP PUSH2 0x340 DUP3 ADD MLOAD DUP2 PUSH1 0x8 ADD PUSH1 0x12 PUSH2 0x100 EXP DUP2 SLOAD DUP2 PUSH1 0xFF MUL NOT AND SWAP1 DUP4 PUSH1 0xFF AND MUL OR SWAP1 SSTORE POP SWAP1 POP POP PUSH1 0x0 PUSH2 0x28CA DUP4 PUSH2 0x408A JUMP JUMPDEST PUSH1 0x0 DUP2 DUP2 MSTORE PUSH1 0x1A PUSH1 0x20 MSTORE PUSH1 0x40 SWAP1 KECCAK256 DUP5 SWAP1 SSTORE SWAP1 POP PUSH2 0x28E8 PUSH2 0x16DA PUSH2 0x3941 JUMP JUMPDEST PUSH2 0x2914 PUSH2 0x28F3 PUSH2 0x3941 JUMP JUMPDEST PUSH1 0x0 PUSH9 0x1B1AE4D6E2EF500000 PUSH1 0x40 MLOAD DUP1 PUSH1 0x20 ADD PUSH1 0x40 MSTORE DUP1 PUSH1 0x0 DUP2 MSTORE POP PUSH2 0x3945 JUMP JUMPDEST PUSH2 0x291C PUSH2 0x3941 JUMP JUMPDEST PUSH1 0x0 DUP5 DUP2 MSTORE PUSH1 0x11 PUSH1 0x20 MSTORE PUSH1 0x40 SWAP1 KECCAK256 DUP1 SLOAD PUSH1 0x1 PUSH1 0x1 PUSH1 0xA0 SHL SUB NOT AND PUSH1 0x1 PUSH1 0x1 PUSH1 0xA0 SHL SUB SWAP3 SWAP1 SWAP3 AND SWAP2 SWAP1 SWAP2 OR SWAP1 SSTORE PUSH1 0x10 SLOAD PUSH2 0x2956 SWAP1 PUSH1 0x1 PUSH2 0x38E7 JUMP JUMPDEST PUSH1 0x10 SSTORE PUSH1 0x15 SLOAD PUSH1 0x0 SWAP1 DUP2 MSTORE PUSH1 0x13 PUSH1 0x20 SWAP1 DUP2 MSTORE PUSH1 0x40 DUP1 DUP4 KECCAK256 DUP14 DUP5 MSTORE SWAP1 SWAP2 MSTORE SWAP1 KECCAK256 SLOAD PUSH2 0x2981 SWAP1 PUSH1 0x1 PUSH2 0x38E7 JUMP JUMPDEST PUSH1 0x15 SLOAD PUSH1 0x0 SWAP1 DUP2 MSTORE PUSH1 0x13 PUSH1 0x20 SWAP1 DUP2 MSTORE PUSH1 0x40 DUP1 DUP4 KECCAK256 DUP15 DUP5 MSTORE SWAP1 SWAP2 MSTORE DUP2 KECCAK256 SWAP2 SWAP1 SWAP2 SSTORE PUSH2 0x29B7 PUSH1 0x64 PUSH2 0x29B1 DUP8 PUSH1 0x19 PUSH2 0x4142 JUMP JUMPDEST SWAP1 PUSH2 0x419B JUMP JUMPDEST PUSH1 0x0 DUP13 DUP2 MSTORE PUSH1 0xE PUSH1 0x20 MSTORE PUSH1 0x40 DUP1 DUP3 KECCAK256 SLOAD SWAP1 MLOAD SWAP3 SWAP4 POP PUSH1 0x1 PUSH1 0x1 PUSH1 0xA0 SHL SUB AND SWAP2 DUP3 SWAP1 DUP5 SWAP1 DUP4 DUP2 DUP2 DUP2 DUP6 DUP8 GAS CALL SWAP3 POP POP POP RETURNDATASIZE DUP1 PUSH1 0x0 DUP2 EQ PUSH2 0x2A12 JUMPI PUSH1 0x40 MLOAD SWAP2 POP PUSH1 0x1F NOT PUSH1 0x3F RETURNDATASIZE ADD AND DUP3 ADD PUSH1 0x40 MSTORE RETURNDATASIZE DUP3 MSTORE RETURNDATASIZE PUSH1 0x0 PUSH1 0x20 DUP5 ADD RETURNDATACOPY PUSH2 0x2A17 JUMP JUMPDEST PUSH1 0x60 SWAP2 POP JUMPDEST POP POP SWAP1 POP DUP1 PUSH2 0x2A5E JUMPI PUSH1 0x40 DUP1 MLOAD PUSH3 0x461BCD PUSH1 0xE5 SHL DUP2 MSTORE PUSH1 0x20 PUSH1 0x4 DUP3 ADD MSTORE PUSH1 0xE PUSH1 0x24 DUP3 ADD MSTORE PUSH14 0x14185E5B595B9D0819985A5B1959 PUSH1 0x92 SHL PUSH1 0x44 DUP3 ADD MSTORE SWAP1 MLOAD SWAP1 DUP2 SWAP1 SUB PUSH1 0x64 ADD SWAP1 REVERT JUMPDEST PUSH1 0x0 PUSH2 0x2A70 PUSH1 0x64 PUSH2 0x29B1 DUP11 PUSH1 0x19 PUSH2 0x4142 JUMP JUMPDEST PUSH1 0xB SLOAD SWAP1 SWAP2 POP PUSH2 0x2A80 SWAP1 DUP3 PUSH2 0x38E7 JUMP JUMPDEST PUSH1 0xB SSTORE PUSH2 0x2AA3 PUSH2 0x2A9A DUP3 PUSH2 0x2A94 DUP12 DUP9 PUSH2 0x4202 JUMP JUMPDEST SWAP1 PUSH2 0x4202 JUMP JUMPDEST PUSH1 0xA SLOAD SWAP1 PUSH2 0x38E7 JUMP JUMPDEST PUSH1 0xA SSTORE PUSH2 0x2AAF DUP9 PUSH2 0x3A4D JUMP JUMPDEST PUSH32 0xF34A510082F5A02E39555458564800FC1FE73BFD8D3AA07CBF063FE662E7657E DUP8 PUSH2 0x2AD9 PUSH2 0x3941 JUMP JUMPDEST PUSH1 0x40 DUP1 MLOAD SWAP3 DUP4 MSTORE PUSH1 0x1 PUSH1 0x1 PUSH1 0xA0 SHL SUB SWAP1 SWAP2 AND PUSH1 0x20 DUP4 ADD MSTORE DUP1 MLOAD SWAP2 DUP3 SWAP1 SUB ADD SWAP1 LOG1 POP SWAP5 SWAP13 SWAP12 POP POP POP POP POP POP POP POP POP POP POP POP JUMP JUMPDEST PUSH1 0x0 DUP1 PUSH1 0x0 DUP1 DUP5 PUSH1 0x7 DUP2 GT PUSH2 0x2B1F JUMPI PUSH1 0x0 DUP1 REVERT JUMPDEST PUSH1 0x0 DUP2 DUP2 MSTORE PUSH1 0x12 PUSH1 0x20 MSTORE PUSH1 0x40 SWAP1 KECCAK256 SLOAD PUSH1 0xFF AND PUSH2 0x2B3A JUMPI PUSH1 0x0 DUP1 REVERT JUMPDEST POP POP POP PUSH1 0x0 SWAP3 DUP4 MSTORE POP POP PUSH1 0x12 PUSH1 0x20 MSTORE PUSH1 0x40 SWAP1 KECCAK256 PUSH1 0x8 ADD SLOAD PUSH1 0xFF PUSH6 0x10000000000 DUP3 DIV DUP2 AND SWAP3 PUSH1 0x1 PUSH1 0x30 SHL DUP4 DIV DUP3 AND SWAP3 PUSH1 0x1 PUSH1 0x38 SHL DUP2 DIV DUP4 AND SWAP3 PUSH1 0x1 PUSH1 0x40 SHL SWAP1 SWAP2 DIV AND SWAP1 JUMP JUMPDEST PUSH1 0xD SLOAD JUMPDEST SWAP1 JUMP JUMPDEST PUSH1 0x60 DUP2 MLOAD DUP4 MLOAD EQ PUSH2 0x2BC8 JUMPI PUSH1 0x40 MLOAD PUSH3 0x461BCD PUSH1 0xE5 SHL DUP2 MSTORE PUSH1 0x4 ADD DUP1 DUP1 PUSH1 0x20 ADD DUP3 DUP2 SUB DUP3 MSTORE PUSH1 0x29 DUP2 MSTORE PUSH1 0x20 ADD DUP1 PUSH2 0x5AD9 PUSH1 0x29 SWAP2 CODECOPY PUSH1 0x40 ADD SWAP2 POP POP PUSH1 0x40 MLOAD DUP1 SWAP2 SUB SWAP1 REVERT JUMPDEST PUSH1 0x60 DUP4 MLOAD PUSH8 0xFFFFFFFFFFFFFFFF DUP2 GT DUP1 ISZERO PUSH2 0x2BE2 JUMPI PUSH1 0x0 DUP1 REVERT JUMPDEST POP PUSH1 0x40 MLOAD SWAP1 DUP1 DUP3 MSTORE DUP1 PUSH1 0x20 MUL PUSH1 0x20 ADD DUP3 ADD PUSH1 0x40 MSTORE DUP1 ISZERO PUSH2 0x2C0C JUMPI DUP2 PUSH1 0x20 ADD PUSH1 0x20 DUP3 MUL DUP1 CALLDATASIZE DUP4 CALLDATACOPY ADD SWAP1 POP JUMPDEST POP SWAP1 POP PUSH1 0x0 JUMPDEST DUP5 MLOAD DUP2 LT ISZERO PUSH2 0x2C6A JUMPI PUSH2 0x2C4B DUP6 DUP3 DUP2 MLOAD DUP2 LT PUSH2 0x2C2A JUMPI INVALID JUMPDEST PUSH1 0x20 MUL PUSH1 0x20 ADD ADD MLOAD DUP6 DUP4 DUP2 MLOAD DUP2 LT PUSH2 0x2C3E JUMPI INVALID JUMPDEST PUSH1 0x20 MUL PUSH1 0x20 ADD ADD MLOAD PUSH2 0x13D1 JUMP JUMPDEST DUP3 DUP3 DUP2 MLOAD DUP2 LT PUSH2 0x2C57 JUMPI INVALID JUMPDEST PUSH1 0x20 SWAP1 DUP2 MUL SWAP2 SWAP1 SWAP2 ADD ADD MSTORE PUSH1 0x1 ADD PUSH2 0x2C12 JUMP JUMPDEST POP SWAP4 SWAP3 POP POP POP JUMP JUMPDEST PUSH1 0x0 DUP2 PUSH1 0x7 DUP2 GT PUSH2 0x2C82 JUMPI PUSH1 0x0 DUP1 REVERT JUMPDEST PUSH1 0x0 DUP2 DUP2 MSTORE PUSH1 0x12 PUSH1 0x20 MSTORE PUSH1 0x40 SWAP1 KECCAK256 SLOAD PUSH1 0xFF AND PUSH2 0x2C9D JUMPI PUSH1 0x0 DUP1 REVERT JUMPDEST PUSH1 0x0 DUP4 DUP2 MSTORE PUSH1 0x11 PUSH1 0x20 MSTORE PUSH1 0x40 SWAP1 KECCAK256 SLOAD PUSH1 0x1 PUSH1 0x1 PUSH1 0xA0 SHL SUB AND PUSH2 0x2CBE JUMPI PUSH1 0x0 DUP1 REVERT JUMPDEST POP POP PUSH1 0x0 SWAP1 DUP2 MSTORE PUSH1 0x11 PUSH1 0x20 MSTORE PUSH1 0x40 SWAP1 KECCAK256 SLOAD PUSH1 0x1 PUSH1 0x1 PUSH1 0xA0 SHL SUB AND SWAP1 JUMP JUMPDEST PUSH1 0x0 DUP2 PUSH1 0x0 DUP2 GT DUP1 ISZERO PUSH2 0x2CEF JUMPI POP PUSH1 0x7 DUP2 GT ISZERO JUMPDEST PUSH2 0x2CF8 JUMPI PUSH1 0x0 DUP1 REVERT JUMPDEST PUSH1 0x15 SLOAD DUP5 GT ISZERO PUSH2 0x2D07 JUMPI PUSH1 0x0 DUP1 REVERT JUMPDEST POP POP PUSH1 0x0 SWAP2 DUP3 MSTORE PUSH1 0x13 PUSH1 0x20 SWAP1 DUP2 MSTORE PUSH1 0x40 DUP1 DUP5 KECCAK256 SWAP3 DUP5 MSTORE SWAP2 SWAP1 MSTORE SWAP1 KECCAK256 SLOAD SWAP1 JUMP JUMPDEST PUSH1 0x1C PUSH1 0x20 SWAP1 DUP2 MSTORE PUSH1 0x0 SWAP2 DUP3 MSTORE PUSH1 0x40 SWAP2 DUP3 SWAP1 KECCAK256 DUP1 SLOAD DUP4 MLOAD PUSH1 0x1F PUSH1 0x2 PUSH1 0x0 NOT PUSH2 0x100 PUSH1 0x1 DUP7 AND ISZERO MUL ADD SWAP1 SWAP4 AND SWAP3 SWAP1 SWAP3 DIV SWAP2 DUP3 ADD DUP5 SWAP1 DIV DUP5 MUL DUP2 ADD DUP5 ADD SWAP1 SWAP5 MSTORE DUP1 DUP5 MSTORE SWAP1 SWAP2 DUP4 ADD DUP3 DUP3 DUP1 ISZERO PUSH2 0x2DB9 JUMPI DUP1 PUSH1 0x1F LT PUSH2 0x2D8E JUMPI PUSH2 0x100 DUP1 DUP4 SLOAD DIV MUL DUP4 MSTORE SWAP2 PUSH1 0x20 ADD SWAP2 PUSH2 0x2DB9 JUMP JUMPDEST DUP3 ADD SWAP2 SWAP1 PUSH1 0x0 MSTORE PUSH1 0x20 PUSH1 0x0 KECCAK256 SWAP1 JUMPDEST DUP2 SLOAD DUP2 MSTORE SWAP1 PUSH1 0x1 ADD SWAP1 PUSH1 0x20 ADD DUP1 DUP4 GT PUSH2 0x2D9C JUMPI DUP3 SWAP1 SUB PUSH1 0x1F AND DUP3 ADD SWAP2 JUMPDEST POP POP POP POP POP DUP2 JUMP JUMPDEST PUSH1 0x0 DUP2 PUSH1 0x0 DUP2 GT DUP1 ISZERO PUSH2 0x2DD5 JUMPI POP PUSH1 0x7 DUP2 GT ISZERO JUMPDEST PUSH2 0x2DDE JUMPI PUSH1 0x0 DUP1 REVERT JUMPDEST PUSH1 0x0 DUP4 DUP2 MSTORE PUSH1 0xE PUSH1 0x20 MSTORE PUSH1 0x40 SWAP1 KECCAK256 SLOAD PUSH1 0x1 PUSH1 0x1 PUSH1 0xA0 SHL SUB AND PUSH2 0x2DFF JUMPI PUSH1 0x0 DUP1 REVERT JUMPDEST POP POP PUSH1 0x0 SWAP1 DUP2 MSTORE PUSH1 0xE PUSH1 0x20 MSTORE PUSH1 0x40 SWAP1 KECCAK256 SLOAD PUSH1 0x1 PUSH1 0x1 PUSH1 0xA0 SHL SUB AND SWAP1 JUMP JUMPDEST PUSH1 0x14 SLOAD DUP2 JUMP JUMPDEST PUSH1 0x0 DUP1 PUSH1 0x0 DUP1 PUSH1 0x0 DUP1 DUP7 PUSH1 0x7 DUP2 GT PUSH2 0x2E39 JUMPI PUSH1 0x0 DUP1 REVERT JUMPDEST PUSH1 0x0 DUP2 DUP2 MSTORE PUSH1 0x12 PUSH1 0x20 MSTORE PUSH1 0x40 SWAP1 KECCAK256 SLOAD PUSH1 0xFF AND PUSH2 0x2E54 JUMPI PUSH1 0x0 DUP1 REVERT JUMPDEST POP POP POP PUSH1 0x0 SWAP5 DUP6 MSTORE POP POP PUSH1 0x12 PUSH1 0x20 MSTORE POP POP PUSH1 0x40 SWAP1 KECCAK256 PUSH1 0x8 ADD SLOAD PUSH1 0xFF PUSH1 0x1 PUSH1 0x68 SHL DUP3 DIV DUP2 AND SWAP3 PUSH1 0x1 PUSH1 0x70 SHL DUP4 DIV DUP3 AND SWAP3 PUSH1 0x1 PUSH1 0x78 SHL DUP2 DIV DUP4 AND SWAP3 PUSH1 0x1 PUSH1 0x80 SHL DUP3 DIV DUP2 AND SWAP3 PUSH1 0x1 PUSH1 0x88 SHL DUP4 DIV DUP3 AND SWAP3 PUSH1 0x1 PUSH1 0x90 SHL SWAP1 DIV SWAP1 SWAP2 AND SWAP1 JUMP JUMPDEST PUSH1 0x0 DUP1 PUSH1 0x0 DUP1 DUP5 PUSH1 0x7 DUP2 GT PUSH2 0x2EC2 JUMPI PUSH1 0x0 DUP1 REVERT JUMPDEST PUSH1 0x0 DUP2 DUP2 MSTORE PUSH1 0x12 PUSH1 0x20 MSTORE PUSH1 0x40 SWAP1 KECCAK256 SLOAD PUSH1 0xFF AND PUSH2 0x2EDD JUMPI PUSH1 0x0 DUP1 REVERT JUMPDEST POP POP POP PUSH1 0x0 SWAP3 DUP4 MSTORE POP POP PUSH1 0x12 PUSH1 0x20 MSTORE PUSH1 0x40 SWAP1 KECCAK256 PUSH1 0x8 ADD SLOAD PUSH1 0xFF PUSH2 0x100 DUP3 DIV DUP2 AND SWAP3 PUSH3 0x10000 DUP4 DIV DUP3 AND SWAP3 PUSH4 0x1000000 DUP2 DIV DUP4 AND SWAP3 PUSH1 0x1 PUSH1 0x20 SHL SWAP1 SWAP2 DIV AND SWAP1 JUMP JUMPDEST PUSH1 0x15 SLOAD DUP2 JUMP JUMPDEST PUSH1 0x0 DUP3 DUP2 MSTORE PUSH1 0x20 DUP2 SWAP1 MSTORE PUSH1 0x40 DUP2 KECCAK256 PUSH2 0x2F3B SWAP1 DUP4 PUSH2 0x425F JUMP JUMPDEST SWAP4 SWAP3 POP POP POP JUMP JUMPDEST PUSH1 0x7 DUP2 JUMP JUMPDEST PUSH1 0x0 DUP3 DUP2 MSTORE PUSH1 0x20 DUP2 SWAP1 MSTORE PUSH1 0x40 DUP2 KECCAK256 PUSH2 0x2F3B SWAP1 DUP4 PUSH2 0x38D2 JUMP JUMPDEST CALLER PUSH1 0x1 PUSH1 0x1 PUSH1 0xA0 SHL SUB PUSH32 0x0 AND EQ PUSH2 0x2FDC JUMPI PUSH1 0x40 DUP1 MLOAD PUSH3 0x461BCD PUSH1 0xE5 SHL DUP2 MSTORE PUSH1 0x20 PUSH1 0x4 DUP3 ADD MSTORE PUSH1 0x1F PUSH1 0x24 DUP3 ADD MSTORE PUSH32 0x4F6E6C7920565246436F6F7264696E61746F722063616E2066756C66696C6C00 PUSH1 0x44 DUP3 ADD MSTORE SWAP1 MLOAD SWAP1 DUP2 SWAP1 SUB PUSH1 0x64 ADD SWAP1 REVERT JUMPDEST PUSH2 0x2197 DUP3 DUP3 PUSH2 0x426B JUMP JUMPDEST PUSH2 0x2FFD PUSH1 0x0 DUP1 MLOAD PUSH1 0x20 PUSH2 0x5A22 DUP4 CODECOPY DUP2 MLOAD SWAP2 MSTORE PUSH2 0x4285 JUMP JUMPDEST DUP1 PUSH1 0x16 DUP5 DUP5 PUSH1 0x40 MLOAD DUP1 DUP4 DUP4 DUP1 DUP3 DUP5 CALLDATACOPY SWAP2 SWAP1 SWAP2 ADD SWAP5 DUP6 MSTORE POP POP PUSH1 0x40 MLOAD SWAP3 DUP4 SWAP1 SUB PUSH1 0x20 ADD SWAP1 SWAP3 KECCAK256 DUP1 SLOAD PUSH1 0x1 PUSH1 0x1 PUSH1 0xA0 SHL SUB SWAP5 SWAP1 SWAP5 AND PUSH1 0x1 PUSH1 0x1 PUSH1 0xA0 SHL SUB NOT SWAP1 SWAP5 AND SWAP4 SWAP1 SWAP4 OR SWAP1 SWAP3 SSTORE POP POP PUSH1 0x17 DUP1 SLOAD PUSH1 0x1 DUP2 ADD DUP3 SSTORE PUSH1 0x0 SWAP2 SWAP1 SWAP2 MSTORE PUSH2 0x3082 SWAP1 PUSH32 0xC624B66CC0138B8FABC209247F72D758E1CF3343756D543BADBF24212BED8C15 ADD DUP5 DUP5 PUSH2 0x5747 JUMP JUMPDEST POP POP POP POP JUMP JUMPDEST PUSH1 0x1 DUP1 PUSH1 0x6 SLOAD PUSH1 0xFF AND PUSH1 0x1 DUP2 GT ISZERO PUSH2 0x309C JUMPI INVALID JUMPDEST EQ PUSH2 0x30A6 JUMPI PUSH1 0x0 DUP1 REVERT JUMPDEST PUSH2 0x30CF PUSH32 0xAE0C232B87105E0A8134F8B92146DCD1D99373D32394BE9D70F700F90B3A3DB3 PUSH2 0x4285 JUMP JUMPDEST PUSH1 0x15 SLOAD PUSH1 0x0 SWAP1 DUP2 MSTORE PUSH1 0x1C PUSH1 0x20 MSTORE PUSH1 0x40 SWAP1 KECCAK256 PUSH2 0x3082 SWAP1 DUP5 DUP5 PUSH2 0x5747 JUMP JUMPDEST PUSH1 0x0 DUP1 PUSH1 0x6 SLOAD PUSH1 0xFF AND PUSH1 0x1 DUP2 GT ISZERO PUSH2 0x30FF JUMPI INVALID JUMPDEST EQ DUP1 ISZERO PUSH2 0x3112 JUMPI POP PUSH1 0x7 SLOAD PUSH1 0x9 SLOAD ADD TIMESTAMP LT ISZERO JUMPDEST ISZERO PUSH2 0x3124 JUMPI PUSH2 0x311F PUSH2 0x4298 JUMP JUMPDEST PUSH2 0x3157 JUMP JUMPDEST PUSH1 0x1 PUSH1 0x6 SLOAD PUSH1 0xFF AND PUSH1 0x1 DUP2 GT ISZERO PUSH2 0x3137 JUMPI INVALID JUMPDEST EQ DUP1 ISZERO PUSH2 0x314A JUMPI POP PUSH1 0x8 SLOAD PUSH1 0x9 SLOAD ADD TIMESTAMP LT ISZERO JUMPDEST ISZERO PUSH2 0x3157 JUMPI PUSH2 0x3157 PUSH2 0x4298 JUMP JUMPDEST POP JUMP JUMPDEST PUSH1 0x0 DUP2 JUMP JUMPDEST DUP2 PUSH1 0x1 PUSH1 0x1 PUSH1 0xA0 SHL SUB AND PUSH2 0x3171 PUSH2 0x3941 JUMP JUMPDEST PUSH1 0x1 PUSH1 0x1 PUSH1 0xA0 SHL SUB AND EQ ISZERO PUSH2 0x31B7 JUMPI PUSH1 0x40 MLOAD PUSH3 0x461BCD PUSH1 0xE5 SHL DUP2 MSTORE PUSH1 0x4 ADD DUP1 DUP1 PUSH1 0x20 ADD DUP3 DUP2 SUB DUP3 MSTORE PUSH1 0x29 DUP2 MSTORE PUSH1 0x20 ADD DUP1 PUSH2 0x5AB0 PUSH1 0x29 SWAP2 CODECOPY PUSH1 0x40 ADD SWAP2 POP POP PUSH1 0x40 MLOAD DUP1 SWAP2 SUB SWAP1 REVERT JUMPDEST DUP1 PUSH1 0x3 PUSH1 0x0 PUSH2 0x31C4 PUSH2 0x3941 JUMP JUMPDEST PUSH1 0x1 PUSH1 0x1 PUSH1 0xA0 SHL SUB SWAP1 DUP2 AND DUP3 MSTORE PUSH1 0x20 DUP1 DUP4 ADD SWAP4 SWAP1 SWAP4 MSTORE PUSH1 0x40 SWAP2 DUP3 ADD PUSH1 0x0 SWAP1 DUP2 KECCAK256 SWAP2 DUP8 AND DUP1 DUP3 MSTORE SWAP2 SWAP1 SWAP4 MSTORE SWAP2 KECCAK256 DUP1 SLOAD PUSH1 0xFF NOT AND SWAP3 ISZERO ISZERO SWAP3 SWAP1 SWAP3 OR SWAP1 SWAP2 SSTORE PUSH2 0x3208 PUSH2 0x3941 JUMP JUMPDEST PUSH1 0x1 PUSH1 0x1 PUSH1 0xA0 SHL SUB AND PUSH32 0x17307EAB39AB6107E8899845AD3D59BD9653F200F220920489CA2B5937696C31 DUP4 PUSH1 0x40 MLOAD DUP1 DUP3 ISZERO ISZERO DUP2 MSTORE PUSH1 0x20 ADD SWAP2 POP POP PUSH1 0x40 MLOAD DUP1 SWAP2 SUB SWAP1 LOG3 POP POP JUMP JUMPDEST PUSH1 0x0 DUP1 PUSH1 0x6 SLOAD PUSH1 0xFF AND PUSH1 0x1 DUP2 GT ISZERO PUSH2 0x3262 JUMPI INVALID JUMPDEST EQ PUSH2 0x326C JUMPI PUSH1 0x0 DUP1 REVERT JUMPDEST DUP2 PUSH1 0x7 DUP2 GT PUSH2 0x327A JUMPI PUSH1 0x0 DUP1 REVERT JUMPDEST PUSH1 0x0 DUP2 DUP2 MSTORE PUSH1 0x12 PUSH1 0x20 MSTORE PUSH1 0x40 SWAP1 KECCAK256 SLOAD PUSH1 0xFF AND PUSH2 0x3295 JUMPI PUSH1 0x0 DUP1 REVERT JUMPDEST PUSH1 0x15 SLOAD PUSH1 0x0 DUP5 DUP2 MSTORE PUSH1 0x12 PUSH1 0x20 MSTORE PUSH1 0x40 SWAP1 KECCAK256 PUSH1 0x4 ADD SLOAD EQ PUSH2 0x32B4 JUMPI PUSH1 0x0 DUP1 REVERT JUMPDEST PUSH1 0x1C PUSH1 0x0 PUSH1 0x15 SLOAD DUP2 MSTORE PUSH1 0x20 ADD SWAP1 DUP2 MSTORE PUSH1 0x20 ADD PUSH1 0x0 KECCAK256 PUSH1 0x40 MLOAD DUP1 DUP3 DUP1 SLOAD PUSH1 0x1 DUP2 PUSH1 0x1 AND ISZERO PUSH2 0x100 MUL SUB AND PUSH1 0x2 SWAP1 DIV DUP1 ISZERO PUSH2 0x3324 JUMPI DUP1 PUSH1 0x1F LT PUSH2 0x3302 JUMPI PUSH2 0x100 DUP1 DUP4 SLOAD DIV MUL DUP4 MSTORE SWAP2 DUP3 ADD SWAP2 PUSH2 0x3324 JUMP JUMPDEST DUP3 ADD SWAP2 SWAP1 PUSH1 0x0 MSTORE PUSH1 0x20 PUSH1 0x0 KECCAK256 SWAP1 JUMPDEST DUP2 SLOAD DUP2 MSTORE SWAP1 PUSH1 0x1 ADD SWAP1 PUSH1 0x20 ADD DUP1 DUP4 GT PUSH2 0x3310 JUMPI JUMPDEST POP POP SWAP2 POP POP PUSH1 0x40 MLOAD DUP1 SWAP2 SUB SWAP1 KECCAK256 PUSH1 0x12 PUSH1 0x0 DUP6 DUP2 MSTORE PUSH1 0x20 ADD SWAP1 DUP2 MSTORE PUSH1 0x20 ADD PUSH1 0x0 KECCAK256 PUSH1 0x2 ADD PUSH1 0x40 MLOAD DUP1 DUP3 DUP1 SLOAD PUSH1 0x1 DUP2 PUSH1 0x1 AND ISZERO PUSH2 0x100 MUL SUB AND PUSH1 0x2 SWAP1 DIV DUP1 ISZERO PUSH2 0x33A2 JUMPI DUP1 PUSH1 0x1F LT PUSH2 0x3380 JUMPI PUSH2 0x100 DUP1 DUP4 SLOAD DIV MUL DUP4 MSTORE SWAP2 DUP3 ADD SWAP2 PUSH2 0x33A2 JUMP JUMPDEST DUP3 ADD SWAP2 SWAP1 PUSH1 0x0 MSTORE PUSH1 0x20 PUSH1 0x0 KECCAK256 SWAP1 JUMPDEST DUP2 SLOAD DUP2 MSTORE SWAP1 PUSH1 0x1 ADD SWAP1 PUSH1 0x20 ADD DUP1 DUP4 GT PUSH2 0x338E JUMPI JUMPDEST POP POP SWAP2 POP POP PUSH1 0x40 MLOAD DUP1 SWAP2 SUB SWAP1 KECCAK256 EQ PUSH2 0x33B9 JUMPI PUSH1 0x0 DUP1 REVERT JUMPDEST PUSH1 0x0 DUP4 DUP2 MSTORE PUSH1 0x1D PUSH1 0x20 SWAP1 DUP2 MSTORE PUSH1 0x40 DUP1 DUP4 KECCAK256 PUSH1 0x15 SLOAD DUP5 MSTORE SWAP1 SWAP2 MSTORE SWAP1 KECCAK256 SLOAD PUSH1 0xFF AND ISZERO PUSH2 0x33E2 JUMPI PUSH1 0x0 DUP1 REVERT JUMPDEST PUSH1 0x0 DUP4 DUP2 MSTORE PUSH1 0x11 PUSH1 0x20 MSTORE PUSH1 0x40 DUP1 DUP3 KECCAK256 SLOAD PUSH1 0xC SLOAD SWAP2 MLOAD PUSH1 0x1 PUSH1 0x1 PUSH1 0xA0 SHL SUB SWAP1 SWAP2 AND SWAP2 SWAP1 DUP4 DUP2 DUP2 DUP2 DUP6 DUP8 GAS CALL SWAP3 POP POP POP RETURNDATASIZE DUP1 PUSH1 0x0 DUP2 EQ PUSH2 0x343C JUMPI PUSH1 0x40 MLOAD SWAP2 POP PUSH1 0x1F NOT PUSH1 0x3F RETURNDATASIZE ADD AND DUP3 ADD PUSH1 0x40 MSTORE RETURNDATASIZE DUP3 MSTORE RETURNDATASIZE PUSH1 0x0 PUSH1 0x20 DUP5 ADD RETURNDATACOPY PUSH2 0x3441 JUMP JUMPDEST PUSH1 0x60 SWAP2 POP JUMPDEST POP POP SWAP1 POP DUP1 PUSH2 0x3488 JUMPI PUSH1 0x40 DUP1 MLOAD PUSH3 0x461BCD PUSH1 0xE5 SHL DUP2 MSTORE PUSH1 0x20 PUSH1 0x4 DUP3 ADD MSTORE PUSH1 0xE PUSH1 0x24 DUP3 ADD MSTORE PUSH14 0x14185E5B595B9D0819985A5B1959 PUSH1 0x92 SHL PUSH1 0x44 DUP3 ADD MSTORE SWAP1 MLOAD SWAP1 DUP2 SWAP1 SUB PUSH1 0x64 ADD SWAP1 REVERT JUMPDEST PUSH1 0xC SLOAD PUSH1 0xA SLOAD PUSH2 0x3497 SWAP2 PUSH2 0x4202 JUMP JUMPDEST PUSH1 0xA SSTORE POP POP POP PUSH1 0x0 SWAP1 DUP2 MSTORE PUSH1 0x1D PUSH1 0x20 SWAP1 DUP2 MSTORE PUSH1 0x40 DUP1 DUP4 KECCAK256 PUSH1 0x15 SLOAD DUP5 MSTORE SWAP1 SWAP2 MSTORE SWAP1 KECCAK256 DUP1 SLOAD PUSH1 0xFF NOT AND PUSH1 0x1 OR SWAP1 SSTORE JUMP JUMPDEST PUSH1 0x60 PUSH2 0x3082 DUP5 DUP5 PUSH1 0x0 DUP6 DUP6 PUSH2 0x368D JUMP JUMPDEST PUSH1 0xD SLOAD DUP2 JUMP JUMPDEST PUSH2 0x34F2 PUSH1 0x0 DUP1 MLOAD PUSH1 0x20 PUSH2 0x5A22 DUP4 CODECOPY DUP2 MLOAD SWAP2 MSTORE PUSH2 0x4285 JUMP JUMPDEST PUSH1 0x6 DUP1 SLOAD DUP3 SWAP2 SWAP1 PUSH1 0xFF NOT AND PUSH1 0x1 DUP4 DUP2 DUP2 GT ISZERO PUSH2 0x350A JUMPI INVALID JUMPDEST MUL OR SWAP1 SSTORE POP POP JUMP JUMPDEST PUSH1 0x0 DUP2 DUP2 MSTORE PUSH1 0x20 DUP2 SWAP1 MSTORE PUSH1 0x40 DUP2 KECCAK256 PUSH2 0x143D SWAP1 PUSH2 0x4462 JUMP JUMPDEST PUSH1 0x10 SLOAD DUP2 JUMP JUMPDEST PUSH2 0x3546 PUSH1 0x0 DUP1 MLOAD PUSH1 0x20 PUSH2 0x5A22 DUP4 CODECOPY DUP2 MLOAD SWAP2 MSTORE PUSH2 0x4285 JUMP JUMPDEST PUSH3 0x15180 MUL PUSH1 0x8 SSTORE JUMP JUMPDEST PUSH2 0x3567 PUSH1 0x0 DUP1 MLOAD PUSH1 0x20 PUSH2 0x5A22 DUP4 CODECOPY DUP2 MLOAD SWAP2 MSTORE PUSH2 0x4285 JUMP JUMPDEST PUSH3 0x15180 MUL PUSH1 0x7 SSTORE JUMP JUMPDEST PUSH1 0x0 DUP3 DUP2 MSTORE PUSH1 0x20 DUP2 SWAP1 MSTORE PUSH1 0x40 SWAP1 KECCAK256 PUSH1 0x2 ADD SLOAD PUSH2 0x358F SWAP1 PUSH2 0x214D PUSH2 0x3941 JUMP JUMPDEST PUSH2 0x21F2 JUMPI PUSH1 0x40 MLOAD PUSH3 0x461BCD PUSH1 0xE5 SHL DUP2 MSTORE PUSH1 0x4 ADD DUP1 DUP1 PUSH1 0x20 ADD DUP3 DUP2 SUB DUP3 MSTORE PUSH1 0x30 DUP2 MSTORE PUSH1 0x20 ADD DUP1 PUSH2 0x599B PUSH1 0x30 SWAP2 CODECOPY PUSH1 0x40 ADD SWAP2 POP POP PUSH1 0x40 MLOAD DUP1 SWAP2 SUB SWAP1 REVERT JUMPDEST PUSH1 0xA SLOAD DUP2 JUMP JUMPDEST PUSH2 0x35E7 PUSH1 0x0 DUP1 MLOAD PUSH1 0x20 PUSH2 0x5A22 DUP4 CODECOPY DUP2 MLOAD SWAP2 MSTORE PUSH2 0x4285 JUMP JUMPDEST PUSH1 0x14 SSTORE JUMP JUMPDEST PUSH1 0x17 DUP2 DUP2 SLOAD DUP2 LT PUSH2 0x35F9 JUMPI INVALID JUMPDEST PUSH1 0x0 SWAP2 DUP3 MSTORE PUSH1 0x20 SWAP2 DUP3 SWAP1 KECCAK256 ADD DUP1 SLOAD PUSH1 0x40 DUP1 MLOAD PUSH1 0x1F PUSH1 0x2 PUSH1 0x0 NOT PUSH2 0x100 PUSH1 0x1 DUP8 AND ISZERO MUL ADD SWAP1 SWAP5 AND SWAP4 SWAP1 SWAP4 DIV SWAP3 DUP4 ADD DUP6 SWAP1 DIV DUP6 MUL DUP2 ADD DUP6 ADD SWAP1 SWAP2 MSTORE DUP2 DUP2 MSTORE SWAP4 POP SWAP1 SWAP2 DUP4 ADD DUP3 DUP3 DUP1 ISZERO PUSH2 0x2DB9 JUMPI DUP1 PUSH1 0x1F LT PUSH2 0x2D8E JUMPI PUSH2 0x100 DUP1 DUP4 SLOAD DIV MUL DUP4 MSTORE SWAP2 PUSH1 0x20 ADD SWAP2 PUSH2 0x2DB9 JUMP JUMPDEST PUSH1 0x1 PUSH1 0x1 PUSH1 0xA0 SHL SUB SWAP2 DUP3 AND PUSH1 0x0 SWAP1 DUP2 MSTORE PUSH1 0x3 PUSH1 0x20 SWAP1 DUP2 MSTORE PUSH1 0x40 DUP1 DUP4 KECCAK256 SWAP4 SWAP1 SWAP5 AND DUP3 MSTORE SWAP2 SWAP1 SWAP2 MSTORE KECCAK256 SLOAD PUSH1 0xFF AND SWAP1 JUMP JUMPDEST PUSH1 0x1 PUSH1 0x1 PUSH1 0xA0 SHL SUB DUP5 AND PUSH2 0x36D2 JUMPI PUSH1 0x40 MLOAD PUSH3 0x461BCD PUSH1 0xE5 SHL DUP2 MSTORE PUSH1 0x4 ADD DUP1 DUP1 PUSH1 0x20 ADD DUP3 DUP2 SUB DUP3 MSTORE PUSH1 0x25 DUP2 MSTORE PUSH1 0x20 ADD DUP1 PUSH2 0x59CB PUSH1 0x25 SWAP2 CODECOPY PUSH1 0x40 ADD SWAP2 POP POP PUSH1 0x40 MLOAD DUP1 SWAP2 SUB SWAP1 REVERT JUMPDEST PUSH2 0x36DA PUSH2 0x3941 JUMP JUMPDEST PUSH1 0x1 PUSH1 0x1 PUSH1 0xA0 SHL SUB AND DUP6 PUSH1 0x1 PUSH1 0x1 PUSH1 0xA0 SHL SUB AND EQ DUP1 PUSH2 0x3700 JUMPI POP PUSH2 0x3700 DUP6 PUSH2 0x1DDD PUSH2 0x3941 JUMP JUMPDEST PUSH2 0x373B JUMPI PUSH1 0x40 MLOAD PUSH3 0x461BCD PUSH1 0xE5 SHL DUP2 MSTORE PUSH1 0x4 ADD DUP1 DUP1 PUSH1 0x20 ADD DUP3 DUP2 SUB DUP3 MSTORE PUSH1 0x29 DUP2 MSTORE PUSH1 0x20 ADD DUP1 PUSH2 0x5972 PUSH1 0x29 SWAP2 CODECOPY PUSH1 0x40 ADD SWAP2 POP POP PUSH1 0x40 MLOAD DUP1 SWAP2 SUB SWAP1 REVERT JUMPDEST PUSH1 0x0 PUSH2 0x3745 PUSH2 0x3941 JUMP JUMPDEST SWAP1 POP PUSH2 0x3765 DUP2 DUP8 DUP8 PUSH2 0x3756 DUP9 PUSH2 0x446D JUMP JUMPDEST PUSH2 0x375F DUP9 PUSH2 0x446D JUMP JUMPDEST DUP8 PUSH2 0x3ABB JUMP JUMPDEST PUSH2 0x37AC DUP4 PUSH1 0x40 MLOAD DUP1 PUSH1 0x60 ADD PUSH1 0x40 MSTORE DUP1 PUSH1 0x2A DUP2 MSTORE PUSH1 0x20 ADD PUSH2 0x5A65 PUSH1 0x2A SWAP2 CODECOPY PUSH1 0x0 DUP8 DUP2 MSTORE PUSH1 0x2 PUSH1 0x20 SWAP1 DUP2 MSTORE PUSH1 0x40 DUP1 DUP4 KECCAK256 PUSH1 0x1 PUSH1 0x1 PUSH1 0xA0 SHL SUB DUP14 AND DUP5 MSTORE SWAP1 SWAP2 MSTORE SWAP1 KECCAK256 SLOAD SWAP2 SWAP1 PUSH2 0x3BD6 JUMP JUMPDEST PUSH1 0x0 DUP6 DUP2 MSTORE PUSH1 0x2 PUSH1 0x20 SWAP1 DUP2 MSTORE PUSH1 0x40 DUP1 DUP4 KECCAK256 PUSH1 0x1 PUSH1 0x1 PUSH1 0xA0 SHL SUB DUP12 DUP2 AND DUP6 MSTORE SWAP3 MSTORE DUP1 DUP4 KECCAK256 SWAP4 SWAP1 SWAP4 SSTORE DUP8 AND DUP2 MSTORE KECCAK256 SLOAD PUSH2 0x37E3 SWAP1 DUP5 PUSH2 0x38E7 JUMP JUMPDEST PUSH1 0x0 DUP6 DUP2 MSTORE PUSH1 0x2 PUSH1 0x20 SWAP1 DUP2 MSTORE PUSH1 0x40 DUP1 DUP4 KECCAK256 PUSH1 0x1 PUSH1 0x1 PUSH1 0xA0 SHL SUB DUP1 DUP12 AND DUP1 DUP7 MSTORE SWAP2 DUP5 MSTORE SWAP4 DUP3 SWAP1 KECCAK256 SWAP5 SWAP1 SWAP5 SSTORE DUP1 MLOAD DUP9 DUP2 MSTORE SWAP2 DUP3 ADD DUP8 SWAP1 MSTORE DUP1 MLOAD DUP11 DUP5 AND SWAP4 DUP7 AND SWAP3 PUSH32 0xC3D58168C5AE7397731D063D5BBF3D657854427343F4C083240F7AACAA2D0F62 SWAP3 SWAP1 DUP3 SWAP1 SUB ADD SWAP1 LOG4 PUSH2 0x2025 DUP2 DUP8 DUP8 DUP8 DUP8 DUP8 PUSH2 0x44B1 JUMP JUMPDEST PUSH1 0x0 DUP2 PUSH1 0x0 DUP2 GT DUP1 ISZERO PUSH2 0x386C JUMPI POP PUSH1 0x7 DUP2 GT ISZERO JUMPDEST PUSH2 0x3875 JUMPI PUSH1 0x0 DUP1 REVERT JUMPDEST PUSH1 0x15 SLOAD DUP5 GT ISZERO PUSH2 0x3884 JUMPI PUSH1 0x0 DUP1 REVERT JUMPDEST PUSH1 0x0 DUP5 DUP2 MSTORE PUSH1 0x13 PUSH1 0x20 SWAP1 DUP2 MSTORE PUSH1 0x40 DUP1 DUP4 KECCAK256 DUP7 DUP5 MSTORE SWAP1 SWAP2 MSTORE DUP2 KECCAK256 SLOAD PUSH2 0x38A9 SWAP1 PUSH1 0x1 PUSH2 0x38E7 JUMP JUMPDEST SWAP1 POP PUSH2 0x38B4 DUP2 PUSH2 0x4622 JUMP JUMPDEST SWAP6 SWAP5 POP POP POP POP POP JUMP JUMPDEST PUSH1 0x0 PUSH2 0x2F3B DUP4 PUSH1 0x1 PUSH1 0x1 PUSH1 0xA0 SHL SUB DUP5 AND PUSH2 0x466C JUMP JUMPDEST PUSH1 0x0 PUSH2 0x2F3B DUP4 PUSH1 0x1 PUSH1 0x1 PUSH1 0xA0 SHL SUB DUP5 AND PUSH2 0x46B6 JUMP JUMPDEST PUSH1 0x0 DUP3 DUP3 ADD DUP4 DUP2 LT ISZERO PUSH2 0x2F3B JUMPI PUSH1 0x40 DUP1 MLOAD PUSH3 0x461BCD PUSH1 0xE5 SHL DUP2 MSTORE PUSH1 0x20 PUSH1 0x4 DUP3 ADD MSTORE PUSH1 0x1B PUSH1 0x24 DUP3 ADD MSTORE PUSH32 0x536166654D6174683A206164646974696F6E206F766572666C6F770000000000 PUSH1 0x44 DUP3 ADD MSTORE SWAP1 MLOAD SWAP1 DUP2 SWAP1 SUB PUSH1 0x64 ADD SWAP1 REVERT JUMPDEST CALLER SWAP1 JUMP JUMPDEST PUSH1 0x1 PUSH1 0x1 PUSH1 0xA0 SHL SUB DUP5 AND PUSH2 0x398A JUMPI PUSH1 0x40 MLOAD PUSH3 0x461BCD PUSH1 0xE5 SHL DUP2 MSTORE PUSH1 0x4 ADD DUP1 DUP1 PUSH1 0x20 ADD DUP3 DUP2 SUB DUP3 MSTORE PUSH1 0x21 DUP2 MSTORE PUSH1 0x20 ADD DUP1 PUSH2 0x5B2A PUSH1 0x21 SWAP2 CODECOPY PUSH1 0x40 ADD SWAP2 POP POP PUSH1 0x40 MLOAD DUP1 SWAP2 SUB SWAP1 REVERT JUMPDEST PUSH1 0x0 PUSH2 0x3994 PUSH2 0x3941 JUMP JUMPDEST SWAP1 POP PUSH2 0x39A6 DUP2 PUSH1 0x0 DUP8 PUSH2 0x3756 DUP9 PUSH2 0x446D JUMP JUMPDEST PUSH1 0x0 DUP5 DUP2 MSTORE PUSH1 0x2 PUSH1 0x20 SWAP1 DUP2 MSTORE PUSH1 0x40 DUP1 DUP4 KECCAK256 PUSH1 0x1 PUSH1 0x1 PUSH1 0xA0 SHL SUB DUP10 AND DUP5 MSTORE SWAP1 SWAP2 MSTORE SWAP1 KECCAK256 SLOAD PUSH2 0x39D3 SWAP1 DUP5 PUSH2 0x38E7 JUMP JUMPDEST PUSH1 0x0 DUP6 DUP2 MSTORE PUSH1 0x2 PUSH1 0x20 SWAP1 DUP2 MSTORE PUSH1 0x40 DUP1 DUP4 KECCAK256 PUSH1 0x1 PUSH1 0x1 PUSH1 0xA0 SHL SUB DUP1 DUP12 AND DUP1 DUP7 MSTORE SWAP2 DUP5 MSTORE DUP3 DUP6 KECCAK256 SWAP6 SWAP1 SWAP6 SSTORE DUP2 MLOAD DUP10 DUP2 MSTORE SWAP3 DUP4 ADD DUP9 SWAP1 MSTORE DUP2 MLOAD SWAP1 SWAP5 DUP7 AND SWAP3 PUSH32 0xC3D58168C5AE7397731D063D5BBF3D657854427343F4C083240F7AACAA2D0F62 SWAP3 SWAP1 DUP3 SWAP1 SUB ADD SWAP1 LOG4 PUSH2 0x3A46 DUP2 PUSH1 0x0 DUP8 DUP8 DUP8 DUP8 PUSH2 0x44B1 JUMP JUMPDEST POP POP POP POP POP JUMP JUMPDEST PUSH1 0x0 PUSH2 0x3A59 CALLVALUE DUP4 PUSH2 0x4202 JUMP JUMPDEST GT ISZERO PUSH2 0x3157 JUMPI PUSH1 0x0 CALLER PUSH2 0x3A6C CALLVALUE DUP5 PUSH2 0x4202 JUMP JUMPDEST PUSH1 0x40 MLOAD PUSH1 0x0 DUP2 DUP2 DUP2 DUP6 DUP8 GAS CALL SWAP3 POP POP POP RETURNDATASIZE DUP1 PUSH1 0x0 DUP2 EQ PUSH2 0x3AA8 JUMPI PUSH1 0x40 MLOAD SWAP2 POP PUSH1 0x1F NOT PUSH1 0x3F RETURNDATASIZE ADD AND DUP3 ADD PUSH1 0x40 MSTORE RETURNDATASIZE DUP3 MSTORE RETURNDATASIZE PUSH1 0x0 PUSH1 0x20 DUP5 ADD RETURNDATACOPY PUSH2 0x3AAD JUMP JUMPDEST PUSH1 0x60 SWAP2 POP JUMPDEST POP POP SWAP1 POP DUP1 PUSH2 0x2197 JUMPI PUSH1 0x0 DUP1 REVERT JUMPDEST PUSH2 0x3AC9 DUP7 DUP7 DUP7 DUP7 DUP7 DUP7 PUSH2 0x2025 JUMP JUMPDEST PUSH1 0x0 JUMPDEST DUP4 MLOAD DUP2 LT ISZERO PUSH2 0x3BCD JUMPI PUSH1 0x0 DUP5 DUP3 DUP2 MLOAD DUP2 LT PUSH2 0x3AE3 JUMPI INVALID JUMPDEST PUSH1 0x20 MUL PUSH1 0x20 ADD ADD MLOAD GT DUP1 ISZERO PUSH2 0x3B0C JUMPI POP PUSH1 0x7 DUP5 DUP3 DUP2 MLOAD DUP2 LT PUSH2 0x3B01 JUMPI INVALID JUMPDEST PUSH1 0x20 MUL PUSH1 0x20 ADD ADD MLOAD GT ISZERO JUMPDEST ISZERO PUSH2 0x3B5D JUMPI DUP5 PUSH1 0xE PUSH1 0x0 DUP7 DUP5 DUP2 MLOAD DUP2 LT PUSH2 0x3B22 JUMPI INVALID JUMPDEST PUSH1 0x20 MUL PUSH1 0x20 ADD ADD MLOAD DUP2 MSTORE PUSH1 0x20 ADD SWAP1 DUP2 MSTORE PUSH1 0x20 ADD PUSH1 0x0 KECCAK256 PUSH1 0x0 PUSH2 0x100 EXP DUP2 SLOAD DUP2 PUSH1 0x1 PUSH1 0x1 PUSH1 0xA0 SHL SUB MUL NOT AND SWAP1 DUP4 PUSH1 0x1 PUSH1 0x1 PUSH1 0xA0 SHL SUB AND MUL OR SWAP1 SSTORE POP JUMPDEST PUSH1 0x7 DUP5 DUP3 DUP2 MLOAD DUP2 LT PUSH2 0x3B6B JUMPI INVALID JUMPDEST PUSH1 0x20 MUL PUSH1 0x20 ADD ADD MLOAD GT ISZERO PUSH2 0x3BC5 JUMPI DUP5 PUSH1 0x11 PUSH1 0x0 DUP7 DUP5 DUP2 MLOAD DUP2 LT PUSH2 0x3B8A JUMPI INVALID JUMPDEST PUSH1 0x20 MUL PUSH1 0x20 ADD ADD MLOAD DUP2 MSTORE PUSH1 0x20 ADD SWAP1 DUP2 MSTORE PUSH1 0x20 ADD PUSH1 0x0 KECCAK256 PUSH1 0x0 PUSH2 0x100 EXP DUP2 SLOAD DUP2 PUSH1 0x1 PUSH1 0x1 PUSH1 0xA0 SHL SUB MUL NOT AND SWAP1 DUP4 PUSH1 0x1 PUSH1 0x1 PUSH1 0xA0 SHL SUB AND MUL OR SWAP1 SSTORE POP JUMPDEST PUSH1 0x1 ADD PUSH2 0x3ACC JUMP JUMPDEST POP POP POP POP POP POP POP JUMP JUMPDEST PUSH1 0x0 DUP2 DUP5 DUP5 GT ISZERO PUSH2 0x3C65 JUMPI PUSH1 0x40 MLOAD PUSH3 0x461BCD PUSH1 0xE5 SHL DUP2 MSTORE PUSH1 0x4 ADD DUP1 DUP1 PUSH1 0x20 ADD DUP3 DUP2 SUB DUP3 MSTORE DUP4 DUP2 DUP2 MLOAD DUP2 MSTORE PUSH1 0x20 ADD SWAP2 POP DUP1 MLOAD SWAP1 PUSH1 0x20 ADD SWAP1 DUP1 DUP4 DUP4 PUSH1 0x0 JUMPDEST DUP4 DUP2 LT ISZERO PUSH2 0x3C2A JUMPI DUP2 DUP2 ADD MLOAD DUP4 DUP3 ADD MSTORE PUSH1 0x20 ADD PUSH2 0x3C12 JUMP JUMPDEST POP POP POP POP SWAP1 POP SWAP1 DUP2 ADD SWAP1 PUSH1 0x1F AND DUP1 ISZERO PUSH2 0x3C57 JUMPI DUP1 DUP3 SUB DUP1 MLOAD PUSH1 0x1 DUP4 PUSH1 0x20 SUB PUSH2 0x100 EXP SUB NOT AND DUP2 MSTORE PUSH1 0x20 ADD SWAP2 POP JUMPDEST POP SWAP3 POP POP POP PUSH1 0x40 MLOAD DUP1 SWAP2 SUB SWAP1 REVERT JUMPDEST POP POP POP SWAP1 SUB SWAP1 JUMP JUMPDEST PUSH2 0x3C7F DUP5 PUSH1 0x1 PUSH1 0x1 PUSH1 0xA0 SHL SUB AND PUSH2 0x46CE JUMP JUMPDEST ISZERO PUSH2 0x2025 JUMPI DUP4 PUSH1 0x1 PUSH1 0x1 PUSH1 0xA0 SHL SUB AND PUSH4 0xBC197C81 DUP8 DUP8 DUP7 DUP7 DUP7 PUSH1 0x40 MLOAD DUP7 PUSH4 0xFFFFFFFF AND PUSH1 0xE0 SHL DUP2 MSTORE PUSH1 0x4 ADD DUP1 DUP7 PUSH1 0x1 PUSH1 0x1 PUSH1 0xA0 SHL SUB AND DUP2 MSTORE PUSH1 0x20 ADD DUP6 PUSH1 0x1 PUSH1 0x1 PUSH1 0xA0 SHL SUB AND DUP2 MSTORE PUSH1 0x20 ADD DUP1 PUSH1 0x20 ADD DUP1 PUSH1 0x20 ADD DUP1 PUSH1 0x20 ADD DUP5 DUP2 SUB DUP5 MSTORE DUP8 DUP2 DUP2 MLOAD DUP2 MSTORE PUSH1 0x20 ADD SWAP2 POP DUP1 MLOAD SWAP1 PUSH1 0x20 ADD SWAP1 PUSH1 0x20 MUL DUP1 DUP4 DUP4 PUSH1 0x0 JUMPDEST DUP4 DUP2 LT ISZERO PUSH2 0x3D0D JUMPI DUP2 DUP2 ADD MLOAD DUP4 DUP3 ADD MSTORE PUSH1 0x20 ADD PUSH2 0x3CF5 JUMP JUMPDEST POP POP POP POP SWAP1 POP ADD DUP5 DUP2 SUB DUP4 MSTORE DUP7 DUP2 DUP2 MLOAD DUP2 MSTORE PUSH1 0x20 ADD SWAP2 POP DUP1 MLOAD SWAP1 PUSH1 0x20 ADD SWAP1 PUSH1 0x20 MUL DUP1 DUP4 DUP4 PUSH1 0x0 JUMPDEST DUP4 DUP2 LT ISZERO PUSH2 0x3D4C JUMPI DUP2 DUP2 ADD MLOAD DUP4 DUP3 ADD MSTORE PUSH1 0x20 ADD PUSH2 0x3D34 JUMP JUMPDEST POP POP POP POP SWAP1 POP ADD DUP5 DUP2 SUB DUP3 MSTORE DUP6 DUP2 DUP2 MLOAD DUP2 MSTORE PUSH1 0x20 ADD SWAP2 POP DUP1 MLOAD SWAP1 PUSH1 0x20 ADD SWAP1 DUP1 DUP4 DUP4 PUSH1 0x0 JUMPDEST DUP4 DUP2 LT ISZERO PUSH2 0x3D88 JUMPI DUP2 DUP2 ADD MLOAD DUP4 DUP3 ADD MSTORE PUSH1 0x20 ADD PUSH2 0x3D70 JUMP JUMPDEST POP POP POP POP SWAP1 POP SWAP1 DUP2 ADD SWAP1 PUSH1 0x1F AND DUP1 ISZERO PUSH2 0x3DB5 JUMPI DUP1 DUP3 SUB DUP1 MLOAD PUSH1 0x1 DUP4 PUSH1 0x20 SUB PUSH2 0x100 EXP SUB NOT AND DUP2 MSTORE PUSH1 0x20 ADD SWAP2 POP JUMPDEST POP SWAP9 POP POP POP POP POP POP POP POP POP PUSH1 0x20 PUSH1 0x40 MLOAD DUP1 DUP4 SUB DUP2 PUSH1 0x0 DUP8 DUP1 EXTCODESIZE ISZERO DUP1 ISZERO PUSH2 0x3DDA JUMPI PUSH1 0x0 DUP1 REVERT JUMPDEST POP GAS CALL SWAP3 POP POP POP DUP1 ISZERO PUSH2 0x3DFF JUMPI POP PUSH1 0x40 MLOAD RETURNDATASIZE PUSH1 0x20 DUP2 LT ISZERO PUSH2 0x3DFA JUMPI PUSH1 0x0 DUP1 REVERT JUMPDEST POP MLOAD PUSH1 0x1 JUMPDEST PUSH2 0x3E94 JUMPI PUSH2 0x3E0B PUSH2 0x57D0 JUMP JUMPDEST DUP1 PUSH2 0x3E16 JUMPI POP PUSH2 0x3E5D JUMP JUMPDEST PUSH1 0x40 MLOAD PUSH3 0x461BCD PUSH1 0xE5 SHL DUP2 MSTORE PUSH1 0x20 PUSH1 0x4 DUP3 ADD DUP2 DUP2 MSTORE DUP4 MLOAD PUSH1 0x24 DUP5 ADD MSTORE DUP4 MLOAD DUP5 SWAP4 SWAP2 SWAP3 DUP4 SWAP3 PUSH1 0x44 ADD SWAP2 SWAP1 DUP6 ADD SWAP1 DUP1 DUP4 DUP4 PUSH1 0x0 DUP4 ISZERO PUSH2 0x3C2A JUMPI DUP2 DUP2 ADD MLOAD DUP4 DUP3 ADD MSTORE PUSH1 0x20 ADD PUSH2 0x3C12 JUMP JUMPDEST PUSH1 0x40 MLOAD PUSH3 0x461BCD PUSH1 0xE5 SHL DUP2 MSTORE PUSH1 0x4 ADD DUP1 DUP1 PUSH1 0x20 ADD DUP3 DUP2 SUB DUP3 MSTORE PUSH1 0x34 DUP2 MSTORE PUSH1 0x20 ADD DUP1 PUSH2 0x5876 PUSH1 0x34 SWAP2 CODECOPY PUSH1 0x40 ADD SWAP2 POP POP PUSH1 0x40 MLOAD DUP1 SWAP2 SUB SWAP1 REVERT JUMPDEST PUSH1 0x1 PUSH1 0x1 PUSH1 0xE0 SHL SUB NOT DUP2 AND PUSH4 0xBC197C81 PUSH1 0xE0 SHL EQ PUSH2 0x3BCD JUMPI PUSH1 0x40 MLOAD PUSH3 0x461BCD PUSH1 0xE5 SHL DUP2 MSTORE PUSH1 0x4 ADD DUP1 DUP1 PUSH1 0x20 ADD DUP3 DUP2 SUB DUP3 MSTORE PUSH1 0x28 DUP2 MSTORE PUSH1 0x20 ADD DUP1 PUSH2 0x58CC PUSH1 0x28 SWAP2 CODECOPY PUSH1 0x40 ADD SWAP2 POP POP PUSH1 0x40 MLOAD DUP1 SWAP2 SUB SWAP1 REVERT JUMPDEST PUSH1 0x0 DUP3 DUP2 MSTORE PUSH1 0x20 DUP2 SWAP1 MSTORE PUSH1 0x40 SWAP1 KECCAK256 PUSH2 0x3EFB SWAP1 DUP3 PUSH2 0x38BD JUMP JUMPDEST ISZERO PUSH2 0x2197 JUMPI PUSH2 0x3F08 PUSH2 0x3941 JUMP JUMPDEST PUSH1 0x1 PUSH1 0x1 PUSH1 0xA0 SHL SUB AND DUP2 PUSH1 0x1 PUSH1 0x1 PUSH1 0xA0 SHL SUB AND DUP4 PUSH32 0x2F8788117E7EFF1D82E926EC794901D17C78024A50270940304540A733656F0D PUSH1 0x40 MLOAD PUSH1 0x40 MLOAD DUP1 SWAP2 SUB SWAP1 LOG4 POP POP JUMP JUMPDEST PUSH1 0x0 DUP3 DUP2 MSTORE PUSH1 0x20 DUP2 SWAP1 MSTORE PUSH1 0x40 SWAP1 KECCAK256 PUSH2 0x3F64 SWAP1 DUP3 PUSH2 0x46D4 JUMP JUMPDEST ISZERO PUSH2 0x2197 JUMPI PUSH2 0x3F71 PUSH2 0x3941 JUMP JUMPDEST PUSH1 0x1 PUSH1 0x1 PUSH1 0xA0 SHL SUB AND DUP2 PUSH1 0x1 PUSH1 0x1 PUSH1 0xA0 SHL SUB AND DUP4 PUSH32 0xF6391F5C32D9C69D2A47EA670B442974B53935D1EDC7FD64EB21E047A839171B PUSH1 0x40 MLOAD PUSH1 0x40 MLOAD DUP1 SWAP2 SUB SWAP1 LOG4 POP POP JUMP JUMPDEST PUSH1 0x15 SLOAD PUSH1 0x0 SWAP1 DUP2 MSTORE PUSH1 0x13 PUSH1 0x20 SWAP1 DUP2 MSTORE PUSH1 0x40 DUP1 DUP4 KECCAK256 DUP5 DUP5 MSTORE SWAP1 SWAP2 MSTORE DUP2 KECCAK256 SLOAD PUSH1 0x4 GT ISZERO PUSH2 0x3FE2 JUMPI POP PUSH1 0x1 PUSH2 0x1467 JUMP JUMPDEST PUSH1 0x15 SLOAD PUSH1 0x0 SWAP1 DUP2 MSTORE PUSH1 0x13 PUSH1 0x20 SWAP1 DUP2 MSTORE PUSH1 0x40 DUP1 DUP4 KECCAK256 DUP6 DUP5 MSTORE SWAP1 SWAP2 MSTORE SWAP1 KECCAK256 SLOAD PUSH1 0x1 JUMPDEST PUSH1 0xD SLOAD DUP2 GT PUSH2 0x4057 JUMPI PUSH1 0x15 SLOAD PUSH1 0x0 SWAP1 DUP2 MSTORE PUSH1 0x13 PUSH1 0x20 SWAP1 DUP2 MSTORE PUSH1 0x40 DUP1 DUP4 KECCAK256 DUP5 DUP5 MSTORE SWAP1 SWAP2 MSTORE SWAP1 KECCAK256 SLOAD DUP3 GT ISZERO PUSH2 0x404F JUMPI PUSH1 0x15 SLOAD PUSH1 0x0 SWAP1 DUP2 MSTORE PUSH1 0x13 PUSH1 0x20 SWAP1 DUP2 MSTORE PUSH1 0x40 DUP1 DUP4 KECCAK256 DUP5 DUP5 MSTORE SWAP1 SWAP2 MSTORE SWAP1 KECCAK256 SLOAD SWAP2 POP JUMPDEST PUSH1 0x1 ADD PUSH2 0x4002 JUMP JUMPDEST POP PUSH2 0x4063 DUP2 PUSH1 0x2 PUSH2 0x4142 JUMP JUMPDEST PUSH1 0x15 SLOAD PUSH1 0x0 SWAP1 DUP2 MSTORE PUSH1 0x13 PUSH1 0x20 SWAP1 DUP2 MSTORE PUSH1 0x40 DUP1 DUP4 KECCAK256 DUP8 DUP5 MSTORE SWAP1 SWAP2 MSTORE SWAP1 KECCAK256 SLOAD GT ISZERO SWAP2 POP POP SWAP2 SWAP1 POP JUMP JUMPDEST PUSH1 0x0 PUSH1 0x19 SLOAD PUSH32 0x0 PUSH1 0x1 PUSH1 0x1 PUSH1 0xA0 SHL SUB AND PUSH4 0x70A08231 ADDRESS PUSH1 0x40 MLOAD DUP3 PUSH4 0xFFFFFFFF AND PUSH1 0xE0 SHL DUP2 MSTORE PUSH1 0x4 ADD DUP1 DUP3 PUSH1 0x1 PUSH1 0x1 PUSH1 0xA0 SHL SUB AND DUP2 MSTORE PUSH1 0x20 ADD SWAP2 POP POP PUSH1 0x20 PUSH1 0x40 MLOAD DUP1 DUP4 SUB DUP2 DUP7 DUP1 EXTCODESIZE ISZERO DUP1 ISZERO PUSH2 0x40FC JUMPI PUSH1 0x0 DUP1 REVERT JUMPDEST POP GAS STATICCALL ISZERO DUP1 ISZERO PUSH2 0x4110 JUMPI RETURNDATASIZE PUSH1 0x0 DUP1 RETURNDATACOPY RETURNDATASIZE PUSH1 0x0 REVERT JUMPDEST POP POP POP POP PUSH1 0x40 MLOAD RETURNDATASIZE PUSH1 0x20 DUP2 LT ISZERO PUSH2 0x4126 JUMPI PUSH1 0x0 DUP1 REVERT JUMPDEST POP MLOAD LT ISZERO PUSH2 0x4133 JUMPI PUSH1 0x0 DUP1 REVERT JUMPDEST PUSH2 0x143D PUSH1 0x18 SLOAD PUSH1 0x19 SLOAD DUP5 PUSH2 0x46E9 JUMP JUMPDEST PUSH1 0x0 DUP3 PUSH2 0x4151 JUMPI POP PUSH1 0x0 PUSH2 0x143D JUMP JUMPDEST DUP3 DUP3 MUL DUP3 DUP5 DUP3 DUP2 PUSH2 0x415E JUMPI INVALID JUMPDEST DIV EQ PUSH2 0x2F3B JUMPI PUSH1 0x40 MLOAD PUSH3 0x461BCD PUSH1 0xE5 SHL DUP2 MSTORE PUSH1 0x4 ADD DUP1 DUP1 PUSH1 0x20 ADD DUP3 DUP2 SUB DUP3 MSTORE PUSH1 0x21 DUP2 MSTORE PUSH1 0x20 ADD DUP1 PUSH2 0x5A8F PUSH1 0x21 SWAP2 CODECOPY PUSH1 0x40 ADD SWAP2 POP POP PUSH1 0x40 MLOAD DUP1 SWAP2 SUB SWAP1 REVERT JUMPDEST PUSH1 0x0 DUP1 DUP3 GT PUSH2 0x41F1 JUMPI PUSH1 0x40 DUP1 MLOAD PUSH3 0x461BCD PUSH1 0xE5 SHL DUP2 MSTORE PUSH1 0x20 PUSH1 0x4 DUP3 ADD MSTORE PUSH1 0x1A PUSH1 0x24 DUP3 ADD MSTORE PUSH32 0x536166654D6174683A206469766973696F6E206279207A65726F000000000000 PUSH1 0x44 DUP3 ADD MSTORE SWAP1 MLOAD SWAP1 DUP2 SWAP1 SUB PUSH1 0x64 ADD SWAP1 REVERT JUMPDEST DUP2 DUP4 DUP2 PUSH2 0x41FA JUMPI INVALID JUMPDEST DIV SWAP4 SWAP3 POP POP POP JUMP JUMPDEST PUSH1 0x0 DUP3 DUP3 GT ISZERO PUSH2 0x4259 JUMPI PUSH1 0x40 DUP1 MLOAD PUSH3 0x461BCD PUSH1 0xE5 SHL DUP2 MSTORE PUSH1 0x20 PUSH1 0x4 DUP3 ADD MSTORE PUSH1 0x1E PUSH1 0x24 DUP3 ADD MSTORE PUSH32 0x536166654D6174683A207375627472616374696F6E206F766572666C6F770000 PUSH1 0x44 DUP3 ADD MSTORE SWAP1 MLOAD SWAP1 DUP2 SWAP1 SUB PUSH1 0x64 ADD SWAP1 REVERT JUMPDEST POP SWAP1 SUB SWAP1 JUMP JUMPDEST PUSH1 0x0 PUSH2 0x2F3B DUP4 DUP4 PUSH2 0x4893 JUMP JUMPDEST PUSH1 0x0 DUP3 DUP2 MSTORE PUSH1 0x1B PUSH1 0x20 MSTORE PUSH1 0x40 SWAP1 KECCAK256 DUP2 SWAP1 SSTORE PUSH2 0x2197 DUP3 PUSH2 0x48F7 JUMP JUMPDEST PUSH2 0x428F DUP2 CALLER PUSH2 0x2F47 JUMP JUMPDEST PUSH2 0x3157 JUMPI PUSH1 0x0 DUP1 REVERT JUMPDEST PUSH1 0x0 PUSH1 0x6 SLOAD PUSH1 0xFF AND PUSH1 0x1 DUP2 GT ISZERO PUSH2 0x42AB JUMPI INVALID JUMPDEST EQ ISZERO PUSH2 0x42DE JUMPI PUSH1 0x0 PUSH1 0xA DUP2 SWAP1 SSTORE PUSH1 0xC SSTORE PUSH1 0x15 SLOAD PUSH2 0x42C9 SWAP1 PUSH1 0x1 PUSH2 0x38E7 JUMP JUMPDEST PUSH1 0x15 SSTORE PUSH1 0x6 DUP1 SLOAD PUSH1 0xFF NOT AND PUSH1 0x1 OR SWAP1 SSTORE PUSH2 0x445C JUMP JUMPDEST PUSH1 0x1 PUSH1 0x6 SLOAD PUSH1 0xFF AND PUSH1 0x1 DUP2 GT ISZERO PUSH2 0x42F1 JUMPI INVALID JUMPDEST EQ ISZERO PUSH2 0x445C JUMPI PUSH2 0x42FF PUSH2 0x4FCB JUMP JUMPDEST PUSH1 0x1 JUMPDEST PUSH1 0xD SLOAD DUP2 GT PUSH2 0x4448 JUMPI PUSH1 0x1C PUSH1 0x0 PUSH1 0x15 SLOAD DUP2 MSTORE PUSH1 0x20 ADD SWAP1 DUP2 MSTORE PUSH1 0x20 ADD PUSH1 0x0 KECCAK256 PUSH1 0x40 MLOAD DUP1 DUP3 DUP1 SLOAD PUSH1 0x1 DUP2 PUSH1 0x1 AND ISZERO PUSH2 0x100 MUL SUB AND PUSH1 0x2 SWAP1 DIV DUP1 ISZERO PUSH2 0x437B JUMPI DUP1 PUSH1 0x1F LT PUSH2 0x4359 JUMPI PUSH2 0x100 DUP1 DUP4 SLOAD DIV MUL DUP4 MSTORE SWAP2 DUP3 ADD SWAP2 PUSH2 0x437B JUMP JUMPDEST DUP3 ADD SWAP2 SWAP1 PUSH1 0x0 MSTORE PUSH1 0x20 PUSH1 0x0 KECCAK256 SWAP1 JUMPDEST DUP2 SLOAD DUP2 MSTORE SWAP1 PUSH1 0x1 ADD SWAP1 PUSH1 0x20 ADD DUP1 DUP4 GT PUSH2 0x4367 JUMPI JUMPDEST POP POP SWAP2 POP POP PUSH1 0x40 MLOAD DUP1 SWAP2 SUB SWAP1 KECCAK256 PUSH1 0xF PUSH1 0x0 DUP4 DUP2 MSTORE PUSH1 0x20 ADD SWAP1 DUP2 MSTORE PUSH1 0x20 ADD PUSH1 0x0 KECCAK256 PUSH1 0x3 ADD PUSH1 0x40 MLOAD DUP1 DUP3 DUP1 SLOAD PUSH1 0x1 DUP2 PUSH1 0x1 AND ISZERO PUSH2 0x100 MUL SUB AND PUSH1 0x2 SWAP1 DIV DUP1 ISZERO PUSH2 0x43F9 JUMPI DUP1 PUSH1 0x1F LT PUSH2 0x43D7 JUMPI PUSH2 0x100 DUP1 DUP4 SLOAD DIV MUL DUP4 MSTORE SWAP2 DUP3 ADD SWAP2 PUSH2 0x43F9 JUMP JUMPDEST DUP3 ADD SWAP2 SWAP1 PUSH1 0x0 MSTORE PUSH1 0x20 PUSH1 0x0 KECCAK256 SWAP1 JUMPDEST DUP2 SLOAD DUP2 MSTORE SWAP1 PUSH1 0x1 ADD SWAP1 PUSH1 0x20 ADD DUP1 DUP4 GT PUSH2 0x43E5 JUMPI JUMPDEST POP POP SWAP2 POP POP PUSH1 0x40 MLOAD DUP1 SWAP2 SUB SWAP1 KECCAK256 EQ ISZERO PUSH2 0x4440 JUMPI PUSH1 0x0 PUSH2 0x441A PUSH1 0x15 SLOAD DUP4 PUSH2 0x2CDB JUMP JUMPDEST GT ISZERO PUSH2 0x4440 JUMPI PUSH2 0x4438 PUSH2 0x442F PUSH1 0x15 SLOAD DUP4 PUSH2 0x2CDB JUMP JUMPDEST PUSH1 0xA SLOAD SWAP1 PUSH2 0x419B JUMP JUMPDEST PUSH1 0xC SSTORE PUSH2 0x4448 JUMP JUMPDEST PUSH1 0x1 ADD PUSH2 0x4302 JUMP JUMPDEST PUSH2 0x4450 PUSH2 0x51B8 JUMP JUMPDEST POP PUSH1 0x6 DUP1 SLOAD PUSH1 0xFF NOT AND SWAP1 SSTORE JUMPDEST TIMESTAMP PUSH1 0x9 SSTORE JUMP JUMPDEST PUSH1 0x0 PUSH2 0x143D DUP3 PUSH2 0x5217 JUMP JUMPDEST PUSH1 0x40 DUP1 MLOAD PUSH1 0x1 DUP1 DUP3 MSTORE DUP2 DUP4 ADD SWAP1 SWAP3 MSTORE PUSH1 0x60 SWAP2 DUP3 SWAP2 SWAP1 PUSH1 0x20 DUP1 DUP4 ADD SWAP1 DUP1 CALLDATASIZE DUP4 CALLDATACOPY ADD SWAP1 POP POP SWAP1 POP DUP3 DUP2 PUSH1 0x0 DUP2 MLOAD DUP2 LT PUSH2 0x44A0 JUMPI INVALID JUMPDEST PUSH1 0x20 SWAP1 DUP2 MUL SWAP2 SWAP1 SWAP2 ADD ADD MSTORE SWAP3 SWAP2 POP POP JUMP JUMPDEST PUSH2 0x44C3 DUP5 PUSH1 0x1 PUSH1 0x1 PUSH1 0xA0 SHL SUB AND PUSH2 0x46CE JUMP JUMPDEST ISZERO PUSH2 0x2025 JUMPI DUP4 PUSH1 0x1 PUSH1 0x1 PUSH1 0xA0 SHL SUB AND PUSH4 0xF23A6E61 DUP8 DUP8 DUP7 DUP7 DUP7 PUSH1 0x40 MLOAD DUP7 PUSH4 0xFFFFFFFF AND PUSH1 0xE0 SHL DUP2 MSTORE PUSH1 0x4 ADD DUP1 DUP7 PUSH1 0x1 PUSH1 0x1 PUSH1 0xA0 SHL SUB AND DUP2 MSTORE PUSH1 0x20 ADD DUP6 PUSH1 0x1 PUSH1 0x1 PUSH1 0xA0 SHL SUB AND DUP2 MSTORE PUSH1 0x20 ADD DUP5 DUP2 MSTORE PUSH1 0x20 ADD DUP4 DUP2 MSTORE PUSH1 0x20 ADD DUP1 PUSH1 0x20 ADD DUP3 DUP2 SUB DUP3 MSTORE DUP4 DUP2 DUP2 MLOAD DUP2 MSTORE PUSH1 0x20 ADD SWAP2 POP DUP1 MLOAD SWAP1 PUSH1 0x20 ADD SWAP1 DUP1 DUP4 DUP4 PUSH1 0x0 JUMPDEST DUP4 DUP2 LT ISZERO PUSH2 0x4552 JUMPI DUP2 DUP2 ADD MLOAD DUP4 DUP3 ADD MSTORE PUSH1 0x20 ADD PUSH2 0x453A JUMP JUMPDEST POP POP POP POP SWAP1 POP SWAP1 DUP2 ADD SWAP1 PUSH1 0x1F AND DUP1 ISZERO PUSH2 0x457F JUMPI DUP1 DUP3 SUB DUP1 MLOAD PUSH1 0x1 DUP4 PUSH1 0x20 SUB PUSH2 0x100 EXP SUB NOT AND DUP2 MSTORE PUSH1 0x20 ADD SWAP2 POP JUMPDEST POP SWAP7 POP POP POP POP POP POP POP PUSH1 0x20 PUSH1 0x40 MLOAD DUP1 DUP4 SUB DUP2 PUSH1 0x0 DUP8 DUP1 EXTCODESIZE ISZERO DUP1 ISZERO PUSH2 0x45A2 JUMPI PUSH1 0x0 DUP1 REVERT JUMPDEST POP GAS CALL SWAP3 POP POP POP DUP1 ISZERO PUSH2 0x45C7 JUMPI POP PUSH1 0x40 MLOAD RETURNDATASIZE PUSH1 0x20 DUP2 LT ISZERO PUSH2 0x45C2 JUMPI PUSH1 0x0 DUP1 REVERT JUMPDEST POP MLOAD PUSH1 0x1 JUMPDEST PUSH2 0x45D3 JUMPI PUSH2 0x3E0B PUSH2 0x57D0 JUMP JUMPDEST PUSH1 0x1 PUSH1 0x1 PUSH1 0xE0 SHL SUB NOT DUP2 AND PUSH4 0xF23A6E61 PUSH1 0xE0 SHL EQ PUSH2 0x3BCD JUMPI PUSH1 0x40 MLOAD PUSH3 0x461BCD PUSH1 0xE5 SHL DUP2 MSTORE PUSH1 0x4 ADD DUP1 DUP1 PUSH1 0x20 ADD DUP3 DUP2 SUB DUP3 MSTORE PUSH1 0x28 DUP2 MSTORE PUSH1 0x20 ADD DUP1 PUSH2 0x58CC PUSH1 0x28 SWAP2 CODECOPY PUSH1 0x40 ADD SWAP2 POP POP PUSH1 0x40 MLOAD DUP1 SWAP2 SUB SWAP1 REVERT JUMPDEST PUSH1 0x0 DUP1 PUSH1 0x1 PUSH2 0x4649 PUSH1 0x64 PUSH2 0x29B1 PUSH1 0x2 PUSH2 0x4643 DUP9 PUSH8 0xDE0B6B3A7640000 PUSH2 0x4142 JUMP JUMPDEST SWAP1 PUSH2 0x4142 JUMP JUMPDEST SWAP2 POP PUSH2 0x1CBE PUSH2 0x4665 PUSH1 0xA PUSH2 0x29B1 DUP5 PUSH8 0xDE0B6B3A7640000 PUSH2 0x4142 JUMP JUMPDEST DUP4 SWAP1 PUSH2 0x38E7 JUMP JUMPDEST PUSH1 0x0 PUSH2 0x4678 DUP4 DUP4 PUSH2 0x46B6 JUMP JUMPDEST PUSH2 0x46AE JUMPI POP DUP2 SLOAD PUSH1 0x1 DUP2 DUP2 ADD DUP5 SSTORE PUSH1 0x0 DUP5 DUP2 MSTORE PUSH1 0x20 DUP1 DUP3 KECCAK256 SWAP1 SWAP4 ADD DUP5 SWAP1 SSTORE DUP5 SLOAD DUP5 DUP3 MSTORE DUP3 DUP7 ADD SWAP1 SWAP4 MSTORE PUSH1 0x40 SWAP1 KECCAK256 SWAP2 SWAP1 SWAP2 SSTORE PUSH2 0x143D JUMP JUMPDEST POP PUSH1 0x0 PUSH2 0x143D JUMP JUMPDEST PUSH1 0x0 SWAP1 DUP2 MSTORE PUSH1 0x1 SWAP2 SWAP1 SWAP2 ADD PUSH1 0x20 MSTORE PUSH1 0x40 SWAP1 KECCAK256 SLOAD ISZERO ISZERO SWAP1 JUMP JUMPDEST EXTCODESIZE ISZERO ISZERO SWAP1 JUMP JUMPDEST PUSH1 0x0 PUSH2 0x2F3B DUP4 PUSH1 0x1 PUSH1 0x1 PUSH1 0xA0 SHL SUB DUP5 AND PUSH2 0x521B JUMP JUMPDEST PUSH1 0x0 PUSH32 0x0 PUSH1 0x1 PUSH1 0x1 PUSH1 0xA0 SHL SUB AND PUSH4 0x4000AEA0 PUSH32 0x0 DUP6 DUP8 DUP7 PUSH1 0x40 MLOAD PUSH1 0x20 ADD DUP1 DUP4 DUP2 MSTORE PUSH1 0x20 ADD DUP3 DUP2 MSTORE PUSH1 0x20 ADD SWAP3 POP POP POP PUSH1 0x40 MLOAD PUSH1 0x20 DUP2 DUP4 SUB SUB DUP2 MSTORE SWAP1 PUSH1 0x40 MSTORE PUSH1 0x40 MLOAD DUP5 PUSH4 0xFFFFFFFF AND PUSH1 0xE0 SHL DUP2 MSTORE PUSH1 0x4 ADD DUP1 DUP5 PUSH1 0x1 PUSH1 0x1 PUSH1 0xA0 SHL SUB AND DUP2 MSTORE PUSH1 0x20 ADD DUP4 DUP2 MSTORE PUSH1 0x20 ADD DUP1 PUSH1 0x20 ADD DUP3 DUP2 SUB DUP3 MSTORE DUP4 DUP2 DUP2 MLOAD DUP2 MSTORE PUSH1 0x20 ADD SWAP2 POP DUP1 MLOAD SWAP1 PUSH1 0x20 ADD SWAP1 DUP1 DUP4 DUP4 PUSH1 0x0 JUMPDEST DUP4 DUP2 LT ISZERO PUSH2 0x47C5 JUMPI DUP2 DUP2 ADD MLOAD DUP4 DUP3 ADD MSTORE PUSH1 0x20 ADD PUSH2 0x47AD JUMP JUMPDEST POP POP POP POP SWAP1 POP SWAP1 DUP2 ADD SWAP1 PUSH1 0x1F AND DUP1 ISZERO PUSH2 0x47F2 JUMPI DUP1 DUP3 SUB DUP1 MLOAD PUSH1 0x1 DUP4 PUSH1 0x20 SUB PUSH2 0x100 EXP SUB NOT AND DUP2 MSTORE PUSH1 0x20 ADD SWAP2 POP JUMPDEST POP SWAP5 POP POP POP POP POP PUSH1 0x20 PUSH1 0x40 MLOAD DUP1 DUP4 SUB DUP2 PUSH1 0x0 DUP8 DUP1 EXTCODESIZE ISZERO DUP1 ISZERO PUSH2 0x4813 JUMPI PUSH1 0x0 DUP1 REVERT JUMPDEST POP GAS CALL ISZERO DUP1 ISZERO PUSH2 0x4827 JUMPI RETURNDATASIZE PUSH1 0x0 DUP1 RETURNDATACOPY RETURNDATASIZE PUSH1 0x0 REVERT JUMPDEST POP POP POP POP PUSH1 0x40 MLOAD RETURNDATASIZE PUSH1 0x20 DUP2 LT ISZERO PUSH2 0x483D JUMPI PUSH1 0x0 DUP1 REVERT JUMPDEST POP POP PUSH1 0x0 DUP5 DUP2 MSTORE PUSH1 0x5 PUSH1 0x20 MSTORE PUSH1 0x40 DUP2 KECCAK256 SLOAD PUSH2 0x485D SWAP1 DUP7 SWAP1 DUP6 SWAP1 ADDRESS SWAP1 PUSH2 0x52E1 JUMP JUMPDEST PUSH1 0x0 DUP7 DUP2 MSTORE PUSH1 0x5 PUSH1 0x20 MSTORE PUSH1 0x40 SWAP1 KECCAK256 SLOAD SWAP1 SWAP2 POP PUSH2 0x487A SWAP1 PUSH1 0x1 PUSH2 0x38E7 JUMP JUMPDEST PUSH1 0x0 DUP7 DUP2 MSTORE PUSH1 0x5 PUSH1 0x20 MSTORE PUSH1 0x40 SWAP1 KECCAK256 SSTORE PUSH2 0x38B4 DUP6 DUP3 PUSH2 0x5328 JUMP JUMPDEST DUP2 SLOAD PUSH1 0x0 SWAP1 DUP3 LT PUSH2 0x48D5 JUMPI PUSH1 0x40 MLOAD PUSH3 0x461BCD PUSH1 0xE5 SHL DUP2 MSTORE PUSH1 0x4 ADD DUP1 DUP1 PUSH1 0x20 ADD DUP3 DUP2 SUB DUP3 MSTORE PUSH1 0x22 DUP2 MSTORE PUSH1 0x20 ADD DUP1 PUSH2 0x58AA PUSH1 0x22 SWAP2 CODECOPY PUSH1 0x40 ADD SWAP2 POP POP PUSH1 0x40 MLOAD DUP1 SWAP2 SUB SWAP1 REVERT JUMPDEST DUP3 PUSH1 0x0 ADD DUP3 DUP2 SLOAD DUP2 LT PUSH2 0x48E4 JUMPI INVALID JUMPDEST SWAP1 PUSH1 0x0 MSTORE PUSH1 0x20 PUSH1 0x0 KECCAK256 ADD SLOAD SWAP1 POP SWAP3 SWAP2 POP POP JUMP JUMPDEST PUSH1 0x0 DUP2 DUP2 MSTORE PUSH1 0x1A PUSH1 0x20 MSTORE PUSH1 0x40 SWAP1 KECCAK256 SLOAD PUSH1 0x7 DUP2 GT PUSH2 0x4913 JUMPI PUSH1 0x0 DUP1 REVERT JUMPDEST PUSH1 0x0 DUP2 DUP2 MSTORE PUSH1 0x12 PUSH1 0x20 MSTORE PUSH1 0x40 SWAP1 KECCAK256 SLOAD PUSH1 0xFF AND PUSH2 0x492E JUMPI PUSH1 0x0 DUP1 REVERT JUMPDEST PUSH1 0x0 DUP3 DUP2 MSTORE PUSH1 0x1A PUSH1 0x20 SWAP1 DUP2 MSTORE PUSH1 0x40 DUP1 DUP4 KECCAK256 SLOAD PUSH1 0x1B DUP4 MSTORE DUP2 DUP5 KECCAK256 SLOAD DUP2 DUP6 MSTORE PUSH1 0x12 SWAP1 SWAP4 MSTORE SWAP1 DUP4 KECCAK256 PUSH1 0x8 ADD DUP1 SLOAD PUSH10 0xFF000000000000000000 NOT AND PUSH1 0x1 PUSH1 0x48 SHL OR SWAP1 SSTORE SWAP2 PUSH2 0x4979 PUSH1 0x2 DUP4 PUSH2 0x5354 JUMP JUMPDEST PUSH1 0x0 DUP6 DUP2 MSTORE PUSH1 0x12 PUSH1 0x20 MSTORE PUSH1 0x40 SWAP1 KECCAK256 PUSH1 0x8 ADD DUP1 SLOAD PUSH1 0xFF NOT AND PUSH1 0xFF SWAP4 SWAP1 SWAP4 AND SWAP3 SWAP1 SWAP3 OR SWAP1 SWAP2 SSTORE SWAP1 POP PUSH2 0x49AA PUSH1 0x4 DUP3 PUSH2 0x5354 JUMP JUMPDEST PUSH1 0x0 DUP6 DUP2 MSTORE PUSH1 0x12 PUSH1 0x20 MSTORE PUSH1 0x40 SWAP1 KECCAK256 PUSH1 0x8 ADD DUP1 SLOAD PUSH1 0xFF SWAP1 SWAP4 AND PUSH2 0x100 MUL PUSH2 0xFF00 NOT SWAP1 SWAP4 AND SWAP3 SWAP1 SWAP3 OR SWAP1 SWAP2 SSTORE SWAP1 POP PUSH2 0x49E1 PUSH1 0x4 DUP3 PUSH2 0x5354 JUMP JUMPDEST PUSH1 0x0 DUP6 DUP2 MSTORE PUSH1 0x12 PUSH1 0x20 MSTORE PUSH1 0x40 SWAP1 KECCAK256 PUSH1 0x8 ADD DUP1 SLOAD PUSH1 0xFF SWAP1 SWAP4 AND PUSH3 0x10000 MUL PUSH3 0xFF0000 NOT SWAP1 SWAP4 AND SWAP3 SWAP1 SWAP3 OR SWAP1 SWAP2 SSTORE SWAP1 POP PUSH2 0x4A1A PUSH1 0x4 DUP3 PUSH2 0x5354 JUMP JUMPDEST PUSH1 0x0 DUP6 DUP2 MSTORE PUSH1 0x12 PUSH1 0x20 MSTORE PUSH1 0x40 SWAP1 KECCAK256 PUSH1 0x8 ADD DUP1 SLOAD PUSH1 0xFF SWAP1 SWAP4 AND PUSH4 0x1000000 MUL PUSH4 0xFF000000 NOT SWAP1 SWAP4 AND SWAP3 SWAP1 SWAP3 OR SWAP1 SWAP2 SSTORE SWAP1 POP PUSH2 0x4A55 PUSH1 0x4 DUP3 PUSH2 0x5354 JUMP JUMPDEST PUSH1 0x0 DUP6 DUP2 MSTORE PUSH1 0x12 PUSH1 0x20 MSTORE PUSH1 0x40 SWAP1 KECCAK256 PUSH1 0x8 ADD DUP1 SLOAD PUSH1 0xFF SWAP1 SWAP4 AND PUSH1 0x1 PUSH1 0x20 SHL MUL PUSH5 0xFF00000000 NOT SWAP1 SWAP4 AND SWAP3 SWAP1 SWAP3 OR SWAP1 SWAP2 SSTORE SWAP1 POP PUSH2 0x4A91 PUSH1 0x9 DUP3 PUSH2 0x5354 JUMP JUMPDEST PUSH1 0x0 DUP6 DUP2 MSTORE PUSH1 0x12 PUSH1 0x20 MSTORE PUSH1 0x40 SWAP1 KECCAK256 PUSH1 0x8 ADD DUP1 SLOAD PUSH1 0xFF SWAP1 SWAP4 AND PUSH6 0x10000000000 MUL PUSH6 0xFF0000000000 NOT SWAP1 SWAP4 AND SWAP3 SWAP1 SWAP3 OR SWAP1 SWAP2 SSTORE SWAP1 POP PUSH2 0x4AD0 PUSH1 0x1E DUP3 PUSH2 0x5354 JUMP JUMPDEST PUSH1 0x0 DUP6 DUP2 MSTORE PUSH1 0x12 PUSH1 0x20 MSTORE PUSH1 0x40 SWAP1 KECCAK256 PUSH1 0x8 ADD DUP1 SLOAD PUSH1 0xFF SWAP1 SWAP4 AND PUSH1 0x1 PUSH1 0x30 SHL MUL PUSH7 0xFF000000000000 NOT SWAP1 SWAP4 AND SWAP3 SWAP1 SWAP3 OR SWAP1 SWAP2 SSTORE SWAP1 POP PUSH2 0x4B0E PUSH1 0x18 DUP3 PUSH2 0x5354 JUMP JUMPDEST PUSH1 0x0 DUP6 DUP2 MSTORE PUSH1 0x12 PUSH1 0x20 MSTORE PUSH1 0x40 SWAP1 KECCAK256 PUSH1 0x8 ADD DUP1 SLOAD PUSH1 0xFF SWAP1 SWAP4 AND PUSH1 0x1 PUSH1 0x38 SHL MUL PUSH8 0xFF00000000000000 NOT SWAP1 SWAP4 AND SWAP3 SWAP1 SWAP3 OR SWAP1 SWAP2 SSTORE SWAP1 POP PUSH2 0x4B4D PUSH1 0x7 DUP3 PUSH2 0x5354 JUMP JUMPDEST PUSH1 0x0 DUP6 DUP2 MSTORE PUSH1 0x12 PUSH1 0x20 MSTORE PUSH1 0x40 SWAP1 KECCAK256 PUSH1 0x8 ADD DUP1 SLOAD PUSH1 0xFF SWAP1 SWAP4 AND PUSH1 0x1 PUSH1 0x40 SHL MUL PUSH9 0xFF0000000000000000 NOT SWAP1 SWAP4 AND SWAP3 SWAP1 SWAP3 OR SWAP1 SWAP2 SSTORE SWAP1 POP PUSH2 0x4B8D PUSH1 0x15 DUP3 PUSH2 0x5354 JUMP JUMPDEST PUSH1 0x0 DUP6 DUP2 MSTORE PUSH1 0x12 PUSH1 0x20 MSTORE PUSH1 0x40 SWAP1 KECCAK256 PUSH1 0x8 ADD DUP1 SLOAD PUSH1 0xFF PUSH1 0x50 SHL NOT AND PUSH1 0x1 PUSH1 0x50 SHL PUSH1 0xFF SWAP5 DUP6 AND DUP2 MUL SWAP2 SWAP1 SWAP2 OR SWAP2 DUP3 SWAP1 SSTORE SWAP2 SWAP4 POP PUSH2 0x4BCD SWAP3 SWAP2 SWAP1 DIV AND PUSH1 0x9 PUSH2 0x38E7 JUMP JUMPDEST PUSH1 0x0 DUP5 DUP2 MSTORE PUSH1 0x12 PUSH1 0x20 MSTORE PUSH1 0x40 SWAP1 KECCAK256 PUSH1 0x8 ADD DUP1 SLOAD PUSH1 0xFF SWAP3 SWAP1 SWAP3 AND PUSH1 0x1 PUSH1 0x50 SHL MUL PUSH1 0xFF PUSH1 0x50 SHL NOT SWAP1 SWAP3 AND SWAP2 SWAP1 SWAP2 OR SWAP1 SSTORE PUSH2 0x4C06 PUSH1 0x15 DUP3 PUSH2 0x5354 JUMP JUMPDEST PUSH1 0x0 DUP6 DUP2 MSTORE PUSH1 0x12 PUSH1 0x20 MSTORE PUSH1 0x40 SWAP1 KECCAK256 PUSH1 0x8 ADD DUP1 SLOAD PUSH1 0xFF PUSH1 0x58 SHL NOT AND PUSH1 0x1 PUSH1 0x58 SHL PUSH1 0xFF SWAP5 DUP6 AND DUP2 MUL SWAP2 SWAP1 SWAP2 OR SWAP2 DUP3 SWAP1 SSTORE SWAP2 SWAP4 POP PUSH2 0x4C46 SWAP3 SWAP2 SWAP1 DIV AND PUSH1 0x9 PUSH2 0x38E7 JUMP JUMPDEST PUSH1 0x0 DUP5 DUP2 MSTORE PUSH1 0x12 PUSH1 0x20 MSTORE PUSH1 0x40 SWAP1 KECCAK256 PUSH1 0x8 ADD DUP1 SLOAD PUSH1 0xFF SWAP3 SWAP1 SWAP3 AND PUSH1 0x1 PUSH1 0x58 SHL MUL PUSH1 0xFF PUSH1 0x58 SHL NOT SWAP1 SWAP3 AND SWAP2 SWAP1 SWAP2 OR SWAP1 SSTORE PUSH2 0x4C7F PUSH1 0x1F DUP3 PUSH2 0x5354 JUMP JUMPDEST PUSH1 0x0 DUP6 DUP2 MSTORE PUSH1 0x12 PUSH1 0x20 MSTORE PUSH1 0x40 SWAP1 KECCAK256 PUSH1 0x8 ADD DUP1 SLOAD PUSH1 0xFF PUSH1 0x60 SHL NOT AND PUSH1 0x1 PUSH1 0x60 SHL PUSH1 0xFF SWAP5 DUP6 AND DUP2 MUL SWAP2 SWAP1 SWAP2 OR SWAP2 DUP3 SWAP1 SSTORE SWAP2 SWAP4 POP PUSH2 0x4CBF SWAP3 SWAP2 SWAP1 DIV AND PUSH1 0x9 PUSH2 0x38E7 JUMP JUMPDEST PUSH1 0x0 DUP5 DUP2 MSTORE PUSH1 0x12 PUSH1 0x20 MSTORE PUSH1 0x40 SWAP1 KECCAK256 PUSH1 0x8 ADD DUP1 SLOAD PUSH1 0xFF SWAP3 SWAP1 SWAP3 AND PUSH1 0x1 PUSH1 0x60 SHL MUL PUSH1 0xFF PUSH1 0x60 SHL NOT SWAP1 SWAP3 AND SWAP2 SWAP1 SWAP2 OR SWAP1 SSTORE PUSH2 0x4CF8 PUSH1 0x10 DUP3 PUSH2 0x5354 JUMP JUMPDEST PUSH1 0x0 DUP6 DUP2 MSTORE PUSH1 0x12 PUSH1 0x20 MSTORE PUSH1 0x40 SWAP1 KECCAK256 PUSH1 0x8 ADD DUP1 SLOAD PUSH1 0xFF PUSH1 0x68 SHL NOT AND PUSH1 0x1 PUSH1 0x68 SHL PUSH1 0xFF SWAP5 DUP6 AND DUP2 MUL SWAP2 SWAP1 SWAP2 OR SWAP2 DUP3 SWAP1 SSTORE SWAP2 SWAP4 POP PUSH2 0x4D38 SWAP3 SWAP2 SWAP1 DIV AND PUSH1 0x2 PUSH2 0x38E7 JUMP JUMPDEST PUSH1 0x0 DUP5 DUP2 MSTORE PUSH1 0x12 PUSH1 0x20 MSTORE PUSH1 0x40 SWAP1 KECCAK256 PUSH1 0x8 ADD DUP1 SLOAD PUSH1 0xFF SWAP3 SWAP1 SWAP3 AND PUSH1 0x1 PUSH1 0x68 SHL MUL PUSH1 0xFF PUSH1 0x68 SHL NOT SWAP1 SWAP3 AND SWAP2 SWAP1 SWAP2 OR SWAP1 SSTORE PUSH2 0x4D71 PUSH1 0x10 DUP3 PUSH2 0x5354 JUMP JUMPDEST PUSH1 0x0 DUP6 DUP2 MSTORE PUSH1 0x12 PUSH1 0x20 MSTORE PUSH1 0x40 SWAP1 KECCAK256 PUSH1 0x8 ADD DUP1 SLOAD PUSH1 0xFF PUSH1 0x70 SHL NOT AND PUSH1 0x1 PUSH1 0x70 SHL PUSH1 0xFF SWAP5 DUP6 AND DUP2 MUL SWAP2 SWAP1 SWAP2 OR SWAP2 DUP3 SWAP1 SSTORE SWAP2 SWAP4 POP PUSH2 0x4DB1 SWAP3 SWAP2 SWAP1 DIV AND PUSH1 0x2 PUSH2 0x38E7 JUMP JUMPDEST PUSH1 0x0 DUP5 DUP2 MSTORE PUSH1 0x12 PUSH1 0x20 MSTORE PUSH1 0x40 SWAP1 KECCAK256 PUSH1 0x8 ADD DUP1 SLOAD PUSH1 0xFF SWAP3 SWAP1 SWAP3 AND PUSH1 0x1 PUSH1 0x70 SHL MUL PUSH1 0xFF PUSH1 0x70 SHL NOT SWAP1 SWAP3 AND SWAP2 SWAP1 SWAP2 OR SWAP1 SSTORE PUSH2 0x4DEA PUSH1 0x10 DUP3 PUSH2 0x5354 JUMP JUMPDEST PUSH1 0x0 DUP6 DUP2 MSTORE PUSH1 0x12 PUSH1 0x20 MSTORE PUSH1 0x40 SWAP1 KECCAK256 PUSH1 0x8 ADD DUP1 SLOAD PUSH1 0xFF PUSH1 0x78 SHL NOT AND PUSH1 0x1 PUSH1 0x78 SHL PUSH1 0xFF SWAP5 DUP6 AND DUP2 MUL SWAP2 SWAP1 SWAP2 OR SWAP2 DUP3 SWAP1 SSTORE SWAP2 SWAP4 POP PUSH2 0x4E2A SWAP3 SWAP2 SWAP1 DIV AND PUSH1 0x2 PUSH2 0x38E7 JUMP JUMPDEST PUSH1 0x0 DUP5 DUP2 MSTORE PUSH1 0x12 PUSH1 0x20 MSTORE PUSH1 0x40 SWAP1 KECCAK256 PUSH1 0x8 ADD DUP1 SLOAD PUSH1 0xFF SWAP3 SWAP1 SWAP3 AND PUSH1 0x1 PUSH1 0x78 SHL MUL PUSH1 0xFF PUSH1 0x78 SHL NOT SWAP1 SWAP3 AND SWAP2 SWAP1 SWAP2 OR SWAP1 SSTORE PUSH2 0x4E63 PUSH1 0x10 DUP3 PUSH2 0x5354 JUMP JUMPDEST PUSH1 0x0 DUP6 DUP2 MSTORE PUSH1 0x12 PUSH1 0x20 MSTORE PUSH1 0x40 SWAP1 KECCAK256 PUSH1 0x8 ADD DUP1 SLOAD PUSH1 0xFF PUSH1 0x80 SHL NOT AND PUSH1 0x1 PUSH1 0x80 SHL PUSH1 0xFF SWAP5 DUP6 AND DUP2 MUL SWAP2 SWAP1 SWAP2 OR SWAP2 DUP3 SWAP1 SSTORE SWAP2 SWAP4 POP PUSH2 0x4EA3 SWAP3 SWAP2 SWAP1 DIV AND PUSH1 0x2 PUSH2 0x38E7 JUMP JUMPDEST PUSH1 0x0 DUP5 DUP2 MSTORE PUSH1 0x12 PUSH1 0x20 MSTORE PUSH1 0x40 SWAP1 KECCAK256 PUSH1 0x8 ADD DUP1 SLOAD PUSH1 0xFF SWAP3 SWAP1 SWAP3 AND PUSH1 0x1 PUSH1 0x80 SHL MUL PUSH1 0xFF PUSH1 0x80 SHL NOT SWAP1 SWAP3 AND SWAP2 SWAP1 SWAP2 OR SWAP1 SSTORE PUSH2 0x4EDC PUSH1 0x10 DUP3 PUSH2 0x5354 JUMP JUMPDEST PUSH1 0x0 DUP6 DUP2 MSTORE PUSH1 0x12 PUSH1 0x20 MSTORE PUSH1 0x40 SWAP1 KECCAK256 PUSH1 0x8 ADD DUP1 SLOAD PUSH1 0xFF PUSH1 0x88 SHL NOT AND PUSH1 0x1 PUSH1 0x88 SHL PUSH1 0xFF SWAP5 DUP6 AND DUP2 MUL SWAP2 SWAP1 SWAP2 OR SWAP2 DUP3 SWAP1 SSTORE SWAP2 SWAP4 POP PUSH2 0x4F1C SWAP3 SWAP2 SWAP1 DIV AND PUSH1 0x2 PUSH2 0x38E7 JUMP JUMPDEST PUSH1 0x0 DUP5 DUP2 MSTORE PUSH1 0x12 PUSH1 0x20 MSTORE PUSH1 0x40 SWAP1 KECCAK256 PUSH1 0x8 ADD DUP1 SLOAD PUSH1 0xFF SWAP3 SWAP1 SWAP3 AND PUSH1 0x1 PUSH1 0x88 SHL MUL PUSH1 0xFF PUSH1 0x88 SHL NOT SWAP1 SWAP3 AND SWAP2 SWAP1 SWAP2 OR SWAP1 SSTORE PUSH2 0x4F55 PUSH1 0x10 DUP3 PUSH2 0x5354 JUMP JUMPDEST PUSH1 0x0 DUP6 DUP2 MSTORE PUSH1 0x12 PUSH1 0x20 MSTORE PUSH1 0x40 SWAP1 KECCAK256 PUSH1 0x8 ADD DUP1 SLOAD PUSH1 0xFF PUSH1 0x90 SHL NOT AND PUSH1 0x1 PUSH1 0x90 SHL PUSH1 0xFF SWAP5 DUP6 AND DUP2 MUL SWAP2 SWAP1 SWAP2 OR SWAP2 DUP3 SWAP1 SSTORE SWAP2 SWAP4 POP PUSH2 0x4F95 SWAP3 SWAP2 SWAP1 DIV AND PUSH1 0x2 PUSH2 0x38E7 JUMP JUMPDEST PUSH1 0x0 SWAP4 DUP5 MSTORE PUSH1 0x12 PUSH1 0x20 MSTORE PUSH1 0x40 SWAP1 SWAP4 KECCAK256 PUSH1 0x8 ADD DUP1 SLOAD PUSH1 0xFF SWAP5 SWAP1 SWAP5 AND PUSH1 0x1 PUSH1 0x90 SHL MUL PUSH1 0xFF PUSH1 0x90 SHL NOT SWAP1 SWAP5 AND SWAP4 SWAP1 SWAP4 OR SWAP1 SWAP3 SSTORE POP POP POP POP JUMP JUMPDEST PUSH1 0x1E SLOAD PUSH1 0x40 DUP1 MLOAD DUP1 DUP3 ADD DUP3 MSTORE PUSH1 0xA DUP2 MSTORE PUSH10 0x50524943455F57415253 PUSH1 0xB0 SHL PUSH1 0x20 DUP1 DUP4 ADD SWAP2 DUP3 MSTORE SWAP3 MLOAD PUSH4 0x6CADCD79 PUSH1 0xE1 SHL DUP2 MSTORE PUSH1 0x4 DUP2 ADD SWAP4 DUP5 MSTORE DUP3 MLOAD PUSH1 0x24 DUP3 ADD MSTORE DUP3 MLOAD PUSH1 0x0 SWAP6 PUSH1 0x1 PUSH1 0x1 PUSH1 0xA0 SHL SUB AND SWAP5 PUSH4 0xD95B9AF2 SWAP5 SWAP4 SWAP1 SWAP3 DUP4 SWAP3 PUSH1 0x44 SWAP1 SWAP2 ADD SWAP2 SWAP1 DUP1 DUP4 DUP4 DUP12 JUMPDEST DUP4 DUP2 LT ISZERO PUSH2 0x5049 JUMPI DUP2 DUP2 ADD MLOAD DUP4 DUP3 ADD MSTORE PUSH1 0x20 ADD PUSH2 0x5031 JUMP JUMPDEST POP POP POP POP SWAP1 POP SWAP1 DUP2 ADD SWAP1 PUSH1 0x1F AND DUP1 ISZERO PUSH2 0x5076 JUMPI DUP1 DUP3 SUB DUP1 MLOAD PUSH1 0x1 DUP4 PUSH1 0x20 SUB PUSH2 0x100 EXP SUB NOT AND DUP2 MSTORE PUSH1 0x20 ADD SWAP2 POP JUMPDEST POP SWAP3 POP POP POP PUSH1 0x20 PUSH1 0x40 MLOAD DUP1 DUP4 SUB DUP2 PUSH1 0x0 DUP8 DUP1 EXTCODESIZE ISZERO DUP1 ISZERO PUSH2 0x5095 JUMPI PUSH1 0x0 DUP1 REVERT JUMPDEST POP GAS CALL ISZERO DUP1 ISZERO PUSH2 0x50A9 JUMPI RETURNDATASIZE PUSH1 0x0 DUP1 RETURNDATACOPY RETURNDATASIZE PUSH1 0x0 REVERT JUMPDEST POP POP POP POP PUSH1 0x40 MLOAD RETURNDATASIZE PUSH1 0x20 DUP2 LT ISZERO PUSH2 0x50BF JUMPI PUSH1 0x0 DUP1 REVERT JUMPDEST POP MLOAD PUSH1 0x40 DUP1 MLOAD PUSH4 0x72D7F665 PUSH1 0xE1 SHL DUP2 MSTORE ADDRESS PUSH1 0x4 DUP3 ADD MSTORE SWAP1 MLOAD SWAP2 SWAP3 POP DUP3 SWAP2 PUSH1 0x0 SWAP2 PUSH1 0x1 PUSH1 0x1 PUSH1 0xA0 SHL SUB DUP5 AND SWAP2 PUSH4 0xE5AFECCA SWAP2 PUSH1 0x24 DUP1 DUP3 ADD SWAP3 PUSH1 0x20 SWAP3 SWAP1 SWAP2 SWAP1 DUP3 SWAP1 SUB ADD DUP2 DUP8 DUP8 DUP1 EXTCODESIZE ISZERO DUP1 ISZERO PUSH2 0x5111 JUMPI PUSH1 0x0 DUP1 REVERT JUMPDEST POP GAS CALL ISZERO DUP1 ISZERO PUSH2 0x5125 JUMPI RETURNDATASIZE PUSH1 0x0 DUP1 RETURNDATACOPY RETURNDATASIZE PUSH1 0x0 REVERT JUMPDEST POP POP POP POP PUSH1 0x40 MLOAD RETURNDATASIZE PUSH1 0x20 DUP2 LT ISZERO PUSH2 0x513B JUMPI PUSH1 0x0 DUP1 REVERT JUMPDEST POP MLOAD SWAP1 POP PUSH2 0x5169 PUSH32 0xAE0C232B87105E0A8134F8B92146DCD1D99373D32394BE9D70F700F90B3A3DB3 DUP3 PUSH2 0x212F JUMP JUMPDEST DUP1 PUSH1 0x1 PUSH1 0x1 PUSH1 0xA0 SHL SUB AND PUSH4 0xD65AB5F2 PUSH1 0x40 MLOAD DUP2 PUSH4 0xFFFFFFFF AND PUSH1 0xE0 SHL DUP2 MSTORE PUSH1 0x4 ADD PUSH1 0x0 PUSH1 0x40 MLOAD DUP1 DUP4 SUB DUP2 PUSH1 0x0 DUP8 DUP1 EXTCODESIZE ISZERO DUP1 ISZERO PUSH2 0x51A4 JUMPI PUSH1 0x0 DUP1 REVERT JUMPDEST POP GAS CALL ISZERO DUP1 ISZERO PUSH2 0x3BCD JUMPI RETURNDATASIZE PUSH1 0x0 DUP1 RETURNDATACOPY RETURNDATASIZE PUSH1 0x0 REVERT JUMPDEST PUSH1 0x1 JUMPDEST PUSH1 0x7 DUP2 GT PUSH2 0x51EB JUMPI PUSH1 0x0 DUP2 DUP2 MSTORE PUSH1 0xF PUSH1 0x20 MSTORE PUSH1 0x40 SWAP1 KECCAK256 SLOAD PUSH1 0xFF AND ISZERO PUSH2 0x51E3 JUMPI PUSH2 0x51E3 DUP2 PUSH2 0x5385 JUMP JUMPDEST PUSH1 0x1 ADD PUSH2 0x51BB JUMP JUMPDEST POP PUSH1 0x40 MLOAD PUSH32 0x143B2C36FAC98F86168603D28D499BDE9CE0367D41E111CEF9F2ECBC9EEABFC SWAP1 PUSH1 0x0 SWAP1 LOG1 JUMP JUMPDEST SLOAD SWAP1 JUMP JUMPDEST PUSH1 0x0 DUP2 DUP2 MSTORE PUSH1 0x1 DUP4 ADD PUSH1 0x20 MSTORE PUSH1 0x40 DUP2 KECCAK256 SLOAD DUP1 ISZERO PUSH2 0x52D7 JUMPI DUP4 SLOAD PUSH1 0x0 NOT DUP1 DUP4 ADD SWAP2 SWAP1 DUP2 ADD SWAP1 PUSH1 0x0 SWAP1 DUP8 SWAP1 DUP4 SWAP1 DUP2 LT PUSH2 0x524E JUMPI INVALID JUMPDEST SWAP1 PUSH1 0x0 MSTORE PUSH1 0x20 PUSH1 0x0 KECCAK256 ADD SLOAD SWAP1 POP DUP1 DUP8 PUSH1 0x0 ADD DUP5 DUP2 SLOAD DUP2 LT PUSH2 0x526B JUMPI INVALID JUMPDEST PUSH1 0x0 SWAP2 DUP3 MSTORE PUSH1 0x20 DUP1 DUP4 KECCAK256 SWAP1 SWAP2 ADD SWAP3 SWAP1 SWAP3 SSTORE DUP3 DUP2 MSTORE PUSH1 0x1 DUP10 DUP2 ADD SWAP1 SWAP3 MSTORE PUSH1 0x40 SWAP1 KECCAK256 SWAP1 DUP5 ADD SWAP1 SSTORE DUP7 SLOAD DUP8 SWAP1 DUP1 PUSH2 0x529B JUMPI INVALID JUMPDEST PUSH1 0x1 SWAP1 SUB DUP2 DUP2 SWAP1 PUSH1 0x0 MSTORE PUSH1 0x20 PUSH1 0x0 KECCAK256 ADD PUSH1 0x0 SWAP1 SSTORE SWAP1 SSTORE DUP7 PUSH1 0x1 ADD PUSH1 0x0 DUP8 DUP2 MSTORE PUSH1 0x20 ADD SWAP1 DUP2 MSTORE PUSH1 0x20 ADD PUSH1 0x0 KECCAK256 PUSH1 0x0 SWAP1 SSTORE PUSH1 0x1 SWAP5 POP POP POP POP POP PUSH2 0x143D JUMP JUMPDEST PUSH1 0x0 SWAP2 POP POP PUSH2 0x143D JUMP JUMPDEST PUSH1 0x40 DUP1 MLOAD PUSH1 0x20 DUP1 DUP3 ADD SWAP7 SWAP1 SWAP7 MSTORE DUP1 DUP3 ADD SWAP5 SWAP1 SWAP5 MSTORE PUSH1 0x1 PUSH1 0x1 PUSH1 0xA0 SHL SUB SWAP3 SWAP1 SWAP3 AND PUSH1 0x60 DUP5 ADD MSTORE PUSH1 0x80 DUP1 DUP5 ADD SWAP2 SWAP1 SWAP2 MSTORE DUP2 MLOAD DUP1 DUP5 SUB SWAP1 SWAP2 ADD DUP2 MSTORE PUSH1 0xA0 SWAP1 SWAP3 ADD SWAP1 MSTORE DUP1 MLOAD SWAP2 ADD KECCAK256 SWAP1 JUMP JUMPDEST PUSH1 0x40 DUP1 MLOAD PUSH1 0x20 DUP1 DUP3 ADD SWAP5 SWAP1 SWAP5 MSTORE DUP1 DUP3 ADD SWAP3 SWAP1 SWAP3 MSTORE DUP1 MLOAD DUP1 DUP4 SUB DUP3 ADD DUP2 MSTORE PUSH1 0x60 SWAP1 SWAP3 ADD SWAP1 MSTORE DUP1 MLOAD SWAP2 ADD KECCAK256 SWAP1 JUMP JUMPDEST PUSH1 0x0 DUP1 PUSH2 0x536F PUSH1 0x1 PUSH2 0x5369 DUP6 PUSH1 0xFF DUP9 AND PUSH2 0x5421 JUMP JUMPDEST SWAP1 PUSH2 0x38E7 JUMP JUMPDEST PUSH2 0x537A DUP5 PUSH1 0xA PUSH2 0x419B JUMP JUMPDEST SWAP2 POP SWAP2 POP SWAP3 POP SWAP3 SWAP1 POP JUMP JUMPDEST DUP1 PUSH1 0x0 DUP2 GT DUP1 ISZERO PUSH2 0x5397 JUMPI POP PUSH1 0x7 DUP2 GT ISZERO JUMPDEST PUSH2 0x53A0 JUMPI PUSH1 0x0 DUP1 REVERT JUMPDEST PUSH1 0x0 DUP3 DUP2 MSTORE PUSH1 0xF PUSH1 0x20 MSTORE PUSH1 0x40 SWAP1 KECCAK256 SLOAD PUSH1 0xFF AND PUSH2 0x53BB JUMPI PUSH1 0x0 DUP1 REVERT JUMPDEST PUSH1 0x0 DUP3 DUP2 MSTORE PUSH1 0xE PUSH1 0x20 MSTORE PUSH1 0x40 SWAP1 KECCAK256 SLOAD PUSH2 0x53DF SWAP1 PUSH1 0x1 PUSH1 0x1 PUSH1 0xA0 SHL SUB AND DUP4 PUSH1 0x1 PUSH2 0x5488 JUMP JUMPDEST PUSH1 0xD SLOAD PUSH2 0x53ED SWAP1 PUSH1 0x1 PUSH2 0x4202 JUMP JUMPDEST PUSH1 0xD SSTORE POP PUSH1 0x0 SWAP1 DUP2 MSTORE PUSH1 0xE PUSH1 0x20 SWAP1 DUP2 MSTORE PUSH1 0x40 DUP1 DUP4 KECCAK256 DUP1 SLOAD PUSH1 0x1 PUSH1 0x1 PUSH1 0xA0 SHL SUB NOT AND SWAP1 SSTORE PUSH1 0xF SWAP1 SWAP2 MSTORE SWAP1 KECCAK256 DUP1 SLOAD PUSH1 0xFF NOT AND SWAP1 SSTORE JUMP JUMPDEST PUSH1 0x0 DUP1 DUP3 GT PUSH2 0x5477 JUMPI PUSH1 0x40 DUP1 MLOAD PUSH3 0x461BCD PUSH1 0xE5 SHL DUP2 MSTORE PUSH1 0x20 PUSH1 0x4 DUP3 ADD MSTORE PUSH1 0x18 PUSH1 0x24 DUP3 ADD MSTORE PUSH32 0x536166654D6174683A206D6F64756C6F206279207A65726F0000000000000000 PUSH1 0x44 DUP3 ADD MSTORE SWAP1 MLOAD SWAP1 DUP2 SWAP1 SUB PUSH1 0x64 ADD SWAP1 REVERT JUMPDEST DUP2 DUP4 DUP2 PUSH2 0x5480 JUMPI INVALID JUMPDEST MOD SWAP4 SWAP3 POP POP POP JUMP JUMPDEST PUSH1 0x1 PUSH1 0x1 PUSH1 0xA0 SHL SUB DUP4 AND PUSH2 0x54CD JUMPI PUSH1 0x40 MLOAD PUSH3 0x461BCD PUSH1 0xE5 SHL DUP2 MSTORE PUSH1 0x4 ADD DUP1 DUP1 PUSH1 0x20 ADD DUP3 DUP2 SUB DUP3 MSTORE PUSH1 0x23 DUP2 MSTORE PUSH1 0x20 ADD DUP1 PUSH2 0x5A42 PUSH1 0x23 SWAP2 CODECOPY PUSH1 0x40 ADD SWAP2 POP POP PUSH1 0x40 MLOAD DUP1 SWAP2 SUB SWAP1 REVERT JUMPDEST PUSH1 0x0 PUSH2 0x54D7 PUSH2 0x3941 JUMP JUMPDEST SWAP1 POP PUSH2 0x5507 DUP2 DUP6 PUSH1 0x0 PUSH2 0x54E9 DUP8 PUSH2 0x446D JUMP JUMPDEST PUSH2 0x54F2 DUP8 PUSH2 0x446D JUMP JUMPDEST PUSH1 0x40 MLOAD DUP1 PUSH1 0x20 ADD PUSH1 0x40 MSTORE DUP1 PUSH1 0x0 DUP2 MSTORE POP PUSH2 0x3ABB JUMP JUMPDEST PUSH2 0x554E DUP3 PUSH1 0x40 MLOAD DUP1 PUSH1 0x60 ADD PUSH1 0x40 MSTORE DUP1 PUSH1 0x24 DUP2 MSTORE PUSH1 0x20 ADD PUSH2 0x594E PUSH1 0x24 SWAP2 CODECOPY PUSH1 0x0 DUP7 DUP2 MSTORE PUSH1 0x2 PUSH1 0x20 SWAP1 DUP2 MSTORE PUSH1 0x40 DUP1 DUP4 KECCAK256 PUSH1 0x1 PUSH1 0x1 PUSH1 0xA0 SHL SUB DUP12 AND DUP5 MSTORE SWAP1 SWAP2 MSTORE SWAP1 KECCAK256 SLOAD SWAP2 SWAP1 PUSH2 0x3BD6 JUMP JUMPDEST PUSH1 0x0 DUP5 DUP2 MSTORE PUSH1 0x2 PUSH1 0x20 SWAP1 DUP2 MSTORE PUSH1 0x40 DUP1 DUP4 KECCAK256 PUSH1 0x1 PUSH1 0x1 PUSH1 0xA0 SHL SUB DUP1 DUP11 AND DUP1 DUP7 MSTORE SWAP2 DUP5 MSTORE DUP3 DUP6 KECCAK256 SWAP6 SWAP1 SWAP6 SSTORE DUP2 MLOAD DUP9 DUP2 MSTORE SWAP3 DUP4 ADD DUP8 SWAP1 MSTORE DUP2 MLOAD SWAP4 SWAP5 SWAP1 SWAP4 SWAP1 DUP7 AND SWAP3 PUSH32 0xC3D58168C5AE7397731D063D5BBF3D657854427343F4C083240F7AACAA2D0F62 SWAP3 SWAP1 DUP3 SWAP1 SUB ADD SWAP1 LOG4 POP POP POP POP JUMP JUMPDEST PUSH1 0x40 MLOAD DUP1 PUSH1 0xA0 ADD PUSH1 0x40 MSTORE DUP1 PUSH1 0x0 ISZERO ISZERO DUP2 MSTORE PUSH1 0x20 ADD PUSH1 0x0 DUP2 MSTORE PUSH1 0x20 ADD PUSH1 0x0 DUP2 MSTORE PUSH1 0x20 ADD PUSH1 0x60 DUP2 MSTORE PUSH1 0x20 ADD PUSH1 0x0 DUP2 MSTORE POP SWAP1 JUMP JUMPDEST DUP3 DUP1 SLOAD PUSH1 0x1 DUP2 PUSH1 0x1 AND ISZERO PUSH2 0x100 MUL SUB AND PUSH1 0x2 SWAP1 DIV SWAP1 PUSH1 0x0 MSTORE PUSH1 0x20 PUSH1 0x0 KECCAK256 SWAP1 PUSH1 0x1F ADD PUSH1 0x20 SWAP1 DIV DUP2 ADD SWAP3 DUP3 PUSH1 0x1F LT PUSH2 0x562D JUMPI DUP1 MLOAD PUSH1 0xFF NOT AND DUP4 DUP1 ADD OR DUP6 SSTORE PUSH2 0x565A JUMP JUMPDEST DUP3 DUP1 ADD PUSH1 0x1 ADD DUP6 SSTORE DUP3 ISZERO PUSH2 0x565A JUMPI SWAP2 DUP3 ADD JUMPDEST DUP3 DUP2 GT ISZERO PUSH2 0x565A JUMPI DUP3 MLOAD DUP3 SSTORE SWAP2 PUSH1 0x20 ADD SWAP2 SWAP1 PUSH1 0x1 ADD SWAP1 PUSH2 0x563F JUMP JUMPDEST POP PUSH2 0x5666 SWAP3 SWAP2 POP PUSH2 0x57B5 JUMP JUMPDEST POP SWAP1 JUMP JUMPDEST PUSH1 0x40 DUP1 MLOAD PUSH2 0x360 DUP2 ADD DUP3 MSTORE PUSH1 0x0 DUP1 DUP3 MSTORE PUSH1 0x60 PUSH1 0x20 DUP4 ADD DUP2 SWAP1 MSTORE SWAP3 DUP3 ADD DUP4 SWAP1 MSTORE SWAP2 DUP2 ADD DUP3 SWAP1 MSTORE PUSH1 0x80 DUP2 ADD DUP3 SWAP1 MSTORE PUSH1 0xA0 DUP2 ADD DUP3 SWAP1 MSTORE PUSH1 0xC0 DUP2 ADD DUP3 SWAP1 MSTORE PUSH1 0xE0 DUP2 ADD DUP3 SWAP1 MSTORE PUSH2 0x100 DUP2 ADD DUP3 SWAP1 MSTORE PUSH2 0x120 DUP2 ADD DUP3 SWAP1 MSTORE PUSH2 0x140 DUP2 ADD DUP3 SWAP1 MSTORE PUSH2 0x160 DUP2 ADD DUP3 SWAP1 MSTORE PUSH2 0x180 DUP2 ADD DUP3 SWAP1 MSTORE PUSH2 0x1A0 DUP2 ADD DUP3 SWAP1 MSTORE PUSH2 0x1C0 DUP2 ADD DUP3 SWAP1 MSTORE PUSH2 0x1E0 DUP2 ADD DUP3 SWAP1 MSTORE PUSH2 0x200 DUP2 ADD DUP3 SWAP1 MSTORE PUSH2 0x220 DUP2 ADD DUP3 SWAP1 MSTORE PUSH2 0x240 DUP2 ADD DUP3 SWAP1 MSTORE PUSH2 0x260 DUP2 ADD DUP3 SWAP1 MSTORE PUSH2 0x280 DUP2 ADD DUP3 SWAP1 MSTORE PUSH2 0x2A0 DUP2 ADD DUP3 SWAP1 MSTORE PUSH2 0x2C0 DUP2 ADD DUP3 SWAP1 MSTORE PUSH2 0x2E0 DUP2 ADD DUP3 SWAP1 MSTORE PUSH2 0x300 DUP2 ADD DUP3 SWAP1 MSTORE PUSH2 0x320 DUP2 ADD DUP3 SWAP1 MSTORE PUSH2 0x340 DUP2 ADD SWAP2 SWAP1 SWAP2 MSTORE SWAP1 JUMP JUMPDEST DUP3 DUP1 SLOAD PUSH1 0x1 DUP2 PUSH1 0x1 AND ISZERO PUSH2 0x100 MUL SUB AND PUSH1 0x2 SWAP1 DIV SWAP1 PUSH1 0x0 MSTORE PUSH1 0x20 PUSH1 0x0 KECCAK256 SWAP1 PUSH1 0x1F ADD PUSH1 0x20 SWAP1 DIV DUP2 ADD SWAP3 DUP3 PUSH1 0x1F LT PUSH2 0x5788 JUMPI DUP3 DUP1 ADD PUSH1 0xFF NOT DUP3 CALLDATALOAD AND OR DUP6 SSTORE PUSH2 0x565A JUMP JUMPDEST DUP3 DUP1 ADD PUSH1 0x1 ADD DUP6 SSTORE DUP3 ISZERO PUSH2 0x565A JUMPI SWAP2 DUP3 ADD JUMPDEST DUP3 DUP2 GT ISZERO PUSH2 0x565A JUMPI DUP3 CALLDATALOAD DUP3 SSTORE SWAP2 PUSH1 0x20 ADD SWAP2 SWAP1 PUSH1 0x1 ADD SWAP1 PUSH2 0x579A JUMP JUMPDEST JUMPDEST DUP1 DUP3 GT ISZERO PUSH2 0x5666 JUMPI PUSH1 0x0 DUP2 SSTORE PUSH1 0x1 ADD PUSH2 0x57B6 JUMP JUMPDEST PUSH1 0xE0 SHR SWAP1 JUMP JUMPDEST PUSH1 0x0 PUSH1 0x44 RETURNDATASIZE LT ISZERO PUSH2 0x57E0 JUMPI PUSH2 0x2B83 JUMP JUMPDEST PUSH1 0x4 DUP2 DUP3 RETURNDATACOPY PUSH4 0x8C379A0 PUSH2 0x57F4 DUP3 MLOAD PUSH2 0x57CA JUMP JUMPDEST EQ PUSH2 0x57FE JUMPI PUSH2 0x2B83 JUMP JUMPDEST PUSH1 0x40 MLOAD RETURNDATASIZE PUSH1 0x3 NOT ADD PUSH1 0x4 DUP3 RETURNDATACOPY DUP1 MLOAD RETURNDATASIZE PUSH8 0xFFFFFFFFFFFFFFFF DUP2 PUSH1 0x24 DUP5 ADD GT DUP2 DUP5 GT OR ISZERO PUSH2 0x582E JUMPI POP POP POP POP PUSH2 0x2B83 JUMP JUMPDEST DUP3 DUP5 ADD SWAP3 POP DUP3 MLOAD SWAP2 POP DUP1 DUP3 GT ISZERO PUSH2 0x5848 JUMPI POP POP POP POP PUSH2 0x2B83 JUMP JUMPDEST POP RETURNDATASIZE DUP4 ADD PUSH1 0x20 DUP3 DUP5 ADD ADD GT ISZERO PUSH2 0x5860 JUMPI POP POP POP PUSH2 0x2B83 JUMP JUMPDEST PUSH1 0x1F ADD PUSH1 0x1F NOT AND DUP2 ADD PUSH1 0x20 ADD PUSH1 0x40 MSTORE SWAP2 POP POP SWAP1 JUMP INVALID GASLIMIT MSTORE NUMBER BALANCE BALANCE CALLDATALOAD CALLDATALOAD GASPRICE KECCAK256 PUSH21 0x72616E7366657220746F206E6F6E20455243313135 CALLDATALOAD MSTORE PUSH6 0x636569766572 KECCAK256 PUSH10 0x6D706C656D656E746572 GASLIMIT PUSH15 0x756D657261626C655365743A20696E PUSH5 0x6578206F75 PUSH21 0x206F6620626F756E6473455243313135353A204552 NUMBER BALANCE BALANCE CALLDATALOAD CALLDATALOAD MSTORE PUSH6 0x636569766572 KECCAK256 PUSH19 0x656A656374656420746F6B656E734163636573 PUSH20 0x436F6E74726F6C3A2073656E646572206D757374 KECCAK256 PUSH3 0x652061 PUSH15 0x2061646D696E20746F206772616E74 GASLIMIT MSTORE NUMBER BALANCE BALANCE CALLDATALOAD CALLDATALOAD GASPRICE KECCAK256 PUSH3 0x616C61 PUSH15 0x636520717565727920666F72207468 PUSH6 0x207A65726F20 PUSH2 0x6464 PUSH19 0x657373455243313135353A206275726E20616D PUSH16 0x756E7420657863656564732062616C61 PUSH15 0x6365455243313135353A2063616C6C PUSH6 0x72206973206E PUSH16 0x74206F776E6572206E6F722061707072 PUSH16 0x766564416363657373436F6E74726F6C GASPRICE KECCAK256 PUSH20 0x656E646572206D75737420626520616E2061646D PUSH10 0x6E20746F207265766F6B PUSH6 0x455243313135 CALLDATALOAD GASPRICE KECCAK256 PUSH21 0x72616E7366657220746F20746865207A65726F2061 PUSH5 0x6472657373 GASLIMIT MSTORE NUMBER BALANCE BALANCE CALLDATALOAD CALLDATALOAD GASPRICE KECCAK256 PUSH21 0x72616E736665722063616C6C6572206973206E6F74 KECCAK256 PUSH16 0x776E6572206E6F7220617070726F7665 PUSH5 0x2172861495 0xE7 0xB8 0x5E 0xDA 0xC7 RETURNDATACOPY EXTCODECOPY 0xD5 0xFB 0xB4 0x2D 0xD6 PUSH22 0xBAADF627720E687BCFDACA025096455243313135353A KECCAK256 PUSH3 0x75726E KECCAK256 PUSH7 0x726F6D20746865 KECCAK256 PUSH27 0x65726F2061646472657373455243313135353A20696E7375666669 PUSH4 0x69656E74 KECCAK256 PUSH3 0x616C61 PUSH15 0x636520666F72207472616E73666572 MSTORE8 PUSH2 0x6665 0x4D PUSH2 0x7468 GASPRICE KECCAK256 PUSH14 0x756C7469706C69636174696F6E20 PUSH16 0x766572666C6F77455243313135353A20 PUSH20 0x657474696E6720617070726F76616C2073746174 PUSH22 0x7320666F722073656C66455243313135353A20616363 PUSH16 0x756E747320616E6420696473206C656E PUSH8 0x7468206D69736D61 PUSH21 0x6368455243313135353A2069647320616E6420616D PUSH16 0x756E7473206C656E677468206D69736D PUSH2 0x7463 PUSH9 0x455243313135353A20 PUSH14 0x696E7420746F20746865207A6572 PUSH16 0x2061646472657373416363657373436F PUSH15 0x74726F6C3A2063616E206F6E6C7920 PUSH19 0x656E6F756E636520726F6C657320666F722073 PUSH6 0x6C66A2646970 PUSH7 0x7358221220FD96 SWAP7 0xF6 0x4A JUMP 0xD9 0x23 DELEGATECALL 0xE7 0xEB SWAP14 0x49 ADDRESS 0xE9 SLOAD 0xCB 0x4D 0xE 0xCC 0x2C DUP4 GT CALLDATASIZE PUSH31 0xE22F4ABEAE970764736F6C634300060C003300000000000000000000000000 ","sha1":"d208813959a1415157c1804fad5afecbe129f3e5","source":"// SPDX-License-Identifier: UNLICENSED\npragma solidity ^0.6.0;\n\nimport \"../interfaces/ICryptoChampions.sol\";\nimport \"../interfaces/IMinigameFactoryRegistry.sol\";\nimport \"./chainlink_contracts/AggregatorV3Interface.sol\";\nimport \"./chainlink_contracts/VRFConsumerBase.sol\";\nimport \"./minigames/games/priceWars/PriceWarsFactory.sol\";\nimport \"./minigames/games/priceWars/PriceWars.sol\";\n\nimport \"OpenZeppelin/openzeppelin-contracts@3.4.0/contracts/access/AccessControl.sol\";\nimport \"OpenZeppelin/openzeppelin-contracts@3.4.0/contracts/math/SafeMath.sol\";\nimport \"OpenZeppelin/openzeppelin-contracts@3.4.0/contracts/token/ERC1155/ERC1155.sol\";\n\n/// @title Crypto Champions Interface\n/// @author Oozyx\n/// @notice This is the crypto champions class\ncontract CryptoChampions is ICryptoChampions, AccessControl, ERC1155, VRFConsumerBase {\n    using SafeMath for uint256;\n    using SafeMath for uint8;\n\n    // Possible phases the contract can be in.  Phase one is when users can mint elder spirits and two is when they can mint heros.\n    enum Phase { SETUP, ACTION }\n\n    // The current phase the contract is in.\n    Phase public currentPhase;\n\n    // Number of tokens minted whenever a user mints a hero\n    uint256 internal constant NUM_TOKENS_MINTED = 500 * 10**18;\n\n    // The duration of each phase in days\n    uint256 internal _setupPhaseDuration;\n    uint256 internal _actionPhaseDuration;\n\n    // The current phase start time\n    uint256 public currentPhaseStartTime;\n\n    // The owner role is used to globally govern the contract\n    bytes32 internal constant ROLE_OWNER = keccak256(\"ROLE_OWNER\");\n\n    // The admin role is used for administrator duties and reports to the owner\n    bytes32 internal constant ROLE_ADMIN = keccak256(\"ROLE_ADMIN\");\n\n    // The role to declare round winners\n    bytes32 internal constant ROLE_GAME_ADMIN = keccak256(\"ROLE_GAME_ADMIN\");\n\n    // Reserved id for the in game currency\n    uint256 internal constant IN_GAME_CURRENCY_ID = 0;\n\n    // Constants used to determine fee proportions in percentage\n    // Usage: fee.mul(proportion).div(100)\n    uint8 internal constant HERO_MINT_ROYALTY_PERCENT = 25;\n    uint8 internal constant HERO_MINT_DEV_PERCENT = 25;\n\n    // The amount of ETH contained in the rewards pool\n    uint256 public rewardsPoolAmount = 0;\n\n    // The amount of ETH contained in the dev fund\n    uint256 public devFund = 0;\n\n    // The rewards share for every hero with the winning affinity calculated at the end of every round\n    uint256 internal _heroRewardsShare = 0;\n\n    // The identifier for the price wars game\n    string internal constant PRICE_WARS_ID = \"PRICE_WARS\";\n\n    // The max amount of elders that can be minted\n    uint256 public constant MAX_NUMBER_OF_ELDERS = 7;\n\n    // The amount of elders minted\n    // This amount cannot be greater than MAX_NUMBER_OF_ELDERS\n    uint256 public eldersInGame = 0;\n\n    // The mapping of elder id to elder owner, ids can only be in the range of [1, MAX_NUMBER OF ELDERS]\n    mapping(uint256 => address) internal _elderOwners;\n\n    // The mapping of elder id to the elder spirit\n    mapping(uint256 => ElderSpirit) internal _elderSpirits;\n\n    // The amount of heros minted\n    uint256 public heroesMinted = 0;\n\n    // The mapping of hero id to owner, ids can only be in the range of\n    // [1 + MAX_NUMBER_OF_ELDERS, ]\n    mapping(uint256 => address) internal _heroOwners;\n\n    // The mapping of hero id to the hero\n    mapping(uint256 => Hero) internal _heroes;\n\n    // The mapping of the round played to the elder spawns mapping\n    mapping(uint256 => mapping(uint256 => uint256)) internal _roundElderSpawns;\n\n    // The mint price for elders and heroes\n    uint256 public elderMintPrice;\n\n    // The current round index\n    uint256 public currentRound;\n\n    // The mapping of affinities (token ticker) to price feed address\n    mapping(string => address) internal _affinities;\n\n    // List of available affinities\n    string[] public affinities;\n\n    // The key hash used for VRF\n    bytes32 internal _keyHash;\n\n    // The fee in LINK for VRF\n    uint256 internal _fee;\n\n    // Mapping of request id to hero id\n    mapping(bytes32 => uint256) internal _heroRandomRequest;\n\n    // Mapping of request id to random result\n    mapping(bytes32 => uint256) internal _randomResultsVRF;\n\n    // The list of affinities that won in a round\n    mapping(uint256 => string) public winningAffinitiesByRound;\n\n    // Mapping of hero id to a mapping of round to a bool of the rewards claim\n    mapping(uint256 => mapping(uint256 => bool)) internal _heroRewardsClaimed;\n\n    // The registry of minigame factories\n    IMinigameFactoryRegistry internal _minigameFactoryRegistry;\n\n    /// @notice Triggered when an elder spirit gets minted\n    /// @param elderId The elder id belonging to the minted elder\n    /// @param owner The address of the owner\n    event ElderSpiritMinted(uint256 elderId, address owner);\n\n    /// @notice Triggered when a hero gets minted\n    /// @param heroId The hero id belonging to the hero that was minted\n    /// @param owner The address of the owner\n    event HeroMinted(uint256 heroId, address owner);\n\n    /// @notice Triggered when the elder spirits have been burned\n    event ElderSpiritsBurned();\n\n    // Initializes a new CryptoChampions contract\n    // TODO: need to provide the proper uri\n    constructor(\n        bytes32 keyhash,\n        address vrfCoordinator,\n        address linkToken,\n        address minigameFactoryRegistry\n    ) public ERC1155(\"uri\") VRFConsumerBase(vrfCoordinator, linkToken) {\n        // Set up administrative roles\n        _setRoleAdmin(ROLE_OWNER, ROLE_OWNER);\n        _setRoleAdmin(ROLE_ADMIN, ROLE_OWNER);\n        _setRoleAdmin(ROLE_GAME_ADMIN, ROLE_OWNER);\n\n        // Set up the deployer as the owner and give admin rights\n        _setupRole(ROLE_OWNER, msg.sender);\n        grantRole(ROLE_ADMIN, msg.sender);\n\n        // Set initial elder mint price\n        elderMintPrice = 0.271 ether;\n\n        // Set the initial round to 0\n        currentRound = 0;\n\n        // Set initial phase to phase one and phase start time\n        currentPhase = Phase.SETUP;\n        currentPhaseStartTime = now;\n\n        // Set VRF fields\n        _keyHash = keyhash;\n        _fee = 0.1 * 10**18; // 0.1 LINK\n\n        // Set phase durations\n        _setupPhaseDuration = 2 days;\n        _actionPhaseDuration = 2 days;\n\n        _minigameFactoryRegistry = IMinigameFactoryRegistry(minigameFactoryRegistry);\n    }\n\n    modifier isValidElderSpiritId(uint256 elderId) {\n        require(elderId > IN_GAME_CURRENCY_ID && elderId <= MAX_NUMBER_OF_ELDERS); // dev: Given id is not valid.\n        _;\n    }\n\n    modifier isValidHero(uint256 heroId) {\n        require(heroId > MAX_NUMBER_OF_ELDERS); // dev: Given id is not valid.\n        require(_heroes[heroId].valid); // dev: Hero is not valid.\n        _;\n    }\n\n    // Restrict to only price war addresses\n    modifier onlyGameAdmin {\n        _hasRole(ROLE_GAME_ADMIN);\n        _;\n    }\n\n    // Restrict to only admins\n    modifier onlyAdmin {\n        _hasRole(ROLE_ADMIN);\n        _;\n    }\n\n    // Restrict to the specified phase\n    modifier atPhase(Phase phase) {\n        require(currentPhase == phase); // dev: Current phase prohibits action.\n        _;\n    }\n\n    /// @notice Sets the duration of the setup phase\n    /// @param numDays Number of days for the setup phase duration\n    function setSetupPhaseDuration(uint256 numDays) external onlyAdmin {\n        _setupPhaseDuration = numDays * 1 days;\n    }\n\n    /// @notice Sets the duration of the action phase\n    /// @param numDays Number of days for the action phase\n    function setActionPhaseDuration(uint256 numDays) external onlyAdmin {\n        _actionPhaseDuration = numDays * 1 days;\n    }\n\n    /// @notice Transitions to the next phase\n    function _transitionNextPhase() internal {\n        if (currentPhase == Phase.SETUP) {\n            // If rewards have gone unclaimed, send to address\n            // todo\n            rewardsPoolAmount = 0;\n\n            // Reset the hero rewards share\n            _heroRewardsShare = 0;\n\n            // todo mint all elders that have yet to be minted\n\n            // Increment the round\n            currentRound = currentRound.add(1);\n\n            // Set the next phase\n            currentPhase = Phase.ACTION;\n        } else if (currentPhase == Phase.ACTION) {\n            // Start the price game that will determine the winning affinity\n            _startNewPriceGame();\n\n            // Calculate hero rewards.\n            // Start by finding which elder had the winning affinity\n            uint256 i = 1;\n            for (; i <= eldersInGame; ++i) {\n                if (\n                    keccak256(bytes(_elderSpirits[i].affinity)) ==\n                    keccak256(bytes(winningAffinitiesByRound[currentRound]))\n                ) {\n                    if (getElderSpawnsAmount(currentRound, i) > 0) {\n                        _heroRewardsShare = rewardsPoolAmount.div(getElderSpawnsAmount(currentRound, i));\n                        break;\n                    }\n                }\n            }\n\n            // Burn the elders\n            _burnElders();\n\n            // Set the next phase\n            currentPhase = Phase.SETUP;\n        }\n\n        currentPhaseStartTime = now;\n    }\n\n    /// @notice Sets the contract's phase\n    /// @dev May delete function and keep only the refresh phase function\n    /// @param phase The phase the contract should be set to\n    function setPhase(Phase phase) external onlyAdmin {\n        currentPhase = phase;\n    }\n\n    /// @notice Transitions to next phase if the condition is met and rewards caller for a successful phase transition\n    function refreshPhase() external override {\n        bool phaseChanged = false;\n\n        if (currentPhase == Phase.SETUP && now >= currentPhaseStartTime + _setupPhaseDuration) {\n            _transitionNextPhase();\n        } else if (currentPhase == Phase.ACTION && now >= currentPhaseStartTime + _actionPhaseDuration) {\n            _transitionNextPhase();\n        }\n\n        if (phaseChanged) {\n            // todo reward msg.sender\n        }\n    }\n\n    /// @notice Makes a request for a random number\n    /// @param userProvidedSeed The seed for the random request\n    /// @return requestId The request id\n    function _getRandomNumber(uint256 userProvidedSeed) internal returns (bytes32 requestId) {\n        require(LINK.balanceOf(address(this)) >= _fee); // dev: Not enough LINK - fill contract with faucet\n        return requestRandomness(_keyHash, _fee, userProvidedSeed);\n    }\n\n    /// @notice Callback function used by the VRF coordinator\n    /// @param requestId The request id\n    /// @param randomness The randomness\n    function fulfillRandomness(bytes32 requestId, uint256 randomness) internal override {\n        _randomResultsVRF[requestId] = randomness;\n        _trainHero(requestId);\n    }\n\n    /// @notice Check if msg.sender has the role\n    /// @param role The role to verify\n    function _hasRole(bytes32 role) internal view {\n        require(hasRole(role, msg.sender)); // dev: Access denied.\n    }\n\n    /// @notice Creates a new token affinity\n    /// @dev This will be called by a priviledged address. It will allow to create new affinities. May need to add a\n    /// remove affinity function as well.\n    /// @param tokenTicker The token ticker of the affinity\n    /// @param feedAddress The price feed address\n    function createAffinity(string calldata tokenTicker, address feedAddress) external override onlyAdmin {\n        _affinities[tokenTicker] = feedAddress;\n        affinities.push(tokenTicker);\n    }\n\n    /// @notice Sets the elder mint price\n    /// @dev Can only be called by an admin address\n    /// @param price The new elder mint price\n    function setElderMintPrice(uint256 price) external override onlyAdmin {\n        elderMintPrice = price;\n    }\n\n    /// @notice Mints an elder spirit\n    /// @dev For now only race, class, and token (affinity) are needed. This will change. The race and class ids will\n    /// probably be public constants defined in the crypto champions contract, this is subject to change.\n    /// @param raceId The race id\n    /// @param classId The class id\n    /// @param affinity The affinity of the minted hero\n    /// @return The elder spirit id\n    function mintElderSpirit(\n        uint256 raceId,\n        uint256 classId,\n        string calldata affinity\n    ) external payable override atPhase(Phase.SETUP) returns (uint256) {\n        require(eldersInGame < MAX_NUMBER_OF_ELDERS); // dev: Max number of elders already minted.\n        require(msg.value >= elderMintPrice); // dev: Insufficient payment.\n        require(_affinities[affinity] != address(0)); // dev: Affinity does not exist.\n\n        // Generate the elderId and make sure it doesn't already exists\n        uint256 elderId = eldersInGame.add(1);\n        assert(_elderOwners[elderId] == address(0)); // dev: Elder with id already has owner.\n        assert(_elderSpirits[elderId].valid == false); // dev: Elder spirit with id has already been generated.\n\n        // Get the price data of affinity\n        int256 affinityPrice;\n        (, affinityPrice, , , ) = AggregatorV3Interface(_affinities[affinity]).latestRoundData();\n\n        // Create the elder spirit\n        ElderSpirit memory elder;\n        elder.valid = true;\n        elder.raceId = raceId;\n        elder.classId = classId;\n        elder.affinity = affinity;\n        elder.affinityPrice = affinityPrice;\n\n        // Mint the NFT\n        _mint(_msgSender(), elderId, 1, \"\"); // TODO: give the URI\n\n        // Assign the elder id with the owner and its spirit\n        _elderOwners[elderId] = _msgSender();\n        _elderSpirits[elderId] = elder;\n\n        // Increment elders minted\n        eldersInGame = eldersInGame.add(1);\n\n        // Refund if user sent too much\n        _refundSender(elderMintPrice);\n\n        // The entire elder minting fee goes to the dev fund\n        devFund = devFund.add(elderMintPrice);\n\n        emit ElderSpiritMinted(elderId, _msgSender());\n\n        return elderId;\n    }\n\n    /// @notice Gets the elder owner for the given elder id\n    /// @param elderId The elder id\n    /// @return The owner of the elder\n    function getElderOwner(uint256 elderId) public view override isValidElderSpiritId(elderId) returns (address) {\n        require(_elderOwners[elderId] != address(0)); // dev: Given elder id has not been minted.\n\n        return _elderOwners[elderId];\n    }\n\n    /// @notice Mints a hero based on an elder spirit\n    /// @param elderId The id of the elder spirit this hero is based on\n    /// @return The hero id\n    function mintHero(uint256 elderId, string calldata heroName)\n        external\n        payable\n        override\n        isValidElderSpiritId(elderId)\n        atPhase(Phase.ACTION)\n        returns (uint256)\n    {\n        require(_elderSpirits[elderId].valid); // dev: Elder with id doesn't exists or not valid.\n\n        require(_canMintHero(elderId)); // dev: Can't mint hero. Too mnay heroes minted for elder.\n\n        uint256 mintPrice = getHeroMintPrice(currentRound, elderId);\n        require(msg.value >= mintPrice); // dev: Insufficient payment.\n\n        // Generate the hero id\n        uint256 heroId = heroesMinted.add(1) + MAX_NUMBER_OF_ELDERS;\n        assert(_heroOwners[heroId] == address(0)); // dev: Hero with id already has an owner.\n        assert(_heroes[heroId].valid == false); // dev: Hero with id has already been generated.\n\n        // Create the hero\n        Hero memory hero;\n        hero.valid = true;\n        hero.name = heroName;\n        hero.roundMinted = currentRound;\n        hero.elderId = elderId;\n        hero.raceId = _elderSpirits[elderId].raceId;\n        hero.classId = _elderSpirits[elderId].classId;\n        hero.affinity = _elderSpirits[elderId].affinity;\n        _heroes[heroId] = hero;\n\n        // Request the random number and set hero attributes\n        bytes32 requestId = _getRandomNumber(heroId);\n        _heroRandomRequest[requestId] = heroId;\n\n        // Mint the NFT\n        _mint(_msgSender(), heroId, 1, \"\"); // TODO: give the URI\n\n        // Mint in game currency tokens\n        _mint(_msgSender(), IN_GAME_CURRENCY_ID, NUM_TOKENS_MINTED, \"\");\n\n        // Assign the hero id with the owner and with the hero\n        _heroOwners[heroId] = _msgSender();\n\n        // Increment the heroes minted and the elder spawns\n        heroesMinted = heroesMinted.add(1);\n        _roundElderSpawns[currentRound][elderId] = _roundElderSpawns[currentRound][elderId].add(1);\n\n        // Disburse royalties\n        uint256 royaltyFee = mintPrice.mul(HERO_MINT_ROYALTY_PERCENT).div(100);\n        address seedOwner = _elderOwners[elderId];\n        (bool success, ) = seedOwner.call{ value: royaltyFee }(\"\");\n        require(success, \"Payment failed\");\n\n        // Update the rewards and dev fund pools\n        uint256 devFee = mintPrice.mul(HERO_MINT_DEV_PERCENT).div(100);\n        devFund = devFund.add(devFee);\n        rewardsPoolAmount = rewardsPoolAmount.add(mintPrice.sub(royaltyFee).sub(devFee));\n\n        // Refund if user sent too much\n        _refundSender(mintPrice);\n\n        emit HeroMinted(heroId, _msgSender());\n\n        return heroId;\n    }\n\n    /// @notice Checks to see if a hero can be minted for a given elder\n    /// @dev (n < 4) || (n <= 2 * m)\n    ///     n is number of champions already minted for elder\n    ///     m is number of champions already minted for elder with least amount of champions\n    /// @param elderId The elder id\n    /// @return True if hero can be minted, false otherwise\n    function _canMintHero(uint256 elderId) internal view returns (bool) {\n        // Verify first condition\n        if (_roundElderSpawns[currentRound][elderId] < 4) {\n            return true;\n        }\n\n        // Find the elder with the least amount of heroes minted\n        uint256 smallestElderAmount = _roundElderSpawns[currentRound][elderId];\n        for (uint256 i = 1; i <= eldersInGame; ++i) {\n            if (_roundElderSpawns[currentRound][i] < smallestElderAmount) {\n                smallestElderAmount = _roundElderSpawns[currentRound][i];\n            }\n        }\n\n        return _roundElderSpawns[currentRound][elderId] <= smallestElderAmount.mul(2);\n    }\n\n    /// @notice Sets the hero attributes\n    /// @param requestId The request id that is mapped to a hero\n    function _trainHero(bytes32 requestId) internal isValidHero(_heroRandomRequest[requestId]) {\n        uint256 heroId = _heroRandomRequest[requestId];\n        uint256 randomNumber = _randomResultsVRF[requestId];\n        uint256 newRandomNumber;\n\n        _heroes[heroId].level = 1; // 1 by default\n        (_heroes[heroId].appearance, newRandomNumber) = _rollDice(2, randomNumber); // 1 out of 2\n\n        (_heroes[heroId].trait1, newRandomNumber) = _rollDice(4, newRandomNumber); // 1 out of 4\n        (_heroes[heroId].trait2, newRandomNumber) = _rollDice(4, newRandomNumber); // 1 out of 4\n        (_heroes[heroId].skill1, newRandomNumber) = _rollDice(4, newRandomNumber); // 1 out of 4\n        (_heroes[heroId].skill2, newRandomNumber) = _rollDice(4, newRandomNumber); // 1 out of 4\n\n        (_heroes[heroId].alignment, newRandomNumber) = _rollDice(9, newRandomNumber); // 1 out of 9\n        (_heroes[heroId].background, newRandomNumber) = _rollDice(30, newRandomNumber); // 1 out of 30\n        (_heroes[heroId].hometown, newRandomNumber) = _rollDice(24, newRandomNumber); // 1 out of 24\n        (_heroes[heroId].weather, newRandomNumber) = _rollDice(7, newRandomNumber); // 1 ouf of 7\n\n        (_heroes[heroId].hp, newRandomNumber) = _rollDice(21, newRandomNumber); // Roll 10-30\n        _heroes[heroId].hp = uint8(_heroes[heroId].hp.add(9));\n        (_heroes[heroId].mana, newRandomNumber) = _rollDice(21, newRandomNumber); // Roll 10-30\n        _heroes[heroId].mana = uint8(_heroes[heroId].mana.add(9));\n        (_heroes[heroId].stamina, newRandomNumber) = _rollDice(31, newRandomNumber); // Roll 10-40\n        _heroes[heroId].stamina = uint8(_heroes[heroId].stamina.add(9));\n\n        (_heroes[heroId].strength, newRandomNumber) = _rollDice(16, newRandomNumber); // Roll 3-18\n        _heroes[heroId].strength = uint8(_heroes[heroId].strength.add(2));\n        (_heroes[heroId].dexterity, newRandomNumber) = _rollDice(16, newRandomNumber); // Roll 3-18\n        _heroes[heroId].dexterity = uint8(_heroes[heroId].dexterity.add(2));\n        (_heroes[heroId].constitution, newRandomNumber) = _rollDice(16, newRandomNumber); // Roll 3-18\n        _heroes[heroId].constitution = uint8(_heroes[heroId].constitution.add(2));\n        (_heroes[heroId].intelligence, newRandomNumber) = _rollDice(16, newRandomNumber); // Roll 3-18\n        _heroes[heroId].intelligence = uint8(_heroes[heroId].intelligence.add(2));\n        (_heroes[heroId].wisdom, newRandomNumber) = _rollDice(16, newRandomNumber); // Roll 3-18\n        _heroes[heroId].wisdom = uint8(_heroes[heroId].wisdom.add(2));\n        (_heroes[heroId].charisma, newRandomNumber) = _rollDice(16, newRandomNumber); // Roll 3-18\n        _heroes[heroId].charisma = uint8(_heroes[heroId].charisma.add(2));\n    }\n\n    /// @notice Simulates rolling dice\n    /// @param maxNumber The max number of the dice (e.g. regular die is 6)\n    /// @param randomNumber The random number\n    /// @return The result of the dice roll and a new random number to use for another dice roll\n    function _rollDice(uint8 maxNumber, uint256 randomNumber) internal pure returns (uint8, uint256) {\n        return (uint8(randomNumber.mod(maxNumber).add(1)), randomNumber.div(10));\n    }\n\n    /// @notice Get the hero owner for the given hero id\n    /// @param heroId The hero id\n    /// @return The owner address\n    function getHeroOwner(uint256 heroId) public view override isValidHero(heroId) returns (address) {\n        require(_heroOwners[heroId] != address(0)); // dev: Given hero id has not been minted.\n\n        return _heroOwners[heroId];\n    }\n\n    /// @notice Burns all the elder spirits in game\n    function _burnElders() internal {\n        for (uint256 i = 1; i <= MAX_NUMBER_OF_ELDERS; ++i) {\n            if (_elderSpirits[i].valid) {\n                _burnElder(i);\n            }\n        }\n\n        emit ElderSpiritsBurned();\n    }\n\n    /// @notice Burns the elder spirit\n    /// @dev This will only be able to be called by the contract\n    /// @param elderId The elder id\n    function _burnElder(uint256 elderId) internal isValidElderSpiritId(elderId) {\n        require(_elderSpirits[elderId].valid); // dev: Cannot burn elder that does not exist.\n\n        _burn(_elderOwners[elderId], elderId, 1);\n\n        // Reset elder values for elder id\n        eldersInGame = eldersInGame.sub(1);\n        _elderOwners[elderId] = address(0);\n        _elderSpirits[elderId].valid = false;\n    }\n\n    /// @notice Gets the minting price of a hero based on specified elder spirit\n    /// @param round The round of the hero to be minted\n    /// @param elderId The elder id for which the hero will be based on\n    /// @return The hero mint price\n    function getHeroMintPrice(uint256 round, uint256 elderId)\n        public\n        view\n        override\n        isValidElderSpiritId(elderId)\n        returns (uint256)\n    {\n        require(round <= currentRound); // dev: Cannot get price round has not started.\n        uint256 heroAmount = _roundElderSpawns[round][elderId].add(1);\n\n        return _priceFormula(heroAmount);\n    }\n\n    /// @notice The bounding curve function that calculates price for the new supply\n    /// @dev price = 0.02*(heroes minted) + 0.1\n    /// @param newSupply The new supply after a burn or mint\n    /// @return The calculated price\n    function _priceFormula(uint256 newSupply) internal pure returns (uint256) {\n        uint256 price;\n        uint256 base = 1;\n        price = newSupply.mul(10**18).mul(2).div(100);\n        price = price.add(base.mul(10**18).div(10));\n\n        return price;\n    }\n\n    /// @dev Hook function called before every token transfer\n    function _beforeTokenTransfer(\n        address operator,\n        address from,\n        address to,\n        uint256[] memory ids,\n        uint256[] memory amounts,\n        bytes memory data\n    ) internal virtual override {\n        super._beforeTokenTransfer(operator, from, to, ids, amounts, data);\n\n        for (uint256 i = 0; i < ids.length; i++) {\n            // If token is an elder spirit, update owners so can send them royalties\n            if (ids[i] > IN_GAME_CURRENCY_ID && ids[i] <= MAX_NUMBER_OF_ELDERS) {\n                _elderOwners[ids[i]] = payable(to);\n            }\n            if (ids[i] > MAX_NUMBER_OF_ELDERS) {\n                _heroOwners[ids[i]] = to;\n            }\n        }\n    }\n\n    /// @notice Gets the amount of heroes spawn from the elder with the specified id during the specified round\n    /// @param round The round the elder was created\n    /// @param elderId The elder id\n    /// @return The amount of heroes spawned from the elder\n    function getElderSpawnsAmount(uint256 round, uint256 elderId)\n        public\n        view\n        override\n        isValidElderSpiritId(elderId)\n        returns (uint256)\n    {\n        require(round <= currentRound); // dev: Invalid round.\n        return _roundElderSpawns[round][elderId];\n    }\n\n    /// @notice Refunds the sender if they sent too much\n    /// @param cost The cost\n    function _refundSender(uint256 cost) internal {\n        if (msg.value.sub(cost) > 0) {\n            (bool success, ) = msg.sender.call{ value: msg.value.sub(cost) }(\"\");\n            require(success); // dev: Refund failed.\n        }\n    }\n\n    /// @notice Fetches the data of a single elder spirit\n    /// @param elderId The id of the elder being searched for\n    /// @return The elder's attributes in the following order (valid, raceId, classId, affinity)\n    function getElderSpirit(uint256 elderId)\n        external\n        view\n        override\n        isValidElderSpiritId(elderId)\n        returns (\n            bool,\n            uint256,\n            uint256,\n            string memory,\n            int256\n        )\n    {\n        ElderSpirit memory elderSpirit = _elderSpirits[elderId];\n        return (\n            elderSpirit.valid,\n            elderSpirit.raceId,\n            elderSpirit.classId,\n            elderSpirit.affinity,\n            elderSpirit.affinityPrice\n        );\n    }\n\n    /// @notice Hero getter function\n    /// @param heroId The hero id\n    /// @return valid, affinity, affinity price, round minted, elder id\n    function getHeroGameData(uint256 heroId)\n        external\n        view\n        override\n        isValidHero(heroId)\n        returns (\n            bool, // valid\n            string memory, // affinity\n            int256, // affinity price\n            uint256, // round minted\n            uint256 // elder id\n        )\n    {\n        return (\n            _heroes[heroId].valid,\n            _heroes[heroId].affinity,\n            _heroes[heroId].affinityPrice,\n            _heroes[heroId].roundMinted,\n            _heroes[heroId].elderId\n        );\n    }\n\n    /// @notice Hero getter function\n    /// @param heroId The hero id\n    /// @return name, race id, class id, appearance\n    function getHeroVisuals(uint256 heroId)\n        external\n        view\n        override\n        isValidHero(heroId)\n        returns (\n            string memory, // name\n            uint256, // race id\n            uint256, // class id\n            uint8 // appearance\n        )\n    {\n        return (_heroes[heroId].name, _heroes[heroId].raceId, _heroes[heroId].classId, _heroes[heroId].appearance);\n    }\n\n    /// @notice Hero getter function\n    /// @param heroId The hero id\n    /// @return trait 1, trait 2, skill 1, skill 2\n    function getHeroTraitsSkills(uint256 heroId)\n        external\n        view\n        override\n        isValidHero(heroId)\n        returns (\n            uint8, // trait 1\n            uint8, // trait 2\n            uint8, // skill 1\n            uint8 // skill 2\n        )\n    {\n        return (_heroes[heroId].trait1, _heroes[heroId].trait2, _heroes[heroId].skill1, _heroes[heroId].skill2);\n    }\n\n    /// @notice Hero getter function\n    /// @param heroId The hero id\n    /// @return alignment, background, hometown, weather\n    function getHeroLore(uint256 heroId)\n        external\n        view\n        override\n        isValidHero(heroId)\n        returns (\n            uint8, // alignment\n            uint8, // background\n            uint8, // hometown\n            uint8 // weather\n        )\n    {\n        return (\n            _heroes[heroId].alignment,\n            _heroes[heroId].background,\n            _heroes[heroId].hometown,\n            _heroes[heroId].weather\n        );\n    }\n\n    /// @notice Hero getter function\n    /// @param heroId The hero id\n    /// @return level, hp, mana\n    function getHeroVitals(uint256 heroId)\n        external\n        view\n        override\n        isValidHero(heroId)\n        returns (\n            uint8, // level\n            uint8, // hp\n            uint8, // mana\n            uint8 // stamina\n        )\n    {\n        return (_heroes[heroId].level, _heroes[heroId].hp, _heroes[heroId].mana, _heroes[heroId].stamina);\n    }\n\n    /// @notice Hero getter function\n    /// @param heroId The hero id\n    /// @return stamina, strength, dexterity, constitution, intelligence, wisdom, charisma\n    function getHeroStats(uint256 heroId)\n        external\n        view\n        override\n        isValidHero(heroId)\n        returns (\n            uint8, // strength\n            uint8, // dexterity\n            uint8, // constitution\n            uint8, // intelligence\n            uint8, // wisdom\n            uint8 // charisma\n        )\n    {\n        return (\n            _heroes[heroId].strength,\n            _heroes[heroId].dexterity,\n            _heroes[heroId].constitution,\n            _heroes[heroId].intelligence,\n            _heroes[heroId].wisdom,\n            _heroes[heroId].charisma\n        );\n    }\n\n    /// @notice Fetches the feed address for a given affinity\n    /// @param affinity The affinity being searched for\n    /// @return The address of the affinity's feed address\n    function getAffinityFeedAddress(string calldata affinity) external view override returns (address) {\n        return _affinities[affinity];\n    }\n\n    /// @notice Fetches the number of elders currently in the game\n    /// @return The current number of elders in the game\n    function getNumEldersInGame() external view override returns (uint256) {\n        return eldersInGame;\n    }\n\n    /// @notice Declares a winning affinity for a round\n    /// @dev This can only be called by a game admin contract\n    /// @param winningAffinity The affinity that won the game\n    function declareRoundWinner(string calldata winningAffinity) external override atPhase(Phase.ACTION) onlyGameAdmin {\n        winningAffinitiesByRound[currentRound] = winningAffinity;\n    }\n\n    /// @notice Claims the rewards for the hero if eligible\n    /// @dev Can only claim once and only for the round the hero was minted\n    /// @param heroId The hero id\n    function claimReward(uint256 heroId) external override atPhase(Phase.SETUP) isValidHero(heroId) {\n        // Check if hero is eligible and if hero hasn't already claimed\n        require(_heroes[heroId].roundMinted == currentRound); // dev: Hero was not minted this round.\n        require(keccak256(bytes(_heroes[heroId].affinity)) == keccak256(bytes(winningAffinitiesByRound[currentRound]))); // dev: Hero does not have the winning affinity.\n        require(_heroRewardsClaimed[heroId][currentRound] == false); // dev: Reward has already been claimed.\n\n        (bool success, ) = _heroOwners[heroId].call{ value: _heroRewardsShare }(\"\");\n        require(success, \"Payment failed\");\n        rewardsPoolAmount = rewardsPoolAmount.sub(_heroRewardsShare);\n        _heroRewardsClaimed[heroId][currentRound] = true;\n    }\n\n    /// @notice Starts a new price game\n    /// @dev This can only be called by the admin of the contract\n    function _startNewPriceGame() internal {\n        address priceWarsFactoryAddress = _minigameFactoryRegistry.getFactory(PRICE_WARS_ID);\n        PriceWarsFactory priceWarsFactory = PriceWarsFactory(priceWarsFactoryAddress);\n        PriceWars priceWar = priceWarsFactory.createPriceWar(address(this));\n        grantRole(ROLE_GAME_ADMIN, address(priceWar));\n        priceWar.startGame();\n    }\n\n    /// @notice Transfers in game currency tokens from one address to another\n    /// @param to The receiving address\n    /// @param amount The amount to transfer\n    function transferInGameTokens(address to, uint256 amount) external override {\n        bytes memory data;\n        safeTransferFrom(msg.sender, to, IN_GAME_CURRENCY_ID, amount, data);\n    }\n\n    /// @notice Transfers in game currency tokens from one address to another.\n    /// @param from The sending address.  Note that the sender must be authorized to transfer funds if the sender is different from the from address.\n    /// @param to The receiving address\n    /// @param amount The amount to transfer\n    function delegatedTransferInGameTokens(\n        address from,\n        address to,\n        uint256 amount\n    ) external override {\n        bytes memory data;\n        safeTransferFrom(from, to, IN_GAME_CURRENCY_ID, amount, data);\n    }\n\n    /// @notice Returns whether or not hero has reward for the round\n    /// @param heroId The id of the hero being searched for\n    function hasRoundReward(uint256 heroId) external view returns (bool) {\n        Hero memory hero = _heroes[heroId];\n        string memory roundWinningAffinity = winningAffinitiesByRound[currentRound];\n        return\n            !_heroRewardsClaimed[heroId][currentRound] &&\n            keccak256(bytes(hero.affinity)) == keccak256(bytes(roundWinningAffinity));\n    }\n}\n","sourcePath":"contracts/CryptoChampions.sol","type":"contract","deployment":{"address":"0x2d34C530b9354B1493838BB0Ff44E50Af41805bA","chainid":"4","blockHeight":8372666}}